{
	"contracts/Lesson5Types.sol": {
		"Struct5Lesson": {
			"abi": [
				{
					"inputs": [
						{
							"internalType": "address",
							"name": "",
							"type": "address"
						}
					],
					"name": "balances",
					"outputs": [
						{
							"internalType": "uint256",
							"name": "totalPayments",
							"type": "uint256"
						}
					],
					"stateMutability": "view",
					"type": "function"
				},
				{
					"inputs": [
						{
							"internalType": "address",
							"name": "_addr",
							"type": "address"
						},
						{
							"internalType": "uint256",
							"name": "_index",
							"type": "uint256"
						}
					],
					"name": "getPayment",
					"outputs": [
						{
							"components": [
								{
									"components": [
										{
											"internalType": "string",
											"name": "name",
											"type": "string"
										},
										{
											"internalType": "uint256",
											"name": "price",
											"type": "uint256"
										}
									],
									"internalType": "struct Struct5Lesson.Product",
									"name": "product",
									"type": "tuple"
								},
								{
									"internalType": "uint256",
									"name": "amount",
									"type": "uint256"
								},
								{
									"internalType": "uint256",
									"name": "timestamp",
									"type": "uint256"
								},
								{
									"internalType": "address",
									"name": "from",
									"type": "address"
								},
								{
									"internalType": "string",
									"name": "message",
									"type": "string"
								}
							],
							"internalType": "struct Struct5Lesson.Payment",
							"name": "",
							"type": "tuple"
						}
					],
					"stateMutability": "view",
					"type": "function"
				},
				{
					"inputs": [
						{
							"internalType": "string",
							"name": "message",
							"type": "string"
						}
					],
					"name": "payForDool",
					"outputs": [],
					"stateMutability": "payable",
					"type": "function"
				}
			],
			"devdoc": {
				"kind": "dev",
				"methods": {},
				"version": 1
			},
			"evm": {
				"assembly": "    /* \"contracts/Lesson5Types.sol\":58:1844  contract Struct5Lesson {... */\n  mstore(0x40, 0x80)\n  callvalue\n  dup1\n  iszero\n  tag_1\n  jumpi\n  0x00\n  dup1\n  revert\ntag_1:\n  pop\n  dataSize(sub_0)\n  dup1\n  dataOffset(sub_0)\n  0x00\n  codecopy\n  0x00\n  return\nstop\n\nsub_0: assembly {\n        /* \"contracts/Lesson5Types.sol\":58:1844  contract Struct5Lesson {... */\n      mstore(0x40, 0x80)\n      jumpi(tag_1, lt(calldatasize, 0x04))\n      shr(0xe0, calldataload(0x00))\n      dup1\n      0x27e235e3\n      eq\n      tag_2\n      jumpi\n      dup1\n      0x64254cdb\n      eq\n      tag_3\n      jumpi\n      dup1\n      0x977a767c\n      eq\n      tag_4\n      jumpi\n    tag_1:\n      0x00\n      dup1\n      revert\n        /* \"contracts/Lesson5Types.sol\":1083:1126  mapping(address => Balance) public balances */\n    tag_2:\n      callvalue\n      dup1\n      iszero\n      tag_5\n      jumpi\n      0x00\n      dup1\n      revert\n    tag_5:\n      pop\n      tag_6\n      0x04\n      dup1\n      calldatasize\n      sub\n      dup2\n      add\n      swap1\n      tag_7\n      swap2\n      swap1\n      tag_8\n      jump\t// in\n    tag_7:\n      tag_9\n      jump\t// in\n    tag_6:\n      mload(0x40)\n      tag_10\n      swap2\n      swap1\n      tag_11\n      jump\t// in\n    tag_10:\n      mload(0x40)\n      dup1\n      swap2\n      sub\n      swap1\n      return\n        /* \"contracts/Lesson5Types.sol\":1133:1696  function payForDool(string memory message) public payable {... */\n    tag_3:\n      tag_12\n      0x04\n      dup1\n      calldatasize\n      sub\n      dup2\n      add\n      swap1\n      tag_13\n      swap2\n      swap1\n      tag_14\n      jump\t// in\n    tag_13:\n      tag_15\n      jump\t// in\n    tag_12:\n      stop\n        /* \"contracts/Lesson5Types.sol\":1702:1842  function getPayment(address _addr, uint _index) public view returns(Payment memory) {... */\n    tag_4:\n      callvalue\n      dup1\n      iszero\n      tag_16\n      jumpi\n      0x00\n      dup1\n      revert\n    tag_16:\n      pop\n      tag_17\n      0x04\n      dup1\n      calldatasize\n      sub\n      dup2\n      add\n      swap1\n      tag_18\n      swap2\n      swap1\n      tag_19\n      jump\t// in\n    tag_18:\n      tag_20\n      jump\t// in\n    tag_17:\n      mload(0x40)\n      tag_21\n      swap2\n      swap1\n      tag_22\n      jump\t// in\n    tag_21:\n      mload(0x40)\n      dup1\n      swap2\n      sub\n      swap1\n      return\n        /* \"contracts/Lesson5Types.sol\":1083:1126  mapping(address => Balance) public balances */\n    tag_9:\n      mstore(0x20, 0x00)\n      dup1\n      0x00\n      mstore\n      keccak256(0x00, 0x40)\n      0x00\n      swap2\n      pop\n      swap1\n      pop\n      dup1\n      0x00\n      add\n      sload\n      swap1\n      pop\n      dup2\n      jump\t// out\n        /* \"contracts/Lesson5Types.sol\":1133:1696  function payForDool(string memory message) public payable {... */\n    tag_15:\n        /* \"contracts/Lesson5Types.sol\":1201:1209  balances */\n      0x00\n        /* \"contracts/Lesson5Types.sol\":1201:1221  balances[msg.sender] */\n      dup1\n        /* \"contracts/Lesson5Types.sol\":1210:1220  msg.sender */\n      caller\n        /* \"contracts/Lesson5Types.sol\":1201:1221  balances[msg.sender] */\n      0xffffffffffffffffffffffffffffffffffffffff\n      and\n      0xffffffffffffffffffffffffffffffffffffffff\n      and\n      dup2\n      mstore\n      0x20\n      add\n      swap1\n      dup2\n      mstore\n      0x20\n      add\n      0x00\n      keccak256\n        /* \"contracts/Lesson5Types.sol\":1201:1235  balances[msg.sender].totalPayments */\n      0x00\n      add\n      0x00\n        /* \"contracts/Lesson5Types.sol\":1201:1237  balances[msg.sender].totalPayments++ */\n      dup2\n      sload\n      dup1\n      swap3\n      swap2\n      swap1\n      tag_24\n      swap1\n      tag_25\n      jump\t// in\n    tag_24:\n      swap2\n      swap1\n      pop\n      sstore\n      pop\n        /* \"contracts/Lesson5Types.sol\":1247:1257  uint price */\n      0x00\n        /* \"contracts/Lesson5Types.sol\":1260:1279  2000000000000000000 */\n      0x1bc16d674ec80000\n        /* \"contracts/Lesson5Types.sol\":1247:1279  uint price = 2000000000000000000 */\n      swap1\n      pop\n        /* \"contracts/Lesson5Types.sol\":1290:1316  Product memory doolProduct */\n      0x00\n        /* \"contracts/Lesson5Types.sol\":1319:1376  Product(... */\n      mload(0x40)\n      dup1\n      0x40\n      add\n      0x40\n      mstore\n      dup1\n      mload(0x40)\n      dup1\n      0x40\n      add\n      0x40\n      mstore\n      dup1\n      0x05\n      dup2\n      mstore\n      0x20\n      add\n      0x4261726279000000000000000000000000000000000000000000000000000000\n      dup2\n      mstore\n      pop\n      dup2\n      mstore\n      0x20\n      add\n        /* \"contracts/Lesson5Types.sol\":1361:1366  price */\n      dup4\n        /* \"contracts/Lesson5Types.sol\":1319:1376  Product(... */\n      dup2\n      mstore\n      pop\n        /* \"contracts/Lesson5Types.sol\":1290:1376  Product memory doolProduct = Product(... */\n      swap1\n      pop\n        /* \"contracts/Lesson5Types.sol\":1387:1412  Payment memory newPayment */\n      0x00\n        /* \"contracts/Lesson5Types.sol\":1415:1554  Payment(... */\n      mload(0x40)\n      dup1\n      0xa0\n      add\n      0x40\n      mstore\n      dup1\n        /* \"contracts/Lesson5Types.sol\":1436:1447  doolProduct */\n      dup4\n        /* \"contracts/Lesson5Types.sol\":1415:1554  Payment(... */\n      dup2\n      mstore\n      0x20\n      add\n        /* \"contracts/Lesson5Types.sol\":1461:1470  msg.value */\n      callvalue\n        /* \"contracts/Lesson5Types.sol\":1415:1554  Payment(... */\n      dup2\n      mstore\n      0x20\n      add\n        /* \"contracts/Lesson5Types.sol\":1484:1499  block.timestamp */\n      timestamp\n        /* \"contracts/Lesson5Types.sol\":1415:1554  Payment(... */\n      dup2\n      mstore\n      0x20\n      add\n        /* \"contracts/Lesson5Types.sol\":1513:1523  msg.sender */\n      caller\n        /* \"contracts/Lesson5Types.sol\":1415:1554  Payment(... */\n      0xffffffffffffffffffffffffffffffffffffffff\n      and\n      dup2\n      mstore\n      0x20\n      add\n        /* \"contracts/Lesson5Types.sol\":1537:1544  message */\n      dup6\n        /* \"contracts/Lesson5Types.sol\":1415:1554  Payment(... */\n      dup2\n      mstore\n      pop\n        /* \"contracts/Lesson5Types.sol\":1387:1554  Payment memory newPayment = Payment(... */\n      swap1\n      pop\n        /* \"contracts/Lesson5Types.sol\":1581:1586  price */\n      dup3\n        /* \"contracts/Lesson5Types.sol\":1568:1577  msg.value */\n      callvalue\n        /* \"contracts/Lesson5Types.sol\":1568:1586  msg.value >= price */\n      lt\n        /* \"contracts/Lesson5Types.sol\":1565:1690  if(msg.value >= price){... */\n      tag_26\n      jumpi\n        /* \"contracts/Lesson5Types.sol\":1669:1679  newPayment */\n      dup1\n        /* \"contracts/Lesson5Types.sol\":1601:1609  balances */\n      0x00\n        /* \"contracts/Lesson5Types.sol\":1601:1621  balances[msg.sender] */\n      dup1\n        /* \"contracts/Lesson5Types.sol\":1610:1620  msg.sender */\n      caller\n        /* \"contracts/Lesson5Types.sol\":1601:1621  balances[msg.sender] */\n      0xffffffffffffffffffffffffffffffffffffffff\n      and\n      0xffffffffffffffffffffffffffffffffffffffff\n      and\n      dup2\n      mstore\n      0x20\n      add\n      swap1\n      dup2\n      mstore\n      0x20\n      add\n      0x00\n      keccak256\n        /* \"contracts/Lesson5Types.sol\":1601:1630  balances[msg.sender].payments */\n      0x01\n      add\n        /* \"contracts/Lesson5Types.sol\":1601:1666  balances[msg.sender].payments[balances[msg.sender].totalPayments] */\n      0x00\n        /* \"contracts/Lesson5Types.sol\":1631:1639  balances */\n      dup1\n        /* \"contracts/Lesson5Types.sol\":1631:1651  balances[msg.sender] */\n      0x00\n        /* \"contracts/Lesson5Types.sol\":1640:1650  msg.sender */\n      caller\n        /* \"contracts/Lesson5Types.sol\":1631:1651  balances[msg.sender] */\n      0xffffffffffffffffffffffffffffffffffffffff\n      and\n      0xffffffffffffffffffffffffffffffffffffffff\n      and\n      dup2\n      mstore\n      0x20\n      add\n      swap1\n      dup2\n      mstore\n      0x20\n      add\n      0x00\n      keccak256\n        /* \"contracts/Lesson5Types.sol\":1631:1665  balances[msg.sender].totalPayments */\n      0x00\n      add\n      sload\n        /* \"contracts/Lesson5Types.sol\":1601:1666  balances[msg.sender].payments[balances[msg.sender].totalPayments] */\n      dup2\n      mstore\n      0x20\n      add\n      swap1\n      dup2\n      mstore\n      0x20\n      add\n      0x00\n      keccak256\n        /* \"contracts/Lesson5Types.sol\":1601:1679  balances[msg.sender].payments[balances[msg.sender].totalPayments] = newPayment */\n      0x00\n      dup3\n      add\n      mload\n      dup2\n      0x00\n      add\n      0x00\n      dup3\n      add\n      mload\n      dup2\n      0x00\n      add\n      swap1\n      dup1\n      mload\n      swap1\n      0x20\n      add\n      swap1\n      tag_27\n      swap3\n      swap2\n      swap1\n      tag_28\n      jump\t// in\n    tag_27:\n      pop\n      0x20\n      dup3\n      add\n      mload\n      dup2\n      0x01\n      add\n      sstore\n      pop\n      pop\n      0x20\n      dup3\n      add\n      mload\n      dup2\n      0x02\n      add\n      sstore\n      0x40\n      dup3\n      add\n      mload\n      dup2\n      0x03\n      add\n      sstore\n      0x60\n      dup3\n      add\n      mload\n      dup2\n      0x04\n      add\n      exp(0x0100, 0x00)\n      dup2\n      sload\n      dup2\n      0xffffffffffffffffffffffffffffffffffffffff\n      mul\n      not\n      and\n      swap1\n      dup4\n      0xffffffffffffffffffffffffffffffffffffffff\n      and\n      mul\n      or\n      swap1\n      sstore\n      pop\n      0x80\n      dup3\n      add\n      mload\n      dup2\n      0x05\n      add\n      swap1\n      dup1\n      mload\n      swap1\n      0x20\n      add\n      swap1\n      tag_29\n      swap3\n      swap2\n      swap1\n      tag_28\n      jump\t// in\n    tag_29:\n      pop\n      swap1\n      pop\n      pop\n        /* \"contracts/Lesson5Types.sol\":1565:1690  if(msg.value >= price){... */\n    tag_26:\n        /* \"contracts/Lesson5Types.sol\":1191:1696  {... */\n      pop\n      pop\n      pop\n        /* \"contracts/Lesson5Types.sol\":1133:1696  function payForDool(string memory message) public payable {... */\n      pop\n      jump\t// out\n        /* \"contracts/Lesson5Types.sol\":1702:1842  function getPayment(address _addr, uint _index) public view returns(Payment memory) {... */\n    tag_20:\n        /* \"contracts/Lesson5Types.sol\":1770:1784  Payment memory */\n      tag_30\n      tag_31\n      jump\t// in\n    tag_30:\n        /* \"contracts/Lesson5Types.sol\":1803:1811  balances */\n      0x00\n        /* \"contracts/Lesson5Types.sol\":1803:1818  balances[_addr] */\n      dup1\n        /* \"contracts/Lesson5Types.sol\":1812:1817  _addr */\n      dup5\n        /* \"contracts/Lesson5Types.sol\":1803:1818  balances[_addr] */\n      0xffffffffffffffffffffffffffffffffffffffff\n      and\n      0xffffffffffffffffffffffffffffffffffffffff\n      and\n      dup2\n      mstore\n      0x20\n      add\n      swap1\n      dup2\n      mstore\n      0x20\n      add\n      0x00\n      keccak256\n        /* \"contracts/Lesson5Types.sol\":1803:1827  balances[_addr].payments */\n      0x01\n      add\n        /* \"contracts/Lesson5Types.sol\":1803:1835  balances[_addr].payments[_index] */\n      0x00\n        /* \"contracts/Lesson5Types.sol\":1828:1834  _index */\n      dup4\n        /* \"contracts/Lesson5Types.sol\":1803:1835  balances[_addr].payments[_index] */\n      dup2\n      mstore\n      0x20\n      add\n      swap1\n      dup2\n      mstore\n      0x20\n      add\n      0x00\n      keccak256\n        /* \"contracts/Lesson5Types.sol\":1796:1835  return balances[_addr].payments[_index] */\n      mload(0x40)\n      dup1\n      0xa0\n      add\n      0x40\n      mstore\n      swap1\n      dup2\n      0x00\n      dup3\n      add\n      mload(0x40)\n      dup1\n      0x40\n      add\n      0x40\n      mstore\n      swap1\n      dup2\n      0x00\n      dup3\n      add\n      dup1\n      sload\n      tag_33\n      swap1\n      tag_34\n      jump\t// in\n    tag_33:\n      dup1\n      0x1f\n      add\n      0x20\n      dup1\n      swap2\n      div\n      mul\n      0x20\n      add\n      mload(0x40)\n      swap1\n      dup2\n      add\n      0x40\n      mstore\n      dup1\n      swap3\n      swap2\n      swap1\n      dup2\n      dup2\n      mstore\n      0x20\n      add\n      dup3\n      dup1\n      sload\n      tag_35\n      swap1\n      tag_34\n      jump\t// in\n    tag_35:\n      dup1\n      iszero\n      tag_36\n      jumpi\n      dup1\n      0x1f\n      lt\n      tag_37\n      jumpi\n      0x0100\n      dup1\n      dup4\n      sload\n      div\n      mul\n      dup4\n      mstore\n      swap2\n      0x20\n      add\n      swap2\n      jump(tag_36)\n    tag_37:\n      dup3\n      add\n      swap2\n      swap1\n      0x00\n      mstore\n      keccak256(0x00, 0x20)\n      swap1\n    tag_38:\n      dup2\n      sload\n      dup2\n      mstore\n      swap1\n      0x01\n      add\n      swap1\n      0x20\n      add\n      dup1\n      dup4\n      gt\n      tag_38\n      jumpi\n      dup3\n      swap1\n      sub\n      0x1f\n      and\n      dup3\n      add\n      swap2\n    tag_36:\n      pop\n      pop\n      pop\n      pop\n      pop\n      dup2\n      mstore\n      0x20\n      add\n      0x01\n      dup3\n      add\n      sload\n      dup2\n      mstore\n      pop\n      pop\n      dup2\n      mstore\n      0x20\n      add\n      0x02\n      dup3\n      add\n      sload\n      dup2\n      mstore\n      0x20\n      add\n      0x03\n      dup3\n      add\n      sload\n      dup2\n      mstore\n      0x20\n      add\n      0x04\n      dup3\n      add\n      0x00\n      swap1\n      sload\n      swap1\n      0x0100\n      exp\n      swap1\n      div\n      0xffffffffffffffffffffffffffffffffffffffff\n      and\n      0xffffffffffffffffffffffffffffffffffffffff\n      and\n      0xffffffffffffffffffffffffffffffffffffffff\n      and\n      dup2\n      mstore\n      0x20\n      add\n      0x05\n      dup3\n      add\n      dup1\n      sload\n      tag_39\n      swap1\n      tag_34\n      jump\t// in\n    tag_39:\n      dup1\n      0x1f\n      add\n      0x20\n      dup1\n      swap2\n      div\n      mul\n      0x20\n      add\n      mload(0x40)\n      swap1\n      dup2\n      add\n      0x40\n      mstore\n      dup1\n      swap3\n      swap2\n      swap1\n      dup2\n      dup2\n      mstore\n      0x20\n      add\n      dup3\n      dup1\n      sload\n      tag_40\n      swap1\n      tag_34\n      jump\t// in\n    tag_40:\n      dup1\n      iszero\n      tag_41\n      jumpi\n      dup1\n      0x1f\n      lt\n      tag_42\n      jumpi\n      0x0100\n      dup1\n      dup4\n      sload\n      div\n      mul\n      dup4\n      mstore\n      swap2\n      0x20\n      add\n      swap2\n      jump(tag_41)\n    tag_42:\n      dup3\n      add\n      swap2\n      swap1\n      0x00\n      mstore\n      keccak256(0x00, 0x20)\n      swap1\n    tag_43:\n      dup2\n      sload\n      dup2\n      mstore\n      swap1\n      0x01\n      add\n      swap1\n      0x20\n      add\n      dup1\n      dup4\n      gt\n      tag_43\n      jumpi\n      dup3\n      swap1\n      sub\n      0x1f\n      and\n      dup3\n      add\n      swap2\n    tag_41:\n      pop\n      pop\n      pop\n      pop\n      pop\n      dup2\n      mstore\n      pop\n      pop\n      swap1\n      pop\n        /* \"contracts/Lesson5Types.sol\":1702:1842  function getPayment(address _addr, uint _index) public view returns(Payment memory) {... */\n      swap3\n      swap2\n      pop\n      pop\n      jump\t// out\n    tag_28:\n      dup3\n      dup1\n      sload\n      tag_44\n      swap1\n      tag_34\n      jump\t// in\n    tag_44:\n      swap1\n      0x00\n      mstore\n      keccak256(0x00, 0x20)\n      swap1\n      0x1f\n      add\n      0x20\n      swap1\n      div\n      dup2\n      add\n      swap3\n      dup3\n      tag_46\n      jumpi\n      0x00\n      dup6\n      sstore\n      jump(tag_45)\n    tag_46:\n      dup3\n      0x1f\n      lt\n      tag_47\n      jumpi\n      dup1\n      mload\n      not(0xff)\n      and\n      dup4\n      dup1\n      add\n      or\n      dup6\n      sstore\n      jump(tag_45)\n    tag_47:\n      dup3\n      dup1\n      add\n      0x01\n      add\n      dup6\n      sstore\n      dup3\n      iszero\n      tag_45\n      jumpi\n      swap2\n      dup3\n      add\n    tag_48:\n      dup3\n      dup2\n      gt\n      iszero\n      tag_49\n      jumpi\n      dup3\n      mload\n      dup3\n      sstore\n      swap2\n      0x20\n      add\n      swap2\n      swap1\n      0x01\n      add\n      swap1\n      jump(tag_48)\n    tag_49:\n    tag_45:\n      pop\n      swap1\n      pop\n      tag_50\n      swap2\n      swap1\n      tag_51\n      jump\t// in\n    tag_50:\n      pop\n      swap1\n      jump\t// out\n    tag_31:\n      mload(0x40)\n      dup1\n      0xa0\n      add\n      0x40\n      mstore\n      dup1\n      tag_52\n      tag_53\n      jump\t// in\n    tag_52:\n      dup2\n      mstore\n      0x20\n      add\n      0x00\n      dup2\n      mstore\n      0x20\n      add\n      0x00\n      dup2\n      mstore\n      0x20\n      add\n      and(0xffffffffffffffffffffffffffffffffffffffff, 0x00)\n      dup2\n      mstore\n      0x20\n      add\n      0x60\n      dup2\n      mstore\n      pop\n      swap1\n      jump\t// out\n    tag_51:\n    tag_54:\n      dup1\n      dup3\n      gt\n      iszero\n      tag_55\n      jumpi\n      0x00\n      dup2\n      0x00\n      swap1\n      sstore\n      pop\n      0x01\n      add\n      jump(tag_54)\n    tag_55:\n      pop\n      swap1\n      jump\t// out\n    tag_53:\n      mload(0x40)\n      dup1\n      0x40\n      add\n      0x40\n      mstore\n      dup1\n      0x60\n      dup2\n      mstore\n      0x20\n      add\n      0x00\n      dup2\n      mstore\n      pop\n      swap1\n      jump\t// out\n        /* \"#utility.yul\":7:419   */\n    tag_57:\n        /* \"#utility.yul\":85:90   */\n      0x00\n        /* \"#utility.yul\":110:176   */\n      tag_59\n        /* \"#utility.yul\":126:175   */\n      tag_60\n        /* \"#utility.yul\":168:174   */\n      dup5\n        /* \"#utility.yul\":126:175   */\n      tag_61\n      jump\t// in\n    tag_60:\n        /* \"#utility.yul\":110:176   */\n      tag_62\n      jump\t// in\n    tag_59:\n        /* \"#utility.yul\":101:176   */\n      swap1\n      pop\n        /* \"#utility.yul\":199:205   */\n      dup3\n        /* \"#utility.yul\":192:197   */\n      dup2\n        /* \"#utility.yul\":185:206   */\n      mstore\n        /* \"#utility.yul\":237:241   */\n      0x20\n        /* \"#utility.yul\":230:235   */\n      dup2\n        /* \"#utility.yul\":226:242   */\n      add\n        /* \"#utility.yul\":275:278   */\n      dup5\n        /* \"#utility.yul\":266:272   */\n      dup5\n        /* \"#utility.yul\":261:264   */\n      dup5\n        /* \"#utility.yul\":257:273   */\n      add\n        /* \"#utility.yul\":254:279   */\n      gt\n        /* \"#utility.yul\":251:363   */\n      iszero\n      tag_63\n      jumpi\n        /* \"#utility.yul\":282:361   */\n      tag_64\n      tag_65\n      jump\t// in\n    tag_64:\n        /* \"#utility.yul\":251:363   */\n    tag_63:\n        /* \"#utility.yul\":372:413   */\n      tag_66\n        /* \"#utility.yul\":406:412   */\n      dup5\n        /* \"#utility.yul\":401:404   */\n      dup3\n        /* \"#utility.yul\":396:399   */\n      dup6\n        /* \"#utility.yul\":372:413   */\n      tag_67\n      jump\t// in\n    tag_66:\n        /* \"#utility.yul\":91:419   */\n      pop\n        /* \"#utility.yul\":7:419   */\n      swap4\n      swap3\n      pop\n      pop\n      pop\n      jump\t// out\n        /* \"#utility.yul\":425:564   */\n    tag_68:\n        /* \"#utility.yul\":471:476   */\n      0x00\n        /* \"#utility.yul\":509:515   */\n      dup2\n        /* \"#utility.yul\":496:516   */\n      calldataload\n        /* \"#utility.yul\":487:516   */\n      swap1\n      pop\n        /* \"#utility.yul\":525:558   */\n      tag_70\n        /* \"#utility.yul\":552:557   */\n      dup2\n        /* \"#utility.yul\":525:558   */\n      tag_71\n      jump\t// in\n    tag_70:\n        /* \"#utility.yul\":425:564   */\n      swap3\n      swap2\n      pop\n      pop\n      jump\t// out\n        /* \"#utility.yul\":584:924   */\n    tag_72:\n        /* \"#utility.yul\":640:645   */\n      0x00\n        /* \"#utility.yul\":689:692   */\n      dup3\n        /* \"#utility.yul\":682:686   */\n      0x1f\n        /* \"#utility.yul\":674:680   */\n      dup4\n        /* \"#utility.yul\":670:687   */\n      add\n        /* \"#utility.yul\":666:693   */\n      slt\n        /* \"#utility.yul\":656:778   */\n      tag_74\n      jumpi\n        /* \"#utility.yul\":697:776   */\n      tag_75\n      tag_76\n      jump\t// in\n    tag_75:\n        /* \"#utility.yul\":656:778   */\n    tag_74:\n        /* \"#utility.yul\":814:820   */\n      dup2\n        /* \"#utility.yul\":801:821   */\n      calldataload\n        /* \"#utility.yul\":839:918   */\n      tag_77\n        /* \"#utility.yul\":914:917   */\n      dup5\n        /* \"#utility.yul\":906:912   */\n      dup3\n        /* \"#utility.yul\":899:903   */\n      0x20\n        /* \"#utility.yul\":891:897   */\n      dup7\n        /* \"#utility.yul\":887:904   */\n      add\n        /* \"#utility.yul\":839:918   */\n      tag_57\n      jump\t// in\n    tag_77:\n        /* \"#utility.yul\":830:918   */\n      swap2\n      pop\n        /* \"#utility.yul\":646:924   */\n      pop\n        /* \"#utility.yul\":584:924   */\n      swap3\n      swap2\n      pop\n      pop\n      jump\t// out\n        /* \"#utility.yul\":930:1069   */\n    tag_78:\n        /* \"#utility.yul\":976:981   */\n      0x00\n        /* \"#utility.yul\":1014:1020   */\n      dup2\n        /* \"#utility.yul\":1001:1021   */\n      calldataload\n        /* \"#utility.yul\":992:1021   */\n      swap1\n      pop\n        /* \"#utility.yul\":1030:1063   */\n      tag_80\n        /* \"#utility.yul\":1057:1062   */\n      dup2\n        /* \"#utility.yul\":1030:1063   */\n      tag_81\n      jump\t// in\n    tag_80:\n        /* \"#utility.yul\":930:1069   */\n      swap3\n      swap2\n      pop\n      pop\n      jump\t// out\n        /* \"#utility.yul\":1075:1404   */\n    tag_8:\n        /* \"#utility.yul\":1134:1140   */\n      0x00\n        /* \"#utility.yul\":1183:1185   */\n      0x20\n        /* \"#utility.yul\":1171:1180   */\n      dup3\n        /* \"#utility.yul\":1162:1169   */\n      dup5\n        /* \"#utility.yul\":1158:1181   */\n      sub\n        /* \"#utility.yul\":1154:1186   */\n      slt\n        /* \"#utility.yul\":1151:1270   */\n      iszero\n      tag_83\n      jumpi\n        /* \"#utility.yul\":1189:1268   */\n      tag_84\n      tag_85\n      jump\t// in\n    tag_84:\n        /* \"#utility.yul\":1151:1270   */\n    tag_83:\n        /* \"#utility.yul\":1309:1310   */\n      0x00\n        /* \"#utility.yul\":1334:1387   */\n      tag_86\n        /* \"#utility.yul\":1379:1386   */\n      dup5\n        /* \"#utility.yul\":1370:1376   */\n      dup3\n        /* \"#utility.yul\":1359:1368   */\n      dup6\n        /* \"#utility.yul\":1355:1377   */\n      add\n        /* \"#utility.yul\":1334:1387   */\n      tag_68\n      jump\t// in\n    tag_86:\n        /* \"#utility.yul\":1324:1387   */\n      swap2\n      pop\n        /* \"#utility.yul\":1280:1397   */\n      pop\n        /* \"#utility.yul\":1075:1404   */\n      swap3\n      swap2\n      pop\n      pop\n      jump\t// out\n        /* \"#utility.yul\":1410:1884   */\n    tag_19:\n        /* \"#utility.yul\":1478:1484   */\n      0x00\n        /* \"#utility.yul\":1486:1492   */\n      dup1\n        /* \"#utility.yul\":1535:1537   */\n      0x40\n        /* \"#utility.yul\":1523:1532   */\n      dup4\n        /* \"#utility.yul\":1514:1521   */\n      dup6\n        /* \"#utility.yul\":1510:1533   */\n      sub\n        /* \"#utility.yul\":1506:1538   */\n      slt\n        /* \"#utility.yul\":1503:1622   */\n      iszero\n      tag_88\n      jumpi\n        /* \"#utility.yul\":1541:1620   */\n      tag_89\n      tag_85\n      jump\t// in\n    tag_89:\n        /* \"#utility.yul\":1503:1622   */\n    tag_88:\n        /* \"#utility.yul\":1661:1662   */\n      0x00\n        /* \"#utility.yul\":1686:1739   */\n      tag_90\n        /* \"#utility.yul\":1731:1738   */\n      dup6\n        /* \"#utility.yul\":1722:1728   */\n      dup3\n        /* \"#utility.yul\":1711:1720   */\n      dup7\n        /* \"#utility.yul\":1707:1729   */\n      add\n        /* \"#utility.yul\":1686:1739   */\n      tag_68\n      jump\t// in\n    tag_90:\n        /* \"#utility.yul\":1676:1739   */\n      swap3\n      pop\n        /* \"#utility.yul\":1632:1749   */\n      pop\n        /* \"#utility.yul\":1788:1790   */\n      0x20\n        /* \"#utility.yul\":1814:1867   */\n      tag_91\n        /* \"#utility.yul\":1859:1866   */\n      dup6\n        /* \"#utility.yul\":1850:1856   */\n      dup3\n        /* \"#utility.yul\":1839:1848   */\n      dup7\n        /* \"#utility.yul\":1835:1857   */\n      add\n        /* \"#utility.yul\":1814:1867   */\n      tag_78\n      jump\t// in\n    tag_91:\n        /* \"#utility.yul\":1804:1867   */\n      swap2\n      pop\n        /* \"#utility.yul\":1759:1877   */\n      pop\n        /* \"#utility.yul\":1410:1884   */\n      swap3\n      pop\n      swap3\n      swap1\n      pop\n      jump\t// out\n        /* \"#utility.yul\":1890:2399   */\n    tag_14:\n        /* \"#utility.yul\":1959:1965   */\n      0x00\n        /* \"#utility.yul\":2008:2010   */\n      0x20\n        /* \"#utility.yul\":1996:2005   */\n      dup3\n        /* \"#utility.yul\":1987:1994   */\n      dup5\n        /* \"#utility.yul\":1983:2006   */\n      sub\n        /* \"#utility.yul\":1979:2011   */\n      slt\n        /* \"#utility.yul\":1976:2095   */\n      iszero\n      tag_93\n      jumpi\n        /* \"#utility.yul\":2014:2093   */\n      tag_94\n      tag_85\n      jump\t// in\n    tag_94:\n        /* \"#utility.yul\":1976:2095   */\n    tag_93:\n        /* \"#utility.yul\":2162:2163   */\n      0x00\n        /* \"#utility.yul\":2151:2160   */\n      dup3\n        /* \"#utility.yul\":2147:2164   */\n      add\n        /* \"#utility.yul\":2134:2165   */\n      calldataload\n        /* \"#utility.yul\":2192:2210   */\n      0xffffffffffffffff\n        /* \"#utility.yul\":2184:2190   */\n      dup2\n        /* \"#utility.yul\":2181:2211   */\n      gt\n        /* \"#utility.yul\":2178:2295   */\n      iszero\n      tag_95\n      jumpi\n        /* \"#utility.yul\":2214:2293   */\n      tag_96\n      tag_97\n      jump\t// in\n    tag_96:\n        /* \"#utility.yul\":2178:2295   */\n    tag_95:\n        /* \"#utility.yul\":2319:2382   */\n      tag_98\n        /* \"#utility.yul\":2374:2381   */\n      dup5\n        /* \"#utility.yul\":2365:2371   */\n      dup3\n        /* \"#utility.yul\":2354:2363   */\n      dup6\n        /* \"#utility.yul\":2350:2372   */\n      add\n        /* \"#utility.yul\":2319:2382   */\n      tag_72\n      jump\t// in\n    tag_98:\n        /* \"#utility.yul\":2309:2382   */\n      swap2\n      pop\n        /* \"#utility.yul\":2105:2392   */\n      pop\n        /* \"#utility.yul\":1890:2399   */\n      swap3\n      swap2\n      pop\n      pop\n      jump\t// out\n        /* \"#utility.yul\":2405:2513   */\n    tag_99:\n        /* \"#utility.yul\":2482:2506   */\n      tag_101\n        /* \"#utility.yul\":2500:2505   */\n      dup2\n        /* \"#utility.yul\":2482:2506   */\n      tag_102\n      jump\t// in\n    tag_101:\n        /* \"#utility.yul\":2477:2480   */\n      dup3\n        /* \"#utility.yul\":2470:2507   */\n      mstore\n        /* \"#utility.yul\":2405:2513   */\n      pop\n      pop\n      jump\t// out\n        /* \"#utility.yul\":2519:2863   */\n    tag_103:\n        /* \"#utility.yul\":2597:2600   */\n      0x00\n        /* \"#utility.yul\":2625:2664   */\n      tag_105\n        /* \"#utility.yul\":2658:2663   */\n      dup3\n        /* \"#utility.yul\":2625:2664   */\n      tag_106\n      jump\t// in\n    tag_105:\n        /* \"#utility.yul\":2680:2741   */\n      tag_107\n        /* \"#utility.yul\":2734:2740   */\n      dup2\n        /* \"#utility.yul\":2729:2732   */\n      dup6\n        /* \"#utility.yul\":2680:2741   */\n      tag_108\n      jump\t// in\n    tag_107:\n        /* \"#utility.yul\":2673:2741   */\n      swap4\n      pop\n        /* \"#utility.yul\":2750:2802   */\n      tag_109\n        /* \"#utility.yul\":2795:2801   */\n      dup2\n        /* \"#utility.yul\":2790:2793   */\n      dup6\n        /* \"#utility.yul\":2783:2787   */\n      0x20\n        /* \"#utility.yul\":2776:2781   */\n      dup7\n        /* \"#utility.yul\":2772:2788   */\n      add\n        /* \"#utility.yul\":2750:2802   */\n      tag_110\n      jump\t// in\n    tag_109:\n        /* \"#utility.yul\":2827:2856   */\n      tag_111\n        /* \"#utility.yul\":2849:2855   */\n      dup2\n        /* \"#utility.yul\":2827:2856   */\n      tag_112\n      jump\t// in\n    tag_111:\n        /* \"#utility.yul\":2822:2825   */\n      dup5\n        /* \"#utility.yul\":2818:2857   */\n      add\n        /* \"#utility.yul\":2811:2857   */\n      swap2\n      pop\n        /* \"#utility.yul\":2601:2863   */\n      pop\n        /* \"#utility.yul\":2519:2863   */\n      swap3\n      swap2\n      pop\n      pop\n      jump\t// out\n        /* \"#utility.yul\":2937:4169   */\n    tag_113:\n        /* \"#utility.yul\":3052:3055   */\n      0x00\n        /* \"#utility.yul\":3088:3092   */\n      0xa0\n        /* \"#utility.yul\":3083:3086   */\n      dup4\n        /* \"#utility.yul\":3079:3093   */\n      add\n        /* \"#utility.yul\":3178:3182   */\n      0x00\n        /* \"#utility.yul\":3171:3176   */\n      dup4\n        /* \"#utility.yul\":3167:3183   */\n      add\n        /* \"#utility.yul\":3161:3184   */\n      mload\n        /* \"#utility.yul\":3231:3234   */\n      dup5\n        /* \"#utility.yul\":3225:3229   */\n      dup3\n        /* \"#utility.yul\":3221:3235   */\n      sub\n        /* \"#utility.yul\":3214:3218   */\n      0x00\n        /* \"#utility.yul\":3209:3212   */\n      dup7\n        /* \"#utility.yul\":3205:3219   */\n      add\n        /* \"#utility.yul\":3198:3236   */\n      mstore\n        /* \"#utility.yul\":3257:3354   */\n      tag_115\n        /* \"#utility.yul\":3349:3353   */\n      dup3\n        /* \"#utility.yul\":3335:3347   */\n      dup3\n        /* \"#utility.yul\":3257:3354   */\n      tag_116\n      jump\t// in\n    tag_115:\n        /* \"#utility.yul\":3249:3354   */\n      swap2\n      pop\n        /* \"#utility.yul\":3103:3365   */\n      pop\n        /* \"#utility.yul\":3449:3453   */\n      0x20\n        /* \"#utility.yul\":3442:3447   */\n      dup4\n        /* \"#utility.yul\":3438:3454   */\n      add\n        /* \"#utility.yul\":3432:3455   */\n      mload\n        /* \"#utility.yul\":3468:3531   */\n      tag_117\n        /* \"#utility.yul\":3525:3529   */\n      0x20\n        /* \"#utility.yul\":3520:3523   */\n      dup7\n        /* \"#utility.yul\":3516:3530   */\n      add\n        /* \"#utility.yul\":3502:3514   */\n      dup3\n        /* \"#utility.yul\":3468:3531   */\n      tag_118\n      jump\t// in\n    tag_117:\n        /* \"#utility.yul\":3375:3541   */\n      pop\n        /* \"#utility.yul\":3628:3632   */\n      0x40\n        /* \"#utility.yul\":3621:3626   */\n      dup4\n        /* \"#utility.yul\":3617:3633   */\n      add\n        /* \"#utility.yul\":3611:3634   */\n      mload\n        /* \"#utility.yul\":3647:3710   */\n      tag_119\n        /* \"#utility.yul\":3704:3708   */\n      0x40\n        /* \"#utility.yul\":3699:3702   */\n      dup7\n        /* \"#utility.yul\":3695:3709   */\n      add\n        /* \"#utility.yul\":3681:3693   */\n      dup3\n        /* \"#utility.yul\":3647:3710   */\n      tag_118\n      jump\t// in\n    tag_119:\n        /* \"#utility.yul\":3551:3720   */\n      pop\n        /* \"#utility.yul\":3802:3806   */\n      0x60\n        /* \"#utility.yul\":3795:3800   */\n      dup4\n        /* \"#utility.yul\":3791:3807   */\n      add\n        /* \"#utility.yul\":3785:3808   */\n      mload\n        /* \"#utility.yul\":3821:3884   */\n      tag_120\n        /* \"#utility.yul\":3878:3882   */\n      0x60\n        /* \"#utility.yul\":3873:3876   */\n      dup7\n        /* \"#utility.yul\":3869:3883   */\n      add\n        /* \"#utility.yul\":3855:3867   */\n      dup3\n        /* \"#utility.yul\":3821:3884   */\n      tag_99\n      jump\t// in\n    tag_120:\n        /* \"#utility.yul\":3730:3894   */\n      pop\n        /* \"#utility.yul\":3979:3983   */\n      0x80\n        /* \"#utility.yul\":3972:3977   */\n      dup4\n        /* \"#utility.yul\":3968:3984   */\n      add\n        /* \"#utility.yul\":3962:3985   */\n      mload\n        /* \"#utility.yul\":4032:4035   */\n      dup5\n        /* \"#utility.yul\":4026:4030   */\n      dup3\n        /* \"#utility.yul\":4022:4036   */\n      sub\n        /* \"#utility.yul\":4015:4019   */\n      0x80\n        /* \"#utility.yul\":4010:4013   */\n      dup7\n        /* \"#utility.yul\":4006:4020   */\n      add\n        /* \"#utility.yul\":3999:4037   */\n      mstore\n        /* \"#utility.yul\":4058:4131   */\n      tag_121\n        /* \"#utility.yul\":4126:4130   */\n      dup3\n        /* \"#utility.yul\":4112:4124   */\n      dup3\n        /* \"#utility.yul\":4058:4131   */\n      tag_103\n      jump\t// in\n    tag_121:\n        /* \"#utility.yul\":4050:4131   */\n      swap2\n      pop\n        /* \"#utility.yul\":3904:4142   */\n      pop\n        /* \"#utility.yul\":4159:4163   */\n      dup1\n        /* \"#utility.yul\":4152:4163   */\n      swap2\n      pop\n        /* \"#utility.yul\":3057:4169   */\n      pop\n        /* \"#utility.yul\":2937:4169   */\n      swap3\n      swap2\n      pop\n      pop\n      jump\t// out\n        /* \"#utility.yul\":4243:4834   */\n    tag_116:\n        /* \"#utility.yul\":4346:4349   */\n      0x00\n        /* \"#utility.yul\":4382:4386   */\n      0x40\n        /* \"#utility.yul\":4377:4380   */\n      dup4\n        /* \"#utility.yul\":4373:4387   */\n      add\n        /* \"#utility.yul\":4469:4473   */\n      0x00\n        /* \"#utility.yul\":4462:4467   */\n      dup4\n        /* \"#utility.yul\":4458:4474   */\n      add\n        /* \"#utility.yul\":4452:4475   */\n      mload\n        /* \"#utility.yul\":4522:4525   */\n      dup5\n        /* \"#utility.yul\":4516:4520   */\n      dup3\n        /* \"#utility.yul\":4512:4526   */\n      sub\n        /* \"#utility.yul\":4505:4509   */\n      0x00\n        /* \"#utility.yul\":4500:4503   */\n      dup7\n        /* \"#utility.yul\":4496:4510   */\n      add\n        /* \"#utility.yul\":4489:4527   */\n      mstore\n        /* \"#utility.yul\":4548:4621   */\n      tag_123\n        /* \"#utility.yul\":4616:4620   */\n      dup3\n        /* \"#utility.yul\":4602:4614   */\n      dup3\n        /* \"#utility.yul\":4548:4621   */\n      tag_103\n      jump\t// in\n    tag_123:\n        /* \"#utility.yul\":4540:4621   */\n      swap2\n      pop\n        /* \"#utility.yul\":4397:4632   */\n      pop\n        /* \"#utility.yul\":4715:4719   */\n      0x20\n        /* \"#utility.yul\":4708:4713   */\n      dup4\n        /* \"#utility.yul\":4704:4720   */\n      add\n        /* \"#utility.yul\":4698:4721   */\n      mload\n        /* \"#utility.yul\":4734:4797   */\n      tag_124\n        /* \"#utility.yul\":4791:4795   */\n      0x20\n        /* \"#utility.yul\":4786:4789   */\n      dup7\n        /* \"#utility.yul\":4782:4796   */\n      add\n        /* \"#utility.yul\":4768:4780   */\n      dup3\n        /* \"#utility.yul\":4734:4797   */\n      tag_118\n      jump\t// in\n    tag_124:\n        /* \"#utility.yul\":4642:4807   */\n      pop\n        /* \"#utility.yul\":4824:4828   */\n      dup1\n        /* \"#utility.yul\":4817:4828   */\n      swap2\n      pop\n        /* \"#utility.yul\":4351:4834   */\n      pop\n        /* \"#utility.yul\":4243:4834   */\n      swap3\n      swap2\n      pop\n      pop\n      jump\t// out\n        /* \"#utility.yul\":4840:4948   */\n    tag_118:\n        /* \"#utility.yul\":4917:4941   */\n      tag_126\n        /* \"#utility.yul\":4935:4940   */\n      dup2\n        /* \"#utility.yul\":4917:4941   */\n      tag_127\n      jump\t// in\n    tag_126:\n        /* \"#utility.yul\":4912:4915   */\n      dup3\n        /* \"#utility.yul\":4905:4942   */\n      mstore\n        /* \"#utility.yul\":4840:4948   */\n      pop\n      pop\n      jump\t// out\n        /* \"#utility.yul\":4954:5072   */\n    tag_128:\n        /* \"#utility.yul\":5041:5065   */\n      tag_130\n        /* \"#utility.yul\":5059:5064   */\n      dup2\n        /* \"#utility.yul\":5041:5065   */\n      tag_127\n      jump\t// in\n    tag_130:\n        /* \"#utility.yul\":5036:5039   */\n      dup3\n        /* \"#utility.yul\":5029:5066   */\n      mstore\n        /* \"#utility.yul\":4954:5072   */\n      pop\n      pop\n      jump\t// out\n        /* \"#utility.yul\":5078:5443   */\n    tag_22:\n        /* \"#utility.yul\":5217:5221   */\n      0x00\n        /* \"#utility.yul\":5255:5257   */\n      0x20\n        /* \"#utility.yul\":5244:5253   */\n      dup3\n        /* \"#utility.yul\":5240:5258   */\n      add\n        /* \"#utility.yul\":5232:5258   */\n      swap1\n      pop\n        /* \"#utility.yul\":5304:5313   */\n      dup2\n        /* \"#utility.yul\":5298:5302   */\n      dup2\n        /* \"#utility.yul\":5294:5314   */\n      sub\n        /* \"#utility.yul\":5290:5291   */\n      0x00\n        /* \"#utility.yul\":5279:5288   */\n      dup4\n        /* \"#utility.yul\":5275:5292   */\n      add\n        /* \"#utility.yul\":5268:5315   */\n      mstore\n        /* \"#utility.yul\":5332:5436   */\n      tag_132\n        /* \"#utility.yul\":5431:5435   */\n      dup2\n        /* \"#utility.yul\":5422:5428   */\n      dup5\n        /* \"#utility.yul\":5332:5436   */\n      tag_113\n      jump\t// in\n    tag_132:\n        /* \"#utility.yul\":5324:5436   */\n      swap1\n      pop\n        /* \"#utility.yul\":5078:5443   */\n      swap3\n      swap2\n      pop\n      pop\n      jump\t// out\n        /* \"#utility.yul\":5449:5671   */\n    tag_11:\n        /* \"#utility.yul\":5542:5546   */\n      0x00\n        /* \"#utility.yul\":5580:5582   */\n      0x20\n        /* \"#utility.yul\":5569:5578   */\n      dup3\n        /* \"#utility.yul\":5565:5583   */\n      add\n        /* \"#utility.yul\":5557:5583   */\n      swap1\n      pop\n        /* \"#utility.yul\":5593:5664   */\n      tag_134\n        /* \"#utility.yul\":5661:5662   */\n      0x00\n        /* \"#utility.yul\":5650:5659   */\n      dup4\n        /* \"#utility.yul\":5646:5663   */\n      add\n        /* \"#utility.yul\":5637:5643   */\n      dup5\n        /* \"#utility.yul\":5593:5664   */\n      tag_128\n      jump\t// in\n    tag_134:\n        /* \"#utility.yul\":5449:5671   */\n      swap3\n      swap2\n      pop\n      pop\n      jump\t// out\n        /* \"#utility.yul\":5677:5806   */\n    tag_62:\n        /* \"#utility.yul\":5711:5717   */\n      0x00\n        /* \"#utility.yul\":5738:5758   */\n      tag_136\n      tag_137\n      jump\t// in\n    tag_136:\n        /* \"#utility.yul\":5728:5758   */\n      swap1\n      pop\n        /* \"#utility.yul\":5767:5800   */\n      tag_138\n        /* \"#utility.yul\":5795:5799   */\n      dup3\n        /* \"#utility.yul\":5787:5793   */\n      dup3\n        /* \"#utility.yul\":5767:5800   */\n      tag_139\n      jump\t// in\n    tag_138:\n        /* \"#utility.yul\":5677:5806   */\n      swap2\n      swap1\n      pop\n      jump\t// out\n        /* \"#utility.yul\":5812:5887   */\n    tag_137:\n        /* \"#utility.yul\":5845:5851   */\n      0x00\n        /* \"#utility.yul\":5878:5880   */\n      0x40\n        /* \"#utility.yul\":5872:5881   */\n      mload\n        /* \"#utility.yul\":5862:5881   */\n      swap1\n      pop\n        /* \"#utility.yul\":5812:5887   */\n      swap1\n      jump\t// out\n        /* \"#utility.yul\":5893:6201   */\n    tag_61:\n        /* \"#utility.yul\":5955:5959   */\n      0x00\n        /* \"#utility.yul\":6045:6063   */\n      0xffffffffffffffff\n        /* \"#utility.yul\":6037:6043   */\n      dup3\n        /* \"#utility.yul\":6034:6064   */\n      gt\n        /* \"#utility.yul\":6031:6087   */\n      iszero\n      tag_142\n      jumpi\n        /* \"#utility.yul\":6067:6085   */\n      tag_143\n      tag_144\n      jump\t// in\n    tag_143:\n        /* \"#utility.yul\":6031:6087   */\n    tag_142:\n        /* \"#utility.yul\":6105:6134   */\n      tag_145\n        /* \"#utility.yul\":6127:6133   */\n      dup3\n        /* \"#utility.yul\":6105:6134   */\n      tag_112\n      jump\t// in\n    tag_145:\n        /* \"#utility.yul\":6097:6134   */\n      swap1\n      pop\n        /* \"#utility.yul\":6189:6193   */\n      0x20\n        /* \"#utility.yul\":6183:6187   */\n      dup2\n        /* \"#utility.yul\":6179:6194   */\n      add\n        /* \"#utility.yul\":6171:6194   */\n      swap1\n      pop\n        /* \"#utility.yul\":5893:6201   */\n      swap2\n      swap1\n      pop\n      jump\t// out\n        /* \"#utility.yul\":6207:6306   */\n    tag_106:\n        /* \"#utility.yul\":6259:6265   */\n      0x00\n        /* \"#utility.yul\":6293:6298   */\n      dup2\n        /* \"#utility.yul\":6287:6299   */\n      mload\n        /* \"#utility.yul\":6277:6299   */\n      swap1\n      pop\n        /* \"#utility.yul\":6207:6306   */\n      swap2\n      swap1\n      pop\n      jump\t// out\n        /* \"#utility.yul\":6312:6471   */\n    tag_108:\n        /* \"#utility.yul\":6386:6397   */\n      0x00\n        /* \"#utility.yul\":6420:6426   */\n      dup3\n        /* \"#utility.yul\":6415:6418   */\n      dup3\n        /* \"#utility.yul\":6408:6427   */\n      mstore\n        /* \"#utility.yul\":6460:6464   */\n      0x20\n        /* \"#utility.yul\":6455:6458   */\n      dup3\n        /* \"#utility.yul\":6451:6465   */\n      add\n        /* \"#utility.yul\":6436:6465   */\n      swap1\n      pop\n        /* \"#utility.yul\":6312:6471   */\n      swap3\n      swap2\n      pop\n      pop\n      jump\t// out\n        /* \"#utility.yul\":6477:6573   */\n    tag_102:\n        /* \"#utility.yul\":6514:6521   */\n      0x00\n        /* \"#utility.yul\":6543:6567   */\n      tag_149\n        /* \"#utility.yul\":6561:6566   */\n      dup3\n        /* \"#utility.yul\":6543:6567   */\n      tag_150\n      jump\t// in\n    tag_149:\n        /* \"#utility.yul\":6532:6567   */\n      swap1\n      pop\n        /* \"#utility.yul\":6477:6573   */\n      swap2\n      swap1\n      pop\n      jump\t// out\n        /* \"#utility.yul\":6579:6705   */\n    tag_150:\n        /* \"#utility.yul\":6616:6623   */\n      0x00\n        /* \"#utility.yul\":6656:6698   */\n      0xffffffffffffffffffffffffffffffffffffffff\n        /* \"#utility.yul\":6649:6654   */\n      dup3\n        /* \"#utility.yul\":6645:6699   */\n      and\n        /* \"#utility.yul\":6634:6699   */\n      swap1\n      pop\n        /* \"#utility.yul\":6579:6705   */\n      swap2\n      swap1\n      pop\n      jump\t// out\n        /* \"#utility.yul\":6711:6788   */\n    tag_127:\n        /* \"#utility.yul\":6748:6755   */\n      0x00\n        /* \"#utility.yul\":6777:6782   */\n      dup2\n        /* \"#utility.yul\":6766:6782   */\n      swap1\n      pop\n        /* \"#utility.yul\":6711:6788   */\n      swap2\n      swap1\n      pop\n      jump\t// out\n        /* \"#utility.yul\":6794:6948   */\n    tag_67:\n        /* \"#utility.yul\":6878:6884   */\n      dup3\n        /* \"#utility.yul\":6873:6876   */\n      dup2\n        /* \"#utility.yul\":6868:6871   */\n      dup4\n        /* \"#utility.yul\":6855:6885   */\n      calldatacopy\n        /* \"#utility.yul\":6940:6941   */\n      0x00\n        /* \"#utility.yul\":6931:6937   */\n      dup4\n        /* \"#utility.yul\":6926:6929   */\n      dup4\n        /* \"#utility.yul\":6922:6938   */\n      add\n        /* \"#utility.yul\":6915:6942   */\n      mstore\n        /* \"#utility.yul\":6794:6948   */\n      pop\n      pop\n      pop\n      jump\t// out\n        /* \"#utility.yul\":6954:7261   */\n    tag_110:\n        /* \"#utility.yul\":7022:7023   */\n      0x00\n        /* \"#utility.yul\":7032:7145   */\n    tag_155:\n        /* \"#utility.yul\":7046:7052   */\n      dup4\n        /* \"#utility.yul\":7043:7044   */\n      dup2\n        /* \"#utility.yul\":7040:7053   */\n      lt\n        /* \"#utility.yul\":7032:7145   */\n      iszero\n      tag_157\n      jumpi\n        /* \"#utility.yul\":7131:7132   */\n      dup1\n        /* \"#utility.yul\":7126:7129   */\n      dup3\n        /* \"#utility.yul\":7122:7133   */\n      add\n        /* \"#utility.yul\":7116:7134   */\n      mload\n        /* \"#utility.yul\":7112:7113   */\n      dup2\n        /* \"#utility.yul\":7107:7110   */\n      dup5\n        /* \"#utility.yul\":7103:7114   */\n      add\n        /* \"#utility.yul\":7096:7135   */\n      mstore\n        /* \"#utility.yul\":7068:7070   */\n      0x20\n        /* \"#utility.yul\":7065:7066   */\n      dup2\n        /* \"#utility.yul\":7061:7071   */\n      add\n        /* \"#utility.yul\":7056:7071   */\n      swap1\n      pop\n        /* \"#utility.yul\":7032:7145   */\n      jump(tag_155)\n    tag_157:\n        /* \"#utility.yul\":7163:7169   */\n      dup4\n        /* \"#utility.yul\":7160:7161   */\n      dup2\n        /* \"#utility.yul\":7157:7170   */\n      gt\n        /* \"#utility.yul\":7154:7255   */\n      iszero\n      tag_158\n      jumpi\n        /* \"#utility.yul\":7243:7244   */\n      0x00\n        /* \"#utility.yul\":7234:7240   */\n      dup5\n        /* \"#utility.yul\":7229:7232   */\n      dup5\n        /* \"#utility.yul\":7225:7241   */\n      add\n        /* \"#utility.yul\":7218:7245   */\n      mstore\n        /* \"#utility.yul\":7154:7255   */\n    tag_158:\n        /* \"#utility.yul\":7003:7261   */\n      pop\n        /* \"#utility.yul\":6954:7261   */\n      pop\n      pop\n      pop\n      jump\t// out\n        /* \"#utility.yul\":7267:7587   */\n    tag_34:\n        /* \"#utility.yul\":7311:7317   */\n      0x00\n        /* \"#utility.yul\":7348:7349   */\n      0x02\n        /* \"#utility.yul\":7342:7346   */\n      dup3\n        /* \"#utility.yul\":7338:7350   */\n      div\n        /* \"#utility.yul\":7328:7350   */\n      swap1\n      pop\n        /* \"#utility.yul\":7395:7396   */\n      0x01\n        /* \"#utility.yul\":7389:7393   */\n      dup3\n        /* \"#utility.yul\":7385:7397   */\n      and\n        /* \"#utility.yul\":7416:7434   */\n      dup1\n        /* \"#utility.yul\":7406:7487   */\n      tag_160\n      jumpi\n        /* \"#utility.yul\":7472:7476   */\n      0x7f\n        /* \"#utility.yul\":7464:7470   */\n      dup3\n        /* \"#utility.yul\":7460:7477   */\n      and\n        /* \"#utility.yul\":7450:7477   */\n      swap2\n      pop\n        /* \"#utility.yul\":7406:7487   */\n    tag_160:\n        /* \"#utility.yul\":7534:7536   */\n      0x20\n        /* \"#utility.yul\":7526:7532   */\n      dup3\n        /* \"#utility.yul\":7523:7537   */\n      lt\n        /* \"#utility.yul\":7503:7521   */\n      dup2\n        /* \"#utility.yul\":7500:7538   */\n      eq\n        /* \"#utility.yul\":7497:7581   */\n      iszero\n      tag_161\n      jumpi\n        /* \"#utility.yul\":7553:7571   */\n      tag_162\n      tag_163\n      jump\t// in\n    tag_162:\n        /* \"#utility.yul\":7497:7581   */\n    tag_161:\n        /* \"#utility.yul\":7318:7587   */\n      pop\n        /* \"#utility.yul\":7267:7587   */\n      swap2\n      swap1\n      pop\n      jump\t// out\n        /* \"#utility.yul\":7593:7874   */\n    tag_139:\n        /* \"#utility.yul\":7676:7703   */\n      tag_165\n        /* \"#utility.yul\":7698:7702   */\n      dup3\n        /* \"#utility.yul\":7676:7703   */\n      tag_112\n      jump\t// in\n    tag_165:\n        /* \"#utility.yul\":7668:7674   */\n      dup2\n        /* \"#utility.yul\":7664:7704   */\n      add\n        /* \"#utility.yul\":7806:7812   */\n      dup2\n        /* \"#utility.yul\":7794:7804   */\n      dup2\n        /* \"#utility.yul\":7791:7813   */\n      lt\n        /* \"#utility.yul\":7770:7788   */\n      0xffffffffffffffff\n        /* \"#utility.yul\":7758:7768   */\n      dup3\n        /* \"#utility.yul\":7755:7789   */\n      gt\n        /* \"#utility.yul\":7752:7814   */\n      or\n        /* \"#utility.yul\":7749:7837   */\n      iszero\n      tag_166\n      jumpi\n        /* \"#utility.yul\":7817:7835   */\n      tag_167\n      tag_144\n      jump\t// in\n    tag_167:\n        /* \"#utility.yul\":7749:7837   */\n    tag_166:\n        /* \"#utility.yul\":7857:7867   */\n      dup1\n        /* \"#utility.yul\":7853:7855   */\n      0x40\n        /* \"#utility.yul\":7846:7868   */\n      mstore\n        /* \"#utility.yul\":7636:7874   */\n      pop\n        /* \"#utility.yul\":7593:7874   */\n      pop\n      pop\n      jump\t// out\n        /* \"#utility.yul\":7880:8113   */\n    tag_25:\n        /* \"#utility.yul\":7919:7922   */\n      0x00\n        /* \"#utility.yul\":7942:7966   */\n      tag_169\n        /* \"#utility.yul\":7960:7965   */\n      dup3\n        /* \"#utility.yul\":7942:7966   */\n      tag_127\n      jump\t// in\n    tag_169:\n        /* \"#utility.yul\":7933:7966   */\n      swap2\n      pop\n        /* \"#utility.yul\":7988:8054   */\n      0xffffffffffffffffffffffffffffffffffffffffffffffffffffffffffffffff\n        /* \"#utility.yul\":7981:7986   */\n      dup3\n        /* \"#utility.yul\":7978:8055   */\n      eq\n        /* \"#utility.yul\":7975:8078   */\n      iszero\n      tag_170\n      jumpi\n        /* \"#utility.yul\":8058:8076   */\n      tag_171\n      tag_172\n      jump\t// in\n    tag_171:\n        /* \"#utility.yul\":7975:8078   */\n    tag_170:\n        /* \"#utility.yul\":8105:8106   */\n      0x01\n        /* \"#utility.yul\":8098:8103   */\n      dup3\n        /* \"#utility.yul\":8094:8107   */\n      add\n        /* \"#utility.yul\":8087:8107   */\n      swap1\n      pop\n        /* \"#utility.yul\":7880:8113   */\n      swap2\n      swap1\n      pop\n      jump\t// out\n        /* \"#utility.yul\":8119:8299   */\n    tag_172:\n        /* \"#utility.yul\":8167:8244   */\n      0x4e487b7100000000000000000000000000000000000000000000000000000000\n        /* \"#utility.yul\":8164:8165   */\n      0x00\n        /* \"#utility.yul\":8157:8245   */\n      mstore\n        /* \"#utility.yul\":8264:8268   */\n      0x11\n        /* \"#utility.yul\":8261:8262   */\n      0x04\n        /* \"#utility.yul\":8254:8269   */\n      mstore\n        /* \"#utility.yul\":8288:8292   */\n      0x24\n        /* \"#utility.yul\":8285:8286   */\n      0x00\n        /* \"#utility.yul\":8278:8293   */\n      revert\n        /* \"#utility.yul\":8305:8485   */\n    tag_163:\n        /* \"#utility.yul\":8353:8430   */\n      0x4e487b7100000000000000000000000000000000000000000000000000000000\n        /* \"#utility.yul\":8350:8351   */\n      0x00\n        /* \"#utility.yul\":8343:8431   */\n      mstore\n        /* \"#utility.yul\":8450:8454   */\n      0x22\n        /* \"#utility.yul\":8447:8448   */\n      0x04\n        /* \"#utility.yul\":8440:8455   */\n      mstore\n        /* \"#utility.yul\":8474:8478   */\n      0x24\n        /* \"#utility.yul\":8471:8472   */\n      0x00\n        /* \"#utility.yul\":8464:8479   */\n      revert\n        /* \"#utility.yul\":8491:8671   */\n    tag_144:\n        /* \"#utility.yul\":8539:8616   */\n      0x4e487b7100000000000000000000000000000000000000000000000000000000\n        /* \"#utility.yul\":8536:8537   */\n      0x00\n        /* \"#utility.yul\":8529:8617   */\n      mstore\n        /* \"#utility.yul\":8636:8640   */\n      0x41\n        /* \"#utility.yul\":8633:8634   */\n      0x04\n        /* \"#utility.yul\":8626:8641   */\n      mstore\n        /* \"#utility.yul\":8660:8664   */\n      0x24\n        /* \"#utility.yul\":8657:8658   */\n      0x00\n        /* \"#utility.yul\":8650:8665   */\n      revert\n        /* \"#utility.yul\":8677:8794   */\n    tag_76:\n        /* \"#utility.yul\":8786:8787   */\n      0x00\n        /* \"#utility.yul\":8783:8784   */\n      dup1\n        /* \"#utility.yul\":8776:8788   */\n      revert\n        /* \"#utility.yul\":8800:8917   */\n    tag_65:\n        /* \"#utility.yul\":8909:8910   */\n      0x00\n        /* \"#utility.yul\":8906:8907   */\n      dup1\n        /* \"#utility.yul\":8899:8911   */\n      revert\n        /* \"#utility.yul\":8923:9040   */\n    tag_97:\n        /* \"#utility.yul\":9032:9033   */\n      0x00\n        /* \"#utility.yul\":9029:9030   */\n      dup1\n        /* \"#utility.yul\":9022:9034   */\n      revert\n        /* \"#utility.yul\":9046:9163   */\n    tag_85:\n        /* \"#utility.yul\":9155:9156   */\n      0x00\n        /* \"#utility.yul\":9152:9153   */\n      dup1\n        /* \"#utility.yul\":9145:9157   */\n      revert\n        /* \"#utility.yul\":9169:9271   */\n    tag_112:\n        /* \"#utility.yul\":9210:9216   */\n      0x00\n        /* \"#utility.yul\":9261:9263   */\n      0x1f\n        /* \"#utility.yul\":9257:9264   */\n      not\n        /* \"#utility.yul\":9252:9254   */\n      0x1f\n        /* \"#utility.yul\":9245:9250   */\n      dup4\n        /* \"#utility.yul\":9241:9255   */\n      add\n        /* \"#utility.yul\":9237:9265   */\n      and\n        /* \"#utility.yul\":9227:9265   */\n      swap1\n      pop\n        /* \"#utility.yul\":9169:9271   */\n      swap2\n      swap1\n      pop\n      jump\t// out\n        /* \"#utility.yul\":9277:9399   */\n    tag_71:\n        /* \"#utility.yul\":9350:9374   */\n      tag_182\n        /* \"#utility.yul\":9368:9373   */\n      dup2\n        /* \"#utility.yul\":9350:9374   */\n      tag_102\n      jump\t// in\n    tag_182:\n        /* \"#utility.yul\":9343:9348   */\n      dup2\n        /* \"#utility.yul\":9340:9375   */\n      eq\n        /* \"#utility.yul\":9330:9393   */\n      tag_183\n      jumpi\n        /* \"#utility.yul\":9389:9390   */\n      0x00\n        /* \"#utility.yul\":9386:9387   */\n      dup1\n        /* \"#utility.yul\":9379:9391   */\n      revert\n        /* \"#utility.yul\":9330:9393   */\n    tag_183:\n        /* \"#utility.yul\":9277:9399   */\n      pop\n      jump\t// out\n        /* \"#utility.yul\":9405:9527   */\n    tag_81:\n        /* \"#utility.yul\":9478:9502   */\n      tag_185\n        /* \"#utility.yul\":9496:9501   */\n      dup2\n        /* \"#utility.yul\":9478:9502   */\n      tag_127\n      jump\t// in\n    tag_185:\n        /* \"#utility.yul\":9471:9476   */\n      dup2\n        /* \"#utility.yul\":9468:9503   */\n      eq\n        /* \"#utility.yul\":9458:9521   */\n      tag_186\n      jumpi\n        /* \"#utility.yul\":9517:9518   */\n      0x00\n        /* \"#utility.yul\":9514:9515   */\n      dup1\n        /* \"#utility.yul\":9507:9519   */\n      revert\n        /* \"#utility.yul\":9458:9521   */\n    tag_186:\n        /* \"#utility.yul\":9405:9527   */\n      pop\n      jump\t// out\n\n    auxdata: 0xa2646970667358221220afa8696aed0312eed292ef333172a40d8b8a531a55ff3b264b59b7491963a2af64736f6c63430008070033\n}\n",
				"bytecode": {
					"linkReferences": {},
					"object": "608060405234801561001057600080fd5b50610baf806100206000396000f3fe6080604052600436106100345760003560e01c806327e235e31461003957806364254cdb14610076578063977a767c14610092575b600080fd5b34801561004557600080fd5b50610060600480360381019061005b91906106ea565b6100cf565b60405161006d91906108e2565b60405180910390f35b610090600480360381019061008b9190610757565b6100ed565b005b34801561009e57600080fd5b506100b960048036038101906100b49190610717565b61032f565b6040516100c691906108c0565b60405180910390f35b60006020528060005260406000206000915090508060000154905081565b6000803373ffffffffffffffffffffffffffffffffffffffff1673ffffffffffffffffffffffffffffffffffffffff168152602001908152602001600020600001600081548092919061013f90610a50565b91905055506000671bc16d674ec800009050600060405180604001604052806040518060400160405280600581526020017f4261726279000000000000000000000000000000000000000000000000000000815250815260200183815250905060006040518060a001604052808381526020013481526020014281526020013373ffffffffffffffffffffffffffffffffffffffff16815260200185815250905082341061032957806000803373ffffffffffffffffffffffffffffffffffffffff1673ffffffffffffffffffffffffffffffffffffffff16815260200190815260200160002060010160008060003373ffffffffffffffffffffffffffffffffffffffff1673ffffffffffffffffffffffffffffffffffffffff16815260200190815260200160002060000154815260200190815260200160002060008201518160000160008201518160000190805190602001906102a0929190610548565b50602082015181600101555050602082015181600201556040820151816003015560608201518160040160006101000a81548173ffffffffffffffffffffffffffffffffffffffff021916908373ffffffffffffffffffffffffffffffffffffffff1602179055506080820151816005019080519060200190610324929190610548565b509050505b50505050565b6103376105ce565b6000808473ffffffffffffffffffffffffffffffffffffffff1673ffffffffffffffffffffffffffffffffffffffff16815260200190815260200160002060010160008381526020019081526020016000206040518060a0016040529081600082016040518060400160405290816000820180546103b4906109ed565b80601f01602080910402602001604051908101604052809291908181526020018280546103e0906109ed565b801561042d5780601f106104025761010080835404028352916020019161042d565b820191906000526020600020905b81548152906001019060200180831161041057829003601f168201915b50505050508152602001600182015481525050815260200160028201548152602001600382015481526020016004820160009054906101000a900473ffffffffffffffffffffffffffffffffffffffff1673ffffffffffffffffffffffffffffffffffffffff1673ffffffffffffffffffffffffffffffffffffffff1681526020016005820180546104be906109ed565b80601f01602080910402602001604051908101604052809291908181526020018280546104ea906109ed565b80156105375780601f1061050c57610100808354040283529160200191610537565b820191906000526020600020905b81548152906001019060200180831161051a57829003601f168201915b505050505081525050905092915050565b828054610554906109ed565b90600052602060002090601f01602090048101928261057657600085556105bd565b82601f1061058f57805160ff19168380011785556105bd565b828001600101855582156105bd579182015b828111156105bc5782518255916020019190600101906105a1565b5b5090506105ca9190610619565b5090565b6040518060a001604052806105e1610636565b81526020016000815260200160008152602001600073ffffffffffffffffffffffffffffffffffffffff168152602001606081525090565b5b8082111561063257600081600090555060010161061a565b5090565b604051806040016040528060608152602001600081525090565b600061066361065e84610922565b6108fd565b90508281526020810184848401111561067f5761067e610b2b565b5b61068a8482856109ab565b509392505050565b6000813590506106a181610b4b565b92915050565b600082601f8301126106bc576106bb610b26565b5b81356106cc848260208601610650565b91505092915050565b6000813590506106e481610b62565b92915050565b600060208284031215610700576106ff610b35565b5b600061070e84828501610692565b91505092915050565b6000806040838503121561072e5761072d610b35565b5b600061073c85828601610692565b925050602061074d858286016106d5565b9150509250929050565b60006020828403121561076d5761076c610b35565b5b600082013567ffffffffffffffff81111561078b5761078a610b30565b5b610797848285016106a7565b91505092915050565b6107a98161096f565b82525050565b60006107ba82610953565b6107c4818561095e565b93506107d48185602086016109ba565b6107dd81610b3a565b840191505092915050565b600060a08301600083015184820360008601526108058282610865565b915050602083015161081a60208601826108a2565b50604083015161082d60408601826108a2565b50606083015161084060608601826107a0565b506080830151848203608086015261085882826107af565b9150508091505092915050565b6000604083016000830151848203600086015261088282826107af565b915050602083015161089760208601826108a2565b508091505092915050565b6108ab816109a1565b82525050565b6108ba816109a1565b82525050565b600060208201905081810360008301526108da81846107e8565b905092915050565b60006020820190506108f760008301846108b1565b92915050565b6000610907610918565b90506109138282610a1f565b919050565b6000604051905090565b600067ffffffffffffffff82111561093d5761093c610af7565b5b61094682610b3a565b9050602081019050919050565b600081519050919050565b600082825260208201905092915050565b600061097a82610981565b9050919050565b600073ffffffffffffffffffffffffffffffffffffffff82169050919050565b6000819050919050565b82818337600083830152505050565b60005b838110156109d85780820151818401526020810190506109bd565b838111156109e7576000848401525b50505050565b60006002820490506001821680610a0557607f821691505b60208210811415610a1957610a18610ac8565b5b50919050565b610a2882610b3a565b810181811067ffffffffffffffff82111715610a4757610a46610af7565b5b80604052505050565b6000610a5b826109a1565b91507fffffffffffffffffffffffffffffffffffffffffffffffffffffffffffffffff821415610a8e57610a8d610a99565b5b600182019050919050565b7f4e487b7100000000000000000000000000000000000000000000000000000000600052601160045260246000fd5b7f4e487b7100000000000000000000000000000000000000000000000000000000600052602260045260246000fd5b7f4e487b7100000000000000000000000000000000000000000000000000000000600052604160045260246000fd5b600080fd5b600080fd5b600080fd5b600080fd5b6000601f19601f8301169050919050565b610b548161096f565b8114610b5f57600080fd5b50565b610b6b816109a1565b8114610b7657600080fd5b5056fea2646970667358221220afa8696aed0312eed292ef333172a40d8b8a531a55ff3b264b59b7491963a2af64736f6c63430008070033",
					"opcodes": "PUSH1 0x80 PUSH1 0x40 MSTORE CALLVALUE DUP1 ISZERO PUSH2 0x10 JUMPI PUSH1 0x0 DUP1 REVERT JUMPDEST POP PUSH2 0xBAF DUP1 PUSH2 0x20 PUSH1 0x0 CODECOPY PUSH1 0x0 RETURN INVALID PUSH1 0x80 PUSH1 0x40 MSTORE PUSH1 0x4 CALLDATASIZE LT PUSH2 0x34 JUMPI PUSH1 0x0 CALLDATALOAD PUSH1 0xE0 SHR DUP1 PUSH4 0x27E235E3 EQ PUSH2 0x39 JUMPI DUP1 PUSH4 0x64254CDB EQ PUSH2 0x76 JUMPI DUP1 PUSH4 0x977A767C EQ PUSH2 0x92 JUMPI JUMPDEST PUSH1 0x0 DUP1 REVERT JUMPDEST CALLVALUE DUP1 ISZERO PUSH2 0x45 JUMPI PUSH1 0x0 DUP1 REVERT JUMPDEST POP PUSH2 0x60 PUSH1 0x4 DUP1 CALLDATASIZE SUB DUP2 ADD SWAP1 PUSH2 0x5B SWAP2 SWAP1 PUSH2 0x6EA JUMP JUMPDEST PUSH2 0xCF JUMP JUMPDEST PUSH1 0x40 MLOAD PUSH2 0x6D SWAP2 SWAP1 PUSH2 0x8E2 JUMP JUMPDEST PUSH1 0x40 MLOAD DUP1 SWAP2 SUB SWAP1 RETURN JUMPDEST PUSH2 0x90 PUSH1 0x4 DUP1 CALLDATASIZE SUB DUP2 ADD SWAP1 PUSH2 0x8B SWAP2 SWAP1 PUSH2 0x757 JUMP JUMPDEST PUSH2 0xED JUMP JUMPDEST STOP JUMPDEST CALLVALUE DUP1 ISZERO PUSH2 0x9E JUMPI PUSH1 0x0 DUP1 REVERT JUMPDEST POP PUSH2 0xB9 PUSH1 0x4 DUP1 CALLDATASIZE SUB DUP2 ADD SWAP1 PUSH2 0xB4 SWAP2 SWAP1 PUSH2 0x717 JUMP JUMPDEST PUSH2 0x32F JUMP JUMPDEST PUSH1 0x40 MLOAD PUSH2 0xC6 SWAP2 SWAP1 PUSH2 0x8C0 JUMP JUMPDEST PUSH1 0x40 MLOAD DUP1 SWAP2 SUB SWAP1 RETURN JUMPDEST PUSH1 0x0 PUSH1 0x20 MSTORE DUP1 PUSH1 0x0 MSTORE PUSH1 0x40 PUSH1 0x0 KECCAK256 PUSH1 0x0 SWAP2 POP SWAP1 POP DUP1 PUSH1 0x0 ADD SLOAD SWAP1 POP DUP2 JUMP JUMPDEST PUSH1 0x0 DUP1 CALLER PUSH20 0xFFFFFFFFFFFFFFFFFFFFFFFFFFFFFFFFFFFFFFFF AND PUSH20 0xFFFFFFFFFFFFFFFFFFFFFFFFFFFFFFFFFFFFFFFF AND DUP2 MSTORE PUSH1 0x20 ADD SWAP1 DUP2 MSTORE PUSH1 0x20 ADD PUSH1 0x0 KECCAK256 PUSH1 0x0 ADD PUSH1 0x0 DUP2 SLOAD DUP1 SWAP3 SWAP2 SWAP1 PUSH2 0x13F SWAP1 PUSH2 0xA50 JUMP JUMPDEST SWAP2 SWAP1 POP SSTORE POP PUSH1 0x0 PUSH8 0x1BC16D674EC80000 SWAP1 POP PUSH1 0x0 PUSH1 0x40 MLOAD DUP1 PUSH1 0x40 ADD PUSH1 0x40 MSTORE DUP1 PUSH1 0x40 MLOAD DUP1 PUSH1 0x40 ADD PUSH1 0x40 MSTORE DUP1 PUSH1 0x5 DUP2 MSTORE PUSH1 0x20 ADD PUSH32 0x4261726279000000000000000000000000000000000000000000000000000000 DUP2 MSTORE POP DUP2 MSTORE PUSH1 0x20 ADD DUP4 DUP2 MSTORE POP SWAP1 POP PUSH1 0x0 PUSH1 0x40 MLOAD DUP1 PUSH1 0xA0 ADD PUSH1 0x40 MSTORE DUP1 DUP4 DUP2 MSTORE PUSH1 0x20 ADD CALLVALUE DUP2 MSTORE PUSH1 0x20 ADD TIMESTAMP DUP2 MSTORE PUSH1 0x20 ADD CALLER PUSH20 0xFFFFFFFFFFFFFFFFFFFFFFFFFFFFFFFFFFFFFFFF AND DUP2 MSTORE PUSH1 0x20 ADD DUP6 DUP2 MSTORE POP SWAP1 POP DUP3 CALLVALUE LT PUSH2 0x329 JUMPI DUP1 PUSH1 0x0 DUP1 CALLER PUSH20 0xFFFFFFFFFFFFFFFFFFFFFFFFFFFFFFFFFFFFFFFF AND PUSH20 0xFFFFFFFFFFFFFFFFFFFFFFFFFFFFFFFFFFFFFFFF AND DUP2 MSTORE PUSH1 0x20 ADD SWAP1 DUP2 MSTORE PUSH1 0x20 ADD PUSH1 0x0 KECCAK256 PUSH1 0x1 ADD PUSH1 0x0 DUP1 PUSH1 0x0 CALLER PUSH20 0xFFFFFFFFFFFFFFFFFFFFFFFFFFFFFFFFFFFFFFFF AND PUSH20 0xFFFFFFFFFFFFFFFFFFFFFFFFFFFFFFFFFFFFFFFF AND DUP2 MSTORE PUSH1 0x20 ADD SWAP1 DUP2 MSTORE PUSH1 0x20 ADD PUSH1 0x0 KECCAK256 PUSH1 0x0 ADD SLOAD DUP2 MSTORE PUSH1 0x20 ADD SWAP1 DUP2 MSTORE PUSH1 0x20 ADD PUSH1 0x0 KECCAK256 PUSH1 0x0 DUP3 ADD MLOAD DUP2 PUSH1 0x0 ADD PUSH1 0x0 DUP3 ADD MLOAD DUP2 PUSH1 0x0 ADD SWAP1 DUP1 MLOAD SWAP1 PUSH1 0x20 ADD SWAP1 PUSH2 0x2A0 SWAP3 SWAP2 SWAP1 PUSH2 0x548 JUMP JUMPDEST POP PUSH1 0x20 DUP3 ADD MLOAD DUP2 PUSH1 0x1 ADD SSTORE POP POP PUSH1 0x20 DUP3 ADD MLOAD DUP2 PUSH1 0x2 ADD SSTORE PUSH1 0x40 DUP3 ADD MLOAD DUP2 PUSH1 0x3 ADD SSTORE PUSH1 0x60 DUP3 ADD MLOAD DUP2 PUSH1 0x4 ADD PUSH1 0x0 PUSH2 0x100 EXP DUP2 SLOAD DUP2 PUSH20 0xFFFFFFFFFFFFFFFFFFFFFFFFFFFFFFFFFFFFFFFF MUL NOT AND SWAP1 DUP4 PUSH20 0xFFFFFFFFFFFFFFFFFFFFFFFFFFFFFFFFFFFFFFFF AND MUL OR SWAP1 SSTORE POP PUSH1 0x80 DUP3 ADD MLOAD DUP2 PUSH1 0x5 ADD SWAP1 DUP1 MLOAD SWAP1 PUSH1 0x20 ADD SWAP1 PUSH2 0x324 SWAP3 SWAP2 SWAP1 PUSH2 0x548 JUMP JUMPDEST POP SWAP1 POP POP JUMPDEST POP POP POP POP JUMP JUMPDEST PUSH2 0x337 PUSH2 0x5CE JUMP JUMPDEST PUSH1 0x0 DUP1 DUP5 PUSH20 0xFFFFFFFFFFFFFFFFFFFFFFFFFFFFFFFFFFFFFFFF AND PUSH20 0xFFFFFFFFFFFFFFFFFFFFFFFFFFFFFFFFFFFFFFFF AND DUP2 MSTORE PUSH1 0x20 ADD SWAP1 DUP2 MSTORE PUSH1 0x20 ADD PUSH1 0x0 KECCAK256 PUSH1 0x1 ADD PUSH1 0x0 DUP4 DUP2 MSTORE PUSH1 0x20 ADD SWAP1 DUP2 MSTORE PUSH1 0x20 ADD PUSH1 0x0 KECCAK256 PUSH1 0x40 MLOAD DUP1 PUSH1 0xA0 ADD PUSH1 0x40 MSTORE SWAP1 DUP2 PUSH1 0x0 DUP3 ADD PUSH1 0x40 MLOAD DUP1 PUSH1 0x40 ADD PUSH1 0x40 MSTORE SWAP1 DUP2 PUSH1 0x0 DUP3 ADD DUP1 SLOAD PUSH2 0x3B4 SWAP1 PUSH2 0x9ED JUMP JUMPDEST DUP1 PUSH1 0x1F ADD PUSH1 0x20 DUP1 SWAP2 DIV MUL PUSH1 0x20 ADD PUSH1 0x40 MLOAD SWAP1 DUP2 ADD PUSH1 0x40 MSTORE DUP1 SWAP3 SWAP2 SWAP1 DUP2 DUP2 MSTORE PUSH1 0x20 ADD DUP3 DUP1 SLOAD PUSH2 0x3E0 SWAP1 PUSH2 0x9ED JUMP JUMPDEST DUP1 ISZERO PUSH2 0x42D JUMPI DUP1 PUSH1 0x1F LT PUSH2 0x402 JUMPI PUSH2 0x100 DUP1 DUP4 SLOAD DIV MUL DUP4 MSTORE SWAP2 PUSH1 0x20 ADD SWAP2 PUSH2 0x42D JUMP JUMPDEST DUP3 ADD SWAP2 SWAP1 PUSH1 0x0 MSTORE PUSH1 0x20 PUSH1 0x0 KECCAK256 SWAP1 JUMPDEST DUP2 SLOAD DUP2 MSTORE SWAP1 PUSH1 0x1 ADD SWAP1 PUSH1 0x20 ADD DUP1 DUP4 GT PUSH2 0x410 JUMPI DUP3 SWAP1 SUB PUSH1 0x1F AND DUP3 ADD SWAP2 JUMPDEST POP POP POP POP POP DUP2 MSTORE PUSH1 0x20 ADD PUSH1 0x1 DUP3 ADD SLOAD DUP2 MSTORE POP POP DUP2 MSTORE PUSH1 0x20 ADD PUSH1 0x2 DUP3 ADD SLOAD DUP2 MSTORE PUSH1 0x20 ADD PUSH1 0x3 DUP3 ADD SLOAD DUP2 MSTORE PUSH1 0x20 ADD PUSH1 0x4 DUP3 ADD PUSH1 0x0 SWAP1 SLOAD SWAP1 PUSH2 0x100 EXP SWAP1 DIV PUSH20 0xFFFFFFFFFFFFFFFFFFFFFFFFFFFFFFFFFFFFFFFF AND PUSH20 0xFFFFFFFFFFFFFFFFFFFFFFFFFFFFFFFFFFFFFFFF AND PUSH20 0xFFFFFFFFFFFFFFFFFFFFFFFFFFFFFFFFFFFFFFFF AND DUP2 MSTORE PUSH1 0x20 ADD PUSH1 0x5 DUP3 ADD DUP1 SLOAD PUSH2 0x4BE SWAP1 PUSH2 0x9ED JUMP JUMPDEST DUP1 PUSH1 0x1F ADD PUSH1 0x20 DUP1 SWAP2 DIV MUL PUSH1 0x20 ADD PUSH1 0x40 MLOAD SWAP1 DUP2 ADD PUSH1 0x40 MSTORE DUP1 SWAP3 SWAP2 SWAP1 DUP2 DUP2 MSTORE PUSH1 0x20 ADD DUP3 DUP1 SLOAD PUSH2 0x4EA SWAP1 PUSH2 0x9ED JUMP JUMPDEST DUP1 ISZERO PUSH2 0x537 JUMPI DUP1 PUSH1 0x1F LT PUSH2 0x50C JUMPI PUSH2 0x100 DUP1 DUP4 SLOAD DIV MUL DUP4 MSTORE SWAP2 PUSH1 0x20 ADD SWAP2 PUSH2 0x537 JUMP JUMPDEST DUP3 ADD SWAP2 SWAP1 PUSH1 0x0 MSTORE PUSH1 0x20 PUSH1 0x0 KECCAK256 SWAP1 JUMPDEST DUP2 SLOAD DUP2 MSTORE SWAP1 PUSH1 0x1 ADD SWAP1 PUSH1 0x20 ADD DUP1 DUP4 GT PUSH2 0x51A JUMPI DUP3 SWAP1 SUB PUSH1 0x1F AND DUP3 ADD SWAP2 JUMPDEST POP POP POP POP POP DUP2 MSTORE POP POP SWAP1 POP SWAP3 SWAP2 POP POP JUMP JUMPDEST DUP3 DUP1 SLOAD PUSH2 0x554 SWAP1 PUSH2 0x9ED JUMP JUMPDEST SWAP1 PUSH1 0x0 MSTORE PUSH1 0x20 PUSH1 0x0 KECCAK256 SWAP1 PUSH1 0x1F ADD PUSH1 0x20 SWAP1 DIV DUP2 ADD SWAP3 DUP3 PUSH2 0x576 JUMPI PUSH1 0x0 DUP6 SSTORE PUSH2 0x5BD JUMP JUMPDEST DUP3 PUSH1 0x1F LT PUSH2 0x58F JUMPI DUP1 MLOAD PUSH1 0xFF NOT AND DUP4 DUP1 ADD OR DUP6 SSTORE PUSH2 0x5BD JUMP JUMPDEST DUP3 DUP1 ADD PUSH1 0x1 ADD DUP6 SSTORE DUP3 ISZERO PUSH2 0x5BD JUMPI SWAP2 DUP3 ADD JUMPDEST DUP3 DUP2 GT ISZERO PUSH2 0x5BC JUMPI DUP3 MLOAD DUP3 SSTORE SWAP2 PUSH1 0x20 ADD SWAP2 SWAP1 PUSH1 0x1 ADD SWAP1 PUSH2 0x5A1 JUMP JUMPDEST JUMPDEST POP SWAP1 POP PUSH2 0x5CA SWAP2 SWAP1 PUSH2 0x619 JUMP JUMPDEST POP SWAP1 JUMP JUMPDEST PUSH1 0x40 MLOAD DUP1 PUSH1 0xA0 ADD PUSH1 0x40 MSTORE DUP1 PUSH2 0x5E1 PUSH2 0x636 JUMP JUMPDEST DUP2 MSTORE PUSH1 0x20 ADD PUSH1 0x0 DUP2 MSTORE PUSH1 0x20 ADD PUSH1 0x0 DUP2 MSTORE PUSH1 0x20 ADD PUSH1 0x0 PUSH20 0xFFFFFFFFFFFFFFFFFFFFFFFFFFFFFFFFFFFFFFFF AND DUP2 MSTORE PUSH1 0x20 ADD PUSH1 0x60 DUP2 MSTORE POP SWAP1 JUMP JUMPDEST JUMPDEST DUP1 DUP3 GT ISZERO PUSH2 0x632 JUMPI PUSH1 0x0 DUP2 PUSH1 0x0 SWAP1 SSTORE POP PUSH1 0x1 ADD PUSH2 0x61A JUMP JUMPDEST POP SWAP1 JUMP JUMPDEST PUSH1 0x40 MLOAD DUP1 PUSH1 0x40 ADD PUSH1 0x40 MSTORE DUP1 PUSH1 0x60 DUP2 MSTORE PUSH1 0x20 ADD PUSH1 0x0 DUP2 MSTORE POP SWAP1 JUMP JUMPDEST PUSH1 0x0 PUSH2 0x663 PUSH2 0x65E DUP5 PUSH2 0x922 JUMP JUMPDEST PUSH2 0x8FD JUMP JUMPDEST SWAP1 POP DUP3 DUP2 MSTORE PUSH1 0x20 DUP2 ADD DUP5 DUP5 DUP5 ADD GT ISZERO PUSH2 0x67F JUMPI PUSH2 0x67E PUSH2 0xB2B JUMP JUMPDEST JUMPDEST PUSH2 0x68A DUP5 DUP3 DUP6 PUSH2 0x9AB JUMP JUMPDEST POP SWAP4 SWAP3 POP POP POP JUMP JUMPDEST PUSH1 0x0 DUP2 CALLDATALOAD SWAP1 POP PUSH2 0x6A1 DUP2 PUSH2 0xB4B JUMP JUMPDEST SWAP3 SWAP2 POP POP JUMP JUMPDEST PUSH1 0x0 DUP3 PUSH1 0x1F DUP4 ADD SLT PUSH2 0x6BC JUMPI PUSH2 0x6BB PUSH2 0xB26 JUMP JUMPDEST JUMPDEST DUP2 CALLDATALOAD PUSH2 0x6CC DUP5 DUP3 PUSH1 0x20 DUP7 ADD PUSH2 0x650 JUMP JUMPDEST SWAP2 POP POP SWAP3 SWAP2 POP POP JUMP JUMPDEST PUSH1 0x0 DUP2 CALLDATALOAD SWAP1 POP PUSH2 0x6E4 DUP2 PUSH2 0xB62 JUMP JUMPDEST SWAP3 SWAP2 POP POP JUMP JUMPDEST PUSH1 0x0 PUSH1 0x20 DUP3 DUP5 SUB SLT ISZERO PUSH2 0x700 JUMPI PUSH2 0x6FF PUSH2 0xB35 JUMP JUMPDEST JUMPDEST PUSH1 0x0 PUSH2 0x70E DUP5 DUP3 DUP6 ADD PUSH2 0x692 JUMP JUMPDEST SWAP2 POP POP SWAP3 SWAP2 POP POP JUMP JUMPDEST PUSH1 0x0 DUP1 PUSH1 0x40 DUP4 DUP6 SUB SLT ISZERO PUSH2 0x72E JUMPI PUSH2 0x72D PUSH2 0xB35 JUMP JUMPDEST JUMPDEST PUSH1 0x0 PUSH2 0x73C DUP6 DUP3 DUP7 ADD PUSH2 0x692 JUMP JUMPDEST SWAP3 POP POP PUSH1 0x20 PUSH2 0x74D DUP6 DUP3 DUP7 ADD PUSH2 0x6D5 JUMP JUMPDEST SWAP2 POP POP SWAP3 POP SWAP3 SWAP1 POP JUMP JUMPDEST PUSH1 0x0 PUSH1 0x20 DUP3 DUP5 SUB SLT ISZERO PUSH2 0x76D JUMPI PUSH2 0x76C PUSH2 0xB35 JUMP JUMPDEST JUMPDEST PUSH1 0x0 DUP3 ADD CALLDATALOAD PUSH8 0xFFFFFFFFFFFFFFFF DUP2 GT ISZERO PUSH2 0x78B JUMPI PUSH2 0x78A PUSH2 0xB30 JUMP JUMPDEST JUMPDEST PUSH2 0x797 DUP5 DUP3 DUP6 ADD PUSH2 0x6A7 JUMP JUMPDEST SWAP2 POP POP SWAP3 SWAP2 POP POP JUMP JUMPDEST PUSH2 0x7A9 DUP2 PUSH2 0x96F JUMP JUMPDEST DUP3 MSTORE POP POP JUMP JUMPDEST PUSH1 0x0 PUSH2 0x7BA DUP3 PUSH2 0x953 JUMP JUMPDEST PUSH2 0x7C4 DUP2 DUP6 PUSH2 0x95E JUMP JUMPDEST SWAP4 POP PUSH2 0x7D4 DUP2 DUP6 PUSH1 0x20 DUP7 ADD PUSH2 0x9BA JUMP JUMPDEST PUSH2 0x7DD DUP2 PUSH2 0xB3A JUMP JUMPDEST DUP5 ADD SWAP2 POP POP SWAP3 SWAP2 POP POP JUMP JUMPDEST PUSH1 0x0 PUSH1 0xA0 DUP4 ADD PUSH1 0x0 DUP4 ADD MLOAD DUP5 DUP3 SUB PUSH1 0x0 DUP7 ADD MSTORE PUSH2 0x805 DUP3 DUP3 PUSH2 0x865 JUMP JUMPDEST SWAP2 POP POP PUSH1 0x20 DUP4 ADD MLOAD PUSH2 0x81A PUSH1 0x20 DUP7 ADD DUP3 PUSH2 0x8A2 JUMP JUMPDEST POP PUSH1 0x40 DUP4 ADD MLOAD PUSH2 0x82D PUSH1 0x40 DUP7 ADD DUP3 PUSH2 0x8A2 JUMP JUMPDEST POP PUSH1 0x60 DUP4 ADD MLOAD PUSH2 0x840 PUSH1 0x60 DUP7 ADD DUP3 PUSH2 0x7A0 JUMP JUMPDEST POP PUSH1 0x80 DUP4 ADD MLOAD DUP5 DUP3 SUB PUSH1 0x80 DUP7 ADD MSTORE PUSH2 0x858 DUP3 DUP3 PUSH2 0x7AF JUMP JUMPDEST SWAP2 POP POP DUP1 SWAP2 POP POP SWAP3 SWAP2 POP POP JUMP JUMPDEST PUSH1 0x0 PUSH1 0x40 DUP4 ADD PUSH1 0x0 DUP4 ADD MLOAD DUP5 DUP3 SUB PUSH1 0x0 DUP7 ADD MSTORE PUSH2 0x882 DUP3 DUP3 PUSH2 0x7AF JUMP JUMPDEST SWAP2 POP POP PUSH1 0x20 DUP4 ADD MLOAD PUSH2 0x897 PUSH1 0x20 DUP7 ADD DUP3 PUSH2 0x8A2 JUMP JUMPDEST POP DUP1 SWAP2 POP POP SWAP3 SWAP2 POP POP JUMP JUMPDEST PUSH2 0x8AB DUP2 PUSH2 0x9A1 JUMP JUMPDEST DUP3 MSTORE POP POP JUMP JUMPDEST PUSH2 0x8BA DUP2 PUSH2 0x9A1 JUMP JUMPDEST DUP3 MSTORE POP POP JUMP JUMPDEST PUSH1 0x0 PUSH1 0x20 DUP3 ADD SWAP1 POP DUP2 DUP2 SUB PUSH1 0x0 DUP4 ADD MSTORE PUSH2 0x8DA DUP2 DUP5 PUSH2 0x7E8 JUMP JUMPDEST SWAP1 POP SWAP3 SWAP2 POP POP JUMP JUMPDEST PUSH1 0x0 PUSH1 0x20 DUP3 ADD SWAP1 POP PUSH2 0x8F7 PUSH1 0x0 DUP4 ADD DUP5 PUSH2 0x8B1 JUMP JUMPDEST SWAP3 SWAP2 POP POP JUMP JUMPDEST PUSH1 0x0 PUSH2 0x907 PUSH2 0x918 JUMP JUMPDEST SWAP1 POP PUSH2 0x913 DUP3 DUP3 PUSH2 0xA1F JUMP JUMPDEST SWAP2 SWAP1 POP JUMP JUMPDEST PUSH1 0x0 PUSH1 0x40 MLOAD SWAP1 POP SWAP1 JUMP JUMPDEST PUSH1 0x0 PUSH8 0xFFFFFFFFFFFFFFFF DUP3 GT ISZERO PUSH2 0x93D JUMPI PUSH2 0x93C PUSH2 0xAF7 JUMP JUMPDEST JUMPDEST PUSH2 0x946 DUP3 PUSH2 0xB3A JUMP JUMPDEST SWAP1 POP PUSH1 0x20 DUP2 ADD SWAP1 POP SWAP2 SWAP1 POP JUMP JUMPDEST PUSH1 0x0 DUP2 MLOAD SWAP1 POP SWAP2 SWAP1 POP JUMP JUMPDEST PUSH1 0x0 DUP3 DUP3 MSTORE PUSH1 0x20 DUP3 ADD SWAP1 POP SWAP3 SWAP2 POP POP JUMP JUMPDEST PUSH1 0x0 PUSH2 0x97A DUP3 PUSH2 0x981 JUMP JUMPDEST SWAP1 POP SWAP2 SWAP1 POP JUMP JUMPDEST PUSH1 0x0 PUSH20 0xFFFFFFFFFFFFFFFFFFFFFFFFFFFFFFFFFFFFFFFF DUP3 AND SWAP1 POP SWAP2 SWAP1 POP JUMP JUMPDEST PUSH1 0x0 DUP2 SWAP1 POP SWAP2 SWAP1 POP JUMP JUMPDEST DUP3 DUP2 DUP4 CALLDATACOPY PUSH1 0x0 DUP4 DUP4 ADD MSTORE POP POP POP JUMP JUMPDEST PUSH1 0x0 JUMPDEST DUP4 DUP2 LT ISZERO PUSH2 0x9D8 JUMPI DUP1 DUP3 ADD MLOAD DUP2 DUP5 ADD MSTORE PUSH1 0x20 DUP2 ADD SWAP1 POP PUSH2 0x9BD JUMP JUMPDEST DUP4 DUP2 GT ISZERO PUSH2 0x9E7 JUMPI PUSH1 0x0 DUP5 DUP5 ADD MSTORE JUMPDEST POP POP POP POP JUMP JUMPDEST PUSH1 0x0 PUSH1 0x2 DUP3 DIV SWAP1 POP PUSH1 0x1 DUP3 AND DUP1 PUSH2 0xA05 JUMPI PUSH1 0x7F DUP3 AND SWAP2 POP JUMPDEST PUSH1 0x20 DUP3 LT DUP2 EQ ISZERO PUSH2 0xA19 JUMPI PUSH2 0xA18 PUSH2 0xAC8 JUMP JUMPDEST JUMPDEST POP SWAP2 SWAP1 POP JUMP JUMPDEST PUSH2 0xA28 DUP3 PUSH2 0xB3A JUMP JUMPDEST DUP2 ADD DUP2 DUP2 LT PUSH8 0xFFFFFFFFFFFFFFFF DUP3 GT OR ISZERO PUSH2 0xA47 JUMPI PUSH2 0xA46 PUSH2 0xAF7 JUMP JUMPDEST JUMPDEST DUP1 PUSH1 0x40 MSTORE POP POP POP JUMP JUMPDEST PUSH1 0x0 PUSH2 0xA5B DUP3 PUSH2 0x9A1 JUMP JUMPDEST SWAP2 POP PUSH32 0xFFFFFFFFFFFFFFFFFFFFFFFFFFFFFFFFFFFFFFFFFFFFFFFFFFFFFFFFFFFFFFFF DUP3 EQ ISZERO PUSH2 0xA8E JUMPI PUSH2 0xA8D PUSH2 0xA99 JUMP JUMPDEST JUMPDEST PUSH1 0x1 DUP3 ADD SWAP1 POP SWAP2 SWAP1 POP JUMP JUMPDEST PUSH32 0x4E487B7100000000000000000000000000000000000000000000000000000000 PUSH1 0x0 MSTORE PUSH1 0x11 PUSH1 0x4 MSTORE PUSH1 0x24 PUSH1 0x0 REVERT JUMPDEST PUSH32 0x4E487B7100000000000000000000000000000000000000000000000000000000 PUSH1 0x0 MSTORE PUSH1 0x22 PUSH1 0x4 MSTORE PUSH1 0x24 PUSH1 0x0 REVERT JUMPDEST PUSH32 0x4E487B7100000000000000000000000000000000000000000000000000000000 PUSH1 0x0 MSTORE PUSH1 0x41 PUSH1 0x4 MSTORE PUSH1 0x24 PUSH1 0x0 REVERT JUMPDEST PUSH1 0x0 DUP1 REVERT JUMPDEST PUSH1 0x0 DUP1 REVERT JUMPDEST PUSH1 0x0 DUP1 REVERT JUMPDEST PUSH1 0x0 DUP1 REVERT JUMPDEST PUSH1 0x0 PUSH1 0x1F NOT PUSH1 0x1F DUP4 ADD AND SWAP1 POP SWAP2 SWAP1 POP JUMP JUMPDEST PUSH2 0xB54 DUP2 PUSH2 0x96F JUMP JUMPDEST DUP2 EQ PUSH2 0xB5F JUMPI PUSH1 0x0 DUP1 REVERT JUMPDEST POP JUMP JUMPDEST PUSH2 0xB6B DUP2 PUSH2 0x9A1 JUMP JUMPDEST DUP2 EQ PUSH2 0xB76 JUMPI PUSH1 0x0 DUP1 REVERT JUMPDEST POP JUMP INVALID LOG2 PUSH5 0x6970667358 0x22 SLT KECCAK256 0xAF 0xA8 PUSH10 0x6AED0312EED292EF3331 PUSH19 0xA40D8B8A531A55FF3B264B59B7491963A2AF64 PUSH20 0x6F6C634300080700330000000000000000000000 "
				},
				"gasEstimates": {
					"creation": {
						"codeDepositCost": "598200",
						"executionCost": "632",
						"totalCost": "598832"
					},
					"external": {
						"balances(address)": "2806",
						"getPayment(address,uint256)": "infinite",
						"payForDool(string)": "infinite"
					}
				},
				"methodIdentifiers": {
					"balances(address)": "27e235e3",
					"getPayment(address,uint256)": "977a767c",
					"payForDool(string)": "64254cdb"
				}
			},
			"storageLayout": {
				"storage": [
					{
						"astId": 31,
						"contract": "contracts/Lesson5Types.sol:Struct5Lesson",
						"label": "balances",
						"offset": 0,
						"slot": "0",
						"type": "t_mapping(t_address,t_struct(Balance)26_storage)"
					}
				],
				"types": {
					"t_address": {
						"encoding": "inplace",
						"label": "address",
						"numberOfBytes": "20"
					},
					"t_mapping(t_address,t_struct(Balance)26_storage)": {
						"encoding": "mapping",
						"key": "t_address",
						"label": "mapping(address => struct Struct5Lesson.Balance)",
						"numberOfBytes": "32",
						"value": "t_struct(Balance)26_storage"
					},
					"t_mapping(t_uint256,t_struct(Payment)18_storage)": {
						"encoding": "mapping",
						"key": "t_uint256",
						"label": "mapping(uint256 => struct Struct5Lesson.Payment)",
						"numberOfBytes": "32",
						"value": "t_struct(Payment)18_storage"
					},
					"t_string_storage": {
						"encoding": "bytes",
						"label": "string",
						"numberOfBytes": "32"
					},
					"t_struct(Balance)26_storage": {
						"encoding": "inplace",
						"label": "struct Struct5Lesson.Balance",
						"members": [
							{
								"astId": 20,
								"contract": "contracts/Lesson5Types.sol:Struct5Lesson",
								"label": "totalPayments",
								"offset": 0,
								"slot": "0",
								"type": "t_uint256"
							},
							{
								"astId": 25,
								"contract": "contracts/Lesson5Types.sol:Struct5Lesson",
								"label": "payments",
								"offset": 0,
								"slot": "1",
								"type": "t_mapping(t_uint256,t_struct(Payment)18_storage)"
							}
						],
						"numberOfBytes": "64"
					},
					"t_struct(Payment)18_storage": {
						"encoding": "inplace",
						"label": "struct Struct5Lesson.Payment",
						"members": [
							{
								"astId": 9,
								"contract": "contracts/Lesson5Types.sol:Struct5Lesson",
								"label": "product",
								"offset": 0,
								"slot": "0",
								"type": "t_struct(Product)6_storage"
							},
							{
								"astId": 11,
								"contract": "contracts/Lesson5Types.sol:Struct5Lesson",
								"label": "amount",
								"offset": 0,
								"slot": "2",
								"type": "t_uint256"
							},
							{
								"astId": 13,
								"contract": "contracts/Lesson5Types.sol:Struct5Lesson",
								"label": "timestamp",
								"offset": 0,
								"slot": "3",
								"type": "t_uint256"
							},
							{
								"astId": 15,
								"contract": "contracts/Lesson5Types.sol:Struct5Lesson",
								"label": "from",
								"offset": 0,
								"slot": "4",
								"type": "t_address"
							},
							{
								"astId": 17,
								"contract": "contracts/Lesson5Types.sol:Struct5Lesson",
								"label": "message",
								"offset": 0,
								"slot": "5",
								"type": "t_string_storage"
							}
						],
						"numberOfBytes": "192"
					},
					"t_struct(Product)6_storage": {
						"encoding": "inplace",
						"label": "struct Struct5Lesson.Product",
						"members": [
							{
								"astId": 3,
								"contract": "contracts/Lesson5Types.sol:Struct5Lesson",
								"label": "name",
								"offset": 0,
								"slot": "0",
								"type": "t_string_storage"
							},
							{
								"astId": 5,
								"contract": "contracts/Lesson5Types.sol:Struct5Lesson",
								"label": "price",
								"offset": 0,
								"slot": "1",
								"type": "t_uint256"
							}
						],
						"numberOfBytes": "64"
					},
					"t_uint256": {
						"encoding": "inplace",
						"label": "uint256",
						"numberOfBytes": "32"
					}
				}
			},
			"userdoc": {
				"kind": "user",
				"methods": {},
				"version": 1
			}
		}
	}
}