{
	"contracts/Lesson3Types.sol": {
		"Map3Lesson": {
			"abi": [
				{
					"inputs": [],
					"name": "MyAction",
					"outputs": [
						{
							"internalType": "enum Map3Lesson.Actions",
							"name": "",
							"type": "uint8"
						}
					],
					"stateMutability": "view",
					"type": "function"
				},
				{
					"inputs": [
						{
							"internalType": "address",
							"name": "",
							"type": "address"
						}
					],
					"name": "accounts",
					"outputs": [
						{
							"internalType": "string",
							"name": "",
							"type": "string"
						}
					],
					"stateMutability": "view",
					"type": "function"
				},
				{
					"inputs": [
						{
							"internalType": "string",
							"name": "",
							"type": "string"
						}
					],
					"name": "ages",
					"outputs": [
						{
							"internalType": "uint256",
							"name": "",
							"type": "uint256"
						}
					],
					"stateMutability": "view",
					"type": "function"
				},
				{
					"inputs": [
						{
							"internalType": "address",
							"name": "",
							"type": "address"
						}
					],
					"name": "payments",
					"outputs": [
						{
							"internalType": "uint256",
							"name": "",
							"type": "uint256"
						}
					],
					"stateMutability": "view",
					"type": "function"
				},
				{
					"inputs": [
						{
							"internalType": "address",
							"name": "adr",
							"type": "address"
						},
						{
							"internalType": "string",
							"name": "name",
							"type": "string"
						}
					],
					"name": "setAccounts",
					"outputs": [],
					"stateMutability": "nonpayable",
					"type": "function"
				},
				{
					"inputs": [
						{
							"internalType": "string",
							"name": "name",
							"type": "string"
						},
						{
							"internalType": "uint256",
							"name": "age",
							"type": "uint256"
						}
					],
					"name": "setAges",
					"outputs": [],
					"stateMutability": "nonpayable",
					"type": "function"
				},
				{
					"inputs": [],
					"name": "setPayments",
					"outputs": [],
					"stateMutability": "payable",
					"type": "function"
				},
				{
					"inputs": [],
					"name": "setRun",
					"outputs": [],
					"stateMutability": "nonpayable",
					"type": "function"
				},
				{
					"inputs": [],
					"name": "setStand",
					"outputs": [],
					"stateMutability": "nonpayable",
					"type": "function"
				},
				{
					"inputs": [],
					"name": "setWalk",
					"outputs": [],
					"stateMutability": "nonpayable",
					"type": "function"
				}
			],
			"devdoc": {
				"kind": "dev",
				"methods": {},
				"version": 1
			},
			"evm": {
				"assembly": "    /* \"contracts/Lesson3Types.sol\":58:1054  contract Map3Lesson {... */\n  mstore(0x40, 0x80)\n  callvalue\n  dup1\n  iszero\n  tag_1\n  jumpi\n  0x00\n  dup1\n  revert\ntag_1:\n  pop\n  dataSize(sub_0)\n  dup1\n  dataOffset(sub_0)\n  0x00\n  codecopy\n  0x00\n  return\nstop\n\nsub_0: assembly {\n        /* \"contracts/Lesson3Types.sol\":58:1054  contract Map3Lesson {... */\n      mstore(0x40, 0x80)\n      jumpi(tag_1, lt(calldatasize, 0x04))\n      shr(0xe0, calldataload(0x00))\n      dup1\n      0x6dcfe452\n      gt\n      tag_12\n      jumpi\n      dup1\n      0x6dcfe452\n      eq\n      tag_7\n      jumpi\n      dup1\n      0x6f80c7f8\n      eq\n      tag_8\n      jumpi\n      dup1\n      0x8b8cfeff\n      eq\n      tag_9\n      jumpi\n      dup1\n      0xd9d65d46\n      eq\n      tag_10\n      jumpi\n      dup1\n      0xe2982c21\n      eq\n      tag_11\n      jumpi\n      jump(tag_1)\n    tag_12:\n      dup1\n      0x07e6971b\n      eq\n      tag_2\n      jumpi\n      dup1\n      0x250f050a\n      eq\n      tag_3\n      jumpi\n      dup1\n      0x3878388e\n      eq\n      tag_4\n      jumpi\n      dup1\n      0x48c4e1e9\n      eq\n      tag_5\n      jumpi\n      dup1\n      0x5e5c06e2\n      eq\n      tag_6\n      jumpi\n    tag_1:\n      0x00\n      dup1\n      revert\n        /* \"contracts/Lesson3Types.sol\":842:910  function setStand() public {... */\n    tag_2:\n      callvalue\n      dup1\n      iszero\n      tag_13\n      jumpi\n      0x00\n      dup1\n      revert\n    tag_13:\n      pop\n      tag_14\n      tag_15\n      jump\t// in\n    tag_14:\n      stop\n        /* \"contracts/Lesson3Types.sol\":428:514  function setAges(string memory name, uint age) public{... */\n    tag_3:\n      callvalue\n      dup1\n      iszero\n      tag_16\n      jumpi\n      0x00\n      dup1\n      revert\n    tag_16:\n      pop\n      tag_17\n      0x04\n      dup1\n      calldatasize\n      sub\n      dup2\n      add\n      swap1\n      tag_18\n      swap2\n      swap1\n      tag_19\n      jump\t// in\n    tag_18:\n      tag_20\n      jump\t// in\n    tag_17:\n      stop\n        /* \"contracts/Lesson3Types.sol\":520:618  function setAccounts(address adr, string memory name) public {... */\n    tag_4:\n      callvalue\n      dup1\n      iszero\n      tag_21\n      jumpi\n      0x00\n      dup1\n      revert\n    tag_21:\n      pop\n      tag_22\n      0x04\n      dup1\n      calldatasize\n      sub\n      dup2\n      add\n      swap1\n      tag_23\n      swap2\n      swap1\n      tag_24\n      jump\t// in\n    tag_23:\n      tag_25\n      jump\t// in\n    tag_22:\n      stop\n        /* \"contracts/Lesson3Types.sol\":811:834  Actions public MyAction */\n    tag_5:\n      callvalue\n      dup1\n      iszero\n      tag_26\n      jumpi\n      0x00\n      dup1\n      revert\n    tag_26:\n      pop\n      tag_27\n      tag_28\n      jump\t// in\n    tag_27:\n      mload(0x40)\n      tag_29\n      swap2\n      swap1\n      tag_30\n      jump\t// in\n    tag_29:\n      mload(0x40)\n      dup1\n      swap2\n      sub\n      swap1\n      return\n        /* \"contracts/Lesson3Types.sol\":158:201  mapping (address => string) public accounts */\n    tag_6:\n      callvalue\n      dup1\n      iszero\n      tag_31\n      jumpi\n      0x00\n      dup1\n      revert\n    tag_31:\n      pop\n      tag_32\n      0x04\n      dup1\n      calldatasize\n      sub\n      dup2\n      add\n      swap1\n      tag_33\n      swap2\n      swap1\n      tag_34\n      jump\t// in\n    tag_33:\n      tag_35\n      jump\t// in\n    tag_32:\n      mload(0x40)\n      tag_36\n      swap2\n      swap1\n      tag_37\n      jump\t// in\n    tag_36:\n      mload(0x40)\n      dup1\n      swap2\n      sub\n      swap1\n      return\n        /* \"contracts/Lesson3Types.sol\":84:120  mapping (string => uint) public ages */\n    tag_7:\n      callvalue\n      dup1\n      iszero\n      tag_38\n      jumpi\n      0x00\n      dup1\n      revert\n    tag_38:\n      pop\n      tag_39\n      0x04\n      dup1\n      calldatasize\n      sub\n      dup2\n      add\n      swap1\n      tag_40\n      swap2\n      swap1\n      tag_41\n      jump\t// in\n    tag_40:\n      tag_42\n      jump\t// in\n    tag_39:\n      mload(0x40)\n      tag_43\n      swap2\n      swap1\n      tag_44\n      jump\t// in\n    tag_43:\n      mload(0x40)\n      dup1\n      swap2\n      sub\n      swap1\n      return\n        /* \"contracts/Lesson3Types.sol\":988:1052  function setRun() public {... */\n    tag_8:\n      callvalue\n      dup1\n      iszero\n      tag_45\n      jumpi\n      0x00\n      dup1\n      revert\n    tag_45:\n      pop\n      tag_46\n      tag_47\n      jump\t// in\n    tag_46:\n      stop\n        /* \"contracts/Lesson3Types.sol\":624:769  function setPayments() public payable {... */\n    tag_9:\n      tag_48\n      tag_49\n      jump\t// in\n    tag_48:\n      stop\n        /* \"contracts/Lesson3Types.sol\":916:982  function setWalk() public {... */\n    tag_10:\n      callvalue\n      dup1\n      iszero\n      tag_50\n      jumpi\n      0x00\n      dup1\n      revert\n    tag_50:\n      pop\n      tag_51\n      tag_52\n      jump\t// in\n    tag_51:\n      stop\n        /* \"contracts/Lesson3Types.sol\":279:320  mapping (address => uint) public payments */\n    tag_11:\n      callvalue\n      dup1\n      iszero\n      tag_53\n      jumpi\n      0x00\n      dup1\n      revert\n    tag_53:\n      pop\n      tag_54\n      0x04\n      dup1\n      calldatasize\n      sub\n      dup2\n      add\n      swap1\n      tag_55\n      swap2\n      swap1\n      tag_34\n      jump\t// in\n    tag_55:\n      tag_56\n      jump\t// in\n    tag_54:\n      mload(0x40)\n      tag_57\n      swap2\n      swap1\n      tag_44\n      jump\t// in\n    tag_57:\n      mload(0x40)\n      dup1\n      swap2\n      sub\n      swap1\n      return\n        /* \"contracts/Lesson3Types.sol\":842:910  function setStand() public {... */\n    tag_15:\n        /* \"contracts/Lesson3Types.sol\":890:903  Actions.Stand */\n      0x00\n        /* \"contracts/Lesson3Types.sol\":879:887  MyAction */\n      0x03\n      0x00\n        /* \"contracts/Lesson3Types.sol\":879:903  MyAction = Actions.Stand */\n      0x0100\n      exp\n      dup2\n      sload\n      dup2\n      0xff\n      mul\n      not\n      and\n      swap1\n      dup4\n      0x02\n      dup2\n      gt\n      iszero\n      tag_59\n      jumpi\n      tag_60\n      tag_61\n      jump\t// in\n    tag_60:\n    tag_59:\n      mul\n      or\n      swap1\n      sstore\n      pop\n        /* \"contracts/Lesson3Types.sol\":842:910  function setStand() public {... */\n      jump\t// out\n        /* \"contracts/Lesson3Types.sol\":428:514  function setAges(string memory name, uint age) public{... */\n    tag_20:\n        /* \"contracts/Lesson3Types.sol\":504:507  age */\n      dup1\n        /* \"contracts/Lesson3Types.sol\":491:495  ages */\n      0x00\n        /* \"contracts/Lesson3Types.sol\":496:500  name */\n      dup4\n        /* \"contracts/Lesson3Types.sol\":491:501  ages[name] */\n      mload(0x40)\n      tag_63\n      swap2\n      swap1\n      tag_64\n      jump\t// in\n    tag_63:\n      swap1\n      dup2\n      mstore\n      0x20\n      add\n      mload(0x40)\n      dup1\n      swap2\n      sub\n      swap1\n      keccak256\n        /* \"contracts/Lesson3Types.sol\":491:507  ages[name] = age */\n      dup2\n      swap1\n      sstore\n      pop\n        /* \"contracts/Lesson3Types.sol\":428:514  function setAges(string memory name, uint age) public{... */\n      pop\n      pop\n      jump\t// out\n        /* \"contracts/Lesson3Types.sol\":520:618  function setAccounts(address adr, string memory name) public {... */\n    tag_25:\n        /* \"contracts/Lesson3Types.sol\":607:611  name */\n      dup1\n        /* \"contracts/Lesson3Types.sol\":591:599  accounts */\n      0x01\n        /* \"contracts/Lesson3Types.sol\":591:604  accounts[adr] */\n      0x00\n        /* \"contracts/Lesson3Types.sol\":600:603  adr */\n      dup5\n        /* \"contracts/Lesson3Types.sol\":591:604  accounts[adr] */\n      0xffffffffffffffffffffffffffffffffffffffff\n      and\n      0xffffffffffffffffffffffffffffffffffffffff\n      and\n      dup2\n      mstore\n      0x20\n      add\n      swap1\n      dup2\n      mstore\n      0x20\n      add\n      0x00\n      keccak256\n        /* \"contracts/Lesson3Types.sol\":591:611  accounts[adr] = name */\n      swap1\n      dup1\n      mload\n      swap1\n      0x20\n      add\n      swap1\n      tag_66\n      swap3\n      swap2\n      swap1\n      tag_67\n      jump\t// in\n    tag_66:\n      pop\n        /* \"contracts/Lesson3Types.sol\":520:618  function setAccounts(address adr, string memory name) public {... */\n      pop\n      pop\n      jump\t// out\n        /* \"contracts/Lesson3Types.sol\":811:834  Actions public MyAction */\n    tag_28:\n      0x03\n      0x00\n      swap1\n      sload\n      swap1\n      0x0100\n      exp\n      swap1\n      div\n      0xff\n      and\n      dup2\n      jump\t// out\n        /* \"contracts/Lesson3Types.sol\":158:201  mapping (address => string) public accounts */\n    tag_35:\n      mstore(0x20, 0x01)\n      dup1\n      0x00\n      mstore\n      keccak256(0x00, 0x40)\n      0x00\n      swap2\n      pop\n      swap1\n      pop\n      dup1\n      sload\n      tag_68\n      swap1\n      tag_69\n      jump\t// in\n    tag_68:\n      dup1\n      0x1f\n      add\n      0x20\n      dup1\n      swap2\n      div\n      mul\n      0x20\n      add\n      mload(0x40)\n      swap1\n      dup2\n      add\n      0x40\n      mstore\n      dup1\n      swap3\n      swap2\n      swap1\n      dup2\n      dup2\n      mstore\n      0x20\n      add\n      dup3\n      dup1\n      sload\n      tag_70\n      swap1\n      tag_69\n      jump\t// in\n    tag_70:\n      dup1\n      iszero\n      tag_71\n      jumpi\n      dup1\n      0x1f\n      lt\n      tag_72\n      jumpi\n      0x0100\n      dup1\n      dup4\n      sload\n      div\n      mul\n      dup4\n      mstore\n      swap2\n      0x20\n      add\n      swap2\n      jump(tag_71)\n    tag_72:\n      dup3\n      add\n      swap2\n      swap1\n      0x00\n      mstore\n      keccak256(0x00, 0x20)\n      swap1\n    tag_73:\n      dup2\n      sload\n      dup2\n      mstore\n      swap1\n      0x01\n      add\n      swap1\n      0x20\n      add\n      dup1\n      dup4\n      gt\n      tag_73\n      jumpi\n      dup3\n      swap1\n      sub\n      0x1f\n      and\n      dup3\n      add\n      swap2\n    tag_71:\n      pop\n      pop\n      pop\n      pop\n      pop\n      dup2\n      jump\t// out\n        /* \"contracts/Lesson3Types.sol\":84:120  mapping (string => uint) public ages */\n    tag_42:\n      0x00\n      dup2\n      dup1\n      mload\n      0x20\n      dup2\n      add\n      dup3\n      add\n      dup1\n      mload\n      dup5\n      dup3\n      mstore\n      0x20\n      dup4\n      add\n      0x20\n      dup6\n      add\n      keccak256\n      dup2\n      dup4\n      mstore\n      dup1\n      swap6\n      pop\n      pop\n      pop\n      pop\n      pop\n      pop\n      0x00\n      swap2\n      pop\n      swap1\n      pop\n      sload\n      dup2\n      jump\t// out\n        /* \"contracts/Lesson3Types.sol\":988:1052  function setRun() public {... */\n    tag_47:\n        /* \"contracts/Lesson3Types.sol\":1034:1045  Actions.Run */\n      0x02\n        /* \"contracts/Lesson3Types.sol\":1023:1031  MyAction */\n      0x03\n      0x00\n        /* \"contracts/Lesson3Types.sol\":1023:1045  MyAction = Actions.Run */\n      0x0100\n      exp\n      dup2\n      sload\n      dup2\n      0xff\n      mul\n      not\n      and\n      swap1\n      dup4\n      0x02\n      dup2\n      gt\n      iszero\n      tag_75\n      jumpi\n      tag_76\n      tag_61\n      jump\t// in\n    tag_76:\n    tag_75:\n      mul\n      or\n      swap1\n      sstore\n      pop\n        /* \"contracts/Lesson3Types.sol\":988:1052  function setRun() public {... */\n      jump\t// out\n        /* \"contracts/Lesson3Types.sol\":624:769  function setPayments() public payable {... */\n    tag_49:\n        /* \"contracts/Lesson3Types.sol\":672:681  uint temp */\n      0x00\n        /* \"contracts/Lesson3Types.sol\":684:692  payments */\n      0x02\n        /* \"contracts/Lesson3Types.sol\":684:704  payments[msg.sender] */\n      0x00\n        /* \"contracts/Lesson3Types.sol\":693:703  msg.sender */\n      caller\n        /* \"contracts/Lesson3Types.sol\":684:704  payments[msg.sender] */\n      0xffffffffffffffffffffffffffffffffffffffff\n      and\n      0xffffffffffffffffffffffffffffffffffffffff\n      and\n      dup2\n      mstore\n      0x20\n      add\n      swap1\n      dup2\n      mstore\n      0x20\n      add\n      0x00\n      keccak256\n      sload\n        /* \"contracts/Lesson3Types.sol\":672:704  uint temp = payments[msg.sender] */\n      swap1\n      pop\n        /* \"contracts/Lesson3Types.sol\":753:762  msg.value */\n      callvalue\n        /* \"contracts/Lesson3Types.sol\":746:750  temp */\n      dup2\n        /* \"contracts/Lesson3Types.sol\":746:762  temp + msg.value */\n      tag_78\n      swap2\n      swap1\n      tag_79\n      jump\t// in\n    tag_78:\n        /* \"contracts/Lesson3Types.sol\":723:731  payments */\n      0x02\n        /* \"contracts/Lesson3Types.sol\":723:743  payments[msg.sender] */\n      0x00\n        /* \"contracts/Lesson3Types.sol\":732:742  msg.sender */\n      caller\n        /* \"contracts/Lesson3Types.sol\":723:743  payments[msg.sender] */\n      0xffffffffffffffffffffffffffffffffffffffff\n      and\n      0xffffffffffffffffffffffffffffffffffffffff\n      and\n      dup2\n      mstore\n      0x20\n      add\n      swap1\n      dup2\n      mstore\n      0x20\n      add\n      0x00\n      keccak256\n        /* \"contracts/Lesson3Types.sol\":723:762  payments[msg.sender] = temp + msg.value */\n      dup2\n      swap1\n      sstore\n      pop\n        /* \"contracts/Lesson3Types.sol\":662:769  {... */\n      pop\n        /* \"contracts/Lesson3Types.sol\":624:769  function setPayments() public payable {... */\n      jump\t// out\n        /* \"contracts/Lesson3Types.sol\":916:982  function setWalk() public {... */\n    tag_52:\n        /* \"contracts/Lesson3Types.sol\":963:975  Actions.Walk */\n      0x01\n        /* \"contracts/Lesson3Types.sol\":952:960  MyAction */\n      0x03\n      0x00\n        /* \"contracts/Lesson3Types.sol\":952:975  MyAction = Actions.Walk */\n      0x0100\n      exp\n      dup2\n      sload\n      dup2\n      0xff\n      mul\n      not\n      and\n      swap1\n      dup4\n      0x02\n      dup2\n      gt\n      iszero\n      tag_81\n      jumpi\n      tag_82\n      tag_61\n      jump\t// in\n    tag_82:\n    tag_81:\n      mul\n      or\n      swap1\n      sstore\n      pop\n        /* \"contracts/Lesson3Types.sol\":916:982  function setWalk() public {... */\n      jump\t// out\n        /* \"contracts/Lesson3Types.sol\":279:320  mapping (address => uint) public payments */\n    tag_56:\n      mstore(0x20, 0x02)\n      dup1\n      0x00\n      mstore\n      keccak256(0x00, 0x40)\n      0x00\n      swap2\n      pop\n      swap1\n      pop\n      sload\n      dup2\n      jump\t// out\n    tag_67:\n      dup3\n      dup1\n      sload\n      tag_83\n      swap1\n      tag_69\n      jump\t// in\n    tag_83:\n      swap1\n      0x00\n      mstore\n      keccak256(0x00, 0x20)\n      swap1\n      0x1f\n      add\n      0x20\n      swap1\n      div\n      dup2\n      add\n      swap3\n      dup3\n      tag_85\n      jumpi\n      0x00\n      dup6\n      sstore\n      jump(tag_84)\n    tag_85:\n      dup3\n      0x1f\n      lt\n      tag_86\n      jumpi\n      dup1\n      mload\n      not(0xff)\n      and\n      dup4\n      dup1\n      add\n      or\n      dup6\n      sstore\n      jump(tag_84)\n    tag_86:\n      dup3\n      dup1\n      add\n      0x01\n      add\n      dup6\n      sstore\n      dup3\n      iszero\n      tag_84\n      jumpi\n      swap2\n      dup3\n      add\n    tag_87:\n      dup3\n      dup2\n      gt\n      iszero\n      tag_88\n      jumpi\n      dup3\n      mload\n      dup3\n      sstore\n      swap2\n      0x20\n      add\n      swap2\n      swap1\n      0x01\n      add\n      swap1\n      jump(tag_87)\n    tag_88:\n    tag_84:\n      pop\n      swap1\n      pop\n      tag_89\n      swap2\n      swap1\n      tag_90\n      jump\t// in\n    tag_89:\n      pop\n      swap1\n      jump\t// out\n    tag_90:\n    tag_91:\n      dup1\n      dup3\n      gt\n      iszero\n      tag_92\n      jumpi\n      0x00\n      dup2\n      0x00\n      swap1\n      sstore\n      pop\n      0x01\n      add\n      jump(tag_91)\n    tag_92:\n      pop\n      swap1\n      jump\t// out\n        /* \"#utility.yul\":7:419   */\n    tag_94:\n        /* \"#utility.yul\":85:90   */\n      0x00\n        /* \"#utility.yul\":110:176   */\n      tag_96\n        /* \"#utility.yul\":126:175   */\n      tag_97\n        /* \"#utility.yul\":168:174   */\n      dup5\n        /* \"#utility.yul\":126:175   */\n      tag_98\n      jump\t// in\n    tag_97:\n        /* \"#utility.yul\":110:176   */\n      tag_99\n      jump\t// in\n    tag_96:\n        /* \"#utility.yul\":101:176   */\n      swap1\n      pop\n        /* \"#utility.yul\":199:205   */\n      dup3\n        /* \"#utility.yul\":192:197   */\n      dup2\n        /* \"#utility.yul\":185:206   */\n      mstore\n        /* \"#utility.yul\":237:241   */\n      0x20\n        /* \"#utility.yul\":230:235   */\n      dup2\n        /* \"#utility.yul\":226:242   */\n      add\n        /* \"#utility.yul\":275:278   */\n      dup5\n        /* \"#utility.yul\":266:272   */\n      dup5\n        /* \"#utility.yul\":261:264   */\n      dup5\n        /* \"#utility.yul\":257:273   */\n      add\n        /* \"#utility.yul\":254:279   */\n      gt\n        /* \"#utility.yul\":251:363   */\n      iszero\n      tag_100\n      jumpi\n        /* \"#utility.yul\":282:361   */\n      tag_101\n      tag_102\n      jump\t// in\n    tag_101:\n        /* \"#utility.yul\":251:363   */\n    tag_100:\n        /* \"#utility.yul\":372:413   */\n      tag_103\n        /* \"#utility.yul\":406:412   */\n      dup5\n        /* \"#utility.yul\":401:404   */\n      dup3\n        /* \"#utility.yul\":396:399   */\n      dup6\n        /* \"#utility.yul\":372:413   */\n      tag_104\n      jump\t// in\n    tag_103:\n        /* \"#utility.yul\":91:419   */\n      pop\n        /* \"#utility.yul\":7:419   */\n      swap4\n      swap3\n      pop\n      pop\n      pop\n      jump\t// out\n        /* \"#utility.yul\":425:564   */\n    tag_105:\n        /* \"#utility.yul\":471:476   */\n      0x00\n        /* \"#utility.yul\":509:515   */\n      dup2\n        /* \"#utility.yul\":496:516   */\n      calldataload\n        /* \"#utility.yul\":487:516   */\n      swap1\n      pop\n        /* \"#utility.yul\":525:558   */\n      tag_107\n        /* \"#utility.yul\":552:557   */\n      dup2\n        /* \"#utility.yul\":525:558   */\n      tag_108\n      jump\t// in\n    tag_107:\n        /* \"#utility.yul\":425:564   */\n      swap3\n      swap2\n      pop\n      pop\n      jump\t// out\n        /* \"#utility.yul\":584:924   */\n    tag_109:\n        /* \"#utility.yul\":640:645   */\n      0x00\n        /* \"#utility.yul\":689:692   */\n      dup3\n        /* \"#utility.yul\":682:686   */\n      0x1f\n        /* \"#utility.yul\":674:680   */\n      dup4\n        /* \"#utility.yul\":670:687   */\n      add\n        /* \"#utility.yul\":666:693   */\n      slt\n        /* \"#utility.yul\":656:778   */\n      tag_111\n      jumpi\n        /* \"#utility.yul\":697:776   */\n      tag_112\n      tag_113\n      jump\t// in\n    tag_112:\n        /* \"#utility.yul\":656:778   */\n    tag_111:\n        /* \"#utility.yul\":814:820   */\n      dup2\n        /* \"#utility.yul\":801:821   */\n      calldataload\n        /* \"#utility.yul\":839:918   */\n      tag_114\n        /* \"#utility.yul\":914:917   */\n      dup5\n        /* \"#utility.yul\":906:912   */\n      dup3\n        /* \"#utility.yul\":899:903   */\n      0x20\n        /* \"#utility.yul\":891:897   */\n      dup7\n        /* \"#utility.yul\":887:904   */\n      add\n        /* \"#utility.yul\":839:918   */\n      tag_94\n      jump\t// in\n    tag_114:\n        /* \"#utility.yul\":830:918   */\n      swap2\n      pop\n        /* \"#utility.yul\":646:924   */\n      pop\n        /* \"#utility.yul\":584:924   */\n      swap3\n      swap2\n      pop\n      pop\n      jump\t// out\n        /* \"#utility.yul\":930:1069   */\n    tag_115:\n        /* \"#utility.yul\":976:981   */\n      0x00\n        /* \"#utility.yul\":1014:1020   */\n      dup2\n        /* \"#utility.yul\":1001:1021   */\n      calldataload\n        /* \"#utility.yul\":992:1021   */\n      swap1\n      pop\n        /* \"#utility.yul\":1030:1063   */\n      tag_117\n        /* \"#utility.yul\":1057:1062   */\n      dup2\n        /* \"#utility.yul\":1030:1063   */\n      tag_118\n      jump\t// in\n    tag_117:\n        /* \"#utility.yul\":930:1069   */\n      swap3\n      swap2\n      pop\n      pop\n      jump\t// out\n        /* \"#utility.yul\":1075:1404   */\n    tag_34:\n        /* \"#utility.yul\":1134:1140   */\n      0x00\n        /* \"#utility.yul\":1183:1185   */\n      0x20\n        /* \"#utility.yul\":1171:1180   */\n      dup3\n        /* \"#utility.yul\":1162:1169   */\n      dup5\n        /* \"#utility.yul\":1158:1181   */\n      sub\n        /* \"#utility.yul\":1154:1186   */\n      slt\n        /* \"#utility.yul\":1151:1270   */\n      iszero\n      tag_120\n      jumpi\n        /* \"#utility.yul\":1189:1268   */\n      tag_121\n      tag_122\n      jump\t// in\n    tag_121:\n        /* \"#utility.yul\":1151:1270   */\n    tag_120:\n        /* \"#utility.yul\":1309:1310   */\n      0x00\n        /* \"#utility.yul\":1334:1387   */\n      tag_123\n        /* \"#utility.yul\":1379:1386   */\n      dup5\n        /* \"#utility.yul\":1370:1376   */\n      dup3\n        /* \"#utility.yul\":1359:1368   */\n      dup6\n        /* \"#utility.yul\":1355:1377   */\n      add\n        /* \"#utility.yul\":1334:1387   */\n      tag_105\n      jump\t// in\n    tag_123:\n        /* \"#utility.yul\":1324:1387   */\n      swap2\n      pop\n        /* \"#utility.yul\":1280:1397   */\n      pop\n        /* \"#utility.yul\":1075:1404   */\n      swap3\n      swap2\n      pop\n      pop\n      jump\t// out\n        /* \"#utility.yul\":1410:2064   */\n    tag_24:\n        /* \"#utility.yul\":1488:1494   */\n      0x00\n        /* \"#utility.yul\":1496:1502   */\n      dup1\n        /* \"#utility.yul\":1545:1547   */\n      0x40\n        /* \"#utility.yul\":1533:1542   */\n      dup4\n        /* \"#utility.yul\":1524:1531   */\n      dup6\n        /* \"#utility.yul\":1520:1543   */\n      sub\n        /* \"#utility.yul\":1516:1548   */\n      slt\n        /* \"#utility.yul\":1513:1632   */\n      iszero\n      tag_125\n      jumpi\n        /* \"#utility.yul\":1551:1630   */\n      tag_126\n      tag_122\n      jump\t// in\n    tag_126:\n        /* \"#utility.yul\":1513:1632   */\n    tag_125:\n        /* \"#utility.yul\":1671:1672   */\n      0x00\n        /* \"#utility.yul\":1696:1749   */\n      tag_127\n        /* \"#utility.yul\":1741:1748   */\n      dup6\n        /* \"#utility.yul\":1732:1738   */\n      dup3\n        /* \"#utility.yul\":1721:1730   */\n      dup7\n        /* \"#utility.yul\":1717:1739   */\n      add\n        /* \"#utility.yul\":1696:1749   */\n      tag_105\n      jump\t// in\n    tag_127:\n        /* \"#utility.yul\":1686:1749   */\n      swap3\n      pop\n        /* \"#utility.yul\":1642:1759   */\n      pop\n        /* \"#utility.yul\":1826:1828   */\n      0x20\n        /* \"#utility.yul\":1815:1824   */\n      dup4\n        /* \"#utility.yul\":1811:1829   */\n      add\n        /* \"#utility.yul\":1798:1830   */\n      calldataload\n        /* \"#utility.yul\":1857:1875   */\n      0xffffffffffffffff\n        /* \"#utility.yul\":1849:1855   */\n      dup2\n        /* \"#utility.yul\":1846:1876   */\n      gt\n        /* \"#utility.yul\":1843:1960   */\n      iszero\n      tag_128\n      jumpi\n        /* \"#utility.yul\":1879:1958   */\n      tag_129\n      tag_130\n      jump\t// in\n    tag_129:\n        /* \"#utility.yul\":1843:1960   */\n    tag_128:\n        /* \"#utility.yul\":1984:2047   */\n      tag_131\n        /* \"#utility.yul\":2039:2046   */\n      dup6\n        /* \"#utility.yul\":2030:2036   */\n      dup3\n        /* \"#utility.yul\":2019:2028   */\n      dup7\n        /* \"#utility.yul\":2015:2037   */\n      add\n        /* \"#utility.yul\":1984:2047   */\n      tag_109\n      jump\t// in\n    tag_131:\n        /* \"#utility.yul\":1974:2047   */\n      swap2\n      pop\n        /* \"#utility.yul\":1769:2057   */\n      pop\n        /* \"#utility.yul\":1410:2064   */\n      swap3\n      pop\n      swap3\n      swap1\n      pop\n      jump\t// out\n        /* \"#utility.yul\":2070:2579   */\n    tag_41:\n        /* \"#utility.yul\":2139:2145   */\n      0x00\n        /* \"#utility.yul\":2188:2190   */\n      0x20\n        /* \"#utility.yul\":2176:2185   */\n      dup3\n        /* \"#utility.yul\":2167:2174   */\n      dup5\n        /* \"#utility.yul\":2163:2186   */\n      sub\n        /* \"#utility.yul\":2159:2191   */\n      slt\n        /* \"#utility.yul\":2156:2275   */\n      iszero\n      tag_133\n      jumpi\n        /* \"#utility.yul\":2194:2273   */\n      tag_134\n      tag_122\n      jump\t// in\n    tag_134:\n        /* \"#utility.yul\":2156:2275   */\n    tag_133:\n        /* \"#utility.yul\":2342:2343   */\n      0x00\n        /* \"#utility.yul\":2331:2340   */\n      dup3\n        /* \"#utility.yul\":2327:2344   */\n      add\n        /* \"#utility.yul\":2314:2345   */\n      calldataload\n        /* \"#utility.yul\":2372:2390   */\n      0xffffffffffffffff\n        /* \"#utility.yul\":2364:2370   */\n      dup2\n        /* \"#utility.yul\":2361:2391   */\n      gt\n        /* \"#utility.yul\":2358:2475   */\n      iszero\n      tag_135\n      jumpi\n        /* \"#utility.yul\":2394:2473   */\n      tag_136\n      tag_130\n      jump\t// in\n    tag_136:\n        /* \"#utility.yul\":2358:2475   */\n    tag_135:\n        /* \"#utility.yul\":2499:2562   */\n      tag_137\n        /* \"#utility.yul\":2554:2561   */\n      dup5\n        /* \"#utility.yul\":2545:2551   */\n      dup3\n        /* \"#utility.yul\":2534:2543   */\n      dup6\n        /* \"#utility.yul\":2530:2552   */\n      add\n        /* \"#utility.yul\":2499:2562   */\n      tag_109\n      jump\t// in\n    tag_137:\n        /* \"#utility.yul\":2489:2562   */\n      swap2\n      pop\n        /* \"#utility.yul\":2285:2572   */\n      pop\n        /* \"#utility.yul\":2070:2579   */\n      swap3\n      swap2\n      pop\n      pop\n      jump\t// out\n        /* \"#utility.yul\":2585:3239   */\n    tag_19:\n        /* \"#utility.yul\":2663:2669   */\n      0x00\n        /* \"#utility.yul\":2671:2677   */\n      dup1\n        /* \"#utility.yul\":2720:2722   */\n      0x40\n        /* \"#utility.yul\":2708:2717   */\n      dup4\n        /* \"#utility.yul\":2699:2706   */\n      dup6\n        /* \"#utility.yul\":2695:2718   */\n      sub\n        /* \"#utility.yul\":2691:2723   */\n      slt\n        /* \"#utility.yul\":2688:2807   */\n      iszero\n      tag_139\n      jumpi\n        /* \"#utility.yul\":2726:2805   */\n      tag_140\n      tag_122\n      jump\t// in\n    tag_140:\n        /* \"#utility.yul\":2688:2807   */\n    tag_139:\n        /* \"#utility.yul\":2874:2875   */\n      0x00\n        /* \"#utility.yul\":2863:2872   */\n      dup4\n        /* \"#utility.yul\":2859:2876   */\n      add\n        /* \"#utility.yul\":2846:2877   */\n      calldataload\n        /* \"#utility.yul\":2904:2922   */\n      0xffffffffffffffff\n        /* \"#utility.yul\":2896:2902   */\n      dup2\n        /* \"#utility.yul\":2893:2923   */\n      gt\n        /* \"#utility.yul\":2890:3007   */\n      iszero\n      tag_141\n      jumpi\n        /* \"#utility.yul\":2926:3005   */\n      tag_142\n      tag_130\n      jump\t// in\n    tag_142:\n        /* \"#utility.yul\":2890:3007   */\n    tag_141:\n        /* \"#utility.yul\":3031:3094   */\n      tag_143\n        /* \"#utility.yul\":3086:3093   */\n      dup6\n        /* \"#utility.yul\":3077:3083   */\n      dup3\n        /* \"#utility.yul\":3066:3075   */\n      dup7\n        /* \"#utility.yul\":3062:3084   */\n      add\n        /* \"#utility.yul\":3031:3094   */\n      tag_109\n      jump\t// in\n    tag_143:\n        /* \"#utility.yul\":3021:3094   */\n      swap3\n      pop\n        /* \"#utility.yul\":2817:3104   */\n      pop\n        /* \"#utility.yul\":3143:3145   */\n      0x20\n        /* \"#utility.yul\":3169:3222   */\n      tag_144\n        /* \"#utility.yul\":3214:3221   */\n      dup6\n        /* \"#utility.yul\":3205:3211   */\n      dup3\n        /* \"#utility.yul\":3194:3203   */\n      dup7\n        /* \"#utility.yul\":3190:3212   */\n      add\n        /* \"#utility.yul\":3169:3222   */\n      tag_115\n      jump\t// in\n    tag_144:\n        /* \"#utility.yul\":3159:3222   */\n      swap2\n      pop\n        /* \"#utility.yul\":3114:3232   */\n      pop\n        /* \"#utility.yul\":2585:3239   */\n      swap3\n      pop\n      swap3\n      swap1\n      pop\n      jump\t// out\n        /* \"#utility.yul\":3245:3392   */\n    tag_145:\n        /* \"#utility.yul\":3340:3385   */\n      tag_147\n        /* \"#utility.yul\":3379:3384   */\n      dup2\n        /* \"#utility.yul\":3340:3385   */\n      tag_148\n      jump\t// in\n    tag_147:\n        /* \"#utility.yul\":3335:3338   */\n      dup3\n        /* \"#utility.yul\":3328:3386   */\n      mstore\n        /* \"#utility.yul\":3245:3392   */\n      pop\n      pop\n      jump\t// out\n        /* \"#utility.yul\":3398:3762   */\n    tag_149:\n        /* \"#utility.yul\":3486:3489   */\n      0x00\n        /* \"#utility.yul\":3514:3553   */\n      tag_151\n        /* \"#utility.yul\":3547:3552   */\n      dup3\n        /* \"#utility.yul\":3514:3553   */\n      tag_152\n      jump\t// in\n    tag_151:\n        /* \"#utility.yul\":3569:3640   */\n      tag_153\n        /* \"#utility.yul\":3633:3639   */\n      dup2\n        /* \"#utility.yul\":3628:3631   */\n      dup6\n        /* \"#utility.yul\":3569:3640   */\n      tag_154\n      jump\t// in\n    tag_153:\n        /* \"#utility.yul\":3562:3640   */\n      swap4\n      pop\n        /* \"#utility.yul\":3649:3701   */\n      tag_155\n        /* \"#utility.yul\":3694:3700   */\n      dup2\n        /* \"#utility.yul\":3689:3692   */\n      dup6\n        /* \"#utility.yul\":3682:3686   */\n      0x20\n        /* \"#utility.yul\":3675:3680   */\n      dup7\n        /* \"#utility.yul\":3671:3687   */\n      add\n        /* \"#utility.yul\":3649:3701   */\n      tag_156\n      jump\t// in\n    tag_155:\n        /* \"#utility.yul\":3726:3755   */\n      tag_157\n        /* \"#utility.yul\":3748:3754   */\n      dup2\n        /* \"#utility.yul\":3726:3755   */\n      tag_158\n      jump\t// in\n    tag_157:\n        /* \"#utility.yul\":3721:3724   */\n      dup5\n        /* \"#utility.yul\":3717:3756   */\n      add\n        /* \"#utility.yul\":3710:3756   */\n      swap2\n      pop\n        /* \"#utility.yul\":3490:3762   */\n      pop\n        /* \"#utility.yul\":3398:3762   */\n      swap3\n      swap2\n      pop\n      pop\n      jump\t// out\n        /* \"#utility.yul\":3768:4145   */\n    tag_159:\n        /* \"#utility.yul\":3874:3877   */\n      0x00\n        /* \"#utility.yul\":3902:3941   */\n      tag_161\n        /* \"#utility.yul\":3935:3940   */\n      dup3\n        /* \"#utility.yul\":3902:3941   */\n      tag_152\n      jump\t// in\n    tag_161:\n        /* \"#utility.yul\":3957:4046   */\n      tag_162\n        /* \"#utility.yul\":4039:4045   */\n      dup2\n        /* \"#utility.yul\":4034:4037   */\n      dup6\n        /* \"#utility.yul\":3957:4046   */\n      tag_163\n      jump\t// in\n    tag_162:\n        /* \"#utility.yul\":3950:4046   */\n      swap4\n      pop\n        /* \"#utility.yul\":4055:4107   */\n      tag_164\n        /* \"#utility.yul\":4100:4106   */\n      dup2\n        /* \"#utility.yul\":4095:4098   */\n      dup6\n        /* \"#utility.yul\":4088:4092   */\n      0x20\n        /* \"#utility.yul\":4081:4086   */\n      dup7\n        /* \"#utility.yul\":4077:4093   */\n      add\n        /* \"#utility.yul\":4055:4107   */\n      tag_156\n      jump\t// in\n    tag_164:\n        /* \"#utility.yul\":4132:4138   */\n      dup1\n        /* \"#utility.yul\":4127:4130   */\n      dup5\n        /* \"#utility.yul\":4123:4139   */\n      add\n        /* \"#utility.yul\":4116:4139   */\n      swap2\n      pop\n        /* \"#utility.yul\":3878:4145   */\n      pop\n        /* \"#utility.yul\":3768:4145   */\n      swap3\n      swap2\n      pop\n      pop\n      jump\t// out\n        /* \"#utility.yul\":4151:4269   */\n    tag_165:\n        /* \"#utility.yul\":4238:4262   */\n      tag_167\n        /* \"#utility.yul\":4256:4261   */\n      dup2\n        /* \"#utility.yul\":4238:4262   */\n      tag_168\n      jump\t// in\n    tag_167:\n        /* \"#utility.yul\":4233:4236   */\n      dup3\n        /* \"#utility.yul\":4226:4263   */\n      mstore\n        /* \"#utility.yul\":4151:4269   */\n      pop\n      pop\n      jump\t// out\n        /* \"#utility.yul\":4275:4550   */\n    tag_64:\n        /* \"#utility.yul\":4407:4410   */\n      0x00\n        /* \"#utility.yul\":4429:4524   */\n      tag_170\n        /* \"#utility.yul\":4520:4523   */\n      dup3\n        /* \"#utility.yul\":4511:4517   */\n      dup5\n        /* \"#utility.yul\":4429:4524   */\n      tag_159\n      jump\t// in\n    tag_170:\n        /* \"#utility.yul\":4422:4524   */\n      swap2\n      pop\n        /* \"#utility.yul\":4541:4544   */\n      dup2\n        /* \"#utility.yul\":4534:4544   */\n      swap1\n      pop\n        /* \"#utility.yul\":4275:4550   */\n      swap3\n      swap2\n      pop\n      pop\n      jump\t// out\n        /* \"#utility.yul\":4556:4794   */\n    tag_30:\n        /* \"#utility.yul\":4657:4661   */\n      0x00\n        /* \"#utility.yul\":4695:4697   */\n      0x20\n        /* \"#utility.yul\":4684:4693   */\n      dup3\n        /* \"#utility.yul\":4680:4698   */\n      add\n        /* \"#utility.yul\":4672:4698   */\n      swap1\n      pop\n        /* \"#utility.yul\":4708:4787   */\n      tag_172\n        /* \"#utility.yul\":4784:4785   */\n      0x00\n        /* \"#utility.yul\":4773:4782   */\n      dup4\n        /* \"#utility.yul\":4769:4786   */\n      add\n        /* \"#utility.yul\":4760:4766   */\n      dup5\n        /* \"#utility.yul\":4708:4787   */\n      tag_145\n      jump\t// in\n    tag_172:\n        /* \"#utility.yul\":4556:4794   */\n      swap3\n      swap2\n      pop\n      pop\n      jump\t// out\n        /* \"#utility.yul\":4800:5113   */\n    tag_37:\n        /* \"#utility.yul\":4913:4917   */\n      0x00\n        /* \"#utility.yul\":4951:4953   */\n      0x20\n        /* \"#utility.yul\":4940:4949   */\n      dup3\n        /* \"#utility.yul\":4936:4954   */\n      add\n        /* \"#utility.yul\":4928:4954   */\n      swap1\n      pop\n        /* \"#utility.yul\":5000:5009   */\n      dup2\n        /* \"#utility.yul\":4994:4998   */\n      dup2\n        /* \"#utility.yul\":4990:5010   */\n      sub\n        /* \"#utility.yul\":4986:4987   */\n      0x00\n        /* \"#utility.yul\":4975:4984   */\n      dup4\n        /* \"#utility.yul\":4971:4988   */\n      add\n        /* \"#utility.yul\":4964:5011   */\n      mstore\n        /* \"#utility.yul\":5028:5106   */\n      tag_174\n        /* \"#utility.yul\":5101:5105   */\n      dup2\n        /* \"#utility.yul\":5092:5098   */\n      dup5\n        /* \"#utility.yul\":5028:5106   */\n      tag_149\n      jump\t// in\n    tag_174:\n        /* \"#utility.yul\":5020:5106   */\n      swap1\n      pop\n        /* \"#utility.yul\":4800:5113   */\n      swap3\n      swap2\n      pop\n      pop\n      jump\t// out\n        /* \"#utility.yul\":5119:5341   */\n    tag_44:\n        /* \"#utility.yul\":5212:5216   */\n      0x00\n        /* \"#utility.yul\":5250:5252   */\n      0x20\n        /* \"#utility.yul\":5239:5248   */\n      dup3\n        /* \"#utility.yul\":5235:5253   */\n      add\n        /* \"#utility.yul\":5227:5253   */\n      swap1\n      pop\n        /* \"#utility.yul\":5263:5334   */\n      tag_176\n        /* \"#utility.yul\":5331:5332   */\n      0x00\n        /* \"#utility.yul\":5320:5329   */\n      dup4\n        /* \"#utility.yul\":5316:5333   */\n      add\n        /* \"#utility.yul\":5307:5313   */\n      dup5\n        /* \"#utility.yul\":5263:5334   */\n      tag_165\n      jump\t// in\n    tag_176:\n        /* \"#utility.yul\":5119:5341   */\n      swap3\n      swap2\n      pop\n      pop\n      jump\t// out\n        /* \"#utility.yul\":5347:5476   */\n    tag_99:\n        /* \"#utility.yul\":5381:5387   */\n      0x00\n        /* \"#utility.yul\":5408:5428   */\n      tag_178\n      tag_179\n      jump\t// in\n    tag_178:\n        /* \"#utility.yul\":5398:5428   */\n      swap1\n      pop\n        /* \"#utility.yul\":5437:5470   */\n      tag_180\n        /* \"#utility.yul\":5465:5469   */\n      dup3\n        /* \"#utility.yul\":5457:5463   */\n      dup3\n        /* \"#utility.yul\":5437:5470   */\n      tag_181\n      jump\t// in\n    tag_180:\n        /* \"#utility.yul\":5347:5476   */\n      swap2\n      swap1\n      pop\n      jump\t// out\n        /* \"#utility.yul\":5482:5557   */\n    tag_179:\n        /* \"#utility.yul\":5515:5521   */\n      0x00\n        /* \"#utility.yul\":5548:5550   */\n      0x40\n        /* \"#utility.yul\":5542:5551   */\n      mload\n        /* \"#utility.yul\":5532:5551   */\n      swap1\n      pop\n        /* \"#utility.yul\":5482:5557   */\n      swap1\n      jump\t// out\n        /* \"#utility.yul\":5563:5871   */\n    tag_98:\n        /* \"#utility.yul\":5625:5629   */\n      0x00\n        /* \"#utility.yul\":5715:5733   */\n      0xffffffffffffffff\n        /* \"#utility.yul\":5707:5713   */\n      dup3\n        /* \"#utility.yul\":5704:5734   */\n      gt\n        /* \"#utility.yul\":5701:5757   */\n      iszero\n      tag_184\n      jumpi\n        /* \"#utility.yul\":5737:5755   */\n      tag_185\n      tag_186\n      jump\t// in\n    tag_185:\n        /* \"#utility.yul\":5701:5757   */\n    tag_184:\n        /* \"#utility.yul\":5775:5804   */\n      tag_187\n        /* \"#utility.yul\":5797:5803   */\n      dup3\n        /* \"#utility.yul\":5775:5804   */\n      tag_158\n      jump\t// in\n    tag_187:\n        /* \"#utility.yul\":5767:5804   */\n      swap1\n      pop\n        /* \"#utility.yul\":5859:5863   */\n      0x20\n        /* \"#utility.yul\":5853:5857   */\n      dup2\n        /* \"#utility.yul\":5849:5864   */\n      add\n        /* \"#utility.yul\":5841:5864   */\n      swap1\n      pop\n        /* \"#utility.yul\":5563:5871   */\n      swap2\n      swap1\n      pop\n      jump\t// out\n        /* \"#utility.yul\":5877:5976   */\n    tag_152:\n        /* \"#utility.yul\":5929:5935   */\n      0x00\n        /* \"#utility.yul\":5963:5968   */\n      dup2\n        /* \"#utility.yul\":5957:5969   */\n      mload\n        /* \"#utility.yul\":5947:5969   */\n      swap1\n      pop\n        /* \"#utility.yul\":5877:5976   */\n      swap2\n      swap1\n      pop\n      jump\t// out\n        /* \"#utility.yul\":5982:6151   */\n    tag_154:\n        /* \"#utility.yul\":6066:6077   */\n      0x00\n        /* \"#utility.yul\":6100:6106   */\n      dup3\n        /* \"#utility.yul\":6095:6098   */\n      dup3\n        /* \"#utility.yul\":6088:6107   */\n      mstore\n        /* \"#utility.yul\":6140:6144   */\n      0x20\n        /* \"#utility.yul\":6135:6138   */\n      dup3\n        /* \"#utility.yul\":6131:6145   */\n      add\n        /* \"#utility.yul\":6116:6145   */\n      swap1\n      pop\n        /* \"#utility.yul\":5982:6151   */\n      swap3\n      swap2\n      pop\n      pop\n      jump\t// out\n        /* \"#utility.yul\":6157:6305   */\n    tag_163:\n        /* \"#utility.yul\":6259:6270   */\n      0x00\n        /* \"#utility.yul\":6296:6299   */\n      dup2\n        /* \"#utility.yul\":6281:6299   */\n      swap1\n      pop\n        /* \"#utility.yul\":6157:6305   */\n      swap3\n      swap2\n      pop\n      pop\n      jump\t// out\n        /* \"#utility.yul\":6311:6616   */\n    tag_79:\n        /* \"#utility.yul\":6351:6354   */\n      0x00\n        /* \"#utility.yul\":6370:6390   */\n      tag_192\n        /* \"#utility.yul\":6388:6389   */\n      dup3\n        /* \"#utility.yul\":6370:6390   */\n      tag_168\n      jump\t// in\n    tag_192:\n        /* \"#utility.yul\":6365:6390   */\n      swap2\n      pop\n        /* \"#utility.yul\":6404:6424   */\n      tag_193\n        /* \"#utility.yul\":6422:6423   */\n      dup4\n        /* \"#utility.yul\":6404:6424   */\n      tag_168\n      jump\t// in\n    tag_193:\n        /* \"#utility.yul\":6399:6424   */\n      swap3\n      pop\n        /* \"#utility.yul\":6558:6559   */\n      dup3\n        /* \"#utility.yul\":6490:6556   */\n      0xffffffffffffffffffffffffffffffffffffffffffffffffffffffffffffffff\n        /* \"#utility.yul\":6486:6560   */\n      sub\n        /* \"#utility.yul\":6483:6484   */\n      dup3\n        /* \"#utility.yul\":6480:6561   */\n      gt\n        /* \"#utility.yul\":6477:6584   */\n      iszero\n      tag_194\n      jumpi\n        /* \"#utility.yul\":6564:6582   */\n      tag_195\n      tag_196\n      jump\t// in\n    tag_195:\n        /* \"#utility.yul\":6477:6584   */\n    tag_194:\n        /* \"#utility.yul\":6608:6609   */\n      dup3\n        /* \"#utility.yul\":6605:6606   */\n      dup3\n        /* \"#utility.yul\":6601:6610   */\n      add\n        /* \"#utility.yul\":6594:6610   */\n      swap1\n      pop\n        /* \"#utility.yul\":6311:6616   */\n      swap3\n      swap2\n      pop\n      pop\n      jump\t// out\n        /* \"#utility.yul\":6622:6718   */\n    tag_197:\n        /* \"#utility.yul\":6659:6666   */\n      0x00\n        /* \"#utility.yul\":6688:6712   */\n      tag_199\n        /* \"#utility.yul\":6706:6711   */\n      dup3\n        /* \"#utility.yul\":6688:6712   */\n      tag_200\n      jump\t// in\n    tag_199:\n        /* \"#utility.yul\":6677:6712   */\n      swap1\n      pop\n        /* \"#utility.yul\":6622:6718   */\n      swap2\n      swap1\n      pop\n      jump\t// out\n        /* \"#utility.yul\":6724:6855   */\n    tag_201:\n        /* \"#utility.yul\":6771:6778   */\n      0x00\n        /* \"#utility.yul\":6800:6805   */\n      dup2\n        /* \"#utility.yul\":6789:6805   */\n      swap1\n      pop\n        /* \"#utility.yul\":6806:6849   */\n      tag_203\n        /* \"#utility.yul\":6843:6848   */\n      dup3\n        /* \"#utility.yul\":6806:6849   */\n      tag_204\n      jump\t// in\n    tag_203:\n        /* \"#utility.yul\":6724:6855   */\n      swap2\n      swap1\n      pop\n      jump\t// out\n        /* \"#utility.yul\":6861:6987   */\n    tag_200:\n        /* \"#utility.yul\":6898:6905   */\n      0x00\n        /* \"#utility.yul\":6938:6980   */\n      0xffffffffffffffffffffffffffffffffffffffff\n        /* \"#utility.yul\":6931:6936   */\n      dup3\n        /* \"#utility.yul\":6927:6981   */\n      and\n        /* \"#utility.yul\":6916:6981   */\n      swap1\n      pop\n        /* \"#utility.yul\":6861:6987   */\n      swap2\n      swap1\n      pop\n      jump\t// out\n        /* \"#utility.yul\":6993:7070   */\n    tag_168:\n        /* \"#utility.yul\":7030:7037   */\n      0x00\n        /* \"#utility.yul\":7059:7064   */\n      dup2\n        /* \"#utility.yul\":7048:7064   */\n      swap1\n      pop\n        /* \"#utility.yul\":6993:7070   */\n      swap2\n      swap1\n      pop\n      jump\t// out\n        /* \"#utility.yul\":7076:7207   */\n    tag_148:\n        /* \"#utility.yul\":7134:7143   */\n      0x00\n        /* \"#utility.yul\":7167:7201   */\n      tag_208\n        /* \"#utility.yul\":7195:7200   */\n      dup3\n        /* \"#utility.yul\":7167:7201   */\n      tag_201\n      jump\t// in\n    tag_208:\n        /* \"#utility.yul\":7154:7201   */\n      swap1\n      pop\n        /* \"#utility.yul\":7076:7207   */\n      swap2\n      swap1\n      pop\n      jump\t// out\n        /* \"#utility.yul\":7213:7367   */\n    tag_104:\n        /* \"#utility.yul\":7297:7303   */\n      dup3\n        /* \"#utility.yul\":7292:7295   */\n      dup2\n        /* \"#utility.yul\":7287:7290   */\n      dup4\n        /* \"#utility.yul\":7274:7304   */\n      calldatacopy\n        /* \"#utility.yul\":7359:7360   */\n      0x00\n        /* \"#utility.yul\":7350:7356   */\n      dup4\n        /* \"#utility.yul\":7345:7348   */\n      dup4\n        /* \"#utility.yul\":7341:7357   */\n      add\n        /* \"#utility.yul\":7334:7361   */\n      mstore\n        /* \"#utility.yul\":7213:7367   */\n      pop\n      pop\n      pop\n      jump\t// out\n        /* \"#utility.yul\":7373:7680   */\n    tag_156:\n        /* \"#utility.yul\":7441:7442   */\n      0x00\n        /* \"#utility.yul\":7451:7564   */\n    tag_211:\n        /* \"#utility.yul\":7465:7471   */\n      dup4\n        /* \"#utility.yul\":7462:7463   */\n      dup2\n        /* \"#utility.yul\":7459:7472   */\n      lt\n        /* \"#utility.yul\":7451:7564   */\n      iszero\n      tag_213\n      jumpi\n        /* \"#utility.yul\":7550:7551   */\n      dup1\n        /* \"#utility.yul\":7545:7548   */\n      dup3\n        /* \"#utility.yul\":7541:7552   */\n      add\n        /* \"#utility.yul\":7535:7553   */\n      mload\n        /* \"#utility.yul\":7531:7532   */\n      dup2\n        /* \"#utility.yul\":7526:7529   */\n      dup5\n        /* \"#utility.yul\":7522:7533   */\n      add\n        /* \"#utility.yul\":7515:7554   */\n      mstore\n        /* \"#utility.yul\":7487:7489   */\n      0x20\n        /* \"#utility.yul\":7484:7485   */\n      dup2\n        /* \"#utility.yul\":7480:7490   */\n      add\n        /* \"#utility.yul\":7475:7490   */\n      swap1\n      pop\n        /* \"#utility.yul\":7451:7564   */\n      jump(tag_211)\n    tag_213:\n        /* \"#utility.yul\":7582:7588   */\n      dup4\n        /* \"#utility.yul\":7579:7580   */\n      dup2\n        /* \"#utility.yul\":7576:7589   */\n      gt\n        /* \"#utility.yul\":7573:7674   */\n      iszero\n      tag_214\n      jumpi\n        /* \"#utility.yul\":7662:7663   */\n      0x00\n        /* \"#utility.yul\":7653:7659   */\n      dup5\n        /* \"#utility.yul\":7648:7651   */\n      dup5\n        /* \"#utility.yul\":7644:7660   */\n      add\n        /* \"#utility.yul\":7637:7664   */\n      mstore\n        /* \"#utility.yul\":7573:7674   */\n    tag_214:\n        /* \"#utility.yul\":7422:7680   */\n      pop\n        /* \"#utility.yul\":7373:7680   */\n      pop\n      pop\n      pop\n      jump\t// out\n        /* \"#utility.yul\":7686:8006   */\n    tag_69:\n        /* \"#utility.yul\":7730:7736   */\n      0x00\n        /* \"#utility.yul\":7767:7768   */\n      0x02\n        /* \"#utility.yul\":7761:7765   */\n      dup3\n        /* \"#utility.yul\":7757:7769   */\n      div\n        /* \"#utility.yul\":7747:7769   */\n      swap1\n      pop\n        /* \"#utility.yul\":7814:7815   */\n      0x01\n        /* \"#utility.yul\":7808:7812   */\n      dup3\n        /* \"#utility.yul\":7804:7816   */\n      and\n        /* \"#utility.yul\":7835:7853   */\n      dup1\n        /* \"#utility.yul\":7825:7906   */\n      tag_216\n      jumpi\n        /* \"#utility.yul\":7891:7895   */\n      0x7f\n        /* \"#utility.yul\":7883:7889   */\n      dup3\n        /* \"#utility.yul\":7879:7896   */\n      and\n        /* \"#utility.yul\":7869:7896   */\n      swap2\n      pop\n        /* \"#utility.yul\":7825:7906   */\n    tag_216:\n        /* \"#utility.yul\":7953:7955   */\n      0x20\n        /* \"#utility.yul\":7945:7951   */\n      dup3\n        /* \"#utility.yul\":7942:7956   */\n      lt\n        /* \"#utility.yul\":7922:7940   */\n      dup2\n        /* \"#utility.yul\":7919:7957   */\n      eq\n        /* \"#utility.yul\":7916:8000   */\n      iszero\n      tag_217\n      jumpi\n        /* \"#utility.yul\":7972:7990   */\n      tag_218\n      tag_219\n      jump\t// in\n    tag_218:\n        /* \"#utility.yul\":7916:8000   */\n    tag_217:\n        /* \"#utility.yul\":7737:8006   */\n      pop\n        /* \"#utility.yul\":7686:8006   */\n      swap2\n      swap1\n      pop\n      jump\t// out\n        /* \"#utility.yul\":8012:8293   */\n    tag_181:\n        /* \"#utility.yul\":8095:8122   */\n      tag_221\n        /* \"#utility.yul\":8117:8121   */\n      dup3\n        /* \"#utility.yul\":8095:8122   */\n      tag_158\n      jump\t// in\n    tag_221:\n        /* \"#utility.yul\":8087:8093   */\n      dup2\n        /* \"#utility.yul\":8083:8123   */\n      add\n        /* \"#utility.yul\":8225:8231   */\n      dup2\n        /* \"#utility.yul\":8213:8223   */\n      dup2\n        /* \"#utility.yul\":8210:8232   */\n      lt\n        /* \"#utility.yul\":8189:8207   */\n      0xffffffffffffffff\n        /* \"#utility.yul\":8177:8187   */\n      dup3\n        /* \"#utility.yul\":8174:8208   */\n      gt\n        /* \"#utility.yul\":8171:8233   */\n      or\n        /* \"#utility.yul\":8168:8256   */\n      iszero\n      tag_222\n      jumpi\n        /* \"#utility.yul\":8236:8254   */\n      tag_223\n      tag_186\n      jump\t// in\n    tag_223:\n        /* \"#utility.yul\":8168:8256   */\n    tag_222:\n        /* \"#utility.yul\":8276:8286   */\n      dup1\n        /* \"#utility.yul\":8272:8274   */\n      0x40\n        /* \"#utility.yul\":8265:8287   */\n      mstore\n        /* \"#utility.yul\":8055:8293   */\n      pop\n        /* \"#utility.yul\":8012:8293   */\n      pop\n      pop\n      jump\t// out\n        /* \"#utility.yul\":8299:8479   */\n    tag_196:\n        /* \"#utility.yul\":8347:8424   */\n      0x4e487b7100000000000000000000000000000000000000000000000000000000\n        /* \"#utility.yul\":8344:8345   */\n      0x00\n        /* \"#utility.yul\":8337:8425   */\n      mstore\n        /* \"#utility.yul\":8444:8448   */\n      0x11\n        /* \"#utility.yul\":8441:8442   */\n      0x04\n        /* \"#utility.yul\":8434:8449   */\n      mstore\n        /* \"#utility.yul\":8468:8472   */\n      0x24\n        /* \"#utility.yul\":8465:8466   */\n      0x00\n        /* \"#utility.yul\":8458:8473   */\n      revert\n        /* \"#utility.yul\":8485:8665   */\n    tag_61:\n        /* \"#utility.yul\":8533:8610   */\n      0x4e487b7100000000000000000000000000000000000000000000000000000000\n        /* \"#utility.yul\":8530:8531   */\n      0x00\n        /* \"#utility.yul\":8523:8611   */\n      mstore\n        /* \"#utility.yul\":8630:8634   */\n      0x21\n        /* \"#utility.yul\":8627:8628   */\n      0x04\n        /* \"#utility.yul\":8620:8635   */\n      mstore\n        /* \"#utility.yul\":8654:8658   */\n      0x24\n        /* \"#utility.yul\":8651:8652   */\n      0x00\n        /* \"#utility.yul\":8644:8659   */\n      revert\n        /* \"#utility.yul\":8671:8851   */\n    tag_219:\n        /* \"#utility.yul\":8719:8796   */\n      0x4e487b7100000000000000000000000000000000000000000000000000000000\n        /* \"#utility.yul\":8716:8717   */\n      0x00\n        /* \"#utility.yul\":8709:8797   */\n      mstore\n        /* \"#utility.yul\":8816:8820   */\n      0x22\n        /* \"#utility.yul\":8813:8814   */\n      0x04\n        /* \"#utility.yul\":8806:8821   */\n      mstore\n        /* \"#utility.yul\":8840:8844   */\n      0x24\n        /* \"#utility.yul\":8837:8838   */\n      0x00\n        /* \"#utility.yul\":8830:8845   */\n      revert\n        /* \"#utility.yul\":8857:9037   */\n    tag_186:\n        /* \"#utility.yul\":8905:8982   */\n      0x4e487b7100000000000000000000000000000000000000000000000000000000\n        /* \"#utility.yul\":8902:8903   */\n      0x00\n        /* \"#utility.yul\":8895:8983   */\n      mstore\n        /* \"#utility.yul\":9002:9006   */\n      0x41\n        /* \"#utility.yul\":8999:9000   */\n      0x04\n        /* \"#utility.yul\":8992:9007   */\n      mstore\n        /* \"#utility.yul\":9026:9030   */\n      0x24\n        /* \"#utility.yul\":9023:9024   */\n      0x00\n        /* \"#utility.yul\":9016:9031   */\n      revert\n        /* \"#utility.yul\":9043:9160   */\n    tag_113:\n        /* \"#utility.yul\":9152:9153   */\n      0x00\n        /* \"#utility.yul\":9149:9150   */\n      dup1\n        /* \"#utility.yul\":9142:9154   */\n      revert\n        /* \"#utility.yul\":9166:9283   */\n    tag_102:\n        /* \"#utility.yul\":9275:9276   */\n      0x00\n        /* \"#utility.yul\":9272:9273   */\n      dup1\n        /* \"#utility.yul\":9265:9277   */\n      revert\n        /* \"#utility.yul\":9289:9406   */\n    tag_130:\n        /* \"#utility.yul\":9398:9399   */\n      0x00\n        /* \"#utility.yul\":9395:9396   */\n      dup1\n        /* \"#utility.yul\":9388:9400   */\n      revert\n        /* \"#utility.yul\":9412:9529   */\n    tag_122:\n        /* \"#utility.yul\":9521:9522   */\n      0x00\n        /* \"#utility.yul\":9518:9519   */\n      dup1\n        /* \"#utility.yul\":9511:9523   */\n      revert\n        /* \"#utility.yul\":9535:9637   */\n    tag_158:\n        /* \"#utility.yul\":9576:9582   */\n      0x00\n        /* \"#utility.yul\":9627:9629   */\n      0x1f\n        /* \"#utility.yul\":9623:9630   */\n      not\n        /* \"#utility.yul\":9618:9620   */\n      0x1f\n        /* \"#utility.yul\":9611:9616   */\n      dup4\n        /* \"#utility.yul\":9607:9621   */\n      add\n        /* \"#utility.yul\":9603:9631   */\n      and\n        /* \"#utility.yul\":9593:9631   */\n      swap1\n      pop\n        /* \"#utility.yul\":9535:9637   */\n      swap2\n      swap1\n      pop\n      jump\t// out\n        /* \"#utility.yul\":9643:9758   */\n    tag_204:\n        /* \"#utility.yul\":9726:9727   */\n      0x03\n        /* \"#utility.yul\":9719:9724   */\n      dup2\n        /* \"#utility.yul\":9716:9728   */\n      lt\n        /* \"#utility.yul\":9706:9752   */\n      tag_234\n      jumpi\n        /* \"#utility.yul\":9732:9750   */\n      tag_235\n      tag_61\n      jump\t// in\n    tag_235:\n        /* \"#utility.yul\":9706:9752   */\n    tag_234:\n        /* \"#utility.yul\":9643:9758   */\n      pop\n      jump\t// out\n        /* \"#utility.yul\":9764:9886   */\n    tag_108:\n        /* \"#utility.yul\":9837:9861   */\n      tag_237\n        /* \"#utility.yul\":9855:9860   */\n      dup2\n        /* \"#utility.yul\":9837:9861   */\n      tag_197\n      jump\t// in\n    tag_237:\n        /* \"#utility.yul\":9830:9835   */\n      dup2\n        /* \"#utility.yul\":9827:9862   */\n      eq\n        /* \"#utility.yul\":9817:9880   */\n      tag_238\n      jumpi\n        /* \"#utility.yul\":9876:9877   */\n      0x00\n        /* \"#utility.yul\":9873:9874   */\n      dup1\n        /* \"#utility.yul\":9866:9878   */\n      revert\n        /* \"#utility.yul\":9817:9880   */\n    tag_238:\n        /* \"#utility.yul\":9764:9886   */\n      pop\n      jump\t// out\n        /* \"#utility.yul\":9892:10014   */\n    tag_118:\n        /* \"#utility.yul\":9965:9989   */\n      tag_240\n        /* \"#utility.yul\":9983:9988   */\n      dup2\n        /* \"#utility.yul\":9965:9989   */\n      tag_168\n      jump\t// in\n    tag_240:\n        /* \"#utility.yul\":9958:9963   */\n      dup2\n        /* \"#utility.yul\":9955:9990   */\n      eq\n        /* \"#utility.yul\":9945:10008   */\n      tag_241\n      jumpi\n        /* \"#utility.yul\":10004:10005   */\n      0x00\n        /* \"#utility.yul\":10001:10002   */\n      dup1\n        /* \"#utility.yul\":9994:10006   */\n      revert\n        /* \"#utility.yul\":9945:10008   */\n    tag_241:\n        /* \"#utility.yul\":9892:10014   */\n      pop\n      jump\t// out\n\n    auxdata: 0xa26469706673582212201252291dae3ad055a6d50a003903842c396970d4d38927fd147487704fffca8564736f6c63430008070033\n}\n",
				"bytecode": {
					"linkReferences": {},
					"object": "608060405234801561001057600080fd5b50610b42806100206000396000f3fe6080604052600436106100915760003560e01c80636dcfe452116100595780636dcfe452146101675780636f80c7f8146101a45780638b8cfeff146101bb578063d9d65d46146101c5578063e2982c21146101dc57610091565b806307e6971b14610096578063250f050a146100ad5780633878388e146100d657806348c4e1e9146100ff5780635e5c06e21461012a575b600080fd5b3480156100a257600080fd5b506100ab610219565b005b3480156100b957600080fd5b506100d460048036038101906100cf91906106bd565b610246565b005b3480156100e257600080fd5b506100fd60048036038101906100f89190610618565b61026d565b005b34801561010b57600080fd5b506101146102c5565b60405161012191906107b8565b60405180910390f35b34801561013657600080fd5b50610151600480360381019061014c91906105eb565b6102d8565b60405161015e91906107d3565b60405180910390f35b34801561017357600080fd5b5061018e60048036038101906101899190610674565b610378565b60405161019b91906107f5565b60405180910390f35b3480156101b057600080fd5b506101b96103a6565b005b6101c36103d3565b005b3480156101d157600080fd5b506101da610469565b005b3480156101e857600080fd5b5061020360048036038101906101fe91906105eb565b610496565b60405161021091906107f5565b60405180910390f35b6000600360006101000a81548160ff0219169083600281111561023f5761023e610a18565b5b0217905550565b8060008360405161025791906107a1565b9081526020016040518091039020819055505050565b80600160008473ffffffffffffffffffffffffffffffffffffffff1673ffffffffffffffffffffffffffffffffffffffff16815260200190815260200160002090805190602001906102c09291906104ae565b505050565b600360009054906101000a900460ff1681565b600160205280600052604060002060009150905080546102f790610986565b80601f016020809104026020016040519081016040528092919081815260200182805461032390610986565b80156103705780601f1061034557610100808354040283529160200191610370565b820191906000526020600020905b81548152906001019060200180831161035357829003601f168201915b505050505081565b6000818051602081018201805184825260208301602085012081835280955050505050506000915090505481565b6002600360006101000a81548160ff021916908360028111156103cc576103cb610a18565b5b0217905550565b6000600260003373ffffffffffffffffffffffffffffffffffffffff1673ffffffffffffffffffffffffffffffffffffffff1681526020019081526020016000205490503481610423919061088d565b600260003373ffffffffffffffffffffffffffffffffffffffff1673ffffffffffffffffffffffffffffffffffffffff1681526020019081526020016000208190555050565b6001600360006101000a81548160ff0219169083600281111561048f5761048e610a18565b5b0217905550565b60026020528060005260406000206000915090505481565b8280546104ba90610986565b90600052602060002090601f0160209004810192826104dc5760008555610523565b82601f106104f557805160ff1916838001178555610523565b82800160010185558215610523579182015b82811115610522578251825591602001919060010190610507565b5b5090506105309190610534565b5090565b5b8082111561054d576000816000905550600101610535565b5090565b600061056461055f84610835565b610810565b9050828152602081018484840111156105805761057f610aaa565b5b61058b848285610944565b509392505050565b6000813590506105a281610ade565b92915050565b600082601f8301126105bd576105bc610aa5565b5b81356105cd848260208601610551565b91505092915050565b6000813590506105e581610af5565b92915050565b60006020828403121561060157610600610ab4565b5b600061060f84828501610593565b91505092915050565b6000806040838503121561062f5761062e610ab4565b5b600061063d85828601610593565b925050602083013567ffffffffffffffff81111561065e5761065d610aaf565b5b61066a858286016105a8565b9150509250929050565b60006020828403121561068a57610689610ab4565b5b600082013567ffffffffffffffff8111156106a8576106a7610aaf565b5b6106b4848285016105a8565b91505092915050565b600080604083850312156106d4576106d3610ab4565b5b600083013567ffffffffffffffff8111156106f2576106f1610aaf565b5b6106fe858286016105a8565b925050602061070f858286016105d6565b9150509250929050565b61072281610932565b82525050565b600061073382610866565b61073d8185610871565b935061074d818560208601610953565b61075681610ab9565b840191505092915050565b600061076c82610866565b6107768185610882565b9350610786818560208601610953565b80840191505092915050565b61079b81610928565b82525050565b60006107ad8284610761565b915081905092915050565b60006020820190506107cd6000830184610719565b92915050565b600060208201905081810360008301526107ed8184610728565b905092915050565b600060208201905061080a6000830184610792565b92915050565b600061081a61082b565b905061082682826109b8565b919050565b6000604051905090565b600067ffffffffffffffff8211156108505761084f610a76565b5b61085982610ab9565b9050602081019050919050565b600081519050919050565b600082825260208201905092915050565b600081905092915050565b600061089882610928565b91506108a383610928565b9250827fffffffffffffffffffffffffffffffffffffffffffffffffffffffffffffffff038211156108d8576108d76109e9565b5b828201905092915050565b60006108ee82610908565b9050919050565b600081905061090382610aca565b919050565b600073ffffffffffffffffffffffffffffffffffffffff82169050919050565b6000819050919050565b600061093d826108f5565b9050919050565b82818337600083830152505050565b60005b83811015610971578082015181840152602081019050610956565b83811115610980576000848401525b50505050565b6000600282049050600182168061099e57607f821691505b602082108114156109b2576109b1610a47565b5b50919050565b6109c182610ab9565b810181811067ffffffffffffffff821117156109e0576109df610a76565b5b80604052505050565b7f4e487b7100000000000000000000000000000000000000000000000000000000600052601160045260246000fd5b7f4e487b7100000000000000000000000000000000000000000000000000000000600052602160045260246000fd5b7f4e487b7100000000000000000000000000000000000000000000000000000000600052602260045260246000fd5b7f4e487b7100000000000000000000000000000000000000000000000000000000600052604160045260246000fd5b600080fd5b600080fd5b600080fd5b600080fd5b6000601f19601f8301169050919050565b60038110610adb57610ada610a18565b5b50565b610ae7816108e3565b8114610af257600080fd5b50565b610afe81610928565b8114610b0957600080fd5b5056fea26469706673582212201252291dae3ad055a6d50a003903842c396970d4d38927fd147487704fffca8564736f6c63430008070033",
					"opcodes": "PUSH1 0x80 PUSH1 0x40 MSTORE CALLVALUE DUP1 ISZERO PUSH2 0x10 JUMPI PUSH1 0x0 DUP1 REVERT JUMPDEST POP PUSH2 0xB42 DUP1 PUSH2 0x20 PUSH1 0x0 CODECOPY PUSH1 0x0 RETURN INVALID PUSH1 0x80 PUSH1 0x40 MSTORE PUSH1 0x4 CALLDATASIZE LT PUSH2 0x91 JUMPI PUSH1 0x0 CALLDATALOAD PUSH1 0xE0 SHR DUP1 PUSH4 0x6DCFE452 GT PUSH2 0x59 JUMPI DUP1 PUSH4 0x6DCFE452 EQ PUSH2 0x167 JUMPI DUP1 PUSH4 0x6F80C7F8 EQ PUSH2 0x1A4 JUMPI DUP1 PUSH4 0x8B8CFEFF EQ PUSH2 0x1BB JUMPI DUP1 PUSH4 0xD9D65D46 EQ PUSH2 0x1C5 JUMPI DUP1 PUSH4 0xE2982C21 EQ PUSH2 0x1DC JUMPI PUSH2 0x91 JUMP JUMPDEST DUP1 PUSH4 0x7E6971B EQ PUSH2 0x96 JUMPI DUP1 PUSH4 0x250F050A EQ PUSH2 0xAD JUMPI DUP1 PUSH4 0x3878388E EQ PUSH2 0xD6 JUMPI DUP1 PUSH4 0x48C4E1E9 EQ PUSH2 0xFF JUMPI DUP1 PUSH4 0x5E5C06E2 EQ PUSH2 0x12A JUMPI JUMPDEST PUSH1 0x0 DUP1 REVERT JUMPDEST CALLVALUE DUP1 ISZERO PUSH2 0xA2 JUMPI PUSH1 0x0 DUP1 REVERT JUMPDEST POP PUSH2 0xAB PUSH2 0x219 JUMP JUMPDEST STOP JUMPDEST CALLVALUE DUP1 ISZERO PUSH2 0xB9 JUMPI PUSH1 0x0 DUP1 REVERT JUMPDEST POP PUSH2 0xD4 PUSH1 0x4 DUP1 CALLDATASIZE SUB DUP2 ADD SWAP1 PUSH2 0xCF SWAP2 SWAP1 PUSH2 0x6BD JUMP JUMPDEST PUSH2 0x246 JUMP JUMPDEST STOP JUMPDEST CALLVALUE DUP1 ISZERO PUSH2 0xE2 JUMPI PUSH1 0x0 DUP1 REVERT JUMPDEST POP PUSH2 0xFD PUSH1 0x4 DUP1 CALLDATASIZE SUB DUP2 ADD SWAP1 PUSH2 0xF8 SWAP2 SWAP1 PUSH2 0x618 JUMP JUMPDEST PUSH2 0x26D JUMP JUMPDEST STOP JUMPDEST CALLVALUE DUP1 ISZERO PUSH2 0x10B JUMPI PUSH1 0x0 DUP1 REVERT JUMPDEST POP PUSH2 0x114 PUSH2 0x2C5 JUMP JUMPDEST PUSH1 0x40 MLOAD PUSH2 0x121 SWAP2 SWAP1 PUSH2 0x7B8 JUMP JUMPDEST PUSH1 0x40 MLOAD DUP1 SWAP2 SUB SWAP1 RETURN JUMPDEST CALLVALUE DUP1 ISZERO PUSH2 0x136 JUMPI PUSH1 0x0 DUP1 REVERT JUMPDEST POP PUSH2 0x151 PUSH1 0x4 DUP1 CALLDATASIZE SUB DUP2 ADD SWAP1 PUSH2 0x14C SWAP2 SWAP1 PUSH2 0x5EB JUMP JUMPDEST PUSH2 0x2D8 JUMP JUMPDEST PUSH1 0x40 MLOAD PUSH2 0x15E SWAP2 SWAP1 PUSH2 0x7D3 JUMP JUMPDEST PUSH1 0x40 MLOAD DUP1 SWAP2 SUB SWAP1 RETURN JUMPDEST CALLVALUE DUP1 ISZERO PUSH2 0x173 JUMPI PUSH1 0x0 DUP1 REVERT JUMPDEST POP PUSH2 0x18E PUSH1 0x4 DUP1 CALLDATASIZE SUB DUP2 ADD SWAP1 PUSH2 0x189 SWAP2 SWAP1 PUSH2 0x674 JUMP JUMPDEST PUSH2 0x378 JUMP JUMPDEST PUSH1 0x40 MLOAD PUSH2 0x19B SWAP2 SWAP1 PUSH2 0x7F5 JUMP JUMPDEST PUSH1 0x40 MLOAD DUP1 SWAP2 SUB SWAP1 RETURN JUMPDEST CALLVALUE DUP1 ISZERO PUSH2 0x1B0 JUMPI PUSH1 0x0 DUP1 REVERT JUMPDEST POP PUSH2 0x1B9 PUSH2 0x3A6 JUMP JUMPDEST STOP JUMPDEST PUSH2 0x1C3 PUSH2 0x3D3 JUMP JUMPDEST STOP JUMPDEST CALLVALUE DUP1 ISZERO PUSH2 0x1D1 JUMPI PUSH1 0x0 DUP1 REVERT JUMPDEST POP PUSH2 0x1DA PUSH2 0x469 JUMP JUMPDEST STOP JUMPDEST CALLVALUE DUP1 ISZERO PUSH2 0x1E8 JUMPI PUSH1 0x0 DUP1 REVERT JUMPDEST POP PUSH2 0x203 PUSH1 0x4 DUP1 CALLDATASIZE SUB DUP2 ADD SWAP1 PUSH2 0x1FE SWAP2 SWAP1 PUSH2 0x5EB JUMP JUMPDEST PUSH2 0x496 JUMP JUMPDEST PUSH1 0x40 MLOAD PUSH2 0x210 SWAP2 SWAP1 PUSH2 0x7F5 JUMP JUMPDEST PUSH1 0x40 MLOAD DUP1 SWAP2 SUB SWAP1 RETURN JUMPDEST PUSH1 0x0 PUSH1 0x3 PUSH1 0x0 PUSH2 0x100 EXP DUP2 SLOAD DUP2 PUSH1 0xFF MUL NOT AND SWAP1 DUP4 PUSH1 0x2 DUP2 GT ISZERO PUSH2 0x23F JUMPI PUSH2 0x23E PUSH2 0xA18 JUMP JUMPDEST JUMPDEST MUL OR SWAP1 SSTORE POP JUMP JUMPDEST DUP1 PUSH1 0x0 DUP4 PUSH1 0x40 MLOAD PUSH2 0x257 SWAP2 SWAP1 PUSH2 0x7A1 JUMP JUMPDEST SWAP1 DUP2 MSTORE PUSH1 0x20 ADD PUSH1 0x40 MLOAD DUP1 SWAP2 SUB SWAP1 KECCAK256 DUP2 SWAP1 SSTORE POP POP POP JUMP JUMPDEST DUP1 PUSH1 0x1 PUSH1 0x0 DUP5 PUSH20 0xFFFFFFFFFFFFFFFFFFFFFFFFFFFFFFFFFFFFFFFF AND PUSH20 0xFFFFFFFFFFFFFFFFFFFFFFFFFFFFFFFFFFFFFFFF AND DUP2 MSTORE PUSH1 0x20 ADD SWAP1 DUP2 MSTORE PUSH1 0x20 ADD PUSH1 0x0 KECCAK256 SWAP1 DUP1 MLOAD SWAP1 PUSH1 0x20 ADD SWAP1 PUSH2 0x2C0 SWAP3 SWAP2 SWAP1 PUSH2 0x4AE JUMP JUMPDEST POP POP POP JUMP JUMPDEST PUSH1 0x3 PUSH1 0x0 SWAP1 SLOAD SWAP1 PUSH2 0x100 EXP SWAP1 DIV PUSH1 0xFF AND DUP2 JUMP JUMPDEST PUSH1 0x1 PUSH1 0x20 MSTORE DUP1 PUSH1 0x0 MSTORE PUSH1 0x40 PUSH1 0x0 KECCAK256 PUSH1 0x0 SWAP2 POP SWAP1 POP DUP1 SLOAD PUSH2 0x2F7 SWAP1 PUSH2 0x986 JUMP JUMPDEST DUP1 PUSH1 0x1F ADD PUSH1 0x20 DUP1 SWAP2 DIV MUL PUSH1 0x20 ADD PUSH1 0x40 MLOAD SWAP1 DUP2 ADD PUSH1 0x40 MSTORE DUP1 SWAP3 SWAP2 SWAP1 DUP2 DUP2 MSTORE PUSH1 0x20 ADD DUP3 DUP1 SLOAD PUSH2 0x323 SWAP1 PUSH2 0x986 JUMP JUMPDEST DUP1 ISZERO PUSH2 0x370 JUMPI DUP1 PUSH1 0x1F LT PUSH2 0x345 JUMPI PUSH2 0x100 DUP1 DUP4 SLOAD DIV MUL DUP4 MSTORE SWAP2 PUSH1 0x20 ADD SWAP2 PUSH2 0x370 JUMP JUMPDEST DUP3 ADD SWAP2 SWAP1 PUSH1 0x0 MSTORE PUSH1 0x20 PUSH1 0x0 KECCAK256 SWAP1 JUMPDEST DUP2 SLOAD DUP2 MSTORE SWAP1 PUSH1 0x1 ADD SWAP1 PUSH1 0x20 ADD DUP1 DUP4 GT PUSH2 0x353 JUMPI DUP3 SWAP1 SUB PUSH1 0x1F AND DUP3 ADD SWAP2 JUMPDEST POP POP POP POP POP DUP2 JUMP JUMPDEST PUSH1 0x0 DUP2 DUP1 MLOAD PUSH1 0x20 DUP2 ADD DUP3 ADD DUP1 MLOAD DUP5 DUP3 MSTORE PUSH1 0x20 DUP4 ADD PUSH1 0x20 DUP6 ADD KECCAK256 DUP2 DUP4 MSTORE DUP1 SWAP6 POP POP POP POP POP POP PUSH1 0x0 SWAP2 POP SWAP1 POP SLOAD DUP2 JUMP JUMPDEST PUSH1 0x2 PUSH1 0x3 PUSH1 0x0 PUSH2 0x100 EXP DUP2 SLOAD DUP2 PUSH1 0xFF MUL NOT AND SWAP1 DUP4 PUSH1 0x2 DUP2 GT ISZERO PUSH2 0x3CC JUMPI PUSH2 0x3CB PUSH2 0xA18 JUMP JUMPDEST JUMPDEST MUL OR SWAP1 SSTORE POP JUMP JUMPDEST PUSH1 0x0 PUSH1 0x2 PUSH1 0x0 CALLER PUSH20 0xFFFFFFFFFFFFFFFFFFFFFFFFFFFFFFFFFFFFFFFF AND PUSH20 0xFFFFFFFFFFFFFFFFFFFFFFFFFFFFFFFFFFFFFFFF AND DUP2 MSTORE PUSH1 0x20 ADD SWAP1 DUP2 MSTORE PUSH1 0x20 ADD PUSH1 0x0 KECCAK256 SLOAD SWAP1 POP CALLVALUE DUP2 PUSH2 0x423 SWAP2 SWAP1 PUSH2 0x88D JUMP JUMPDEST PUSH1 0x2 PUSH1 0x0 CALLER PUSH20 0xFFFFFFFFFFFFFFFFFFFFFFFFFFFFFFFFFFFFFFFF AND PUSH20 0xFFFFFFFFFFFFFFFFFFFFFFFFFFFFFFFFFFFFFFFF AND DUP2 MSTORE PUSH1 0x20 ADD SWAP1 DUP2 MSTORE PUSH1 0x20 ADD PUSH1 0x0 KECCAK256 DUP2 SWAP1 SSTORE POP POP JUMP JUMPDEST PUSH1 0x1 PUSH1 0x3 PUSH1 0x0 PUSH2 0x100 EXP DUP2 SLOAD DUP2 PUSH1 0xFF MUL NOT AND SWAP1 DUP4 PUSH1 0x2 DUP2 GT ISZERO PUSH2 0x48F JUMPI PUSH2 0x48E PUSH2 0xA18 JUMP JUMPDEST JUMPDEST MUL OR SWAP1 SSTORE POP JUMP JUMPDEST PUSH1 0x2 PUSH1 0x20 MSTORE DUP1 PUSH1 0x0 MSTORE PUSH1 0x40 PUSH1 0x0 KECCAK256 PUSH1 0x0 SWAP2 POP SWAP1 POP SLOAD DUP2 JUMP JUMPDEST DUP3 DUP1 SLOAD PUSH2 0x4BA SWAP1 PUSH2 0x986 JUMP JUMPDEST SWAP1 PUSH1 0x0 MSTORE PUSH1 0x20 PUSH1 0x0 KECCAK256 SWAP1 PUSH1 0x1F ADD PUSH1 0x20 SWAP1 DIV DUP2 ADD SWAP3 DUP3 PUSH2 0x4DC JUMPI PUSH1 0x0 DUP6 SSTORE PUSH2 0x523 JUMP JUMPDEST DUP3 PUSH1 0x1F LT PUSH2 0x4F5 JUMPI DUP1 MLOAD PUSH1 0xFF NOT AND DUP4 DUP1 ADD OR DUP6 SSTORE PUSH2 0x523 JUMP JUMPDEST DUP3 DUP1 ADD PUSH1 0x1 ADD DUP6 SSTORE DUP3 ISZERO PUSH2 0x523 JUMPI SWAP2 DUP3 ADD JUMPDEST DUP3 DUP2 GT ISZERO PUSH2 0x522 JUMPI DUP3 MLOAD DUP3 SSTORE SWAP2 PUSH1 0x20 ADD SWAP2 SWAP1 PUSH1 0x1 ADD SWAP1 PUSH2 0x507 JUMP JUMPDEST JUMPDEST POP SWAP1 POP PUSH2 0x530 SWAP2 SWAP1 PUSH2 0x534 JUMP JUMPDEST POP SWAP1 JUMP JUMPDEST JUMPDEST DUP1 DUP3 GT ISZERO PUSH2 0x54D JUMPI PUSH1 0x0 DUP2 PUSH1 0x0 SWAP1 SSTORE POP PUSH1 0x1 ADD PUSH2 0x535 JUMP JUMPDEST POP SWAP1 JUMP JUMPDEST PUSH1 0x0 PUSH2 0x564 PUSH2 0x55F DUP5 PUSH2 0x835 JUMP JUMPDEST PUSH2 0x810 JUMP JUMPDEST SWAP1 POP DUP3 DUP2 MSTORE PUSH1 0x20 DUP2 ADD DUP5 DUP5 DUP5 ADD GT ISZERO PUSH2 0x580 JUMPI PUSH2 0x57F PUSH2 0xAAA JUMP JUMPDEST JUMPDEST PUSH2 0x58B DUP5 DUP3 DUP6 PUSH2 0x944 JUMP JUMPDEST POP SWAP4 SWAP3 POP POP POP JUMP JUMPDEST PUSH1 0x0 DUP2 CALLDATALOAD SWAP1 POP PUSH2 0x5A2 DUP2 PUSH2 0xADE JUMP JUMPDEST SWAP3 SWAP2 POP POP JUMP JUMPDEST PUSH1 0x0 DUP3 PUSH1 0x1F DUP4 ADD SLT PUSH2 0x5BD JUMPI PUSH2 0x5BC PUSH2 0xAA5 JUMP JUMPDEST JUMPDEST DUP2 CALLDATALOAD PUSH2 0x5CD DUP5 DUP3 PUSH1 0x20 DUP7 ADD PUSH2 0x551 JUMP JUMPDEST SWAP2 POP POP SWAP3 SWAP2 POP POP JUMP JUMPDEST PUSH1 0x0 DUP2 CALLDATALOAD SWAP1 POP PUSH2 0x5E5 DUP2 PUSH2 0xAF5 JUMP JUMPDEST SWAP3 SWAP2 POP POP JUMP JUMPDEST PUSH1 0x0 PUSH1 0x20 DUP3 DUP5 SUB SLT ISZERO PUSH2 0x601 JUMPI PUSH2 0x600 PUSH2 0xAB4 JUMP JUMPDEST JUMPDEST PUSH1 0x0 PUSH2 0x60F DUP5 DUP3 DUP6 ADD PUSH2 0x593 JUMP JUMPDEST SWAP2 POP POP SWAP3 SWAP2 POP POP JUMP JUMPDEST PUSH1 0x0 DUP1 PUSH1 0x40 DUP4 DUP6 SUB SLT ISZERO PUSH2 0x62F JUMPI PUSH2 0x62E PUSH2 0xAB4 JUMP JUMPDEST JUMPDEST PUSH1 0x0 PUSH2 0x63D DUP6 DUP3 DUP7 ADD PUSH2 0x593 JUMP JUMPDEST SWAP3 POP POP PUSH1 0x20 DUP4 ADD CALLDATALOAD PUSH8 0xFFFFFFFFFFFFFFFF DUP2 GT ISZERO PUSH2 0x65E JUMPI PUSH2 0x65D PUSH2 0xAAF JUMP JUMPDEST JUMPDEST PUSH2 0x66A DUP6 DUP3 DUP7 ADD PUSH2 0x5A8 JUMP JUMPDEST SWAP2 POP POP SWAP3 POP SWAP3 SWAP1 POP JUMP JUMPDEST PUSH1 0x0 PUSH1 0x20 DUP3 DUP5 SUB SLT ISZERO PUSH2 0x68A JUMPI PUSH2 0x689 PUSH2 0xAB4 JUMP JUMPDEST JUMPDEST PUSH1 0x0 DUP3 ADD CALLDATALOAD PUSH8 0xFFFFFFFFFFFFFFFF DUP2 GT ISZERO PUSH2 0x6A8 JUMPI PUSH2 0x6A7 PUSH2 0xAAF JUMP JUMPDEST JUMPDEST PUSH2 0x6B4 DUP5 DUP3 DUP6 ADD PUSH2 0x5A8 JUMP JUMPDEST SWAP2 POP POP SWAP3 SWAP2 POP POP JUMP JUMPDEST PUSH1 0x0 DUP1 PUSH1 0x40 DUP4 DUP6 SUB SLT ISZERO PUSH2 0x6D4 JUMPI PUSH2 0x6D3 PUSH2 0xAB4 JUMP JUMPDEST JUMPDEST PUSH1 0x0 DUP4 ADD CALLDATALOAD PUSH8 0xFFFFFFFFFFFFFFFF DUP2 GT ISZERO PUSH2 0x6F2 JUMPI PUSH2 0x6F1 PUSH2 0xAAF JUMP JUMPDEST JUMPDEST PUSH2 0x6FE DUP6 DUP3 DUP7 ADD PUSH2 0x5A8 JUMP JUMPDEST SWAP3 POP POP PUSH1 0x20 PUSH2 0x70F DUP6 DUP3 DUP7 ADD PUSH2 0x5D6 JUMP JUMPDEST SWAP2 POP POP SWAP3 POP SWAP3 SWAP1 POP JUMP JUMPDEST PUSH2 0x722 DUP2 PUSH2 0x932 JUMP JUMPDEST DUP3 MSTORE POP POP JUMP JUMPDEST PUSH1 0x0 PUSH2 0x733 DUP3 PUSH2 0x866 JUMP JUMPDEST PUSH2 0x73D DUP2 DUP6 PUSH2 0x871 JUMP JUMPDEST SWAP4 POP PUSH2 0x74D DUP2 DUP6 PUSH1 0x20 DUP7 ADD PUSH2 0x953 JUMP JUMPDEST PUSH2 0x756 DUP2 PUSH2 0xAB9 JUMP JUMPDEST DUP5 ADD SWAP2 POP POP SWAP3 SWAP2 POP POP JUMP JUMPDEST PUSH1 0x0 PUSH2 0x76C DUP3 PUSH2 0x866 JUMP JUMPDEST PUSH2 0x776 DUP2 DUP6 PUSH2 0x882 JUMP JUMPDEST SWAP4 POP PUSH2 0x786 DUP2 DUP6 PUSH1 0x20 DUP7 ADD PUSH2 0x953 JUMP JUMPDEST DUP1 DUP5 ADD SWAP2 POP POP SWAP3 SWAP2 POP POP JUMP JUMPDEST PUSH2 0x79B DUP2 PUSH2 0x928 JUMP JUMPDEST DUP3 MSTORE POP POP JUMP JUMPDEST PUSH1 0x0 PUSH2 0x7AD DUP3 DUP5 PUSH2 0x761 JUMP JUMPDEST SWAP2 POP DUP2 SWAP1 POP SWAP3 SWAP2 POP POP JUMP JUMPDEST PUSH1 0x0 PUSH1 0x20 DUP3 ADD SWAP1 POP PUSH2 0x7CD PUSH1 0x0 DUP4 ADD DUP5 PUSH2 0x719 JUMP JUMPDEST SWAP3 SWAP2 POP POP JUMP JUMPDEST PUSH1 0x0 PUSH1 0x20 DUP3 ADD SWAP1 POP DUP2 DUP2 SUB PUSH1 0x0 DUP4 ADD MSTORE PUSH2 0x7ED DUP2 DUP5 PUSH2 0x728 JUMP JUMPDEST SWAP1 POP SWAP3 SWAP2 POP POP JUMP JUMPDEST PUSH1 0x0 PUSH1 0x20 DUP3 ADD SWAP1 POP PUSH2 0x80A PUSH1 0x0 DUP4 ADD DUP5 PUSH2 0x792 JUMP JUMPDEST SWAP3 SWAP2 POP POP JUMP JUMPDEST PUSH1 0x0 PUSH2 0x81A PUSH2 0x82B JUMP JUMPDEST SWAP1 POP PUSH2 0x826 DUP3 DUP3 PUSH2 0x9B8 JUMP JUMPDEST SWAP2 SWAP1 POP JUMP JUMPDEST PUSH1 0x0 PUSH1 0x40 MLOAD SWAP1 POP SWAP1 JUMP JUMPDEST PUSH1 0x0 PUSH8 0xFFFFFFFFFFFFFFFF DUP3 GT ISZERO PUSH2 0x850 JUMPI PUSH2 0x84F PUSH2 0xA76 JUMP JUMPDEST JUMPDEST PUSH2 0x859 DUP3 PUSH2 0xAB9 JUMP JUMPDEST SWAP1 POP PUSH1 0x20 DUP2 ADD SWAP1 POP SWAP2 SWAP1 POP JUMP JUMPDEST PUSH1 0x0 DUP2 MLOAD SWAP1 POP SWAP2 SWAP1 POP JUMP JUMPDEST PUSH1 0x0 DUP3 DUP3 MSTORE PUSH1 0x20 DUP3 ADD SWAP1 POP SWAP3 SWAP2 POP POP JUMP JUMPDEST PUSH1 0x0 DUP2 SWAP1 POP SWAP3 SWAP2 POP POP JUMP JUMPDEST PUSH1 0x0 PUSH2 0x898 DUP3 PUSH2 0x928 JUMP JUMPDEST SWAP2 POP PUSH2 0x8A3 DUP4 PUSH2 0x928 JUMP JUMPDEST SWAP3 POP DUP3 PUSH32 0xFFFFFFFFFFFFFFFFFFFFFFFFFFFFFFFFFFFFFFFFFFFFFFFFFFFFFFFFFFFFFFFF SUB DUP3 GT ISZERO PUSH2 0x8D8 JUMPI PUSH2 0x8D7 PUSH2 0x9E9 JUMP JUMPDEST JUMPDEST DUP3 DUP3 ADD SWAP1 POP SWAP3 SWAP2 POP POP JUMP JUMPDEST PUSH1 0x0 PUSH2 0x8EE DUP3 PUSH2 0x908 JUMP JUMPDEST SWAP1 POP SWAP2 SWAP1 POP JUMP JUMPDEST PUSH1 0x0 DUP2 SWAP1 POP PUSH2 0x903 DUP3 PUSH2 0xACA JUMP JUMPDEST SWAP2 SWAP1 POP JUMP JUMPDEST PUSH1 0x0 PUSH20 0xFFFFFFFFFFFFFFFFFFFFFFFFFFFFFFFFFFFFFFFF DUP3 AND SWAP1 POP SWAP2 SWAP1 POP JUMP JUMPDEST PUSH1 0x0 DUP2 SWAP1 POP SWAP2 SWAP1 POP JUMP JUMPDEST PUSH1 0x0 PUSH2 0x93D DUP3 PUSH2 0x8F5 JUMP JUMPDEST SWAP1 POP SWAP2 SWAP1 POP JUMP JUMPDEST DUP3 DUP2 DUP4 CALLDATACOPY PUSH1 0x0 DUP4 DUP4 ADD MSTORE POP POP POP JUMP JUMPDEST PUSH1 0x0 JUMPDEST DUP4 DUP2 LT ISZERO PUSH2 0x971 JUMPI DUP1 DUP3 ADD MLOAD DUP2 DUP5 ADD MSTORE PUSH1 0x20 DUP2 ADD SWAP1 POP PUSH2 0x956 JUMP JUMPDEST DUP4 DUP2 GT ISZERO PUSH2 0x980 JUMPI PUSH1 0x0 DUP5 DUP5 ADD MSTORE JUMPDEST POP POP POP POP JUMP JUMPDEST PUSH1 0x0 PUSH1 0x2 DUP3 DIV SWAP1 POP PUSH1 0x1 DUP3 AND DUP1 PUSH2 0x99E JUMPI PUSH1 0x7F DUP3 AND SWAP2 POP JUMPDEST PUSH1 0x20 DUP3 LT DUP2 EQ ISZERO PUSH2 0x9B2 JUMPI PUSH2 0x9B1 PUSH2 0xA47 JUMP JUMPDEST JUMPDEST POP SWAP2 SWAP1 POP JUMP JUMPDEST PUSH2 0x9C1 DUP3 PUSH2 0xAB9 JUMP JUMPDEST DUP2 ADD DUP2 DUP2 LT PUSH8 0xFFFFFFFFFFFFFFFF DUP3 GT OR ISZERO PUSH2 0x9E0 JUMPI PUSH2 0x9DF PUSH2 0xA76 JUMP JUMPDEST JUMPDEST DUP1 PUSH1 0x40 MSTORE POP POP POP JUMP JUMPDEST PUSH32 0x4E487B7100000000000000000000000000000000000000000000000000000000 PUSH1 0x0 MSTORE PUSH1 0x11 PUSH1 0x4 MSTORE PUSH1 0x24 PUSH1 0x0 REVERT JUMPDEST PUSH32 0x4E487B7100000000000000000000000000000000000000000000000000000000 PUSH1 0x0 MSTORE PUSH1 0x21 PUSH1 0x4 MSTORE PUSH1 0x24 PUSH1 0x0 REVERT JUMPDEST PUSH32 0x4E487B7100000000000000000000000000000000000000000000000000000000 PUSH1 0x0 MSTORE PUSH1 0x22 PUSH1 0x4 MSTORE PUSH1 0x24 PUSH1 0x0 REVERT JUMPDEST PUSH32 0x4E487B7100000000000000000000000000000000000000000000000000000000 PUSH1 0x0 MSTORE PUSH1 0x41 PUSH1 0x4 MSTORE PUSH1 0x24 PUSH1 0x0 REVERT JUMPDEST PUSH1 0x0 DUP1 REVERT JUMPDEST PUSH1 0x0 DUP1 REVERT JUMPDEST PUSH1 0x0 DUP1 REVERT JUMPDEST PUSH1 0x0 DUP1 REVERT JUMPDEST PUSH1 0x0 PUSH1 0x1F NOT PUSH1 0x1F DUP4 ADD AND SWAP1 POP SWAP2 SWAP1 POP JUMP JUMPDEST PUSH1 0x3 DUP2 LT PUSH2 0xADB JUMPI PUSH2 0xADA PUSH2 0xA18 JUMP JUMPDEST JUMPDEST POP JUMP JUMPDEST PUSH2 0xAE7 DUP2 PUSH2 0x8E3 JUMP JUMPDEST DUP2 EQ PUSH2 0xAF2 JUMPI PUSH1 0x0 DUP1 REVERT JUMPDEST POP JUMP JUMPDEST PUSH2 0xAFE DUP2 PUSH2 0x928 JUMP JUMPDEST DUP2 EQ PUSH2 0xB09 JUMPI PUSH1 0x0 DUP1 REVERT JUMPDEST POP JUMP INVALID LOG2 PUSH5 0x6970667358 0x22 SLT KECCAK256 SLT MSTORE 0x29 SAR 0xAE GASPRICE 0xD0 SSTORE 0xA6 0xD5 EXP STOP CODECOPY SUB DUP5 0x2C CODECOPY PUSH10 0x70D4D38927FD14748770 0x4F SELFDESTRUCT 0xCA DUP6 PUSH5 0x736F6C6343 STOP ADDMOD SMOD STOP CALLER "
				},
				"gasEstimates": {
					"creation": {
						"codeDepositCost": "576400",
						"executionCost": "613",
						"totalCost": "577013"
					},
					"external": {
						"MyAction()": "2627",
						"accounts(address)": "infinite",
						"ages(string)": "infinite",
						"payments(address)": "2902",
						"setAccounts(address,string)": "infinite",
						"setAges(string,uint256)": "infinite",
						"setPayments()": "infinite",
						"setRun()": "24453",
						"setStand()": "24432",
						"setWalk()": "24497"
					}
				},
				"methodIdentifiers": {
					"MyAction()": "48c4e1e9",
					"accounts(address)": "5e5c06e2",
					"ages(string)": "6dcfe452",
					"payments(address)": "e2982c21",
					"setAccounts(address,string)": "3878388e",
					"setAges(string,uint256)": "250f050a",
					"setPayments()": "8b8cfeff",
					"setRun()": "6f80c7f8",
					"setStand()": "07e6971b",
					"setWalk()": "d9d65d46"
				}
			},
			"storageLayout": {
				"storage": [
					{
						"astId": 5,
						"contract": "contracts/Lesson3Types.sol:Map3Lesson",
						"label": "ages",
						"offset": 0,
						"slot": "0",
						"type": "t_mapping(t_string_memory_ptr,t_uint256)"
					},
					{
						"astId": 9,
						"contract": "contracts/Lesson3Types.sol:Map3Lesson",
						"label": "accounts",
						"offset": 0,
						"slot": "1",
						"type": "t_mapping(t_address,t_string_storage)"
					},
					{
						"astId": 13,
						"contract": "contracts/Lesson3Types.sol:Map3Lesson",
						"label": "payments",
						"offset": 0,
						"slot": "2",
						"type": "t_mapping(t_address,t_uint256)"
					},
					{
						"astId": 69,
						"contract": "contracts/Lesson3Types.sol:Map3Lesson",
						"label": "MyAction",
						"offset": 0,
						"slot": "3",
						"type": "t_enum(Actions)66"
					}
				],
				"types": {
					"t_address": {
						"encoding": "inplace",
						"label": "address",
						"numberOfBytes": "20"
					},
					"t_enum(Actions)66": {
						"encoding": "inplace",
						"label": "enum Map3Lesson.Actions",
						"numberOfBytes": "1"
					},
					"t_mapping(t_address,t_string_storage)": {
						"encoding": "mapping",
						"key": "t_address",
						"label": "mapping(address => string)",
						"numberOfBytes": "32",
						"value": "t_string_storage"
					},
					"t_mapping(t_address,t_uint256)": {
						"encoding": "mapping",
						"key": "t_address",
						"label": "mapping(address => uint256)",
						"numberOfBytes": "32",
						"value": "t_uint256"
					},
					"t_mapping(t_string_memory_ptr,t_uint256)": {
						"encoding": "mapping",
						"key": "t_string_memory_ptr",
						"label": "mapping(string => uint256)",
						"numberOfBytes": "32",
						"value": "t_uint256"
					},
					"t_string_memory_ptr": {
						"encoding": "bytes",
						"label": "string",
						"numberOfBytes": "32"
					},
					"t_string_storage": {
						"encoding": "bytes",
						"label": "string",
						"numberOfBytes": "32"
					},
					"t_uint256": {
						"encoding": "inplace",
						"label": "uint256",
						"numberOfBytes": "32"
					}
				}
			},
			"userdoc": {
				"kind": "user",
				"methods": {},
				"version": 1
			}
		}
	}
}