{
	"contracts/Lesson8Trees.sol": {
		"Function8Trees": {
			"abi": [
				{
					"inputs": [],
					"stateMutability": "nonpayable",
					"type": "constructor"
				},
				{
					"inputs": [
						{
							"internalType": "string",
							"name": "input",
							"type": "string"
						}
					],
					"name": "getHash",
					"outputs": [
						{
							"internalType": "bytes32",
							"name": "",
							"type": "bytes32"
						}
					],
					"stateMutability": "pure",
					"type": "function"
				},
				{
					"inputs": [
						{
							"internalType": "uint256",
							"name": "",
							"type": "uint256"
						}
					],
					"name": "hashes",
					"outputs": [
						{
							"internalType": "bytes32",
							"name": "",
							"type": "bytes32"
						}
					],
					"stateMutability": "view",
					"type": "function"
				}
			],
			"devdoc": {
				"kind": "dev",
				"methods": {},
				"version": 1
			},
			"evm": {
				"assembly": "    /* \"contracts/Lesson8Trees.sol\":58:1033  contract Function8Trees {... */\n  mstore(0x40, 0x80)\n    /* \"contracts/Lesson8Trees.sol\":118:313  string[4] transactions = [... */\n  mload(0x40)\n  dup1\n  0x80\n  add\n  0x40\n  mstore\n  dup1\n  mload(0x40)\n  dup1\n  0x40\n  add\n  0x40\n  mstore\n  dup1\n  0x1d\n  dup2\n  mstore\n  0x20\n  add\n  0x5472616e73616374696f6e313a20313036303231203e20323535353433000000\n  dup2\n  mstore\n  pop\n  dup2\n  mstore\n  0x20\n  add\n  mload(0x40)\n  dup1\n  0x40\n  add\n  0x40\n  mstore\n  dup1\n  0x1d\n  dup2\n  mstore\n  0x20\n  add\n  0x5472616e73616374696f6e323a20323535353433203e20313232333435000000\n  dup2\n  mstore\n  pop\n  dup2\n  mstore\n  0x20\n  add\n  mload(0x40)\n  dup1\n  0x40\n  add\n  0x40\n  mstore\n  dup1\n  0x1d\n  dup2\n  mstore\n  0x20\n  add\n  0x5472616e73616374696f6e333a20313232333435203e20353634333334000000\n  dup2\n  mstore\n  pop\n  dup2\n  mstore\n  0x20\n  add\n  mload(0x40)\n  dup1\n  0x40\n  add\n  0x40\n  mstore\n  dup1\n  0x1d\n  dup2\n  mstore\n  0x20\n  add\n  0x5472616e73616374696f6e343a20353634333334203e20313036303231000000\n  dup2\n  mstore\n  pop\n  dup2\n  mstore\n  pop\n  0x01\n  swap1\n  0x04\n  tag_1\n  swap3\n  swap2\n  swap1\n  tag_2\n  jump\t// in\ntag_1:\n  pop\n    /* \"contracts/Lesson8Trees.sol\":320:874  constructor(){... */\n  callvalue\n  dup1\n  iszero\n  tag_3\n  jumpi\n  0x00\n  dup1\n  revert\ntag_3:\n  pop\n    /* \"contracts/Lesson8Trees.sol\":347:353  uint i */\n  0x00\n    /* \"contracts/Lesson8Trees.sol\":343:446  for(uint i; i < transactions.length; i++){... */\ntag_6:\n    /* \"contracts/Lesson8Trees.sol\":359:378  transactions.length */\n  0x04\n    /* \"contracts/Lesson8Trees.sol\":355:356  i */\n  dup2\n    /* \"contracts/Lesson8Trees.sol\":355:378  i < transactions.length */\n  lt\n    /* \"contracts/Lesson8Trees.sol\":343:446  for(uint i; i < transactions.length; i++){... */\n  iszero\n  tag_7\n  jumpi\n    /* \"contracts/Lesson8Trees.sol\":398:404  hashes */\n  0x00\n    /* \"contracts/Lesson8Trees.sol\":410:434  getHash(transactions[i]) */\n  tag_9\n    /* \"contracts/Lesson8Trees.sol\":418:430  transactions */\n  0x01\n    /* \"contracts/Lesson8Trees.sol\":431:432  i */\n  dup4\n    /* \"contracts/Lesson8Trees.sol\":418:433  transactions[i] */\n  0x04\n  dup2\n  lt\n  tag_10\n  jumpi\n  tag_11\n  tag_12\n  jump\t// in\ntag_11:\ntag_10:\n  add\n    /* \"contracts/Lesson8Trees.sol\":410:434  getHash(transactions[i]) */\n  dup1\n  sload\n  tag_14\n  swap1\n  tag_15\n  jump\t// in\ntag_14:\n  dup1\n  0x1f\n  add\n  0x20\n  dup1\n  swap2\n  div\n  mul\n  0x20\n  add\n  mload(0x40)\n  swap1\n  dup2\n  add\n  0x40\n  mstore\n  dup1\n  swap3\n  swap2\n  swap1\n  dup2\n  dup2\n  mstore\n  0x20\n  add\n  dup3\n  dup1\n  sload\n  tag_16\n  swap1\n  tag_15\n  jump\t// in\ntag_16:\n  dup1\n  iszero\n  tag_17\n  jumpi\n  dup1\n  0x1f\n  lt\n  tag_18\n  jumpi\n  0x0100\n  dup1\n  dup4\n  sload\n  div\n  mul\n  dup4\n  mstore\n  swap2\n  0x20\n  add\n  swap2\n  jump(tag_17)\ntag_18:\n  dup3\n  add\n  swap2\n  swap1\n  0x00\n  mstore\n  keccak256(0x00, 0x20)\n  swap1\ntag_19:\n  dup2\n  sload\n  dup2\n  mstore\n  swap1\n  0x01\n  add\n  swap1\n  0x20\n  add\n  dup1\n  dup4\n  gt\n  tag_19\n  jumpi\n  dup3\n  swap1\n  sub\n  0x1f\n  and\n  dup3\n  add\n  swap2\ntag_17:\n  pop\n  pop\n  pop\n  pop\n  pop\n    /* \"contracts/Lesson8Trees.sol\":410:417  getHash */\n  shl(0x20, tag_20)\n    /* \"contracts/Lesson8Trees.sol\":410:434  getHash(transactions[i]) */\n  0x20\n  shr\n  jump\t// in\ntag_9:\n    /* \"contracts/Lesson8Trees.sol\":398:435  hashes.push(getHash(transactions[i])) */\n  swap1\n  dup1\n  0x01\n  dup2\n  sload\n  add\n  dup1\n  dup3\n  sstore\n  dup1\n  swap2\n  pop\n  pop\n  0x01\n  swap1\n  sub\n  swap1\n  0x00\n  mstore\n  keccak256(0x00, 0x20)\n  add\n  0x00\n  swap1\n  swap2\n  swap1\n  swap2\n  swap1\n  swap2\n  pop\n  sstore\n    /* \"contracts/Lesson8Trees.sol\":380:383  i++ */\n  dup1\n  dup1\n  tag_22\n  swap1\n  tag_23\n  jump\t// in\ntag_22:\n  swap2\n  pop\n  pop\n    /* \"contracts/Lesson8Trees.sol\":343:446  for(uint i; i < transactions.length; i++){... */\n  jump(tag_6)\ntag_7:\n  pop\n    /* \"contracts/Lesson8Trees.sol\":456:466  uint count */\n  0x00\n    /* \"contracts/Lesson8Trees.sol\":469:488  transactions.length */\n  0x04\n    /* \"contracts/Lesson8Trees.sol\":456:488  uint count = transactions.length */\n  swap1\n  pop\n    /* \"contracts/Lesson8Trees.sol\":498:509  uint offset */\n  0x00\n    /* \"contracts/Lesson8Trees.sol\":524:868  while(count > 0) {... */\ntag_24:\n    /* \"contracts/Lesson8Trees.sol\":538:539  0 */\n  0x00\n    /* \"contracts/Lesson8Trees.sol\":530:535  count */\n  dup3\n    /* \"contracts/Lesson8Trees.sol\":530:539  count > 0 */\n  gt\n    /* \"contracts/Lesson8Trees.sol\":524:868  while(count > 0) {... */\n  iszero\n  tag_25\n  jumpi\n    /* \"contracts/Lesson8Trees.sol\":559:565  uint i */\n  0x00\n    /* \"contracts/Lesson8Trees.sol\":555:790  for(uint i; i < count - 1; i += 2){... */\ntag_26:\n    /* \"contracts/Lesson8Trees.sol\":579:580  1 */\n  0x01\n    /* \"contracts/Lesson8Trees.sol\":571:576  count */\n  dup4\n    /* \"contracts/Lesson8Trees.sol\":571:580  count - 1 */\n  tag_29\n  swap2\n  swap1\n  tag_30\n  jump\t// in\ntag_29:\n    /* \"contracts/Lesson8Trees.sol\":567:568  i */\n  dup2\n    /* \"contracts/Lesson8Trees.sol\":567:580  i < count - 1 */\n  lt\n    /* \"contracts/Lesson8Trees.sol\":555:790  for(uint i; i < count - 1; i += 2){... */\n  iszero\n  tag_27\n  jumpi\n    /* \"contracts/Lesson8Trees.sol\":607:613  hashes */\n  0x00\n    /* \"contracts/Lesson8Trees.sol\":692:698  hashes */\n  dup1\n    /* \"contracts/Lesson8Trees.sol\":708:709  i */\n  dup3\n    /* \"contracts/Lesson8Trees.sol\":699:705  offset */\n  dup5\n    /* \"contracts/Lesson8Trees.sol\":699:709  offset + i */\n  tag_31\n  swap2\n  swap1\n  tag_32\n  jump\t// in\ntag_31:\n    /* \"contracts/Lesson8Trees.sol\":692:710  hashes[offset + i] */\n  dup2\n  sload\n  dup2\n  lt\n  tag_33\n  jumpi\n  tag_34\n  tag_12\n  jump\t// in\ntag_34:\ntag_33:\n  swap1\n  0x00\n  mstore\n  keccak256(0x00, 0x20)\n  add\n  sload\n    /* \"contracts/Lesson8Trees.sol\":712:718  hashes */\n  0x00\n    /* \"contracts/Lesson8Trees.sol\":732:733  1 */\n  0x01\n    /* \"contracts/Lesson8Trees.sol\":728:729  i */\n  dup5\n    /* \"contracts/Lesson8Trees.sol\":719:725  offset */\n  dup7\n    /* \"contracts/Lesson8Trees.sol\":719:729  offset + i */\n  tag_36\n  swap2\n  swap1\n  tag_32\n  jump\t// in\ntag_36:\n    /* \"contracts/Lesson8Trees.sol\":719:733  offset + i + 1 */\n  tag_37\n  swap2\n  swap1\n  tag_32\n  jump\t// in\ntag_37:\n    /* \"contracts/Lesson8Trees.sol\":712:734  hashes[offset + i + 1] */\n  dup2\n  sload\n  dup2\n  lt\n  tag_38\n  jumpi\n  tag_39\n  tag_12\n  jump\t// in\ntag_39:\ntag_38:\n  swap1\n  0x00\n  mstore\n  keccak256(0x00, 0x20)\n  add\n  sload\n    /* \"contracts/Lesson8Trees.sol\":650:756  abi.encodePacked(... */\n  add(0x20, mload(0x40))\n  tag_41\n  swap3\n  swap2\n  swap1\n  tag_42\n  jump\t// in\ntag_41:\n  mload(0x40)\n  0x20\n  dup2\n  dup4\n  sub\n  sub\n  dup2\n  mstore\n  swap1\n  0x40\n  mstore\n    /* \"contracts/Lesson8Trees.sol\":619:774  keccak256(... */\n  dup1\n  mload\n  swap1\n  0x20\n  add\n  keccak256\n    /* \"contracts/Lesson8Trees.sol\":607:775  hashes.push(keccak256(... */\n  swap1\n  dup1\n  0x01\n  dup2\n  sload\n  add\n  dup1\n  dup3\n  sstore\n  dup1\n  swap2\n  pop\n  pop\n  0x01\n  swap1\n  sub\n  swap1\n  0x00\n  mstore\n  keccak256(0x00, 0x20)\n  add\n  0x00\n  swap1\n  swap2\n  swap1\n  swap2\n  swap1\n  swap2\n  pop\n  sstore\n    /* \"contracts/Lesson8Trees.sol\":587:588  2 */\n  0x02\n    /* \"contracts/Lesson8Trees.sol\":582:588  i += 2 */\n  dup2\n  tag_44\n  swap2\n  swap1\n  tag_32\n  jump\t// in\ntag_44:\n  swap1\n  pop\n    /* \"contracts/Lesson8Trees.sol\":555:790  for(uint i; i < count - 1; i += 2){... */\n  jump(tag_26)\ntag_27:\n  pop\n    /* \"contracts/Lesson8Trees.sol\":821:826  count */\n  dup2\n    /* \"contracts/Lesson8Trees.sol\":812:818  offset */\n  dup2\n    /* \"contracts/Lesson8Trees.sol\":812:826  offset + count */\n  tag_45\n  swap2\n  swap1\n  tag_32\n  jump\t// in\ntag_45:\n    /* \"contracts/Lesson8Trees.sol\":803:826  offset = offset + count */\n  swap1\n  pop\n    /* \"contracts/Lesson8Trees.sol\":856:857  2 */\n  0x02\n    /* \"contracts/Lesson8Trees.sol\":848:853  count */\n  dup3\n    /* \"contracts/Lesson8Trees.sol\":848:857  count / 2 */\n  tag_46\n  swap2\n  swap1\n  tag_47\n  jump\t// in\ntag_46:\n    /* \"contracts/Lesson8Trees.sol\":840:857  count = count / 2 */\n  swap2\n  pop\n    /* \"contracts/Lesson8Trees.sol\":524:868  while(count > 0) {... */\n  jump(tag_24)\ntag_25:\n    /* \"contracts/Lesson8Trees.sol\":333:874  {... */\n  pop\n  pop\n    /* \"contracts/Lesson8Trees.sol\":58:1033  contract Function8Trees {... */\n  jump(tag_48)\n    /* \"contracts/Lesson8Trees.sol\":880:1026  function getHash(string memory input) public pure returns(bytes32){... */\ntag_20:\n    /* \"contracts/Lesson8Trees.sol\":938:945  bytes32 */\n  0x00\n    /* \"contracts/Lesson8Trees.sol\":1003:1008  input */\n  dup2\n    /* \"contracts/Lesson8Trees.sol\":986:1009  abi.encodePacked(input) */\n  add(0x20, mload(0x40))\n  tag_50\n  swap2\n  swap1\n  tag_51\n  jump\t// in\ntag_50:\n  mload(0x40)\n  0x20\n  dup2\n  dup4\n  sub\n  sub\n  dup2\n  mstore\n  swap1\n  0x40\n  mstore\n    /* \"contracts/Lesson8Trees.sol\":963:1019  keccak256(... */\n  dup1\n  mload\n  swap1\n  0x20\n  add\n  keccak256\n    /* \"contracts/Lesson8Trees.sol\":956:1019  return keccak256(... */\n  swap1\n  pop\n    /* \"contracts/Lesson8Trees.sol\":880:1026  function getHash(string memory input) public pure returns(bytes32){... */\n  swap2\n  swap1\n  pop\n  jump\t// out\n    /* \"contracts/Lesson8Trees.sol\":58:1033  contract Function8Trees {... */\ntag_2:\n  dup3\n  0x04\n  dup2\n  add\n  swap3\n  dup3\n  iszero\n  tag_52\n  jumpi\n  swap2\n  0x20\n  mul\n  dup3\n  add\ntag_53:\n  dup3\n  dup2\n  gt\n  iszero\n  tag_54\n  jumpi\n  dup3\n  mload\n  dup3\n  swap1\n  dup1\n  mload\n  swap1\n  0x20\n  add\n  swap1\n  tag_55\n  swap3\n  swap2\n  swap1\n  tag_56\n  jump\t// in\ntag_55:\n  pop\n  swap2\n  0x20\n  add\n  swap2\n  swap1\n  0x01\n  add\n  swap1\n  jump(tag_53)\ntag_54:\ntag_52:\n  pop\n  swap1\n  pop\n  tag_57\n  swap2\n  swap1\n  tag_58\n  jump\t// in\ntag_57:\n  pop\n  swap1\n  jump\t// out\ntag_56:\n  dup3\n  dup1\n  sload\n  tag_59\n  swap1\n  tag_15\n  jump\t// in\ntag_59:\n  swap1\n  0x00\n  mstore\n  keccak256(0x00, 0x20)\n  swap1\n  0x1f\n  add\n  0x20\n  swap1\n  div\n  dup2\n  add\n  swap3\n  dup3\n  tag_61\n  jumpi\n  0x00\n  dup6\n  sstore\n  jump(tag_60)\ntag_61:\n  dup3\n  0x1f\n  lt\n  tag_62\n  jumpi\n  dup1\n  mload\n  not(0xff)\n  and\n  dup4\n  dup1\n  add\n  or\n  dup6\n  sstore\n  jump(tag_60)\ntag_62:\n  dup3\n  dup1\n  add\n  0x01\n  add\n  dup6\n  sstore\n  dup3\n  iszero\n  tag_60\n  jumpi\n  swap2\n  dup3\n  add\ntag_63:\n  dup3\n  dup2\n  gt\n  iszero\n  tag_64\n  jumpi\n  dup3\n  mload\n  dup3\n  sstore\n  swap2\n  0x20\n  add\n  swap2\n  swap1\n  0x01\n  add\n  swap1\n  jump(tag_63)\ntag_64:\ntag_60:\n  pop\n  swap1\n  pop\n  tag_65\n  swap2\n  swap1\n  tag_66\n  jump\t// in\ntag_65:\n  pop\n  swap1\n  jump\t// out\ntag_58:\ntag_67:\n  dup1\n  dup3\n  gt\n  iszero\n  tag_68\n  jumpi\n  0x00\n  dup2\n  dup2\n  tag_69\n  swap2\n  swap1\n  tag_70\n  jump\t// in\ntag_69:\n  pop\n  0x01\n  add\n  jump(tag_67)\ntag_68:\n  pop\n  swap1\n  jump\t// out\ntag_66:\ntag_71:\n  dup1\n  dup3\n  gt\n  iszero\n  tag_72\n  jumpi\n  0x00\n  dup2\n  0x00\n  swap1\n  sstore\n  pop\n  0x01\n  add\n  jump(tag_71)\ntag_72:\n  pop\n  swap1\n  jump\t// out\ntag_70:\n  pop\n  dup1\n  sload\n  tag_73\n  swap1\n  tag_15\n  jump\t// in\ntag_73:\n  0x00\n  dup3\n  sstore\n  dup1\n  0x1f\n  lt\n  tag_75\n  jumpi\n  pop\n  jump(tag_74)\ntag_75:\n  0x1f\n  add\n  0x20\n  swap1\n  div\n  swap1\n  0x00\n  mstore\n  keccak256(0x00, 0x20)\n  swap1\n  dup2\n  add\n  swap1\n  tag_76\n  swap2\n  swap1\n  tag_66\n  jump\t// in\ntag_76:\ntag_74:\n  pop\n  jump\t// out\n    /* \"#utility.yul\":7:164   */\ntag_78:\n    /* \"#utility.yul\":112:157   */\n  tag_80\n    /* \"#utility.yul\":132:156   */\n  tag_81\n    /* \"#utility.yul\":150:155   */\n  dup3\n    /* \"#utility.yul\":132:156   */\n  tag_82\n  jump\t// in\ntag_81:\n    /* \"#utility.yul\":112:157   */\n  tag_83\n  jump\t// in\ntag_80:\n    /* \"#utility.yul\":107:110   */\n  dup3\n    /* \"#utility.yul\":100:158   */\n  mstore\n    /* \"#utility.yul\":7:164   */\n  pop\n  pop\n  jump\t// out\n    /* \"#utility.yul\":170:547   */\ntag_84:\n    /* \"#utility.yul\":276:279   */\n  0x00\n    /* \"#utility.yul\":304:343   */\n  tag_86\n    /* \"#utility.yul\":337:342   */\n  dup3\n    /* \"#utility.yul\":304:343   */\n  tag_87\n  jump\t// in\ntag_86:\n    /* \"#utility.yul\":359:448   */\n  tag_88\n    /* \"#utility.yul\":441:447   */\n  dup2\n    /* \"#utility.yul\":436:439   */\n  dup6\n    /* \"#utility.yul\":359:448   */\n  tag_89\n  jump\t// in\ntag_88:\n    /* \"#utility.yul\":352:448   */\n  swap4\n  pop\n    /* \"#utility.yul\":457:509   */\n  tag_90\n    /* \"#utility.yul\":502:508   */\n  dup2\n    /* \"#utility.yul\":497:500   */\n  dup6\n    /* \"#utility.yul\":490:494   */\n  0x20\n    /* \"#utility.yul\":483:488   */\n  dup7\n    /* \"#utility.yul\":479:495   */\n  add\n    /* \"#utility.yul\":457:509   */\n  tag_91\n  jump\t// in\ntag_90:\n    /* \"#utility.yul\":534:540   */\n  dup1\n    /* \"#utility.yul\":529:532   */\n  dup5\n    /* \"#utility.yul\":525:541   */\n  add\n    /* \"#utility.yul\":518:541   */\n  swap2\n  pop\n    /* \"#utility.yul\":280:547   */\n  pop\n    /* \"#utility.yul\":170:547   */\n  swap3\n  swap2\n  pop\n  pop\n  jump\t// out\n    /* \"#utility.yul\":553:950   */\ntag_42:\n    /* \"#utility.yul\":693:696   */\n  0x00\n    /* \"#utility.yul\":708:783   */\n  tag_93\n    /* \"#utility.yul\":779:782   */\n  dup3\n    /* \"#utility.yul\":770:776   */\n  dup6\n    /* \"#utility.yul\":708:783   */\n  tag_78\n  jump\t// in\ntag_93:\n    /* \"#utility.yul\":808:810   */\n  0x20\n    /* \"#utility.yul\":803:806   */\n  dup3\n    /* \"#utility.yul\":799:811   */\n  add\n    /* \"#utility.yul\":792:811   */\n  swap2\n  pop\n    /* \"#utility.yul\":821:896   */\n  tag_94\n    /* \"#utility.yul\":892:895   */\n  dup3\n    /* \"#utility.yul\":883:889   */\n  dup5\n    /* \"#utility.yul\":821:896   */\n  tag_78\n  jump\t// in\ntag_94:\n    /* \"#utility.yul\":921:923   */\n  0x20\n    /* \"#utility.yul\":916:919   */\n  dup3\n    /* \"#utility.yul\":912:924   */\n  add\n    /* \"#utility.yul\":905:924   */\n  swap2\n  pop\n    /* \"#utility.yul\":941:944   */\n  dup2\n    /* \"#utility.yul\":934:944   */\n  swap1\n  pop\n    /* \"#utility.yul\":553:950   */\n  swap4\n  swap3\n  pop\n  pop\n  pop\n  jump\t// out\n    /* \"#utility.yul\":956:1231   */\ntag_51:\n    /* \"#utility.yul\":1088:1091   */\n  0x00\n    /* \"#utility.yul\":1110:1205   */\n  tag_96\n    /* \"#utility.yul\":1201:1204   */\n  dup3\n    /* \"#utility.yul\":1192:1198   */\n  dup5\n    /* \"#utility.yul\":1110:1205   */\n  tag_84\n  jump\t// in\ntag_96:\n    /* \"#utility.yul\":1103:1205   */\n  swap2\n  pop\n    /* \"#utility.yul\":1222:1225   */\n  dup2\n    /* \"#utility.yul\":1215:1225   */\n  swap1\n  pop\n    /* \"#utility.yul\":956:1231   */\n  swap3\n  swap2\n  pop\n  pop\n  jump\t// out\n    /* \"#utility.yul\":1237:1336   */\ntag_87:\n    /* \"#utility.yul\":1289:1295   */\n  0x00\n    /* \"#utility.yul\":1323:1328   */\n  dup2\n    /* \"#utility.yul\":1317:1329   */\n  mload\n    /* \"#utility.yul\":1307:1329   */\n  swap1\n  pop\n    /* \"#utility.yul\":1237:1336   */\n  swap2\n  swap1\n  pop\n  jump\t// out\n    /* \"#utility.yul\":1342:1490   */\ntag_89:\n    /* \"#utility.yul\":1444:1455   */\n  0x00\n    /* \"#utility.yul\":1481:1484   */\n  dup2\n    /* \"#utility.yul\":1466:1484   */\n  swap1\n  pop\n    /* \"#utility.yul\":1342:1490   */\n  swap3\n  swap2\n  pop\n  pop\n  jump\t// out\n    /* \"#utility.yul\":1496:1801   */\ntag_32:\n    /* \"#utility.yul\":1536:1539   */\n  0x00\n    /* \"#utility.yul\":1555:1575   */\n  tag_100\n    /* \"#utility.yul\":1573:1574   */\n  dup3\n    /* \"#utility.yul\":1555:1575   */\n  tag_101\n  jump\t// in\ntag_100:\n    /* \"#utility.yul\":1550:1575   */\n  swap2\n  pop\n    /* \"#utility.yul\":1589:1609   */\n  tag_102\n    /* \"#utility.yul\":1607:1608   */\n  dup4\n    /* \"#utility.yul\":1589:1609   */\n  tag_101\n  jump\t// in\ntag_102:\n    /* \"#utility.yul\":1584:1609   */\n  swap3\n  pop\n    /* \"#utility.yul\":1743:1744   */\n  dup3\n    /* \"#utility.yul\":1675:1741   */\n  0xffffffffffffffffffffffffffffffffffffffffffffffffffffffffffffffff\n    /* \"#utility.yul\":1671:1745   */\n  sub\n    /* \"#utility.yul\":1668:1669   */\n  dup3\n    /* \"#utility.yul\":1665:1746   */\n  gt\n    /* \"#utility.yul\":1662:1769   */\n  iszero\n  tag_103\n  jumpi\n    /* \"#utility.yul\":1749:1767   */\n  tag_104\n  tag_105\n  jump\t// in\ntag_104:\n    /* \"#utility.yul\":1662:1769   */\ntag_103:\n    /* \"#utility.yul\":1793:1794   */\n  dup3\n    /* \"#utility.yul\":1790:1791   */\n  dup3\n    /* \"#utility.yul\":1786:1795   */\n  add\n    /* \"#utility.yul\":1779:1795   */\n  swap1\n  pop\n    /* \"#utility.yul\":1496:1801   */\n  swap3\n  swap2\n  pop\n  pop\n  jump\t// out\n    /* \"#utility.yul\":1807:1992   */\ntag_47:\n    /* \"#utility.yul\":1847:1848   */\n  0x00\n    /* \"#utility.yul\":1864:1884   */\n  tag_107\n    /* \"#utility.yul\":1882:1883   */\n  dup3\n    /* \"#utility.yul\":1864:1884   */\n  tag_101\n  jump\t// in\ntag_107:\n    /* \"#utility.yul\":1859:1884   */\n  swap2\n  pop\n    /* \"#utility.yul\":1898:1918   */\n  tag_108\n    /* \"#utility.yul\":1916:1917   */\n  dup4\n    /* \"#utility.yul\":1898:1918   */\n  tag_101\n  jump\t// in\ntag_108:\n    /* \"#utility.yul\":1893:1918   */\n  swap3\n  pop\n    /* \"#utility.yul\":1937:1938   */\n  dup3\n    /* \"#utility.yul\":1927:1962   */\n  tag_109\n  jumpi\n    /* \"#utility.yul\":1942:1960   */\n  tag_110\n  tag_111\n  jump\t// in\ntag_110:\n    /* \"#utility.yul\":1927:1962   */\ntag_109:\n    /* \"#utility.yul\":1984:1985   */\n  dup3\n    /* \"#utility.yul\":1981:1982   */\n  dup3\n    /* \"#utility.yul\":1977:1986   */\n  div\n    /* \"#utility.yul\":1972:1986   */\n  swap1\n  pop\n    /* \"#utility.yul\":1807:1992   */\n  swap3\n  swap2\n  pop\n  pop\n  jump\t// out\n    /* \"#utility.yul\":1998:2189   */\ntag_30:\n    /* \"#utility.yul\":2038:2042   */\n  0x00\n    /* \"#utility.yul\":2058:2078   */\n  tag_113\n    /* \"#utility.yul\":2076:2077   */\n  dup3\n    /* \"#utility.yul\":2058:2078   */\n  tag_101\n  jump\t// in\ntag_113:\n    /* \"#utility.yul\":2053:2078   */\n  swap2\n  pop\n    /* \"#utility.yul\":2092:2112   */\n  tag_114\n    /* \"#utility.yul\":2110:2111   */\n  dup4\n    /* \"#utility.yul\":2092:2112   */\n  tag_101\n  jump\t// in\ntag_114:\n    /* \"#utility.yul\":2087:2112   */\n  swap3\n  pop\n    /* \"#utility.yul\":2131:2132   */\n  dup3\n    /* \"#utility.yul\":2128:2129   */\n  dup3\n    /* \"#utility.yul\":2125:2133   */\n  lt\n    /* \"#utility.yul\":2122:2156   */\n  iszero\n  tag_115\n  jumpi\n    /* \"#utility.yul\":2136:2154   */\n  tag_116\n  tag_105\n  jump\t// in\ntag_116:\n    /* \"#utility.yul\":2122:2156   */\ntag_115:\n    /* \"#utility.yul\":2181:2182   */\n  dup3\n    /* \"#utility.yul\":2178:2179   */\n  dup3\n    /* \"#utility.yul\":2174:2183   */\n  sub\n    /* \"#utility.yul\":2166:2183   */\n  swap1\n  pop\n    /* \"#utility.yul\":1998:2189   */\n  swap3\n  swap2\n  pop\n  pop\n  jump\t// out\n    /* \"#utility.yul\":2195:2272   */\ntag_82:\n    /* \"#utility.yul\":2232:2239   */\n  0x00\n    /* \"#utility.yul\":2261:2266   */\n  dup2\n    /* \"#utility.yul\":2250:2266   */\n  swap1\n  pop\n    /* \"#utility.yul\":2195:2272   */\n  swap2\n  swap1\n  pop\n  jump\t// out\n    /* \"#utility.yul\":2278:2355   */\ntag_101:\n    /* \"#utility.yul\":2315:2322   */\n  0x00\n    /* \"#utility.yul\":2344:2349   */\n  dup2\n    /* \"#utility.yul\":2333:2349   */\n  swap1\n  pop\n    /* \"#utility.yul\":2278:2355   */\n  swap2\n  swap1\n  pop\n  jump\t// out\n    /* \"#utility.yul\":2361:2668   */\ntag_91:\n    /* \"#utility.yul\":2429:2430   */\n  0x00\n    /* \"#utility.yul\":2439:2552   */\ntag_120:\n    /* \"#utility.yul\":2453:2459   */\n  dup4\n    /* \"#utility.yul\":2450:2451   */\n  dup2\n    /* \"#utility.yul\":2447:2460   */\n  lt\n    /* \"#utility.yul\":2439:2552   */\n  iszero\n  tag_122\n  jumpi\n    /* \"#utility.yul\":2538:2539   */\n  dup1\n    /* \"#utility.yul\":2533:2536   */\n  dup3\n    /* \"#utility.yul\":2529:2540   */\n  add\n    /* \"#utility.yul\":2523:2541   */\n  mload\n    /* \"#utility.yul\":2519:2520   */\n  dup2\n    /* \"#utility.yul\":2514:2517   */\n  dup5\n    /* \"#utility.yul\":2510:2521   */\n  add\n    /* \"#utility.yul\":2503:2542   */\n  mstore\n    /* \"#utility.yul\":2475:2477   */\n  0x20\n    /* \"#utility.yul\":2472:2473   */\n  dup2\n    /* \"#utility.yul\":2468:2478   */\n  add\n    /* \"#utility.yul\":2463:2478   */\n  swap1\n  pop\n    /* \"#utility.yul\":2439:2552   */\n  jump(tag_120)\ntag_122:\n    /* \"#utility.yul\":2570:2576   */\n  dup4\n    /* \"#utility.yul\":2567:2568   */\n  dup2\n    /* \"#utility.yul\":2564:2577   */\n  gt\n    /* \"#utility.yul\":2561:2662   */\n  iszero\n  tag_123\n  jumpi\n    /* \"#utility.yul\":2650:2651   */\n  0x00\n    /* \"#utility.yul\":2641:2647   */\n  dup5\n    /* \"#utility.yul\":2636:2639   */\n  dup5\n    /* \"#utility.yul\":2632:2648   */\n  add\n    /* \"#utility.yul\":2625:2652   */\n  mstore\n    /* \"#utility.yul\":2561:2662   */\ntag_123:\n    /* \"#utility.yul\":2410:2668   */\n  pop\n    /* \"#utility.yul\":2361:2668   */\n  pop\n  pop\n  pop\n  jump\t// out\n    /* \"#utility.yul\":2674:2994   */\ntag_15:\n    /* \"#utility.yul\":2718:2724   */\n  0x00\n    /* \"#utility.yul\":2755:2756   */\n  0x02\n    /* \"#utility.yul\":2749:2753   */\n  dup3\n    /* \"#utility.yul\":2745:2757   */\n  div\n    /* \"#utility.yul\":2735:2757   */\n  swap1\n  pop\n    /* \"#utility.yul\":2802:2803   */\n  0x01\n    /* \"#utility.yul\":2796:2800   */\n  dup3\n    /* \"#utility.yul\":2792:2804   */\n  and\n    /* \"#utility.yul\":2823:2841   */\n  dup1\n    /* \"#utility.yul\":2813:2894   */\n  tag_125\n  jumpi\n    /* \"#utility.yul\":2879:2883   */\n  0x7f\n    /* \"#utility.yul\":2871:2877   */\n  dup3\n    /* \"#utility.yul\":2867:2884   */\n  and\n    /* \"#utility.yul\":2857:2884   */\n  swap2\n  pop\n    /* \"#utility.yul\":2813:2894   */\ntag_125:\n    /* \"#utility.yul\":2941:2943   */\n  0x20\n    /* \"#utility.yul\":2933:2939   */\n  dup3\n    /* \"#utility.yul\":2930:2944   */\n  lt\n    /* \"#utility.yul\":2910:2928   */\n  dup2\n    /* \"#utility.yul\":2907:2945   */\n  eq\n    /* \"#utility.yul\":2904:2988   */\n  iszero\n  tag_126\n  jumpi\n    /* \"#utility.yul\":2960:2978   */\n  tag_127\n  tag_128\n  jump\t// in\ntag_127:\n    /* \"#utility.yul\":2904:2988   */\ntag_126:\n    /* \"#utility.yul\":2725:2994   */\n  pop\n    /* \"#utility.yul\":2674:2994   */\n  swap2\n  swap1\n  pop\n  jump\t// out\n    /* \"#utility.yul\":3000:3233   */\ntag_23:\n    /* \"#utility.yul\":3039:3042   */\n  0x00\n    /* \"#utility.yul\":3062:3086   */\n  tag_130\n    /* \"#utility.yul\":3080:3085   */\n  dup3\n    /* \"#utility.yul\":3062:3086   */\n  tag_101\n  jump\t// in\ntag_130:\n    /* \"#utility.yul\":3053:3086   */\n  swap2\n  pop\n    /* \"#utility.yul\":3108:3174   */\n  0xffffffffffffffffffffffffffffffffffffffffffffffffffffffffffffffff\n    /* \"#utility.yul\":3101:3106   */\n  dup3\n    /* \"#utility.yul\":3098:3175   */\n  eq\n    /* \"#utility.yul\":3095:3198   */\n  iszero\n  tag_131\n  jumpi\n    /* \"#utility.yul\":3178:3196   */\n  tag_132\n  tag_105\n  jump\t// in\ntag_132:\n    /* \"#utility.yul\":3095:3198   */\ntag_131:\n    /* \"#utility.yul\":3225:3226   */\n  0x01\n    /* \"#utility.yul\":3218:3223   */\n  dup3\n    /* \"#utility.yul\":3214:3227   */\n  add\n    /* \"#utility.yul\":3207:3227   */\n  swap1\n  pop\n    /* \"#utility.yul\":3000:3233   */\n  swap2\n  swap1\n  pop\n  jump\t// out\n    /* \"#utility.yul\":3239:3318   */\ntag_83:\n    /* \"#utility.yul\":3278:3285   */\n  0x00\n    /* \"#utility.yul\":3307:3312   */\n  dup2\n    /* \"#utility.yul\":3296:3312   */\n  swap1\n  pop\n    /* \"#utility.yul\":3239:3318   */\n  swap2\n  swap1\n  pop\n  jump\t// out\n    /* \"#utility.yul\":3324:3504   */\ntag_105:\n    /* \"#utility.yul\":3372:3449   */\n  0x4e487b7100000000000000000000000000000000000000000000000000000000\n    /* \"#utility.yul\":3369:3370   */\n  0x00\n    /* \"#utility.yul\":3362:3450   */\n  mstore\n    /* \"#utility.yul\":3469:3473   */\n  0x11\n    /* \"#utility.yul\":3466:3467   */\n  0x04\n    /* \"#utility.yul\":3459:3474   */\n  mstore\n    /* \"#utility.yul\":3493:3497   */\n  0x24\n    /* \"#utility.yul\":3490:3491   */\n  0x00\n    /* \"#utility.yul\":3483:3498   */\n  revert\n    /* \"#utility.yul\":3510:3690   */\ntag_111:\n    /* \"#utility.yul\":3558:3635   */\n  0x4e487b7100000000000000000000000000000000000000000000000000000000\n    /* \"#utility.yul\":3555:3556   */\n  0x00\n    /* \"#utility.yul\":3548:3636   */\n  mstore\n    /* \"#utility.yul\":3655:3659   */\n  0x12\n    /* \"#utility.yul\":3652:3653   */\n  0x04\n    /* \"#utility.yul\":3645:3660   */\n  mstore\n    /* \"#utility.yul\":3679:3683   */\n  0x24\n    /* \"#utility.yul\":3676:3677   */\n  0x00\n    /* \"#utility.yul\":3669:3684   */\n  revert\n    /* \"#utility.yul\":3696:3876   */\ntag_128:\n    /* \"#utility.yul\":3744:3821   */\n  0x4e487b7100000000000000000000000000000000000000000000000000000000\n    /* \"#utility.yul\":3741:3742   */\n  0x00\n    /* \"#utility.yul\":3734:3822   */\n  mstore\n    /* \"#utility.yul\":3841:3845   */\n  0x22\n    /* \"#utility.yul\":3838:3839   */\n  0x04\n    /* \"#utility.yul\":3831:3846   */\n  mstore\n    /* \"#utility.yul\":3865:3869   */\n  0x24\n    /* \"#utility.yul\":3862:3863   */\n  0x00\n    /* \"#utility.yul\":3855:3870   */\n  revert\n    /* \"#utility.yul\":3882:4062   */\ntag_12:\n    /* \"#utility.yul\":3930:4007   */\n  0x4e487b7100000000000000000000000000000000000000000000000000000000\n    /* \"#utility.yul\":3927:3928   */\n  0x00\n    /* \"#utility.yul\":3920:4008   */\n  mstore\n    /* \"#utility.yul\":4027:4031   */\n  0x32\n    /* \"#utility.yul\":4024:4025   */\n  0x04\n    /* \"#utility.yul\":4017:4032   */\n  mstore\n    /* \"#utility.yul\":4051:4055   */\n  0x24\n    /* \"#utility.yul\":4048:4049   */\n  0x00\n    /* \"#utility.yul\":4041:4056   */\n  revert\n    /* \"contracts/Lesson8Trees.sol\":58:1033  contract Function8Trees {... */\ntag_48:\n  dataSize(sub_0)\n  dup1\n  dataOffset(sub_0)\n  0x00\n  codecopy\n  0x00\n  return\nstop\n\nsub_0: assembly {\n        /* \"contracts/Lesson8Trees.sol\":58:1033  contract Function8Trees {... */\n      mstore(0x40, 0x80)\n      callvalue\n      dup1\n      iszero\n      tag_1\n      jumpi\n      0x00\n      dup1\n      revert\n    tag_1:\n      pop\n      jumpi(tag_2, lt(calldatasize, 0x04))\n      shr(0xe0, calldataload(0x00))\n      dup1\n      0x501895ae\n      eq\n      tag_3\n      jumpi\n      dup1\n      0x5b6beeb9\n      eq\n      tag_4\n      jumpi\n    tag_2:\n      0x00\n      dup1\n      revert\n        /* \"contracts/Lesson8Trees.sol\":89:112  bytes32[] public hashes */\n    tag_3:\n      tag_5\n      0x04\n      dup1\n      calldatasize\n      sub\n      dup2\n      add\n      swap1\n      tag_6\n      swap2\n      swap1\n      tag_7\n      jump\t// in\n    tag_6:\n      tag_8\n      jump\t// in\n    tag_5:\n      mload(0x40)\n      tag_9\n      swap2\n      swap1\n      tag_10\n      jump\t// in\n    tag_9:\n      mload(0x40)\n      dup1\n      swap2\n      sub\n      swap1\n      return\n        /* \"contracts/Lesson8Trees.sol\":880:1026  function getHash(string memory input) public pure returns(bytes32){... */\n    tag_4:\n      tag_11\n      0x04\n      dup1\n      calldatasize\n      sub\n      dup2\n      add\n      swap1\n      tag_12\n      swap2\n      swap1\n      tag_13\n      jump\t// in\n    tag_12:\n      tag_14\n      jump\t// in\n    tag_11:\n      mload(0x40)\n      tag_15\n      swap2\n      swap1\n      tag_10\n      jump\t// in\n    tag_15:\n      mload(0x40)\n      dup1\n      swap2\n      sub\n      swap1\n      return\n        /* \"contracts/Lesson8Trees.sol\":89:112  bytes32[] public hashes */\n    tag_8:\n      0x00\n      dup2\n      dup2\n      sload\n      dup2\n      lt\n      tag_16\n      jumpi\n      0x00\n      dup1\n      revert\n    tag_16:\n      swap1\n      0x00\n      mstore\n      keccak256(0x00, 0x20)\n      add\n      0x00\n      swap2\n      pop\n      swap1\n      pop\n      sload\n      dup2\n      jump\t// out\n        /* \"contracts/Lesson8Trees.sol\":880:1026  function getHash(string memory input) public pure returns(bytes32){... */\n    tag_14:\n        /* \"contracts/Lesson8Trees.sol\":938:945  bytes32 */\n      0x00\n        /* \"contracts/Lesson8Trees.sol\":1003:1008  input */\n      dup2\n        /* \"contracts/Lesson8Trees.sol\":986:1009  abi.encodePacked(input) */\n      add(0x20, mload(0x40))\n      tag_19\n      swap2\n      swap1\n      tag_20\n      jump\t// in\n    tag_19:\n      mload(0x40)\n      0x20\n      dup2\n      dup4\n      sub\n      sub\n      dup2\n      mstore\n      swap1\n      0x40\n      mstore\n        /* \"contracts/Lesson8Trees.sol\":963:1019  keccak256(... */\n      dup1\n      mload\n      swap1\n      0x20\n      add\n      keccak256\n        /* \"contracts/Lesson8Trees.sol\":956:1019  return keccak256(... */\n      swap1\n      pop\n        /* \"contracts/Lesson8Trees.sol\":880:1026  function getHash(string memory input) public pure returns(bytes32){... */\n      swap2\n      swap1\n      pop\n      jump\t// out\n        /* \"#utility.yul\":7:419   */\n    tag_22:\n        /* \"#utility.yul\":85:90   */\n      0x00\n        /* \"#utility.yul\":110:176   */\n      tag_24\n        /* \"#utility.yul\":126:175   */\n      tag_25\n        /* \"#utility.yul\":168:174   */\n      dup5\n        /* \"#utility.yul\":126:175   */\n      tag_26\n      jump\t// in\n    tag_25:\n        /* \"#utility.yul\":110:176   */\n      tag_27\n      jump\t// in\n    tag_24:\n        /* \"#utility.yul\":101:176   */\n      swap1\n      pop\n        /* \"#utility.yul\":199:205   */\n      dup3\n        /* \"#utility.yul\":192:197   */\n      dup2\n        /* \"#utility.yul\":185:206   */\n      mstore\n        /* \"#utility.yul\":237:241   */\n      0x20\n        /* \"#utility.yul\":230:235   */\n      dup2\n        /* \"#utility.yul\":226:242   */\n      add\n        /* \"#utility.yul\":275:278   */\n      dup5\n        /* \"#utility.yul\":266:272   */\n      dup5\n        /* \"#utility.yul\":261:264   */\n      dup5\n        /* \"#utility.yul\":257:273   */\n      add\n        /* \"#utility.yul\":254:279   */\n      gt\n        /* \"#utility.yul\":251:363   */\n      iszero\n      tag_28\n      jumpi\n        /* \"#utility.yul\":282:361   */\n      tag_29\n      tag_30\n      jump\t// in\n    tag_29:\n        /* \"#utility.yul\":251:363   */\n    tag_28:\n        /* \"#utility.yul\":372:413   */\n      tag_31\n        /* \"#utility.yul\":406:412   */\n      dup5\n        /* \"#utility.yul\":401:404   */\n      dup3\n        /* \"#utility.yul\":396:399   */\n      dup6\n        /* \"#utility.yul\":372:413   */\n      tag_32\n      jump\t// in\n    tag_31:\n        /* \"#utility.yul\":91:419   */\n      pop\n        /* \"#utility.yul\":7:419   */\n      swap4\n      swap3\n      pop\n      pop\n      pop\n      jump\t// out\n        /* \"#utility.yul\":439:779   */\n    tag_33:\n        /* \"#utility.yul\":495:500   */\n      0x00\n        /* \"#utility.yul\":544:547   */\n      dup3\n        /* \"#utility.yul\":537:541   */\n      0x1f\n        /* \"#utility.yul\":529:535   */\n      dup4\n        /* \"#utility.yul\":525:542   */\n      add\n        /* \"#utility.yul\":521:548   */\n      slt\n        /* \"#utility.yul\":511:633   */\n      tag_35\n      jumpi\n        /* \"#utility.yul\":552:631   */\n      tag_36\n      tag_37\n      jump\t// in\n    tag_36:\n        /* \"#utility.yul\":511:633   */\n    tag_35:\n        /* \"#utility.yul\":669:675   */\n      dup2\n        /* \"#utility.yul\":656:676   */\n      calldataload\n        /* \"#utility.yul\":694:773   */\n      tag_38\n        /* \"#utility.yul\":769:772   */\n      dup5\n        /* \"#utility.yul\":761:767   */\n      dup3\n        /* \"#utility.yul\":754:758   */\n      0x20\n        /* \"#utility.yul\":746:752   */\n      dup7\n        /* \"#utility.yul\":742:759   */\n      add\n        /* \"#utility.yul\":694:773   */\n      tag_22\n      jump\t// in\n    tag_38:\n        /* \"#utility.yul\":685:773   */\n      swap2\n      pop\n        /* \"#utility.yul\":501:779   */\n      pop\n        /* \"#utility.yul\":439:779   */\n      swap3\n      swap2\n      pop\n      pop\n      jump\t// out\n        /* \"#utility.yul\":785:924   */\n    tag_39:\n        /* \"#utility.yul\":831:836   */\n      0x00\n        /* \"#utility.yul\":869:875   */\n      dup2\n        /* \"#utility.yul\":856:876   */\n      calldataload\n        /* \"#utility.yul\":847:876   */\n      swap1\n      pop\n        /* \"#utility.yul\":885:918   */\n      tag_41\n        /* \"#utility.yul\":912:917   */\n      dup2\n        /* \"#utility.yul\":885:918   */\n      tag_42\n      jump\t// in\n    tag_41:\n        /* \"#utility.yul\":785:924   */\n      swap3\n      swap2\n      pop\n      pop\n      jump\t// out\n        /* \"#utility.yul\":930:1439   */\n    tag_13:\n        /* \"#utility.yul\":999:1005   */\n      0x00\n        /* \"#utility.yul\":1048:1050   */\n      0x20\n        /* \"#utility.yul\":1036:1045   */\n      dup3\n        /* \"#utility.yul\":1027:1034   */\n      dup5\n        /* \"#utility.yul\":1023:1046   */\n      sub\n        /* \"#utility.yul\":1019:1051   */\n      slt\n        /* \"#utility.yul\":1016:1135   */\n      iszero\n      tag_44\n      jumpi\n        /* \"#utility.yul\":1054:1133   */\n      tag_45\n      tag_46\n      jump\t// in\n    tag_45:\n        /* \"#utility.yul\":1016:1135   */\n    tag_44:\n        /* \"#utility.yul\":1202:1203   */\n      0x00\n        /* \"#utility.yul\":1191:1200   */\n      dup3\n        /* \"#utility.yul\":1187:1204   */\n      add\n        /* \"#utility.yul\":1174:1205   */\n      calldataload\n        /* \"#utility.yul\":1232:1250   */\n      0xffffffffffffffff\n        /* \"#utility.yul\":1224:1230   */\n      dup2\n        /* \"#utility.yul\":1221:1251   */\n      gt\n        /* \"#utility.yul\":1218:1335   */\n      iszero\n      tag_47\n      jumpi\n        /* \"#utility.yul\":1254:1333   */\n      tag_48\n      tag_49\n      jump\t// in\n    tag_48:\n        /* \"#utility.yul\":1218:1335   */\n    tag_47:\n        /* \"#utility.yul\":1359:1422   */\n      tag_50\n        /* \"#utility.yul\":1414:1421   */\n      dup5\n        /* \"#utility.yul\":1405:1411   */\n      dup3\n        /* \"#utility.yul\":1394:1403   */\n      dup6\n        /* \"#utility.yul\":1390:1412   */\n      add\n        /* \"#utility.yul\":1359:1422   */\n      tag_33\n      jump\t// in\n    tag_50:\n        /* \"#utility.yul\":1349:1422   */\n      swap2\n      pop\n        /* \"#utility.yul\":1145:1432   */\n      pop\n        /* \"#utility.yul\":930:1439   */\n      swap3\n      swap2\n      pop\n      pop\n      jump\t// out\n        /* \"#utility.yul\":1445:1774   */\n    tag_7:\n        /* \"#utility.yul\":1504:1510   */\n      0x00\n        /* \"#utility.yul\":1553:1555   */\n      0x20\n        /* \"#utility.yul\":1541:1550   */\n      dup3\n        /* \"#utility.yul\":1532:1539   */\n      dup5\n        /* \"#utility.yul\":1528:1551   */\n      sub\n        /* \"#utility.yul\":1524:1556   */\n      slt\n        /* \"#utility.yul\":1521:1640   */\n      iszero\n      tag_52\n      jumpi\n        /* \"#utility.yul\":1559:1638   */\n      tag_53\n      tag_46\n      jump\t// in\n    tag_53:\n        /* \"#utility.yul\":1521:1640   */\n    tag_52:\n        /* \"#utility.yul\":1679:1680   */\n      0x00\n        /* \"#utility.yul\":1704:1757   */\n      tag_54\n        /* \"#utility.yul\":1749:1756   */\n      dup5\n        /* \"#utility.yul\":1740:1746   */\n      dup3\n        /* \"#utility.yul\":1729:1738   */\n      dup6\n        /* \"#utility.yul\":1725:1747   */\n      add\n        /* \"#utility.yul\":1704:1757   */\n      tag_39\n      jump\t// in\n    tag_54:\n        /* \"#utility.yul\":1694:1757   */\n      swap2\n      pop\n        /* \"#utility.yul\":1650:1767   */\n      pop\n        /* \"#utility.yul\":1445:1774   */\n      swap3\n      swap2\n      pop\n      pop\n      jump\t// out\n        /* \"#utility.yul\":1780:1898   */\n    tag_55:\n        /* \"#utility.yul\":1867:1891   */\n      tag_57\n        /* \"#utility.yul\":1885:1890   */\n      dup2\n        /* \"#utility.yul\":1867:1891   */\n      tag_58\n      jump\t// in\n    tag_57:\n        /* \"#utility.yul\":1862:1865   */\n      dup3\n        /* \"#utility.yul\":1855:1892   */\n      mstore\n        /* \"#utility.yul\":1780:1898   */\n      pop\n      pop\n      jump\t// out\n        /* \"#utility.yul\":1904:2281   */\n    tag_59:\n        /* \"#utility.yul\":2010:2013   */\n      0x00\n        /* \"#utility.yul\":2038:2077   */\n      tag_61\n        /* \"#utility.yul\":2071:2076   */\n      dup3\n        /* \"#utility.yul\":2038:2077   */\n      tag_62\n      jump\t// in\n    tag_61:\n        /* \"#utility.yul\":2093:2182   */\n      tag_63\n        /* \"#utility.yul\":2175:2181   */\n      dup2\n        /* \"#utility.yul\":2170:2173   */\n      dup6\n        /* \"#utility.yul\":2093:2182   */\n      tag_64\n      jump\t// in\n    tag_63:\n        /* \"#utility.yul\":2086:2182   */\n      swap4\n      pop\n        /* \"#utility.yul\":2191:2243   */\n      tag_65\n        /* \"#utility.yul\":2236:2242   */\n      dup2\n        /* \"#utility.yul\":2231:2234   */\n      dup6\n        /* \"#utility.yul\":2224:2228   */\n      0x20\n        /* \"#utility.yul\":2217:2222   */\n      dup7\n        /* \"#utility.yul\":2213:2229   */\n      add\n        /* \"#utility.yul\":2191:2243   */\n      tag_66\n      jump\t// in\n    tag_65:\n        /* \"#utility.yul\":2268:2274   */\n      dup1\n        /* \"#utility.yul\":2263:2266   */\n      dup5\n        /* \"#utility.yul\":2259:2275   */\n      add\n        /* \"#utility.yul\":2252:2275   */\n      swap2\n      pop\n        /* \"#utility.yul\":2014:2281   */\n      pop\n        /* \"#utility.yul\":1904:2281   */\n      swap3\n      swap2\n      pop\n      pop\n      jump\t// out\n        /* \"#utility.yul\":2287:2562   */\n    tag_20:\n        /* \"#utility.yul\":2419:2422   */\n      0x00\n        /* \"#utility.yul\":2441:2536   */\n      tag_68\n        /* \"#utility.yul\":2532:2535   */\n      dup3\n        /* \"#utility.yul\":2523:2529   */\n      dup5\n        /* \"#utility.yul\":2441:2536   */\n      tag_59\n      jump\t// in\n    tag_68:\n        /* \"#utility.yul\":2434:2536   */\n      swap2\n      pop\n        /* \"#utility.yul\":2553:2556   */\n      dup2\n        /* \"#utility.yul\":2546:2556   */\n      swap1\n      pop\n        /* \"#utility.yul\":2287:2562   */\n      swap3\n      swap2\n      pop\n      pop\n      jump\t// out\n        /* \"#utility.yul\":2568:2790   */\n    tag_10:\n        /* \"#utility.yul\":2661:2665   */\n      0x00\n        /* \"#utility.yul\":2699:2701   */\n      0x20\n        /* \"#utility.yul\":2688:2697   */\n      dup3\n        /* \"#utility.yul\":2684:2702   */\n      add\n        /* \"#utility.yul\":2676:2702   */\n      swap1\n      pop\n        /* \"#utility.yul\":2712:2783   */\n      tag_70\n        /* \"#utility.yul\":2780:2781   */\n      0x00\n        /* \"#utility.yul\":2769:2778   */\n      dup4\n        /* \"#utility.yul\":2765:2782   */\n      add\n        /* \"#utility.yul\":2756:2762   */\n      dup5\n        /* \"#utility.yul\":2712:2783   */\n      tag_55\n      jump\t// in\n    tag_70:\n        /* \"#utility.yul\":2568:2790   */\n      swap3\n      swap2\n      pop\n      pop\n      jump\t// out\n        /* \"#utility.yul\":2796:2925   */\n    tag_27:\n        /* \"#utility.yul\":2830:2836   */\n      0x00\n        /* \"#utility.yul\":2857:2877   */\n      tag_72\n      tag_73\n      jump\t// in\n    tag_72:\n        /* \"#utility.yul\":2847:2877   */\n      swap1\n      pop\n        /* \"#utility.yul\":2886:2919   */\n      tag_74\n        /* \"#utility.yul\":2914:2918   */\n      dup3\n        /* \"#utility.yul\":2906:2912   */\n      dup3\n        /* \"#utility.yul\":2886:2919   */\n      tag_75\n      jump\t// in\n    tag_74:\n        /* \"#utility.yul\":2796:2925   */\n      swap2\n      swap1\n      pop\n      jump\t// out\n        /* \"#utility.yul\":2931:3006   */\n    tag_73:\n        /* \"#utility.yul\":2964:2970   */\n      0x00\n        /* \"#utility.yul\":2997:2999   */\n      0x40\n        /* \"#utility.yul\":2991:3000   */\n      mload\n        /* \"#utility.yul\":2981:3000   */\n      swap1\n      pop\n        /* \"#utility.yul\":2931:3006   */\n      swap1\n      jump\t// out\n        /* \"#utility.yul\":3012:3320   */\n    tag_26:\n        /* \"#utility.yul\":3074:3078   */\n      0x00\n        /* \"#utility.yul\":3164:3182   */\n      0xffffffffffffffff\n        /* \"#utility.yul\":3156:3162   */\n      dup3\n        /* \"#utility.yul\":3153:3183   */\n      gt\n        /* \"#utility.yul\":3150:3206   */\n      iszero\n      tag_78\n      jumpi\n        /* \"#utility.yul\":3186:3204   */\n      tag_79\n      tag_80\n      jump\t// in\n    tag_79:\n        /* \"#utility.yul\":3150:3206   */\n    tag_78:\n        /* \"#utility.yul\":3224:3253   */\n      tag_81\n        /* \"#utility.yul\":3246:3252   */\n      dup3\n        /* \"#utility.yul\":3224:3253   */\n      tag_82\n      jump\t// in\n    tag_81:\n        /* \"#utility.yul\":3216:3253   */\n      swap1\n      pop\n        /* \"#utility.yul\":3308:3312   */\n      0x20\n        /* \"#utility.yul\":3302:3306   */\n      dup2\n        /* \"#utility.yul\":3298:3313   */\n      add\n        /* \"#utility.yul\":3290:3313   */\n      swap1\n      pop\n        /* \"#utility.yul\":3012:3320   */\n      swap2\n      swap1\n      pop\n      jump\t// out\n        /* \"#utility.yul\":3326:3425   */\n    tag_62:\n        /* \"#utility.yul\":3378:3384   */\n      0x00\n        /* \"#utility.yul\":3412:3417   */\n      dup2\n        /* \"#utility.yul\":3406:3418   */\n      mload\n        /* \"#utility.yul\":3396:3418   */\n      swap1\n      pop\n        /* \"#utility.yul\":3326:3425   */\n      swap2\n      swap1\n      pop\n      jump\t// out\n        /* \"#utility.yul\":3431:3579   */\n    tag_64:\n        /* \"#utility.yul\":3533:3544   */\n      0x00\n        /* \"#utility.yul\":3570:3573   */\n      dup2\n        /* \"#utility.yul\":3555:3573   */\n      swap1\n      pop\n        /* \"#utility.yul\":3431:3579   */\n      swap3\n      swap2\n      pop\n      pop\n      jump\t// out\n        /* \"#utility.yul\":3585:3662   */\n    tag_58:\n        /* \"#utility.yul\":3622:3629   */\n      0x00\n        /* \"#utility.yul\":3651:3656   */\n      dup2\n        /* \"#utility.yul\":3640:3656   */\n      swap1\n      pop\n        /* \"#utility.yul\":3585:3662   */\n      swap2\n      swap1\n      pop\n      jump\t// out\n        /* \"#utility.yul\":3668:3745   */\n    tag_86:\n        /* \"#utility.yul\":3705:3712   */\n      0x00\n        /* \"#utility.yul\":3734:3739   */\n      dup2\n        /* \"#utility.yul\":3723:3739   */\n      swap1\n      pop\n        /* \"#utility.yul\":3668:3745   */\n      swap2\n      swap1\n      pop\n      jump\t// out\n        /* \"#utility.yul\":3751:3905   */\n    tag_32:\n        /* \"#utility.yul\":3835:3841   */\n      dup3\n        /* \"#utility.yul\":3830:3833   */\n      dup2\n        /* \"#utility.yul\":3825:3828   */\n      dup4\n        /* \"#utility.yul\":3812:3842   */\n      calldatacopy\n        /* \"#utility.yul\":3897:3898   */\n      0x00\n        /* \"#utility.yul\":3888:3894   */\n      dup4\n        /* \"#utility.yul\":3883:3886   */\n      dup4\n        /* \"#utility.yul\":3879:3895   */\n      add\n        /* \"#utility.yul\":3872:3899   */\n      mstore\n        /* \"#utility.yul\":3751:3905   */\n      pop\n      pop\n      pop\n      jump\t// out\n        /* \"#utility.yul\":3911:4218   */\n    tag_66:\n        /* \"#utility.yul\":3979:3980   */\n      0x00\n        /* \"#utility.yul\":3989:4102   */\n    tag_90:\n        /* \"#utility.yul\":4003:4009   */\n      dup4\n        /* \"#utility.yul\":4000:4001   */\n      dup2\n        /* \"#utility.yul\":3997:4010   */\n      lt\n        /* \"#utility.yul\":3989:4102   */\n      iszero\n      tag_92\n      jumpi\n        /* \"#utility.yul\":4088:4089   */\n      dup1\n        /* \"#utility.yul\":4083:4086   */\n      dup3\n        /* \"#utility.yul\":4079:4090   */\n      add\n        /* \"#utility.yul\":4073:4091   */\n      mload\n        /* \"#utility.yul\":4069:4070   */\n      dup2\n        /* \"#utility.yul\":4064:4067   */\n      dup5\n        /* \"#utility.yul\":4060:4071   */\n      add\n        /* \"#utility.yul\":4053:4092   */\n      mstore\n        /* \"#utility.yul\":4025:4027   */\n      0x20\n        /* \"#utility.yul\":4022:4023   */\n      dup2\n        /* \"#utility.yul\":4018:4028   */\n      add\n        /* \"#utility.yul\":4013:4028   */\n      swap1\n      pop\n        /* \"#utility.yul\":3989:4102   */\n      jump(tag_90)\n    tag_92:\n        /* \"#utility.yul\":4120:4126   */\n      dup4\n        /* \"#utility.yul\":4117:4118   */\n      dup2\n        /* \"#utility.yul\":4114:4127   */\n      gt\n        /* \"#utility.yul\":4111:4212   */\n      iszero\n      tag_93\n      jumpi\n        /* \"#utility.yul\":4200:4201   */\n      0x00\n        /* \"#utility.yul\":4191:4197   */\n      dup5\n        /* \"#utility.yul\":4186:4189   */\n      dup5\n        /* \"#utility.yul\":4182:4198   */\n      add\n        /* \"#utility.yul\":4175:4202   */\n      mstore\n        /* \"#utility.yul\":4111:4212   */\n    tag_93:\n        /* \"#utility.yul\":3960:4218   */\n      pop\n        /* \"#utility.yul\":3911:4218   */\n      pop\n      pop\n      pop\n      jump\t// out\n        /* \"#utility.yul\":4224:4505   */\n    tag_75:\n        /* \"#utility.yul\":4307:4334   */\n      tag_95\n        /* \"#utility.yul\":4329:4333   */\n      dup3\n        /* \"#utility.yul\":4307:4334   */\n      tag_82\n      jump\t// in\n    tag_95:\n        /* \"#utility.yul\":4299:4305   */\n      dup2\n        /* \"#utility.yul\":4295:4335   */\n      add\n        /* \"#utility.yul\":4437:4443   */\n      dup2\n        /* \"#utility.yul\":4425:4435   */\n      dup2\n        /* \"#utility.yul\":4422:4444   */\n      lt\n        /* \"#utility.yul\":4401:4419   */\n      0xffffffffffffffff\n        /* \"#utility.yul\":4389:4399   */\n      dup3\n        /* \"#utility.yul\":4386:4420   */\n      gt\n        /* \"#utility.yul\":4383:4445   */\n      or\n        /* \"#utility.yul\":4380:4468   */\n      iszero\n      tag_96\n      jumpi\n        /* \"#utility.yul\":4448:4466   */\n      tag_97\n      tag_80\n      jump\t// in\n    tag_97:\n        /* \"#utility.yul\":4380:4468   */\n    tag_96:\n        /* \"#utility.yul\":4488:4498   */\n      dup1\n        /* \"#utility.yul\":4484:4486   */\n      0x40\n        /* \"#utility.yul\":4477:4499   */\n      mstore\n        /* \"#utility.yul\":4267:4505   */\n      pop\n        /* \"#utility.yul\":4224:4505   */\n      pop\n      pop\n      jump\t// out\n        /* \"#utility.yul\":4511:4691   */\n    tag_80:\n        /* \"#utility.yul\":4559:4636   */\n      0x4e487b7100000000000000000000000000000000000000000000000000000000\n        /* \"#utility.yul\":4556:4557   */\n      0x00\n        /* \"#utility.yul\":4549:4637   */\n      mstore\n        /* \"#utility.yul\":4656:4660   */\n      0x41\n        /* \"#utility.yul\":4653:4654   */\n      0x04\n        /* \"#utility.yul\":4646:4661   */\n      mstore\n        /* \"#utility.yul\":4680:4684   */\n      0x24\n        /* \"#utility.yul\":4677:4678   */\n      0x00\n        /* \"#utility.yul\":4670:4685   */\n      revert\n        /* \"#utility.yul\":4697:4814   */\n    tag_37:\n        /* \"#utility.yul\":4806:4807   */\n      0x00\n        /* \"#utility.yul\":4803:4804   */\n      dup1\n        /* \"#utility.yul\":4796:4808   */\n      revert\n        /* \"#utility.yul\":4820:4937   */\n    tag_30:\n        /* \"#utility.yul\":4929:4930   */\n      0x00\n        /* \"#utility.yul\":4926:4927   */\n      dup1\n        /* \"#utility.yul\":4919:4931   */\n      revert\n        /* \"#utility.yul\":4943:5060   */\n    tag_49:\n        /* \"#utility.yul\":5052:5053   */\n      0x00\n        /* \"#utility.yul\":5049:5050   */\n      dup1\n        /* \"#utility.yul\":5042:5054   */\n      revert\n        /* \"#utility.yul\":5066:5183   */\n    tag_46:\n        /* \"#utility.yul\":5175:5176   */\n      0x00\n        /* \"#utility.yul\":5172:5173   */\n      dup1\n        /* \"#utility.yul\":5165:5177   */\n      revert\n        /* \"#utility.yul\":5189:5291   */\n    tag_82:\n        /* \"#utility.yul\":5230:5236   */\n      0x00\n        /* \"#utility.yul\":5281:5283   */\n      0x1f\n        /* \"#utility.yul\":5277:5284   */\n      not\n        /* \"#utility.yul\":5272:5274   */\n      0x1f\n        /* \"#utility.yul\":5265:5270   */\n      dup4\n        /* \"#utility.yul\":5261:5275   */\n      add\n        /* \"#utility.yul\":5257:5285   */\n      and\n        /* \"#utility.yul\":5247:5285   */\n      swap1\n      pop\n        /* \"#utility.yul\":5189:5291   */\n      swap2\n      swap1\n      pop\n      jump\t// out\n        /* \"#utility.yul\":5297:5419   */\n    tag_42:\n        /* \"#utility.yul\":5370:5394   */\n      tag_105\n        /* \"#utility.yul\":5388:5393   */\n      dup2\n        /* \"#utility.yul\":5370:5394   */\n      tag_86\n      jump\t// in\n    tag_105:\n        /* \"#utility.yul\":5363:5368   */\n      dup2\n        /* \"#utility.yul\":5360:5395   */\n      eq\n        /* \"#utility.yul\":5350:5413   */\n      tag_106\n      jumpi\n        /* \"#utility.yul\":5409:5410   */\n      0x00\n        /* \"#utility.yul\":5406:5407   */\n      dup1\n        /* \"#utility.yul\":5399:5411   */\n      revert\n        /* \"#utility.yul\":5350:5413   */\n    tag_106:\n        /* \"#utility.yul\":5297:5419   */\n      pop\n      jump\t// out\n\n    auxdata: 0xa26469706673582212206e5ba630e64fcaa4b666754c1fe265761c6d93940f1c819567ea445b6c8264f864736f6c63430008070033\n}\n",
				"bytecode": {
					"linkReferences": {},
					"object": "608060405260405180608001604052806040518060400160405280601d81526020017f5472616e73616374696f6e313a20313036303231203e2032353535343300000081525081526020016040518060400160405280601d81526020017f5472616e73616374696f6e323a20323535353433203e2031323233343500000081525081526020016040518060400160405280601d81526020017f5472616e73616374696f6e333a20313232333435203e2035363433333400000081525081526020016040518060400160405280601d81526020017f5472616e73616374696f6e343a20353634333334203e2031303630323100000081525081525060019060046200010b92919062000381565b503480156200011957600080fd5b5060005b60048110156200021e576000620001e260018360048110620001445762000143620007df565b5b0180546200015290620006c4565b80601f01602080910402602001604051908101604052809291908181526020018280546200018090620006c4565b8015620001d15780601f10620001a557610100808354040283529160200191620001d1565b820191906000526020600020905b815481529060010190602001808311620001b357829003601f168201915b50505050506200034f60201b60201c565b908060018154018082558091505060019003906000526020600020016000909190919091505580806200021590620006fa565b9150506200011d565b5060006004905060005b6000821115620003475760005b6001836200024491906200063f565b8110156200031f5760008082846200025d9190620005aa565b81548110620002715762000270620007df565b5b90600052602060002001546000600184866200028e9190620005aa565b6200029a9190620005aa565b81548110620002ae57620002ad620007df565b5b9060005260206000200154604051602001620002cc9291906200054b565b604051602081830303815290604052805190602001209080600181540180825580915050600190039060005260206000200160009091909190915055600281620003179190620005aa565b905062000235565b5081816200032e9190620005aa565b90506002826200033f919062000607565b915062000228565b50506200080e565b6000816040516020016200036491906200057b565b604051602081830303815290604052805190602001209050919050565b8260048101928215620003c8579160200282015b82811115620003c7578251829080519060200190620003b6929190620003db565b509160200191906001019062000395565b5b509050620003d791906200046c565b5090565b828054620003e990620006c4565b90600052602060002090601f0160209004810192826200040d576000855562000459565b82601f106200042857805160ff191683800117855562000459565b8280016001018555821562000459579182015b82811115620004585782518255916020019190600101906200043b565b5b50905062000468919062000494565b5090565b5b80821115620004905760008181620004869190620004b3565b506001016200046d565b5090565b5b80821115620004af57600081600090555060010162000495565b5090565b508054620004c190620006c4565b6000825580601f10620004d55750620004f6565b601f016020900490600052602060002090810190620004f5919062000494565b5b50565b6200050e62000508826200067a565b62000748565b82525050565b6000620005218262000594565b6200052d81856200059f565b93506200053f8185602086016200068e565b80840191505092915050565b6000620005598285620004f9565b6020820191506200056b8284620004f9565b6020820191508190509392505050565b600062000589828462000514565b915081905092915050565b600081519050919050565b600081905092915050565b6000620005b78262000684565b9150620005c48362000684565b9250827fffffffffffffffffffffffffffffffffffffffffffffffffffffffffffffffff03821115620005fc57620005fb62000752565b5b828201905092915050565b6000620006148262000684565b9150620006218362000684565b92508262000634576200063362000781565b5b828204905092915050565b60006200064c8262000684565b9150620006598362000684565b9250828210156200066f576200066e62000752565b5b828203905092915050565b6000819050919050565b6000819050919050565b60005b83811015620006ae57808201518184015260208101905062000691565b83811115620006be576000848401525b50505050565b60006002820490506001821680620006dd57607f821691505b60208210811415620006f457620006f3620007b0565b5b50919050565b6000620007078262000684565b91507fffffffffffffffffffffffffffffffffffffffffffffffffffffffffffffffff8214156200073d576200073c62000752565b5b600182019050919050565b6000819050919050565b7f4e487b7100000000000000000000000000000000000000000000000000000000600052601160045260246000fd5b7f4e487b7100000000000000000000000000000000000000000000000000000000600052601260045260246000fd5b7f4e487b7100000000000000000000000000000000000000000000000000000000600052602260045260246000fd5b7f4e487b7100000000000000000000000000000000000000000000000000000000600052603260045260246000fd5b6103f0806200081e6000396000f3fe608060405234801561001057600080fd5b50600436106100365760003560e01c8063501895ae1461003b5780635b6beeb91461006b575b600080fd5b610055600480360381019061005091906101bd565b61009b565b6040516100629190610241565b60405180910390f35b61008560048036038101906100809190610174565b6100bf565b6040516100929190610241565b60405180910390f35b600081815481106100ab57600080fd5b906000526020600020016000915090505481565b6000816040516020016100d2919061022a565b604051602081830303815290604052805190602001209050919050565b60006101026100fd84610281565b61025c565b90508281526020810184848401111561011e5761011d610383565b5b6101298482856102dc565b509392505050565b600082601f8301126101465761014561037e565b5b81356101568482602086016100ef565b91505092915050565b60008135905061016e816103a3565b92915050565b60006020828403121561018a5761018961038d565b5b600082013567ffffffffffffffff8111156101a8576101a7610388565b5b6101b484828501610131565b91505092915050565b6000602082840312156101d3576101d261038d565b5b60006101e18482850161015f565b91505092915050565b6101f3816102c8565b82525050565b6000610204826102b2565b61020e81856102bd565b935061021e8185602086016102eb565b80840191505092915050565b600061023682846101f9565b915081905092915050565b600060208201905061025660008301846101ea565b92915050565b6000610266610277565b9050610272828261031e565b919050565b6000604051905090565b600067ffffffffffffffff82111561029c5761029b61034f565b5b6102a582610392565b9050602081019050919050565b600081519050919050565b600081905092915050565b6000819050919050565b6000819050919050565b82818337600083830152505050565b60005b838110156103095780820151818401526020810190506102ee565b83811115610318576000848401525b50505050565b61032782610392565b810181811067ffffffffffffffff821117156103465761034561034f565b5b80604052505050565b7f4e487b7100000000000000000000000000000000000000000000000000000000600052604160045260246000fd5b600080fd5b600080fd5b600080fd5b600080fd5b6000601f19601f8301169050919050565b6103ac816102d2565b81146103b757600080fd5b5056fea26469706673582212206e5ba630e64fcaa4b666754c1fe265761c6d93940f1c819567ea445b6c8264f864736f6c63430008070033",
					"opcodes": "PUSH1 0x80 PUSH1 0x40 MSTORE PUSH1 0x40 MLOAD DUP1 PUSH1 0x80 ADD PUSH1 0x40 MSTORE DUP1 PUSH1 0x40 MLOAD DUP1 PUSH1 0x40 ADD PUSH1 0x40 MSTORE DUP1 PUSH1 0x1D DUP2 MSTORE PUSH1 0x20 ADD PUSH32 0x5472616E73616374696F6E313A20313036303231203E20323535353433000000 DUP2 MSTORE POP DUP2 MSTORE PUSH1 0x20 ADD PUSH1 0x40 MLOAD DUP1 PUSH1 0x40 ADD PUSH1 0x40 MSTORE DUP1 PUSH1 0x1D DUP2 MSTORE PUSH1 0x20 ADD PUSH32 0x5472616E73616374696F6E323A20323535353433203E20313232333435000000 DUP2 MSTORE POP DUP2 MSTORE PUSH1 0x20 ADD PUSH1 0x40 MLOAD DUP1 PUSH1 0x40 ADD PUSH1 0x40 MSTORE DUP1 PUSH1 0x1D DUP2 MSTORE PUSH1 0x20 ADD PUSH32 0x5472616E73616374696F6E333A20313232333435203E20353634333334000000 DUP2 MSTORE POP DUP2 MSTORE PUSH1 0x20 ADD PUSH1 0x40 MLOAD DUP1 PUSH1 0x40 ADD PUSH1 0x40 MSTORE DUP1 PUSH1 0x1D DUP2 MSTORE PUSH1 0x20 ADD PUSH32 0x5472616E73616374696F6E343A20353634333334203E20313036303231000000 DUP2 MSTORE POP DUP2 MSTORE POP PUSH1 0x1 SWAP1 PUSH1 0x4 PUSH3 0x10B SWAP3 SWAP2 SWAP1 PUSH3 0x381 JUMP JUMPDEST POP CALLVALUE DUP1 ISZERO PUSH3 0x119 JUMPI PUSH1 0x0 DUP1 REVERT JUMPDEST POP PUSH1 0x0 JUMPDEST PUSH1 0x4 DUP2 LT ISZERO PUSH3 0x21E JUMPI PUSH1 0x0 PUSH3 0x1E2 PUSH1 0x1 DUP4 PUSH1 0x4 DUP2 LT PUSH3 0x144 JUMPI PUSH3 0x143 PUSH3 0x7DF JUMP JUMPDEST JUMPDEST ADD DUP1 SLOAD PUSH3 0x152 SWAP1 PUSH3 0x6C4 JUMP JUMPDEST DUP1 PUSH1 0x1F ADD PUSH1 0x20 DUP1 SWAP2 DIV MUL PUSH1 0x20 ADD PUSH1 0x40 MLOAD SWAP1 DUP2 ADD PUSH1 0x40 MSTORE DUP1 SWAP3 SWAP2 SWAP1 DUP2 DUP2 MSTORE PUSH1 0x20 ADD DUP3 DUP1 SLOAD PUSH3 0x180 SWAP1 PUSH3 0x6C4 JUMP JUMPDEST DUP1 ISZERO PUSH3 0x1D1 JUMPI DUP1 PUSH1 0x1F LT PUSH3 0x1A5 JUMPI PUSH2 0x100 DUP1 DUP4 SLOAD DIV MUL DUP4 MSTORE SWAP2 PUSH1 0x20 ADD SWAP2 PUSH3 0x1D1 JUMP JUMPDEST DUP3 ADD SWAP2 SWAP1 PUSH1 0x0 MSTORE PUSH1 0x20 PUSH1 0x0 KECCAK256 SWAP1 JUMPDEST DUP2 SLOAD DUP2 MSTORE SWAP1 PUSH1 0x1 ADD SWAP1 PUSH1 0x20 ADD DUP1 DUP4 GT PUSH3 0x1B3 JUMPI DUP3 SWAP1 SUB PUSH1 0x1F AND DUP3 ADD SWAP2 JUMPDEST POP POP POP POP POP PUSH3 0x34F PUSH1 0x20 SHL PUSH1 0x20 SHR JUMP JUMPDEST SWAP1 DUP1 PUSH1 0x1 DUP2 SLOAD ADD DUP1 DUP3 SSTORE DUP1 SWAP2 POP POP PUSH1 0x1 SWAP1 SUB SWAP1 PUSH1 0x0 MSTORE PUSH1 0x20 PUSH1 0x0 KECCAK256 ADD PUSH1 0x0 SWAP1 SWAP2 SWAP1 SWAP2 SWAP1 SWAP2 POP SSTORE DUP1 DUP1 PUSH3 0x215 SWAP1 PUSH3 0x6FA JUMP JUMPDEST SWAP2 POP POP PUSH3 0x11D JUMP JUMPDEST POP PUSH1 0x0 PUSH1 0x4 SWAP1 POP PUSH1 0x0 JUMPDEST PUSH1 0x0 DUP3 GT ISZERO PUSH3 0x347 JUMPI PUSH1 0x0 JUMPDEST PUSH1 0x1 DUP4 PUSH3 0x244 SWAP2 SWAP1 PUSH3 0x63F JUMP JUMPDEST DUP2 LT ISZERO PUSH3 0x31F JUMPI PUSH1 0x0 DUP1 DUP3 DUP5 PUSH3 0x25D SWAP2 SWAP1 PUSH3 0x5AA JUMP JUMPDEST DUP2 SLOAD DUP2 LT PUSH3 0x271 JUMPI PUSH3 0x270 PUSH3 0x7DF JUMP JUMPDEST JUMPDEST SWAP1 PUSH1 0x0 MSTORE PUSH1 0x20 PUSH1 0x0 KECCAK256 ADD SLOAD PUSH1 0x0 PUSH1 0x1 DUP5 DUP7 PUSH3 0x28E SWAP2 SWAP1 PUSH3 0x5AA JUMP JUMPDEST PUSH3 0x29A SWAP2 SWAP1 PUSH3 0x5AA JUMP JUMPDEST DUP2 SLOAD DUP2 LT PUSH3 0x2AE JUMPI PUSH3 0x2AD PUSH3 0x7DF JUMP JUMPDEST JUMPDEST SWAP1 PUSH1 0x0 MSTORE PUSH1 0x20 PUSH1 0x0 KECCAK256 ADD SLOAD PUSH1 0x40 MLOAD PUSH1 0x20 ADD PUSH3 0x2CC SWAP3 SWAP2 SWAP1 PUSH3 0x54B JUMP JUMPDEST PUSH1 0x40 MLOAD PUSH1 0x20 DUP2 DUP4 SUB SUB DUP2 MSTORE SWAP1 PUSH1 0x40 MSTORE DUP1 MLOAD SWAP1 PUSH1 0x20 ADD KECCAK256 SWAP1 DUP1 PUSH1 0x1 DUP2 SLOAD ADD DUP1 DUP3 SSTORE DUP1 SWAP2 POP POP PUSH1 0x1 SWAP1 SUB SWAP1 PUSH1 0x0 MSTORE PUSH1 0x20 PUSH1 0x0 KECCAK256 ADD PUSH1 0x0 SWAP1 SWAP2 SWAP1 SWAP2 SWAP1 SWAP2 POP SSTORE PUSH1 0x2 DUP2 PUSH3 0x317 SWAP2 SWAP1 PUSH3 0x5AA JUMP JUMPDEST SWAP1 POP PUSH3 0x235 JUMP JUMPDEST POP DUP2 DUP2 PUSH3 0x32E SWAP2 SWAP1 PUSH3 0x5AA JUMP JUMPDEST SWAP1 POP PUSH1 0x2 DUP3 PUSH3 0x33F SWAP2 SWAP1 PUSH3 0x607 JUMP JUMPDEST SWAP2 POP PUSH3 0x228 JUMP JUMPDEST POP POP PUSH3 0x80E JUMP JUMPDEST PUSH1 0x0 DUP2 PUSH1 0x40 MLOAD PUSH1 0x20 ADD PUSH3 0x364 SWAP2 SWAP1 PUSH3 0x57B JUMP JUMPDEST PUSH1 0x40 MLOAD PUSH1 0x20 DUP2 DUP4 SUB SUB DUP2 MSTORE SWAP1 PUSH1 0x40 MSTORE DUP1 MLOAD SWAP1 PUSH1 0x20 ADD KECCAK256 SWAP1 POP SWAP2 SWAP1 POP JUMP JUMPDEST DUP3 PUSH1 0x4 DUP2 ADD SWAP3 DUP3 ISZERO PUSH3 0x3C8 JUMPI SWAP2 PUSH1 0x20 MUL DUP3 ADD JUMPDEST DUP3 DUP2 GT ISZERO PUSH3 0x3C7 JUMPI DUP3 MLOAD DUP3 SWAP1 DUP1 MLOAD SWAP1 PUSH1 0x20 ADD SWAP1 PUSH3 0x3B6 SWAP3 SWAP2 SWAP1 PUSH3 0x3DB JUMP JUMPDEST POP SWAP2 PUSH1 0x20 ADD SWAP2 SWAP1 PUSH1 0x1 ADD SWAP1 PUSH3 0x395 JUMP JUMPDEST JUMPDEST POP SWAP1 POP PUSH3 0x3D7 SWAP2 SWAP1 PUSH3 0x46C JUMP JUMPDEST POP SWAP1 JUMP JUMPDEST DUP3 DUP1 SLOAD PUSH3 0x3E9 SWAP1 PUSH3 0x6C4 JUMP JUMPDEST SWAP1 PUSH1 0x0 MSTORE PUSH1 0x20 PUSH1 0x0 KECCAK256 SWAP1 PUSH1 0x1F ADD PUSH1 0x20 SWAP1 DIV DUP2 ADD SWAP3 DUP3 PUSH3 0x40D JUMPI PUSH1 0x0 DUP6 SSTORE PUSH3 0x459 JUMP JUMPDEST DUP3 PUSH1 0x1F LT PUSH3 0x428 JUMPI DUP1 MLOAD PUSH1 0xFF NOT AND DUP4 DUP1 ADD OR DUP6 SSTORE PUSH3 0x459 JUMP JUMPDEST DUP3 DUP1 ADD PUSH1 0x1 ADD DUP6 SSTORE DUP3 ISZERO PUSH3 0x459 JUMPI SWAP2 DUP3 ADD JUMPDEST DUP3 DUP2 GT ISZERO PUSH3 0x458 JUMPI DUP3 MLOAD DUP3 SSTORE SWAP2 PUSH1 0x20 ADD SWAP2 SWAP1 PUSH1 0x1 ADD SWAP1 PUSH3 0x43B JUMP JUMPDEST JUMPDEST POP SWAP1 POP PUSH3 0x468 SWAP2 SWAP1 PUSH3 0x494 JUMP JUMPDEST POP SWAP1 JUMP JUMPDEST JUMPDEST DUP1 DUP3 GT ISZERO PUSH3 0x490 JUMPI PUSH1 0x0 DUP2 DUP2 PUSH3 0x486 SWAP2 SWAP1 PUSH3 0x4B3 JUMP JUMPDEST POP PUSH1 0x1 ADD PUSH3 0x46D JUMP JUMPDEST POP SWAP1 JUMP JUMPDEST JUMPDEST DUP1 DUP3 GT ISZERO PUSH3 0x4AF JUMPI PUSH1 0x0 DUP2 PUSH1 0x0 SWAP1 SSTORE POP PUSH1 0x1 ADD PUSH3 0x495 JUMP JUMPDEST POP SWAP1 JUMP JUMPDEST POP DUP1 SLOAD PUSH3 0x4C1 SWAP1 PUSH3 0x6C4 JUMP JUMPDEST PUSH1 0x0 DUP3 SSTORE DUP1 PUSH1 0x1F LT PUSH3 0x4D5 JUMPI POP PUSH3 0x4F6 JUMP JUMPDEST PUSH1 0x1F ADD PUSH1 0x20 SWAP1 DIV SWAP1 PUSH1 0x0 MSTORE PUSH1 0x20 PUSH1 0x0 KECCAK256 SWAP1 DUP2 ADD SWAP1 PUSH3 0x4F5 SWAP2 SWAP1 PUSH3 0x494 JUMP JUMPDEST JUMPDEST POP JUMP JUMPDEST PUSH3 0x50E PUSH3 0x508 DUP3 PUSH3 0x67A JUMP JUMPDEST PUSH3 0x748 JUMP JUMPDEST DUP3 MSTORE POP POP JUMP JUMPDEST PUSH1 0x0 PUSH3 0x521 DUP3 PUSH3 0x594 JUMP JUMPDEST PUSH3 0x52D DUP2 DUP6 PUSH3 0x59F JUMP JUMPDEST SWAP4 POP PUSH3 0x53F DUP2 DUP6 PUSH1 0x20 DUP7 ADD PUSH3 0x68E JUMP JUMPDEST DUP1 DUP5 ADD SWAP2 POP POP SWAP3 SWAP2 POP POP JUMP JUMPDEST PUSH1 0x0 PUSH3 0x559 DUP3 DUP6 PUSH3 0x4F9 JUMP JUMPDEST PUSH1 0x20 DUP3 ADD SWAP2 POP PUSH3 0x56B DUP3 DUP5 PUSH3 0x4F9 JUMP JUMPDEST PUSH1 0x20 DUP3 ADD SWAP2 POP DUP2 SWAP1 POP SWAP4 SWAP3 POP POP POP JUMP JUMPDEST PUSH1 0x0 PUSH3 0x589 DUP3 DUP5 PUSH3 0x514 JUMP JUMPDEST SWAP2 POP DUP2 SWAP1 POP SWAP3 SWAP2 POP POP JUMP JUMPDEST PUSH1 0x0 DUP2 MLOAD SWAP1 POP SWAP2 SWAP1 POP JUMP JUMPDEST PUSH1 0x0 DUP2 SWAP1 POP SWAP3 SWAP2 POP POP JUMP JUMPDEST PUSH1 0x0 PUSH3 0x5B7 DUP3 PUSH3 0x684 JUMP JUMPDEST SWAP2 POP PUSH3 0x5C4 DUP4 PUSH3 0x684 JUMP JUMPDEST SWAP3 POP DUP3 PUSH32 0xFFFFFFFFFFFFFFFFFFFFFFFFFFFFFFFFFFFFFFFFFFFFFFFFFFFFFFFFFFFFFFFF SUB DUP3 GT ISZERO PUSH3 0x5FC JUMPI PUSH3 0x5FB PUSH3 0x752 JUMP JUMPDEST JUMPDEST DUP3 DUP3 ADD SWAP1 POP SWAP3 SWAP2 POP POP JUMP JUMPDEST PUSH1 0x0 PUSH3 0x614 DUP3 PUSH3 0x684 JUMP JUMPDEST SWAP2 POP PUSH3 0x621 DUP4 PUSH3 0x684 JUMP JUMPDEST SWAP3 POP DUP3 PUSH3 0x634 JUMPI PUSH3 0x633 PUSH3 0x781 JUMP JUMPDEST JUMPDEST DUP3 DUP3 DIV SWAP1 POP SWAP3 SWAP2 POP POP JUMP JUMPDEST PUSH1 0x0 PUSH3 0x64C DUP3 PUSH3 0x684 JUMP JUMPDEST SWAP2 POP PUSH3 0x659 DUP4 PUSH3 0x684 JUMP JUMPDEST SWAP3 POP DUP3 DUP3 LT ISZERO PUSH3 0x66F JUMPI PUSH3 0x66E PUSH3 0x752 JUMP JUMPDEST JUMPDEST DUP3 DUP3 SUB SWAP1 POP SWAP3 SWAP2 POP POP JUMP JUMPDEST PUSH1 0x0 DUP2 SWAP1 POP SWAP2 SWAP1 POP JUMP JUMPDEST PUSH1 0x0 DUP2 SWAP1 POP SWAP2 SWAP1 POP JUMP JUMPDEST PUSH1 0x0 JUMPDEST DUP4 DUP2 LT ISZERO PUSH3 0x6AE JUMPI DUP1 DUP3 ADD MLOAD DUP2 DUP5 ADD MSTORE PUSH1 0x20 DUP2 ADD SWAP1 POP PUSH3 0x691 JUMP JUMPDEST DUP4 DUP2 GT ISZERO PUSH3 0x6BE JUMPI PUSH1 0x0 DUP5 DUP5 ADD MSTORE JUMPDEST POP POP POP POP JUMP JUMPDEST PUSH1 0x0 PUSH1 0x2 DUP3 DIV SWAP1 POP PUSH1 0x1 DUP3 AND DUP1 PUSH3 0x6DD JUMPI PUSH1 0x7F DUP3 AND SWAP2 POP JUMPDEST PUSH1 0x20 DUP3 LT DUP2 EQ ISZERO PUSH3 0x6F4 JUMPI PUSH3 0x6F3 PUSH3 0x7B0 JUMP JUMPDEST JUMPDEST POP SWAP2 SWAP1 POP JUMP JUMPDEST PUSH1 0x0 PUSH3 0x707 DUP3 PUSH3 0x684 JUMP JUMPDEST SWAP2 POP PUSH32 0xFFFFFFFFFFFFFFFFFFFFFFFFFFFFFFFFFFFFFFFFFFFFFFFFFFFFFFFFFFFFFFFF DUP3 EQ ISZERO PUSH3 0x73D JUMPI PUSH3 0x73C PUSH3 0x752 JUMP JUMPDEST JUMPDEST PUSH1 0x1 DUP3 ADD SWAP1 POP SWAP2 SWAP1 POP JUMP JUMPDEST PUSH1 0x0 DUP2 SWAP1 POP SWAP2 SWAP1 POP JUMP JUMPDEST PUSH32 0x4E487B7100000000000000000000000000000000000000000000000000000000 PUSH1 0x0 MSTORE PUSH1 0x11 PUSH1 0x4 MSTORE PUSH1 0x24 PUSH1 0x0 REVERT JUMPDEST PUSH32 0x4E487B7100000000000000000000000000000000000000000000000000000000 PUSH1 0x0 MSTORE PUSH1 0x12 PUSH1 0x4 MSTORE PUSH1 0x24 PUSH1 0x0 REVERT JUMPDEST PUSH32 0x4E487B7100000000000000000000000000000000000000000000000000000000 PUSH1 0x0 MSTORE PUSH1 0x22 PUSH1 0x4 MSTORE PUSH1 0x24 PUSH1 0x0 REVERT JUMPDEST PUSH32 0x4E487B7100000000000000000000000000000000000000000000000000000000 PUSH1 0x0 MSTORE PUSH1 0x32 PUSH1 0x4 MSTORE PUSH1 0x24 PUSH1 0x0 REVERT JUMPDEST PUSH2 0x3F0 DUP1 PUSH3 0x81E PUSH1 0x0 CODECOPY PUSH1 0x0 RETURN INVALID PUSH1 0x80 PUSH1 0x40 MSTORE CALLVALUE DUP1 ISZERO PUSH2 0x10 JUMPI PUSH1 0x0 DUP1 REVERT JUMPDEST POP PUSH1 0x4 CALLDATASIZE LT PUSH2 0x36 JUMPI PUSH1 0x0 CALLDATALOAD PUSH1 0xE0 SHR DUP1 PUSH4 0x501895AE EQ PUSH2 0x3B JUMPI DUP1 PUSH4 0x5B6BEEB9 EQ PUSH2 0x6B JUMPI JUMPDEST PUSH1 0x0 DUP1 REVERT JUMPDEST PUSH2 0x55 PUSH1 0x4 DUP1 CALLDATASIZE SUB DUP2 ADD SWAP1 PUSH2 0x50 SWAP2 SWAP1 PUSH2 0x1BD JUMP JUMPDEST PUSH2 0x9B JUMP JUMPDEST PUSH1 0x40 MLOAD PUSH2 0x62 SWAP2 SWAP1 PUSH2 0x241 JUMP JUMPDEST PUSH1 0x40 MLOAD DUP1 SWAP2 SUB SWAP1 RETURN JUMPDEST PUSH2 0x85 PUSH1 0x4 DUP1 CALLDATASIZE SUB DUP2 ADD SWAP1 PUSH2 0x80 SWAP2 SWAP1 PUSH2 0x174 JUMP JUMPDEST PUSH2 0xBF JUMP JUMPDEST PUSH1 0x40 MLOAD PUSH2 0x92 SWAP2 SWAP1 PUSH2 0x241 JUMP JUMPDEST PUSH1 0x40 MLOAD DUP1 SWAP2 SUB SWAP1 RETURN JUMPDEST PUSH1 0x0 DUP2 DUP2 SLOAD DUP2 LT PUSH2 0xAB JUMPI PUSH1 0x0 DUP1 REVERT JUMPDEST SWAP1 PUSH1 0x0 MSTORE PUSH1 0x20 PUSH1 0x0 KECCAK256 ADD PUSH1 0x0 SWAP2 POP SWAP1 POP SLOAD DUP2 JUMP JUMPDEST PUSH1 0x0 DUP2 PUSH1 0x40 MLOAD PUSH1 0x20 ADD PUSH2 0xD2 SWAP2 SWAP1 PUSH2 0x22A JUMP JUMPDEST PUSH1 0x40 MLOAD PUSH1 0x20 DUP2 DUP4 SUB SUB DUP2 MSTORE SWAP1 PUSH1 0x40 MSTORE DUP1 MLOAD SWAP1 PUSH1 0x20 ADD KECCAK256 SWAP1 POP SWAP2 SWAP1 POP JUMP JUMPDEST PUSH1 0x0 PUSH2 0x102 PUSH2 0xFD DUP5 PUSH2 0x281 JUMP JUMPDEST PUSH2 0x25C JUMP JUMPDEST SWAP1 POP DUP3 DUP2 MSTORE PUSH1 0x20 DUP2 ADD DUP5 DUP5 DUP5 ADD GT ISZERO PUSH2 0x11E JUMPI PUSH2 0x11D PUSH2 0x383 JUMP JUMPDEST JUMPDEST PUSH2 0x129 DUP5 DUP3 DUP6 PUSH2 0x2DC JUMP JUMPDEST POP SWAP4 SWAP3 POP POP POP JUMP JUMPDEST PUSH1 0x0 DUP3 PUSH1 0x1F DUP4 ADD SLT PUSH2 0x146 JUMPI PUSH2 0x145 PUSH2 0x37E JUMP JUMPDEST JUMPDEST DUP2 CALLDATALOAD PUSH2 0x156 DUP5 DUP3 PUSH1 0x20 DUP7 ADD PUSH2 0xEF JUMP JUMPDEST SWAP2 POP POP SWAP3 SWAP2 POP POP JUMP JUMPDEST PUSH1 0x0 DUP2 CALLDATALOAD SWAP1 POP PUSH2 0x16E DUP2 PUSH2 0x3A3 JUMP JUMPDEST SWAP3 SWAP2 POP POP JUMP JUMPDEST PUSH1 0x0 PUSH1 0x20 DUP3 DUP5 SUB SLT ISZERO PUSH2 0x18A JUMPI PUSH2 0x189 PUSH2 0x38D JUMP JUMPDEST JUMPDEST PUSH1 0x0 DUP3 ADD CALLDATALOAD PUSH8 0xFFFFFFFFFFFFFFFF DUP2 GT ISZERO PUSH2 0x1A8 JUMPI PUSH2 0x1A7 PUSH2 0x388 JUMP JUMPDEST JUMPDEST PUSH2 0x1B4 DUP5 DUP3 DUP6 ADD PUSH2 0x131 JUMP JUMPDEST SWAP2 POP POP SWAP3 SWAP2 POP POP JUMP JUMPDEST PUSH1 0x0 PUSH1 0x20 DUP3 DUP5 SUB SLT ISZERO PUSH2 0x1D3 JUMPI PUSH2 0x1D2 PUSH2 0x38D JUMP JUMPDEST JUMPDEST PUSH1 0x0 PUSH2 0x1E1 DUP5 DUP3 DUP6 ADD PUSH2 0x15F JUMP JUMPDEST SWAP2 POP POP SWAP3 SWAP2 POP POP JUMP JUMPDEST PUSH2 0x1F3 DUP2 PUSH2 0x2C8 JUMP JUMPDEST DUP3 MSTORE POP POP JUMP JUMPDEST PUSH1 0x0 PUSH2 0x204 DUP3 PUSH2 0x2B2 JUMP JUMPDEST PUSH2 0x20E DUP2 DUP6 PUSH2 0x2BD JUMP JUMPDEST SWAP4 POP PUSH2 0x21E DUP2 DUP6 PUSH1 0x20 DUP7 ADD PUSH2 0x2EB JUMP JUMPDEST DUP1 DUP5 ADD SWAP2 POP POP SWAP3 SWAP2 POP POP JUMP JUMPDEST PUSH1 0x0 PUSH2 0x236 DUP3 DUP5 PUSH2 0x1F9 JUMP JUMPDEST SWAP2 POP DUP2 SWAP1 POP SWAP3 SWAP2 POP POP JUMP JUMPDEST PUSH1 0x0 PUSH1 0x20 DUP3 ADD SWAP1 POP PUSH2 0x256 PUSH1 0x0 DUP4 ADD DUP5 PUSH2 0x1EA JUMP JUMPDEST SWAP3 SWAP2 POP POP JUMP JUMPDEST PUSH1 0x0 PUSH2 0x266 PUSH2 0x277 JUMP JUMPDEST SWAP1 POP PUSH2 0x272 DUP3 DUP3 PUSH2 0x31E JUMP JUMPDEST SWAP2 SWAP1 POP JUMP JUMPDEST PUSH1 0x0 PUSH1 0x40 MLOAD SWAP1 POP SWAP1 JUMP JUMPDEST PUSH1 0x0 PUSH8 0xFFFFFFFFFFFFFFFF DUP3 GT ISZERO PUSH2 0x29C JUMPI PUSH2 0x29B PUSH2 0x34F JUMP JUMPDEST JUMPDEST PUSH2 0x2A5 DUP3 PUSH2 0x392 JUMP JUMPDEST SWAP1 POP PUSH1 0x20 DUP2 ADD SWAP1 POP SWAP2 SWAP1 POP JUMP JUMPDEST PUSH1 0x0 DUP2 MLOAD SWAP1 POP SWAP2 SWAP1 POP JUMP JUMPDEST PUSH1 0x0 DUP2 SWAP1 POP SWAP3 SWAP2 POP POP JUMP JUMPDEST PUSH1 0x0 DUP2 SWAP1 POP SWAP2 SWAP1 POP JUMP JUMPDEST PUSH1 0x0 DUP2 SWAP1 POP SWAP2 SWAP1 POP JUMP JUMPDEST DUP3 DUP2 DUP4 CALLDATACOPY PUSH1 0x0 DUP4 DUP4 ADD MSTORE POP POP POP JUMP JUMPDEST PUSH1 0x0 JUMPDEST DUP4 DUP2 LT ISZERO PUSH2 0x309 JUMPI DUP1 DUP3 ADD MLOAD DUP2 DUP5 ADD MSTORE PUSH1 0x20 DUP2 ADD SWAP1 POP PUSH2 0x2EE JUMP JUMPDEST DUP4 DUP2 GT ISZERO PUSH2 0x318 JUMPI PUSH1 0x0 DUP5 DUP5 ADD MSTORE JUMPDEST POP POP POP POP JUMP JUMPDEST PUSH2 0x327 DUP3 PUSH2 0x392 JUMP JUMPDEST DUP2 ADD DUP2 DUP2 LT PUSH8 0xFFFFFFFFFFFFFFFF DUP3 GT OR ISZERO PUSH2 0x346 JUMPI PUSH2 0x345 PUSH2 0x34F JUMP JUMPDEST JUMPDEST DUP1 PUSH1 0x40 MSTORE POP POP POP JUMP JUMPDEST PUSH32 0x4E487B7100000000000000000000000000000000000000000000000000000000 PUSH1 0x0 MSTORE PUSH1 0x41 PUSH1 0x4 MSTORE PUSH1 0x24 PUSH1 0x0 REVERT JUMPDEST PUSH1 0x0 DUP1 REVERT JUMPDEST PUSH1 0x0 DUP1 REVERT JUMPDEST PUSH1 0x0 DUP1 REVERT JUMPDEST PUSH1 0x0 DUP1 REVERT JUMPDEST PUSH1 0x0 PUSH1 0x1F NOT PUSH1 0x1F DUP4 ADD AND SWAP1 POP SWAP2 SWAP1 POP JUMP JUMPDEST PUSH2 0x3AC DUP2 PUSH2 0x2D2 JUMP JUMPDEST DUP2 EQ PUSH2 0x3B7 JUMPI PUSH1 0x0 DUP1 REVERT JUMPDEST POP JUMP INVALID LOG2 PUSH5 0x6970667358 0x22 SLT KECCAK256 PUSH15 0x5BA630E64FCAA4B666754C1FE26576 SHR PUSH14 0x93940F1C819567EA445B6C8264F8 PUSH5 0x736F6C6343 STOP ADDMOD SMOD STOP CALLER "
				},
				"gasEstimates": {
					"creation": {
						"codeDepositCost": "201600",
						"executionCost": "infinite",
						"totalCost": "infinite"
					},
					"external": {
						"getHash(string)": "infinite",
						"hashes(uint256)": "4860"
					}
				},
				"methodIdentifiers": {
					"getHash(string)": "5b6beeb9",
					"hashes(uint256)": "501895ae"
				}
			},
			"storageLayout": {
				"storage": [
					{
						"astId": 4,
						"contract": "contracts/Lesson8Trees.sol:Function8Trees",
						"label": "hashes",
						"offset": 0,
						"slot": "0",
						"type": "t_array(t_bytes32)dyn_storage"
					},
					{
						"astId": 13,
						"contract": "contracts/Lesson8Trees.sol:Function8Trees",
						"label": "transactions",
						"offset": 0,
						"slot": "1",
						"type": "t_array(t_string_storage)4_storage"
					}
				],
				"types": {
					"t_array(t_bytes32)dyn_storage": {
						"base": "t_bytes32",
						"encoding": "dynamic_array",
						"label": "bytes32[]",
						"numberOfBytes": "32"
					},
					"t_array(t_string_storage)4_storage": {
						"base": "t_string_storage",
						"encoding": "inplace",
						"label": "string[4]",
						"numberOfBytes": "128"
					},
					"t_bytes32": {
						"encoding": "inplace",
						"label": "bytes32",
						"numberOfBytes": "32"
					},
					"t_string_storage": {
						"encoding": "bytes",
						"label": "string",
						"numberOfBytes": "32"
					}
				}
			},
			"userdoc": {
				"kind": "user",
				"methods": {},
				"version": 1
			}
		}
	}
}