{
	"contracts/Lesson5Types.sol": {
		"Struct5Lesson": {
			"abi": [
				{
					"inputs": [
						{
							"internalType": "address",
							"name": "",
							"type": "address"
						}
					],
					"name": "balances",
					"outputs": [
						{
							"internalType": "uint256",
							"name": "totalPayments",
							"type": "uint256"
						}
					],
					"stateMutability": "view",
					"type": "function"
				},
				{
					"inputs": [
						{
							"internalType": "string",
							"name": "message",
							"type": "string"
						}
					],
					"name": "pay",
					"outputs": [],
					"stateMutability": "payable",
					"type": "function"
				}
			],
			"devdoc": {
				"kind": "dev",
				"methods": {},
				"version": 1
			},
			"evm": {
				"assembly": "    /* \"contracts/Lesson5Types.sol\":58:614  contract Struct5Lesson {... */\n  mstore(0x40, 0x80)\n  callvalue\n  dup1\n  iszero\n  tag_1\n  jumpi\n  0x00\n  dup1\n  revert\ntag_1:\n  pop\n  dataSize(sub_0)\n  dup1\n  dataOffset(sub_0)\n  0x00\n  codecopy\n  0x00\n  return\nstop\n\nsub_0: assembly {\n        /* \"contracts/Lesson5Types.sol\":58:614  contract Struct5Lesson {... */\n      mstore(0x40, 0x80)\n      jumpi(tag_1, lt(calldatasize, 0x04))\n      shr(0xe0, calldataload(0x00))\n      dup1\n      0x27e235e3\n      eq\n      tag_2\n      jumpi\n      dup1\n      0x2b66d72e\n      eq\n      tag_3\n      jumpi\n    tag_1:\n      0x00\n      dup1\n      revert\n        /* \"contracts/Lesson5Types.sol\":305:348  mapping(address => Balance) public balances */\n    tag_2:\n      callvalue\n      dup1\n      iszero\n      tag_4\n      jumpi\n      0x00\n      dup1\n      revert\n    tag_4:\n      pop\n      tag_5\n      0x04\n      dup1\n      calldatasize\n      sub\n      dup2\n      add\n      swap1\n      tag_6\n      swap2\n      swap1\n      tag_7\n      jump\t// in\n    tag_6:\n      tag_8\n      jump\t// in\n    tag_5:\n      mload(0x40)\n      tag_9\n      swap2\n      swap1\n      tag_10\n      jump\t// in\n    tag_9:\n      mload(0x40)\n      dup1\n      swap2\n      sub\n      swap1\n      return\n        /* \"contracts/Lesson5Types.sol\":355:612  function pay(string memory message) public payable {... */\n    tag_3:\n      tag_11\n      0x04\n      dup1\n      calldatasize\n      sub\n      dup2\n      add\n      swap1\n      tag_12\n      swap2\n      swap1\n      tag_13\n      jump\t// in\n    tag_12:\n      tag_14\n      jump\t// in\n    tag_11:\n      stop\n        /* \"contracts/Lesson5Types.sol\":305:348  mapping(address => Balance) public balances */\n    tag_8:\n      mstore(0x20, 0x00)\n      dup1\n      0x00\n      mstore\n      keccak256(0x00, 0x40)\n      0x00\n      swap2\n      pop\n      swap1\n      pop\n      dup1\n      0x00\n      add\n      sload\n      swap1\n      pop\n      dup2\n      jump\t// out\n        /* \"contracts/Lesson5Types.sol\":355:612  function pay(string memory message) public payable {... */\n    tag_14:\n        /* \"contracts/Lesson5Types.sol\":416:424  balances */\n      0x00\n        /* \"contracts/Lesson5Types.sol\":416:436  balances[msg.sender] */\n      dup1\n        /* \"contracts/Lesson5Types.sol\":425:435  msg.sender */\n      caller\n        /* \"contracts/Lesson5Types.sol\":416:436  balances[msg.sender] */\n      0xffffffffffffffffffffffffffffffffffffffff\n      and\n      0xffffffffffffffffffffffffffffffffffffffff\n      and\n      dup2\n      mstore\n      0x20\n      add\n      swap1\n      dup2\n      mstore\n      0x20\n      add\n      0x00\n      keccak256\n        /* \"contracts/Lesson5Types.sol\":416:450  balances[msg.sender].totalPayments */\n      0x00\n      add\n      0x00\n        /* \"contracts/Lesson5Types.sol\":416:452  balances[msg.sender].totalPayments++ */\n      dup2\n      sload\n      dup1\n      swap3\n      swap2\n      swap1\n      tag_16\n      swap1\n      tag_17\n      jump\t// in\n    tag_16:\n      swap2\n      swap1\n      pop\n      sstore\n      pop\n        /* \"contracts/Lesson5Types.sol\":463:488  Payment memory newPayment */\n      0x00\n        /* \"contracts/Lesson5Types.sol\":491:605  Payment(... */\n      mload(0x40)\n      dup1\n      0x80\n      add\n      0x40\n      mstore\n      dup1\n        /* \"contracts/Lesson5Types.sol\":512:521  msg.value */\n      callvalue\n        /* \"contracts/Lesson5Types.sol\":491:605  Payment(... */\n      dup2\n      mstore\n      0x20\n      add\n        /* \"contracts/Lesson5Types.sol\":535:550  block.timestamp */\n      timestamp\n        /* \"contracts/Lesson5Types.sol\":491:605  Payment(... */\n      dup2\n      mstore\n      0x20\n      add\n        /* \"contracts/Lesson5Types.sol\":564:574  msg.sender */\n      caller\n        /* \"contracts/Lesson5Types.sol\":491:605  Payment(... */\n      0xffffffffffffffffffffffffffffffffffffffff\n      and\n      dup2\n      mstore\n      0x20\n      add\n        /* \"contracts/Lesson5Types.sol\":588:595  message */\n      dup4\n        /* \"contracts/Lesson5Types.sol\":491:605  Payment(... */\n      dup2\n      mstore\n      pop\n        /* \"contracts/Lesson5Types.sol\":463:605  Payment memory newPayment = Payment(... */\n      swap1\n      pop\n        /* \"contracts/Lesson5Types.sol\":406:612  {... */\n      pop\n        /* \"contracts/Lesson5Types.sol\":355:612  function pay(string memory message) public payable {... */\n      pop\n      jump\t// out\n        /* \"#utility.yul\":7:419   */\n    tag_19:\n        /* \"#utility.yul\":85:90   */\n      0x00\n        /* \"#utility.yul\":110:176   */\n      tag_21\n        /* \"#utility.yul\":126:175   */\n      tag_22\n        /* \"#utility.yul\":168:174   */\n      dup5\n        /* \"#utility.yul\":126:175   */\n      tag_23\n      jump\t// in\n    tag_22:\n        /* \"#utility.yul\":110:176   */\n      tag_24\n      jump\t// in\n    tag_21:\n        /* \"#utility.yul\":101:176   */\n      swap1\n      pop\n        /* \"#utility.yul\":199:205   */\n      dup3\n        /* \"#utility.yul\":192:197   */\n      dup2\n        /* \"#utility.yul\":185:206   */\n      mstore\n        /* \"#utility.yul\":237:241   */\n      0x20\n        /* \"#utility.yul\":230:235   */\n      dup2\n        /* \"#utility.yul\":226:242   */\n      add\n        /* \"#utility.yul\":275:278   */\n      dup5\n        /* \"#utility.yul\":266:272   */\n      dup5\n        /* \"#utility.yul\":261:264   */\n      dup5\n        /* \"#utility.yul\":257:273   */\n      add\n        /* \"#utility.yul\":254:279   */\n      gt\n        /* \"#utility.yul\":251:363   */\n      iszero\n      tag_25\n      jumpi\n        /* \"#utility.yul\":282:361   */\n      tag_26\n      tag_27\n      jump\t// in\n    tag_26:\n        /* \"#utility.yul\":251:363   */\n    tag_25:\n        /* \"#utility.yul\":372:413   */\n      tag_28\n        /* \"#utility.yul\":406:412   */\n      dup5\n        /* \"#utility.yul\":401:404   */\n      dup3\n        /* \"#utility.yul\":396:399   */\n      dup6\n        /* \"#utility.yul\":372:413   */\n      tag_29\n      jump\t// in\n    tag_28:\n        /* \"#utility.yul\":91:419   */\n      pop\n        /* \"#utility.yul\":7:419   */\n      swap4\n      swap3\n      pop\n      pop\n      pop\n      jump\t// out\n        /* \"#utility.yul\":425:564   */\n    tag_30:\n        /* \"#utility.yul\":471:476   */\n      0x00\n        /* \"#utility.yul\":509:515   */\n      dup2\n        /* \"#utility.yul\":496:516   */\n      calldataload\n        /* \"#utility.yul\":487:516   */\n      swap1\n      pop\n        /* \"#utility.yul\":525:558   */\n      tag_32\n        /* \"#utility.yul\":552:557   */\n      dup2\n        /* \"#utility.yul\":525:558   */\n      tag_33\n      jump\t// in\n    tag_32:\n        /* \"#utility.yul\":425:564   */\n      swap3\n      swap2\n      pop\n      pop\n      jump\t// out\n        /* \"#utility.yul\":584:924   */\n    tag_34:\n        /* \"#utility.yul\":640:645   */\n      0x00\n        /* \"#utility.yul\":689:692   */\n      dup3\n        /* \"#utility.yul\":682:686   */\n      0x1f\n        /* \"#utility.yul\":674:680   */\n      dup4\n        /* \"#utility.yul\":670:687   */\n      add\n        /* \"#utility.yul\":666:693   */\n      slt\n        /* \"#utility.yul\":656:778   */\n      tag_36\n      jumpi\n        /* \"#utility.yul\":697:776   */\n      tag_37\n      tag_38\n      jump\t// in\n    tag_37:\n        /* \"#utility.yul\":656:778   */\n    tag_36:\n        /* \"#utility.yul\":814:820   */\n      dup2\n        /* \"#utility.yul\":801:821   */\n      calldataload\n        /* \"#utility.yul\":839:918   */\n      tag_39\n        /* \"#utility.yul\":914:917   */\n      dup5\n        /* \"#utility.yul\":906:912   */\n      dup3\n        /* \"#utility.yul\":899:903   */\n      0x20\n        /* \"#utility.yul\":891:897   */\n      dup7\n        /* \"#utility.yul\":887:904   */\n      add\n        /* \"#utility.yul\":839:918   */\n      tag_19\n      jump\t// in\n    tag_39:\n        /* \"#utility.yul\":830:918   */\n      swap2\n      pop\n        /* \"#utility.yul\":646:924   */\n      pop\n        /* \"#utility.yul\":584:924   */\n      swap3\n      swap2\n      pop\n      pop\n      jump\t// out\n        /* \"#utility.yul\":930:1259   */\n    tag_7:\n        /* \"#utility.yul\":989:995   */\n      0x00\n        /* \"#utility.yul\":1038:1040   */\n      0x20\n        /* \"#utility.yul\":1026:1035   */\n      dup3\n        /* \"#utility.yul\":1017:1024   */\n      dup5\n        /* \"#utility.yul\":1013:1036   */\n      sub\n        /* \"#utility.yul\":1009:1041   */\n      slt\n        /* \"#utility.yul\":1006:1125   */\n      iszero\n      tag_41\n      jumpi\n        /* \"#utility.yul\":1044:1123   */\n      tag_42\n      tag_43\n      jump\t// in\n    tag_42:\n        /* \"#utility.yul\":1006:1125   */\n    tag_41:\n        /* \"#utility.yul\":1164:1165   */\n      0x00\n        /* \"#utility.yul\":1189:1242   */\n      tag_44\n        /* \"#utility.yul\":1234:1241   */\n      dup5\n        /* \"#utility.yul\":1225:1231   */\n      dup3\n        /* \"#utility.yul\":1214:1223   */\n      dup6\n        /* \"#utility.yul\":1210:1232   */\n      add\n        /* \"#utility.yul\":1189:1242   */\n      tag_30\n      jump\t// in\n    tag_44:\n        /* \"#utility.yul\":1179:1242   */\n      swap2\n      pop\n        /* \"#utility.yul\":1135:1252   */\n      pop\n        /* \"#utility.yul\":930:1259   */\n      swap3\n      swap2\n      pop\n      pop\n      jump\t// out\n        /* \"#utility.yul\":1265:1774   */\n    tag_13:\n        /* \"#utility.yul\":1334:1340   */\n      0x00\n        /* \"#utility.yul\":1383:1385   */\n      0x20\n        /* \"#utility.yul\":1371:1380   */\n      dup3\n        /* \"#utility.yul\":1362:1369   */\n      dup5\n        /* \"#utility.yul\":1358:1381   */\n      sub\n        /* \"#utility.yul\":1354:1386   */\n      slt\n        /* \"#utility.yul\":1351:1470   */\n      iszero\n      tag_46\n      jumpi\n        /* \"#utility.yul\":1389:1468   */\n      tag_47\n      tag_43\n      jump\t// in\n    tag_47:\n        /* \"#utility.yul\":1351:1470   */\n    tag_46:\n        /* \"#utility.yul\":1537:1538   */\n      0x00\n        /* \"#utility.yul\":1526:1535   */\n      dup3\n        /* \"#utility.yul\":1522:1539   */\n      add\n        /* \"#utility.yul\":1509:1540   */\n      calldataload\n        /* \"#utility.yul\":1567:1585   */\n      0xffffffffffffffff\n        /* \"#utility.yul\":1559:1565   */\n      dup2\n        /* \"#utility.yul\":1556:1586   */\n      gt\n        /* \"#utility.yul\":1553:1670   */\n      iszero\n      tag_48\n      jumpi\n        /* \"#utility.yul\":1589:1668   */\n      tag_49\n      tag_50\n      jump\t// in\n    tag_49:\n        /* \"#utility.yul\":1553:1670   */\n    tag_48:\n        /* \"#utility.yul\":1694:1757   */\n      tag_51\n        /* \"#utility.yul\":1749:1756   */\n      dup5\n        /* \"#utility.yul\":1740:1746   */\n      dup3\n        /* \"#utility.yul\":1729:1738   */\n      dup6\n        /* \"#utility.yul\":1725:1747   */\n      add\n        /* \"#utility.yul\":1694:1757   */\n      tag_34\n      jump\t// in\n    tag_51:\n        /* \"#utility.yul\":1684:1757   */\n      swap2\n      pop\n        /* \"#utility.yul\":1480:1767   */\n      pop\n        /* \"#utility.yul\":1265:1774   */\n      swap3\n      swap2\n      pop\n      pop\n      jump\t// out\n        /* \"#utility.yul\":1780:1898   */\n    tag_52:\n        /* \"#utility.yul\":1867:1891   */\n      tag_54\n        /* \"#utility.yul\":1885:1890   */\n      dup2\n        /* \"#utility.yul\":1867:1891   */\n      tag_55\n      jump\t// in\n    tag_54:\n        /* \"#utility.yul\":1862:1865   */\n      dup3\n        /* \"#utility.yul\":1855:1892   */\n      mstore\n        /* \"#utility.yul\":1780:1898   */\n      pop\n      pop\n      jump\t// out\n        /* \"#utility.yul\":1904:2126   */\n    tag_10:\n        /* \"#utility.yul\":1997:2001   */\n      0x00\n        /* \"#utility.yul\":2035:2037   */\n      0x20\n        /* \"#utility.yul\":2024:2033   */\n      dup3\n        /* \"#utility.yul\":2020:2038   */\n      add\n        /* \"#utility.yul\":2012:2038   */\n      swap1\n      pop\n        /* \"#utility.yul\":2048:2119   */\n      tag_57\n        /* \"#utility.yul\":2116:2117   */\n      0x00\n        /* \"#utility.yul\":2105:2114   */\n      dup4\n        /* \"#utility.yul\":2101:2118   */\n      add\n        /* \"#utility.yul\":2092:2098   */\n      dup5\n        /* \"#utility.yul\":2048:2119   */\n      tag_52\n      jump\t// in\n    tag_57:\n        /* \"#utility.yul\":1904:2126   */\n      swap3\n      swap2\n      pop\n      pop\n      jump\t// out\n        /* \"#utility.yul\":2132:2261   */\n    tag_24:\n        /* \"#utility.yul\":2166:2172   */\n      0x00\n        /* \"#utility.yul\":2193:2213   */\n      tag_59\n      tag_60\n      jump\t// in\n    tag_59:\n        /* \"#utility.yul\":2183:2213   */\n      swap1\n      pop\n        /* \"#utility.yul\":2222:2255   */\n      tag_61\n        /* \"#utility.yul\":2250:2254   */\n      dup3\n        /* \"#utility.yul\":2242:2248   */\n      dup3\n        /* \"#utility.yul\":2222:2255   */\n      tag_62\n      jump\t// in\n    tag_61:\n        /* \"#utility.yul\":2132:2261   */\n      swap2\n      swap1\n      pop\n      jump\t// out\n        /* \"#utility.yul\":2267:2342   */\n    tag_60:\n        /* \"#utility.yul\":2300:2306   */\n      0x00\n        /* \"#utility.yul\":2333:2335   */\n      0x40\n        /* \"#utility.yul\":2327:2336   */\n      mload\n        /* \"#utility.yul\":2317:2336   */\n      swap1\n      pop\n        /* \"#utility.yul\":2267:2342   */\n      swap1\n      jump\t// out\n        /* \"#utility.yul\":2348:2656   */\n    tag_23:\n        /* \"#utility.yul\":2410:2414   */\n      0x00\n        /* \"#utility.yul\":2500:2518   */\n      0xffffffffffffffff\n        /* \"#utility.yul\":2492:2498   */\n      dup3\n        /* \"#utility.yul\":2489:2519   */\n      gt\n        /* \"#utility.yul\":2486:2542   */\n      iszero\n      tag_65\n      jumpi\n        /* \"#utility.yul\":2522:2540   */\n      tag_66\n      tag_67\n      jump\t// in\n    tag_66:\n        /* \"#utility.yul\":2486:2542   */\n    tag_65:\n        /* \"#utility.yul\":2560:2589   */\n      tag_68\n        /* \"#utility.yul\":2582:2588   */\n      dup3\n        /* \"#utility.yul\":2560:2589   */\n      tag_69\n      jump\t// in\n    tag_68:\n        /* \"#utility.yul\":2552:2589   */\n      swap1\n      pop\n        /* \"#utility.yul\":2644:2648   */\n      0x20\n        /* \"#utility.yul\":2638:2642   */\n      dup2\n        /* \"#utility.yul\":2634:2649   */\n      add\n        /* \"#utility.yul\":2626:2649   */\n      swap1\n      pop\n        /* \"#utility.yul\":2348:2656   */\n      swap2\n      swap1\n      pop\n      jump\t// out\n        /* \"#utility.yul\":2662:2758   */\n    tag_70:\n        /* \"#utility.yul\":2699:2706   */\n      0x00\n        /* \"#utility.yul\":2728:2752   */\n      tag_72\n        /* \"#utility.yul\":2746:2751   */\n      dup3\n        /* \"#utility.yul\":2728:2752   */\n      tag_73\n      jump\t// in\n    tag_72:\n        /* \"#utility.yul\":2717:2752   */\n      swap1\n      pop\n        /* \"#utility.yul\":2662:2758   */\n      swap2\n      swap1\n      pop\n      jump\t// out\n        /* \"#utility.yul\":2764:2890   */\n    tag_73:\n        /* \"#utility.yul\":2801:2808   */\n      0x00\n        /* \"#utility.yul\":2841:2883   */\n      0xffffffffffffffffffffffffffffffffffffffff\n        /* \"#utility.yul\":2834:2839   */\n      dup3\n        /* \"#utility.yul\":2830:2884   */\n      and\n        /* \"#utility.yul\":2819:2884   */\n      swap1\n      pop\n        /* \"#utility.yul\":2764:2890   */\n      swap2\n      swap1\n      pop\n      jump\t// out\n        /* \"#utility.yul\":2896:2973   */\n    tag_55:\n        /* \"#utility.yul\":2933:2940   */\n      0x00\n        /* \"#utility.yul\":2962:2967   */\n      dup2\n        /* \"#utility.yul\":2951:2967   */\n      swap1\n      pop\n        /* \"#utility.yul\":2896:2973   */\n      swap2\n      swap1\n      pop\n      jump\t// out\n        /* \"#utility.yul\":2979:3133   */\n    tag_29:\n        /* \"#utility.yul\":3063:3069   */\n      dup3\n        /* \"#utility.yul\":3058:3061   */\n      dup2\n        /* \"#utility.yul\":3053:3056   */\n      dup4\n        /* \"#utility.yul\":3040:3070   */\n      calldatacopy\n        /* \"#utility.yul\":3125:3126   */\n      0x00\n        /* \"#utility.yul\":3116:3122   */\n      dup4\n        /* \"#utility.yul\":3111:3114   */\n      dup4\n        /* \"#utility.yul\":3107:3123   */\n      add\n        /* \"#utility.yul\":3100:3127   */\n      mstore\n        /* \"#utility.yul\":2979:3133   */\n      pop\n      pop\n      pop\n      jump\t// out\n        /* \"#utility.yul\":3139:3420   */\n    tag_62:\n        /* \"#utility.yul\":3222:3249   */\n      tag_78\n        /* \"#utility.yul\":3244:3248   */\n      dup3\n        /* \"#utility.yul\":3222:3249   */\n      tag_69\n      jump\t// in\n    tag_78:\n        /* \"#utility.yul\":3214:3220   */\n      dup2\n        /* \"#utility.yul\":3210:3250   */\n      add\n        /* \"#utility.yul\":3352:3358   */\n      dup2\n        /* \"#utility.yul\":3340:3350   */\n      dup2\n        /* \"#utility.yul\":3337:3359   */\n      lt\n        /* \"#utility.yul\":3316:3334   */\n      0xffffffffffffffff\n        /* \"#utility.yul\":3304:3314   */\n      dup3\n        /* \"#utility.yul\":3301:3335   */\n      gt\n        /* \"#utility.yul\":3298:3360   */\n      or\n        /* \"#utility.yul\":3295:3383   */\n      iszero\n      tag_79\n      jumpi\n        /* \"#utility.yul\":3363:3381   */\n      tag_80\n      tag_67\n      jump\t// in\n    tag_80:\n        /* \"#utility.yul\":3295:3383   */\n    tag_79:\n        /* \"#utility.yul\":3403:3413   */\n      dup1\n        /* \"#utility.yul\":3399:3401   */\n      0x40\n        /* \"#utility.yul\":3392:3414   */\n      mstore\n        /* \"#utility.yul\":3182:3420   */\n      pop\n        /* \"#utility.yul\":3139:3420   */\n      pop\n      pop\n      jump\t// out\n        /* \"#utility.yul\":3426:3659   */\n    tag_17:\n        /* \"#utility.yul\":3465:3468   */\n      0x00\n        /* \"#utility.yul\":3488:3512   */\n      tag_82\n        /* \"#utility.yul\":3506:3511   */\n      dup3\n        /* \"#utility.yul\":3488:3512   */\n      tag_55\n      jump\t// in\n    tag_82:\n        /* \"#utility.yul\":3479:3512   */\n      swap2\n      pop\n        /* \"#utility.yul\":3534:3600   */\n      0xffffffffffffffffffffffffffffffffffffffffffffffffffffffffffffffff\n        /* \"#utility.yul\":3527:3532   */\n      dup3\n        /* \"#utility.yul\":3524:3601   */\n      eq\n        /* \"#utility.yul\":3521:3624   */\n      iszero\n      tag_83\n      jumpi\n        /* \"#utility.yul\":3604:3622   */\n      tag_84\n      tag_85\n      jump\t// in\n    tag_84:\n        /* \"#utility.yul\":3521:3624   */\n    tag_83:\n        /* \"#utility.yul\":3651:3652   */\n      0x01\n        /* \"#utility.yul\":3644:3649   */\n      dup3\n        /* \"#utility.yul\":3640:3653   */\n      add\n        /* \"#utility.yul\":3633:3653   */\n      swap1\n      pop\n        /* \"#utility.yul\":3426:3659   */\n      swap2\n      swap1\n      pop\n      jump\t// out\n        /* \"#utility.yul\":3665:3845   */\n    tag_85:\n        /* \"#utility.yul\":3713:3790   */\n      0x4e487b7100000000000000000000000000000000000000000000000000000000\n        /* \"#utility.yul\":3710:3711   */\n      0x00\n        /* \"#utility.yul\":3703:3791   */\n      mstore\n        /* \"#utility.yul\":3810:3814   */\n      0x11\n        /* \"#utility.yul\":3807:3808   */\n      0x04\n        /* \"#utility.yul\":3800:3815   */\n      mstore\n        /* \"#utility.yul\":3834:3838   */\n      0x24\n        /* \"#utility.yul\":3831:3832   */\n      0x00\n        /* \"#utility.yul\":3824:3839   */\n      revert\n        /* \"#utility.yul\":3851:4031   */\n    tag_67:\n        /* \"#utility.yul\":3899:3976   */\n      0x4e487b7100000000000000000000000000000000000000000000000000000000\n        /* \"#utility.yul\":3896:3897   */\n      0x00\n        /* \"#utility.yul\":3889:3977   */\n      mstore\n        /* \"#utility.yul\":3996:4000   */\n      0x41\n        /* \"#utility.yul\":3993:3994   */\n      0x04\n        /* \"#utility.yul\":3986:4001   */\n      mstore\n        /* \"#utility.yul\":4020:4024   */\n      0x24\n        /* \"#utility.yul\":4017:4018   */\n      0x00\n        /* \"#utility.yul\":4010:4025   */\n      revert\n        /* \"#utility.yul\":4037:4154   */\n    tag_38:\n        /* \"#utility.yul\":4146:4147   */\n      0x00\n        /* \"#utility.yul\":4143:4144   */\n      dup1\n        /* \"#utility.yul\":4136:4148   */\n      revert\n        /* \"#utility.yul\":4160:4277   */\n    tag_27:\n        /* \"#utility.yul\":4269:4270   */\n      0x00\n        /* \"#utility.yul\":4266:4267   */\n      dup1\n        /* \"#utility.yul\":4259:4271   */\n      revert\n        /* \"#utility.yul\":4283:4400   */\n    tag_50:\n        /* \"#utility.yul\":4392:4393   */\n      0x00\n        /* \"#utility.yul\":4389:4390   */\n      dup1\n        /* \"#utility.yul\":4382:4394   */\n      revert\n        /* \"#utility.yul\":4406:4523   */\n    tag_43:\n        /* \"#utility.yul\":4515:4516   */\n      0x00\n        /* \"#utility.yul\":4512:4513   */\n      dup1\n        /* \"#utility.yul\":4505:4517   */\n      revert\n        /* \"#utility.yul\":4529:4631   */\n    tag_69:\n        /* \"#utility.yul\":4570:4576   */\n      0x00\n        /* \"#utility.yul\":4621:4623   */\n      0x1f\n        /* \"#utility.yul\":4617:4624   */\n      not\n        /* \"#utility.yul\":4612:4614   */\n      0x1f\n        /* \"#utility.yul\":4605:4610   */\n      dup4\n        /* \"#utility.yul\":4601:4615   */\n      add\n        /* \"#utility.yul\":4597:4625   */\n      and\n        /* \"#utility.yul\":4587:4625   */\n      swap1\n      pop\n        /* \"#utility.yul\":4529:4631   */\n      swap2\n      swap1\n      pop\n      jump\t// out\n        /* \"#utility.yul\":4637:4759   */\n    tag_33:\n        /* \"#utility.yul\":4710:4734   */\n      tag_94\n        /* \"#utility.yul\":4728:4733   */\n      dup2\n        /* \"#utility.yul\":4710:4734   */\n      tag_70\n      jump\t// in\n    tag_94:\n        /* \"#utility.yul\":4703:4708   */\n      dup2\n        /* \"#utility.yul\":4700:4735   */\n      eq\n        /* \"#utility.yul\":4690:4753   */\n      tag_95\n      jumpi\n        /* \"#utility.yul\":4749:4750   */\n      0x00\n        /* \"#utility.yul\":4746:4747   */\n      dup1\n        /* \"#utility.yul\":4739:4751   */\n      revert\n        /* \"#utility.yul\":4690:4753   */\n    tag_95:\n        /* \"#utility.yul\":4637:4759   */\n      pop\n      jump\t// out\n\n    auxdata: 0xa2646970667358221220b7ca62aebedc7813ba675046df19a240411b82ff3fbe4577fe9bdf15e3ef0ce064736f6c63430008070033\n}\n",
				"bytecode": {
					"linkReferences": {},
					"object": "608060405234801561001057600080fd5b5061044b806100206000396000f3fe6080604052600436106100295760003560e01c806327e235e31461002e5780632b66d72e1461006b575b600080fd5b34801561003a57600080fd5b50610055600480360381019061005091906101c0565b610087565b6040516100629190610245565b60405180910390f35b610085600480360381019061008091906101ed565b6100a5565b005b60006020528060005260406000206000915090508060000154905081565b6000803373ffffffffffffffffffffffffffffffffffffffff1673ffffffffffffffffffffffffffffffffffffffff16815260200190815260200160002060000160008154809291906100f790610332565b9190505550600060405180608001604052803481526020014281526020013373ffffffffffffffffffffffffffffffffffffffff1681526020018381525090505050565b600061014e61014984610285565b610260565b90508281526020810184848401111561016a576101696103de565b5b6101758482856102f2565b509392505050565b60008135905061018c816103fe565b92915050565b600082601f8301126101a7576101a66103d9565b5b81356101b784826020860161013b565b91505092915050565b6000602082840312156101d6576101d56103e8565b5b60006101e48482850161017d565b91505092915050565b600060208284031215610203576102026103e8565b5b600082013567ffffffffffffffff811115610221576102206103e3565b5b61022d84828501610192565b91505092915050565b61023f816102e8565b82525050565b600060208201905061025a6000830184610236565b92915050565b600061026a61027b565b90506102768282610301565b919050565b6000604051905090565b600067ffffffffffffffff8211156102a05761029f6103aa565b5b6102a9826103ed565b9050602081019050919050565b60006102c1826102c8565b9050919050565b600073ffffffffffffffffffffffffffffffffffffffff82169050919050565b6000819050919050565b82818337600083830152505050565b61030a826103ed565b810181811067ffffffffffffffff82111715610329576103286103aa565b5b80604052505050565b600061033d826102e8565b91507fffffffffffffffffffffffffffffffffffffffffffffffffffffffffffffffff8214156103705761036f61037b565b5b600182019050919050565b7f4e487b7100000000000000000000000000000000000000000000000000000000600052601160045260246000fd5b7f4e487b7100000000000000000000000000000000000000000000000000000000600052604160045260246000fd5b600080fd5b600080fd5b600080fd5b600080fd5b6000601f19601f8301169050919050565b610407816102b6565b811461041257600080fd5b5056fea2646970667358221220b7ca62aebedc7813ba675046df19a240411b82ff3fbe4577fe9bdf15e3ef0ce064736f6c63430008070033",
					"opcodes": "PUSH1 0x80 PUSH1 0x40 MSTORE CALLVALUE DUP1 ISZERO PUSH2 0x10 JUMPI PUSH1 0x0 DUP1 REVERT JUMPDEST POP PUSH2 0x44B DUP1 PUSH2 0x20 PUSH1 0x0 CODECOPY PUSH1 0x0 RETURN INVALID PUSH1 0x80 PUSH1 0x40 MSTORE PUSH1 0x4 CALLDATASIZE LT PUSH2 0x29 JUMPI PUSH1 0x0 CALLDATALOAD PUSH1 0xE0 SHR DUP1 PUSH4 0x27E235E3 EQ PUSH2 0x2E JUMPI DUP1 PUSH4 0x2B66D72E EQ PUSH2 0x6B JUMPI JUMPDEST PUSH1 0x0 DUP1 REVERT JUMPDEST CALLVALUE DUP1 ISZERO PUSH2 0x3A JUMPI PUSH1 0x0 DUP1 REVERT JUMPDEST POP PUSH2 0x55 PUSH1 0x4 DUP1 CALLDATASIZE SUB DUP2 ADD SWAP1 PUSH2 0x50 SWAP2 SWAP1 PUSH2 0x1C0 JUMP JUMPDEST PUSH2 0x87 JUMP JUMPDEST PUSH1 0x40 MLOAD PUSH2 0x62 SWAP2 SWAP1 PUSH2 0x245 JUMP JUMPDEST PUSH1 0x40 MLOAD DUP1 SWAP2 SUB SWAP1 RETURN JUMPDEST PUSH2 0x85 PUSH1 0x4 DUP1 CALLDATASIZE SUB DUP2 ADD SWAP1 PUSH2 0x80 SWAP2 SWAP1 PUSH2 0x1ED JUMP JUMPDEST PUSH2 0xA5 JUMP JUMPDEST STOP JUMPDEST PUSH1 0x0 PUSH1 0x20 MSTORE DUP1 PUSH1 0x0 MSTORE PUSH1 0x40 PUSH1 0x0 KECCAK256 PUSH1 0x0 SWAP2 POP SWAP1 POP DUP1 PUSH1 0x0 ADD SLOAD SWAP1 POP DUP2 JUMP JUMPDEST PUSH1 0x0 DUP1 CALLER PUSH20 0xFFFFFFFFFFFFFFFFFFFFFFFFFFFFFFFFFFFFFFFF AND PUSH20 0xFFFFFFFFFFFFFFFFFFFFFFFFFFFFFFFFFFFFFFFF AND DUP2 MSTORE PUSH1 0x20 ADD SWAP1 DUP2 MSTORE PUSH1 0x20 ADD PUSH1 0x0 KECCAK256 PUSH1 0x0 ADD PUSH1 0x0 DUP2 SLOAD DUP1 SWAP3 SWAP2 SWAP1 PUSH2 0xF7 SWAP1 PUSH2 0x332 JUMP JUMPDEST SWAP2 SWAP1 POP SSTORE POP PUSH1 0x0 PUSH1 0x40 MLOAD DUP1 PUSH1 0x80 ADD PUSH1 0x40 MSTORE DUP1 CALLVALUE DUP2 MSTORE PUSH1 0x20 ADD TIMESTAMP DUP2 MSTORE PUSH1 0x20 ADD CALLER PUSH20 0xFFFFFFFFFFFFFFFFFFFFFFFFFFFFFFFFFFFFFFFF AND DUP2 MSTORE PUSH1 0x20 ADD DUP4 DUP2 MSTORE POP SWAP1 POP POP POP JUMP JUMPDEST PUSH1 0x0 PUSH2 0x14E PUSH2 0x149 DUP5 PUSH2 0x285 JUMP JUMPDEST PUSH2 0x260 JUMP JUMPDEST SWAP1 POP DUP3 DUP2 MSTORE PUSH1 0x20 DUP2 ADD DUP5 DUP5 DUP5 ADD GT ISZERO PUSH2 0x16A JUMPI PUSH2 0x169 PUSH2 0x3DE JUMP JUMPDEST JUMPDEST PUSH2 0x175 DUP5 DUP3 DUP6 PUSH2 0x2F2 JUMP JUMPDEST POP SWAP4 SWAP3 POP POP POP JUMP JUMPDEST PUSH1 0x0 DUP2 CALLDATALOAD SWAP1 POP PUSH2 0x18C DUP2 PUSH2 0x3FE JUMP JUMPDEST SWAP3 SWAP2 POP POP JUMP JUMPDEST PUSH1 0x0 DUP3 PUSH1 0x1F DUP4 ADD SLT PUSH2 0x1A7 JUMPI PUSH2 0x1A6 PUSH2 0x3D9 JUMP JUMPDEST JUMPDEST DUP2 CALLDATALOAD PUSH2 0x1B7 DUP5 DUP3 PUSH1 0x20 DUP7 ADD PUSH2 0x13B JUMP JUMPDEST SWAP2 POP POP SWAP3 SWAP2 POP POP JUMP JUMPDEST PUSH1 0x0 PUSH1 0x20 DUP3 DUP5 SUB SLT ISZERO PUSH2 0x1D6 JUMPI PUSH2 0x1D5 PUSH2 0x3E8 JUMP JUMPDEST JUMPDEST PUSH1 0x0 PUSH2 0x1E4 DUP5 DUP3 DUP6 ADD PUSH2 0x17D JUMP JUMPDEST SWAP2 POP POP SWAP3 SWAP2 POP POP JUMP JUMPDEST PUSH1 0x0 PUSH1 0x20 DUP3 DUP5 SUB SLT ISZERO PUSH2 0x203 JUMPI PUSH2 0x202 PUSH2 0x3E8 JUMP JUMPDEST JUMPDEST PUSH1 0x0 DUP3 ADD CALLDATALOAD PUSH8 0xFFFFFFFFFFFFFFFF DUP2 GT ISZERO PUSH2 0x221 JUMPI PUSH2 0x220 PUSH2 0x3E3 JUMP JUMPDEST JUMPDEST PUSH2 0x22D DUP5 DUP3 DUP6 ADD PUSH2 0x192 JUMP JUMPDEST SWAP2 POP POP SWAP3 SWAP2 POP POP JUMP JUMPDEST PUSH2 0x23F DUP2 PUSH2 0x2E8 JUMP JUMPDEST DUP3 MSTORE POP POP JUMP JUMPDEST PUSH1 0x0 PUSH1 0x20 DUP3 ADD SWAP1 POP PUSH2 0x25A PUSH1 0x0 DUP4 ADD DUP5 PUSH2 0x236 JUMP JUMPDEST SWAP3 SWAP2 POP POP JUMP JUMPDEST PUSH1 0x0 PUSH2 0x26A PUSH2 0x27B JUMP JUMPDEST SWAP1 POP PUSH2 0x276 DUP3 DUP3 PUSH2 0x301 JUMP JUMPDEST SWAP2 SWAP1 POP JUMP JUMPDEST PUSH1 0x0 PUSH1 0x40 MLOAD SWAP1 POP SWAP1 JUMP JUMPDEST PUSH1 0x0 PUSH8 0xFFFFFFFFFFFFFFFF DUP3 GT ISZERO PUSH2 0x2A0 JUMPI PUSH2 0x29F PUSH2 0x3AA JUMP JUMPDEST JUMPDEST PUSH2 0x2A9 DUP3 PUSH2 0x3ED JUMP JUMPDEST SWAP1 POP PUSH1 0x20 DUP2 ADD SWAP1 POP SWAP2 SWAP1 POP JUMP JUMPDEST PUSH1 0x0 PUSH2 0x2C1 DUP3 PUSH2 0x2C8 JUMP JUMPDEST SWAP1 POP SWAP2 SWAP1 POP JUMP JUMPDEST PUSH1 0x0 PUSH20 0xFFFFFFFFFFFFFFFFFFFFFFFFFFFFFFFFFFFFFFFF DUP3 AND SWAP1 POP SWAP2 SWAP1 POP JUMP JUMPDEST PUSH1 0x0 DUP2 SWAP1 POP SWAP2 SWAP1 POP JUMP JUMPDEST DUP3 DUP2 DUP4 CALLDATACOPY PUSH1 0x0 DUP4 DUP4 ADD MSTORE POP POP POP JUMP JUMPDEST PUSH2 0x30A DUP3 PUSH2 0x3ED JUMP JUMPDEST DUP2 ADD DUP2 DUP2 LT PUSH8 0xFFFFFFFFFFFFFFFF DUP3 GT OR ISZERO PUSH2 0x329 JUMPI PUSH2 0x328 PUSH2 0x3AA JUMP JUMPDEST JUMPDEST DUP1 PUSH1 0x40 MSTORE POP POP POP JUMP JUMPDEST PUSH1 0x0 PUSH2 0x33D DUP3 PUSH2 0x2E8 JUMP JUMPDEST SWAP2 POP PUSH32 0xFFFFFFFFFFFFFFFFFFFFFFFFFFFFFFFFFFFFFFFFFFFFFFFFFFFFFFFFFFFFFFFF DUP3 EQ ISZERO PUSH2 0x370 JUMPI PUSH2 0x36F PUSH2 0x37B JUMP JUMPDEST JUMPDEST PUSH1 0x1 DUP3 ADD SWAP1 POP SWAP2 SWAP1 POP JUMP JUMPDEST PUSH32 0x4E487B7100000000000000000000000000000000000000000000000000000000 PUSH1 0x0 MSTORE PUSH1 0x11 PUSH1 0x4 MSTORE PUSH1 0x24 PUSH1 0x0 REVERT JUMPDEST PUSH32 0x4E487B7100000000000000000000000000000000000000000000000000000000 PUSH1 0x0 MSTORE PUSH1 0x41 PUSH1 0x4 MSTORE PUSH1 0x24 PUSH1 0x0 REVERT JUMPDEST PUSH1 0x0 DUP1 REVERT JUMPDEST PUSH1 0x0 DUP1 REVERT JUMPDEST PUSH1 0x0 DUP1 REVERT JUMPDEST PUSH1 0x0 DUP1 REVERT JUMPDEST PUSH1 0x0 PUSH1 0x1F NOT PUSH1 0x1F DUP4 ADD AND SWAP1 POP SWAP2 SWAP1 POP JUMP JUMPDEST PUSH2 0x407 DUP2 PUSH2 0x2B6 JUMP JUMPDEST DUP2 EQ PUSH2 0x412 JUMPI PUSH1 0x0 DUP1 REVERT JUMPDEST POP JUMP INVALID LOG2 PUSH5 0x6970667358 0x22 SLT KECCAK256 0xB7 0xCA PUSH3 0xAEBEDC PUSH25 0x13BA675046DF19A240411B82FF3FBE4577FE9BDF15E3EF0CE0 PUSH5 0x736F6C6343 STOP ADDMOD SMOD STOP CALLER "
				},
				"gasEstimates": {
					"creation": {
						"codeDepositCost": "219800",
						"executionCost": "263",
						"totalCost": "220063"
					},
					"external": {
						"balances(address)": "2806",
						"pay(string)": "infinite"
					}
				},
				"methodIdentifiers": {
					"balances(address)": "27e235e3",
					"pay(string)": "2b66d72e"
				}
			},
			"storageLayout": {
				"storage": [
					{
						"astId": 23,
						"contract": "contracts/Lesson5Types.sol:Struct5Lesson",
						"label": "balances",
						"offset": 0,
						"slot": "0",
						"type": "t_mapping(t_address,t_struct(Balance)18_storage)"
					}
				],
				"types": {
					"t_address": {
						"encoding": "inplace",
						"label": "address",
						"numberOfBytes": "20"
					},
					"t_mapping(t_address,t_struct(Balance)18_storage)": {
						"encoding": "mapping",
						"key": "t_address",
						"label": "mapping(address => struct Struct5Lesson.Balance)",
						"numberOfBytes": "32",
						"value": "t_struct(Balance)18_storage"
					},
					"t_mapping(t_uint256,t_struct(Payment)10_storage)": {
						"encoding": "mapping",
						"key": "t_uint256",
						"label": "mapping(uint256 => struct Struct5Lesson.Payment)",
						"numberOfBytes": "32",
						"value": "t_struct(Payment)10_storage"
					},
					"t_string_storage": {
						"encoding": "bytes",
						"label": "string",
						"numberOfBytes": "32"
					},
					"t_struct(Balance)18_storage": {
						"encoding": "inplace",
						"label": "struct Struct5Lesson.Balance",
						"members": [
							{
								"astId": 12,
								"contract": "contracts/Lesson5Types.sol:Struct5Lesson",
								"label": "totalPayments",
								"offset": 0,
								"slot": "0",
								"type": "t_uint256"
							},
							{
								"astId": 17,
								"contract": "contracts/Lesson5Types.sol:Struct5Lesson",
								"label": "payments",
								"offset": 0,
								"slot": "1",
								"type": "t_mapping(t_uint256,t_struct(Payment)10_storage)"
							}
						],
						"numberOfBytes": "64"
					},
					"t_struct(Payment)10_storage": {
						"encoding": "inplace",
						"label": "struct Struct5Lesson.Payment",
						"members": [
							{
								"astId": 3,
								"contract": "contracts/Lesson5Types.sol:Struct5Lesson",
								"label": "amount",
								"offset": 0,
								"slot": "0",
								"type": "t_uint256"
							},
							{
								"astId": 5,
								"contract": "contracts/Lesson5Types.sol:Struct5Lesson",
								"label": "timestamp",
								"offset": 0,
								"slot": "1",
								"type": "t_uint256"
							},
							{
								"astId": 7,
								"contract": "contracts/Lesson5Types.sol:Struct5Lesson",
								"label": "from",
								"offset": 0,
								"slot": "2",
								"type": "t_address"
							},
							{
								"astId": 9,
								"contract": "contracts/Lesson5Types.sol:Struct5Lesson",
								"label": "message",
								"offset": 0,
								"slot": "3",
								"type": "t_string_storage"
							}
						],
						"numberOfBytes": "128"
					},
					"t_uint256": {
						"encoding": "inplace",
						"label": "uint256",
						"numberOfBytes": "32"
					}
				}
			},
			"userdoc": {
				"kind": "user",
				"methods": {},
				"version": 1
			}
		}
	}
}