{
	"contracts/Lesson3Types.sol": {
		"Map3Lesson": {
			"abi": [
				{
					"inputs": [
						{
							"internalType": "address",
							"name": "",
							"type": "address"
						}
					],
					"name": "accounts",
					"outputs": [
						{
							"internalType": "string",
							"name": "",
							"type": "string"
						}
					],
					"stateMutability": "view",
					"type": "function"
				},
				{
					"inputs": [
						{
							"internalType": "string",
							"name": "",
							"type": "string"
						}
					],
					"name": "ages",
					"outputs": [
						{
							"internalType": "uint256",
							"name": "",
							"type": "uint256"
						}
					],
					"stateMutability": "view",
					"type": "function"
				},
				{
					"inputs": [
						{
							"internalType": "address",
							"name": "",
							"type": "address"
						}
					],
					"name": "payments",
					"outputs": [
						{
							"internalType": "uint256",
							"name": "",
							"type": "uint256"
						}
					],
					"stateMutability": "view",
					"type": "function"
				},
				{
					"inputs": [
						{
							"internalType": "string",
							"name": "name",
							"type": "string"
						},
						{
							"internalType": "uint256",
							"name": "age",
							"type": "uint256"
						}
					],
					"name": "setAge",
					"outputs": [],
					"stateMutability": "nonpayable",
					"type": "function"
				}
			],
			"devdoc": {
				"kind": "dev",
				"methods": {},
				"version": 1
			},
			"evm": {
				"assembly": "    /* \"contracts/Lesson3Types.sol\":58:414  contract Map3Lesson {... */\n  mstore(0x40, 0x80)\n  callvalue\n  dup1\n  iszero\n  tag_1\n  jumpi\n  0x00\n  dup1\n  revert\ntag_1:\n  pop\n  dataSize(sub_0)\n  dup1\n  dataOffset(sub_0)\n  0x00\n  codecopy\n  0x00\n  return\nstop\n\nsub_0: assembly {\n        /* \"contracts/Lesson3Types.sol\":58:414  contract Map3Lesson {... */\n      mstore(0x40, 0x80)\n      callvalue\n      dup1\n      iszero\n      tag_1\n      jumpi\n      0x00\n      dup1\n      revert\n    tag_1:\n      pop\n      jumpi(tag_2, lt(calldatasize, 0x04))\n      shr(0xe0, calldataload(0x00))\n      dup1\n      0x25b574aa\n      eq\n      tag_3\n      jumpi\n      dup1\n      0x5e5c06e2\n      eq\n      tag_4\n      jumpi\n      dup1\n      0x6dcfe452\n      eq\n      tag_5\n      jumpi\n      dup1\n      0xe2982c21\n      eq\n      tag_6\n      jumpi\n    tag_2:\n      0x00\n      dup1\n      revert\n        /* \"contracts/Lesson3Types.sol\":327:412  function setAge(string memory name, uint age) public{... */\n    tag_3:\n      tag_7\n      0x04\n      dup1\n      calldatasize\n      sub\n      dup2\n      add\n      swap1\n      tag_8\n      swap2\n      swap1\n      tag_9\n      jump\t// in\n    tag_8:\n      tag_10\n      jump\t// in\n    tag_7:\n      stop\n        /* \"contracts/Lesson3Types.sol\":158:201  mapping (address => string) public accounts */\n    tag_4:\n      tag_11\n      0x04\n      dup1\n      calldatasize\n      sub\n      dup2\n      add\n      swap1\n      tag_12\n      swap2\n      swap1\n      tag_13\n      jump\t// in\n    tag_12:\n      tag_14\n      jump\t// in\n    tag_11:\n      mload(0x40)\n      tag_15\n      swap2\n      swap1\n      tag_16\n      jump\t// in\n    tag_15:\n      mload(0x40)\n      dup1\n      swap2\n      sub\n      swap1\n      return\n        /* \"contracts/Lesson3Types.sol\":84:120  mapping (string => uint) public ages */\n    tag_5:\n      tag_17\n      0x04\n      dup1\n      calldatasize\n      sub\n      dup2\n      add\n      swap1\n      tag_18\n      swap2\n      swap1\n      tag_19\n      jump\t// in\n    tag_18:\n      tag_20\n      jump\t// in\n    tag_17:\n      mload(0x40)\n      tag_21\n      swap2\n      swap1\n      tag_22\n      jump\t// in\n    tag_21:\n      mload(0x40)\n      dup1\n      swap2\n      sub\n      swap1\n      return\n        /* \"contracts/Lesson3Types.sol\":279:320  mapping (address => uint) public payments */\n    tag_6:\n      tag_23\n      0x04\n      dup1\n      calldatasize\n      sub\n      dup2\n      add\n      swap1\n      tag_24\n      swap2\n      swap1\n      tag_13\n      jump\t// in\n    tag_24:\n      tag_25\n      jump\t// in\n    tag_23:\n      mload(0x40)\n      tag_26\n      swap2\n      swap1\n      tag_22\n      jump\t// in\n    tag_26:\n      mload(0x40)\n      dup1\n      swap2\n      sub\n      swap1\n      return\n        /* \"contracts/Lesson3Types.sol\":327:412  function setAge(string memory name, uint age) public{... */\n    tag_10:\n        /* \"contracts/Lesson3Types.sol\":402:405  age */\n      dup1\n        /* \"contracts/Lesson3Types.sol\":389:393  ages */\n      0x00\n        /* \"contracts/Lesson3Types.sol\":394:398  name */\n      dup4\n        /* \"contracts/Lesson3Types.sol\":389:399  ages[name] */\n      mload(0x40)\n      tag_28\n      swap2\n      swap1\n      tag_29\n      jump\t// in\n    tag_28:\n      swap1\n      dup2\n      mstore\n      0x20\n      add\n      mload(0x40)\n      dup1\n      swap2\n      sub\n      swap1\n      keccak256\n        /* \"contracts/Lesson3Types.sol\":389:405  ages[name] = age */\n      dup2\n      swap1\n      sstore\n      pop\n        /* \"contracts/Lesson3Types.sol\":327:412  function setAge(string memory name, uint age) public{... */\n      pop\n      pop\n      jump\t// out\n        /* \"contracts/Lesson3Types.sol\":158:201  mapping (address => string) public accounts */\n    tag_14:\n      mstore(0x20, 0x01)\n      dup1\n      0x00\n      mstore\n      keccak256(0x00, 0x40)\n      0x00\n      swap2\n      pop\n      swap1\n      pop\n      dup1\n      sload\n      tag_30\n      swap1\n      tag_31\n      jump\t// in\n    tag_30:\n      dup1\n      0x1f\n      add\n      0x20\n      dup1\n      swap2\n      div\n      mul\n      0x20\n      add\n      mload(0x40)\n      swap1\n      dup2\n      add\n      0x40\n      mstore\n      dup1\n      swap3\n      swap2\n      swap1\n      dup2\n      dup2\n      mstore\n      0x20\n      add\n      dup3\n      dup1\n      sload\n      tag_32\n      swap1\n      tag_31\n      jump\t// in\n    tag_32:\n      dup1\n      iszero\n      tag_33\n      jumpi\n      dup1\n      0x1f\n      lt\n      tag_34\n      jumpi\n      0x0100\n      dup1\n      dup4\n      sload\n      div\n      mul\n      dup4\n      mstore\n      swap2\n      0x20\n      add\n      swap2\n      jump(tag_33)\n    tag_34:\n      dup3\n      add\n      swap2\n      swap1\n      0x00\n      mstore\n      keccak256(0x00, 0x20)\n      swap1\n    tag_35:\n      dup2\n      sload\n      dup2\n      mstore\n      swap1\n      0x01\n      add\n      swap1\n      0x20\n      add\n      dup1\n      dup4\n      gt\n      tag_35\n      jumpi\n      dup3\n      swap1\n      sub\n      0x1f\n      and\n      dup3\n      add\n      swap2\n    tag_33:\n      pop\n      pop\n      pop\n      pop\n      pop\n      dup2\n      jump\t// out\n        /* \"contracts/Lesson3Types.sol\":84:120  mapping (string => uint) public ages */\n    tag_20:\n      0x00\n      dup2\n      dup1\n      mload\n      0x20\n      dup2\n      add\n      dup3\n      add\n      dup1\n      mload\n      dup5\n      dup3\n      mstore\n      0x20\n      dup4\n      add\n      0x20\n      dup6\n      add\n      keccak256\n      dup2\n      dup4\n      mstore\n      dup1\n      swap6\n      pop\n      pop\n      pop\n      pop\n      pop\n      pop\n      0x00\n      swap2\n      pop\n      swap1\n      pop\n      sload\n      dup2\n      jump\t// out\n        /* \"contracts/Lesson3Types.sol\":279:320  mapping (address => uint) public payments */\n    tag_25:\n      mstore(0x20, 0x02)\n      dup1\n      0x00\n      mstore\n      keccak256(0x00, 0x40)\n      0x00\n      swap2\n      pop\n      swap1\n      pop\n      sload\n      dup2\n      jump\t// out\n        /* \"#utility.yul\":7:419   */\n    tag_37:\n        /* \"#utility.yul\":85:90   */\n      0x00\n        /* \"#utility.yul\":110:176   */\n      tag_39\n        /* \"#utility.yul\":126:175   */\n      tag_40\n        /* \"#utility.yul\":168:174   */\n      dup5\n        /* \"#utility.yul\":126:175   */\n      tag_41\n      jump\t// in\n    tag_40:\n        /* \"#utility.yul\":110:176   */\n      tag_42\n      jump\t// in\n    tag_39:\n        /* \"#utility.yul\":101:176   */\n      swap1\n      pop\n        /* \"#utility.yul\":199:205   */\n      dup3\n        /* \"#utility.yul\":192:197   */\n      dup2\n        /* \"#utility.yul\":185:206   */\n      mstore\n        /* \"#utility.yul\":237:241   */\n      0x20\n        /* \"#utility.yul\":230:235   */\n      dup2\n        /* \"#utility.yul\":226:242   */\n      add\n        /* \"#utility.yul\":275:278   */\n      dup5\n        /* \"#utility.yul\":266:272   */\n      dup5\n        /* \"#utility.yul\":261:264   */\n      dup5\n        /* \"#utility.yul\":257:273   */\n      add\n        /* \"#utility.yul\":254:279   */\n      gt\n        /* \"#utility.yul\":251:363   */\n      iszero\n      tag_43\n      jumpi\n        /* \"#utility.yul\":282:361   */\n      tag_44\n      tag_45\n      jump\t// in\n    tag_44:\n        /* \"#utility.yul\":251:363   */\n    tag_43:\n        /* \"#utility.yul\":372:413   */\n      tag_46\n        /* \"#utility.yul\":406:412   */\n      dup5\n        /* \"#utility.yul\":401:404   */\n      dup3\n        /* \"#utility.yul\":396:399   */\n      dup6\n        /* \"#utility.yul\":372:413   */\n      tag_47\n      jump\t// in\n    tag_46:\n        /* \"#utility.yul\":91:419   */\n      pop\n        /* \"#utility.yul\":7:419   */\n      swap4\n      swap3\n      pop\n      pop\n      pop\n      jump\t// out\n        /* \"#utility.yul\":425:564   */\n    tag_48:\n        /* \"#utility.yul\":471:476   */\n      0x00\n        /* \"#utility.yul\":509:515   */\n      dup2\n        /* \"#utility.yul\":496:516   */\n      calldataload\n        /* \"#utility.yul\":487:516   */\n      swap1\n      pop\n        /* \"#utility.yul\":525:558   */\n      tag_50\n        /* \"#utility.yul\":552:557   */\n      dup2\n        /* \"#utility.yul\":525:558   */\n      tag_51\n      jump\t// in\n    tag_50:\n        /* \"#utility.yul\":425:564   */\n      swap3\n      swap2\n      pop\n      pop\n      jump\t// out\n        /* \"#utility.yul\":584:924   */\n    tag_52:\n        /* \"#utility.yul\":640:645   */\n      0x00\n        /* \"#utility.yul\":689:692   */\n      dup3\n        /* \"#utility.yul\":682:686   */\n      0x1f\n        /* \"#utility.yul\":674:680   */\n      dup4\n        /* \"#utility.yul\":670:687   */\n      add\n        /* \"#utility.yul\":666:693   */\n      slt\n        /* \"#utility.yul\":656:778   */\n      tag_54\n      jumpi\n        /* \"#utility.yul\":697:776   */\n      tag_55\n      tag_56\n      jump\t// in\n    tag_55:\n        /* \"#utility.yul\":656:778   */\n    tag_54:\n        /* \"#utility.yul\":814:820   */\n      dup2\n        /* \"#utility.yul\":801:821   */\n      calldataload\n        /* \"#utility.yul\":839:918   */\n      tag_57\n        /* \"#utility.yul\":914:917   */\n      dup5\n        /* \"#utility.yul\":906:912   */\n      dup3\n        /* \"#utility.yul\":899:903   */\n      0x20\n        /* \"#utility.yul\":891:897   */\n      dup7\n        /* \"#utility.yul\":887:904   */\n      add\n        /* \"#utility.yul\":839:918   */\n      tag_37\n      jump\t// in\n    tag_57:\n        /* \"#utility.yul\":830:918   */\n      swap2\n      pop\n        /* \"#utility.yul\":646:924   */\n      pop\n        /* \"#utility.yul\":584:924   */\n      swap3\n      swap2\n      pop\n      pop\n      jump\t// out\n        /* \"#utility.yul\":930:1069   */\n    tag_58:\n        /* \"#utility.yul\":976:981   */\n      0x00\n        /* \"#utility.yul\":1014:1020   */\n      dup2\n        /* \"#utility.yul\":1001:1021   */\n      calldataload\n        /* \"#utility.yul\":992:1021   */\n      swap1\n      pop\n        /* \"#utility.yul\":1030:1063   */\n      tag_60\n        /* \"#utility.yul\":1057:1062   */\n      dup2\n        /* \"#utility.yul\":1030:1063   */\n      tag_61\n      jump\t// in\n    tag_60:\n        /* \"#utility.yul\":930:1069   */\n      swap3\n      swap2\n      pop\n      pop\n      jump\t// out\n        /* \"#utility.yul\":1075:1404   */\n    tag_13:\n        /* \"#utility.yul\":1134:1140   */\n      0x00\n        /* \"#utility.yul\":1183:1185   */\n      0x20\n        /* \"#utility.yul\":1171:1180   */\n      dup3\n        /* \"#utility.yul\":1162:1169   */\n      dup5\n        /* \"#utility.yul\":1158:1181   */\n      sub\n        /* \"#utility.yul\":1154:1186   */\n      slt\n        /* \"#utility.yul\":1151:1270   */\n      iszero\n      tag_63\n      jumpi\n        /* \"#utility.yul\":1189:1268   */\n      tag_64\n      tag_65\n      jump\t// in\n    tag_64:\n        /* \"#utility.yul\":1151:1270   */\n    tag_63:\n        /* \"#utility.yul\":1309:1310   */\n      0x00\n        /* \"#utility.yul\":1334:1387   */\n      tag_66\n        /* \"#utility.yul\":1379:1386   */\n      dup5\n        /* \"#utility.yul\":1370:1376   */\n      dup3\n        /* \"#utility.yul\":1359:1368   */\n      dup6\n        /* \"#utility.yul\":1355:1377   */\n      add\n        /* \"#utility.yul\":1334:1387   */\n      tag_48\n      jump\t// in\n    tag_66:\n        /* \"#utility.yul\":1324:1387   */\n      swap2\n      pop\n        /* \"#utility.yul\":1280:1397   */\n      pop\n        /* \"#utility.yul\":1075:1404   */\n      swap3\n      swap2\n      pop\n      pop\n      jump\t// out\n        /* \"#utility.yul\":1410:1919   */\n    tag_19:\n        /* \"#utility.yul\":1479:1485   */\n      0x00\n        /* \"#utility.yul\":1528:1530   */\n      0x20\n        /* \"#utility.yul\":1516:1525   */\n      dup3\n        /* \"#utility.yul\":1507:1514   */\n      dup5\n        /* \"#utility.yul\":1503:1526   */\n      sub\n        /* \"#utility.yul\":1499:1531   */\n      slt\n        /* \"#utility.yul\":1496:1615   */\n      iszero\n      tag_68\n      jumpi\n        /* \"#utility.yul\":1534:1613   */\n      tag_69\n      tag_65\n      jump\t// in\n    tag_69:\n        /* \"#utility.yul\":1496:1615   */\n    tag_68:\n        /* \"#utility.yul\":1682:1683   */\n      0x00\n        /* \"#utility.yul\":1671:1680   */\n      dup3\n        /* \"#utility.yul\":1667:1684   */\n      add\n        /* \"#utility.yul\":1654:1685   */\n      calldataload\n        /* \"#utility.yul\":1712:1730   */\n      0xffffffffffffffff\n        /* \"#utility.yul\":1704:1710   */\n      dup2\n        /* \"#utility.yul\":1701:1731   */\n      gt\n        /* \"#utility.yul\":1698:1815   */\n      iszero\n      tag_70\n      jumpi\n        /* \"#utility.yul\":1734:1813   */\n      tag_71\n      tag_72\n      jump\t// in\n    tag_71:\n        /* \"#utility.yul\":1698:1815   */\n    tag_70:\n        /* \"#utility.yul\":1839:1902   */\n      tag_73\n        /* \"#utility.yul\":1894:1901   */\n      dup5\n        /* \"#utility.yul\":1885:1891   */\n      dup3\n        /* \"#utility.yul\":1874:1883   */\n      dup6\n        /* \"#utility.yul\":1870:1892   */\n      add\n        /* \"#utility.yul\":1839:1902   */\n      tag_52\n      jump\t// in\n    tag_73:\n        /* \"#utility.yul\":1829:1902   */\n      swap2\n      pop\n        /* \"#utility.yul\":1625:1912   */\n      pop\n        /* \"#utility.yul\":1410:1919   */\n      swap3\n      swap2\n      pop\n      pop\n      jump\t// out\n        /* \"#utility.yul\":1925:2579   */\n    tag_9:\n        /* \"#utility.yul\":2003:2009   */\n      0x00\n        /* \"#utility.yul\":2011:2017   */\n      dup1\n        /* \"#utility.yul\":2060:2062   */\n      0x40\n        /* \"#utility.yul\":2048:2057   */\n      dup4\n        /* \"#utility.yul\":2039:2046   */\n      dup6\n        /* \"#utility.yul\":2035:2058   */\n      sub\n        /* \"#utility.yul\":2031:2063   */\n      slt\n        /* \"#utility.yul\":2028:2147   */\n      iszero\n      tag_75\n      jumpi\n        /* \"#utility.yul\":2066:2145   */\n      tag_76\n      tag_65\n      jump\t// in\n    tag_76:\n        /* \"#utility.yul\":2028:2147   */\n    tag_75:\n        /* \"#utility.yul\":2214:2215   */\n      0x00\n        /* \"#utility.yul\":2203:2212   */\n      dup4\n        /* \"#utility.yul\":2199:2216   */\n      add\n        /* \"#utility.yul\":2186:2217   */\n      calldataload\n        /* \"#utility.yul\":2244:2262   */\n      0xffffffffffffffff\n        /* \"#utility.yul\":2236:2242   */\n      dup2\n        /* \"#utility.yul\":2233:2263   */\n      gt\n        /* \"#utility.yul\":2230:2347   */\n      iszero\n      tag_77\n      jumpi\n        /* \"#utility.yul\":2266:2345   */\n      tag_78\n      tag_72\n      jump\t// in\n    tag_78:\n        /* \"#utility.yul\":2230:2347   */\n    tag_77:\n        /* \"#utility.yul\":2371:2434   */\n      tag_79\n        /* \"#utility.yul\":2426:2433   */\n      dup6\n        /* \"#utility.yul\":2417:2423   */\n      dup3\n        /* \"#utility.yul\":2406:2415   */\n      dup7\n        /* \"#utility.yul\":2402:2424   */\n      add\n        /* \"#utility.yul\":2371:2434   */\n      tag_52\n      jump\t// in\n    tag_79:\n        /* \"#utility.yul\":2361:2434   */\n      swap3\n      pop\n        /* \"#utility.yul\":2157:2444   */\n      pop\n        /* \"#utility.yul\":2483:2485   */\n      0x20\n        /* \"#utility.yul\":2509:2562   */\n      tag_80\n        /* \"#utility.yul\":2554:2561   */\n      dup6\n        /* \"#utility.yul\":2545:2551   */\n      dup3\n        /* \"#utility.yul\":2534:2543   */\n      dup7\n        /* \"#utility.yul\":2530:2552   */\n      add\n        /* \"#utility.yul\":2509:2562   */\n      tag_58\n      jump\t// in\n    tag_80:\n        /* \"#utility.yul\":2499:2562   */\n      swap2\n      pop\n        /* \"#utility.yul\":2454:2572   */\n      pop\n        /* \"#utility.yul\":1925:2579   */\n      swap3\n      pop\n      swap3\n      swap1\n      pop\n      jump\t// out\n        /* \"#utility.yul\":2585:2949   */\n    tag_81:\n        /* \"#utility.yul\":2673:2676   */\n      0x00\n        /* \"#utility.yul\":2701:2740   */\n      tag_83\n        /* \"#utility.yul\":2734:2739   */\n      dup3\n        /* \"#utility.yul\":2701:2740   */\n      tag_84\n      jump\t// in\n    tag_83:\n        /* \"#utility.yul\":2756:2827   */\n      tag_85\n        /* \"#utility.yul\":2820:2826   */\n      dup2\n        /* \"#utility.yul\":2815:2818   */\n      dup6\n        /* \"#utility.yul\":2756:2827   */\n      tag_86\n      jump\t// in\n    tag_85:\n        /* \"#utility.yul\":2749:2827   */\n      swap4\n      pop\n        /* \"#utility.yul\":2836:2888   */\n      tag_87\n        /* \"#utility.yul\":2881:2887   */\n      dup2\n        /* \"#utility.yul\":2876:2879   */\n      dup6\n        /* \"#utility.yul\":2869:2873   */\n      0x20\n        /* \"#utility.yul\":2862:2867   */\n      dup7\n        /* \"#utility.yul\":2858:2874   */\n      add\n        /* \"#utility.yul\":2836:2888   */\n      tag_88\n      jump\t// in\n    tag_87:\n        /* \"#utility.yul\":2913:2942   */\n      tag_89\n        /* \"#utility.yul\":2935:2941   */\n      dup2\n        /* \"#utility.yul\":2913:2942   */\n      tag_90\n      jump\t// in\n    tag_89:\n        /* \"#utility.yul\":2908:2911   */\n      dup5\n        /* \"#utility.yul\":2904:2943   */\n      add\n        /* \"#utility.yul\":2897:2943   */\n      swap2\n      pop\n        /* \"#utility.yul\":2677:2949   */\n      pop\n        /* \"#utility.yul\":2585:2949   */\n      swap3\n      swap2\n      pop\n      pop\n      jump\t// out\n        /* \"#utility.yul\":2955:3332   */\n    tag_91:\n        /* \"#utility.yul\":3061:3064   */\n      0x00\n        /* \"#utility.yul\":3089:3128   */\n      tag_93\n        /* \"#utility.yul\":3122:3127   */\n      dup3\n        /* \"#utility.yul\":3089:3128   */\n      tag_84\n      jump\t// in\n    tag_93:\n        /* \"#utility.yul\":3144:3233   */\n      tag_94\n        /* \"#utility.yul\":3226:3232   */\n      dup2\n        /* \"#utility.yul\":3221:3224   */\n      dup6\n        /* \"#utility.yul\":3144:3233   */\n      tag_95\n      jump\t// in\n    tag_94:\n        /* \"#utility.yul\":3137:3233   */\n      swap4\n      pop\n        /* \"#utility.yul\":3242:3294   */\n      tag_96\n        /* \"#utility.yul\":3287:3293   */\n      dup2\n        /* \"#utility.yul\":3282:3285   */\n      dup6\n        /* \"#utility.yul\":3275:3279   */\n      0x20\n        /* \"#utility.yul\":3268:3273   */\n      dup7\n        /* \"#utility.yul\":3264:3280   */\n      add\n        /* \"#utility.yul\":3242:3294   */\n      tag_88\n      jump\t// in\n    tag_96:\n        /* \"#utility.yul\":3319:3325   */\n      dup1\n        /* \"#utility.yul\":3314:3317   */\n      dup5\n        /* \"#utility.yul\":3310:3326   */\n      add\n        /* \"#utility.yul\":3303:3326   */\n      swap2\n      pop\n        /* \"#utility.yul\":3065:3332   */\n      pop\n        /* \"#utility.yul\":2955:3332   */\n      swap3\n      swap2\n      pop\n      pop\n      jump\t// out\n        /* \"#utility.yul\":3338:3456   */\n    tag_97:\n        /* \"#utility.yul\":3425:3449   */\n      tag_99\n        /* \"#utility.yul\":3443:3448   */\n      dup2\n        /* \"#utility.yul\":3425:3449   */\n      tag_100\n      jump\t// in\n    tag_99:\n        /* \"#utility.yul\":3420:3423   */\n      dup3\n        /* \"#utility.yul\":3413:3450   */\n      mstore\n        /* \"#utility.yul\":3338:3456   */\n      pop\n      pop\n      jump\t// out\n        /* \"#utility.yul\":3462:3737   */\n    tag_29:\n        /* \"#utility.yul\":3594:3597   */\n      0x00\n        /* \"#utility.yul\":3616:3711   */\n      tag_102\n        /* \"#utility.yul\":3707:3710   */\n      dup3\n        /* \"#utility.yul\":3698:3704   */\n      dup5\n        /* \"#utility.yul\":3616:3711   */\n      tag_91\n      jump\t// in\n    tag_102:\n        /* \"#utility.yul\":3609:3711   */\n      swap2\n      pop\n        /* \"#utility.yul\":3728:3731   */\n      dup2\n        /* \"#utility.yul\":3721:3731   */\n      swap1\n      pop\n        /* \"#utility.yul\":3462:3737   */\n      swap3\n      swap2\n      pop\n      pop\n      jump\t// out\n        /* \"#utility.yul\":3743:4056   */\n    tag_16:\n        /* \"#utility.yul\":3856:3860   */\n      0x00\n        /* \"#utility.yul\":3894:3896   */\n      0x20\n        /* \"#utility.yul\":3883:3892   */\n      dup3\n        /* \"#utility.yul\":3879:3897   */\n      add\n        /* \"#utility.yul\":3871:3897   */\n      swap1\n      pop\n        /* \"#utility.yul\":3943:3952   */\n      dup2\n        /* \"#utility.yul\":3937:3941   */\n      dup2\n        /* \"#utility.yul\":3933:3953   */\n      sub\n        /* \"#utility.yul\":3929:3930   */\n      0x00\n        /* \"#utility.yul\":3918:3927   */\n      dup4\n        /* \"#utility.yul\":3914:3931   */\n      add\n        /* \"#utility.yul\":3907:3954   */\n      mstore\n        /* \"#utility.yul\":3971:4049   */\n      tag_104\n        /* \"#utility.yul\":4044:4048   */\n      dup2\n        /* \"#utility.yul\":4035:4041   */\n      dup5\n        /* \"#utility.yul\":3971:4049   */\n      tag_81\n      jump\t// in\n    tag_104:\n        /* \"#utility.yul\":3963:4049   */\n      swap1\n      pop\n        /* \"#utility.yul\":3743:4056   */\n      swap3\n      swap2\n      pop\n      pop\n      jump\t// out\n        /* \"#utility.yul\":4062:4284   */\n    tag_22:\n        /* \"#utility.yul\":4155:4159   */\n      0x00\n        /* \"#utility.yul\":4193:4195   */\n      0x20\n        /* \"#utility.yul\":4182:4191   */\n      dup3\n        /* \"#utility.yul\":4178:4196   */\n      add\n        /* \"#utility.yul\":4170:4196   */\n      swap1\n      pop\n        /* \"#utility.yul\":4206:4277   */\n      tag_106\n        /* \"#utility.yul\":4274:4275   */\n      0x00\n        /* \"#utility.yul\":4263:4272   */\n      dup4\n        /* \"#utility.yul\":4259:4276   */\n      add\n        /* \"#utility.yul\":4250:4256   */\n      dup5\n        /* \"#utility.yul\":4206:4277   */\n      tag_97\n      jump\t// in\n    tag_106:\n        /* \"#utility.yul\":4062:4284   */\n      swap3\n      swap2\n      pop\n      pop\n      jump\t// out\n        /* \"#utility.yul\":4290:4419   */\n    tag_42:\n        /* \"#utility.yul\":4324:4330   */\n      0x00\n        /* \"#utility.yul\":4351:4371   */\n      tag_108\n      tag_109\n      jump\t// in\n    tag_108:\n        /* \"#utility.yul\":4341:4371   */\n      swap1\n      pop\n        /* \"#utility.yul\":4380:4413   */\n      tag_110\n        /* \"#utility.yul\":4408:4412   */\n      dup3\n        /* \"#utility.yul\":4400:4406   */\n      dup3\n        /* \"#utility.yul\":4380:4413   */\n      tag_111\n      jump\t// in\n    tag_110:\n        /* \"#utility.yul\":4290:4419   */\n      swap2\n      swap1\n      pop\n      jump\t// out\n        /* \"#utility.yul\":4425:4500   */\n    tag_109:\n        /* \"#utility.yul\":4458:4464   */\n      0x00\n        /* \"#utility.yul\":4491:4493   */\n      0x40\n        /* \"#utility.yul\":4485:4494   */\n      mload\n        /* \"#utility.yul\":4475:4494   */\n      swap1\n      pop\n        /* \"#utility.yul\":4425:4500   */\n      swap1\n      jump\t// out\n        /* \"#utility.yul\":4506:4814   */\n    tag_41:\n        /* \"#utility.yul\":4568:4572   */\n      0x00\n        /* \"#utility.yul\":4658:4676   */\n      0xffffffffffffffff\n        /* \"#utility.yul\":4650:4656   */\n      dup3\n        /* \"#utility.yul\":4647:4677   */\n      gt\n        /* \"#utility.yul\":4644:4700   */\n      iszero\n      tag_114\n      jumpi\n        /* \"#utility.yul\":4680:4698   */\n      tag_115\n      tag_116\n      jump\t// in\n    tag_115:\n        /* \"#utility.yul\":4644:4700   */\n    tag_114:\n        /* \"#utility.yul\":4718:4747   */\n      tag_117\n        /* \"#utility.yul\":4740:4746   */\n      dup3\n        /* \"#utility.yul\":4718:4747   */\n      tag_90\n      jump\t// in\n    tag_117:\n        /* \"#utility.yul\":4710:4747   */\n      swap1\n      pop\n        /* \"#utility.yul\":4802:4806   */\n      0x20\n        /* \"#utility.yul\":4796:4800   */\n      dup2\n        /* \"#utility.yul\":4792:4807   */\n      add\n        /* \"#utility.yul\":4784:4807   */\n      swap1\n      pop\n        /* \"#utility.yul\":4506:4814   */\n      swap2\n      swap1\n      pop\n      jump\t// out\n        /* \"#utility.yul\":4820:4919   */\n    tag_84:\n        /* \"#utility.yul\":4872:4878   */\n      0x00\n        /* \"#utility.yul\":4906:4911   */\n      dup2\n        /* \"#utility.yul\":4900:4912   */\n      mload\n        /* \"#utility.yul\":4890:4912   */\n      swap1\n      pop\n        /* \"#utility.yul\":4820:4919   */\n      swap2\n      swap1\n      pop\n      jump\t// out\n        /* \"#utility.yul\":4925:5094   */\n    tag_86:\n        /* \"#utility.yul\":5009:5020   */\n      0x00\n        /* \"#utility.yul\":5043:5049   */\n      dup3\n        /* \"#utility.yul\":5038:5041   */\n      dup3\n        /* \"#utility.yul\":5031:5050   */\n      mstore\n        /* \"#utility.yul\":5083:5087   */\n      0x20\n        /* \"#utility.yul\":5078:5081   */\n      dup3\n        /* \"#utility.yul\":5074:5088   */\n      add\n        /* \"#utility.yul\":5059:5088   */\n      swap1\n      pop\n        /* \"#utility.yul\":4925:5094   */\n      swap3\n      swap2\n      pop\n      pop\n      jump\t// out\n        /* \"#utility.yul\":5100:5248   */\n    tag_95:\n        /* \"#utility.yul\":5202:5213   */\n      0x00\n        /* \"#utility.yul\":5239:5242   */\n      dup2\n        /* \"#utility.yul\":5224:5242   */\n      swap1\n      pop\n        /* \"#utility.yul\":5100:5248   */\n      swap3\n      swap2\n      pop\n      pop\n      jump\t// out\n        /* \"#utility.yul\":5254:5350   */\n    tag_121:\n        /* \"#utility.yul\":5291:5298   */\n      0x00\n        /* \"#utility.yul\":5320:5344   */\n      tag_123\n        /* \"#utility.yul\":5338:5343   */\n      dup3\n        /* \"#utility.yul\":5320:5344   */\n      tag_124\n      jump\t// in\n    tag_123:\n        /* \"#utility.yul\":5309:5344   */\n      swap1\n      pop\n        /* \"#utility.yul\":5254:5350   */\n      swap2\n      swap1\n      pop\n      jump\t// out\n        /* \"#utility.yul\":5356:5482   */\n    tag_124:\n        /* \"#utility.yul\":5393:5400   */\n      0x00\n        /* \"#utility.yul\":5433:5475   */\n      0xffffffffffffffffffffffffffffffffffffffff\n        /* \"#utility.yul\":5426:5431   */\n      dup3\n        /* \"#utility.yul\":5422:5476   */\n      and\n        /* \"#utility.yul\":5411:5476   */\n      swap1\n      pop\n        /* \"#utility.yul\":5356:5482   */\n      swap2\n      swap1\n      pop\n      jump\t// out\n        /* \"#utility.yul\":5488:5565   */\n    tag_100:\n        /* \"#utility.yul\":5525:5532   */\n      0x00\n        /* \"#utility.yul\":5554:5559   */\n      dup2\n        /* \"#utility.yul\":5543:5559   */\n      swap1\n      pop\n        /* \"#utility.yul\":5488:5565   */\n      swap2\n      swap1\n      pop\n      jump\t// out\n        /* \"#utility.yul\":5571:5725   */\n    tag_47:\n        /* \"#utility.yul\":5655:5661   */\n      dup3\n        /* \"#utility.yul\":5650:5653   */\n      dup2\n        /* \"#utility.yul\":5645:5648   */\n      dup4\n        /* \"#utility.yul\":5632:5662   */\n      calldatacopy\n        /* \"#utility.yul\":5717:5718   */\n      0x00\n        /* \"#utility.yul\":5708:5714   */\n      dup4\n        /* \"#utility.yul\":5703:5706   */\n      dup4\n        /* \"#utility.yul\":5699:5715   */\n      add\n        /* \"#utility.yul\":5692:5719   */\n      mstore\n        /* \"#utility.yul\":5571:5725   */\n      pop\n      pop\n      pop\n      jump\t// out\n        /* \"#utility.yul\":5731:6038   */\n    tag_88:\n        /* \"#utility.yul\":5799:5800   */\n      0x00\n        /* \"#utility.yul\":5809:5922   */\n    tag_129:\n        /* \"#utility.yul\":5823:5829   */\n      dup4\n        /* \"#utility.yul\":5820:5821   */\n      dup2\n        /* \"#utility.yul\":5817:5830   */\n      lt\n        /* \"#utility.yul\":5809:5922   */\n      iszero\n      tag_131\n      jumpi\n        /* \"#utility.yul\":5908:5909   */\n      dup1\n        /* \"#utility.yul\":5903:5906   */\n      dup3\n        /* \"#utility.yul\":5899:5910   */\n      add\n        /* \"#utility.yul\":5893:5911   */\n      mload\n        /* \"#utility.yul\":5889:5890   */\n      dup2\n        /* \"#utility.yul\":5884:5887   */\n      dup5\n        /* \"#utility.yul\":5880:5891   */\n      add\n        /* \"#utility.yul\":5873:5912   */\n      mstore\n        /* \"#utility.yul\":5845:5847   */\n      0x20\n        /* \"#utility.yul\":5842:5843   */\n      dup2\n        /* \"#utility.yul\":5838:5848   */\n      add\n        /* \"#utility.yul\":5833:5848   */\n      swap1\n      pop\n        /* \"#utility.yul\":5809:5922   */\n      jump(tag_129)\n    tag_131:\n        /* \"#utility.yul\":5940:5946   */\n      dup4\n        /* \"#utility.yul\":5937:5938   */\n      dup2\n        /* \"#utility.yul\":5934:5947   */\n      gt\n        /* \"#utility.yul\":5931:6032   */\n      iszero\n      tag_132\n      jumpi\n        /* \"#utility.yul\":6020:6021   */\n      0x00\n        /* \"#utility.yul\":6011:6017   */\n      dup5\n        /* \"#utility.yul\":6006:6009   */\n      dup5\n        /* \"#utility.yul\":6002:6018   */\n      add\n        /* \"#utility.yul\":5995:6022   */\n      mstore\n        /* \"#utility.yul\":5931:6032   */\n    tag_132:\n        /* \"#utility.yul\":5780:6038   */\n      pop\n        /* \"#utility.yul\":5731:6038   */\n      pop\n      pop\n      pop\n      jump\t// out\n        /* \"#utility.yul\":6044:6364   */\n    tag_31:\n        /* \"#utility.yul\":6088:6094   */\n      0x00\n        /* \"#utility.yul\":6125:6126   */\n      0x02\n        /* \"#utility.yul\":6119:6123   */\n      dup3\n        /* \"#utility.yul\":6115:6127   */\n      div\n        /* \"#utility.yul\":6105:6127   */\n      swap1\n      pop\n        /* \"#utility.yul\":6172:6173   */\n      0x01\n        /* \"#utility.yul\":6166:6170   */\n      dup3\n        /* \"#utility.yul\":6162:6174   */\n      and\n        /* \"#utility.yul\":6193:6211   */\n      dup1\n        /* \"#utility.yul\":6183:6264   */\n      tag_134\n      jumpi\n        /* \"#utility.yul\":6249:6253   */\n      0x7f\n        /* \"#utility.yul\":6241:6247   */\n      dup3\n        /* \"#utility.yul\":6237:6254   */\n      and\n        /* \"#utility.yul\":6227:6254   */\n      swap2\n      pop\n        /* \"#utility.yul\":6183:6264   */\n    tag_134:\n        /* \"#utility.yul\":6311:6313   */\n      0x20\n        /* \"#utility.yul\":6303:6309   */\n      dup3\n        /* \"#utility.yul\":6300:6314   */\n      lt\n        /* \"#utility.yul\":6280:6298   */\n      dup2\n        /* \"#utility.yul\":6277:6315   */\n      eq\n        /* \"#utility.yul\":6274:6358   */\n      iszero\n      tag_135\n      jumpi\n        /* \"#utility.yul\":6330:6348   */\n      tag_136\n      tag_137\n      jump\t// in\n    tag_136:\n        /* \"#utility.yul\":6274:6358   */\n    tag_135:\n        /* \"#utility.yul\":6095:6364   */\n      pop\n        /* \"#utility.yul\":6044:6364   */\n      swap2\n      swap1\n      pop\n      jump\t// out\n        /* \"#utility.yul\":6370:6651   */\n    tag_111:\n        /* \"#utility.yul\":6453:6480   */\n      tag_139\n        /* \"#utility.yul\":6475:6479   */\n      dup3\n        /* \"#utility.yul\":6453:6480   */\n      tag_90\n      jump\t// in\n    tag_139:\n        /* \"#utility.yul\":6445:6451   */\n      dup2\n        /* \"#utility.yul\":6441:6481   */\n      add\n        /* \"#utility.yul\":6583:6589   */\n      dup2\n        /* \"#utility.yul\":6571:6581   */\n      dup2\n        /* \"#utility.yul\":6568:6590   */\n      lt\n        /* \"#utility.yul\":6547:6565   */\n      0xffffffffffffffff\n        /* \"#utility.yul\":6535:6545   */\n      dup3\n        /* \"#utility.yul\":6532:6566   */\n      gt\n        /* \"#utility.yul\":6529:6591   */\n      or\n        /* \"#utility.yul\":6526:6614   */\n      iszero\n      tag_140\n      jumpi\n        /* \"#utility.yul\":6594:6612   */\n      tag_141\n      tag_116\n      jump\t// in\n    tag_141:\n        /* \"#utility.yul\":6526:6614   */\n    tag_140:\n        /* \"#utility.yul\":6634:6644   */\n      dup1\n        /* \"#utility.yul\":6630:6632   */\n      0x40\n        /* \"#utility.yul\":6623:6645   */\n      mstore\n        /* \"#utility.yul\":6413:6651   */\n      pop\n        /* \"#utility.yul\":6370:6651   */\n      pop\n      pop\n      jump\t// out\n        /* \"#utility.yul\":6657:6837   */\n    tag_137:\n        /* \"#utility.yul\":6705:6782   */\n      0x4e487b7100000000000000000000000000000000000000000000000000000000\n        /* \"#utility.yul\":6702:6703   */\n      0x00\n        /* \"#utility.yul\":6695:6783   */\n      mstore\n        /* \"#utility.yul\":6802:6806   */\n      0x22\n        /* \"#utility.yul\":6799:6800   */\n      0x04\n        /* \"#utility.yul\":6792:6807   */\n      mstore\n        /* \"#utility.yul\":6826:6830   */\n      0x24\n        /* \"#utility.yul\":6823:6824   */\n      0x00\n        /* \"#utility.yul\":6816:6831   */\n      revert\n        /* \"#utility.yul\":6843:7023   */\n    tag_116:\n        /* \"#utility.yul\":6891:6968   */\n      0x4e487b7100000000000000000000000000000000000000000000000000000000\n        /* \"#utility.yul\":6888:6889   */\n      0x00\n        /* \"#utility.yul\":6881:6969   */\n      mstore\n        /* \"#utility.yul\":6988:6992   */\n      0x41\n        /* \"#utility.yul\":6985:6986   */\n      0x04\n        /* \"#utility.yul\":6978:6993   */\n      mstore\n        /* \"#utility.yul\":7012:7016   */\n      0x24\n        /* \"#utility.yul\":7009:7010   */\n      0x00\n        /* \"#utility.yul\":7002:7017   */\n      revert\n        /* \"#utility.yul\":7029:7146   */\n    tag_56:\n        /* \"#utility.yul\":7138:7139   */\n      0x00\n        /* \"#utility.yul\":7135:7136   */\n      dup1\n        /* \"#utility.yul\":7128:7140   */\n      revert\n        /* \"#utility.yul\":7152:7269   */\n    tag_45:\n        /* \"#utility.yul\":7261:7262   */\n      0x00\n        /* \"#utility.yul\":7258:7259   */\n      dup1\n        /* \"#utility.yul\":7251:7263   */\n      revert\n        /* \"#utility.yul\":7275:7392   */\n    tag_72:\n        /* \"#utility.yul\":7384:7385   */\n      0x00\n        /* \"#utility.yul\":7381:7382   */\n      dup1\n        /* \"#utility.yul\":7374:7386   */\n      revert\n        /* \"#utility.yul\":7398:7515   */\n    tag_65:\n        /* \"#utility.yul\":7507:7508   */\n      0x00\n        /* \"#utility.yul\":7504:7505   */\n      dup1\n        /* \"#utility.yul\":7497:7509   */\n      revert\n        /* \"#utility.yul\":7521:7623   */\n    tag_90:\n        /* \"#utility.yul\":7562:7568   */\n      0x00\n        /* \"#utility.yul\":7613:7615   */\n      0x1f\n        /* \"#utility.yul\":7609:7616   */\n      not\n        /* \"#utility.yul\":7604:7606   */\n      0x1f\n        /* \"#utility.yul\":7597:7602   */\n      dup4\n        /* \"#utility.yul\":7593:7607   */\n      add\n        /* \"#utility.yul\":7589:7617   */\n      and\n        /* \"#utility.yul\":7579:7617   */\n      swap1\n      pop\n        /* \"#utility.yul\":7521:7623   */\n      swap2\n      swap1\n      pop\n      jump\t// out\n        /* \"#utility.yul\":7629:7751   */\n    tag_51:\n        /* \"#utility.yul\":7702:7726   */\n      tag_150\n        /* \"#utility.yul\":7720:7725   */\n      dup2\n        /* \"#utility.yul\":7702:7726   */\n      tag_121\n      jump\t// in\n    tag_150:\n        /* \"#utility.yul\":7695:7700   */\n      dup2\n        /* \"#utility.yul\":7692:7727   */\n      eq\n        /* \"#utility.yul\":7682:7745   */\n      tag_151\n      jumpi\n        /* \"#utility.yul\":7741:7742   */\n      0x00\n        /* \"#utility.yul\":7738:7739   */\n      dup1\n        /* \"#utility.yul\":7731:7743   */\n      revert\n        /* \"#utility.yul\":7682:7745   */\n    tag_151:\n        /* \"#utility.yul\":7629:7751   */\n      pop\n      jump\t// out\n        /* \"#utility.yul\":7757:7879   */\n    tag_61:\n        /* \"#utility.yul\":7830:7854   */\n      tag_153\n        /* \"#utility.yul\":7848:7853   */\n      dup2\n        /* \"#utility.yul\":7830:7854   */\n      tag_100\n      jump\t// in\n    tag_153:\n        /* \"#utility.yul\":7823:7828   */\n      dup2\n        /* \"#utility.yul\":7820:7855   */\n      eq\n        /* \"#utility.yul\":7810:7873   */\n      tag_154\n      jumpi\n        /* \"#utility.yul\":7869:7870   */\n      0x00\n        /* \"#utility.yul\":7866:7867   */\n      dup1\n        /* \"#utility.yul\":7859:7871   */\n      revert\n        /* \"#utility.yul\":7810:7873   */\n    tag_154:\n        /* \"#utility.yul\":7757:7879   */\n      pop\n      jump\t// out\n\n    auxdata: 0xa264697066735822122088863ce389cd7e75ea111c72cdaacdb571fe9773d0cdfbe23832d8d3c31b23cd64736f6c63430008070033\n}\n",
				"bytecode": {
					"linkReferences": {},
					"object": "608060405234801561001057600080fd5b50610688806100206000396000f3fe608060405234801561001057600080fd5b506004361061004c5760003560e01c806325b574aa146100515780635e5c06e21461006d5780636dcfe4521461009d578063e2982c21146100cd575b600080fd5b61006b6004803603810190610066919061031a565b6100fd565b005b610087600480360381019061008291906102a4565b610124565b6040516100949190610406565b60405180910390f35b6100b760048036038101906100b291906102d1565b6101c4565b6040516100c49190610428565b60405180910390f35b6100e760048036038101906100e291906102a4565b6101f2565b6040516100f49190610428565b60405180910390f35b8060008360405161010e91906103ef565b9081526020016040518091039020819055505050565b600160205280600052604060002060009150905080546101439061053e565b80601f016020809104026020016040519081016040528092919081815260200182805461016f9061053e565b80156101bc5780601f10610191576101008083540402835291602001916101bc565b820191906000526020600020905b81548152906001019060200180831161019f57829003601f168201915b505050505081565b6000818051602081018201805184825260208301602085012081835280955050505050506000915090505481565b60026020528060005260406000206000915090505481565b600061021d61021884610468565b610443565b90508281526020810184848401111561023957610238610604565b5b6102448482856104fc565b509392505050565b60008135905061025b81610624565b92915050565b600082601f830112610276576102756105ff565b5b813561028684826020860161020a565b91505092915050565b60008135905061029e8161063b565b92915050565b6000602082840312156102ba576102b961060e565b5b60006102c88482850161024c565b91505092915050565b6000602082840312156102e7576102e661060e565b5b600082013567ffffffffffffffff81111561030557610304610609565b5b61031184828501610261565b91505092915050565b600080604083850312156103315761033061060e565b5b600083013567ffffffffffffffff81111561034f5761034e610609565b5b61035b85828601610261565b925050602061036c8582860161028f565b9150509250929050565b600061038182610499565b61038b81856104a4565b935061039b81856020860161050b565b6103a481610613565b840191505092915050565b60006103ba82610499565b6103c481856104b5565b93506103d481856020860161050b565b80840191505092915050565b6103e9816104f2565b82525050565b60006103fb82846103af565b915081905092915050565b600060208201905081810360008301526104208184610376565b905092915050565b600060208201905061043d60008301846103e0565b92915050565b600061044d61045e565b90506104598282610570565b919050565b6000604051905090565b600067ffffffffffffffff821115610483576104826105d0565b5b61048c82610613565b9050602081019050919050565b600081519050919050565b600082825260208201905092915050565b600081905092915050565b60006104cb826104d2565b9050919050565b600073ffffffffffffffffffffffffffffffffffffffff82169050919050565b6000819050919050565b82818337600083830152505050565b60005b8381101561052957808201518184015260208101905061050e565b83811115610538576000848401525b50505050565b6000600282049050600182168061055657607f821691505b6020821081141561056a576105696105a1565b5b50919050565b61057982610613565b810181811067ffffffffffffffff82111715610598576105976105d0565b5b80604052505050565b7f4e487b7100000000000000000000000000000000000000000000000000000000600052602260045260246000fd5b7f4e487b7100000000000000000000000000000000000000000000000000000000600052604160045260246000fd5b600080fd5b600080fd5b600080fd5b600080fd5b6000601f19601f8301169050919050565b61062d816104c0565b811461063857600080fd5b50565b610644816104f2565b811461064f57600080fd5b5056fea264697066735822122088863ce389cd7e75ea111c72cdaacdb571fe9773d0cdfbe23832d8d3c31b23cd64736f6c63430008070033",
					"opcodes": "PUSH1 0x80 PUSH1 0x40 MSTORE CALLVALUE DUP1 ISZERO PUSH2 0x10 JUMPI PUSH1 0x0 DUP1 REVERT JUMPDEST POP PUSH2 0x688 DUP1 PUSH2 0x20 PUSH1 0x0 CODECOPY PUSH1 0x0 RETURN INVALID PUSH1 0x80 PUSH1 0x40 MSTORE CALLVALUE DUP1 ISZERO PUSH2 0x10 JUMPI PUSH1 0x0 DUP1 REVERT JUMPDEST POP PUSH1 0x4 CALLDATASIZE LT PUSH2 0x4C JUMPI PUSH1 0x0 CALLDATALOAD PUSH1 0xE0 SHR DUP1 PUSH4 0x25B574AA EQ PUSH2 0x51 JUMPI DUP1 PUSH4 0x5E5C06E2 EQ PUSH2 0x6D JUMPI DUP1 PUSH4 0x6DCFE452 EQ PUSH2 0x9D JUMPI DUP1 PUSH4 0xE2982C21 EQ PUSH2 0xCD JUMPI JUMPDEST PUSH1 0x0 DUP1 REVERT JUMPDEST PUSH2 0x6B PUSH1 0x4 DUP1 CALLDATASIZE SUB DUP2 ADD SWAP1 PUSH2 0x66 SWAP2 SWAP1 PUSH2 0x31A JUMP JUMPDEST PUSH2 0xFD JUMP JUMPDEST STOP JUMPDEST PUSH2 0x87 PUSH1 0x4 DUP1 CALLDATASIZE SUB DUP2 ADD SWAP1 PUSH2 0x82 SWAP2 SWAP1 PUSH2 0x2A4 JUMP JUMPDEST PUSH2 0x124 JUMP JUMPDEST PUSH1 0x40 MLOAD PUSH2 0x94 SWAP2 SWAP1 PUSH2 0x406 JUMP JUMPDEST PUSH1 0x40 MLOAD DUP1 SWAP2 SUB SWAP1 RETURN JUMPDEST PUSH2 0xB7 PUSH1 0x4 DUP1 CALLDATASIZE SUB DUP2 ADD SWAP1 PUSH2 0xB2 SWAP2 SWAP1 PUSH2 0x2D1 JUMP JUMPDEST PUSH2 0x1C4 JUMP JUMPDEST PUSH1 0x40 MLOAD PUSH2 0xC4 SWAP2 SWAP1 PUSH2 0x428 JUMP JUMPDEST PUSH1 0x40 MLOAD DUP1 SWAP2 SUB SWAP1 RETURN JUMPDEST PUSH2 0xE7 PUSH1 0x4 DUP1 CALLDATASIZE SUB DUP2 ADD SWAP1 PUSH2 0xE2 SWAP2 SWAP1 PUSH2 0x2A4 JUMP JUMPDEST PUSH2 0x1F2 JUMP JUMPDEST PUSH1 0x40 MLOAD PUSH2 0xF4 SWAP2 SWAP1 PUSH2 0x428 JUMP JUMPDEST PUSH1 0x40 MLOAD DUP1 SWAP2 SUB SWAP1 RETURN JUMPDEST DUP1 PUSH1 0x0 DUP4 PUSH1 0x40 MLOAD PUSH2 0x10E SWAP2 SWAP1 PUSH2 0x3EF JUMP JUMPDEST SWAP1 DUP2 MSTORE PUSH1 0x20 ADD PUSH1 0x40 MLOAD DUP1 SWAP2 SUB SWAP1 KECCAK256 DUP2 SWAP1 SSTORE POP POP POP JUMP JUMPDEST PUSH1 0x1 PUSH1 0x20 MSTORE DUP1 PUSH1 0x0 MSTORE PUSH1 0x40 PUSH1 0x0 KECCAK256 PUSH1 0x0 SWAP2 POP SWAP1 POP DUP1 SLOAD PUSH2 0x143 SWAP1 PUSH2 0x53E JUMP JUMPDEST DUP1 PUSH1 0x1F ADD PUSH1 0x20 DUP1 SWAP2 DIV MUL PUSH1 0x20 ADD PUSH1 0x40 MLOAD SWAP1 DUP2 ADD PUSH1 0x40 MSTORE DUP1 SWAP3 SWAP2 SWAP1 DUP2 DUP2 MSTORE PUSH1 0x20 ADD DUP3 DUP1 SLOAD PUSH2 0x16F SWAP1 PUSH2 0x53E JUMP JUMPDEST DUP1 ISZERO PUSH2 0x1BC JUMPI DUP1 PUSH1 0x1F LT PUSH2 0x191 JUMPI PUSH2 0x100 DUP1 DUP4 SLOAD DIV MUL DUP4 MSTORE SWAP2 PUSH1 0x20 ADD SWAP2 PUSH2 0x1BC JUMP JUMPDEST DUP3 ADD SWAP2 SWAP1 PUSH1 0x0 MSTORE PUSH1 0x20 PUSH1 0x0 KECCAK256 SWAP1 JUMPDEST DUP2 SLOAD DUP2 MSTORE SWAP1 PUSH1 0x1 ADD SWAP1 PUSH1 0x20 ADD DUP1 DUP4 GT PUSH2 0x19F JUMPI DUP3 SWAP1 SUB PUSH1 0x1F AND DUP3 ADD SWAP2 JUMPDEST POP POP POP POP POP DUP2 JUMP JUMPDEST PUSH1 0x0 DUP2 DUP1 MLOAD PUSH1 0x20 DUP2 ADD DUP3 ADD DUP1 MLOAD DUP5 DUP3 MSTORE PUSH1 0x20 DUP4 ADD PUSH1 0x20 DUP6 ADD KECCAK256 DUP2 DUP4 MSTORE DUP1 SWAP6 POP POP POP POP POP POP PUSH1 0x0 SWAP2 POP SWAP1 POP SLOAD DUP2 JUMP JUMPDEST PUSH1 0x2 PUSH1 0x20 MSTORE DUP1 PUSH1 0x0 MSTORE PUSH1 0x40 PUSH1 0x0 KECCAK256 PUSH1 0x0 SWAP2 POP SWAP1 POP SLOAD DUP2 JUMP JUMPDEST PUSH1 0x0 PUSH2 0x21D PUSH2 0x218 DUP5 PUSH2 0x468 JUMP JUMPDEST PUSH2 0x443 JUMP JUMPDEST SWAP1 POP DUP3 DUP2 MSTORE PUSH1 0x20 DUP2 ADD DUP5 DUP5 DUP5 ADD GT ISZERO PUSH2 0x239 JUMPI PUSH2 0x238 PUSH2 0x604 JUMP JUMPDEST JUMPDEST PUSH2 0x244 DUP5 DUP3 DUP6 PUSH2 0x4FC JUMP JUMPDEST POP SWAP4 SWAP3 POP POP POP JUMP JUMPDEST PUSH1 0x0 DUP2 CALLDATALOAD SWAP1 POP PUSH2 0x25B DUP2 PUSH2 0x624 JUMP JUMPDEST SWAP3 SWAP2 POP POP JUMP JUMPDEST PUSH1 0x0 DUP3 PUSH1 0x1F DUP4 ADD SLT PUSH2 0x276 JUMPI PUSH2 0x275 PUSH2 0x5FF JUMP JUMPDEST JUMPDEST DUP2 CALLDATALOAD PUSH2 0x286 DUP5 DUP3 PUSH1 0x20 DUP7 ADD PUSH2 0x20A JUMP JUMPDEST SWAP2 POP POP SWAP3 SWAP2 POP POP JUMP JUMPDEST PUSH1 0x0 DUP2 CALLDATALOAD SWAP1 POP PUSH2 0x29E DUP2 PUSH2 0x63B JUMP JUMPDEST SWAP3 SWAP2 POP POP JUMP JUMPDEST PUSH1 0x0 PUSH1 0x20 DUP3 DUP5 SUB SLT ISZERO PUSH2 0x2BA JUMPI PUSH2 0x2B9 PUSH2 0x60E JUMP JUMPDEST JUMPDEST PUSH1 0x0 PUSH2 0x2C8 DUP5 DUP3 DUP6 ADD PUSH2 0x24C JUMP JUMPDEST SWAP2 POP POP SWAP3 SWAP2 POP POP JUMP JUMPDEST PUSH1 0x0 PUSH1 0x20 DUP3 DUP5 SUB SLT ISZERO PUSH2 0x2E7 JUMPI PUSH2 0x2E6 PUSH2 0x60E JUMP JUMPDEST JUMPDEST PUSH1 0x0 DUP3 ADD CALLDATALOAD PUSH8 0xFFFFFFFFFFFFFFFF DUP2 GT ISZERO PUSH2 0x305 JUMPI PUSH2 0x304 PUSH2 0x609 JUMP JUMPDEST JUMPDEST PUSH2 0x311 DUP5 DUP3 DUP6 ADD PUSH2 0x261 JUMP JUMPDEST SWAP2 POP POP SWAP3 SWAP2 POP POP JUMP JUMPDEST PUSH1 0x0 DUP1 PUSH1 0x40 DUP4 DUP6 SUB SLT ISZERO PUSH2 0x331 JUMPI PUSH2 0x330 PUSH2 0x60E JUMP JUMPDEST JUMPDEST PUSH1 0x0 DUP4 ADD CALLDATALOAD PUSH8 0xFFFFFFFFFFFFFFFF DUP2 GT ISZERO PUSH2 0x34F JUMPI PUSH2 0x34E PUSH2 0x609 JUMP JUMPDEST JUMPDEST PUSH2 0x35B DUP6 DUP3 DUP7 ADD PUSH2 0x261 JUMP JUMPDEST SWAP3 POP POP PUSH1 0x20 PUSH2 0x36C DUP6 DUP3 DUP7 ADD PUSH2 0x28F JUMP JUMPDEST SWAP2 POP POP SWAP3 POP SWAP3 SWAP1 POP JUMP JUMPDEST PUSH1 0x0 PUSH2 0x381 DUP3 PUSH2 0x499 JUMP JUMPDEST PUSH2 0x38B DUP2 DUP6 PUSH2 0x4A4 JUMP JUMPDEST SWAP4 POP PUSH2 0x39B DUP2 DUP6 PUSH1 0x20 DUP7 ADD PUSH2 0x50B JUMP JUMPDEST PUSH2 0x3A4 DUP2 PUSH2 0x613 JUMP JUMPDEST DUP5 ADD SWAP2 POP POP SWAP3 SWAP2 POP POP JUMP JUMPDEST PUSH1 0x0 PUSH2 0x3BA DUP3 PUSH2 0x499 JUMP JUMPDEST PUSH2 0x3C4 DUP2 DUP6 PUSH2 0x4B5 JUMP JUMPDEST SWAP4 POP PUSH2 0x3D4 DUP2 DUP6 PUSH1 0x20 DUP7 ADD PUSH2 0x50B JUMP JUMPDEST DUP1 DUP5 ADD SWAP2 POP POP SWAP3 SWAP2 POP POP JUMP JUMPDEST PUSH2 0x3E9 DUP2 PUSH2 0x4F2 JUMP JUMPDEST DUP3 MSTORE POP POP JUMP JUMPDEST PUSH1 0x0 PUSH2 0x3FB DUP3 DUP5 PUSH2 0x3AF JUMP JUMPDEST SWAP2 POP DUP2 SWAP1 POP SWAP3 SWAP2 POP POP JUMP JUMPDEST PUSH1 0x0 PUSH1 0x20 DUP3 ADD SWAP1 POP DUP2 DUP2 SUB PUSH1 0x0 DUP4 ADD MSTORE PUSH2 0x420 DUP2 DUP5 PUSH2 0x376 JUMP JUMPDEST SWAP1 POP SWAP3 SWAP2 POP POP JUMP JUMPDEST PUSH1 0x0 PUSH1 0x20 DUP3 ADD SWAP1 POP PUSH2 0x43D PUSH1 0x0 DUP4 ADD DUP5 PUSH2 0x3E0 JUMP JUMPDEST SWAP3 SWAP2 POP POP JUMP JUMPDEST PUSH1 0x0 PUSH2 0x44D PUSH2 0x45E JUMP JUMPDEST SWAP1 POP PUSH2 0x459 DUP3 DUP3 PUSH2 0x570 JUMP JUMPDEST SWAP2 SWAP1 POP JUMP JUMPDEST PUSH1 0x0 PUSH1 0x40 MLOAD SWAP1 POP SWAP1 JUMP JUMPDEST PUSH1 0x0 PUSH8 0xFFFFFFFFFFFFFFFF DUP3 GT ISZERO PUSH2 0x483 JUMPI PUSH2 0x482 PUSH2 0x5D0 JUMP JUMPDEST JUMPDEST PUSH2 0x48C DUP3 PUSH2 0x613 JUMP JUMPDEST SWAP1 POP PUSH1 0x20 DUP2 ADD SWAP1 POP SWAP2 SWAP1 POP JUMP JUMPDEST PUSH1 0x0 DUP2 MLOAD SWAP1 POP SWAP2 SWAP1 POP JUMP JUMPDEST PUSH1 0x0 DUP3 DUP3 MSTORE PUSH1 0x20 DUP3 ADD SWAP1 POP SWAP3 SWAP2 POP POP JUMP JUMPDEST PUSH1 0x0 DUP2 SWAP1 POP SWAP3 SWAP2 POP POP JUMP JUMPDEST PUSH1 0x0 PUSH2 0x4CB DUP3 PUSH2 0x4D2 JUMP JUMPDEST SWAP1 POP SWAP2 SWAP1 POP JUMP JUMPDEST PUSH1 0x0 PUSH20 0xFFFFFFFFFFFFFFFFFFFFFFFFFFFFFFFFFFFFFFFF DUP3 AND SWAP1 POP SWAP2 SWAP1 POP JUMP JUMPDEST PUSH1 0x0 DUP2 SWAP1 POP SWAP2 SWAP1 POP JUMP JUMPDEST DUP3 DUP2 DUP4 CALLDATACOPY PUSH1 0x0 DUP4 DUP4 ADD MSTORE POP POP POP JUMP JUMPDEST PUSH1 0x0 JUMPDEST DUP4 DUP2 LT ISZERO PUSH2 0x529 JUMPI DUP1 DUP3 ADD MLOAD DUP2 DUP5 ADD MSTORE PUSH1 0x20 DUP2 ADD SWAP1 POP PUSH2 0x50E JUMP JUMPDEST DUP4 DUP2 GT ISZERO PUSH2 0x538 JUMPI PUSH1 0x0 DUP5 DUP5 ADD MSTORE JUMPDEST POP POP POP POP JUMP JUMPDEST PUSH1 0x0 PUSH1 0x2 DUP3 DIV SWAP1 POP PUSH1 0x1 DUP3 AND DUP1 PUSH2 0x556 JUMPI PUSH1 0x7F DUP3 AND SWAP2 POP JUMPDEST PUSH1 0x20 DUP3 LT DUP2 EQ ISZERO PUSH2 0x56A JUMPI PUSH2 0x569 PUSH2 0x5A1 JUMP JUMPDEST JUMPDEST POP SWAP2 SWAP1 POP JUMP JUMPDEST PUSH2 0x579 DUP3 PUSH2 0x613 JUMP JUMPDEST DUP2 ADD DUP2 DUP2 LT PUSH8 0xFFFFFFFFFFFFFFFF DUP3 GT OR ISZERO PUSH2 0x598 JUMPI PUSH2 0x597 PUSH2 0x5D0 JUMP JUMPDEST JUMPDEST DUP1 PUSH1 0x40 MSTORE POP POP POP JUMP JUMPDEST PUSH32 0x4E487B7100000000000000000000000000000000000000000000000000000000 PUSH1 0x0 MSTORE PUSH1 0x22 PUSH1 0x4 MSTORE PUSH1 0x24 PUSH1 0x0 REVERT JUMPDEST PUSH32 0x4E487B7100000000000000000000000000000000000000000000000000000000 PUSH1 0x0 MSTORE PUSH1 0x41 PUSH1 0x4 MSTORE PUSH1 0x24 PUSH1 0x0 REVERT JUMPDEST PUSH1 0x0 DUP1 REVERT JUMPDEST PUSH1 0x0 DUP1 REVERT JUMPDEST PUSH1 0x0 DUP1 REVERT JUMPDEST PUSH1 0x0 DUP1 REVERT JUMPDEST PUSH1 0x0 PUSH1 0x1F NOT PUSH1 0x1F DUP4 ADD AND SWAP1 POP SWAP2 SWAP1 POP JUMP JUMPDEST PUSH2 0x62D DUP2 PUSH2 0x4C0 JUMP JUMPDEST DUP2 EQ PUSH2 0x638 JUMPI PUSH1 0x0 DUP1 REVERT JUMPDEST POP JUMP JUMPDEST PUSH2 0x644 DUP2 PUSH2 0x4F2 JUMP JUMPDEST DUP2 EQ PUSH2 0x64F JUMPI PUSH1 0x0 DUP1 REVERT JUMPDEST POP JUMP INVALID LOG2 PUSH5 0x6970667358 0x22 SLT KECCAK256 DUP9 DUP7 EXTCODECOPY 0xE3 DUP10 0xCD PUSH31 0x75EA111C72CDAACDB571FE9773D0CDFBE23832D8D3C31B23CD64736F6C6343 STOP ADDMOD SMOD STOP CALLER "
				},
				"gasEstimates": {
					"creation": {
						"codeDepositCost": "334400",
						"executionCost": "374",
						"totalCost": "334774"
					},
					"external": {
						"accounts(address)": "infinite",
						"ages(string)": "infinite",
						"payments(address)": "2858",
						"setAge(string,uint256)": "infinite"
					}
				},
				"methodIdentifiers": {
					"accounts(address)": "5e5c06e2",
					"ages(string)": "6dcfe452",
					"payments(address)": "e2982c21",
					"setAge(string,uint256)": "25b574aa"
				}
			},
			"storageLayout": {
				"storage": [
					{
						"astId": 5,
						"contract": "contracts/Lesson3Types.sol:Map3Lesson",
						"label": "ages",
						"offset": 0,
						"slot": "0",
						"type": "t_mapping(t_string_memory_ptr,t_uint256)"
					},
					{
						"astId": 9,
						"contract": "contracts/Lesson3Types.sol:Map3Lesson",
						"label": "accounts",
						"offset": 0,
						"slot": "1",
						"type": "t_mapping(t_address,t_string_storage)"
					},
					{
						"astId": 13,
						"contract": "contracts/Lesson3Types.sol:Map3Lesson",
						"label": "payments",
						"offset": 0,
						"slot": "2",
						"type": "t_mapping(t_address,t_uint256)"
					}
				],
				"types": {
					"t_address": {
						"encoding": "inplace",
						"label": "address",
						"numberOfBytes": "20"
					},
					"t_mapping(t_address,t_string_storage)": {
						"encoding": "mapping",
						"key": "t_address",
						"label": "mapping(address => string)",
						"numberOfBytes": "32",
						"value": "t_string_storage"
					},
					"t_mapping(t_address,t_uint256)": {
						"encoding": "mapping",
						"key": "t_address",
						"label": "mapping(address => uint256)",
						"numberOfBytes": "32",
						"value": "t_uint256"
					},
					"t_mapping(t_string_memory_ptr,t_uint256)": {
						"encoding": "mapping",
						"key": "t_string_memory_ptr",
						"label": "mapping(string => uint256)",
						"numberOfBytes": "32",
						"value": "t_uint256"
					},
					"t_string_memory_ptr": {
						"encoding": "bytes",
						"label": "string",
						"numberOfBytes": "32"
					},
					"t_string_storage": {
						"encoding": "bytes",
						"label": "string",
						"numberOfBytes": "32"
					},
					"t_uint256": {
						"encoding": "inplace",
						"label": "uint256",
						"numberOfBytes": "32"
					}
				}
			},
			"userdoc": {
				"kind": "user",
				"methods": {},
				"version": 1
			}
		}
	}
}