{
	"contracts/Lesson4Types.sol": {
		"Array4Lesson": {
			"abi": [
				{
					"inputs": [
						{
							"internalType": "uint256",
							"name": "",
							"type": "uint256"
						}
					],
					"name": "dynArr",
					"outputs": [
						{
							"internalType": "uint256",
							"name": "",
							"type": "uint256"
						}
					],
					"stateMutability": "view",
					"type": "function"
				},
				{
					"inputs": [
						{
							"internalType": "uint256",
							"name": "",
							"type": "uint256"
						}
					],
					"name": "items",
					"outputs": [
						{
							"internalType": "uint256",
							"name": "",
							"type": "uint256"
						}
					],
					"stateMutability": "view",
					"type": "function"
				},
				{
					"inputs": [
						{
							"internalType": "uint256",
							"name": "",
							"type": "uint256"
						}
					],
					"name": "list",
					"outputs": [
						{
							"internalType": "string",
							"name": "",
							"type": "string"
						}
					],
					"stateMutability": "view",
					"type": "function"
				},
				{
					"inputs": [
						{
							"internalType": "uint256",
							"name": "",
							"type": "uint256"
						},
						{
							"internalType": "uint256",
							"name": "",
							"type": "uint256"
						}
					],
					"name": "matrix",
					"outputs": [
						{
							"internalType": "uint256",
							"name": "",
							"type": "uint256"
						}
					],
					"stateMutability": "view",
					"type": "function"
				},
				{
					"inputs": [
						{
							"internalType": "uint256",
							"name": "num",
							"type": "uint256"
						}
					],
					"name": "modDynamicArr",
					"outputs": [],
					"stateMutability": "nonpayable",
					"type": "function"
				},
				{
					"inputs": [],
					"name": "modifyArray",
					"outputs": [],
					"stateMutability": "nonpayable",
					"type": "function"
				},
				{
					"inputs": [],
					"name": "sampleMemory",
					"outputs": [
						{
							"internalType": "uint256[]",
							"name": "",
							"type": "uint256[]"
						}
					],
					"stateMutability": "view",
					"type": "function"
				}
			],
			"devdoc": {
				"kind": "dev",
				"methods": {},
				"version": 1
			},
			"evm": {
				"assembly": "    /* \"contracts/Lesson4Types.sol\":58:818  contract Array4Lesson {... */\n  mstore(0x40, 0x80)\n    /* \"contracts/Lesson4Types.sol\":91:126  uint[10] public items = [10, 20, 1] */\n  mload(0x40)\n  dup1\n  0x60\n  add\n  0x40\n  mstore\n  dup1\n    /* \"contracts/Lesson4Types.sol\":116:118  10 */\n  0x0a\n    /* \"contracts/Lesson4Types.sol\":91:126  uint[10] public items = [10, 20, 1] */\n  0xff\n  and\n  dup2\n  mstore\n  0x20\n  add\n    /* \"contracts/Lesson4Types.sol\":120:122  20 */\n  0x14\n    /* \"contracts/Lesson4Types.sol\":91:126  uint[10] public items = [10, 20, 1] */\n  0xff\n  and\n  dup2\n  mstore\n  0x20\n  add\n    /* \"contracts/Lesson4Types.sol\":124:125  1 */\n  0x01\n    /* \"contracts/Lesson4Types.sol\":91:126  uint[10] public items = [10, 20, 1] */\n  0xff\n  and\n  dup2\n  mstore\n  pop\n  0x00\n  swap1\n  0x03\n  tag_1\n  swap3\n  swap2\n  swap1\n  tag_2\n  jump\t// in\ntag_1:\n  pop\n    /* \"contracts/Lesson4Types.sol\":264:265  0 */\n  0x00\n    /* \"contracts/Lesson4Types.sol\":244:265  uint dynArrLength = 0 */\n  0x17\n  sstore\n    /* \"contracts/Lesson4Types.sol\":58:818  contract Array4Lesson {... */\n  callvalue\n  dup1\n  iszero\n  tag_3\n  jumpi\n  0x00\n  dup1\n  revert\ntag_3:\n  pop\n  jump(tag_4)\ntag_2:\n  dup3\n  0x0a\n  dup2\n  add\n  swap3\n  dup3\n  iszero\n  tag_5\n  jumpi\n  swap2\n  0x20\n  mul\n  dup3\n  add\ntag_6:\n  dup3\n  dup2\n  gt\n  iszero\n  tag_7\n  jumpi\n  dup3\n  mload\n  dup3\n  swap1\n  0xff\n  and\n  swap1\n  sstore\n  swap2\n  0x20\n  add\n  swap2\n  swap1\n  0x01\n  add\n  swap1\n  jump(tag_6)\ntag_7:\ntag_5:\n  pop\n  swap1\n  pop\n  tag_8\n  swap2\n  swap1\n  tag_9\n  jump\t// in\ntag_8:\n  pop\n  swap1\n  jump\t// out\ntag_9:\ntag_10:\n  dup1\n  dup3\n  gt\n  iszero\n  tag_11\n  jumpi\n  0x00\n  dup2\n  0x00\n  swap1\n  sstore\n  pop\n  0x01\n  add\n  jump(tag_10)\ntag_11:\n  pop\n  swap1\n  jump\t// out\ntag_4:\n  dataSize(sub_0)\n  dup1\n  dataOffset(sub_0)\n  0x00\n  codecopy\n  0x00\n  return\nstop\n\nsub_0: assembly {\n        /* \"contracts/Lesson4Types.sol\":58:818  contract Array4Lesson {... */\n      mstore(0x40, 0x80)\n      callvalue\n      dup1\n      iszero\n      tag_1\n      jumpi\n      0x00\n      dup1\n      revert\n    tag_1:\n      pop\n      jumpi(tag_2, lt(calldatasize, 0x04))\n      shr(0xe0, calldataload(0x00))\n      dup1\n      0xa34343c9\n      gt\n      tag_10\n      jumpi\n      dup1\n      0xa34343c9\n      eq\n      tag_6\n      jumpi\n      dup1\n      0xbfb231d2\n      eq\n      tag_7\n      jumpi\n      dup1\n      0xd9a38d64\n      eq\n      tag_8\n      jumpi\n      dup1\n      0xe3440466\n      eq\n      tag_9\n      jumpi\n      jump(tag_2)\n    tag_10:\n      dup1\n      0x304acd68\n      eq\n      tag_3\n      jumpi\n      dup1\n      0x5a79b850\n      eq\n      tag_4\n      jumpi\n      dup1\n      0x80c9419e\n      eq\n      tag_5\n      jumpi\n    tag_2:\n      0x00\n      dup1\n      revert\n        /* \"contracts/Lesson4Types.sol\":290:462  function modifyArray() public {... */\n    tag_3:\n      tag_11\n      tag_12\n      jump\t// in\n    tag_11:\n      stop\n        /* \"contracts/Lesson4Types.sol\":218:238  uint[] public dynArr */\n    tag_4:\n      tag_13\n      0x04\n      dup1\n      calldatasize\n      sub\n      dup2\n      add\n      swap1\n      tag_14\n      swap2\n      swap1\n      tag_15\n      jump\t// in\n    tag_14:\n      tag_16\n      jump\t// in\n    tag_13:\n      mload(0x40)\n      tag_17\n      swap2\n      swap1\n      tag_18\n      jump\t// in\n    tag_17:\n      mload(0x40)\n      dup1\n      swap2\n      sub\n      swap1\n      return\n        /* \"contracts/Lesson4Types.sol\":132:153  string[2] public list */\n    tag_5:\n      tag_19\n      0x04\n      dup1\n      calldatasize\n      sub\n      dup2\n      add\n      swap1\n      tag_20\n      swap2\n      swap1\n      tag_15\n      jump\t// in\n    tag_20:\n      tag_21\n      jump\t// in\n    tag_19:\n      mload(0x40)\n      tag_22\n      swap2\n      swap1\n      tag_23\n      jump\t// in\n    tag_22:\n      mload(0x40)\n      dup1\n      swap2\n      sub\n      swap1\n      return\n        /* \"contracts/Lesson4Types.sol\":468:628  function sampleMemory() public view returns(uint[] memory){... */\n    tag_6:\n      tag_24\n      tag_25\n      jump\t// in\n    tag_24:\n      mload(0x40)\n      tag_26\n      swap2\n      swap1\n      tag_27\n      jump\t// in\n    tag_26:\n      mload(0x40)\n      dup1\n      swap2\n      sub\n      swap1\n      return\n        /* \"contracts/Lesson4Types.sol\":91:126  uint[10] public items = [10, 20, 1] */\n    tag_7:\n      tag_28\n      0x04\n      dup1\n      calldatasize\n      sub\n      dup2\n      add\n      swap1\n      tag_29\n      swap2\n      swap1\n      tag_15\n      jump\t// in\n    tag_29:\n      tag_30\n      jump\t// in\n    tag_28:\n      mload(0x40)\n      tag_31\n      swap2\n      swap1\n      tag_18\n      jump\t// in\n    tag_31:\n      mload(0x40)\n      dup1\n      swap2\n      sub\n      swap1\n      return\n        /* \"contracts/Lesson4Types.sol\":160:184  uint[2][5] public matrix */\n    tag_8:\n      tag_32\n      0x04\n      dup1\n      calldatasize\n      sub\n      dup2\n      add\n      swap1\n      tag_33\n      swap2\n      swap1\n      tag_34\n      jump\t// in\n    tag_33:\n      tag_35\n      jump\t// in\n    tag_32:\n      mload(0x40)\n      tag_36\n      swap2\n      swap1\n      tag_18\n      jump\t// in\n    tag_36:\n      mload(0x40)\n      dup1\n      swap2\n      sub\n      swap1\n      return\n        /* \"contracts/Lesson4Types.sol\":634:810  function modDynamicArr(uint num) public {... */\n    tag_9:\n      tag_37\n      0x04\n      dup1\n      calldatasize\n      sub\n      dup2\n      add\n      swap1\n      tag_38\n      swap2\n      swap1\n      tag_15\n      jump\t// in\n    tag_38:\n      tag_39\n      jump\t// in\n    tag_37:\n      stop\n        /* \"contracts/Lesson4Types.sol\":290:462  function modifyArray() public {... */\n    tag_12:\n        /* \"contracts/Lesson4Types.sol\":352:353  5 */\n      0x05\n        /* \"contracts/Lesson4Types.sol\":341:346  items */\n      0x00\n        /* \"contracts/Lesson4Types.sol\":347:348  0 */\n      dup1\n        /* \"contracts/Lesson4Types.sol\":341:349  items[0] */\n      0x0a\n      dup2\n      lt\n      tag_41\n      jumpi\n      tag_42\n      tag_43\n      jump\t// in\n    tag_42:\n    tag_41:\n      add\n      sload\n        /* \"contracts/Lesson4Types.sol\":341:353  items[0] * 5 */\n      tag_45\n      swap2\n      swap1\n      tag_46\n      jump\t// in\n    tag_45:\n        /* \"contracts/Lesson4Types.sol\":330:335  items */\n      0x00\n        /* \"contracts/Lesson4Types.sol\":336:337  0 */\n      dup1\n        /* \"contracts/Lesson4Types.sol\":330:338  items[0] */\n      0x0a\n      dup2\n      lt\n      tag_47\n      jumpi\n      tag_48\n      tag_43\n      jump\t// in\n    tag_48:\n    tag_47:\n      add\n        /* \"contracts/Lesson4Types.sol\":330:353  items[0] = items[0] * 5 */\n      dup2\n      swap1\n      sstore\n      pop\n        /* \"contracts/Lesson4Types.sol\":374:379  items */\n      0x00\n        /* \"contracts/Lesson4Types.sol\":380:381  0 */\n      dup1\n        /* \"contracts/Lesson4Types.sol\":374:382  items[0] */\n      0x0a\n      dup2\n      lt\n      tag_50\n      jumpi\n      tag_51\n      tag_43\n      jump\t// in\n    tag_51:\n    tag_50:\n      add\n      sload\n        /* \"contracts/Lesson4Types.sol\":363:368  items */\n      0x00\n        /* \"contracts/Lesson4Types.sol\":369:370  5 */\n      0x05\n        /* \"contracts/Lesson4Types.sol\":363:371  items[5] */\n      0x0a\n      dup2\n      lt\n      tag_53\n      jumpi\n      tag_54\n      tag_43\n      jump\t// in\n    tag_54:\n    tag_53:\n      add\n        /* \"contracts/Lesson4Types.sol\":363:382  items[5] = items[0] */\n      dup2\n      swap1\n      sstore\n      pop\n        /* \"contracts/Lesson4Types.sol\":393:455  matrix = [... */\n      mload(0x40)\n      dup1\n      0xa0\n      add\n      0x40\n      mstore\n      dup1\n      mload(0x40)\n      dup1\n      0x40\n      add\n      0x40\n      mstore\n      dup1\n        /* \"contracts/Lesson4Types.sol\":417:418  1 */\n      0x01\n        /* \"contracts/Lesson4Types.sol\":393:455  matrix = [... */\n      0xff\n      and\n      dup2\n      mstore\n      0x20\n      add\n        /* \"contracts/Lesson4Types.sol\":419:420  2 */\n      0x02\n        /* \"contracts/Lesson4Types.sol\":393:455  matrix = [... */\n      0xff\n      and\n      dup2\n      mstore\n      pop\n      dup2\n      mstore\n      0x20\n      add\n      mload(0x40)\n      dup1\n      0x40\n      add\n      0x40\n      mstore\n      dup1\n        /* \"contracts/Lesson4Types.sol\":423:424  1 */\n      0x01\n        /* \"contracts/Lesson4Types.sol\":393:455  matrix = [... */\n      0xff\n      and\n      dup2\n      mstore\n      0x20\n      add\n        /* \"contracts/Lesson4Types.sol\":425:426  2 */\n      0x02\n        /* \"contracts/Lesson4Types.sol\":393:455  matrix = [... */\n      0xff\n      and\n      dup2\n      mstore\n      pop\n      dup2\n      mstore\n      0x20\n      add\n      mload(0x40)\n      dup1\n      0x40\n      add\n      0x40\n      mstore\n      dup1\n        /* \"contracts/Lesson4Types.sol\":429:430  1 */\n      0x01\n        /* \"contracts/Lesson4Types.sol\":393:455  matrix = [... */\n      0xff\n      and\n      dup2\n      mstore\n      0x20\n      add\n        /* \"contracts/Lesson4Types.sol\":431:432  2 */\n      0x02\n        /* \"contracts/Lesson4Types.sol\":393:455  matrix = [... */\n      0xff\n      and\n      dup2\n      mstore\n      pop\n      dup2\n      mstore\n      0x20\n      add\n      mload(0x40)\n      dup1\n      0x40\n      add\n      0x40\n      mstore\n      dup1\n        /* \"contracts/Lesson4Types.sol\":435:436  1 */\n      0x01\n        /* \"contracts/Lesson4Types.sol\":393:455  matrix = [... */\n      0xff\n      and\n      dup2\n      mstore\n      0x20\n      add\n        /* \"contracts/Lesson4Types.sol\":437:438  2 */\n      0x02\n        /* \"contracts/Lesson4Types.sol\":393:455  matrix = [... */\n      0xff\n      and\n      dup2\n      mstore\n      pop\n      dup2\n      mstore\n      0x20\n      add\n      mload(0x40)\n      dup1\n      0x40\n      add\n      0x40\n      mstore\n      dup1\n        /* \"contracts/Lesson4Types.sol\":441:442  1 */\n      0x01\n        /* \"contracts/Lesson4Types.sol\":393:455  matrix = [... */\n      0xff\n      and\n      dup2\n      mstore\n      0x20\n      add\n        /* \"contracts/Lesson4Types.sol\":443:444  2 */\n      0x02\n        /* \"contracts/Lesson4Types.sol\":393:455  matrix = [... */\n      0xff\n      and\n      dup2\n      mstore\n      pop\n      dup2\n      mstore\n      pop\n        /* \"contracts/Lesson4Types.sol\":393:399  matrix */\n      0x0c\n        /* \"contracts/Lesson4Types.sol\":393:455  matrix = [... */\n      swap1\n      0x05\n      tag_56\n      swap3\n      swap2\n      swap1\n      tag_57\n      jump\t// in\n    tag_56:\n      pop\n        /* \"contracts/Lesson4Types.sol\":290:462  function modifyArray() public {... */\n      jump\t// out\n        /* \"contracts/Lesson4Types.sol\":218:238  uint[] public dynArr */\n    tag_16:\n      0x16\n      dup2\n      dup2\n      sload\n      dup2\n      lt\n      tag_58\n      jumpi\n      0x00\n      dup1\n      revert\n    tag_58:\n      swap1\n      0x00\n      mstore\n      keccak256(0x00, 0x20)\n      add\n      0x00\n      swap2\n      pop\n      swap1\n      pop\n      sload\n      dup2\n      jump\t// out\n        /* \"contracts/Lesson4Types.sol\":132:153  string[2] public list */\n    tag_21:\n      0x0a\n      dup2\n      0x02\n      dup2\n      lt\n      tag_60\n      jumpi\n      0x00\n      dup1\n      revert\n    tag_60:\n      add\n      0x00\n      swap2\n      pop\n      swap1\n      pop\n      dup1\n      sload\n      tag_62\n      swap1\n      tag_63\n      jump\t// in\n    tag_62:\n      dup1\n      0x1f\n      add\n      0x20\n      dup1\n      swap2\n      div\n      mul\n      0x20\n      add\n      mload(0x40)\n      swap1\n      dup2\n      add\n      0x40\n      mstore\n      dup1\n      swap3\n      swap2\n      swap1\n      dup2\n      dup2\n      mstore\n      0x20\n      add\n      dup3\n      dup1\n      sload\n      tag_64\n      swap1\n      tag_63\n      jump\t// in\n    tag_64:\n      dup1\n      iszero\n      tag_65\n      jumpi\n      dup1\n      0x1f\n      lt\n      tag_66\n      jumpi\n      0x0100\n      dup1\n      dup4\n      sload\n      div\n      mul\n      dup4\n      mstore\n      swap2\n      0x20\n      add\n      swap2\n      jump(tag_65)\n    tag_66:\n      dup3\n      add\n      swap2\n      swap1\n      0x00\n      mstore\n      keccak256(0x00, 0x20)\n      swap1\n    tag_67:\n      dup2\n      sload\n      dup2\n      mstore\n      swap1\n      0x01\n      add\n      swap1\n      0x20\n      add\n      dup1\n      dup4\n      gt\n      tag_67\n      jumpi\n      dup3\n      swap1\n      sub\n      0x1f\n      and\n      dup3\n      add\n      swap2\n    tag_65:\n      pop\n      pop\n      pop\n      pop\n      pop\n      dup2\n      jump\t// out\n        /* \"contracts/Lesson4Types.sol\":468:628  function sampleMemory() public view returns(uint[] memory){... */\n    tag_25:\n        /* \"contracts/Lesson4Types.sol\":512:525  uint[] memory */\n      0x60\n        /* \"contracts/Lesson4Types.sol\":536:557  uint[] memory tempArr */\n      0x00\n        /* \"contracts/Lesson4Types.sol\":571:572  5 */\n      0x05\n        /* \"contracts/Lesson4Types.sol\":560:573  new uint[](5) */\n      0xffffffffffffffff\n      dup2\n      gt\n      iszero\n      tag_69\n      jumpi\n      tag_70\n      tag_71\n      jump\t// in\n    tag_70:\n    tag_69:\n      mload(0x40)\n      swap1\n      dup1\n      dup3\n      mstore\n      dup1\n      0x20\n      mul\n      0x20\n      add\n      dup3\n      add\n      0x40\n      mstore\n      dup1\n      iszero\n      tag_72\n      jumpi\n      dup2\n      0x20\n      add\n      0x20\n      dup3\n      mul\n      dup1\n      calldatasize\n      dup4\n      calldatacopy\n      dup1\n      dup3\n      add\n      swap2\n      pop\n      pop\n      swap1\n      pop\n    tag_72:\n      pop\n        /* \"contracts/Lesson4Types.sol\":536:573  uint[] memory tempArr = new uint[](5) */\n      swap1\n      pop\n        /* \"contracts/Lesson4Types.sol\":596:597  0 */\n      0x00\n        /* \"contracts/Lesson4Types.sol\":583:590  tempArr */\n      dup2\n        /* \"contracts/Lesson4Types.sol\":591:592  4 */\n      0x04\n        /* \"contracts/Lesson4Types.sol\":583:593  tempArr[4] */\n      dup2\n      mload\n      dup2\n      lt\n      tag_73\n      jumpi\n      tag_74\n      tag_43\n      jump\t// in\n    tag_74:\n    tag_73:\n      0x20\n      mul\n      0x20\n      add\n      add\n        /* \"contracts/Lesson4Types.sol\":583:597  tempArr[4] = 0 */\n      dup2\n      dup2\n      mstore\n      pop\n      pop\n        /* \"contracts/Lesson4Types.sol\":614:621  tempArr */\n      dup1\n        /* \"contracts/Lesson4Types.sol\":607:621  return tempArr */\n      swap2\n      pop\n      pop\n        /* \"contracts/Lesson4Types.sol\":468:628  function sampleMemory() public view returns(uint[] memory){... */\n      swap1\n      jump\t// out\n        /* \"contracts/Lesson4Types.sol\":91:126  uint[10] public items = [10, 20, 1] */\n    tag_30:\n      0x00\n      dup2\n      0x0a\n      dup2\n      lt\n      tag_75\n      jumpi\n      0x00\n      dup1\n      revert\n    tag_75:\n      add\n      0x00\n      swap2\n      pop\n      swap1\n      pop\n      sload\n      dup2\n      jump\t// out\n        /* \"contracts/Lesson4Types.sol\":160:184  uint[2][5] public matrix */\n    tag_35:\n      0x0c\n      dup3\n      0x05\n      dup2\n      lt\n      tag_77\n      jumpi\n      0x00\n      dup1\n      revert\n    tag_77:\n      0x02\n      mul\n      add\n      dup2\n      0x02\n      dup2\n      lt\n      tag_79\n      jumpi\n      0x00\n      dup1\n      revert\n    tag_79:\n      add\n      0x00\n      swap2\n      pop\n      swap2\n      pop\n      pop\n      sload\n      dup2\n      jump\t// out\n        /* \"contracts/Lesson4Types.sol\":634:810  function modDynamicArr(uint num) public {... */\n    tag_39:\n        /* \"contracts/Lesson4Types.sol\":684:690  dynArr */\n      0x16\n        /* \"contracts/Lesson4Types.sol\":696:699  num */\n      dup2\n        /* \"contracts/Lesson4Types.sol\":684:700  dynArr.push(num) */\n      swap1\n      dup1\n      0x01\n      dup2\n      sload\n      add\n      dup1\n      dup3\n      sstore\n      dup1\n      swap2\n      pop\n      pop\n      0x01\n      swap1\n      sub\n      swap1\n      0x00\n      mstore\n      keccak256(0x00, 0x20)\n      add\n      0x00\n      swap1\n      swap2\n      swap1\n      swap2\n      swap1\n      swap2\n      pop\n      sstore\n        /* \"contracts/Lesson4Types.sol\":790:796  dynArr */\n      0x16\n        /* \"contracts/Lesson4Types.sol\":790:803  dynArr.length */\n      dup1\n      sload\n      swap1\n      pop\n        /* \"contracts/Lesson4Types.sol\":775:787  dynArrLength */\n      0x17\n        /* \"contracts/Lesson4Types.sol\":775:803  dynArrLength = dynArr.length */\n      dup2\n      swap1\n      sstore\n      pop\n        /* \"contracts/Lesson4Types.sol\":634:810  function modDynamicArr(uint num) public {... */\n      pop\n      jump\t// out\n    tag_57:\n      dup3\n      mul(0x02, 0x05)\n      dup2\n      add\n      swap3\n      dup3\n      iszero\n      tag_83\n      jumpi\n      swap2\n      0x20\n      mul\n      dup3\n      add\n    tag_84:\n      dup3\n      dup2\n      gt\n      iszero\n      tag_85\n      jumpi\n      dup3\n      mload\n      dup3\n      swap1\n      0x02\n      tag_86\n      swap3\n      swap2\n      swap1\n      tag_87\n      jump\t// in\n    tag_86:\n      pop\n      swap2\n      0x20\n      add\n      swap2\n      swap1\n      0x02\n      add\n      swap1\n      jump(tag_84)\n    tag_85:\n    tag_83:\n      pop\n      swap1\n      pop\n      tag_88\n      swap2\n      swap1\n      tag_89\n      jump\t// in\n    tag_88:\n      pop\n      swap1\n      jump\t// out\n    tag_87:\n      dup3\n      0x02\n      dup2\n      add\n      swap3\n      dup3\n      iszero\n      tag_90\n      jumpi\n      swap2\n      0x20\n      mul\n      dup3\n      add\n    tag_91:\n      dup3\n      dup2\n      gt\n      iszero\n      tag_92\n      jumpi\n      dup3\n      mload\n      dup3\n      swap1\n      0xff\n      and\n      swap1\n      sstore\n      swap2\n      0x20\n      add\n      swap2\n      swap1\n      0x01\n      add\n      swap1\n      jump(tag_91)\n    tag_92:\n    tag_90:\n      pop\n      swap1\n      pop\n      tag_93\n      swap2\n      swap1\n      tag_94\n      jump\t// in\n    tag_93:\n      pop\n      swap1\n      jump\t// out\n    tag_89:\n    tag_95:\n      dup1\n      dup3\n      gt\n      iszero\n      tag_96\n      jumpi\n      0x00\n      dup2\n      dup2\n      tag_97\n      swap2\n      swap1\n      tag_98\n      jump\t// in\n    tag_97:\n      pop\n      0x02\n      add\n      jump(tag_95)\n    tag_96:\n      pop\n      swap1\n      jump\t// out\n    tag_94:\n    tag_99:\n      dup1\n      dup3\n      gt\n      iszero\n      tag_100\n      jumpi\n      0x00\n      dup2\n      0x00\n      swap1\n      sstore\n      pop\n      0x01\n      add\n      jump(tag_99)\n    tag_100:\n      pop\n      swap1\n      jump\t// out\n    tag_98:\n      pop\n      0x00\n      dup2\n      sstore\n      0x01\n      add\n      0x00\n      swap1\n      sstore\n      jump\t// out\n        /* \"#utility.yul\":7:146   */\n    tag_102:\n        /* \"#utility.yul\":53:58   */\n      0x00\n        /* \"#utility.yul\":91:97   */\n      dup2\n        /* \"#utility.yul\":78:98   */\n      calldataload\n        /* \"#utility.yul\":69:98   */\n      swap1\n      pop\n        /* \"#utility.yul\":107:140   */\n      tag_104\n        /* \"#utility.yul\":134:139   */\n      dup2\n        /* \"#utility.yul\":107:140   */\n      tag_105\n      jump\t// in\n    tag_104:\n        /* \"#utility.yul\":7:146   */\n      swap3\n      swap2\n      pop\n      pop\n      jump\t// out\n        /* \"#utility.yul\":152:481   */\n    tag_15:\n        /* \"#utility.yul\":211:217   */\n      0x00\n        /* \"#utility.yul\":260:262   */\n      0x20\n        /* \"#utility.yul\":248:257   */\n      dup3\n        /* \"#utility.yul\":239:246   */\n      dup5\n        /* \"#utility.yul\":235:258   */\n      sub\n        /* \"#utility.yul\":231:263   */\n      slt\n        /* \"#utility.yul\":228:347   */\n      iszero\n      tag_107\n      jumpi\n        /* \"#utility.yul\":266:345   */\n      tag_108\n      tag_109\n      jump\t// in\n    tag_108:\n        /* \"#utility.yul\":228:347   */\n    tag_107:\n        /* \"#utility.yul\":386:387   */\n      0x00\n        /* \"#utility.yul\":411:464   */\n      tag_110\n        /* \"#utility.yul\":456:463   */\n      dup5\n        /* \"#utility.yul\":447:453   */\n      dup3\n        /* \"#utility.yul\":436:445   */\n      dup6\n        /* \"#utility.yul\":432:454   */\n      add\n        /* \"#utility.yul\":411:464   */\n      tag_102\n      jump\t// in\n    tag_110:\n        /* \"#utility.yul\":401:464   */\n      swap2\n      pop\n        /* \"#utility.yul\":357:474   */\n      pop\n        /* \"#utility.yul\":152:481   */\n      swap3\n      swap2\n      pop\n      pop\n      jump\t// out\n        /* \"#utility.yul\":487:961   */\n    tag_34:\n        /* \"#utility.yul\":555:561   */\n      0x00\n        /* \"#utility.yul\":563:569   */\n      dup1\n        /* \"#utility.yul\":612:614   */\n      0x40\n        /* \"#utility.yul\":600:609   */\n      dup4\n        /* \"#utility.yul\":591:598   */\n      dup6\n        /* \"#utility.yul\":587:610   */\n      sub\n        /* \"#utility.yul\":583:615   */\n      slt\n        /* \"#utility.yul\":580:699   */\n      iszero\n      tag_112\n      jumpi\n        /* \"#utility.yul\":618:697   */\n      tag_113\n      tag_109\n      jump\t// in\n    tag_113:\n        /* \"#utility.yul\":580:699   */\n    tag_112:\n        /* \"#utility.yul\":738:739   */\n      0x00\n        /* \"#utility.yul\":763:816   */\n      tag_114\n        /* \"#utility.yul\":808:815   */\n      dup6\n        /* \"#utility.yul\":799:805   */\n      dup3\n        /* \"#utility.yul\":788:797   */\n      dup7\n        /* \"#utility.yul\":784:806   */\n      add\n        /* \"#utility.yul\":763:816   */\n      tag_102\n      jump\t// in\n    tag_114:\n        /* \"#utility.yul\":753:816   */\n      swap3\n      pop\n        /* \"#utility.yul\":709:826   */\n      pop\n        /* \"#utility.yul\":865:867   */\n      0x20\n        /* \"#utility.yul\":891:944   */\n      tag_115\n        /* \"#utility.yul\":936:943   */\n      dup6\n        /* \"#utility.yul\":927:933   */\n      dup3\n        /* \"#utility.yul\":916:925   */\n      dup7\n        /* \"#utility.yul\":912:934   */\n      add\n        /* \"#utility.yul\":891:944   */\n      tag_102\n      jump\t// in\n    tag_115:\n        /* \"#utility.yul\":881:944   */\n      swap2\n      pop\n        /* \"#utility.yul\":836:954   */\n      pop\n        /* \"#utility.yul\":487:961   */\n      swap3\n      pop\n      swap3\n      swap1\n      pop\n      jump\t// out\n        /* \"#utility.yul\":967:1146   */\n    tag_116:\n        /* \"#utility.yul\":1036:1046   */\n      0x00\n        /* \"#utility.yul\":1057:1103   */\n      tag_118\n        /* \"#utility.yul\":1099:1102   */\n      dup4\n        /* \"#utility.yul\":1091:1097   */\n      dup4\n        /* \"#utility.yul\":1057:1103   */\n      tag_119\n      jump\t// in\n    tag_118:\n        /* \"#utility.yul\":1135:1139   */\n      0x20\n        /* \"#utility.yul\":1130:1133   */\n      dup4\n        /* \"#utility.yul\":1126:1140   */\n      add\n        /* \"#utility.yul\":1112:1140   */\n      swap1\n      pop\n        /* \"#utility.yul\":967:1146   */\n      swap3\n      swap2\n      pop\n      pop\n      jump\t// out\n        /* \"#utility.yul\":1182:1914   */\n    tag_120:\n        /* \"#utility.yul\":1301:1304   */\n      0x00\n        /* \"#utility.yul\":1330:1384   */\n      tag_122\n        /* \"#utility.yul\":1378:1383   */\n      dup3\n        /* \"#utility.yul\":1330:1384   */\n      tag_123\n      jump\t// in\n    tag_122:\n        /* \"#utility.yul\":1400:1486   */\n      tag_124\n        /* \"#utility.yul\":1479:1485   */\n      dup2\n        /* \"#utility.yul\":1474:1477   */\n      dup6\n        /* \"#utility.yul\":1400:1486   */\n      tag_125\n      jump\t// in\n    tag_124:\n        /* \"#utility.yul\":1393:1486   */\n      swap4\n      pop\n        /* \"#utility.yul\":1510:1566   */\n      tag_126\n        /* \"#utility.yul\":1560:1565   */\n      dup4\n        /* \"#utility.yul\":1510:1566   */\n      tag_127\n      jump\t// in\n    tag_126:\n        /* \"#utility.yul\":1589:1596   */\n      dup1\n        /* \"#utility.yul\":1620:1621   */\n      0x00\n        /* \"#utility.yul\":1605:1889   */\n    tag_128:\n        /* \"#utility.yul\":1630:1636   */\n      dup4\n        /* \"#utility.yul\":1627:1628   */\n      dup2\n        /* \"#utility.yul\":1624:1637   */\n      lt\n        /* \"#utility.yul\":1605:1889   */\n      iszero\n      tag_130\n      jumpi\n        /* \"#utility.yul\":1706:1712   */\n      dup2\n        /* \"#utility.yul\":1700:1713   */\n      mload\n        /* \"#utility.yul\":1733:1796   */\n      tag_131\n        /* \"#utility.yul\":1792:1795   */\n      dup9\n        /* \"#utility.yul\":1777:1790   */\n      dup3\n        /* \"#utility.yul\":1733:1796   */\n      tag_116\n      jump\t// in\n    tag_131:\n        /* \"#utility.yul\":1726:1796   */\n      swap8\n      pop\n        /* \"#utility.yul\":1819:1879   */\n      tag_132\n        /* \"#utility.yul\":1872:1878   */\n      dup4\n        /* \"#utility.yul\":1819:1879   */\n      tag_133\n      jump\t// in\n    tag_132:\n        /* \"#utility.yul\":1809:1879   */\n      swap3\n      pop\n        /* \"#utility.yul\":1665:1889   */\n      pop\n        /* \"#utility.yul\":1652:1653   */\n      0x01\n        /* \"#utility.yul\":1649:1650   */\n      dup2\n        /* \"#utility.yul\":1645:1654   */\n      add\n        /* \"#utility.yul\":1640:1654   */\n      swap1\n      pop\n        /* \"#utility.yul\":1605:1889   */\n      jump(tag_128)\n    tag_130:\n        /* \"#utility.yul\":1609:1623   */\n      pop\n        /* \"#utility.yul\":1905:1908   */\n      dup6\n        /* \"#utility.yul\":1898:1908   */\n      swap4\n      pop\n        /* \"#utility.yul\":1306:1914   */\n      pop\n      pop\n      pop\n        /* \"#utility.yul\":1182:1914   */\n      swap3\n      swap2\n      pop\n      pop\n      jump\t// out\n        /* \"#utility.yul\":1920:2284   */\n    tag_134:\n        /* \"#utility.yul\":2008:2011   */\n      0x00\n        /* \"#utility.yul\":2036:2075   */\n      tag_136\n        /* \"#utility.yul\":2069:2074   */\n      dup3\n        /* \"#utility.yul\":2036:2075   */\n      tag_137\n      jump\t// in\n    tag_136:\n        /* \"#utility.yul\":2091:2162   */\n      tag_138\n        /* \"#utility.yul\":2155:2161   */\n      dup2\n        /* \"#utility.yul\":2150:2153   */\n      dup6\n        /* \"#utility.yul\":2091:2162   */\n      tag_139\n      jump\t// in\n    tag_138:\n        /* \"#utility.yul\":2084:2162   */\n      swap4\n      pop\n        /* \"#utility.yul\":2171:2223   */\n      tag_140\n        /* \"#utility.yul\":2216:2222   */\n      dup2\n        /* \"#utility.yul\":2211:2214   */\n      dup6\n        /* \"#utility.yul\":2204:2208   */\n      0x20\n        /* \"#utility.yul\":2197:2202   */\n      dup7\n        /* \"#utility.yul\":2193:2209   */\n      add\n        /* \"#utility.yul\":2171:2223   */\n      tag_141\n      jump\t// in\n    tag_140:\n        /* \"#utility.yul\":2248:2277   */\n      tag_142\n        /* \"#utility.yul\":2270:2276   */\n      dup2\n        /* \"#utility.yul\":2248:2277   */\n      tag_143\n      jump\t// in\n    tag_142:\n        /* \"#utility.yul\":2243:2246   */\n      dup5\n        /* \"#utility.yul\":2239:2278   */\n      add\n        /* \"#utility.yul\":2232:2278   */\n      swap2\n      pop\n        /* \"#utility.yul\":2012:2284   */\n      pop\n        /* \"#utility.yul\":1920:2284   */\n      swap3\n      swap2\n      pop\n      pop\n      jump\t// out\n        /* \"#utility.yul\":2290:2398   */\n    tag_119:\n        /* \"#utility.yul\":2367:2391   */\n      tag_145\n        /* \"#utility.yul\":2385:2390   */\n      dup2\n        /* \"#utility.yul\":2367:2391   */\n      tag_146\n      jump\t// in\n    tag_145:\n        /* \"#utility.yul\":2362:2365   */\n      dup3\n        /* \"#utility.yul\":2355:2392   */\n      mstore\n        /* \"#utility.yul\":2290:2398   */\n      pop\n      pop\n      jump\t// out\n        /* \"#utility.yul\":2404:2522   */\n    tag_147:\n        /* \"#utility.yul\":2491:2515   */\n      tag_149\n        /* \"#utility.yul\":2509:2514   */\n      dup2\n        /* \"#utility.yul\":2491:2515   */\n      tag_146\n      jump\t// in\n    tag_149:\n        /* \"#utility.yul\":2486:2489   */\n      dup3\n        /* \"#utility.yul\":2479:2516   */\n      mstore\n        /* \"#utility.yul\":2404:2522   */\n      pop\n      pop\n      jump\t// out\n        /* \"#utility.yul\":2528:2901   */\n    tag_27:\n        /* \"#utility.yul\":2671:2675   */\n      0x00\n        /* \"#utility.yul\":2709:2711   */\n      0x20\n        /* \"#utility.yul\":2698:2707   */\n      dup3\n        /* \"#utility.yul\":2694:2712   */\n      add\n        /* \"#utility.yul\":2686:2712   */\n      swap1\n      pop\n        /* \"#utility.yul\":2758:2767   */\n      dup2\n        /* \"#utility.yul\":2752:2756   */\n      dup2\n        /* \"#utility.yul\":2748:2768   */\n      sub\n        /* \"#utility.yul\":2744:2745   */\n      0x00\n        /* \"#utility.yul\":2733:2742   */\n      dup4\n        /* \"#utility.yul\":2729:2746   */\n      add\n        /* \"#utility.yul\":2722:2769   */\n      mstore\n        /* \"#utility.yul\":2786:2894   */\n      tag_151\n        /* \"#utility.yul\":2889:2893   */\n      dup2\n        /* \"#utility.yul\":2880:2886   */\n      dup5\n        /* \"#utility.yul\":2786:2894   */\n      tag_120\n      jump\t// in\n    tag_151:\n        /* \"#utility.yul\":2778:2894   */\n      swap1\n      pop\n        /* \"#utility.yul\":2528:2901   */\n      swap3\n      swap2\n      pop\n      pop\n      jump\t// out\n        /* \"#utility.yul\":2907:3220   */\n    tag_23:\n        /* \"#utility.yul\":3020:3024   */\n      0x00\n        /* \"#utility.yul\":3058:3060   */\n      0x20\n        /* \"#utility.yul\":3047:3056   */\n      dup3\n        /* \"#utility.yul\":3043:3061   */\n      add\n        /* \"#utility.yul\":3035:3061   */\n      swap1\n      pop\n        /* \"#utility.yul\":3107:3116   */\n      dup2\n        /* \"#utility.yul\":3101:3105   */\n      dup2\n        /* \"#utility.yul\":3097:3117   */\n      sub\n        /* \"#utility.yul\":3093:3094   */\n      0x00\n        /* \"#utility.yul\":3082:3091   */\n      dup4\n        /* \"#utility.yul\":3078:3095   */\n      add\n        /* \"#utility.yul\":3071:3118   */\n      mstore\n        /* \"#utility.yul\":3135:3213   */\n      tag_153\n        /* \"#utility.yul\":3208:3212   */\n      dup2\n        /* \"#utility.yul\":3199:3205   */\n      dup5\n        /* \"#utility.yul\":3135:3213   */\n      tag_134\n      jump\t// in\n    tag_153:\n        /* \"#utility.yul\":3127:3213   */\n      swap1\n      pop\n        /* \"#utility.yul\":2907:3220   */\n      swap3\n      swap2\n      pop\n      pop\n      jump\t// out\n        /* \"#utility.yul\":3226:3448   */\n    tag_18:\n        /* \"#utility.yul\":3319:3323   */\n      0x00\n        /* \"#utility.yul\":3357:3359   */\n      0x20\n        /* \"#utility.yul\":3346:3355   */\n      dup3\n        /* \"#utility.yul\":3342:3360   */\n      add\n        /* \"#utility.yul\":3334:3360   */\n      swap1\n      pop\n        /* \"#utility.yul\":3370:3441   */\n      tag_155\n        /* \"#utility.yul\":3438:3439   */\n      0x00\n        /* \"#utility.yul\":3427:3436   */\n      dup4\n        /* \"#utility.yul\":3423:3440   */\n      add\n        /* \"#utility.yul\":3414:3420   */\n      dup5\n        /* \"#utility.yul\":3370:3441   */\n      tag_147\n      jump\t// in\n    tag_155:\n        /* \"#utility.yul\":3226:3448   */\n      swap3\n      swap2\n      pop\n      pop\n      jump\t// out\n        /* \"#utility.yul\":3535:3667   */\n    tag_127:\n        /* \"#utility.yul\":3602:3606   */\n      0x00\n        /* \"#utility.yul\":3625:3628   */\n      dup2\n        /* \"#utility.yul\":3617:3628   */\n      swap1\n      pop\n        /* \"#utility.yul\":3655:3659   */\n      0x20\n        /* \"#utility.yul\":3650:3653   */\n      dup3\n        /* \"#utility.yul\":3646:3660   */\n      add\n        /* \"#utility.yul\":3638:3660   */\n      swap1\n      pop\n        /* \"#utility.yul\":3535:3667   */\n      swap2\n      swap1\n      pop\n      jump\t// out\n        /* \"#utility.yul\":3673:3787   */\n    tag_123:\n        /* \"#utility.yul\":3740:3746   */\n      0x00\n        /* \"#utility.yul\":3774:3779   */\n      dup2\n        /* \"#utility.yul\":3768:3780   */\n      mload\n        /* \"#utility.yul\":3758:3780   */\n      swap1\n      pop\n        /* \"#utility.yul\":3673:3787   */\n      swap2\n      swap1\n      pop\n      jump\t// out\n        /* \"#utility.yul\":3793:3892   */\n    tag_137:\n        /* \"#utility.yul\":3845:3851   */\n      0x00\n        /* \"#utility.yul\":3879:3884   */\n      dup2\n        /* \"#utility.yul\":3873:3885   */\n      mload\n        /* \"#utility.yul\":3863:3885   */\n      swap1\n      pop\n        /* \"#utility.yul\":3793:3892   */\n      swap2\n      swap1\n      pop\n      jump\t// out\n        /* \"#utility.yul\":3898:4011   */\n    tag_133:\n        /* \"#utility.yul\":3968:3972   */\n      0x00\n        /* \"#utility.yul\":4000:4004   */\n      0x20\n        /* \"#utility.yul\":3995:3998   */\n      dup3\n        /* \"#utility.yul\":3991:4005   */\n      add\n        /* \"#utility.yul\":3983:4005   */\n      swap1\n      pop\n        /* \"#utility.yul\":3898:4011   */\n      swap2\n      swap1\n      pop\n      jump\t// out\n        /* \"#utility.yul\":4017:4201   */\n    tag_125:\n        /* \"#utility.yul\":4116:4127   */\n      0x00\n        /* \"#utility.yul\":4150:4156   */\n      dup3\n        /* \"#utility.yul\":4145:4148   */\n      dup3\n        /* \"#utility.yul\":4138:4157   */\n      mstore\n        /* \"#utility.yul\":4190:4194   */\n      0x20\n        /* \"#utility.yul\":4185:4188   */\n      dup3\n        /* \"#utility.yul\":4181:4195   */\n      add\n        /* \"#utility.yul\":4166:4195   */\n      swap1\n      pop\n        /* \"#utility.yul\":4017:4201   */\n      swap3\n      swap2\n      pop\n      pop\n      jump\t// out\n        /* \"#utility.yul\":4207:4376   */\n    tag_139:\n        /* \"#utility.yul\":4291:4302   */\n      0x00\n        /* \"#utility.yul\":4325:4331   */\n      dup3\n        /* \"#utility.yul\":4320:4323   */\n      dup3\n        /* \"#utility.yul\":4313:4332   */\n      mstore\n        /* \"#utility.yul\":4365:4369   */\n      0x20\n        /* \"#utility.yul\":4360:4363   */\n      dup3\n        /* \"#utility.yul\":4356:4370   */\n      add\n        /* \"#utility.yul\":4341:4370   */\n      swap1\n      pop\n        /* \"#utility.yul\":4207:4376   */\n      swap3\n      swap2\n      pop\n      pop\n      jump\t// out\n        /* \"#utility.yul\":4382:4730   */\n    tag_46:\n        /* \"#utility.yul\":4422:4429   */\n      0x00\n        /* \"#utility.yul\":4445:4465   */\n      tag_165\n        /* \"#utility.yul\":4463:4464   */\n      dup3\n        /* \"#utility.yul\":4445:4465   */\n      tag_146\n      jump\t// in\n    tag_165:\n        /* \"#utility.yul\":4440:4465   */\n      swap2\n      pop\n        /* \"#utility.yul\":4479:4499   */\n      tag_166\n        /* \"#utility.yul\":4497:4498   */\n      dup4\n        /* \"#utility.yul\":4479:4499   */\n      tag_146\n      jump\t// in\n    tag_166:\n        /* \"#utility.yul\":4474:4499   */\n      swap3\n      pop\n        /* \"#utility.yul\":4667:4668   */\n      dup2\n        /* \"#utility.yul\":4599:4665   */\n      0xffffffffffffffffffffffffffffffffffffffffffffffffffffffffffffffff\n        /* \"#utility.yul\":4595:4669   */\n      div\n        /* \"#utility.yul\":4592:4593   */\n      dup4\n        /* \"#utility.yul\":4589:4670   */\n      gt\n        /* \"#utility.yul\":4584:4585   */\n      dup3\n        /* \"#utility.yul\":4577:4586   */\n      iszero\n        /* \"#utility.yul\":4570:4587   */\n      iszero\n        /* \"#utility.yul\":4566:4671   */\n      and\n        /* \"#utility.yul\":4563:4694   */\n      iszero\n      tag_167\n      jumpi\n        /* \"#utility.yul\":4674:4692   */\n      tag_168\n      tag_169\n      jump\t// in\n    tag_168:\n        /* \"#utility.yul\":4563:4694   */\n    tag_167:\n        /* \"#utility.yul\":4722:4723   */\n      dup3\n        /* \"#utility.yul\":4719:4720   */\n      dup3\n        /* \"#utility.yul\":4715:4724   */\n      mul\n        /* \"#utility.yul\":4704:4724   */\n      swap1\n      pop\n        /* \"#utility.yul\":4382:4730   */\n      swap3\n      swap2\n      pop\n      pop\n      jump\t// out\n        /* \"#utility.yul\":4736:4813   */\n    tag_146:\n        /* \"#utility.yul\":4773:4780   */\n      0x00\n        /* \"#utility.yul\":4802:4807   */\n      dup2\n        /* \"#utility.yul\":4791:4807   */\n      swap1\n      pop\n        /* \"#utility.yul\":4736:4813   */\n      swap2\n      swap1\n      pop\n      jump\t// out\n        /* \"#utility.yul\":4819:5126   */\n    tag_141:\n        /* \"#utility.yul\":4887:4888   */\n      0x00\n        /* \"#utility.yul\":4897:5010   */\n    tag_172:\n        /* \"#utility.yul\":4911:4917   */\n      dup4\n        /* \"#utility.yul\":4908:4909   */\n      dup2\n        /* \"#utility.yul\":4905:4918   */\n      lt\n        /* \"#utility.yul\":4897:5010   */\n      iszero\n      tag_174\n      jumpi\n        /* \"#utility.yul\":4996:4997   */\n      dup1\n        /* \"#utility.yul\":4991:4994   */\n      dup3\n        /* \"#utility.yul\":4987:4998   */\n      add\n        /* \"#utility.yul\":4981:4999   */\n      mload\n        /* \"#utility.yul\":4977:4978   */\n      dup2\n        /* \"#utility.yul\":4972:4975   */\n      dup5\n        /* \"#utility.yul\":4968:4979   */\n      add\n        /* \"#utility.yul\":4961:5000   */\n      mstore\n        /* \"#utility.yul\":4933:4935   */\n      0x20\n        /* \"#utility.yul\":4930:4931   */\n      dup2\n        /* \"#utility.yul\":4926:4936   */\n      add\n        /* \"#utility.yul\":4921:4936   */\n      swap1\n      pop\n        /* \"#utility.yul\":4897:5010   */\n      jump(tag_172)\n    tag_174:\n        /* \"#utility.yul\":5028:5034   */\n      dup4\n        /* \"#utility.yul\":5025:5026   */\n      dup2\n        /* \"#utility.yul\":5022:5035   */\n      gt\n        /* \"#utility.yul\":5019:5120   */\n      iszero\n      tag_175\n      jumpi\n        /* \"#utility.yul\":5108:5109   */\n      0x00\n        /* \"#utility.yul\":5099:5105   */\n      dup5\n        /* \"#utility.yul\":5094:5097   */\n      dup5\n        /* \"#utility.yul\":5090:5106   */\n      add\n        /* \"#utility.yul\":5083:5110   */\n      mstore\n        /* \"#utility.yul\":5019:5120   */\n    tag_175:\n        /* \"#utility.yul\":4868:5126   */\n      pop\n        /* \"#utility.yul\":4819:5126   */\n      pop\n      pop\n      pop\n      jump\t// out\n        /* \"#utility.yul\":5132:5452   */\n    tag_63:\n        /* \"#utility.yul\":5176:5182   */\n      0x00\n        /* \"#utility.yul\":5213:5214   */\n      0x02\n        /* \"#utility.yul\":5207:5211   */\n      dup3\n        /* \"#utility.yul\":5203:5215   */\n      div\n        /* \"#utility.yul\":5193:5215   */\n      swap1\n      pop\n        /* \"#utility.yul\":5260:5261   */\n      0x01\n        /* \"#utility.yul\":5254:5258   */\n      dup3\n        /* \"#utility.yul\":5250:5262   */\n      and\n        /* \"#utility.yul\":5281:5299   */\n      dup1\n        /* \"#utility.yul\":5271:5352   */\n      tag_177\n      jumpi\n        /* \"#utility.yul\":5337:5341   */\n      0x7f\n        /* \"#utility.yul\":5329:5335   */\n      dup3\n        /* \"#utility.yul\":5325:5342   */\n      and\n        /* \"#utility.yul\":5315:5342   */\n      swap2\n      pop\n        /* \"#utility.yul\":5271:5352   */\n    tag_177:\n        /* \"#utility.yul\":5399:5401   */\n      0x20\n        /* \"#utility.yul\":5391:5397   */\n      dup3\n        /* \"#utility.yul\":5388:5402   */\n      lt\n        /* \"#utility.yul\":5368:5386   */\n      dup2\n        /* \"#utility.yul\":5365:5403   */\n      eq\n        /* \"#utility.yul\":5362:5446   */\n      iszero\n      tag_178\n      jumpi\n        /* \"#utility.yul\":5418:5436   */\n      tag_179\n      tag_180\n      jump\t// in\n    tag_179:\n        /* \"#utility.yul\":5362:5446   */\n    tag_178:\n        /* \"#utility.yul\":5183:5452   */\n      pop\n        /* \"#utility.yul\":5132:5452   */\n      swap2\n      swap1\n      pop\n      jump\t// out\n        /* \"#utility.yul\":5458:5638   */\n    tag_169:\n        /* \"#utility.yul\":5506:5583   */\n      0x4e487b7100000000000000000000000000000000000000000000000000000000\n        /* \"#utility.yul\":5503:5504   */\n      0x00\n        /* \"#utility.yul\":5496:5584   */\n      mstore\n        /* \"#utility.yul\":5603:5607   */\n      0x11\n        /* \"#utility.yul\":5600:5601   */\n      0x04\n        /* \"#utility.yul\":5593:5608   */\n      mstore\n        /* \"#utility.yul\":5627:5631   */\n      0x24\n        /* \"#utility.yul\":5624:5625   */\n      0x00\n        /* \"#utility.yul\":5617:5632   */\n      revert\n        /* \"#utility.yul\":5644:5824   */\n    tag_180:\n        /* \"#utility.yul\":5692:5769   */\n      0x4e487b7100000000000000000000000000000000000000000000000000000000\n        /* \"#utility.yul\":5689:5690   */\n      0x00\n        /* \"#utility.yul\":5682:5770   */\n      mstore\n        /* \"#utility.yul\":5789:5793   */\n      0x22\n        /* \"#utility.yul\":5786:5787   */\n      0x04\n        /* \"#utility.yul\":5779:5794   */\n      mstore\n        /* \"#utility.yul\":5813:5817   */\n      0x24\n        /* \"#utility.yul\":5810:5811   */\n      0x00\n        /* \"#utility.yul\":5803:5818   */\n      revert\n        /* \"#utility.yul\":5830:6010   */\n    tag_43:\n        /* \"#utility.yul\":5878:5955   */\n      0x4e487b7100000000000000000000000000000000000000000000000000000000\n        /* \"#utility.yul\":5875:5876   */\n      0x00\n        /* \"#utility.yul\":5868:5956   */\n      mstore\n        /* \"#utility.yul\":5975:5979   */\n      0x32\n        /* \"#utility.yul\":5972:5973   */\n      0x04\n        /* \"#utility.yul\":5965:5980   */\n      mstore\n        /* \"#utility.yul\":5999:6003   */\n      0x24\n        /* \"#utility.yul\":5996:5997   */\n      0x00\n        /* \"#utility.yul\":5989:6004   */\n      revert\n        /* \"#utility.yul\":6016:6196   */\n    tag_71:\n        /* \"#utility.yul\":6064:6141   */\n      0x4e487b7100000000000000000000000000000000000000000000000000000000\n        /* \"#utility.yul\":6061:6062   */\n      0x00\n        /* \"#utility.yul\":6054:6142   */\n      mstore\n        /* \"#utility.yul\":6161:6165   */\n      0x41\n        /* \"#utility.yul\":6158:6159   */\n      0x04\n        /* \"#utility.yul\":6151:6166   */\n      mstore\n        /* \"#utility.yul\":6185:6189   */\n      0x24\n        /* \"#utility.yul\":6182:6183   */\n      0x00\n        /* \"#utility.yul\":6175:6190   */\n      revert\n        /* \"#utility.yul\":6325:6442   */\n    tag_109:\n        /* \"#utility.yul\":6434:6435   */\n      0x00\n        /* \"#utility.yul\":6431:6432   */\n      dup1\n        /* \"#utility.yul\":6424:6436   */\n      revert\n        /* \"#utility.yul\":6448:6550   */\n    tag_143:\n        /* \"#utility.yul\":6489:6495   */\n      0x00\n        /* \"#utility.yul\":6540:6542   */\n      0x1f\n        /* \"#utility.yul\":6536:6543   */\n      not\n        /* \"#utility.yul\":6531:6533   */\n      0x1f\n        /* \"#utility.yul\":6524:6529   */\n      dup4\n        /* \"#utility.yul\":6520:6534   */\n      add\n        /* \"#utility.yul\":6516:6544   */\n      and\n        /* \"#utility.yul\":6506:6544   */\n      swap1\n      pop\n        /* \"#utility.yul\":6448:6550   */\n      swap2\n      swap1\n      pop\n      jump\t// out\n        /* \"#utility.yul\":6556:6678   */\n    tag_105:\n        /* \"#utility.yul\":6629:6653   */\n      tag_190\n        /* \"#utility.yul\":6647:6652   */\n      dup2\n        /* \"#utility.yul\":6629:6653   */\n      tag_146\n      jump\t// in\n    tag_190:\n        /* \"#utility.yul\":6622:6627   */\n      dup2\n        /* \"#utility.yul\":6619:6654   */\n      eq\n        /* \"#utility.yul\":6609:6672   */\n      tag_191\n      jumpi\n        /* \"#utility.yul\":6668:6669   */\n      0x00\n        /* \"#utility.yul\":6665:6666   */\n      dup1\n        /* \"#utility.yul\":6658:6670   */\n      revert\n        /* \"#utility.yul\":6609:6672   */\n    tag_191:\n        /* \"#utility.yul\":6556:6678   */\n      pop\n      jump\t// out\n\n    auxdata: 0xa264697066735822122097c47fbbe401ee2c10cc06b97a33c47d867f07c21c3649cce63637811c74a1a064736f6c63430008070033\n}\n",
				"bytecode": {
					"linkReferences": {},
					"object": "60806040526040518060600160405280600a60ff168152602001601460ff168152602001600160ff16815250600090600361003b929190610053565b50600060175534801561004d57600080fd5b506100b5565b82600a8101928215610087579160200282015b82811115610086578251829060ff16905591602001919060010190610066565b5b5090506100949190610098565b5090565b5b808211156100b1576000816000905550600101610099565b5090565b610948806100c46000396000f3fe608060405234801561001057600080fd5b506004361061007d5760003560e01c8063a34343c91161005b578063a34343c9146100ec578063bfb231d21461010a578063d9a38d641461013a578063e34404661461016a5761007d565b8063304acd68146100825780635a79b8501461008c57806380c9419e146100bc575b600080fd5b61008a610186565b005b6100a660048036038101906100a19190610572565b6102b7565b6040516100b391906106f0565b60405180910390f35b6100d660048036038101906100d19190610572565b6102db565b6040516100e391906106ce565b60405180910390f35b6100f461037e565b60405161010191906106ac565b60405180910390f35b610124600480360381019061011f9190610572565b6103f7565b60405161013191906106f0565b60405180910390f35b610154600480360381019061014f919061059f565b610412565b60405161016191906106f0565b60405180910390f35b610184600480360381019061017f9190610572565b610440565b005b6005600080600a811061019c5761019b610887565b5b01546101a89190610760565b600080600a81106101bc576101bb610887565b5b0181905550600080600a81106101d5576101d4610887565b5b015460006005600a81106101ec576101eb610887565b5b01819055506040518060a001604052806040518060400160405280600160ff168152602001600260ff1681525081526020016040518060400160405280600160ff168152602001600260ff1681525081526020016040518060400160405280600160ff168152602001600260ff1681525081526020016040518060400160405280600160ff168152602001600260ff1681525081526020016040518060400160405280600160ff168152602001600260ff16815250815250600c9060056102b4929190610478565b50565b601681815481106102c757600080fd5b906000526020600020016000915090505481565b600a81600281106102eb57600080fd5b0160009150905080546102fd906107f7565b80601f0160208091040260200160405190810160405280929190818152602001828054610329906107f7565b80156103765780601f1061034b57610100808354040283529160200191610376565b820191906000526020600020905b81548152906001019060200180831161035957829003601f168201915b505050505081565b60606000600567ffffffffffffffff81111561039d5761039c6108b6565b5b6040519080825280602002602001820160405280156103cb5781602001602082028036833780820191505090505b5090506000816004815181106103e4576103e3610887565b5b6020026020010181815250508091505090565b600081600a811061040757600080fd5b016000915090505481565b600c826005811061042257600080fd5b60020201816002811061043457600080fd5b01600091509150505481565b601681908060018154018082558091505060019003906000526020600020016000909190919091505560168054905060178190555050565b82600560020281019282156104b8579160200282015b828111156104b7578251829060026104a79291906104c9565b509160200191906002019061048e565b5b5090506104c5919061050e565b5090565b82600281019282156104fd579160200282015b828111156104fc578251829060ff169055916020019190600101906104dc565b5b50905061050a9190610532565b5090565b5b8082111561052e5760008181610525919061054f565b5060020161050f565b5090565b5b8082111561054b576000816000905550600101610533565b5090565b506000815560010160009055565b60008135905061056c816108fb565b92915050565b600060208284031215610588576105876108e5565b5b60006105968482850161055d565b91505092915050565b600080604083850312156105b6576105b56108e5565b5b60006105c48582860161055d565b92505060206105d58582860161055d565b9150509250929050565b60006105eb838361068e565b60208301905092915050565b60006106028261071b565b61060c818561073e565b93506106178361070b565b8060005b8381101561064857815161062f88826105df565b975061063a83610731565b92505060018101905061061b565b5085935050505092915050565b600061066082610726565b61066a818561074f565b935061067a8185602086016107c4565b610683816108ea565b840191505092915050565b610697816107ba565b82525050565b6106a6816107ba565b82525050565b600060208201905081810360008301526106c681846105f7565b905092915050565b600060208201905081810360008301526106e88184610655565b905092915050565b6000602082019050610705600083018461069d565b92915050565b6000819050602082019050919050565b600081519050919050565b600081519050919050565b6000602082019050919050565b600082825260208201905092915050565b600082825260208201905092915050565b600061076b826107ba565b9150610776836107ba565b9250817fffffffffffffffffffffffffffffffffffffffffffffffffffffffffffffffff04831182151516156107af576107ae610829565b5b828202905092915050565b6000819050919050565b60005b838110156107e25780820151818401526020810190506107c7565b838111156107f1576000848401525b50505050565b6000600282049050600182168061080f57607f821691505b6020821081141561082357610822610858565b5b50919050565b7f4e487b7100000000000000000000000000000000000000000000000000000000600052601160045260246000fd5b7f4e487b7100000000000000000000000000000000000000000000000000000000600052602260045260246000fd5b7f4e487b7100000000000000000000000000000000000000000000000000000000600052603260045260246000fd5b7f4e487b7100000000000000000000000000000000000000000000000000000000600052604160045260246000fd5b600080fd5b6000601f19601f8301169050919050565b610904816107ba565b811461090f57600080fd5b5056fea264697066735822122097c47fbbe401ee2c10cc06b97a33c47d867f07c21c3649cce63637811c74a1a064736f6c63430008070033",
					"opcodes": "PUSH1 0x80 PUSH1 0x40 MSTORE PUSH1 0x40 MLOAD DUP1 PUSH1 0x60 ADD PUSH1 0x40 MSTORE DUP1 PUSH1 0xA PUSH1 0xFF AND DUP2 MSTORE PUSH1 0x20 ADD PUSH1 0x14 PUSH1 0xFF AND DUP2 MSTORE PUSH1 0x20 ADD PUSH1 0x1 PUSH1 0xFF AND DUP2 MSTORE POP PUSH1 0x0 SWAP1 PUSH1 0x3 PUSH2 0x3B SWAP3 SWAP2 SWAP1 PUSH2 0x53 JUMP JUMPDEST POP PUSH1 0x0 PUSH1 0x17 SSTORE CALLVALUE DUP1 ISZERO PUSH2 0x4D JUMPI PUSH1 0x0 DUP1 REVERT JUMPDEST POP PUSH2 0xB5 JUMP JUMPDEST DUP3 PUSH1 0xA DUP2 ADD SWAP3 DUP3 ISZERO PUSH2 0x87 JUMPI SWAP2 PUSH1 0x20 MUL DUP3 ADD JUMPDEST DUP3 DUP2 GT ISZERO PUSH2 0x86 JUMPI DUP3 MLOAD DUP3 SWAP1 PUSH1 0xFF AND SWAP1 SSTORE SWAP2 PUSH1 0x20 ADD SWAP2 SWAP1 PUSH1 0x1 ADD SWAP1 PUSH2 0x66 JUMP JUMPDEST JUMPDEST POP SWAP1 POP PUSH2 0x94 SWAP2 SWAP1 PUSH2 0x98 JUMP JUMPDEST POP SWAP1 JUMP JUMPDEST JUMPDEST DUP1 DUP3 GT ISZERO PUSH2 0xB1 JUMPI PUSH1 0x0 DUP2 PUSH1 0x0 SWAP1 SSTORE POP PUSH1 0x1 ADD PUSH2 0x99 JUMP JUMPDEST POP SWAP1 JUMP JUMPDEST PUSH2 0x948 DUP1 PUSH2 0xC4 PUSH1 0x0 CODECOPY PUSH1 0x0 RETURN INVALID PUSH1 0x80 PUSH1 0x40 MSTORE CALLVALUE DUP1 ISZERO PUSH2 0x10 JUMPI PUSH1 0x0 DUP1 REVERT JUMPDEST POP PUSH1 0x4 CALLDATASIZE LT PUSH2 0x7D JUMPI PUSH1 0x0 CALLDATALOAD PUSH1 0xE0 SHR DUP1 PUSH4 0xA34343C9 GT PUSH2 0x5B JUMPI DUP1 PUSH4 0xA34343C9 EQ PUSH2 0xEC JUMPI DUP1 PUSH4 0xBFB231D2 EQ PUSH2 0x10A JUMPI DUP1 PUSH4 0xD9A38D64 EQ PUSH2 0x13A JUMPI DUP1 PUSH4 0xE3440466 EQ PUSH2 0x16A JUMPI PUSH2 0x7D JUMP JUMPDEST DUP1 PUSH4 0x304ACD68 EQ PUSH2 0x82 JUMPI DUP1 PUSH4 0x5A79B850 EQ PUSH2 0x8C JUMPI DUP1 PUSH4 0x80C9419E EQ PUSH2 0xBC JUMPI JUMPDEST PUSH1 0x0 DUP1 REVERT JUMPDEST PUSH2 0x8A PUSH2 0x186 JUMP JUMPDEST STOP JUMPDEST PUSH2 0xA6 PUSH1 0x4 DUP1 CALLDATASIZE SUB DUP2 ADD SWAP1 PUSH2 0xA1 SWAP2 SWAP1 PUSH2 0x572 JUMP JUMPDEST PUSH2 0x2B7 JUMP JUMPDEST PUSH1 0x40 MLOAD PUSH2 0xB3 SWAP2 SWAP1 PUSH2 0x6F0 JUMP JUMPDEST PUSH1 0x40 MLOAD DUP1 SWAP2 SUB SWAP1 RETURN JUMPDEST PUSH2 0xD6 PUSH1 0x4 DUP1 CALLDATASIZE SUB DUP2 ADD SWAP1 PUSH2 0xD1 SWAP2 SWAP1 PUSH2 0x572 JUMP JUMPDEST PUSH2 0x2DB JUMP JUMPDEST PUSH1 0x40 MLOAD PUSH2 0xE3 SWAP2 SWAP1 PUSH2 0x6CE JUMP JUMPDEST PUSH1 0x40 MLOAD DUP1 SWAP2 SUB SWAP1 RETURN JUMPDEST PUSH2 0xF4 PUSH2 0x37E JUMP JUMPDEST PUSH1 0x40 MLOAD PUSH2 0x101 SWAP2 SWAP1 PUSH2 0x6AC JUMP JUMPDEST PUSH1 0x40 MLOAD DUP1 SWAP2 SUB SWAP1 RETURN JUMPDEST PUSH2 0x124 PUSH1 0x4 DUP1 CALLDATASIZE SUB DUP2 ADD SWAP1 PUSH2 0x11F SWAP2 SWAP1 PUSH2 0x572 JUMP JUMPDEST PUSH2 0x3F7 JUMP JUMPDEST PUSH1 0x40 MLOAD PUSH2 0x131 SWAP2 SWAP1 PUSH2 0x6F0 JUMP JUMPDEST PUSH1 0x40 MLOAD DUP1 SWAP2 SUB SWAP1 RETURN JUMPDEST PUSH2 0x154 PUSH1 0x4 DUP1 CALLDATASIZE SUB DUP2 ADD SWAP1 PUSH2 0x14F SWAP2 SWAP1 PUSH2 0x59F JUMP JUMPDEST PUSH2 0x412 JUMP JUMPDEST PUSH1 0x40 MLOAD PUSH2 0x161 SWAP2 SWAP1 PUSH2 0x6F0 JUMP JUMPDEST PUSH1 0x40 MLOAD DUP1 SWAP2 SUB SWAP1 RETURN JUMPDEST PUSH2 0x184 PUSH1 0x4 DUP1 CALLDATASIZE SUB DUP2 ADD SWAP1 PUSH2 0x17F SWAP2 SWAP1 PUSH2 0x572 JUMP JUMPDEST PUSH2 0x440 JUMP JUMPDEST STOP JUMPDEST PUSH1 0x5 PUSH1 0x0 DUP1 PUSH1 0xA DUP2 LT PUSH2 0x19C JUMPI PUSH2 0x19B PUSH2 0x887 JUMP JUMPDEST JUMPDEST ADD SLOAD PUSH2 0x1A8 SWAP2 SWAP1 PUSH2 0x760 JUMP JUMPDEST PUSH1 0x0 DUP1 PUSH1 0xA DUP2 LT PUSH2 0x1BC JUMPI PUSH2 0x1BB PUSH2 0x887 JUMP JUMPDEST JUMPDEST ADD DUP2 SWAP1 SSTORE POP PUSH1 0x0 DUP1 PUSH1 0xA DUP2 LT PUSH2 0x1D5 JUMPI PUSH2 0x1D4 PUSH2 0x887 JUMP JUMPDEST JUMPDEST ADD SLOAD PUSH1 0x0 PUSH1 0x5 PUSH1 0xA DUP2 LT PUSH2 0x1EC JUMPI PUSH2 0x1EB PUSH2 0x887 JUMP JUMPDEST JUMPDEST ADD DUP2 SWAP1 SSTORE POP PUSH1 0x40 MLOAD DUP1 PUSH1 0xA0 ADD PUSH1 0x40 MSTORE DUP1 PUSH1 0x40 MLOAD DUP1 PUSH1 0x40 ADD PUSH1 0x40 MSTORE DUP1 PUSH1 0x1 PUSH1 0xFF AND DUP2 MSTORE PUSH1 0x20 ADD PUSH1 0x2 PUSH1 0xFF AND DUP2 MSTORE POP DUP2 MSTORE PUSH1 0x20 ADD PUSH1 0x40 MLOAD DUP1 PUSH1 0x40 ADD PUSH1 0x40 MSTORE DUP1 PUSH1 0x1 PUSH1 0xFF AND DUP2 MSTORE PUSH1 0x20 ADD PUSH1 0x2 PUSH1 0xFF AND DUP2 MSTORE POP DUP2 MSTORE PUSH1 0x20 ADD PUSH1 0x40 MLOAD DUP1 PUSH1 0x40 ADD PUSH1 0x40 MSTORE DUP1 PUSH1 0x1 PUSH1 0xFF AND DUP2 MSTORE PUSH1 0x20 ADD PUSH1 0x2 PUSH1 0xFF AND DUP2 MSTORE POP DUP2 MSTORE PUSH1 0x20 ADD PUSH1 0x40 MLOAD DUP1 PUSH1 0x40 ADD PUSH1 0x40 MSTORE DUP1 PUSH1 0x1 PUSH1 0xFF AND DUP2 MSTORE PUSH1 0x20 ADD PUSH1 0x2 PUSH1 0xFF AND DUP2 MSTORE POP DUP2 MSTORE PUSH1 0x20 ADD PUSH1 0x40 MLOAD DUP1 PUSH1 0x40 ADD PUSH1 0x40 MSTORE DUP1 PUSH1 0x1 PUSH1 0xFF AND DUP2 MSTORE PUSH1 0x20 ADD PUSH1 0x2 PUSH1 0xFF AND DUP2 MSTORE POP DUP2 MSTORE POP PUSH1 0xC SWAP1 PUSH1 0x5 PUSH2 0x2B4 SWAP3 SWAP2 SWAP1 PUSH2 0x478 JUMP JUMPDEST POP JUMP JUMPDEST PUSH1 0x16 DUP2 DUP2 SLOAD DUP2 LT PUSH2 0x2C7 JUMPI PUSH1 0x0 DUP1 REVERT JUMPDEST SWAP1 PUSH1 0x0 MSTORE PUSH1 0x20 PUSH1 0x0 KECCAK256 ADD PUSH1 0x0 SWAP2 POP SWAP1 POP SLOAD DUP2 JUMP JUMPDEST PUSH1 0xA DUP2 PUSH1 0x2 DUP2 LT PUSH2 0x2EB JUMPI PUSH1 0x0 DUP1 REVERT JUMPDEST ADD PUSH1 0x0 SWAP2 POP SWAP1 POP DUP1 SLOAD PUSH2 0x2FD SWAP1 PUSH2 0x7F7 JUMP JUMPDEST DUP1 PUSH1 0x1F ADD PUSH1 0x20 DUP1 SWAP2 DIV MUL PUSH1 0x20 ADD PUSH1 0x40 MLOAD SWAP1 DUP2 ADD PUSH1 0x40 MSTORE DUP1 SWAP3 SWAP2 SWAP1 DUP2 DUP2 MSTORE PUSH1 0x20 ADD DUP3 DUP1 SLOAD PUSH2 0x329 SWAP1 PUSH2 0x7F7 JUMP JUMPDEST DUP1 ISZERO PUSH2 0x376 JUMPI DUP1 PUSH1 0x1F LT PUSH2 0x34B JUMPI PUSH2 0x100 DUP1 DUP4 SLOAD DIV MUL DUP4 MSTORE SWAP2 PUSH1 0x20 ADD SWAP2 PUSH2 0x376 JUMP JUMPDEST DUP3 ADD SWAP2 SWAP1 PUSH1 0x0 MSTORE PUSH1 0x20 PUSH1 0x0 KECCAK256 SWAP1 JUMPDEST DUP2 SLOAD DUP2 MSTORE SWAP1 PUSH1 0x1 ADD SWAP1 PUSH1 0x20 ADD DUP1 DUP4 GT PUSH2 0x359 JUMPI DUP3 SWAP1 SUB PUSH1 0x1F AND DUP3 ADD SWAP2 JUMPDEST POP POP POP POP POP DUP2 JUMP JUMPDEST PUSH1 0x60 PUSH1 0x0 PUSH1 0x5 PUSH8 0xFFFFFFFFFFFFFFFF DUP2 GT ISZERO PUSH2 0x39D JUMPI PUSH2 0x39C PUSH2 0x8B6 JUMP JUMPDEST JUMPDEST PUSH1 0x40 MLOAD SWAP1 DUP1 DUP3 MSTORE DUP1 PUSH1 0x20 MUL PUSH1 0x20 ADD DUP3 ADD PUSH1 0x40 MSTORE DUP1 ISZERO PUSH2 0x3CB JUMPI DUP2 PUSH1 0x20 ADD PUSH1 0x20 DUP3 MUL DUP1 CALLDATASIZE DUP4 CALLDATACOPY DUP1 DUP3 ADD SWAP2 POP POP SWAP1 POP JUMPDEST POP SWAP1 POP PUSH1 0x0 DUP2 PUSH1 0x4 DUP2 MLOAD DUP2 LT PUSH2 0x3E4 JUMPI PUSH2 0x3E3 PUSH2 0x887 JUMP JUMPDEST JUMPDEST PUSH1 0x20 MUL PUSH1 0x20 ADD ADD DUP2 DUP2 MSTORE POP POP DUP1 SWAP2 POP POP SWAP1 JUMP JUMPDEST PUSH1 0x0 DUP2 PUSH1 0xA DUP2 LT PUSH2 0x407 JUMPI PUSH1 0x0 DUP1 REVERT JUMPDEST ADD PUSH1 0x0 SWAP2 POP SWAP1 POP SLOAD DUP2 JUMP JUMPDEST PUSH1 0xC DUP3 PUSH1 0x5 DUP2 LT PUSH2 0x422 JUMPI PUSH1 0x0 DUP1 REVERT JUMPDEST PUSH1 0x2 MUL ADD DUP2 PUSH1 0x2 DUP2 LT PUSH2 0x434 JUMPI PUSH1 0x0 DUP1 REVERT JUMPDEST ADD PUSH1 0x0 SWAP2 POP SWAP2 POP POP SLOAD DUP2 JUMP JUMPDEST PUSH1 0x16 DUP2 SWAP1 DUP1 PUSH1 0x1 DUP2 SLOAD ADD DUP1 DUP3 SSTORE DUP1 SWAP2 POP POP PUSH1 0x1 SWAP1 SUB SWAP1 PUSH1 0x0 MSTORE PUSH1 0x20 PUSH1 0x0 KECCAK256 ADD PUSH1 0x0 SWAP1 SWAP2 SWAP1 SWAP2 SWAP1 SWAP2 POP SSTORE PUSH1 0x16 DUP1 SLOAD SWAP1 POP PUSH1 0x17 DUP2 SWAP1 SSTORE POP POP JUMP JUMPDEST DUP3 PUSH1 0x5 PUSH1 0x2 MUL DUP2 ADD SWAP3 DUP3 ISZERO PUSH2 0x4B8 JUMPI SWAP2 PUSH1 0x20 MUL DUP3 ADD JUMPDEST DUP3 DUP2 GT ISZERO PUSH2 0x4B7 JUMPI DUP3 MLOAD DUP3 SWAP1 PUSH1 0x2 PUSH2 0x4A7 SWAP3 SWAP2 SWAP1 PUSH2 0x4C9 JUMP JUMPDEST POP SWAP2 PUSH1 0x20 ADD SWAP2 SWAP1 PUSH1 0x2 ADD SWAP1 PUSH2 0x48E JUMP JUMPDEST JUMPDEST POP SWAP1 POP PUSH2 0x4C5 SWAP2 SWAP1 PUSH2 0x50E JUMP JUMPDEST POP SWAP1 JUMP JUMPDEST DUP3 PUSH1 0x2 DUP2 ADD SWAP3 DUP3 ISZERO PUSH2 0x4FD JUMPI SWAP2 PUSH1 0x20 MUL DUP3 ADD JUMPDEST DUP3 DUP2 GT ISZERO PUSH2 0x4FC JUMPI DUP3 MLOAD DUP3 SWAP1 PUSH1 0xFF AND SWAP1 SSTORE SWAP2 PUSH1 0x20 ADD SWAP2 SWAP1 PUSH1 0x1 ADD SWAP1 PUSH2 0x4DC JUMP JUMPDEST JUMPDEST POP SWAP1 POP PUSH2 0x50A SWAP2 SWAP1 PUSH2 0x532 JUMP JUMPDEST POP SWAP1 JUMP JUMPDEST JUMPDEST DUP1 DUP3 GT ISZERO PUSH2 0x52E JUMPI PUSH1 0x0 DUP2 DUP2 PUSH2 0x525 SWAP2 SWAP1 PUSH2 0x54F JUMP JUMPDEST POP PUSH1 0x2 ADD PUSH2 0x50F JUMP JUMPDEST POP SWAP1 JUMP JUMPDEST JUMPDEST DUP1 DUP3 GT ISZERO PUSH2 0x54B JUMPI PUSH1 0x0 DUP2 PUSH1 0x0 SWAP1 SSTORE POP PUSH1 0x1 ADD PUSH2 0x533 JUMP JUMPDEST POP SWAP1 JUMP JUMPDEST POP PUSH1 0x0 DUP2 SSTORE PUSH1 0x1 ADD PUSH1 0x0 SWAP1 SSTORE JUMP JUMPDEST PUSH1 0x0 DUP2 CALLDATALOAD SWAP1 POP PUSH2 0x56C DUP2 PUSH2 0x8FB JUMP JUMPDEST SWAP3 SWAP2 POP POP JUMP JUMPDEST PUSH1 0x0 PUSH1 0x20 DUP3 DUP5 SUB SLT ISZERO PUSH2 0x588 JUMPI PUSH2 0x587 PUSH2 0x8E5 JUMP JUMPDEST JUMPDEST PUSH1 0x0 PUSH2 0x596 DUP5 DUP3 DUP6 ADD PUSH2 0x55D JUMP JUMPDEST SWAP2 POP POP SWAP3 SWAP2 POP POP JUMP JUMPDEST PUSH1 0x0 DUP1 PUSH1 0x40 DUP4 DUP6 SUB SLT ISZERO PUSH2 0x5B6 JUMPI PUSH2 0x5B5 PUSH2 0x8E5 JUMP JUMPDEST JUMPDEST PUSH1 0x0 PUSH2 0x5C4 DUP6 DUP3 DUP7 ADD PUSH2 0x55D JUMP JUMPDEST SWAP3 POP POP PUSH1 0x20 PUSH2 0x5D5 DUP6 DUP3 DUP7 ADD PUSH2 0x55D JUMP JUMPDEST SWAP2 POP POP SWAP3 POP SWAP3 SWAP1 POP JUMP JUMPDEST PUSH1 0x0 PUSH2 0x5EB DUP4 DUP4 PUSH2 0x68E JUMP JUMPDEST PUSH1 0x20 DUP4 ADD SWAP1 POP SWAP3 SWAP2 POP POP JUMP JUMPDEST PUSH1 0x0 PUSH2 0x602 DUP3 PUSH2 0x71B JUMP JUMPDEST PUSH2 0x60C DUP2 DUP6 PUSH2 0x73E JUMP JUMPDEST SWAP4 POP PUSH2 0x617 DUP4 PUSH2 0x70B JUMP JUMPDEST DUP1 PUSH1 0x0 JUMPDEST DUP4 DUP2 LT ISZERO PUSH2 0x648 JUMPI DUP2 MLOAD PUSH2 0x62F DUP9 DUP3 PUSH2 0x5DF JUMP JUMPDEST SWAP8 POP PUSH2 0x63A DUP4 PUSH2 0x731 JUMP JUMPDEST SWAP3 POP POP PUSH1 0x1 DUP2 ADD SWAP1 POP PUSH2 0x61B JUMP JUMPDEST POP DUP6 SWAP4 POP POP POP POP SWAP3 SWAP2 POP POP JUMP JUMPDEST PUSH1 0x0 PUSH2 0x660 DUP3 PUSH2 0x726 JUMP JUMPDEST PUSH2 0x66A DUP2 DUP6 PUSH2 0x74F JUMP JUMPDEST SWAP4 POP PUSH2 0x67A DUP2 DUP6 PUSH1 0x20 DUP7 ADD PUSH2 0x7C4 JUMP JUMPDEST PUSH2 0x683 DUP2 PUSH2 0x8EA JUMP JUMPDEST DUP5 ADD SWAP2 POP POP SWAP3 SWAP2 POP POP JUMP JUMPDEST PUSH2 0x697 DUP2 PUSH2 0x7BA JUMP JUMPDEST DUP3 MSTORE POP POP JUMP JUMPDEST PUSH2 0x6A6 DUP2 PUSH2 0x7BA JUMP JUMPDEST DUP3 MSTORE POP POP JUMP JUMPDEST PUSH1 0x0 PUSH1 0x20 DUP3 ADD SWAP1 POP DUP2 DUP2 SUB PUSH1 0x0 DUP4 ADD MSTORE PUSH2 0x6C6 DUP2 DUP5 PUSH2 0x5F7 JUMP JUMPDEST SWAP1 POP SWAP3 SWAP2 POP POP JUMP JUMPDEST PUSH1 0x0 PUSH1 0x20 DUP3 ADD SWAP1 POP DUP2 DUP2 SUB PUSH1 0x0 DUP4 ADD MSTORE PUSH2 0x6E8 DUP2 DUP5 PUSH2 0x655 JUMP JUMPDEST SWAP1 POP SWAP3 SWAP2 POP POP JUMP JUMPDEST PUSH1 0x0 PUSH1 0x20 DUP3 ADD SWAP1 POP PUSH2 0x705 PUSH1 0x0 DUP4 ADD DUP5 PUSH2 0x69D JUMP JUMPDEST SWAP3 SWAP2 POP POP JUMP JUMPDEST PUSH1 0x0 DUP2 SWAP1 POP PUSH1 0x20 DUP3 ADD SWAP1 POP SWAP2 SWAP1 POP JUMP JUMPDEST PUSH1 0x0 DUP2 MLOAD SWAP1 POP SWAP2 SWAP1 POP JUMP JUMPDEST PUSH1 0x0 DUP2 MLOAD SWAP1 POP SWAP2 SWAP1 POP JUMP JUMPDEST PUSH1 0x0 PUSH1 0x20 DUP3 ADD SWAP1 POP SWAP2 SWAP1 POP JUMP JUMPDEST PUSH1 0x0 DUP3 DUP3 MSTORE PUSH1 0x20 DUP3 ADD SWAP1 POP SWAP3 SWAP2 POP POP JUMP JUMPDEST PUSH1 0x0 DUP3 DUP3 MSTORE PUSH1 0x20 DUP3 ADD SWAP1 POP SWAP3 SWAP2 POP POP JUMP JUMPDEST PUSH1 0x0 PUSH2 0x76B DUP3 PUSH2 0x7BA JUMP JUMPDEST SWAP2 POP PUSH2 0x776 DUP4 PUSH2 0x7BA JUMP JUMPDEST SWAP3 POP DUP2 PUSH32 0xFFFFFFFFFFFFFFFFFFFFFFFFFFFFFFFFFFFFFFFFFFFFFFFFFFFFFFFFFFFFFFFF DIV DUP4 GT DUP3 ISZERO ISZERO AND ISZERO PUSH2 0x7AF JUMPI PUSH2 0x7AE PUSH2 0x829 JUMP JUMPDEST JUMPDEST DUP3 DUP3 MUL SWAP1 POP SWAP3 SWAP2 POP POP JUMP JUMPDEST PUSH1 0x0 DUP2 SWAP1 POP SWAP2 SWAP1 POP JUMP JUMPDEST PUSH1 0x0 JUMPDEST DUP4 DUP2 LT ISZERO PUSH2 0x7E2 JUMPI DUP1 DUP3 ADD MLOAD DUP2 DUP5 ADD MSTORE PUSH1 0x20 DUP2 ADD SWAP1 POP PUSH2 0x7C7 JUMP JUMPDEST DUP4 DUP2 GT ISZERO PUSH2 0x7F1 JUMPI PUSH1 0x0 DUP5 DUP5 ADD MSTORE JUMPDEST POP POP POP POP JUMP JUMPDEST PUSH1 0x0 PUSH1 0x2 DUP3 DIV SWAP1 POP PUSH1 0x1 DUP3 AND DUP1 PUSH2 0x80F JUMPI PUSH1 0x7F DUP3 AND SWAP2 POP JUMPDEST PUSH1 0x20 DUP3 LT DUP2 EQ ISZERO PUSH2 0x823 JUMPI PUSH2 0x822 PUSH2 0x858 JUMP JUMPDEST JUMPDEST POP SWAP2 SWAP1 POP JUMP JUMPDEST PUSH32 0x4E487B7100000000000000000000000000000000000000000000000000000000 PUSH1 0x0 MSTORE PUSH1 0x11 PUSH1 0x4 MSTORE PUSH1 0x24 PUSH1 0x0 REVERT JUMPDEST PUSH32 0x4E487B7100000000000000000000000000000000000000000000000000000000 PUSH1 0x0 MSTORE PUSH1 0x22 PUSH1 0x4 MSTORE PUSH1 0x24 PUSH1 0x0 REVERT JUMPDEST PUSH32 0x4E487B7100000000000000000000000000000000000000000000000000000000 PUSH1 0x0 MSTORE PUSH1 0x32 PUSH1 0x4 MSTORE PUSH1 0x24 PUSH1 0x0 REVERT JUMPDEST PUSH32 0x4E487B7100000000000000000000000000000000000000000000000000000000 PUSH1 0x0 MSTORE PUSH1 0x41 PUSH1 0x4 MSTORE PUSH1 0x24 PUSH1 0x0 REVERT JUMPDEST PUSH1 0x0 DUP1 REVERT JUMPDEST PUSH1 0x0 PUSH1 0x1F NOT PUSH1 0x1F DUP4 ADD AND SWAP1 POP SWAP2 SWAP1 POP JUMP JUMPDEST PUSH2 0x904 DUP2 PUSH2 0x7BA JUMP JUMPDEST DUP2 EQ PUSH2 0x90F JUMPI PUSH1 0x0 DUP1 REVERT JUMPDEST POP JUMP INVALID LOG2 PUSH5 0x6970667358 0x22 SLT KECCAK256 SWAP8 0xC4 PUSH32 0xBBE401EE2C10CC06B97A33C47D867F07C21C3649CCE63637811C74A1A064736F PUSH13 0x63430008070033000000000000 "
				},
				"gasEstimates": {
					"creation": {
						"codeDepositCost": "475200",
						"executionCost": "infinite",
						"totalCost": "infinite"
					},
					"external": {
						"dynArr(uint256)": "infinite",
						"items(uint256)": "infinite",
						"list(uint256)": "infinite",
						"matrix(uint256,uint256)": "infinite",
						"modDynamicArr(uint256)": "71117",
						"modifyArray()": "infinite",
						"sampleMemory()": "infinite"
					}
				},
				"methodIdentifiers": {
					"dynArr(uint256)": "5a79b850",
					"items(uint256)": "bfb231d2",
					"list(uint256)": "80c9419e",
					"matrix(uint256,uint256)": "d9a38d64",
					"modDynamicArr(uint256)": "e3440466",
					"modifyArray()": "304acd68",
					"sampleMemory()": "a34343c9"
				}
			},
			"storageLayout": {
				"storage": [
					{
						"astId": 9,
						"contract": "contracts/Lesson4Types.sol:Array4Lesson",
						"label": "items",
						"offset": 0,
						"slot": "0",
						"type": "t_array(t_uint256)10_storage"
					},
					{
						"astId": 13,
						"contract": "contracts/Lesson4Types.sol:Array4Lesson",
						"label": "list",
						"offset": 0,
						"slot": "10",
						"type": "t_array(t_string_storage)2_storage"
					},
					{
						"astId": 19,
						"contract": "contracts/Lesson4Types.sol:Array4Lesson",
						"label": "matrix",
						"offset": 0,
						"slot": "12",
						"type": "t_array(t_array(t_uint256)2_storage)5_storage"
					},
					{
						"astId": 22,
						"contract": "contracts/Lesson4Types.sol:Array4Lesson",
						"label": "dynArr",
						"offset": 0,
						"slot": "22",
						"type": "t_array(t_uint256)dyn_storage"
					},
					{
						"astId": 25,
						"contract": "contracts/Lesson4Types.sol:Array4Lesson",
						"label": "dynArrLength",
						"offset": 0,
						"slot": "23",
						"type": "t_uint256"
					},
					{
						"astId": 27,
						"contract": "contracts/Lesson4Types.sol:Array4Lesson",
						"label": "bit",
						"offset": 0,
						"slot": "24",
						"type": "t_bytes1"
					}
				],
				"types": {
					"t_array(t_array(t_uint256)2_storage)5_storage": {
						"base": "t_array(t_uint256)2_storage",
						"encoding": "inplace",
						"label": "uint256[2][5]",
						"numberOfBytes": "320"
					},
					"t_array(t_string_storage)2_storage": {
						"base": "t_string_storage",
						"encoding": "inplace",
						"label": "string[2]",
						"numberOfBytes": "64"
					},
					"t_array(t_uint256)10_storage": {
						"base": "t_uint256",
						"encoding": "inplace",
						"label": "uint256[10]",
						"numberOfBytes": "320"
					},
					"t_array(t_uint256)2_storage": {
						"base": "t_uint256",
						"encoding": "inplace",
						"label": "uint256[2]",
						"numberOfBytes": "64"
					},
					"t_array(t_uint256)dyn_storage": {
						"base": "t_uint256",
						"encoding": "dynamic_array",
						"label": "uint256[]",
						"numberOfBytes": "32"
					},
					"t_bytes1": {
						"encoding": "inplace",
						"label": "bytes1",
						"numberOfBytes": "1"
					},
					"t_string_storage": {
						"encoding": "bytes",
						"label": "string",
						"numberOfBytes": "32"
					},
					"t_uint256": {
						"encoding": "inplace",
						"label": "uint256",
						"numberOfBytes": "32"
					}
				}
			},
			"userdoc": {
				"kind": "user",
				"methods": {},
				"version": 1
			}
		}
	}
}