{
	"contracts/Lesson5Types.sol": {
		"Struct5Lesson": {
			"abi": [
				{
					"inputs": [
						{
							"internalType": "address",
							"name": "",
							"type": "address"
						}
					],
					"name": "balances",
					"outputs": [
						{
							"internalType": "uint256",
							"name": "totalPayments",
							"type": "uint256"
						}
					],
					"stateMutability": "view",
					"type": "function"
				},
				{
					"inputs": [
						{
							"internalType": "address",
							"name": "_addr",
							"type": "address"
						},
						{
							"internalType": "uint256",
							"name": "_index",
							"type": "uint256"
						}
					],
					"name": "getPayment",
					"outputs": [
						{
							"components": [
								{
									"internalType": "uint256",
									"name": "amount",
									"type": "uint256"
								},
								{
									"internalType": "uint256",
									"name": "timestamp",
									"type": "uint256"
								},
								{
									"internalType": "address",
									"name": "from",
									"type": "address"
								},
								{
									"internalType": "string",
									"name": "message",
									"type": "string"
								}
							],
							"internalType": "struct Struct5Lesson.Payment",
							"name": "",
							"type": "tuple"
						}
					],
					"stateMutability": "view",
					"type": "function"
				},
				{
					"inputs": [
						{
							"internalType": "string",
							"name": "message",
							"type": "string"
						}
					],
					"name": "pay",
					"outputs": [],
					"stateMutability": "payable",
					"type": "function"
				}
			],
			"devdoc": {
				"kind": "dev",
				"methods": {},
				"version": 1
			},
			"evm": {
				"assembly": "    /* \"contracts/Lesson5Types.sol\":58:1307  contract Struct5Lesson {... */\n  mstore(0x40, 0x80)\n  callvalue\n  dup1\n  iszero\n  tag_1\n  jumpi\n  0x00\n  dup1\n  revert\ntag_1:\n  pop\n  dataSize(sub_0)\n  dup1\n  dataOffset(sub_0)\n  0x00\n  codecopy\n  0x00\n  return\nstop\n\nsub_0: assembly {\n        /* \"contracts/Lesson5Types.sol\":58:1307  contract Struct5Lesson {... */\n      mstore(0x40, 0x80)\n      jumpi(tag_1, lt(calldatasize, 0x04))\n      shr(0xe0, calldataload(0x00))\n      dup1\n      0x27e235e3\n      eq\n      tag_2\n      jumpi\n      dup1\n      0x2b66d72e\n      eq\n      tag_3\n      jumpi\n      dup1\n      0x977a767c\n      eq\n      tag_4\n      jumpi\n    tag_1:\n      0x00\n      dup1\n      revert\n        /* \"contracts/Lesson5Types.sol\":763:806  mapping(address => Balance) public balances */\n    tag_2:\n      callvalue\n      dup1\n      iszero\n      tag_5\n      jumpi\n      0x00\n      dup1\n      revert\n    tag_5:\n      pop\n      tag_6\n      0x04\n      dup1\n      calldatasize\n      sub\n      dup2\n      add\n      swap1\n      tag_7\n      swap2\n      swap1\n      tag_8\n      jump\t// in\n    tag_7:\n      tag_9\n      jump\t// in\n    tag_6:\n      mload(0x40)\n      tag_10\n      swap2\n      swap1\n      tag_11\n      jump\t// in\n    tag_10:\n      mload(0x40)\n      dup1\n      swap2\n      sub\n      swap1\n      return\n        /* \"contracts/Lesson5Types.sol\":813:1159  function pay(string memory message) public payable {... */\n    tag_3:\n      tag_12\n      0x04\n      dup1\n      calldatasize\n      sub\n      dup2\n      add\n      swap1\n      tag_13\n      swap2\n      swap1\n      tag_14\n      jump\t// in\n    tag_13:\n      tag_15\n      jump\t// in\n    tag_12:\n      stop\n        /* \"contracts/Lesson5Types.sol\":1165:1305  function getPayment(address _addr, uint _index) public view returns(Payment memory) {... */\n    tag_4:\n      callvalue\n      dup1\n      iszero\n      tag_16\n      jumpi\n      0x00\n      dup1\n      revert\n    tag_16:\n      pop\n      tag_17\n      0x04\n      dup1\n      calldatasize\n      sub\n      dup2\n      add\n      swap1\n      tag_18\n      swap2\n      swap1\n      tag_19\n      jump\t// in\n    tag_18:\n      tag_20\n      jump\t// in\n    tag_17:\n      mload(0x40)\n      tag_21\n      swap2\n      swap1\n      tag_22\n      jump\t// in\n    tag_21:\n      mload(0x40)\n      dup1\n      swap2\n      sub\n      swap1\n      return\n        /* \"contracts/Lesson5Types.sol\":763:806  mapping(address => Balance) public balances */\n    tag_9:\n      mstore(0x20, 0x00)\n      dup1\n      0x00\n      mstore\n      keccak256(0x00, 0x40)\n      0x00\n      swap2\n      pop\n      swap1\n      pop\n      dup1\n      0x00\n      add\n      sload\n      swap1\n      pop\n      dup2\n      jump\t// out\n        /* \"contracts/Lesson5Types.sol\":813:1159  function pay(string memory message) public payable {... */\n    tag_15:\n        /* \"contracts/Lesson5Types.sol\":874:882  balances */\n      0x00\n        /* \"contracts/Lesson5Types.sol\":874:894  balances[msg.sender] */\n      dup1\n        /* \"contracts/Lesson5Types.sol\":883:893  msg.sender */\n      caller\n        /* \"contracts/Lesson5Types.sol\":874:894  balances[msg.sender] */\n      0xffffffffffffffffffffffffffffffffffffffff\n      and\n      0xffffffffffffffffffffffffffffffffffffffff\n      and\n      dup2\n      mstore\n      0x20\n      add\n      swap1\n      dup2\n      mstore\n      0x20\n      add\n      0x00\n      keccak256\n        /* \"contracts/Lesson5Types.sol\":874:908  balances[msg.sender].totalPayments */\n      0x00\n      add\n      0x00\n        /* \"contracts/Lesson5Types.sol\":874:910  balances[msg.sender].totalPayments++ */\n      dup2\n      sload\n      dup1\n      swap3\n      swap2\n      swap1\n      tag_24\n      swap1\n      tag_25\n      jump\t// in\n    tag_24:\n      swap2\n      swap1\n      pop\n      sstore\n      pop\n        /* \"contracts/Lesson5Types.sol\":921:946  Payment memory newPayment */\n      0x00\n        /* \"contracts/Lesson5Types.sol\":949:1063  Payment(... */\n      mload(0x40)\n      dup1\n      0x80\n      add\n      0x40\n      mstore\n      dup1\n        /* \"contracts/Lesson5Types.sol\":970:979  msg.value */\n      callvalue\n        /* \"contracts/Lesson5Types.sol\":949:1063  Payment(... */\n      dup2\n      mstore\n      0x20\n      add\n        /* \"contracts/Lesson5Types.sol\":993:1008  block.timestamp */\n      timestamp\n        /* \"contracts/Lesson5Types.sol\":949:1063  Payment(... */\n      dup2\n      mstore\n      0x20\n      add\n        /* \"contracts/Lesson5Types.sol\":1022:1032  msg.sender */\n      caller\n        /* \"contracts/Lesson5Types.sol\":949:1063  Payment(... */\n      0xffffffffffffffffffffffffffffffffffffffff\n      and\n      dup2\n      mstore\n      0x20\n      add\n        /* \"contracts/Lesson5Types.sol\":1046:1053  message */\n      dup4\n        /* \"contracts/Lesson5Types.sol\":949:1063  Payment(... */\n      dup2\n      mstore\n      pop\n        /* \"contracts/Lesson5Types.sol\":921:1063  Payment memory newPayment = Payment(... */\n      swap1\n      pop\n        /* \"contracts/Lesson5Types.sol\":1141:1151  newPayment */\n      dup1\n        /* \"contracts/Lesson5Types.sol\":1073:1081  balances */\n      0x00\n        /* \"contracts/Lesson5Types.sol\":1073:1093  balances[msg.sender] */\n      dup1\n        /* \"contracts/Lesson5Types.sol\":1082:1092  msg.sender */\n      caller\n        /* \"contracts/Lesson5Types.sol\":1073:1093  balances[msg.sender] */\n      0xffffffffffffffffffffffffffffffffffffffff\n      and\n      0xffffffffffffffffffffffffffffffffffffffff\n      and\n      dup2\n      mstore\n      0x20\n      add\n      swap1\n      dup2\n      mstore\n      0x20\n      add\n      0x00\n      keccak256\n        /* \"contracts/Lesson5Types.sol\":1073:1102  balances[msg.sender].payments */\n      0x01\n      add\n        /* \"contracts/Lesson5Types.sol\":1073:1138  balances[msg.sender].payments[balances[msg.sender].totalPayments] */\n      0x00\n        /* \"contracts/Lesson5Types.sol\":1103:1111  balances */\n      dup1\n        /* \"contracts/Lesson5Types.sol\":1103:1123  balances[msg.sender] */\n      0x00\n        /* \"contracts/Lesson5Types.sol\":1112:1122  msg.sender */\n      caller\n        /* \"contracts/Lesson5Types.sol\":1103:1123  balances[msg.sender] */\n      0xffffffffffffffffffffffffffffffffffffffff\n      and\n      0xffffffffffffffffffffffffffffffffffffffff\n      and\n      dup2\n      mstore\n      0x20\n      add\n      swap1\n      dup2\n      mstore\n      0x20\n      add\n      0x00\n      keccak256\n        /* \"contracts/Lesson5Types.sol\":1103:1137  balances[msg.sender].totalPayments */\n      0x00\n      add\n      sload\n        /* \"contracts/Lesson5Types.sol\":1073:1138  balances[msg.sender].payments[balances[msg.sender].totalPayments] */\n      dup2\n      mstore\n      0x20\n      add\n      swap1\n      dup2\n      mstore\n      0x20\n      add\n      0x00\n      keccak256\n        /* \"contracts/Lesson5Types.sol\":1073:1151  balances[msg.sender].payments[balances[msg.sender].totalPayments] = newPayment */\n      0x00\n      dup3\n      add\n      mload\n      dup2\n      0x00\n      add\n      sstore\n      0x20\n      dup3\n      add\n      mload\n      dup2\n      0x01\n      add\n      sstore\n      0x40\n      dup3\n      add\n      mload\n      dup2\n      0x02\n      add\n      exp(0x0100, 0x00)\n      dup2\n      sload\n      dup2\n      0xffffffffffffffffffffffffffffffffffffffff\n      mul\n      not\n      and\n      swap1\n      dup4\n      0xffffffffffffffffffffffffffffffffffffffff\n      and\n      mul\n      or\n      swap1\n      sstore\n      pop\n      0x60\n      dup3\n      add\n      mload\n      dup2\n      0x03\n      add\n      swap1\n      dup1\n      mload\n      swap1\n      0x20\n      add\n      swap1\n      tag_26\n      swap3\n      swap2\n      swap1\n      tag_27\n      jump\t// in\n    tag_26:\n      pop\n      swap1\n      pop\n      pop\n        /* \"contracts/Lesson5Types.sol\":864:1159  {... */\n      pop\n        /* \"contracts/Lesson5Types.sol\":813:1159  function pay(string memory message) public payable {... */\n      pop\n      jump\t// out\n        /* \"contracts/Lesson5Types.sol\":1165:1305  function getPayment(address _addr, uint _index) public view returns(Payment memory) {... */\n    tag_20:\n        /* \"contracts/Lesson5Types.sol\":1233:1247  Payment memory */\n      tag_28\n      tag_29\n      jump\t// in\n    tag_28:\n        /* \"contracts/Lesson5Types.sol\":1266:1274  balances */\n      0x00\n        /* \"contracts/Lesson5Types.sol\":1266:1281  balances[_addr] */\n      dup1\n        /* \"contracts/Lesson5Types.sol\":1275:1280  _addr */\n      dup5\n        /* \"contracts/Lesson5Types.sol\":1266:1281  balances[_addr] */\n      0xffffffffffffffffffffffffffffffffffffffff\n      and\n      0xffffffffffffffffffffffffffffffffffffffff\n      and\n      dup2\n      mstore\n      0x20\n      add\n      swap1\n      dup2\n      mstore\n      0x20\n      add\n      0x00\n      keccak256\n        /* \"contracts/Lesson5Types.sol\":1266:1290  balances[_addr].payments */\n      0x01\n      add\n        /* \"contracts/Lesson5Types.sol\":1266:1298  balances[_addr].payments[_index] */\n      0x00\n        /* \"contracts/Lesson5Types.sol\":1291:1297  _index */\n      dup4\n        /* \"contracts/Lesson5Types.sol\":1266:1298  balances[_addr].payments[_index] */\n      dup2\n      mstore\n      0x20\n      add\n      swap1\n      dup2\n      mstore\n      0x20\n      add\n      0x00\n      keccak256\n        /* \"contracts/Lesson5Types.sol\":1259:1298  return balances[_addr].payments[_index] */\n      mload(0x40)\n      dup1\n      0x80\n      add\n      0x40\n      mstore\n      swap1\n      dup2\n      0x00\n      dup3\n      add\n      sload\n      dup2\n      mstore\n      0x20\n      add\n      0x01\n      dup3\n      add\n      sload\n      dup2\n      mstore\n      0x20\n      add\n      0x02\n      dup3\n      add\n      0x00\n      swap1\n      sload\n      swap1\n      0x0100\n      exp\n      swap1\n      div\n      0xffffffffffffffffffffffffffffffffffffffff\n      and\n      0xffffffffffffffffffffffffffffffffffffffff\n      and\n      0xffffffffffffffffffffffffffffffffffffffff\n      and\n      dup2\n      mstore\n      0x20\n      add\n      0x03\n      dup3\n      add\n      dup1\n      sload\n      tag_31\n      swap1\n      tag_32\n      jump\t// in\n    tag_31:\n      dup1\n      0x1f\n      add\n      0x20\n      dup1\n      swap2\n      div\n      mul\n      0x20\n      add\n      mload(0x40)\n      swap1\n      dup2\n      add\n      0x40\n      mstore\n      dup1\n      swap3\n      swap2\n      swap1\n      dup2\n      dup2\n      mstore\n      0x20\n      add\n      dup3\n      dup1\n      sload\n      tag_33\n      swap1\n      tag_32\n      jump\t// in\n    tag_33:\n      dup1\n      iszero\n      tag_34\n      jumpi\n      dup1\n      0x1f\n      lt\n      tag_35\n      jumpi\n      0x0100\n      dup1\n      dup4\n      sload\n      div\n      mul\n      dup4\n      mstore\n      swap2\n      0x20\n      add\n      swap2\n      jump(tag_34)\n    tag_35:\n      dup3\n      add\n      swap2\n      swap1\n      0x00\n      mstore\n      keccak256(0x00, 0x20)\n      swap1\n    tag_36:\n      dup2\n      sload\n      dup2\n      mstore\n      swap1\n      0x01\n      add\n      swap1\n      0x20\n      add\n      dup1\n      dup4\n      gt\n      tag_36\n      jumpi\n      dup3\n      swap1\n      sub\n      0x1f\n      and\n      dup3\n      add\n      swap2\n    tag_34:\n      pop\n      pop\n      pop\n      pop\n      pop\n      dup2\n      mstore\n      pop\n      pop\n      swap1\n      pop\n        /* \"contracts/Lesson5Types.sol\":1165:1305  function getPayment(address _addr, uint _index) public view returns(Payment memory) {... */\n      swap3\n      swap2\n      pop\n      pop\n      jump\t// out\n    tag_27:\n      dup3\n      dup1\n      sload\n      tag_37\n      swap1\n      tag_32\n      jump\t// in\n    tag_37:\n      swap1\n      0x00\n      mstore\n      keccak256(0x00, 0x20)\n      swap1\n      0x1f\n      add\n      0x20\n      swap1\n      div\n      dup2\n      add\n      swap3\n      dup3\n      tag_39\n      jumpi\n      0x00\n      dup6\n      sstore\n      jump(tag_38)\n    tag_39:\n      dup3\n      0x1f\n      lt\n      tag_40\n      jumpi\n      dup1\n      mload\n      not(0xff)\n      and\n      dup4\n      dup1\n      add\n      or\n      dup6\n      sstore\n      jump(tag_38)\n    tag_40:\n      dup3\n      dup1\n      add\n      0x01\n      add\n      dup6\n      sstore\n      dup3\n      iszero\n      tag_38\n      jumpi\n      swap2\n      dup3\n      add\n    tag_41:\n      dup3\n      dup2\n      gt\n      iszero\n      tag_42\n      jumpi\n      dup3\n      mload\n      dup3\n      sstore\n      swap2\n      0x20\n      add\n      swap2\n      swap1\n      0x01\n      add\n      swap1\n      jump(tag_41)\n    tag_42:\n    tag_38:\n      pop\n      swap1\n      pop\n      tag_43\n      swap2\n      swap1\n      tag_44\n      jump\t// in\n    tag_43:\n      pop\n      swap1\n      jump\t// out\n    tag_29:\n      mload(0x40)\n      dup1\n      0x80\n      add\n      0x40\n      mstore\n      dup1\n      0x00\n      dup2\n      mstore\n      0x20\n      add\n      0x00\n      dup2\n      mstore\n      0x20\n      add\n      and(0xffffffffffffffffffffffffffffffffffffffff, 0x00)\n      dup2\n      mstore\n      0x20\n      add\n      0x60\n      dup2\n      mstore\n      pop\n      swap1\n      jump\t// out\n    tag_44:\n    tag_45:\n      dup1\n      dup3\n      gt\n      iszero\n      tag_46\n      jumpi\n      0x00\n      dup2\n      0x00\n      swap1\n      sstore\n      pop\n      0x01\n      add\n      jump(tag_45)\n    tag_46:\n      pop\n      swap1\n      jump\t// out\n        /* \"#utility.yul\":7:419   */\n    tag_48:\n        /* \"#utility.yul\":85:90   */\n      0x00\n        /* \"#utility.yul\":110:176   */\n      tag_50\n        /* \"#utility.yul\":126:175   */\n      tag_51\n        /* \"#utility.yul\":168:174   */\n      dup5\n        /* \"#utility.yul\":126:175   */\n      tag_52\n      jump\t// in\n    tag_51:\n        /* \"#utility.yul\":110:176   */\n      tag_53\n      jump\t// in\n    tag_50:\n        /* \"#utility.yul\":101:176   */\n      swap1\n      pop\n        /* \"#utility.yul\":199:205   */\n      dup3\n        /* \"#utility.yul\":192:197   */\n      dup2\n        /* \"#utility.yul\":185:206   */\n      mstore\n        /* \"#utility.yul\":237:241   */\n      0x20\n        /* \"#utility.yul\":230:235   */\n      dup2\n        /* \"#utility.yul\":226:242   */\n      add\n        /* \"#utility.yul\":275:278   */\n      dup5\n        /* \"#utility.yul\":266:272   */\n      dup5\n        /* \"#utility.yul\":261:264   */\n      dup5\n        /* \"#utility.yul\":257:273   */\n      add\n        /* \"#utility.yul\":254:279   */\n      gt\n        /* \"#utility.yul\":251:363   */\n      iszero\n      tag_54\n      jumpi\n        /* \"#utility.yul\":282:361   */\n      tag_55\n      tag_56\n      jump\t// in\n    tag_55:\n        /* \"#utility.yul\":251:363   */\n    tag_54:\n        /* \"#utility.yul\":372:413   */\n      tag_57\n        /* \"#utility.yul\":406:412   */\n      dup5\n        /* \"#utility.yul\":401:404   */\n      dup3\n        /* \"#utility.yul\":396:399   */\n      dup6\n        /* \"#utility.yul\":372:413   */\n      tag_58\n      jump\t// in\n    tag_57:\n        /* \"#utility.yul\":91:419   */\n      pop\n        /* \"#utility.yul\":7:419   */\n      swap4\n      swap3\n      pop\n      pop\n      pop\n      jump\t// out\n        /* \"#utility.yul\":425:564   */\n    tag_59:\n        /* \"#utility.yul\":471:476   */\n      0x00\n        /* \"#utility.yul\":509:515   */\n      dup2\n        /* \"#utility.yul\":496:516   */\n      calldataload\n        /* \"#utility.yul\":487:516   */\n      swap1\n      pop\n        /* \"#utility.yul\":525:558   */\n      tag_61\n        /* \"#utility.yul\":552:557   */\n      dup2\n        /* \"#utility.yul\":525:558   */\n      tag_62\n      jump\t// in\n    tag_61:\n        /* \"#utility.yul\":425:564   */\n      swap3\n      swap2\n      pop\n      pop\n      jump\t// out\n        /* \"#utility.yul\":584:924   */\n    tag_63:\n        /* \"#utility.yul\":640:645   */\n      0x00\n        /* \"#utility.yul\":689:692   */\n      dup3\n        /* \"#utility.yul\":682:686   */\n      0x1f\n        /* \"#utility.yul\":674:680   */\n      dup4\n        /* \"#utility.yul\":670:687   */\n      add\n        /* \"#utility.yul\":666:693   */\n      slt\n        /* \"#utility.yul\":656:778   */\n      tag_65\n      jumpi\n        /* \"#utility.yul\":697:776   */\n      tag_66\n      tag_67\n      jump\t// in\n    tag_66:\n        /* \"#utility.yul\":656:778   */\n    tag_65:\n        /* \"#utility.yul\":814:820   */\n      dup2\n        /* \"#utility.yul\":801:821   */\n      calldataload\n        /* \"#utility.yul\":839:918   */\n      tag_68\n        /* \"#utility.yul\":914:917   */\n      dup5\n        /* \"#utility.yul\":906:912   */\n      dup3\n        /* \"#utility.yul\":899:903   */\n      0x20\n        /* \"#utility.yul\":891:897   */\n      dup7\n        /* \"#utility.yul\":887:904   */\n      add\n        /* \"#utility.yul\":839:918   */\n      tag_48\n      jump\t// in\n    tag_68:\n        /* \"#utility.yul\":830:918   */\n      swap2\n      pop\n        /* \"#utility.yul\":646:924   */\n      pop\n        /* \"#utility.yul\":584:924   */\n      swap3\n      swap2\n      pop\n      pop\n      jump\t// out\n        /* \"#utility.yul\":930:1069   */\n    tag_69:\n        /* \"#utility.yul\":976:981   */\n      0x00\n        /* \"#utility.yul\":1014:1020   */\n      dup2\n        /* \"#utility.yul\":1001:1021   */\n      calldataload\n        /* \"#utility.yul\":992:1021   */\n      swap1\n      pop\n        /* \"#utility.yul\":1030:1063   */\n      tag_71\n        /* \"#utility.yul\":1057:1062   */\n      dup2\n        /* \"#utility.yul\":1030:1063   */\n      tag_72\n      jump\t// in\n    tag_71:\n        /* \"#utility.yul\":930:1069   */\n      swap3\n      swap2\n      pop\n      pop\n      jump\t// out\n        /* \"#utility.yul\":1075:1404   */\n    tag_8:\n        /* \"#utility.yul\":1134:1140   */\n      0x00\n        /* \"#utility.yul\":1183:1185   */\n      0x20\n        /* \"#utility.yul\":1171:1180   */\n      dup3\n        /* \"#utility.yul\":1162:1169   */\n      dup5\n        /* \"#utility.yul\":1158:1181   */\n      sub\n        /* \"#utility.yul\":1154:1186   */\n      slt\n        /* \"#utility.yul\":1151:1270   */\n      iszero\n      tag_74\n      jumpi\n        /* \"#utility.yul\":1189:1268   */\n      tag_75\n      tag_76\n      jump\t// in\n    tag_75:\n        /* \"#utility.yul\":1151:1270   */\n    tag_74:\n        /* \"#utility.yul\":1309:1310   */\n      0x00\n        /* \"#utility.yul\":1334:1387   */\n      tag_77\n        /* \"#utility.yul\":1379:1386   */\n      dup5\n        /* \"#utility.yul\":1370:1376   */\n      dup3\n        /* \"#utility.yul\":1359:1368   */\n      dup6\n        /* \"#utility.yul\":1355:1377   */\n      add\n        /* \"#utility.yul\":1334:1387   */\n      tag_59\n      jump\t// in\n    tag_77:\n        /* \"#utility.yul\":1324:1387   */\n      swap2\n      pop\n        /* \"#utility.yul\":1280:1397   */\n      pop\n        /* \"#utility.yul\":1075:1404   */\n      swap3\n      swap2\n      pop\n      pop\n      jump\t// out\n        /* \"#utility.yul\":1410:1884   */\n    tag_19:\n        /* \"#utility.yul\":1478:1484   */\n      0x00\n        /* \"#utility.yul\":1486:1492   */\n      dup1\n        /* \"#utility.yul\":1535:1537   */\n      0x40\n        /* \"#utility.yul\":1523:1532   */\n      dup4\n        /* \"#utility.yul\":1514:1521   */\n      dup6\n        /* \"#utility.yul\":1510:1533   */\n      sub\n        /* \"#utility.yul\":1506:1538   */\n      slt\n        /* \"#utility.yul\":1503:1622   */\n      iszero\n      tag_79\n      jumpi\n        /* \"#utility.yul\":1541:1620   */\n      tag_80\n      tag_76\n      jump\t// in\n    tag_80:\n        /* \"#utility.yul\":1503:1622   */\n    tag_79:\n        /* \"#utility.yul\":1661:1662   */\n      0x00\n        /* \"#utility.yul\":1686:1739   */\n      tag_81\n        /* \"#utility.yul\":1731:1738   */\n      dup6\n        /* \"#utility.yul\":1722:1728   */\n      dup3\n        /* \"#utility.yul\":1711:1720   */\n      dup7\n        /* \"#utility.yul\":1707:1729   */\n      add\n        /* \"#utility.yul\":1686:1739   */\n      tag_59\n      jump\t// in\n    tag_81:\n        /* \"#utility.yul\":1676:1739   */\n      swap3\n      pop\n        /* \"#utility.yul\":1632:1749   */\n      pop\n        /* \"#utility.yul\":1788:1790   */\n      0x20\n        /* \"#utility.yul\":1814:1867   */\n      tag_82\n        /* \"#utility.yul\":1859:1866   */\n      dup6\n        /* \"#utility.yul\":1850:1856   */\n      dup3\n        /* \"#utility.yul\":1839:1848   */\n      dup7\n        /* \"#utility.yul\":1835:1857   */\n      add\n        /* \"#utility.yul\":1814:1867   */\n      tag_69\n      jump\t// in\n    tag_82:\n        /* \"#utility.yul\":1804:1867   */\n      swap2\n      pop\n        /* \"#utility.yul\":1759:1877   */\n      pop\n        /* \"#utility.yul\":1410:1884   */\n      swap3\n      pop\n      swap3\n      swap1\n      pop\n      jump\t// out\n        /* \"#utility.yul\":1890:2399   */\n    tag_14:\n        /* \"#utility.yul\":1959:1965   */\n      0x00\n        /* \"#utility.yul\":2008:2010   */\n      0x20\n        /* \"#utility.yul\":1996:2005   */\n      dup3\n        /* \"#utility.yul\":1987:1994   */\n      dup5\n        /* \"#utility.yul\":1983:2006   */\n      sub\n        /* \"#utility.yul\":1979:2011   */\n      slt\n        /* \"#utility.yul\":1976:2095   */\n      iszero\n      tag_84\n      jumpi\n        /* \"#utility.yul\":2014:2093   */\n      tag_85\n      tag_76\n      jump\t// in\n    tag_85:\n        /* \"#utility.yul\":1976:2095   */\n    tag_84:\n        /* \"#utility.yul\":2162:2163   */\n      0x00\n        /* \"#utility.yul\":2151:2160   */\n      dup3\n        /* \"#utility.yul\":2147:2164   */\n      add\n        /* \"#utility.yul\":2134:2165   */\n      calldataload\n        /* \"#utility.yul\":2192:2210   */\n      0xffffffffffffffff\n        /* \"#utility.yul\":2184:2190   */\n      dup2\n        /* \"#utility.yul\":2181:2211   */\n      gt\n        /* \"#utility.yul\":2178:2295   */\n      iszero\n      tag_86\n      jumpi\n        /* \"#utility.yul\":2214:2293   */\n      tag_87\n      tag_88\n      jump\t// in\n    tag_87:\n        /* \"#utility.yul\":2178:2295   */\n    tag_86:\n        /* \"#utility.yul\":2319:2382   */\n      tag_89\n        /* \"#utility.yul\":2374:2381   */\n      dup5\n        /* \"#utility.yul\":2365:2371   */\n      dup3\n        /* \"#utility.yul\":2354:2363   */\n      dup6\n        /* \"#utility.yul\":2350:2372   */\n      add\n        /* \"#utility.yul\":2319:2382   */\n      tag_63\n      jump\t// in\n    tag_89:\n        /* \"#utility.yul\":2309:2382   */\n      swap2\n      pop\n        /* \"#utility.yul\":2105:2392   */\n      pop\n        /* \"#utility.yul\":1890:2399   */\n      swap3\n      swap2\n      pop\n      pop\n      jump\t// out\n        /* \"#utility.yul\":2405:2513   */\n    tag_90:\n        /* \"#utility.yul\":2482:2506   */\n      tag_92\n        /* \"#utility.yul\":2500:2505   */\n      dup2\n        /* \"#utility.yul\":2482:2506   */\n      tag_93\n      jump\t// in\n    tag_92:\n        /* \"#utility.yul\":2477:2480   */\n      dup3\n        /* \"#utility.yul\":2470:2507   */\n      mstore\n        /* \"#utility.yul\":2405:2513   */\n      pop\n      pop\n      jump\t// out\n        /* \"#utility.yul\":2519:2863   */\n    tag_94:\n        /* \"#utility.yul\":2597:2600   */\n      0x00\n        /* \"#utility.yul\":2625:2664   */\n      tag_96\n        /* \"#utility.yul\":2658:2663   */\n      dup3\n        /* \"#utility.yul\":2625:2664   */\n      tag_97\n      jump\t// in\n    tag_96:\n        /* \"#utility.yul\":2680:2741   */\n      tag_98\n        /* \"#utility.yul\":2734:2740   */\n      dup2\n        /* \"#utility.yul\":2729:2732   */\n      dup6\n        /* \"#utility.yul\":2680:2741   */\n      tag_99\n      jump\t// in\n    tag_98:\n        /* \"#utility.yul\":2673:2741   */\n      swap4\n      pop\n        /* \"#utility.yul\":2750:2802   */\n      tag_100\n        /* \"#utility.yul\":2795:2801   */\n      dup2\n        /* \"#utility.yul\":2790:2793   */\n      dup6\n        /* \"#utility.yul\":2783:2787   */\n      0x20\n        /* \"#utility.yul\":2776:2781   */\n      dup7\n        /* \"#utility.yul\":2772:2788   */\n      add\n        /* \"#utility.yul\":2750:2802   */\n      tag_101\n      jump\t// in\n    tag_100:\n        /* \"#utility.yul\":2827:2856   */\n      tag_102\n        /* \"#utility.yul\":2849:2855   */\n      dup2\n        /* \"#utility.yul\":2827:2856   */\n      tag_103\n      jump\t// in\n    tag_102:\n        /* \"#utility.yul\":2822:2825   */\n      dup5\n        /* \"#utility.yul\":2818:2857   */\n      add\n        /* \"#utility.yul\":2811:2857   */\n      swap2\n      pop\n        /* \"#utility.yul\":2601:2863   */\n      pop\n        /* \"#utility.yul\":2519:2863   */\n      swap3\n      swap2\n      pop\n      pop\n      jump\t// out\n        /* \"#utility.yul\":2937:3897   */\n    tag_104:\n        /* \"#utility.yul\":3052:3055   */\n      0x00\n        /* \"#utility.yul\":3088:3092   */\n      0x80\n        /* \"#utility.yul\":3083:3086   */\n      dup4\n        /* \"#utility.yul\":3079:3093   */\n      add\n        /* \"#utility.yul\":3177:3181   */\n      0x00\n        /* \"#utility.yul\":3170:3175   */\n      dup4\n        /* \"#utility.yul\":3166:3182   */\n      add\n        /* \"#utility.yul\":3160:3183   */\n      mload\n        /* \"#utility.yul\":3196:3259   */\n      tag_106\n        /* \"#utility.yul\":3253:3257   */\n      0x00\n        /* \"#utility.yul\":3248:3251   */\n      dup7\n        /* \"#utility.yul\":3244:3258   */\n      add\n        /* \"#utility.yul\":3230:3242   */\n      dup3\n        /* \"#utility.yul\":3196:3259   */\n      tag_107\n      jump\t// in\n    tag_106:\n        /* \"#utility.yul\":3103:3269   */\n      pop\n        /* \"#utility.yul\":3356:3360   */\n      0x20\n        /* \"#utility.yul\":3349:3354   */\n      dup4\n        /* \"#utility.yul\":3345:3361   */\n      add\n        /* \"#utility.yul\":3339:3362   */\n      mload\n        /* \"#utility.yul\":3375:3438   */\n      tag_108\n        /* \"#utility.yul\":3432:3436   */\n      0x20\n        /* \"#utility.yul\":3427:3430   */\n      dup7\n        /* \"#utility.yul\":3423:3437   */\n      add\n        /* \"#utility.yul\":3409:3421   */\n      dup3\n        /* \"#utility.yul\":3375:3438   */\n      tag_107\n      jump\t// in\n    tag_108:\n        /* \"#utility.yul\":3279:3448   */\n      pop\n        /* \"#utility.yul\":3530:3534   */\n      0x40\n        /* \"#utility.yul\":3523:3528   */\n      dup4\n        /* \"#utility.yul\":3519:3535   */\n      add\n        /* \"#utility.yul\":3513:3536   */\n      mload\n        /* \"#utility.yul\":3549:3612   */\n      tag_109\n        /* \"#utility.yul\":3606:3610   */\n      0x40\n        /* \"#utility.yul\":3601:3604   */\n      dup7\n        /* \"#utility.yul\":3597:3611   */\n      add\n        /* \"#utility.yul\":3583:3595   */\n      dup3\n        /* \"#utility.yul\":3549:3612   */\n      tag_90\n      jump\t// in\n    tag_109:\n        /* \"#utility.yul\":3458:3622   */\n      pop\n        /* \"#utility.yul\":3707:3711   */\n      0x60\n        /* \"#utility.yul\":3700:3705   */\n      dup4\n        /* \"#utility.yul\":3696:3712   */\n      add\n        /* \"#utility.yul\":3690:3713   */\n      mload\n        /* \"#utility.yul\":3760:3763   */\n      dup5\n        /* \"#utility.yul\":3754:3758   */\n      dup3\n        /* \"#utility.yul\":3750:3764   */\n      sub\n        /* \"#utility.yul\":3743:3747   */\n      0x60\n        /* \"#utility.yul\":3738:3741   */\n      dup7\n        /* \"#utility.yul\":3734:3748   */\n      add\n        /* \"#utility.yul\":3727:3765   */\n      mstore\n        /* \"#utility.yul\":3786:3859   */\n      tag_110\n        /* \"#utility.yul\":3854:3858   */\n      dup3\n        /* \"#utility.yul\":3840:3852   */\n      dup3\n        /* \"#utility.yul\":3786:3859   */\n      tag_94\n      jump\t// in\n    tag_110:\n        /* \"#utility.yul\":3778:3859   */\n      swap2\n      pop\n        /* \"#utility.yul\":3632:3870   */\n      pop\n        /* \"#utility.yul\":3887:3891   */\n      dup1\n        /* \"#utility.yul\":3880:3891   */\n      swap2\n      pop\n        /* \"#utility.yul\":3057:3897   */\n      pop\n        /* \"#utility.yul\":2937:3897   */\n      swap3\n      swap2\n      pop\n      pop\n      jump\t// out\n        /* \"#utility.yul\":3903:4011   */\n    tag_107:\n        /* \"#utility.yul\":3980:4004   */\n      tag_112\n        /* \"#utility.yul\":3998:4003   */\n      dup2\n        /* \"#utility.yul\":3980:4004   */\n      tag_113\n      jump\t// in\n    tag_112:\n        /* \"#utility.yul\":3975:3978   */\n      dup3\n        /* \"#utility.yul\":3968:4005   */\n      mstore\n        /* \"#utility.yul\":3903:4011   */\n      pop\n      pop\n      jump\t// out\n        /* \"#utility.yul\":4017:4135   */\n    tag_114:\n        /* \"#utility.yul\":4104:4128   */\n      tag_116\n        /* \"#utility.yul\":4122:4127   */\n      dup2\n        /* \"#utility.yul\":4104:4128   */\n      tag_113\n      jump\t// in\n    tag_116:\n        /* \"#utility.yul\":4099:4102   */\n      dup3\n        /* \"#utility.yul\":4092:4129   */\n      mstore\n        /* \"#utility.yul\":4017:4135   */\n      pop\n      pop\n      jump\t// out\n        /* \"#utility.yul\":4141:4506   */\n    tag_22:\n        /* \"#utility.yul\":4280:4284   */\n      0x00\n        /* \"#utility.yul\":4318:4320   */\n      0x20\n        /* \"#utility.yul\":4307:4316   */\n      dup3\n        /* \"#utility.yul\":4303:4321   */\n      add\n        /* \"#utility.yul\":4295:4321   */\n      swap1\n      pop\n        /* \"#utility.yul\":4367:4376   */\n      dup2\n        /* \"#utility.yul\":4361:4365   */\n      dup2\n        /* \"#utility.yul\":4357:4377   */\n      sub\n        /* \"#utility.yul\":4353:4354   */\n      0x00\n        /* \"#utility.yul\":4342:4351   */\n      dup4\n        /* \"#utility.yul\":4338:4355   */\n      add\n        /* \"#utility.yul\":4331:4378   */\n      mstore\n        /* \"#utility.yul\":4395:4499   */\n      tag_118\n        /* \"#utility.yul\":4494:4498   */\n      dup2\n        /* \"#utility.yul\":4485:4491   */\n      dup5\n        /* \"#utility.yul\":4395:4499   */\n      tag_104\n      jump\t// in\n    tag_118:\n        /* \"#utility.yul\":4387:4499   */\n      swap1\n      pop\n        /* \"#utility.yul\":4141:4506   */\n      swap3\n      swap2\n      pop\n      pop\n      jump\t// out\n        /* \"#utility.yul\":4512:4734   */\n    tag_11:\n        /* \"#utility.yul\":4605:4609   */\n      0x00\n        /* \"#utility.yul\":4643:4645   */\n      0x20\n        /* \"#utility.yul\":4632:4641   */\n      dup3\n        /* \"#utility.yul\":4628:4646   */\n      add\n        /* \"#utility.yul\":4620:4646   */\n      swap1\n      pop\n        /* \"#utility.yul\":4656:4727   */\n      tag_120\n        /* \"#utility.yul\":4724:4725   */\n      0x00\n        /* \"#utility.yul\":4713:4722   */\n      dup4\n        /* \"#utility.yul\":4709:4726   */\n      add\n        /* \"#utility.yul\":4700:4706   */\n      dup5\n        /* \"#utility.yul\":4656:4727   */\n      tag_114\n      jump\t// in\n    tag_120:\n        /* \"#utility.yul\":4512:4734   */\n      swap3\n      swap2\n      pop\n      pop\n      jump\t// out\n        /* \"#utility.yul\":4740:4869   */\n    tag_53:\n        /* \"#utility.yul\":4774:4780   */\n      0x00\n        /* \"#utility.yul\":4801:4821   */\n      tag_122\n      tag_123\n      jump\t// in\n    tag_122:\n        /* \"#utility.yul\":4791:4821   */\n      swap1\n      pop\n        /* \"#utility.yul\":4830:4863   */\n      tag_124\n        /* \"#utility.yul\":4858:4862   */\n      dup3\n        /* \"#utility.yul\":4850:4856   */\n      dup3\n        /* \"#utility.yul\":4830:4863   */\n      tag_125\n      jump\t// in\n    tag_124:\n        /* \"#utility.yul\":4740:4869   */\n      swap2\n      swap1\n      pop\n      jump\t// out\n        /* \"#utility.yul\":4875:4950   */\n    tag_123:\n        /* \"#utility.yul\":4908:4914   */\n      0x00\n        /* \"#utility.yul\":4941:4943   */\n      0x40\n        /* \"#utility.yul\":4935:4944   */\n      mload\n        /* \"#utility.yul\":4925:4944   */\n      swap1\n      pop\n        /* \"#utility.yul\":4875:4950   */\n      swap1\n      jump\t// out\n        /* \"#utility.yul\":4956:5264   */\n    tag_52:\n        /* \"#utility.yul\":5018:5022   */\n      0x00\n        /* \"#utility.yul\":5108:5126   */\n      0xffffffffffffffff\n        /* \"#utility.yul\":5100:5106   */\n      dup3\n        /* \"#utility.yul\":5097:5127   */\n      gt\n        /* \"#utility.yul\":5094:5150   */\n      iszero\n      tag_128\n      jumpi\n        /* \"#utility.yul\":5130:5148   */\n      tag_129\n      tag_130\n      jump\t// in\n    tag_129:\n        /* \"#utility.yul\":5094:5150   */\n    tag_128:\n        /* \"#utility.yul\":5168:5197   */\n      tag_131\n        /* \"#utility.yul\":5190:5196   */\n      dup3\n        /* \"#utility.yul\":5168:5197   */\n      tag_103\n      jump\t// in\n    tag_131:\n        /* \"#utility.yul\":5160:5197   */\n      swap1\n      pop\n        /* \"#utility.yul\":5252:5256   */\n      0x20\n        /* \"#utility.yul\":5246:5250   */\n      dup2\n        /* \"#utility.yul\":5242:5257   */\n      add\n        /* \"#utility.yul\":5234:5257   */\n      swap1\n      pop\n        /* \"#utility.yul\":4956:5264   */\n      swap2\n      swap1\n      pop\n      jump\t// out\n        /* \"#utility.yul\":5270:5369   */\n    tag_97:\n        /* \"#utility.yul\":5322:5328   */\n      0x00\n        /* \"#utility.yul\":5356:5361   */\n      dup2\n        /* \"#utility.yul\":5350:5362   */\n      mload\n        /* \"#utility.yul\":5340:5362   */\n      swap1\n      pop\n        /* \"#utility.yul\":5270:5369   */\n      swap2\n      swap1\n      pop\n      jump\t// out\n        /* \"#utility.yul\":5375:5534   */\n    tag_99:\n        /* \"#utility.yul\":5449:5460   */\n      0x00\n        /* \"#utility.yul\":5483:5489   */\n      dup3\n        /* \"#utility.yul\":5478:5481   */\n      dup3\n        /* \"#utility.yul\":5471:5490   */\n      mstore\n        /* \"#utility.yul\":5523:5527   */\n      0x20\n        /* \"#utility.yul\":5518:5521   */\n      dup3\n        /* \"#utility.yul\":5514:5528   */\n      add\n        /* \"#utility.yul\":5499:5528   */\n      swap1\n      pop\n        /* \"#utility.yul\":5375:5534   */\n      swap3\n      swap2\n      pop\n      pop\n      jump\t// out\n        /* \"#utility.yul\":5540:5636   */\n    tag_93:\n        /* \"#utility.yul\":5577:5584   */\n      0x00\n        /* \"#utility.yul\":5606:5630   */\n      tag_135\n        /* \"#utility.yul\":5624:5629   */\n      dup3\n        /* \"#utility.yul\":5606:5630   */\n      tag_136\n      jump\t// in\n    tag_135:\n        /* \"#utility.yul\":5595:5630   */\n      swap1\n      pop\n        /* \"#utility.yul\":5540:5636   */\n      swap2\n      swap1\n      pop\n      jump\t// out\n        /* \"#utility.yul\":5642:5768   */\n    tag_136:\n        /* \"#utility.yul\":5679:5686   */\n      0x00\n        /* \"#utility.yul\":5719:5761   */\n      0xffffffffffffffffffffffffffffffffffffffff\n        /* \"#utility.yul\":5712:5717   */\n      dup3\n        /* \"#utility.yul\":5708:5762   */\n      and\n        /* \"#utility.yul\":5697:5762   */\n      swap1\n      pop\n        /* \"#utility.yul\":5642:5768   */\n      swap2\n      swap1\n      pop\n      jump\t// out\n        /* \"#utility.yul\":5774:5851   */\n    tag_113:\n        /* \"#utility.yul\":5811:5818   */\n      0x00\n        /* \"#utility.yul\":5840:5845   */\n      dup2\n        /* \"#utility.yul\":5829:5845   */\n      swap1\n      pop\n        /* \"#utility.yul\":5774:5851   */\n      swap2\n      swap1\n      pop\n      jump\t// out\n        /* \"#utility.yul\":5857:6011   */\n    tag_58:\n        /* \"#utility.yul\":5941:5947   */\n      dup3\n        /* \"#utility.yul\":5936:5939   */\n      dup2\n        /* \"#utility.yul\":5931:5934   */\n      dup4\n        /* \"#utility.yul\":5918:5948   */\n      calldatacopy\n        /* \"#utility.yul\":6003:6004   */\n      0x00\n        /* \"#utility.yul\":5994:6000   */\n      dup4\n        /* \"#utility.yul\":5989:5992   */\n      dup4\n        /* \"#utility.yul\":5985:6001   */\n      add\n        /* \"#utility.yul\":5978:6005   */\n      mstore\n        /* \"#utility.yul\":5857:6011   */\n      pop\n      pop\n      pop\n      jump\t// out\n        /* \"#utility.yul\":6017:6324   */\n    tag_101:\n        /* \"#utility.yul\":6085:6086   */\n      0x00\n        /* \"#utility.yul\":6095:6208   */\n    tag_141:\n        /* \"#utility.yul\":6109:6115   */\n      dup4\n        /* \"#utility.yul\":6106:6107   */\n      dup2\n        /* \"#utility.yul\":6103:6116   */\n      lt\n        /* \"#utility.yul\":6095:6208   */\n      iszero\n      tag_143\n      jumpi\n        /* \"#utility.yul\":6194:6195   */\n      dup1\n        /* \"#utility.yul\":6189:6192   */\n      dup3\n        /* \"#utility.yul\":6185:6196   */\n      add\n        /* \"#utility.yul\":6179:6197   */\n      mload\n        /* \"#utility.yul\":6175:6176   */\n      dup2\n        /* \"#utility.yul\":6170:6173   */\n      dup5\n        /* \"#utility.yul\":6166:6177   */\n      add\n        /* \"#utility.yul\":6159:6198   */\n      mstore\n        /* \"#utility.yul\":6131:6133   */\n      0x20\n        /* \"#utility.yul\":6128:6129   */\n      dup2\n        /* \"#utility.yul\":6124:6134   */\n      add\n        /* \"#utility.yul\":6119:6134   */\n      swap1\n      pop\n        /* \"#utility.yul\":6095:6208   */\n      jump(tag_141)\n    tag_143:\n        /* \"#utility.yul\":6226:6232   */\n      dup4\n        /* \"#utility.yul\":6223:6224   */\n      dup2\n        /* \"#utility.yul\":6220:6233   */\n      gt\n        /* \"#utility.yul\":6217:6318   */\n      iszero\n      tag_144\n      jumpi\n        /* \"#utility.yul\":6306:6307   */\n      0x00\n        /* \"#utility.yul\":6297:6303   */\n      dup5\n        /* \"#utility.yul\":6292:6295   */\n      dup5\n        /* \"#utility.yul\":6288:6304   */\n      add\n        /* \"#utility.yul\":6281:6308   */\n      mstore\n        /* \"#utility.yul\":6217:6318   */\n    tag_144:\n        /* \"#utility.yul\":6066:6324   */\n      pop\n        /* \"#utility.yul\":6017:6324   */\n      pop\n      pop\n      pop\n      jump\t// out\n        /* \"#utility.yul\":6330:6650   */\n    tag_32:\n        /* \"#utility.yul\":6374:6380   */\n      0x00\n        /* \"#utility.yul\":6411:6412   */\n      0x02\n        /* \"#utility.yul\":6405:6409   */\n      dup3\n        /* \"#utility.yul\":6401:6413   */\n      div\n        /* \"#utility.yul\":6391:6413   */\n      swap1\n      pop\n        /* \"#utility.yul\":6458:6459   */\n      0x01\n        /* \"#utility.yul\":6452:6456   */\n      dup3\n        /* \"#utility.yul\":6448:6460   */\n      and\n        /* \"#utility.yul\":6479:6497   */\n      dup1\n        /* \"#utility.yul\":6469:6550   */\n      tag_146\n      jumpi\n        /* \"#utility.yul\":6535:6539   */\n      0x7f\n        /* \"#utility.yul\":6527:6533   */\n      dup3\n        /* \"#utility.yul\":6523:6540   */\n      and\n        /* \"#utility.yul\":6513:6540   */\n      swap2\n      pop\n        /* \"#utility.yul\":6469:6550   */\n    tag_146:\n        /* \"#utility.yul\":6597:6599   */\n      0x20\n        /* \"#utility.yul\":6589:6595   */\n      dup3\n        /* \"#utility.yul\":6586:6600   */\n      lt\n        /* \"#utility.yul\":6566:6584   */\n      dup2\n        /* \"#utility.yul\":6563:6601   */\n      eq\n        /* \"#utility.yul\":6560:6644   */\n      iszero\n      tag_147\n      jumpi\n        /* \"#utility.yul\":6616:6634   */\n      tag_148\n      tag_149\n      jump\t// in\n    tag_148:\n        /* \"#utility.yul\":6560:6644   */\n    tag_147:\n        /* \"#utility.yul\":6381:6650   */\n      pop\n        /* \"#utility.yul\":6330:6650   */\n      swap2\n      swap1\n      pop\n      jump\t// out\n        /* \"#utility.yul\":6656:6937   */\n    tag_125:\n        /* \"#utility.yul\":6739:6766   */\n      tag_151\n        /* \"#utility.yul\":6761:6765   */\n      dup3\n        /* \"#utility.yul\":6739:6766   */\n      tag_103\n      jump\t// in\n    tag_151:\n        /* \"#utility.yul\":6731:6737   */\n      dup2\n        /* \"#utility.yul\":6727:6767   */\n      add\n        /* \"#utility.yul\":6869:6875   */\n      dup2\n        /* \"#utility.yul\":6857:6867   */\n      dup2\n        /* \"#utility.yul\":6854:6876   */\n      lt\n        /* \"#utility.yul\":6833:6851   */\n      0xffffffffffffffff\n        /* \"#utility.yul\":6821:6831   */\n      dup3\n        /* \"#utility.yul\":6818:6852   */\n      gt\n        /* \"#utility.yul\":6815:6877   */\n      or\n        /* \"#utility.yul\":6812:6900   */\n      iszero\n      tag_152\n      jumpi\n        /* \"#utility.yul\":6880:6898   */\n      tag_153\n      tag_130\n      jump\t// in\n    tag_153:\n        /* \"#utility.yul\":6812:6900   */\n    tag_152:\n        /* \"#utility.yul\":6920:6930   */\n      dup1\n        /* \"#utility.yul\":6916:6918   */\n      0x40\n        /* \"#utility.yul\":6909:6931   */\n      mstore\n        /* \"#utility.yul\":6699:6937   */\n      pop\n        /* \"#utility.yul\":6656:6937   */\n      pop\n      pop\n      jump\t// out\n        /* \"#utility.yul\":6943:7176   */\n    tag_25:\n        /* \"#utility.yul\":6982:6985   */\n      0x00\n        /* \"#utility.yul\":7005:7029   */\n      tag_155\n        /* \"#utility.yul\":7023:7028   */\n      dup3\n        /* \"#utility.yul\":7005:7029   */\n      tag_113\n      jump\t// in\n    tag_155:\n        /* \"#utility.yul\":6996:7029   */\n      swap2\n      pop\n        /* \"#utility.yul\":7051:7117   */\n      0xffffffffffffffffffffffffffffffffffffffffffffffffffffffffffffffff\n        /* \"#utility.yul\":7044:7049   */\n      dup3\n        /* \"#utility.yul\":7041:7118   */\n      eq\n        /* \"#utility.yul\":7038:7141   */\n      iszero\n      tag_156\n      jumpi\n        /* \"#utility.yul\":7121:7139   */\n      tag_157\n      tag_158\n      jump\t// in\n    tag_157:\n        /* \"#utility.yul\":7038:7141   */\n    tag_156:\n        /* \"#utility.yul\":7168:7169   */\n      0x01\n        /* \"#utility.yul\":7161:7166   */\n      dup3\n        /* \"#utility.yul\":7157:7170   */\n      add\n        /* \"#utility.yul\":7150:7170   */\n      swap1\n      pop\n        /* \"#utility.yul\":6943:7176   */\n      swap2\n      swap1\n      pop\n      jump\t// out\n        /* \"#utility.yul\":7182:7362   */\n    tag_158:\n        /* \"#utility.yul\":7230:7307   */\n      0x4e487b7100000000000000000000000000000000000000000000000000000000\n        /* \"#utility.yul\":7227:7228   */\n      0x00\n        /* \"#utility.yul\":7220:7308   */\n      mstore\n        /* \"#utility.yul\":7327:7331   */\n      0x11\n        /* \"#utility.yul\":7324:7325   */\n      0x04\n        /* \"#utility.yul\":7317:7332   */\n      mstore\n        /* \"#utility.yul\":7351:7355   */\n      0x24\n        /* \"#utility.yul\":7348:7349   */\n      0x00\n        /* \"#utility.yul\":7341:7356   */\n      revert\n        /* \"#utility.yul\":7368:7548   */\n    tag_149:\n        /* \"#utility.yul\":7416:7493   */\n      0x4e487b7100000000000000000000000000000000000000000000000000000000\n        /* \"#utility.yul\":7413:7414   */\n      0x00\n        /* \"#utility.yul\":7406:7494   */\n      mstore\n        /* \"#utility.yul\":7513:7517   */\n      0x22\n        /* \"#utility.yul\":7510:7511   */\n      0x04\n        /* \"#utility.yul\":7503:7518   */\n      mstore\n        /* \"#utility.yul\":7537:7541   */\n      0x24\n        /* \"#utility.yul\":7534:7535   */\n      0x00\n        /* \"#utility.yul\":7527:7542   */\n      revert\n        /* \"#utility.yul\":7554:7734   */\n    tag_130:\n        /* \"#utility.yul\":7602:7679   */\n      0x4e487b7100000000000000000000000000000000000000000000000000000000\n        /* \"#utility.yul\":7599:7600   */\n      0x00\n        /* \"#utility.yul\":7592:7680   */\n      mstore\n        /* \"#utility.yul\":7699:7703   */\n      0x41\n        /* \"#utility.yul\":7696:7697   */\n      0x04\n        /* \"#utility.yul\":7689:7704   */\n      mstore\n        /* \"#utility.yul\":7723:7727   */\n      0x24\n        /* \"#utility.yul\":7720:7721   */\n      0x00\n        /* \"#utility.yul\":7713:7728   */\n      revert\n        /* \"#utility.yul\":7740:7857   */\n    tag_67:\n        /* \"#utility.yul\":7849:7850   */\n      0x00\n        /* \"#utility.yul\":7846:7847   */\n      dup1\n        /* \"#utility.yul\":7839:7851   */\n      revert\n        /* \"#utility.yul\":7863:7980   */\n    tag_56:\n        /* \"#utility.yul\":7972:7973   */\n      0x00\n        /* \"#utility.yul\":7969:7970   */\n      dup1\n        /* \"#utility.yul\":7962:7974   */\n      revert\n        /* \"#utility.yul\":7986:8103   */\n    tag_88:\n        /* \"#utility.yul\":8095:8096   */\n      0x00\n        /* \"#utility.yul\":8092:8093   */\n      dup1\n        /* \"#utility.yul\":8085:8097   */\n      revert\n        /* \"#utility.yul\":8109:8226   */\n    tag_76:\n        /* \"#utility.yul\":8218:8219   */\n      0x00\n        /* \"#utility.yul\":8215:8216   */\n      dup1\n        /* \"#utility.yul\":8208:8220   */\n      revert\n        /* \"#utility.yul\":8232:8334   */\n    tag_103:\n        /* \"#utility.yul\":8273:8279   */\n      0x00\n        /* \"#utility.yul\":8324:8326   */\n      0x1f\n        /* \"#utility.yul\":8320:8327   */\n      not\n        /* \"#utility.yul\":8315:8317   */\n      0x1f\n        /* \"#utility.yul\":8308:8313   */\n      dup4\n        /* \"#utility.yul\":8304:8318   */\n      add\n        /* \"#utility.yul\":8300:8328   */\n      and\n        /* \"#utility.yul\":8290:8328   */\n      swap1\n      pop\n        /* \"#utility.yul\":8232:8334   */\n      swap2\n      swap1\n      pop\n      jump\t// out\n        /* \"#utility.yul\":8340:8462   */\n    tag_62:\n        /* \"#utility.yul\":8413:8437   */\n      tag_168\n        /* \"#utility.yul\":8431:8436   */\n      dup2\n        /* \"#utility.yul\":8413:8437   */\n      tag_93\n      jump\t// in\n    tag_168:\n        /* \"#utility.yul\":8406:8411   */\n      dup2\n        /* \"#utility.yul\":8403:8438   */\n      eq\n        /* \"#utility.yul\":8393:8456   */\n      tag_169\n      jumpi\n        /* \"#utility.yul\":8452:8453   */\n      0x00\n        /* \"#utility.yul\":8449:8450   */\n      dup1\n        /* \"#utility.yul\":8442:8454   */\n      revert\n        /* \"#utility.yul\":8393:8456   */\n    tag_169:\n        /* \"#utility.yul\":8340:8462   */\n      pop\n      jump\t// out\n        /* \"#utility.yul\":8468:8590   */\n    tag_72:\n        /* \"#utility.yul\":8541:8565   */\n      tag_171\n        /* \"#utility.yul\":8559:8564   */\n      dup2\n        /* \"#utility.yul\":8541:8565   */\n      tag_113\n      jump\t// in\n    tag_171:\n        /* \"#utility.yul\":8534:8539   */\n      dup2\n        /* \"#utility.yul\":8531:8566   */\n      eq\n        /* \"#utility.yul\":8521:8584   */\n      tag_172\n      jumpi\n        /* \"#utility.yul\":8580:8581   */\n      0x00\n        /* \"#utility.yul\":8577:8578   */\n      dup1\n        /* \"#utility.yul\":8570:8582   */\n      revert\n        /* \"#utility.yul\":8521:8584   */\n    tag_172:\n        /* \"#utility.yul\":8468:8590   */\n      pop\n      jump\t// out\n\n    auxdata: 0xa264697066735822122041c193c001a903a73fa398b16dc80568c2ace1cf17bface0de8013a15f0e78e464736f6c63430008070033\n}\n",
				"bytecode": {
					"linkReferences": {},
					"object": "608060405234801561001057600080fd5b506109e4806100206000396000f3fe6080604052600436106100345760003560e01c806327e235e3146100395780632b66d72e14610076578063977a767c14610092575b600080fd5b34801561004557600080fd5b50610060600480360381019061005b9190610576565b6100cf565b60405161006d9190610717565b60405180910390f35b610090600480360381019061008b91906105e3565b6100ed565b005b34801561009e57600080fd5b506100b960048036038101906100b491906105a3565b610292565b6040516100c691906106f5565b60405180910390f35b60006020528060005260406000206000915090508060000154905081565b6000803373ffffffffffffffffffffffffffffffffffffffff1673ffffffffffffffffffffffffffffffffffffffff168152602001908152602001600020600001600081548092919061013f90610885565b9190505550600060405180608001604052803481526020014281526020013373ffffffffffffffffffffffffffffffffffffffff168152602001838152509050806000803373ffffffffffffffffffffffffffffffffffffffff1673ffffffffffffffffffffffffffffffffffffffff16815260200190815260200160002060010160008060003373ffffffffffffffffffffffffffffffffffffffff1673ffffffffffffffffffffffffffffffffffffffff168152602001908152602001600020600001548152602001908152602001600020600082015181600001556020820151816001015560408201518160020160006101000a81548173ffffffffffffffffffffffffffffffffffffffff021916908373ffffffffffffffffffffffffffffffffffffffff160217905550606082015181600301908051906020019061028a9291906103fb565b509050505050565b61029a610481565b6000808473ffffffffffffffffffffffffffffffffffffffff1673ffffffffffffffffffffffffffffffffffffffff168152602001908152602001600020600101600083815260200190815260200160002060405180608001604052908160008201548152602001600182015481526020016002820160009054906101000a900473ffffffffffffffffffffffffffffffffffffffff1673ffffffffffffffffffffffffffffffffffffffff1673ffffffffffffffffffffffffffffffffffffffff16815260200160038201805461037190610822565b80601f016020809104026020016040519081016040528092919081815260200182805461039d90610822565b80156103ea5780601f106103bf576101008083540402835291602001916103ea565b820191906000526020600020905b8154815290600101906020018083116103cd57829003601f168201915b505050505081525050905092915050565b82805461040790610822565b90600052602060002090601f0160209004810192826104295760008555610470565b82601f1061044257805160ff1916838001178555610470565b82800160010185558215610470579182015b8281111561046f578251825591602001919060010190610454565b5b50905061047d91906104bf565b5090565b60405180608001604052806000815260200160008152602001600073ffffffffffffffffffffffffffffffffffffffff168152602001606081525090565b5b808211156104d85760008160009055506001016104c0565b5090565b60006104ef6104ea84610757565b610732565b90508281526020810184848401111561050b5761050a610960565b5b6105168482856107e0565b509392505050565b60008135905061052d81610980565b92915050565b600082601f8301126105485761054761095b565b5b81356105588482602086016104dc565b91505092915050565b60008135905061057081610997565b92915050565b60006020828403121561058c5761058b61096a565b5b600061059a8482850161051e565b91505092915050565b600080604083850312156105ba576105b961096a565b5b60006105c88582860161051e565b92505060206105d985828601610561565b9150509250929050565b6000602082840312156105f9576105f861096a565b5b600082013567ffffffffffffffff81111561061757610616610965565b5b61062384828501610533565b91505092915050565b610635816107a4565b82525050565b600061064682610788565b6106508185610793565b93506106608185602086016107ef565b6106698161096f565b840191505092915050565b600060808301600083015161068c60008601826106d7565b50602083015161069f60208601826106d7565b5060408301516106b2604086018261062c565b50606083015184820360608601526106ca828261063b565b9150508091505092915050565b6106e0816107d6565b82525050565b6106ef816107d6565b82525050565b6000602082019050818103600083015261070f8184610674565b905092915050565b600060208201905061072c60008301846106e6565b92915050565b600061073c61074d565b90506107488282610854565b919050565b6000604051905090565b600067ffffffffffffffff8211156107725761077161092c565b5b61077b8261096f565b9050602081019050919050565b600081519050919050565b600082825260208201905092915050565b60006107af826107b6565b9050919050565b600073ffffffffffffffffffffffffffffffffffffffff82169050919050565b6000819050919050565b82818337600083830152505050565b60005b8381101561080d5780820151818401526020810190506107f2565b8381111561081c576000848401525b50505050565b6000600282049050600182168061083a57607f821691505b6020821081141561084e5761084d6108fd565b5b50919050565b61085d8261096f565b810181811067ffffffffffffffff8211171561087c5761087b61092c565b5b80604052505050565b6000610890826107d6565b91507fffffffffffffffffffffffffffffffffffffffffffffffffffffffffffffffff8214156108c3576108c26108ce565b5b600182019050919050565b7f4e487b7100000000000000000000000000000000000000000000000000000000600052601160045260246000fd5b7f4e487b7100000000000000000000000000000000000000000000000000000000600052602260045260246000fd5b7f4e487b7100000000000000000000000000000000000000000000000000000000600052604160045260246000fd5b600080fd5b600080fd5b600080fd5b600080fd5b6000601f19601f8301169050919050565b610989816107a4565b811461099457600080fd5b50565b6109a0816107d6565b81146109ab57600080fd5b5056fea264697066735822122041c193c001a903a73fa398b16dc80568c2ace1cf17bface0de8013a15f0e78e464736f6c63430008070033",
					"opcodes": "PUSH1 0x80 PUSH1 0x40 MSTORE CALLVALUE DUP1 ISZERO PUSH2 0x10 JUMPI PUSH1 0x0 DUP1 REVERT JUMPDEST POP PUSH2 0x9E4 DUP1 PUSH2 0x20 PUSH1 0x0 CODECOPY PUSH1 0x0 RETURN INVALID PUSH1 0x80 PUSH1 0x40 MSTORE PUSH1 0x4 CALLDATASIZE LT PUSH2 0x34 JUMPI PUSH1 0x0 CALLDATALOAD PUSH1 0xE0 SHR DUP1 PUSH4 0x27E235E3 EQ PUSH2 0x39 JUMPI DUP1 PUSH4 0x2B66D72E EQ PUSH2 0x76 JUMPI DUP1 PUSH4 0x977A767C EQ PUSH2 0x92 JUMPI JUMPDEST PUSH1 0x0 DUP1 REVERT JUMPDEST CALLVALUE DUP1 ISZERO PUSH2 0x45 JUMPI PUSH1 0x0 DUP1 REVERT JUMPDEST POP PUSH2 0x60 PUSH1 0x4 DUP1 CALLDATASIZE SUB DUP2 ADD SWAP1 PUSH2 0x5B SWAP2 SWAP1 PUSH2 0x576 JUMP JUMPDEST PUSH2 0xCF JUMP JUMPDEST PUSH1 0x40 MLOAD PUSH2 0x6D SWAP2 SWAP1 PUSH2 0x717 JUMP JUMPDEST PUSH1 0x40 MLOAD DUP1 SWAP2 SUB SWAP1 RETURN JUMPDEST PUSH2 0x90 PUSH1 0x4 DUP1 CALLDATASIZE SUB DUP2 ADD SWAP1 PUSH2 0x8B SWAP2 SWAP1 PUSH2 0x5E3 JUMP JUMPDEST PUSH2 0xED JUMP JUMPDEST STOP JUMPDEST CALLVALUE DUP1 ISZERO PUSH2 0x9E JUMPI PUSH1 0x0 DUP1 REVERT JUMPDEST POP PUSH2 0xB9 PUSH1 0x4 DUP1 CALLDATASIZE SUB DUP2 ADD SWAP1 PUSH2 0xB4 SWAP2 SWAP1 PUSH2 0x5A3 JUMP JUMPDEST PUSH2 0x292 JUMP JUMPDEST PUSH1 0x40 MLOAD PUSH2 0xC6 SWAP2 SWAP1 PUSH2 0x6F5 JUMP JUMPDEST PUSH1 0x40 MLOAD DUP1 SWAP2 SUB SWAP1 RETURN JUMPDEST PUSH1 0x0 PUSH1 0x20 MSTORE DUP1 PUSH1 0x0 MSTORE PUSH1 0x40 PUSH1 0x0 KECCAK256 PUSH1 0x0 SWAP2 POP SWAP1 POP DUP1 PUSH1 0x0 ADD SLOAD SWAP1 POP DUP2 JUMP JUMPDEST PUSH1 0x0 DUP1 CALLER PUSH20 0xFFFFFFFFFFFFFFFFFFFFFFFFFFFFFFFFFFFFFFFF AND PUSH20 0xFFFFFFFFFFFFFFFFFFFFFFFFFFFFFFFFFFFFFFFF AND DUP2 MSTORE PUSH1 0x20 ADD SWAP1 DUP2 MSTORE PUSH1 0x20 ADD PUSH1 0x0 KECCAK256 PUSH1 0x0 ADD PUSH1 0x0 DUP2 SLOAD DUP1 SWAP3 SWAP2 SWAP1 PUSH2 0x13F SWAP1 PUSH2 0x885 JUMP JUMPDEST SWAP2 SWAP1 POP SSTORE POP PUSH1 0x0 PUSH1 0x40 MLOAD DUP1 PUSH1 0x80 ADD PUSH1 0x40 MSTORE DUP1 CALLVALUE DUP2 MSTORE PUSH1 0x20 ADD TIMESTAMP DUP2 MSTORE PUSH1 0x20 ADD CALLER PUSH20 0xFFFFFFFFFFFFFFFFFFFFFFFFFFFFFFFFFFFFFFFF AND DUP2 MSTORE PUSH1 0x20 ADD DUP4 DUP2 MSTORE POP SWAP1 POP DUP1 PUSH1 0x0 DUP1 CALLER PUSH20 0xFFFFFFFFFFFFFFFFFFFFFFFFFFFFFFFFFFFFFFFF AND PUSH20 0xFFFFFFFFFFFFFFFFFFFFFFFFFFFFFFFFFFFFFFFF AND DUP2 MSTORE PUSH1 0x20 ADD SWAP1 DUP2 MSTORE PUSH1 0x20 ADD PUSH1 0x0 KECCAK256 PUSH1 0x1 ADD PUSH1 0x0 DUP1 PUSH1 0x0 CALLER PUSH20 0xFFFFFFFFFFFFFFFFFFFFFFFFFFFFFFFFFFFFFFFF AND PUSH20 0xFFFFFFFFFFFFFFFFFFFFFFFFFFFFFFFFFFFFFFFF AND DUP2 MSTORE PUSH1 0x20 ADD SWAP1 DUP2 MSTORE PUSH1 0x20 ADD PUSH1 0x0 KECCAK256 PUSH1 0x0 ADD SLOAD DUP2 MSTORE PUSH1 0x20 ADD SWAP1 DUP2 MSTORE PUSH1 0x20 ADD PUSH1 0x0 KECCAK256 PUSH1 0x0 DUP3 ADD MLOAD DUP2 PUSH1 0x0 ADD SSTORE PUSH1 0x20 DUP3 ADD MLOAD DUP2 PUSH1 0x1 ADD SSTORE PUSH1 0x40 DUP3 ADD MLOAD DUP2 PUSH1 0x2 ADD PUSH1 0x0 PUSH2 0x100 EXP DUP2 SLOAD DUP2 PUSH20 0xFFFFFFFFFFFFFFFFFFFFFFFFFFFFFFFFFFFFFFFF MUL NOT AND SWAP1 DUP4 PUSH20 0xFFFFFFFFFFFFFFFFFFFFFFFFFFFFFFFFFFFFFFFF AND MUL OR SWAP1 SSTORE POP PUSH1 0x60 DUP3 ADD MLOAD DUP2 PUSH1 0x3 ADD SWAP1 DUP1 MLOAD SWAP1 PUSH1 0x20 ADD SWAP1 PUSH2 0x28A SWAP3 SWAP2 SWAP1 PUSH2 0x3FB JUMP JUMPDEST POP SWAP1 POP POP POP POP JUMP JUMPDEST PUSH2 0x29A PUSH2 0x481 JUMP JUMPDEST PUSH1 0x0 DUP1 DUP5 PUSH20 0xFFFFFFFFFFFFFFFFFFFFFFFFFFFFFFFFFFFFFFFF AND PUSH20 0xFFFFFFFFFFFFFFFFFFFFFFFFFFFFFFFFFFFFFFFF AND DUP2 MSTORE PUSH1 0x20 ADD SWAP1 DUP2 MSTORE PUSH1 0x20 ADD PUSH1 0x0 KECCAK256 PUSH1 0x1 ADD PUSH1 0x0 DUP4 DUP2 MSTORE PUSH1 0x20 ADD SWAP1 DUP2 MSTORE PUSH1 0x20 ADD PUSH1 0x0 KECCAK256 PUSH1 0x40 MLOAD DUP1 PUSH1 0x80 ADD PUSH1 0x40 MSTORE SWAP1 DUP2 PUSH1 0x0 DUP3 ADD SLOAD DUP2 MSTORE PUSH1 0x20 ADD PUSH1 0x1 DUP3 ADD SLOAD DUP2 MSTORE PUSH1 0x20 ADD PUSH1 0x2 DUP3 ADD PUSH1 0x0 SWAP1 SLOAD SWAP1 PUSH2 0x100 EXP SWAP1 DIV PUSH20 0xFFFFFFFFFFFFFFFFFFFFFFFFFFFFFFFFFFFFFFFF AND PUSH20 0xFFFFFFFFFFFFFFFFFFFFFFFFFFFFFFFFFFFFFFFF AND PUSH20 0xFFFFFFFFFFFFFFFFFFFFFFFFFFFFFFFFFFFFFFFF AND DUP2 MSTORE PUSH1 0x20 ADD PUSH1 0x3 DUP3 ADD DUP1 SLOAD PUSH2 0x371 SWAP1 PUSH2 0x822 JUMP JUMPDEST DUP1 PUSH1 0x1F ADD PUSH1 0x20 DUP1 SWAP2 DIV MUL PUSH1 0x20 ADD PUSH1 0x40 MLOAD SWAP1 DUP2 ADD PUSH1 0x40 MSTORE DUP1 SWAP3 SWAP2 SWAP1 DUP2 DUP2 MSTORE PUSH1 0x20 ADD DUP3 DUP1 SLOAD PUSH2 0x39D SWAP1 PUSH2 0x822 JUMP JUMPDEST DUP1 ISZERO PUSH2 0x3EA JUMPI DUP1 PUSH1 0x1F LT PUSH2 0x3BF JUMPI PUSH2 0x100 DUP1 DUP4 SLOAD DIV MUL DUP4 MSTORE SWAP2 PUSH1 0x20 ADD SWAP2 PUSH2 0x3EA JUMP JUMPDEST DUP3 ADD SWAP2 SWAP1 PUSH1 0x0 MSTORE PUSH1 0x20 PUSH1 0x0 KECCAK256 SWAP1 JUMPDEST DUP2 SLOAD DUP2 MSTORE SWAP1 PUSH1 0x1 ADD SWAP1 PUSH1 0x20 ADD DUP1 DUP4 GT PUSH2 0x3CD JUMPI DUP3 SWAP1 SUB PUSH1 0x1F AND DUP3 ADD SWAP2 JUMPDEST POP POP POP POP POP DUP2 MSTORE POP POP SWAP1 POP SWAP3 SWAP2 POP POP JUMP JUMPDEST DUP3 DUP1 SLOAD PUSH2 0x407 SWAP1 PUSH2 0x822 JUMP JUMPDEST SWAP1 PUSH1 0x0 MSTORE PUSH1 0x20 PUSH1 0x0 KECCAK256 SWAP1 PUSH1 0x1F ADD PUSH1 0x20 SWAP1 DIV DUP2 ADD SWAP3 DUP3 PUSH2 0x429 JUMPI PUSH1 0x0 DUP6 SSTORE PUSH2 0x470 JUMP JUMPDEST DUP3 PUSH1 0x1F LT PUSH2 0x442 JUMPI DUP1 MLOAD PUSH1 0xFF NOT AND DUP4 DUP1 ADD OR DUP6 SSTORE PUSH2 0x470 JUMP JUMPDEST DUP3 DUP1 ADD PUSH1 0x1 ADD DUP6 SSTORE DUP3 ISZERO PUSH2 0x470 JUMPI SWAP2 DUP3 ADD JUMPDEST DUP3 DUP2 GT ISZERO PUSH2 0x46F JUMPI DUP3 MLOAD DUP3 SSTORE SWAP2 PUSH1 0x20 ADD SWAP2 SWAP1 PUSH1 0x1 ADD SWAP1 PUSH2 0x454 JUMP JUMPDEST JUMPDEST POP SWAP1 POP PUSH2 0x47D SWAP2 SWAP1 PUSH2 0x4BF JUMP JUMPDEST POP SWAP1 JUMP JUMPDEST PUSH1 0x40 MLOAD DUP1 PUSH1 0x80 ADD PUSH1 0x40 MSTORE DUP1 PUSH1 0x0 DUP2 MSTORE PUSH1 0x20 ADD PUSH1 0x0 DUP2 MSTORE PUSH1 0x20 ADD PUSH1 0x0 PUSH20 0xFFFFFFFFFFFFFFFFFFFFFFFFFFFFFFFFFFFFFFFF AND DUP2 MSTORE PUSH1 0x20 ADD PUSH1 0x60 DUP2 MSTORE POP SWAP1 JUMP JUMPDEST JUMPDEST DUP1 DUP3 GT ISZERO PUSH2 0x4D8 JUMPI PUSH1 0x0 DUP2 PUSH1 0x0 SWAP1 SSTORE POP PUSH1 0x1 ADD PUSH2 0x4C0 JUMP JUMPDEST POP SWAP1 JUMP JUMPDEST PUSH1 0x0 PUSH2 0x4EF PUSH2 0x4EA DUP5 PUSH2 0x757 JUMP JUMPDEST PUSH2 0x732 JUMP JUMPDEST SWAP1 POP DUP3 DUP2 MSTORE PUSH1 0x20 DUP2 ADD DUP5 DUP5 DUP5 ADD GT ISZERO PUSH2 0x50B JUMPI PUSH2 0x50A PUSH2 0x960 JUMP JUMPDEST JUMPDEST PUSH2 0x516 DUP5 DUP3 DUP6 PUSH2 0x7E0 JUMP JUMPDEST POP SWAP4 SWAP3 POP POP POP JUMP JUMPDEST PUSH1 0x0 DUP2 CALLDATALOAD SWAP1 POP PUSH2 0x52D DUP2 PUSH2 0x980 JUMP JUMPDEST SWAP3 SWAP2 POP POP JUMP JUMPDEST PUSH1 0x0 DUP3 PUSH1 0x1F DUP4 ADD SLT PUSH2 0x548 JUMPI PUSH2 0x547 PUSH2 0x95B JUMP JUMPDEST JUMPDEST DUP2 CALLDATALOAD PUSH2 0x558 DUP5 DUP3 PUSH1 0x20 DUP7 ADD PUSH2 0x4DC JUMP JUMPDEST SWAP2 POP POP SWAP3 SWAP2 POP POP JUMP JUMPDEST PUSH1 0x0 DUP2 CALLDATALOAD SWAP1 POP PUSH2 0x570 DUP2 PUSH2 0x997 JUMP JUMPDEST SWAP3 SWAP2 POP POP JUMP JUMPDEST PUSH1 0x0 PUSH1 0x20 DUP3 DUP5 SUB SLT ISZERO PUSH2 0x58C JUMPI PUSH2 0x58B PUSH2 0x96A JUMP JUMPDEST JUMPDEST PUSH1 0x0 PUSH2 0x59A DUP5 DUP3 DUP6 ADD PUSH2 0x51E JUMP JUMPDEST SWAP2 POP POP SWAP3 SWAP2 POP POP JUMP JUMPDEST PUSH1 0x0 DUP1 PUSH1 0x40 DUP4 DUP6 SUB SLT ISZERO PUSH2 0x5BA JUMPI PUSH2 0x5B9 PUSH2 0x96A JUMP JUMPDEST JUMPDEST PUSH1 0x0 PUSH2 0x5C8 DUP6 DUP3 DUP7 ADD PUSH2 0x51E JUMP JUMPDEST SWAP3 POP POP PUSH1 0x20 PUSH2 0x5D9 DUP6 DUP3 DUP7 ADD PUSH2 0x561 JUMP JUMPDEST SWAP2 POP POP SWAP3 POP SWAP3 SWAP1 POP JUMP JUMPDEST PUSH1 0x0 PUSH1 0x20 DUP3 DUP5 SUB SLT ISZERO PUSH2 0x5F9 JUMPI PUSH2 0x5F8 PUSH2 0x96A JUMP JUMPDEST JUMPDEST PUSH1 0x0 DUP3 ADD CALLDATALOAD PUSH8 0xFFFFFFFFFFFFFFFF DUP2 GT ISZERO PUSH2 0x617 JUMPI PUSH2 0x616 PUSH2 0x965 JUMP JUMPDEST JUMPDEST PUSH2 0x623 DUP5 DUP3 DUP6 ADD PUSH2 0x533 JUMP JUMPDEST SWAP2 POP POP SWAP3 SWAP2 POP POP JUMP JUMPDEST PUSH2 0x635 DUP2 PUSH2 0x7A4 JUMP JUMPDEST DUP3 MSTORE POP POP JUMP JUMPDEST PUSH1 0x0 PUSH2 0x646 DUP3 PUSH2 0x788 JUMP JUMPDEST PUSH2 0x650 DUP2 DUP6 PUSH2 0x793 JUMP JUMPDEST SWAP4 POP PUSH2 0x660 DUP2 DUP6 PUSH1 0x20 DUP7 ADD PUSH2 0x7EF JUMP JUMPDEST PUSH2 0x669 DUP2 PUSH2 0x96F JUMP JUMPDEST DUP5 ADD SWAP2 POP POP SWAP3 SWAP2 POP POP JUMP JUMPDEST PUSH1 0x0 PUSH1 0x80 DUP4 ADD PUSH1 0x0 DUP4 ADD MLOAD PUSH2 0x68C PUSH1 0x0 DUP7 ADD DUP3 PUSH2 0x6D7 JUMP JUMPDEST POP PUSH1 0x20 DUP4 ADD MLOAD PUSH2 0x69F PUSH1 0x20 DUP7 ADD DUP3 PUSH2 0x6D7 JUMP JUMPDEST POP PUSH1 0x40 DUP4 ADD MLOAD PUSH2 0x6B2 PUSH1 0x40 DUP7 ADD DUP3 PUSH2 0x62C JUMP JUMPDEST POP PUSH1 0x60 DUP4 ADD MLOAD DUP5 DUP3 SUB PUSH1 0x60 DUP7 ADD MSTORE PUSH2 0x6CA DUP3 DUP3 PUSH2 0x63B JUMP JUMPDEST SWAP2 POP POP DUP1 SWAP2 POP POP SWAP3 SWAP2 POP POP JUMP JUMPDEST PUSH2 0x6E0 DUP2 PUSH2 0x7D6 JUMP JUMPDEST DUP3 MSTORE POP POP JUMP JUMPDEST PUSH2 0x6EF DUP2 PUSH2 0x7D6 JUMP JUMPDEST DUP3 MSTORE POP POP JUMP JUMPDEST PUSH1 0x0 PUSH1 0x20 DUP3 ADD SWAP1 POP DUP2 DUP2 SUB PUSH1 0x0 DUP4 ADD MSTORE PUSH2 0x70F DUP2 DUP5 PUSH2 0x674 JUMP JUMPDEST SWAP1 POP SWAP3 SWAP2 POP POP JUMP JUMPDEST PUSH1 0x0 PUSH1 0x20 DUP3 ADD SWAP1 POP PUSH2 0x72C PUSH1 0x0 DUP4 ADD DUP5 PUSH2 0x6E6 JUMP JUMPDEST SWAP3 SWAP2 POP POP JUMP JUMPDEST PUSH1 0x0 PUSH2 0x73C PUSH2 0x74D JUMP JUMPDEST SWAP1 POP PUSH2 0x748 DUP3 DUP3 PUSH2 0x854 JUMP JUMPDEST SWAP2 SWAP1 POP JUMP JUMPDEST PUSH1 0x0 PUSH1 0x40 MLOAD SWAP1 POP SWAP1 JUMP JUMPDEST PUSH1 0x0 PUSH8 0xFFFFFFFFFFFFFFFF DUP3 GT ISZERO PUSH2 0x772 JUMPI PUSH2 0x771 PUSH2 0x92C JUMP JUMPDEST JUMPDEST PUSH2 0x77B DUP3 PUSH2 0x96F JUMP JUMPDEST SWAP1 POP PUSH1 0x20 DUP2 ADD SWAP1 POP SWAP2 SWAP1 POP JUMP JUMPDEST PUSH1 0x0 DUP2 MLOAD SWAP1 POP SWAP2 SWAP1 POP JUMP JUMPDEST PUSH1 0x0 DUP3 DUP3 MSTORE PUSH1 0x20 DUP3 ADD SWAP1 POP SWAP3 SWAP2 POP POP JUMP JUMPDEST PUSH1 0x0 PUSH2 0x7AF DUP3 PUSH2 0x7B6 JUMP JUMPDEST SWAP1 POP SWAP2 SWAP1 POP JUMP JUMPDEST PUSH1 0x0 PUSH20 0xFFFFFFFFFFFFFFFFFFFFFFFFFFFFFFFFFFFFFFFF DUP3 AND SWAP1 POP SWAP2 SWAP1 POP JUMP JUMPDEST PUSH1 0x0 DUP2 SWAP1 POP SWAP2 SWAP1 POP JUMP JUMPDEST DUP3 DUP2 DUP4 CALLDATACOPY PUSH1 0x0 DUP4 DUP4 ADD MSTORE POP POP POP JUMP JUMPDEST PUSH1 0x0 JUMPDEST DUP4 DUP2 LT ISZERO PUSH2 0x80D JUMPI DUP1 DUP3 ADD MLOAD DUP2 DUP5 ADD MSTORE PUSH1 0x20 DUP2 ADD SWAP1 POP PUSH2 0x7F2 JUMP JUMPDEST DUP4 DUP2 GT ISZERO PUSH2 0x81C JUMPI PUSH1 0x0 DUP5 DUP5 ADD MSTORE JUMPDEST POP POP POP POP JUMP JUMPDEST PUSH1 0x0 PUSH1 0x2 DUP3 DIV SWAP1 POP PUSH1 0x1 DUP3 AND DUP1 PUSH2 0x83A JUMPI PUSH1 0x7F DUP3 AND SWAP2 POP JUMPDEST PUSH1 0x20 DUP3 LT DUP2 EQ ISZERO PUSH2 0x84E JUMPI PUSH2 0x84D PUSH2 0x8FD JUMP JUMPDEST JUMPDEST POP SWAP2 SWAP1 POP JUMP JUMPDEST PUSH2 0x85D DUP3 PUSH2 0x96F JUMP JUMPDEST DUP2 ADD DUP2 DUP2 LT PUSH8 0xFFFFFFFFFFFFFFFF DUP3 GT OR ISZERO PUSH2 0x87C JUMPI PUSH2 0x87B PUSH2 0x92C JUMP JUMPDEST JUMPDEST DUP1 PUSH1 0x40 MSTORE POP POP POP JUMP JUMPDEST PUSH1 0x0 PUSH2 0x890 DUP3 PUSH2 0x7D6 JUMP JUMPDEST SWAP2 POP PUSH32 0xFFFFFFFFFFFFFFFFFFFFFFFFFFFFFFFFFFFFFFFFFFFFFFFFFFFFFFFFFFFFFFFF DUP3 EQ ISZERO PUSH2 0x8C3 JUMPI PUSH2 0x8C2 PUSH2 0x8CE JUMP JUMPDEST JUMPDEST PUSH1 0x1 DUP3 ADD SWAP1 POP SWAP2 SWAP1 POP JUMP JUMPDEST PUSH32 0x4E487B7100000000000000000000000000000000000000000000000000000000 PUSH1 0x0 MSTORE PUSH1 0x11 PUSH1 0x4 MSTORE PUSH1 0x24 PUSH1 0x0 REVERT JUMPDEST PUSH32 0x4E487B7100000000000000000000000000000000000000000000000000000000 PUSH1 0x0 MSTORE PUSH1 0x22 PUSH1 0x4 MSTORE PUSH1 0x24 PUSH1 0x0 REVERT JUMPDEST PUSH32 0x4E487B7100000000000000000000000000000000000000000000000000000000 PUSH1 0x0 MSTORE PUSH1 0x41 PUSH1 0x4 MSTORE PUSH1 0x24 PUSH1 0x0 REVERT JUMPDEST PUSH1 0x0 DUP1 REVERT JUMPDEST PUSH1 0x0 DUP1 REVERT JUMPDEST PUSH1 0x0 DUP1 REVERT JUMPDEST PUSH1 0x0 DUP1 REVERT JUMPDEST PUSH1 0x0 PUSH1 0x1F NOT PUSH1 0x1F DUP4 ADD AND SWAP1 POP SWAP2 SWAP1 POP JUMP JUMPDEST PUSH2 0x989 DUP2 PUSH2 0x7A4 JUMP JUMPDEST DUP2 EQ PUSH2 0x994 JUMPI PUSH1 0x0 DUP1 REVERT JUMPDEST POP JUMP JUMPDEST PUSH2 0x9A0 DUP2 PUSH2 0x7D6 JUMP JUMPDEST DUP2 EQ PUSH2 0x9AB JUMPI PUSH1 0x0 DUP1 REVERT JUMPDEST POP JUMP INVALID LOG2 PUSH5 0x6970667358 0x22 SLT KECCAK256 COINBASE 0xC1 SWAP4 0xC0 ADD 0xA9 SUB 0xA7 EXTCODEHASH LOG3 SWAP9 0xB1 PUSH14 0xC80568C2ACE1CF17BFACE0DE8013 LOG1 0x5F 0xE PUSH25 0xE464736F6C6343000807003300000000000000000000000000 "
				},
				"gasEstimates": {
					"creation": {
						"codeDepositCost": "506400",
						"executionCost": "543",
						"totalCost": "506943"
					},
					"external": {
						"balances(address)": "2806",
						"getPayment(address,uint256)": "infinite",
						"pay(string)": "infinite"
					}
				},
				"methodIdentifiers": {
					"balances(address)": "27e235e3",
					"getPayment(address,uint256)": "977a767c",
					"pay(string)": "2b66d72e"
				}
			},
			"storageLayout": {
				"storage": [
					{
						"astId": 30,
						"contract": "contracts/Lesson5Types.sol:Struct5Lesson",
						"label": "balances",
						"offset": 0,
						"slot": "0",
						"type": "t_mapping(t_address,t_struct(Balance)25_storage)"
					}
				],
				"types": {
					"t_address": {
						"encoding": "inplace",
						"label": "address",
						"numberOfBytes": "20"
					},
					"t_mapping(t_address,t_struct(Balance)25_storage)": {
						"encoding": "mapping",
						"key": "t_address",
						"label": "mapping(address => struct Struct5Lesson.Balance)",
						"numberOfBytes": "32",
						"value": "t_struct(Balance)25_storage"
					},
					"t_mapping(t_uint256,t_struct(Payment)17_storage)": {
						"encoding": "mapping",
						"key": "t_uint256",
						"label": "mapping(uint256 => struct Struct5Lesson.Payment)",
						"numberOfBytes": "32",
						"value": "t_struct(Payment)17_storage"
					},
					"t_string_storage": {
						"encoding": "bytes",
						"label": "string",
						"numberOfBytes": "32"
					},
					"t_struct(Balance)25_storage": {
						"encoding": "inplace",
						"label": "struct Struct5Lesson.Balance",
						"members": [
							{
								"astId": 19,
								"contract": "contracts/Lesson5Types.sol:Struct5Lesson",
								"label": "totalPayments",
								"offset": 0,
								"slot": "0",
								"type": "t_uint256"
							},
							{
								"astId": 24,
								"contract": "contracts/Lesson5Types.sol:Struct5Lesson",
								"label": "payments",
								"offset": 0,
								"slot": "1",
								"type": "t_mapping(t_uint256,t_struct(Payment)17_storage)"
							}
						],
						"numberOfBytes": "64"
					},
					"t_struct(Payment)17_storage": {
						"encoding": "inplace",
						"label": "struct Struct5Lesson.Payment",
						"members": [
							{
								"astId": 10,
								"contract": "contracts/Lesson5Types.sol:Struct5Lesson",
								"label": "amount",
								"offset": 0,
								"slot": "0",
								"type": "t_uint256"
							},
							{
								"astId": 12,
								"contract": "contracts/Lesson5Types.sol:Struct5Lesson",
								"label": "timestamp",
								"offset": 0,
								"slot": "1",
								"type": "t_uint256"
							},
							{
								"astId": 14,
								"contract": "contracts/Lesson5Types.sol:Struct5Lesson",
								"label": "from",
								"offset": 0,
								"slot": "2",
								"type": "t_address"
							},
							{
								"astId": 16,
								"contract": "contracts/Lesson5Types.sol:Struct5Lesson",
								"label": "message",
								"offset": 0,
								"slot": "3",
								"type": "t_string_storage"
							}
						],
						"numberOfBytes": "128"
					},
					"t_uint256": {
						"encoding": "inplace",
						"label": "uint256",
						"numberOfBytes": "32"
					}
				}
			},
			"userdoc": {
				"kind": "user",
				"methods": {},
				"version": 1
			}
		}
	}
}