{
	"contracts/Lesson2Types.sol": {
		"Str2Lesson": {
			"abi": [
				{
					"inputs": [],
					"name": "getBalance",
					"outputs": [
						{
							"internalType": "uint256",
							"name": "",
							"type": "uint256"
						}
					],
					"stateMutability": "view",
					"type": "function"
				},
				{
					"inputs": [],
					"name": "myAddress",
					"outputs": [
						{
							"internalType": "address",
							"name": "",
							"type": "address"
						}
					],
					"stateMutability": "view",
					"type": "function"
				},
				{
					"inputs": [],
					"name": "myStr",
					"outputs": [
						{
							"internalType": "string",
							"name": "",
							"type": "string"
						}
					],
					"stateMutability": "view",
					"type": "function"
				},
				{
					"inputs": [],
					"name": "receiveMoney",
					"outputs": [],
					"stateMutability": "payable",
					"type": "function"
				},
				{
					"inputs": [
						{
							"internalType": "string",
							"name": "outerStr",
							"type": "string"
						}
					],
					"name": "temp",
					"outputs": [],
					"stateMutability": "nonpayable",
					"type": "function"
				},
				{
					"inputs": [
						{
							"internalType": "address payable",
							"name": "targetAddr",
							"type": "address"
						},
						{
							"internalType": "uint256",
							"name": "amount",
							"type": "uint256"
						}
					],
					"name": "transferTo",
					"outputs": [],
					"stateMutability": "nonpayable",
					"type": "function"
				}
			],
			"devdoc": {
				"kind": "dev",
				"methods": {},
				"version": 1
			},
			"evm": {
				"assembly": "    /* \"contracts/Lesson2Types.sol\":58:1454  contract Str2Lesson {... */\n  mstore(0x40, 0x80)\n    /* \"contracts/Lesson2Types.sol\":84:119  string public myStr = \"Test string\" */\n  mload(0x40)\n  dup1\n  0x40\n  add\n  0x40\n  mstore\n  dup1\n  0x0b\n  dup2\n  mstore\n  0x20\n  add\n  0x5465737420737472696e67000000000000000000000000000000000000000000\n  dup2\n  mstore\n  pop\n  0x00\n  swap1\n  dup1\n  mload\n  swap1\n  0x20\n  add\n  swap1\n  tag_1\n  swap3\n  swap2\n  swap1\n  tag_2\n  jump\t// in\ntag_1:\n  pop\n    /* \"contracts/Lesson2Types.sol\":888:930  0xAb8483F64d9C6d1EcF9b849Ae677dD3315835cb2 */\n  0xab8483f64d9c6d1ecf9b849ae677dd3315835cb2\n    /* \"contracts/Lesson2Types.sol\":861:930  address public myAddress = 0xAb8483F64d9C6d1EcF9b849Ae677dD3315835cb2 */\n  0x01\n  exp(0x0100, 0x00)\n  dup2\n  sload\n  dup2\n  0xffffffffffffffffffffffffffffffffffffffff\n  mul\n  not\n  and\n  swap1\n  dup4\n  0xffffffffffffffffffffffffffffffffffffffff\n  and\n  mul\n  or\n  swap1\n  sstore\n  pop\n    /* \"contracts/Lesson2Types.sol\":58:1454  contract Str2Lesson {... */\n  callvalue\n  dup1\n  iszero\n  tag_3\n  jumpi\n  0x00\n  dup1\n  revert\ntag_3:\n  pop\n  jump(tag_4)\ntag_2:\n  dup3\n  dup1\n  sload\n  tag_5\n  swap1\n  tag_6\n  jump\t// in\ntag_5:\n  swap1\n  0x00\n  mstore\n  keccak256(0x00, 0x20)\n  swap1\n  0x1f\n  add\n  0x20\n  swap1\n  div\n  dup2\n  add\n  swap3\n  dup3\n  tag_8\n  jumpi\n  0x00\n  dup6\n  sstore\n  jump(tag_7)\ntag_8:\n  dup3\n  0x1f\n  lt\n  tag_9\n  jumpi\n  dup1\n  mload\n  not(0xff)\n  and\n  dup4\n  dup1\n  add\n  or\n  dup6\n  sstore\n  jump(tag_7)\ntag_9:\n  dup3\n  dup1\n  add\n  0x01\n  add\n  dup6\n  sstore\n  dup3\n  iszero\n  tag_7\n  jumpi\n  swap2\n  dup3\n  add\ntag_10:\n  dup3\n  dup2\n  gt\n  iszero\n  tag_11\n  jumpi\n  dup3\n  mload\n  dup3\n  sstore\n  swap2\n  0x20\n  add\n  swap2\n  swap1\n  0x01\n  add\n  swap1\n  jump(tag_10)\ntag_11:\ntag_7:\n  pop\n  swap1\n  pop\n  tag_12\n  swap2\n  swap1\n  tag_13\n  jump\t// in\ntag_12:\n  pop\n  swap1\n  jump\t// out\ntag_13:\ntag_14:\n  dup1\n  dup3\n  gt\n  iszero\n  tag_15\n  jumpi\n  0x00\n  dup2\n  0x00\n  swap1\n  sstore\n  pop\n  0x01\n  add\n  jump(tag_14)\ntag_15:\n  pop\n  swap1\n  jump\t// out\n    /* \"#utility.yul\":7:327   */\ntag_6:\n    /* \"#utility.yul\":51:57   */\n  0x00\n    /* \"#utility.yul\":88:89   */\n  0x02\n    /* \"#utility.yul\":82:86   */\n  dup3\n    /* \"#utility.yul\":78:90   */\n  div\n    /* \"#utility.yul\":68:90   */\n  swap1\n  pop\n    /* \"#utility.yul\":135:136   */\n  0x01\n    /* \"#utility.yul\":129:133   */\n  dup3\n    /* \"#utility.yul\":125:137   */\n  and\n    /* \"#utility.yul\":156:174   */\n  dup1\n    /* \"#utility.yul\":146:227   */\n  tag_18\n  jumpi\n    /* \"#utility.yul\":212:216   */\n  0x7f\n    /* \"#utility.yul\":204:210   */\n  dup3\n    /* \"#utility.yul\":200:217   */\n  and\n    /* \"#utility.yul\":190:217   */\n  swap2\n  pop\n    /* \"#utility.yul\":146:227   */\ntag_18:\n    /* \"#utility.yul\":274:276   */\n  0x20\n    /* \"#utility.yul\":266:272   */\n  dup3\n    /* \"#utility.yul\":263:277   */\n  lt\n    /* \"#utility.yul\":243:261   */\n  dup2\n    /* \"#utility.yul\":240:278   */\n  eq\n    /* \"#utility.yul\":237:321   */\n  iszero\n  tag_19\n  jumpi\n    /* \"#utility.yul\":293:311   */\n  tag_20\n  tag_21\n  jump\t// in\ntag_20:\n    /* \"#utility.yul\":237:321   */\ntag_19:\n    /* \"#utility.yul\":58:327   */\n  pop\n    /* \"#utility.yul\":7:327   */\n  swap2\n  swap1\n  pop\n  jump\t// out\n    /* \"#utility.yul\":333:513   */\ntag_21:\n    /* \"#utility.yul\":381:458   */\n  0x4e487b7100000000000000000000000000000000000000000000000000000000\n    /* \"#utility.yul\":378:379   */\n  0x00\n    /* \"#utility.yul\":371:459   */\n  mstore\n    /* \"#utility.yul\":478:482   */\n  0x22\n    /* \"#utility.yul\":475:476   */\n  0x04\n    /* \"#utility.yul\":468:483   */\n  mstore\n    /* \"#utility.yul\":502:506   */\n  0x24\n    /* \"#utility.yul\":499:500   */\n  0x00\n    /* \"#utility.yul\":492:507   */\n  revert\n    /* \"contracts/Lesson2Types.sol\":58:1454  contract Str2Lesson {... */\ntag_4:\n  dataSize(sub_0)\n  dup1\n  dataOffset(sub_0)\n  0x00\n  codecopy\n  0x00\n  return\nstop\n\nsub_0: assembly {\n        /* \"contracts/Lesson2Types.sol\":58:1454  contract Str2Lesson {... */\n      mstore(0x40, 0x80)\n      jumpi(tag_1, lt(calldatasize, 0x04))\n      shr(0xe0, calldataload(0x00))\n      dup1\n      0x12065fe0\n      eq\n      tag_2\n      jumpi\n      dup1\n      0x26b85ee1\n      eq\n      tag_3\n      jumpi\n      dup1\n      0x2ccb1b30\n      eq\n      tag_4\n      jumpi\n      dup1\n      0x5a455c1c\n      eq\n      tag_5\n      jumpi\n      dup1\n      0x6ba31b48\n      eq\n      tag_6\n      jumpi\n      dup1\n      0x6d26ec18\n      eq\n      tag_7\n      jumpi\n    tag_1:\n      0x00\n      dup1\n      revert\n        /* \"contracts/Lesson2Types.sol\":937:1150  function getBalance() public view returns(uint){  // view функции не вызывают транзации, в них нельзя отправить средства... */\n    tag_2:\n      callvalue\n      dup1\n      iszero\n      tag_8\n      jumpi\n      0x00\n      dup1\n      revert\n    tag_8:\n      pop\n      tag_9\n      tag_10\n      jump\t// in\n    tag_9:\n      mload(0x40)\n      tag_11\n      swap2\n      swap1\n      tag_12\n      jump\t// in\n    tag_11:\n      mload(0x40)\n      dup1\n      swap2\n      sub\n      swap1\n      return\n        /* \"contracts/Lesson2Types.sol\":861:930  address public myAddress = 0xAb8483F64d9C6d1EcF9b849Ae677dD3315835cb2 */\n    tag_3:\n      callvalue\n      dup1\n      iszero\n      tag_13\n      jumpi\n      0x00\n      dup1\n      revert\n    tag_13:\n      pop\n      tag_14\n      tag_15\n      jump\t// in\n    tag_14:\n      mload(0x40)\n      tag_16\n      swap2\n      swap1\n      tag_17\n      jump\t// in\n    tag_16:\n      mload(0x40)\n      dup1\n      swap2\n      sub\n      swap1\n      return\n        /* \"contracts/Lesson2Types.sol\":1157:1404  function transferTo(address payable targetAddr, uint amount) public { // payable флаг говорит нам о том, что данный адресс может переводить средства... */\n    tag_4:\n      callvalue\n      dup1\n      iszero\n      tag_18\n      jumpi\n      0x00\n      dup1\n      revert\n    tag_18:\n      pop\n      tag_19\n      0x04\n      dup1\n      calldatasize\n      sub\n      dup2\n      add\n      swap1\n      tag_20\n      swap2\n      swap1\n      tag_21\n      jump\t// in\n    tag_20:\n      tag_22\n      jump\t// in\n    tag_19:\n      stop\n        /* \"contracts/Lesson2Types.sol\":84:119  string public myStr = \"Test string\" */\n    tag_5:\n      callvalue\n      dup1\n      iszero\n      tag_23\n      jumpi\n      0x00\n      dup1\n      revert\n    tag_23:\n      pop\n      tag_24\n      tag_25\n      jump\t// in\n    tag_24:\n      mload(0x40)\n      tag_26\n      swap2\n      swap1\n      tag_27\n      jump\t// in\n    tag_26:\n      mload(0x40)\n      dup1\n      swap2\n      sub\n      swap1\n      return\n        /* \"contracts/Lesson2Types.sol\":551:855  function temp(string memory outerStr ) public {... */\n    tag_6:\n      callvalue\n      dup1\n      iszero\n      tag_28\n      jumpi\n      0x00\n      dup1\n      revert\n    tag_28:\n      pop\n      tag_29\n      0x04\n      dup1\n      calldatasize\n      sub\n      dup2\n      add\n      swap1\n      tag_30\n      swap2\n      swap1\n      tag_31\n      jump\t// in\n    tag_30:\n      tag_32\n      jump\t// in\n    tag_29:\n      stop\n        /* \"contracts/Lesson2Types.sol\":1411:1452  function receiveMoney() payable public {} */\n    tag_7:\n      tag_33\n      tag_34\n      jump\t// in\n    tag_33:\n      stop\n        /* \"contracts/Lesson2Types.sol\":937:1150  function getBalance() public view returns(uint){  // view функции не вызывают транзации, в них нельзя отправить средства... */\n    tag_10:\n        /* \"contracts/Lesson2Types.sol\":979:983  uint */\n      0x00\n        /* \"contracts/Lesson2Types.sol\":1126:1135  myAddress */\n      0x01\n      0x00\n      swap1\n      sload\n      swap1\n      0x0100\n      exp\n      swap1\n      div\n      0xffffffffffffffffffffffffffffffffffffffff\n      and\n        /* \"contracts/Lesson2Types.sol\":1126:1143  myAddress.balance */\n      0xffffffffffffffffffffffffffffffffffffffff\n      and\n      balance\n        /* \"contracts/Lesson2Types.sol\":1119:1143  return myAddress.balance */\n      swap1\n      pop\n        /* \"contracts/Lesson2Types.sol\":937:1150  function getBalance() public view returns(uint){  // view функции не вызывают транзации, в них нельзя отправить средства... */\n      swap1\n      jump\t// out\n        /* \"contracts/Lesson2Types.sol\":861:930  address public myAddress = 0xAb8483F64d9C6d1EcF9b849Ae677dD3315835cb2 */\n    tag_15:\n      0x01\n      0x00\n      swap1\n      sload\n      swap1\n      0x0100\n      exp\n      swap1\n      div\n      0xffffffffffffffffffffffffffffffffffffffff\n      and\n      dup2\n      jump\t// out\n        /* \"contracts/Lesson2Types.sol\":1157:1404  function transferTo(address payable targetAddr, uint amount) public { // payable флаг говорит нам о том, что данный адресс может переводить средства... */\n    tag_22:\n        /* \"contracts/Lesson2Types.sol\":1370:1380  targetAddr */\n      dup2\n        /* \"contracts/Lesson2Types.sol\":1370:1389  targetAddr.transfer */\n      0xffffffffffffffffffffffffffffffffffffffff\n      and\n        /* \"contracts/Lesson2Types.sol\":1370:1397  targetAddr.transfer(amount) */\n      0x08fc\n        /* \"contracts/Lesson2Types.sol\":1390:1396  amount */\n      dup3\n        /* \"contracts/Lesson2Types.sol\":1370:1397  targetAddr.transfer(amount) */\n      swap1\n      dup2\n      iszero\n      mul\n      swap1\n      mload(0x40)\n      0x00\n      mload(0x40)\n      dup1\n      dup4\n      sub\n      dup2\n      dup6\n      dup9\n      dup9\n      call\n      swap4\n      pop\n      pop\n      pop\n      pop\n      iszero\n      dup1\n      iszero\n      tag_38\n      jumpi\n      returndatasize\n      0x00\n      dup1\n      returndatacopy\n      revert(0x00, returndatasize)\n    tag_38:\n      pop\n        /* \"contracts/Lesson2Types.sol\":1157:1404  function transferTo(address payable targetAddr, uint amount) public { // payable флаг говорит нам о том, что данный адресс может переводить средства... */\n      pop\n      pop\n      jump\t// out\n        /* \"contracts/Lesson2Types.sol\":84:119  string public myStr = \"Test string\" */\n    tag_25:\n      0x00\n      dup1\n      sload\n      tag_39\n      swap1\n      tag_40\n      jump\t// in\n    tag_39:\n      dup1\n      0x1f\n      add\n      0x20\n      dup1\n      swap2\n      div\n      mul\n      0x20\n      add\n      mload(0x40)\n      swap1\n      dup2\n      add\n      0x40\n      mstore\n      dup1\n      swap3\n      swap2\n      swap1\n      dup2\n      dup2\n      mstore\n      0x20\n      add\n      dup3\n      dup1\n      sload\n      tag_41\n      swap1\n      tag_40\n      jump\t// in\n    tag_41:\n      dup1\n      iszero\n      tag_42\n      jumpi\n      dup1\n      0x1f\n      lt\n      tag_43\n      jumpi\n      0x0100\n      dup1\n      dup4\n      sload\n      div\n      mul\n      dup4\n      mstore\n      swap2\n      0x20\n      add\n      swap2\n      jump(tag_42)\n    tag_43:\n      dup3\n      add\n      swap2\n      swap1\n      0x00\n      mstore\n      keccak256(0x00, 0x20)\n      swap1\n    tag_44:\n      dup2\n      sload\n      dup2\n      mstore\n      swap1\n      0x01\n      add\n      swap1\n      0x20\n      add\n      dup1\n      dup4\n      gt\n      tag_44\n      jumpi\n      dup3\n      swap1\n      sub\n      0x1f\n      and\n      dup3\n      add\n      swap2\n    tag_42:\n      pop\n      pop\n      pop\n      pop\n      pop\n      dup2\n      jump\t// out\n        /* \"contracts/Lesson2Types.sol\":551:855  function temp(string memory outerStr ) public {... */\n    tag_32:\n        /* \"contracts/Lesson2Types.sol\":607:631  string memory tempString */\n      0x00\n        /* \"contracts/Lesson2Types.sol\":607:655  string memory tempString = \"temp something text\" */\n      mload(0x40)\n      dup1\n      0x40\n      add\n      0x40\n      mstore\n      dup1\n      0x13\n      dup2\n      mstore\n      0x20\n      add\n      0x74656d7020736f6d657468696e67207465787400000000000000000000000000\n      dup2\n      mstore\n      pop\n      swap1\n      pop\n        /* \"contracts/Lesson2Types.sol\":840:848  outerStr */\n      dup2\n        /* \"contracts/Lesson2Types.sol\":832:837  myStr */\n      0x00\n        /* \"contracts/Lesson2Types.sol\":832:848  myStr = outerStr */\n      swap1\n      dup1\n      mload\n      swap1\n      0x20\n      add\n      swap1\n      tag_46\n      swap3\n      swap2\n      swap1\n      tag_47\n      jump\t// in\n    tag_46:\n      pop\n        /* \"contracts/Lesson2Types.sol\":597:855  {... */\n      pop\n        /* \"contracts/Lesson2Types.sol\":551:855  function temp(string memory outerStr ) public {... */\n      pop\n      jump\t// out\n        /* \"contracts/Lesson2Types.sol\":1411:1452  function receiveMoney() payable public {} */\n    tag_34:\n      jump\t// out\n    tag_47:\n      dup3\n      dup1\n      sload\n      tag_49\n      swap1\n      tag_40\n      jump\t// in\n    tag_49:\n      swap1\n      0x00\n      mstore\n      keccak256(0x00, 0x20)\n      swap1\n      0x1f\n      add\n      0x20\n      swap1\n      div\n      dup2\n      add\n      swap3\n      dup3\n      tag_51\n      jumpi\n      0x00\n      dup6\n      sstore\n      jump(tag_50)\n    tag_51:\n      dup3\n      0x1f\n      lt\n      tag_52\n      jumpi\n      dup1\n      mload\n      not(0xff)\n      and\n      dup4\n      dup1\n      add\n      or\n      dup6\n      sstore\n      jump(tag_50)\n    tag_52:\n      dup3\n      dup1\n      add\n      0x01\n      add\n      dup6\n      sstore\n      dup3\n      iszero\n      tag_50\n      jumpi\n      swap2\n      dup3\n      add\n    tag_53:\n      dup3\n      dup2\n      gt\n      iszero\n      tag_54\n      jumpi\n      dup3\n      mload\n      dup3\n      sstore\n      swap2\n      0x20\n      add\n      swap2\n      swap1\n      0x01\n      add\n      swap1\n      jump(tag_53)\n    tag_54:\n    tag_50:\n      pop\n      swap1\n      pop\n      tag_55\n      swap2\n      swap1\n      tag_56\n      jump\t// in\n    tag_55:\n      pop\n      swap1\n      jump\t// out\n    tag_56:\n    tag_57:\n      dup1\n      dup3\n      gt\n      iszero\n      tag_58\n      jumpi\n      0x00\n      dup2\n      0x00\n      swap1\n      sstore\n      pop\n      0x01\n      add\n      jump(tag_57)\n    tag_58:\n      pop\n      swap1\n      jump\t// out\n        /* \"#utility.yul\":7:419   */\n    tag_60:\n        /* \"#utility.yul\":85:90   */\n      0x00\n        /* \"#utility.yul\":110:176   */\n      tag_62\n        /* \"#utility.yul\":126:175   */\n      tag_63\n        /* \"#utility.yul\":168:174   */\n      dup5\n        /* \"#utility.yul\":126:175   */\n      tag_64\n      jump\t// in\n    tag_63:\n        /* \"#utility.yul\":110:176   */\n      tag_65\n      jump\t// in\n    tag_62:\n        /* \"#utility.yul\":101:176   */\n      swap1\n      pop\n        /* \"#utility.yul\":199:205   */\n      dup3\n        /* \"#utility.yul\":192:197   */\n      dup2\n        /* \"#utility.yul\":185:206   */\n      mstore\n        /* \"#utility.yul\":237:241   */\n      0x20\n        /* \"#utility.yul\":230:235   */\n      dup2\n        /* \"#utility.yul\":226:242   */\n      add\n        /* \"#utility.yul\":275:278   */\n      dup5\n        /* \"#utility.yul\":266:272   */\n      dup5\n        /* \"#utility.yul\":261:264   */\n      dup5\n        /* \"#utility.yul\":257:273   */\n      add\n        /* \"#utility.yul\":254:279   */\n      gt\n        /* \"#utility.yul\":251:363   */\n      iszero\n      tag_66\n      jumpi\n        /* \"#utility.yul\":282:361   */\n      tag_67\n      tag_68\n      jump\t// in\n    tag_67:\n        /* \"#utility.yul\":251:363   */\n    tag_66:\n        /* \"#utility.yul\":372:413   */\n      tag_69\n        /* \"#utility.yul\":406:412   */\n      dup5\n        /* \"#utility.yul\":401:404   */\n      dup3\n        /* \"#utility.yul\":396:399   */\n      dup6\n        /* \"#utility.yul\":372:413   */\n      tag_70\n      jump\t// in\n    tag_69:\n        /* \"#utility.yul\":91:419   */\n      pop\n        /* \"#utility.yul\":7:419   */\n      swap4\n      swap3\n      pop\n      pop\n      pop\n      jump\t// out\n        /* \"#utility.yul\":425:580   */\n    tag_71:\n        /* \"#utility.yul\":479:484   */\n      0x00\n        /* \"#utility.yul\":517:523   */\n      dup2\n        /* \"#utility.yul\":504:524   */\n      calldataload\n        /* \"#utility.yul\":495:524   */\n      swap1\n      pop\n        /* \"#utility.yul\":533:574   */\n      tag_73\n        /* \"#utility.yul\":568:573   */\n      dup2\n        /* \"#utility.yul\":533:574   */\n      tag_74\n      jump\t// in\n    tag_73:\n        /* \"#utility.yul\":425:580   */\n      swap3\n      swap2\n      pop\n      pop\n      jump\t// out\n        /* \"#utility.yul\":600:940   */\n    tag_75:\n        /* \"#utility.yul\":656:661   */\n      0x00\n        /* \"#utility.yul\":705:708   */\n      dup3\n        /* \"#utility.yul\":698:702   */\n      0x1f\n        /* \"#utility.yul\":690:696   */\n      dup4\n        /* \"#utility.yul\":686:703   */\n      add\n        /* \"#utility.yul\":682:709   */\n      slt\n        /* \"#utility.yul\":672:794   */\n      tag_77\n      jumpi\n        /* \"#utility.yul\":713:792   */\n      tag_78\n      tag_79\n      jump\t// in\n    tag_78:\n        /* \"#utility.yul\":672:794   */\n    tag_77:\n        /* \"#utility.yul\":830:836   */\n      dup2\n        /* \"#utility.yul\":817:837   */\n      calldataload\n        /* \"#utility.yul\":855:934   */\n      tag_80\n        /* \"#utility.yul\":930:933   */\n      dup5\n        /* \"#utility.yul\":922:928   */\n      dup3\n        /* \"#utility.yul\":915:919   */\n      0x20\n        /* \"#utility.yul\":907:913   */\n      dup7\n        /* \"#utility.yul\":903:920   */\n      add\n        /* \"#utility.yul\":855:934   */\n      tag_60\n      jump\t// in\n    tag_80:\n        /* \"#utility.yul\":846:934   */\n      swap2\n      pop\n        /* \"#utility.yul\":662:940   */\n      pop\n        /* \"#utility.yul\":600:940   */\n      swap3\n      swap2\n      pop\n      pop\n      jump\t// out\n        /* \"#utility.yul\":946:1085   */\n    tag_81:\n        /* \"#utility.yul\":992:997   */\n      0x00\n        /* \"#utility.yul\":1030:1036   */\n      dup2\n        /* \"#utility.yul\":1017:1037   */\n      calldataload\n        /* \"#utility.yul\":1008:1037   */\n      swap1\n      pop\n        /* \"#utility.yul\":1046:1079   */\n      tag_83\n        /* \"#utility.yul\":1073:1078   */\n      dup2\n        /* \"#utility.yul\":1046:1079   */\n      tag_84\n      jump\t// in\n    tag_83:\n        /* \"#utility.yul\":946:1085   */\n      swap3\n      swap2\n      pop\n      pop\n      jump\t// out\n        /* \"#utility.yul\":1091:1581   */\n    tag_21:\n        /* \"#utility.yul\":1167:1173   */\n      0x00\n        /* \"#utility.yul\":1175:1181   */\n      dup1\n        /* \"#utility.yul\":1224:1226   */\n      0x40\n        /* \"#utility.yul\":1212:1221   */\n      dup4\n        /* \"#utility.yul\":1203:1210   */\n      dup6\n        /* \"#utility.yul\":1199:1222   */\n      sub\n        /* \"#utility.yul\":1195:1227   */\n      slt\n        /* \"#utility.yul\":1192:1311   */\n      iszero\n      tag_86\n      jumpi\n        /* \"#utility.yul\":1230:1309   */\n      tag_87\n      tag_88\n      jump\t// in\n    tag_87:\n        /* \"#utility.yul\":1192:1311   */\n    tag_86:\n        /* \"#utility.yul\":1350:1351   */\n      0x00\n        /* \"#utility.yul\":1375:1436   */\n      tag_89\n        /* \"#utility.yul\":1428:1435   */\n      dup6\n        /* \"#utility.yul\":1419:1425   */\n      dup3\n        /* \"#utility.yul\":1408:1417   */\n      dup7\n        /* \"#utility.yul\":1404:1426   */\n      add\n        /* \"#utility.yul\":1375:1436   */\n      tag_71\n      jump\t// in\n    tag_89:\n        /* \"#utility.yul\":1365:1436   */\n      swap3\n      pop\n        /* \"#utility.yul\":1321:1446   */\n      pop\n        /* \"#utility.yul\":1485:1487   */\n      0x20\n        /* \"#utility.yul\":1511:1564   */\n      tag_90\n        /* \"#utility.yul\":1556:1563   */\n      dup6\n        /* \"#utility.yul\":1547:1553   */\n      dup3\n        /* \"#utility.yul\":1536:1545   */\n      dup7\n        /* \"#utility.yul\":1532:1554   */\n      add\n        /* \"#utility.yul\":1511:1564   */\n      tag_81\n      jump\t// in\n    tag_90:\n        /* \"#utility.yul\":1501:1564   */\n      swap2\n      pop\n        /* \"#utility.yul\":1456:1574   */\n      pop\n        /* \"#utility.yul\":1091:1581   */\n      swap3\n      pop\n      swap3\n      swap1\n      pop\n      jump\t// out\n        /* \"#utility.yul\":1587:2096   */\n    tag_31:\n        /* \"#utility.yul\":1656:1662   */\n      0x00\n        /* \"#utility.yul\":1705:1707   */\n      0x20\n        /* \"#utility.yul\":1693:1702   */\n      dup3\n        /* \"#utility.yul\":1684:1691   */\n      dup5\n        /* \"#utility.yul\":1680:1703   */\n      sub\n        /* \"#utility.yul\":1676:1708   */\n      slt\n        /* \"#utility.yul\":1673:1792   */\n      iszero\n      tag_92\n      jumpi\n        /* \"#utility.yul\":1711:1790   */\n      tag_93\n      tag_88\n      jump\t// in\n    tag_93:\n        /* \"#utility.yul\":1673:1792   */\n    tag_92:\n        /* \"#utility.yul\":1859:1860   */\n      0x00\n        /* \"#utility.yul\":1848:1857   */\n      dup3\n        /* \"#utility.yul\":1844:1861   */\n      add\n        /* \"#utility.yul\":1831:1862   */\n      calldataload\n        /* \"#utility.yul\":1889:1907   */\n      0xffffffffffffffff\n        /* \"#utility.yul\":1881:1887   */\n      dup2\n        /* \"#utility.yul\":1878:1908   */\n      gt\n        /* \"#utility.yul\":1875:1992   */\n      iszero\n      tag_94\n      jumpi\n        /* \"#utility.yul\":1911:1990   */\n      tag_95\n      tag_96\n      jump\t// in\n    tag_95:\n        /* \"#utility.yul\":1875:1992   */\n    tag_94:\n        /* \"#utility.yul\":2016:2079   */\n      tag_97\n        /* \"#utility.yul\":2071:2078   */\n      dup5\n        /* \"#utility.yul\":2062:2068   */\n      dup3\n        /* \"#utility.yul\":2051:2060   */\n      dup6\n        /* \"#utility.yul\":2047:2069   */\n      add\n        /* \"#utility.yul\":2016:2079   */\n      tag_75\n      jump\t// in\n    tag_97:\n        /* \"#utility.yul\":2006:2079   */\n      swap2\n      pop\n        /* \"#utility.yul\":1802:2089   */\n      pop\n        /* \"#utility.yul\":1587:2096   */\n      swap3\n      swap2\n      pop\n      pop\n      jump\t// out\n        /* \"#utility.yul\":2102:2220   */\n    tag_98:\n        /* \"#utility.yul\":2189:2213   */\n      tag_100\n        /* \"#utility.yul\":2207:2212   */\n      dup2\n        /* \"#utility.yul\":2189:2213   */\n      tag_101\n      jump\t// in\n    tag_100:\n        /* \"#utility.yul\":2184:2187   */\n      dup3\n        /* \"#utility.yul\":2177:2214   */\n      mstore\n        /* \"#utility.yul\":2102:2220   */\n      pop\n      pop\n      jump\t// out\n        /* \"#utility.yul\":2226:2590   */\n    tag_102:\n        /* \"#utility.yul\":2314:2317   */\n      0x00\n        /* \"#utility.yul\":2342:2381   */\n      tag_104\n        /* \"#utility.yul\":2375:2380   */\n      dup3\n        /* \"#utility.yul\":2342:2381   */\n      tag_105\n      jump\t// in\n    tag_104:\n        /* \"#utility.yul\":2397:2468   */\n      tag_106\n        /* \"#utility.yul\":2461:2467   */\n      dup2\n        /* \"#utility.yul\":2456:2459   */\n      dup6\n        /* \"#utility.yul\":2397:2468   */\n      tag_107\n      jump\t// in\n    tag_106:\n        /* \"#utility.yul\":2390:2468   */\n      swap4\n      pop\n        /* \"#utility.yul\":2477:2529   */\n      tag_108\n        /* \"#utility.yul\":2522:2528   */\n      dup2\n        /* \"#utility.yul\":2517:2520   */\n      dup6\n        /* \"#utility.yul\":2510:2514   */\n      0x20\n        /* \"#utility.yul\":2503:2508   */\n      dup7\n        /* \"#utility.yul\":2499:2515   */\n      add\n        /* \"#utility.yul\":2477:2529   */\n      tag_109\n      jump\t// in\n    tag_108:\n        /* \"#utility.yul\":2554:2583   */\n      tag_110\n        /* \"#utility.yul\":2576:2582   */\n      dup2\n        /* \"#utility.yul\":2554:2583   */\n      tag_111\n      jump\t// in\n    tag_110:\n        /* \"#utility.yul\":2549:2552   */\n      dup5\n        /* \"#utility.yul\":2545:2584   */\n      add\n        /* \"#utility.yul\":2538:2584   */\n      swap2\n      pop\n        /* \"#utility.yul\":2318:2590   */\n      pop\n        /* \"#utility.yul\":2226:2590   */\n      swap3\n      swap2\n      pop\n      pop\n      jump\t// out\n        /* \"#utility.yul\":2596:2714   */\n    tag_112:\n        /* \"#utility.yul\":2683:2707   */\n      tag_114\n        /* \"#utility.yul\":2701:2706   */\n      dup2\n        /* \"#utility.yul\":2683:2707   */\n      tag_115\n      jump\t// in\n    tag_114:\n        /* \"#utility.yul\":2678:2681   */\n      dup3\n        /* \"#utility.yul\":2671:2708   */\n      mstore\n        /* \"#utility.yul\":2596:2714   */\n      pop\n      pop\n      jump\t// out\n        /* \"#utility.yul\":2720:2942   */\n    tag_17:\n        /* \"#utility.yul\":2813:2817   */\n      0x00\n        /* \"#utility.yul\":2851:2853   */\n      0x20\n        /* \"#utility.yul\":2840:2849   */\n      dup3\n        /* \"#utility.yul\":2836:2854   */\n      add\n        /* \"#utility.yul\":2828:2854   */\n      swap1\n      pop\n        /* \"#utility.yul\":2864:2935   */\n      tag_117\n        /* \"#utility.yul\":2932:2933   */\n      0x00\n        /* \"#utility.yul\":2921:2930   */\n      dup4\n        /* \"#utility.yul\":2917:2934   */\n      add\n        /* \"#utility.yul\":2908:2914   */\n      dup5\n        /* \"#utility.yul\":2864:2935   */\n      tag_98\n      jump\t// in\n    tag_117:\n        /* \"#utility.yul\":2720:2942   */\n      swap3\n      swap2\n      pop\n      pop\n      jump\t// out\n        /* \"#utility.yul\":2948:3261   */\n    tag_27:\n        /* \"#utility.yul\":3061:3065   */\n      0x00\n        /* \"#utility.yul\":3099:3101   */\n      0x20\n        /* \"#utility.yul\":3088:3097   */\n      dup3\n        /* \"#utility.yul\":3084:3102   */\n      add\n        /* \"#utility.yul\":3076:3102   */\n      swap1\n      pop\n        /* \"#utility.yul\":3148:3157   */\n      dup2\n        /* \"#utility.yul\":3142:3146   */\n      dup2\n        /* \"#utility.yul\":3138:3158   */\n      sub\n        /* \"#utility.yul\":3134:3135   */\n      0x00\n        /* \"#utility.yul\":3123:3132   */\n      dup4\n        /* \"#utility.yul\":3119:3136   */\n      add\n        /* \"#utility.yul\":3112:3159   */\n      mstore\n        /* \"#utility.yul\":3176:3254   */\n      tag_119\n        /* \"#utility.yul\":3249:3253   */\n      dup2\n        /* \"#utility.yul\":3240:3246   */\n      dup5\n        /* \"#utility.yul\":3176:3254   */\n      tag_102\n      jump\t// in\n    tag_119:\n        /* \"#utility.yul\":3168:3254   */\n      swap1\n      pop\n        /* \"#utility.yul\":2948:3261   */\n      swap3\n      swap2\n      pop\n      pop\n      jump\t// out\n        /* \"#utility.yul\":3267:3489   */\n    tag_12:\n        /* \"#utility.yul\":3360:3364   */\n      0x00\n        /* \"#utility.yul\":3398:3400   */\n      0x20\n        /* \"#utility.yul\":3387:3396   */\n      dup3\n        /* \"#utility.yul\":3383:3401   */\n      add\n        /* \"#utility.yul\":3375:3401   */\n      swap1\n      pop\n        /* \"#utility.yul\":3411:3482   */\n      tag_121\n        /* \"#utility.yul\":3479:3480   */\n      0x00\n        /* \"#utility.yul\":3468:3477   */\n      dup4\n        /* \"#utility.yul\":3464:3481   */\n      add\n        /* \"#utility.yul\":3455:3461   */\n      dup5\n        /* \"#utility.yul\":3411:3482   */\n      tag_112\n      jump\t// in\n    tag_121:\n        /* \"#utility.yul\":3267:3489   */\n      swap3\n      swap2\n      pop\n      pop\n      jump\t// out\n        /* \"#utility.yul\":3495:3624   */\n    tag_65:\n        /* \"#utility.yul\":3529:3535   */\n      0x00\n        /* \"#utility.yul\":3556:3576   */\n      tag_123\n      tag_124\n      jump\t// in\n    tag_123:\n        /* \"#utility.yul\":3546:3576   */\n      swap1\n      pop\n        /* \"#utility.yul\":3585:3618   */\n      tag_125\n        /* \"#utility.yul\":3613:3617   */\n      dup3\n        /* \"#utility.yul\":3605:3611   */\n      dup3\n        /* \"#utility.yul\":3585:3618   */\n      tag_126\n      jump\t// in\n    tag_125:\n        /* \"#utility.yul\":3495:3624   */\n      swap2\n      swap1\n      pop\n      jump\t// out\n        /* \"#utility.yul\":3630:3705   */\n    tag_124:\n        /* \"#utility.yul\":3663:3669   */\n      0x00\n        /* \"#utility.yul\":3696:3698   */\n      0x40\n        /* \"#utility.yul\":3690:3699   */\n      mload\n        /* \"#utility.yul\":3680:3699   */\n      swap1\n      pop\n        /* \"#utility.yul\":3630:3705   */\n      swap1\n      jump\t// out\n        /* \"#utility.yul\":3711:4019   */\n    tag_64:\n        /* \"#utility.yul\":3773:3777   */\n      0x00\n        /* \"#utility.yul\":3863:3881   */\n      0xffffffffffffffff\n        /* \"#utility.yul\":3855:3861   */\n      dup3\n        /* \"#utility.yul\":3852:3882   */\n      gt\n        /* \"#utility.yul\":3849:3905   */\n      iszero\n      tag_129\n      jumpi\n        /* \"#utility.yul\":3885:3903   */\n      tag_130\n      tag_131\n      jump\t// in\n    tag_130:\n        /* \"#utility.yul\":3849:3905   */\n    tag_129:\n        /* \"#utility.yul\":3923:3952   */\n      tag_132\n        /* \"#utility.yul\":3945:3951   */\n      dup3\n        /* \"#utility.yul\":3923:3952   */\n      tag_111\n      jump\t// in\n    tag_132:\n        /* \"#utility.yul\":3915:3952   */\n      swap1\n      pop\n        /* \"#utility.yul\":4007:4011   */\n      0x20\n        /* \"#utility.yul\":4001:4005   */\n      dup2\n        /* \"#utility.yul\":3997:4012   */\n      add\n        /* \"#utility.yul\":3989:4012   */\n      swap1\n      pop\n        /* \"#utility.yul\":3711:4019   */\n      swap2\n      swap1\n      pop\n      jump\t// out\n        /* \"#utility.yul\":4025:4124   */\n    tag_105:\n        /* \"#utility.yul\":4077:4083   */\n      0x00\n        /* \"#utility.yul\":4111:4116   */\n      dup2\n        /* \"#utility.yul\":4105:4117   */\n      mload\n        /* \"#utility.yul\":4095:4117   */\n      swap1\n      pop\n        /* \"#utility.yul\":4025:4124   */\n      swap2\n      swap1\n      pop\n      jump\t// out\n        /* \"#utility.yul\":4130:4299   */\n    tag_107:\n        /* \"#utility.yul\":4214:4225   */\n      0x00\n        /* \"#utility.yul\":4248:4254   */\n      dup3\n        /* \"#utility.yul\":4243:4246   */\n      dup3\n        /* \"#utility.yul\":4236:4255   */\n      mstore\n        /* \"#utility.yul\":4288:4292   */\n      0x20\n        /* \"#utility.yul\":4283:4286   */\n      dup3\n        /* \"#utility.yul\":4279:4293   */\n      add\n        /* \"#utility.yul\":4264:4293   */\n      swap1\n      pop\n        /* \"#utility.yul\":4130:4299   */\n      swap3\n      swap2\n      pop\n      pop\n      jump\t// out\n        /* \"#utility.yul\":4305:4401   */\n    tag_101:\n        /* \"#utility.yul\":4342:4349   */\n      0x00\n        /* \"#utility.yul\":4371:4395   */\n      tag_136\n        /* \"#utility.yul\":4389:4394   */\n      dup3\n        /* \"#utility.yul\":4371:4395   */\n      tag_137\n      jump\t// in\n    tag_136:\n        /* \"#utility.yul\":4360:4395   */\n      swap1\n      pop\n        /* \"#utility.yul\":4305:4401   */\n      swap2\n      swap1\n      pop\n      jump\t// out\n        /* \"#utility.yul\":4407:4511   */\n    tag_138:\n        /* \"#utility.yul\":4452:4459   */\n      0x00\n        /* \"#utility.yul\":4481:4505   */\n      tag_140\n        /* \"#utility.yul\":4499:4504   */\n      dup3\n        /* \"#utility.yul\":4481:4505   */\n      tag_137\n      jump\t// in\n    tag_140:\n        /* \"#utility.yul\":4470:4505   */\n      swap1\n      pop\n        /* \"#utility.yul\":4407:4511   */\n      swap2\n      swap1\n      pop\n      jump\t// out\n        /* \"#utility.yul\":4517:4643   */\n    tag_137:\n        /* \"#utility.yul\":4554:4561   */\n      0x00\n        /* \"#utility.yul\":4594:4636   */\n      0xffffffffffffffffffffffffffffffffffffffff\n        /* \"#utility.yul\":4587:4592   */\n      dup3\n        /* \"#utility.yul\":4583:4637   */\n      and\n        /* \"#utility.yul\":4572:4637   */\n      swap1\n      pop\n        /* \"#utility.yul\":4517:4643   */\n      swap2\n      swap1\n      pop\n      jump\t// out\n        /* \"#utility.yul\":4649:4726   */\n    tag_115:\n        /* \"#utility.yul\":4686:4693   */\n      0x00\n        /* \"#utility.yul\":4715:4720   */\n      dup2\n        /* \"#utility.yul\":4704:4720   */\n      swap1\n      pop\n        /* \"#utility.yul\":4649:4726   */\n      swap2\n      swap1\n      pop\n      jump\t// out\n        /* \"#utility.yul\":4732:4886   */\n    tag_70:\n        /* \"#utility.yul\":4816:4822   */\n      dup3\n        /* \"#utility.yul\":4811:4814   */\n      dup2\n        /* \"#utility.yul\":4806:4809   */\n      dup4\n        /* \"#utility.yul\":4793:4823   */\n      calldatacopy\n        /* \"#utility.yul\":4878:4879   */\n      0x00\n        /* \"#utility.yul\":4869:4875   */\n      dup4\n        /* \"#utility.yul\":4864:4867   */\n      dup4\n        /* \"#utility.yul\":4860:4876   */\n      add\n        /* \"#utility.yul\":4853:4880   */\n      mstore\n        /* \"#utility.yul\":4732:4886   */\n      pop\n      pop\n      pop\n      jump\t// out\n        /* \"#utility.yul\":4892:5199   */\n    tag_109:\n        /* \"#utility.yul\":4960:4961   */\n      0x00\n        /* \"#utility.yul\":4970:5083   */\n    tag_145:\n        /* \"#utility.yul\":4984:4990   */\n      dup4\n        /* \"#utility.yul\":4981:4982   */\n      dup2\n        /* \"#utility.yul\":4978:4991   */\n      lt\n        /* \"#utility.yul\":4970:5083   */\n      iszero\n      tag_147\n      jumpi\n        /* \"#utility.yul\":5069:5070   */\n      dup1\n        /* \"#utility.yul\":5064:5067   */\n      dup3\n        /* \"#utility.yul\":5060:5071   */\n      add\n        /* \"#utility.yul\":5054:5072   */\n      mload\n        /* \"#utility.yul\":5050:5051   */\n      dup2\n        /* \"#utility.yul\":5045:5048   */\n      dup5\n        /* \"#utility.yul\":5041:5052   */\n      add\n        /* \"#utility.yul\":5034:5073   */\n      mstore\n        /* \"#utility.yul\":5006:5008   */\n      0x20\n        /* \"#utility.yul\":5003:5004   */\n      dup2\n        /* \"#utility.yul\":4999:5009   */\n      add\n        /* \"#utility.yul\":4994:5009   */\n      swap1\n      pop\n        /* \"#utility.yul\":4970:5083   */\n      jump(tag_145)\n    tag_147:\n        /* \"#utility.yul\":5101:5107   */\n      dup4\n        /* \"#utility.yul\":5098:5099   */\n      dup2\n        /* \"#utility.yul\":5095:5108   */\n      gt\n        /* \"#utility.yul\":5092:5193   */\n      iszero\n      tag_148\n      jumpi\n        /* \"#utility.yul\":5181:5182   */\n      0x00\n        /* \"#utility.yul\":5172:5178   */\n      dup5\n        /* \"#utility.yul\":5167:5170   */\n      dup5\n        /* \"#utility.yul\":5163:5179   */\n      add\n        /* \"#utility.yul\":5156:5183   */\n      mstore\n        /* \"#utility.yul\":5092:5193   */\n    tag_148:\n        /* \"#utility.yul\":4941:5199   */\n      pop\n        /* \"#utility.yul\":4892:5199   */\n      pop\n      pop\n      pop\n      jump\t// out\n        /* \"#utility.yul\":5205:5525   */\n    tag_40:\n        /* \"#utility.yul\":5249:5255   */\n      0x00\n        /* \"#utility.yul\":5286:5287   */\n      0x02\n        /* \"#utility.yul\":5280:5284   */\n      dup3\n        /* \"#utility.yul\":5276:5288   */\n      div\n        /* \"#utility.yul\":5266:5288   */\n      swap1\n      pop\n        /* \"#utility.yul\":5333:5334   */\n      0x01\n        /* \"#utility.yul\":5327:5331   */\n      dup3\n        /* \"#utility.yul\":5323:5335   */\n      and\n        /* \"#utility.yul\":5354:5372   */\n      dup1\n        /* \"#utility.yul\":5344:5425   */\n      tag_150\n      jumpi\n        /* \"#utility.yul\":5410:5414   */\n      0x7f\n        /* \"#utility.yul\":5402:5408   */\n      dup3\n        /* \"#utility.yul\":5398:5415   */\n      and\n        /* \"#utility.yul\":5388:5415   */\n      swap2\n      pop\n        /* \"#utility.yul\":5344:5425   */\n    tag_150:\n        /* \"#utility.yul\":5472:5474   */\n      0x20\n        /* \"#utility.yul\":5464:5470   */\n      dup3\n        /* \"#utility.yul\":5461:5475   */\n      lt\n        /* \"#utility.yul\":5441:5459   */\n      dup2\n        /* \"#utility.yul\":5438:5476   */\n      eq\n        /* \"#utility.yul\":5435:5519   */\n      iszero\n      tag_151\n      jumpi\n        /* \"#utility.yul\":5491:5509   */\n      tag_152\n      tag_153\n      jump\t// in\n    tag_152:\n        /* \"#utility.yul\":5435:5519   */\n    tag_151:\n        /* \"#utility.yul\":5256:5525   */\n      pop\n        /* \"#utility.yul\":5205:5525   */\n      swap2\n      swap1\n      pop\n      jump\t// out\n        /* \"#utility.yul\":5531:5812   */\n    tag_126:\n        /* \"#utility.yul\":5614:5641   */\n      tag_155\n        /* \"#utility.yul\":5636:5640   */\n      dup3\n        /* \"#utility.yul\":5614:5641   */\n      tag_111\n      jump\t// in\n    tag_155:\n        /* \"#utility.yul\":5606:5612   */\n      dup2\n        /* \"#utility.yul\":5602:5642   */\n      add\n        /* \"#utility.yul\":5744:5750   */\n      dup2\n        /* \"#utility.yul\":5732:5742   */\n      dup2\n        /* \"#utility.yul\":5729:5751   */\n      lt\n        /* \"#utility.yul\":5708:5726   */\n      0xffffffffffffffff\n        /* \"#utility.yul\":5696:5706   */\n      dup3\n        /* \"#utility.yul\":5693:5727   */\n      gt\n        /* \"#utility.yul\":5690:5752   */\n      or\n        /* \"#utility.yul\":5687:5775   */\n      iszero\n      tag_156\n      jumpi\n        /* \"#utility.yul\":5755:5773   */\n      tag_157\n      tag_131\n      jump\t// in\n    tag_157:\n        /* \"#utility.yul\":5687:5775   */\n    tag_156:\n        /* \"#utility.yul\":5795:5805   */\n      dup1\n        /* \"#utility.yul\":5791:5793   */\n      0x40\n        /* \"#utility.yul\":5784:5806   */\n      mstore\n        /* \"#utility.yul\":5574:5812   */\n      pop\n        /* \"#utility.yul\":5531:5812   */\n      pop\n      pop\n      jump\t// out\n        /* \"#utility.yul\":5818:5998   */\n    tag_153:\n        /* \"#utility.yul\":5866:5943   */\n      0x4e487b7100000000000000000000000000000000000000000000000000000000\n        /* \"#utility.yul\":5863:5864   */\n      0x00\n        /* \"#utility.yul\":5856:5944   */\n      mstore\n        /* \"#utility.yul\":5963:5967   */\n      0x22\n        /* \"#utility.yul\":5960:5961   */\n      0x04\n        /* \"#utility.yul\":5953:5968   */\n      mstore\n        /* \"#utility.yul\":5987:5991   */\n      0x24\n        /* \"#utility.yul\":5984:5985   */\n      0x00\n        /* \"#utility.yul\":5977:5992   */\n      revert\n        /* \"#utility.yul\":6004:6184   */\n    tag_131:\n        /* \"#utility.yul\":6052:6129   */\n      0x4e487b7100000000000000000000000000000000000000000000000000000000\n        /* \"#utility.yul\":6049:6050   */\n      0x00\n        /* \"#utility.yul\":6042:6130   */\n      mstore\n        /* \"#utility.yul\":6149:6153   */\n      0x41\n        /* \"#utility.yul\":6146:6147   */\n      0x04\n        /* \"#utility.yul\":6139:6154   */\n      mstore\n        /* \"#utility.yul\":6173:6177   */\n      0x24\n        /* \"#utility.yul\":6170:6171   */\n      0x00\n        /* \"#utility.yul\":6163:6178   */\n      revert\n        /* \"#utility.yul\":6190:6307   */\n    tag_79:\n        /* \"#utility.yul\":6299:6300   */\n      0x00\n        /* \"#utility.yul\":6296:6297   */\n      dup1\n        /* \"#utility.yul\":6289:6301   */\n      revert\n        /* \"#utility.yul\":6313:6430   */\n    tag_68:\n        /* \"#utility.yul\":6422:6423   */\n      0x00\n        /* \"#utility.yul\":6419:6420   */\n      dup1\n        /* \"#utility.yul\":6412:6424   */\n      revert\n        /* \"#utility.yul\":6436:6553   */\n    tag_96:\n        /* \"#utility.yul\":6545:6546   */\n      0x00\n        /* \"#utility.yul\":6542:6543   */\n      dup1\n        /* \"#utility.yul\":6535:6547   */\n      revert\n        /* \"#utility.yul\":6559:6676   */\n    tag_88:\n        /* \"#utility.yul\":6668:6669   */\n      0x00\n        /* \"#utility.yul\":6665:6666   */\n      dup1\n        /* \"#utility.yul\":6658:6670   */\n      revert\n        /* \"#utility.yul\":6682:6784   */\n    tag_111:\n        /* \"#utility.yul\":6723:6729   */\n      0x00\n        /* \"#utility.yul\":6774:6776   */\n      0x1f\n        /* \"#utility.yul\":6770:6777   */\n      not\n        /* \"#utility.yul\":6765:6767   */\n      0x1f\n        /* \"#utility.yul\":6758:6763   */\n      dup4\n        /* \"#utility.yul\":6754:6768   */\n      add\n        /* \"#utility.yul\":6750:6778   */\n      and\n        /* \"#utility.yul\":6740:6778   */\n      swap1\n      pop\n        /* \"#utility.yul\":6682:6784   */\n      swap2\n      swap1\n      pop\n      jump\t// out\n        /* \"#utility.yul\":6790:6928   */\n    tag_74:\n        /* \"#utility.yul\":6871:6903   */\n      tag_166\n        /* \"#utility.yul\":6897:6902   */\n      dup2\n        /* \"#utility.yul\":6871:6903   */\n      tag_138\n      jump\t// in\n    tag_166:\n        /* \"#utility.yul\":6864:6869   */\n      dup2\n        /* \"#utility.yul\":6861:6904   */\n      eq\n        /* \"#utility.yul\":6851:6922   */\n      tag_167\n      jumpi\n        /* \"#utility.yul\":6918:6919   */\n      0x00\n        /* \"#utility.yul\":6915:6916   */\n      dup1\n        /* \"#utility.yul\":6908:6920   */\n      revert\n        /* \"#utility.yul\":6851:6922   */\n    tag_167:\n        /* \"#utility.yul\":6790:6928   */\n      pop\n      jump\t// out\n        /* \"#utility.yul\":6934:7056   */\n    tag_84:\n        /* \"#utility.yul\":7007:7031   */\n      tag_169\n        /* \"#utility.yul\":7025:7030   */\n      dup2\n        /* \"#utility.yul\":7007:7031   */\n      tag_115\n      jump\t// in\n    tag_169:\n        /* \"#utility.yul\":7000:7005   */\n      dup2\n        /* \"#utility.yul\":6997:7032   */\n      eq\n        /* \"#utility.yul\":6987:7050   */\n      tag_170\n      jumpi\n        /* \"#utility.yul\":7046:7047   */\n      0x00\n        /* \"#utility.yul\":7043:7044   */\n      dup1\n        /* \"#utility.yul\":7036:7048   */\n      revert\n        /* \"#utility.yul\":6987:7050   */\n    tag_170:\n        /* \"#utility.yul\":6934:7056   */\n      pop\n      jump\t// out\n\n    auxdata: 0xa26469706673582212208fc9f8d2d3da6aa7c685cf38e2fdf061d32e615725d7167c5b0ddd436545072d64736f6c63430008070033\n}\n",
				"bytecode": {
					"linkReferences": {},
					"object": "60806040526040518060400160405280600b81526020017f5465737420737472696e670000000000000000000000000000000000000000008152506000908051906020019061004f9291906100b7565b5073ab8483f64d9c6d1ecf9b849ae677dd3315835cb2600160006101000a81548173ffffffffffffffffffffffffffffffffffffffff021916908373ffffffffffffffffffffffffffffffffffffffff1602179055503480156100b157600080fd5b506101bb565b8280546100c39061015a565b90600052602060002090601f0160209004810192826100e5576000855561012c565b82601f106100fe57805160ff191683800117855561012c565b8280016001018555821561012c579182015b8281111561012b578251825591602001919060010190610110565b5b509050610139919061013d565b5090565b5b8082111561015657600081600090555060010161013e565b5090565b6000600282049050600182168061017257607f821691505b602082108114156101865761018561018c565b5b50919050565b7f4e487b7100000000000000000000000000000000000000000000000000000000600052602260045260246000fd5b61078f806101ca6000396000f3fe6080604052600436106100555760003560e01c806312065fe01461005a57806326b85ee1146100855780632ccb1b30146100b05780635a455c1c146100d95780636ba31b48146101045780636d26ec181461012d575b600080fd5b34801561006657600080fd5b5061006f610137565b60405161007c9190610528565b60405180910390f35b34801561009157600080fd5b5061009a610178565b6040516100a791906104eb565b60405180910390f35b3480156100bc57600080fd5b506100d760048036038101906100d2919061040b565b61019e565b005b3480156100e557600080fd5b506100ee6101e9565b6040516100fb9190610506565b60405180910390f35b34801561011057600080fd5b5061012b6004803603810190610126919061044b565b610277565b005b6101356102cc565b005b6000600160009054906101000a900473ffffffffffffffffffffffffffffffffffffffff1673ffffffffffffffffffffffffffffffffffffffff1631905090565b600160009054906101000a900473ffffffffffffffffffffffffffffffffffffffff1681565b8173ffffffffffffffffffffffffffffffffffffffff166108fc829081150290604051600060405180830381858888f193505050501580156101e4573d6000803e3d6000fd5b505050565b600080546101f690610645565b80601f016020809104026020016040519081016040528092919081815260200182805461022290610645565b801561026f5780601f106102445761010080835404028352916020019161026f565b820191906000526020600020905b81548152906001019060200180831161025257829003601f168201915b505050505081565b60006040518060400160405280601381526020017f74656d7020736f6d657468696e67207465787400000000000000000000000000815250905081600090805190602001906102c79291906102ce565b505050565b565b8280546102da90610645565b90600052602060002090601f0160209004810192826102fc5760008555610343565b82601f1061031557805160ff1916838001178555610343565b82800160010185558215610343579182015b82811115610342578251825591602001919060010190610327565b5b5090506103509190610354565b5090565b5b8082111561036d576000816000905550600101610355565b5090565b600061038461037f84610568565b610543565b9050828152602081018484840111156103a05761039f61070b565b5b6103ab848285610603565b509392505050565b6000813590506103c28161072b565b92915050565b600082601f8301126103dd576103dc610706565b5b81356103ed848260208601610371565b91505092915050565b60008135905061040581610742565b92915050565b6000806040838503121561042257610421610715565b5b6000610430858286016103b3565b9250506020610441858286016103f6565b9150509250929050565b60006020828403121561046157610460610715565b5b600082013567ffffffffffffffff81111561047f5761047e610710565b5b61048b848285016103c8565b91505092915050565b61049d816105b5565b82525050565b60006104ae82610599565b6104b881856105a4565b93506104c8818560208601610612565b6104d18161071a565b840191505092915050565b6104e5816105f9565b82525050565b60006020820190506105006000830184610494565b92915050565b6000602082019050818103600083015261052081846104a3565b905092915050565b600060208201905061053d60008301846104dc565b92915050565b600061054d61055e565b90506105598282610677565b919050565b6000604051905090565b600067ffffffffffffffff821115610583576105826106d7565b5b61058c8261071a565b9050602081019050919050565b600081519050919050565b600082825260208201905092915050565b60006105c0826105d9565b9050919050565b60006105d2826105d9565b9050919050565b600073ffffffffffffffffffffffffffffffffffffffff82169050919050565b6000819050919050565b82818337600083830152505050565b60005b83811015610630578082015181840152602081019050610615565b8381111561063f576000848401525b50505050565b6000600282049050600182168061065d57607f821691505b60208210811415610671576106706106a8565b5b50919050565b6106808261071a565b810181811067ffffffffffffffff8211171561069f5761069e6106d7565b5b80604052505050565b7f4e487b7100000000000000000000000000000000000000000000000000000000600052602260045260246000fd5b7f4e487b7100000000000000000000000000000000000000000000000000000000600052604160045260246000fd5b600080fd5b600080fd5b600080fd5b600080fd5b6000601f19601f8301169050919050565b610734816105c7565b811461073f57600080fd5b50565b61074b816105f9565b811461075657600080fd5b5056fea26469706673582212208fc9f8d2d3da6aa7c685cf38e2fdf061d32e615725d7167c5b0ddd436545072d64736f6c63430008070033",
					"opcodes": "PUSH1 0x80 PUSH1 0x40 MSTORE PUSH1 0x40 MLOAD DUP1 PUSH1 0x40 ADD PUSH1 0x40 MSTORE DUP1 PUSH1 0xB DUP2 MSTORE PUSH1 0x20 ADD PUSH32 0x5465737420737472696E67000000000000000000000000000000000000000000 DUP2 MSTORE POP PUSH1 0x0 SWAP1 DUP1 MLOAD SWAP1 PUSH1 0x20 ADD SWAP1 PUSH2 0x4F SWAP3 SWAP2 SWAP1 PUSH2 0xB7 JUMP JUMPDEST POP PUSH20 0xAB8483F64D9C6D1ECF9B849AE677DD3315835CB2 PUSH1 0x1 PUSH1 0x0 PUSH2 0x100 EXP DUP2 SLOAD DUP2 PUSH20 0xFFFFFFFFFFFFFFFFFFFFFFFFFFFFFFFFFFFFFFFF MUL NOT AND SWAP1 DUP4 PUSH20 0xFFFFFFFFFFFFFFFFFFFFFFFFFFFFFFFFFFFFFFFF AND MUL OR SWAP1 SSTORE POP CALLVALUE DUP1 ISZERO PUSH2 0xB1 JUMPI PUSH1 0x0 DUP1 REVERT JUMPDEST POP PUSH2 0x1BB JUMP JUMPDEST DUP3 DUP1 SLOAD PUSH2 0xC3 SWAP1 PUSH2 0x15A JUMP JUMPDEST SWAP1 PUSH1 0x0 MSTORE PUSH1 0x20 PUSH1 0x0 KECCAK256 SWAP1 PUSH1 0x1F ADD PUSH1 0x20 SWAP1 DIV DUP2 ADD SWAP3 DUP3 PUSH2 0xE5 JUMPI PUSH1 0x0 DUP6 SSTORE PUSH2 0x12C JUMP JUMPDEST DUP3 PUSH1 0x1F LT PUSH2 0xFE JUMPI DUP1 MLOAD PUSH1 0xFF NOT AND DUP4 DUP1 ADD OR DUP6 SSTORE PUSH2 0x12C JUMP JUMPDEST DUP3 DUP1 ADD PUSH1 0x1 ADD DUP6 SSTORE DUP3 ISZERO PUSH2 0x12C JUMPI SWAP2 DUP3 ADD JUMPDEST DUP3 DUP2 GT ISZERO PUSH2 0x12B JUMPI DUP3 MLOAD DUP3 SSTORE SWAP2 PUSH1 0x20 ADD SWAP2 SWAP1 PUSH1 0x1 ADD SWAP1 PUSH2 0x110 JUMP JUMPDEST JUMPDEST POP SWAP1 POP PUSH2 0x139 SWAP2 SWAP1 PUSH2 0x13D JUMP JUMPDEST POP SWAP1 JUMP JUMPDEST JUMPDEST DUP1 DUP3 GT ISZERO PUSH2 0x156 JUMPI PUSH1 0x0 DUP2 PUSH1 0x0 SWAP1 SSTORE POP PUSH1 0x1 ADD PUSH2 0x13E JUMP JUMPDEST POP SWAP1 JUMP JUMPDEST PUSH1 0x0 PUSH1 0x2 DUP3 DIV SWAP1 POP PUSH1 0x1 DUP3 AND DUP1 PUSH2 0x172 JUMPI PUSH1 0x7F DUP3 AND SWAP2 POP JUMPDEST PUSH1 0x20 DUP3 LT DUP2 EQ ISZERO PUSH2 0x186 JUMPI PUSH2 0x185 PUSH2 0x18C JUMP JUMPDEST JUMPDEST POP SWAP2 SWAP1 POP JUMP JUMPDEST PUSH32 0x4E487B7100000000000000000000000000000000000000000000000000000000 PUSH1 0x0 MSTORE PUSH1 0x22 PUSH1 0x4 MSTORE PUSH1 0x24 PUSH1 0x0 REVERT JUMPDEST PUSH2 0x78F DUP1 PUSH2 0x1CA PUSH1 0x0 CODECOPY PUSH1 0x0 RETURN INVALID PUSH1 0x80 PUSH1 0x40 MSTORE PUSH1 0x4 CALLDATASIZE LT PUSH2 0x55 JUMPI PUSH1 0x0 CALLDATALOAD PUSH1 0xE0 SHR DUP1 PUSH4 0x12065FE0 EQ PUSH2 0x5A JUMPI DUP1 PUSH4 0x26B85EE1 EQ PUSH2 0x85 JUMPI DUP1 PUSH4 0x2CCB1B30 EQ PUSH2 0xB0 JUMPI DUP1 PUSH4 0x5A455C1C EQ PUSH2 0xD9 JUMPI DUP1 PUSH4 0x6BA31B48 EQ PUSH2 0x104 JUMPI DUP1 PUSH4 0x6D26EC18 EQ PUSH2 0x12D JUMPI JUMPDEST PUSH1 0x0 DUP1 REVERT JUMPDEST CALLVALUE DUP1 ISZERO PUSH2 0x66 JUMPI PUSH1 0x0 DUP1 REVERT JUMPDEST POP PUSH2 0x6F PUSH2 0x137 JUMP JUMPDEST PUSH1 0x40 MLOAD PUSH2 0x7C SWAP2 SWAP1 PUSH2 0x528 JUMP JUMPDEST PUSH1 0x40 MLOAD DUP1 SWAP2 SUB SWAP1 RETURN JUMPDEST CALLVALUE DUP1 ISZERO PUSH2 0x91 JUMPI PUSH1 0x0 DUP1 REVERT JUMPDEST POP PUSH2 0x9A PUSH2 0x178 JUMP JUMPDEST PUSH1 0x40 MLOAD PUSH2 0xA7 SWAP2 SWAP1 PUSH2 0x4EB JUMP JUMPDEST PUSH1 0x40 MLOAD DUP1 SWAP2 SUB SWAP1 RETURN JUMPDEST CALLVALUE DUP1 ISZERO PUSH2 0xBC JUMPI PUSH1 0x0 DUP1 REVERT JUMPDEST POP PUSH2 0xD7 PUSH1 0x4 DUP1 CALLDATASIZE SUB DUP2 ADD SWAP1 PUSH2 0xD2 SWAP2 SWAP1 PUSH2 0x40B JUMP JUMPDEST PUSH2 0x19E JUMP JUMPDEST STOP JUMPDEST CALLVALUE DUP1 ISZERO PUSH2 0xE5 JUMPI PUSH1 0x0 DUP1 REVERT JUMPDEST POP PUSH2 0xEE PUSH2 0x1E9 JUMP JUMPDEST PUSH1 0x40 MLOAD PUSH2 0xFB SWAP2 SWAP1 PUSH2 0x506 JUMP JUMPDEST PUSH1 0x40 MLOAD DUP1 SWAP2 SUB SWAP1 RETURN JUMPDEST CALLVALUE DUP1 ISZERO PUSH2 0x110 JUMPI PUSH1 0x0 DUP1 REVERT JUMPDEST POP PUSH2 0x12B PUSH1 0x4 DUP1 CALLDATASIZE SUB DUP2 ADD SWAP1 PUSH2 0x126 SWAP2 SWAP1 PUSH2 0x44B JUMP JUMPDEST PUSH2 0x277 JUMP JUMPDEST STOP JUMPDEST PUSH2 0x135 PUSH2 0x2CC JUMP JUMPDEST STOP JUMPDEST PUSH1 0x0 PUSH1 0x1 PUSH1 0x0 SWAP1 SLOAD SWAP1 PUSH2 0x100 EXP SWAP1 DIV PUSH20 0xFFFFFFFFFFFFFFFFFFFFFFFFFFFFFFFFFFFFFFFF AND PUSH20 0xFFFFFFFFFFFFFFFFFFFFFFFFFFFFFFFFFFFFFFFF AND BALANCE SWAP1 POP SWAP1 JUMP JUMPDEST PUSH1 0x1 PUSH1 0x0 SWAP1 SLOAD SWAP1 PUSH2 0x100 EXP SWAP1 DIV PUSH20 0xFFFFFFFFFFFFFFFFFFFFFFFFFFFFFFFFFFFFFFFF AND DUP2 JUMP JUMPDEST DUP2 PUSH20 0xFFFFFFFFFFFFFFFFFFFFFFFFFFFFFFFFFFFFFFFF AND PUSH2 0x8FC DUP3 SWAP1 DUP2 ISZERO MUL SWAP1 PUSH1 0x40 MLOAD PUSH1 0x0 PUSH1 0x40 MLOAD DUP1 DUP4 SUB DUP2 DUP6 DUP9 DUP9 CALL SWAP4 POP POP POP POP ISZERO DUP1 ISZERO PUSH2 0x1E4 JUMPI RETURNDATASIZE PUSH1 0x0 DUP1 RETURNDATACOPY RETURNDATASIZE PUSH1 0x0 REVERT JUMPDEST POP POP POP JUMP JUMPDEST PUSH1 0x0 DUP1 SLOAD PUSH2 0x1F6 SWAP1 PUSH2 0x645 JUMP JUMPDEST DUP1 PUSH1 0x1F ADD PUSH1 0x20 DUP1 SWAP2 DIV MUL PUSH1 0x20 ADD PUSH1 0x40 MLOAD SWAP1 DUP2 ADD PUSH1 0x40 MSTORE DUP1 SWAP3 SWAP2 SWAP1 DUP2 DUP2 MSTORE PUSH1 0x20 ADD DUP3 DUP1 SLOAD PUSH2 0x222 SWAP1 PUSH2 0x645 JUMP JUMPDEST DUP1 ISZERO PUSH2 0x26F JUMPI DUP1 PUSH1 0x1F LT PUSH2 0x244 JUMPI PUSH2 0x100 DUP1 DUP4 SLOAD DIV MUL DUP4 MSTORE SWAP2 PUSH1 0x20 ADD SWAP2 PUSH2 0x26F JUMP JUMPDEST DUP3 ADD SWAP2 SWAP1 PUSH1 0x0 MSTORE PUSH1 0x20 PUSH1 0x0 KECCAK256 SWAP1 JUMPDEST DUP2 SLOAD DUP2 MSTORE SWAP1 PUSH1 0x1 ADD SWAP1 PUSH1 0x20 ADD DUP1 DUP4 GT PUSH2 0x252 JUMPI DUP3 SWAP1 SUB PUSH1 0x1F AND DUP3 ADD SWAP2 JUMPDEST POP POP POP POP POP DUP2 JUMP JUMPDEST PUSH1 0x0 PUSH1 0x40 MLOAD DUP1 PUSH1 0x40 ADD PUSH1 0x40 MSTORE DUP1 PUSH1 0x13 DUP2 MSTORE PUSH1 0x20 ADD PUSH32 0x74656D7020736F6D657468696E67207465787400000000000000000000000000 DUP2 MSTORE POP SWAP1 POP DUP2 PUSH1 0x0 SWAP1 DUP1 MLOAD SWAP1 PUSH1 0x20 ADD SWAP1 PUSH2 0x2C7 SWAP3 SWAP2 SWAP1 PUSH2 0x2CE JUMP JUMPDEST POP POP POP JUMP JUMPDEST JUMP JUMPDEST DUP3 DUP1 SLOAD PUSH2 0x2DA SWAP1 PUSH2 0x645 JUMP JUMPDEST SWAP1 PUSH1 0x0 MSTORE PUSH1 0x20 PUSH1 0x0 KECCAK256 SWAP1 PUSH1 0x1F ADD PUSH1 0x20 SWAP1 DIV DUP2 ADD SWAP3 DUP3 PUSH2 0x2FC JUMPI PUSH1 0x0 DUP6 SSTORE PUSH2 0x343 JUMP JUMPDEST DUP3 PUSH1 0x1F LT PUSH2 0x315 JUMPI DUP1 MLOAD PUSH1 0xFF NOT AND DUP4 DUP1 ADD OR DUP6 SSTORE PUSH2 0x343 JUMP JUMPDEST DUP3 DUP1 ADD PUSH1 0x1 ADD DUP6 SSTORE DUP3 ISZERO PUSH2 0x343 JUMPI SWAP2 DUP3 ADD JUMPDEST DUP3 DUP2 GT ISZERO PUSH2 0x342 JUMPI DUP3 MLOAD DUP3 SSTORE SWAP2 PUSH1 0x20 ADD SWAP2 SWAP1 PUSH1 0x1 ADD SWAP1 PUSH2 0x327 JUMP JUMPDEST JUMPDEST POP SWAP1 POP PUSH2 0x350 SWAP2 SWAP1 PUSH2 0x354 JUMP JUMPDEST POP SWAP1 JUMP JUMPDEST JUMPDEST DUP1 DUP3 GT ISZERO PUSH2 0x36D JUMPI PUSH1 0x0 DUP2 PUSH1 0x0 SWAP1 SSTORE POP PUSH1 0x1 ADD PUSH2 0x355 JUMP JUMPDEST POP SWAP1 JUMP JUMPDEST PUSH1 0x0 PUSH2 0x384 PUSH2 0x37F DUP5 PUSH2 0x568 JUMP JUMPDEST PUSH2 0x543 JUMP JUMPDEST SWAP1 POP DUP3 DUP2 MSTORE PUSH1 0x20 DUP2 ADD DUP5 DUP5 DUP5 ADD GT ISZERO PUSH2 0x3A0 JUMPI PUSH2 0x39F PUSH2 0x70B JUMP JUMPDEST JUMPDEST PUSH2 0x3AB DUP5 DUP3 DUP6 PUSH2 0x603 JUMP JUMPDEST POP SWAP4 SWAP3 POP POP POP JUMP JUMPDEST PUSH1 0x0 DUP2 CALLDATALOAD SWAP1 POP PUSH2 0x3C2 DUP2 PUSH2 0x72B JUMP JUMPDEST SWAP3 SWAP2 POP POP JUMP JUMPDEST PUSH1 0x0 DUP3 PUSH1 0x1F DUP4 ADD SLT PUSH2 0x3DD JUMPI PUSH2 0x3DC PUSH2 0x706 JUMP JUMPDEST JUMPDEST DUP2 CALLDATALOAD PUSH2 0x3ED DUP5 DUP3 PUSH1 0x20 DUP7 ADD PUSH2 0x371 JUMP JUMPDEST SWAP2 POP POP SWAP3 SWAP2 POP POP JUMP JUMPDEST PUSH1 0x0 DUP2 CALLDATALOAD SWAP1 POP PUSH2 0x405 DUP2 PUSH2 0x742 JUMP JUMPDEST SWAP3 SWAP2 POP POP JUMP JUMPDEST PUSH1 0x0 DUP1 PUSH1 0x40 DUP4 DUP6 SUB SLT ISZERO PUSH2 0x422 JUMPI PUSH2 0x421 PUSH2 0x715 JUMP JUMPDEST JUMPDEST PUSH1 0x0 PUSH2 0x430 DUP6 DUP3 DUP7 ADD PUSH2 0x3B3 JUMP JUMPDEST SWAP3 POP POP PUSH1 0x20 PUSH2 0x441 DUP6 DUP3 DUP7 ADD PUSH2 0x3F6 JUMP JUMPDEST SWAP2 POP POP SWAP3 POP SWAP3 SWAP1 POP JUMP JUMPDEST PUSH1 0x0 PUSH1 0x20 DUP3 DUP5 SUB SLT ISZERO PUSH2 0x461 JUMPI PUSH2 0x460 PUSH2 0x715 JUMP JUMPDEST JUMPDEST PUSH1 0x0 DUP3 ADD CALLDATALOAD PUSH8 0xFFFFFFFFFFFFFFFF DUP2 GT ISZERO PUSH2 0x47F JUMPI PUSH2 0x47E PUSH2 0x710 JUMP JUMPDEST JUMPDEST PUSH2 0x48B DUP5 DUP3 DUP6 ADD PUSH2 0x3C8 JUMP JUMPDEST SWAP2 POP POP SWAP3 SWAP2 POP POP JUMP JUMPDEST PUSH2 0x49D DUP2 PUSH2 0x5B5 JUMP JUMPDEST DUP3 MSTORE POP POP JUMP JUMPDEST PUSH1 0x0 PUSH2 0x4AE DUP3 PUSH2 0x599 JUMP JUMPDEST PUSH2 0x4B8 DUP2 DUP6 PUSH2 0x5A4 JUMP JUMPDEST SWAP4 POP PUSH2 0x4C8 DUP2 DUP6 PUSH1 0x20 DUP7 ADD PUSH2 0x612 JUMP JUMPDEST PUSH2 0x4D1 DUP2 PUSH2 0x71A JUMP JUMPDEST DUP5 ADD SWAP2 POP POP SWAP3 SWAP2 POP POP JUMP JUMPDEST PUSH2 0x4E5 DUP2 PUSH2 0x5F9 JUMP JUMPDEST DUP3 MSTORE POP POP JUMP JUMPDEST PUSH1 0x0 PUSH1 0x20 DUP3 ADD SWAP1 POP PUSH2 0x500 PUSH1 0x0 DUP4 ADD DUP5 PUSH2 0x494 JUMP JUMPDEST SWAP3 SWAP2 POP POP JUMP JUMPDEST PUSH1 0x0 PUSH1 0x20 DUP3 ADD SWAP1 POP DUP2 DUP2 SUB PUSH1 0x0 DUP4 ADD MSTORE PUSH2 0x520 DUP2 DUP5 PUSH2 0x4A3 JUMP JUMPDEST SWAP1 POP SWAP3 SWAP2 POP POP JUMP JUMPDEST PUSH1 0x0 PUSH1 0x20 DUP3 ADD SWAP1 POP PUSH2 0x53D PUSH1 0x0 DUP4 ADD DUP5 PUSH2 0x4DC JUMP JUMPDEST SWAP3 SWAP2 POP POP JUMP JUMPDEST PUSH1 0x0 PUSH2 0x54D PUSH2 0x55E JUMP JUMPDEST SWAP1 POP PUSH2 0x559 DUP3 DUP3 PUSH2 0x677 JUMP JUMPDEST SWAP2 SWAP1 POP JUMP JUMPDEST PUSH1 0x0 PUSH1 0x40 MLOAD SWAP1 POP SWAP1 JUMP JUMPDEST PUSH1 0x0 PUSH8 0xFFFFFFFFFFFFFFFF DUP3 GT ISZERO PUSH2 0x583 JUMPI PUSH2 0x582 PUSH2 0x6D7 JUMP JUMPDEST JUMPDEST PUSH2 0x58C DUP3 PUSH2 0x71A JUMP JUMPDEST SWAP1 POP PUSH1 0x20 DUP2 ADD SWAP1 POP SWAP2 SWAP1 POP JUMP JUMPDEST PUSH1 0x0 DUP2 MLOAD SWAP1 POP SWAP2 SWAP1 POP JUMP JUMPDEST PUSH1 0x0 DUP3 DUP3 MSTORE PUSH1 0x20 DUP3 ADD SWAP1 POP SWAP3 SWAP2 POP POP JUMP JUMPDEST PUSH1 0x0 PUSH2 0x5C0 DUP3 PUSH2 0x5D9 JUMP JUMPDEST SWAP1 POP SWAP2 SWAP1 POP JUMP JUMPDEST PUSH1 0x0 PUSH2 0x5D2 DUP3 PUSH2 0x5D9 JUMP JUMPDEST SWAP1 POP SWAP2 SWAP1 POP JUMP JUMPDEST PUSH1 0x0 PUSH20 0xFFFFFFFFFFFFFFFFFFFFFFFFFFFFFFFFFFFFFFFF DUP3 AND SWAP1 POP SWAP2 SWAP1 POP JUMP JUMPDEST PUSH1 0x0 DUP2 SWAP1 POP SWAP2 SWAP1 POP JUMP JUMPDEST DUP3 DUP2 DUP4 CALLDATACOPY PUSH1 0x0 DUP4 DUP4 ADD MSTORE POP POP POP JUMP JUMPDEST PUSH1 0x0 JUMPDEST DUP4 DUP2 LT ISZERO PUSH2 0x630 JUMPI DUP1 DUP3 ADD MLOAD DUP2 DUP5 ADD MSTORE PUSH1 0x20 DUP2 ADD SWAP1 POP PUSH2 0x615 JUMP JUMPDEST DUP4 DUP2 GT ISZERO PUSH2 0x63F JUMPI PUSH1 0x0 DUP5 DUP5 ADD MSTORE JUMPDEST POP POP POP POP JUMP JUMPDEST PUSH1 0x0 PUSH1 0x2 DUP3 DIV SWAP1 POP PUSH1 0x1 DUP3 AND DUP1 PUSH2 0x65D JUMPI PUSH1 0x7F DUP3 AND SWAP2 POP JUMPDEST PUSH1 0x20 DUP3 LT DUP2 EQ ISZERO PUSH2 0x671 JUMPI PUSH2 0x670 PUSH2 0x6A8 JUMP JUMPDEST JUMPDEST POP SWAP2 SWAP1 POP JUMP JUMPDEST PUSH2 0x680 DUP3 PUSH2 0x71A JUMP JUMPDEST DUP2 ADD DUP2 DUP2 LT PUSH8 0xFFFFFFFFFFFFFFFF DUP3 GT OR ISZERO PUSH2 0x69F JUMPI PUSH2 0x69E PUSH2 0x6D7 JUMP JUMPDEST JUMPDEST DUP1 PUSH1 0x40 MSTORE POP POP POP JUMP JUMPDEST PUSH32 0x4E487B7100000000000000000000000000000000000000000000000000000000 PUSH1 0x0 MSTORE PUSH1 0x22 PUSH1 0x4 MSTORE PUSH1 0x24 PUSH1 0x0 REVERT JUMPDEST PUSH32 0x4E487B7100000000000000000000000000000000000000000000000000000000 PUSH1 0x0 MSTORE PUSH1 0x41 PUSH1 0x4 MSTORE PUSH1 0x24 PUSH1 0x0 REVERT JUMPDEST PUSH1 0x0 DUP1 REVERT JUMPDEST PUSH1 0x0 DUP1 REVERT JUMPDEST PUSH1 0x0 DUP1 REVERT JUMPDEST PUSH1 0x0 DUP1 REVERT JUMPDEST PUSH1 0x0 PUSH1 0x1F NOT PUSH1 0x1F DUP4 ADD AND SWAP1 POP SWAP2 SWAP1 POP JUMP JUMPDEST PUSH2 0x734 DUP2 PUSH2 0x5C7 JUMP JUMPDEST DUP2 EQ PUSH2 0x73F JUMPI PUSH1 0x0 DUP1 REVERT JUMPDEST POP JUMP JUMPDEST PUSH2 0x74B DUP2 PUSH2 0x5F9 JUMP JUMPDEST DUP2 EQ PUSH2 0x756 JUMPI PUSH1 0x0 DUP1 REVERT JUMPDEST POP JUMP INVALID LOG2 PUSH5 0x6970667358 0x22 SLT KECCAK256 DUP16 0xC9 0xF8 0xD2 0xD3 0xDA PUSH11 0xA7C685CF38E2FDF061D32E PUSH2 0x5725 0xD7 AND PUSH29 0x5B0DDD436545072D64736F6C6343000807003300000000000000000000 "
				},
				"gasEstimates": {
					"creation": {
						"codeDepositCost": "387000",
						"executionCost": "infinite",
						"totalCost": "infinite"
					},
					"external": {
						"getBalance()": "5057",
						"myAddress()": "2514",
						"myStr()": "infinite",
						"receiveMoney()": "208",
						"temp(string)": "infinite",
						"transferTo(address,uint256)": "infinite"
					}
				},
				"methodIdentifiers": {
					"getBalance()": "12065fe0",
					"myAddress()": "26b85ee1",
					"myStr()": "5a455c1c",
					"receiveMoney()": "6d26ec18",
					"temp(string)": "6ba31b48",
					"transferTo(address,uint256)": "2ccb1b30"
				}
			},
			"storageLayout": {
				"storage": [
					{
						"astId": 4,
						"contract": "contracts/Lesson2Types.sol:Str2Lesson",
						"label": "myStr",
						"offset": 0,
						"slot": "0",
						"type": "t_string_storage"
					},
					{
						"astId": 21,
						"contract": "contracts/Lesson2Types.sol:Str2Lesson",
						"label": "myAddress",
						"offset": 0,
						"slot": "1",
						"type": "t_address"
					}
				],
				"types": {
					"t_address": {
						"encoding": "inplace",
						"label": "address",
						"numberOfBytes": "20"
					},
					"t_string_storage": {
						"encoding": "bytes",
						"label": "string",
						"numberOfBytes": "32"
					}
				}
			},
			"userdoc": {
				"kind": "user",
				"methods": {},
				"version": 1
			}
		}
	}
}