{
	"contracts/Lesson4Types.sol": {
		"Array4Lesson": {
			"abi": [
				{
					"inputs": [
						{
							"internalType": "uint256",
							"name": "",
							"type": "uint256"
						}
					],
					"name": "dynArr",
					"outputs": [
						{
							"internalType": "uint256",
							"name": "",
							"type": "uint256"
						}
					],
					"stateMutability": "view",
					"type": "function"
				},
				{
					"inputs": [],
					"name": "hobait",
					"outputs": [
						{
							"internalType": "bytes",
							"name": "",
							"type": "bytes"
						}
					],
					"stateMutability": "view",
					"type": "function"
				},
				{
					"inputs": [],
					"name": "hobit",
					"outputs": [
						{
							"internalType": "bytes31",
							"name": "",
							"type": "bytes31"
						}
					],
					"stateMutability": "view",
					"type": "function"
				},
				{
					"inputs": [
						{
							"internalType": "uint256",
							"name": "",
							"type": "uint256"
						}
					],
					"name": "items",
					"outputs": [
						{
							"internalType": "uint256",
							"name": "",
							"type": "uint256"
						}
					],
					"stateMutability": "view",
					"type": "function"
				},
				{
					"inputs": [
						{
							"internalType": "uint256",
							"name": "",
							"type": "uint256"
						}
					],
					"name": "list",
					"outputs": [
						{
							"internalType": "string",
							"name": "",
							"type": "string"
						}
					],
					"stateMutability": "view",
					"type": "function"
				},
				{
					"inputs": [
						{
							"internalType": "uint256",
							"name": "",
							"type": "uint256"
						},
						{
							"internalType": "uint256",
							"name": "",
							"type": "uint256"
						}
					],
					"name": "matrix",
					"outputs": [
						{
							"internalType": "uint256",
							"name": "",
							"type": "uint256"
						}
					],
					"stateMutability": "view",
					"type": "function"
				},
				{
					"inputs": [
						{
							"internalType": "uint256",
							"name": "num",
							"type": "uint256"
						}
					],
					"name": "modDynamicArr",
					"outputs": [],
					"stateMutability": "nonpayable",
					"type": "function"
				},
				{
					"inputs": [],
					"name": "modifyArray",
					"outputs": [],
					"stateMutability": "nonpayable",
					"type": "function"
				},
				{
					"inputs": [],
					"name": "sampleMemory",
					"outputs": [
						{
							"internalType": "uint256[]",
							"name": "",
							"type": "uint256[]"
						}
					],
					"stateMutability": "view",
					"type": "function"
				}
			],
			"devdoc": {
				"kind": "dev",
				"methods": {},
				"version": 1
			},
			"evm": {
				"assembly": "    /* \"contracts/Lesson4Types.sol\":58:1052  contract Array4Lesson {... */\n  mstore(0x40, 0x80)\n    /* \"contracts/Lesson4Types.sol\":91:126  uint[10] public items = [10, 20, 1] */\n  mload(0x40)\n  dup1\n  0x60\n  add\n  0x40\n  mstore\n  dup1\n    /* \"contracts/Lesson4Types.sol\":116:118  10 */\n  0x0a\n    /* \"contracts/Lesson4Types.sol\":91:126  uint[10] public items = [10, 20, 1] */\n  0xff\n  and\n  dup2\n  mstore\n  0x20\n  add\n    /* \"contracts/Lesson4Types.sol\":120:122  20 */\n  0x14\n    /* \"contracts/Lesson4Types.sol\":91:126  uint[10] public items = [10, 20, 1] */\n  0xff\n  and\n  dup2\n  mstore\n  0x20\n  add\n    /* \"contracts/Lesson4Types.sol\":124:125  1 */\n  0x01\n    /* \"contracts/Lesson4Types.sol\":91:126  uint[10] public items = [10, 20, 1] */\n  0xff\n  and\n  dup2\n  mstore\n  pop\n  0x00\n  swap1\n  0x03\n  tag_1\n  swap3\n  swap2\n  swap1\n  tag_2\n  jump\t// in\ntag_1:\n  pop\n    /* \"contracts/Lesson4Types.sol\":132:163  string[2] public list = ['str'] */\n  mload(0x40)\n  dup1\n  0x20\n  add\n  0x40\n  mstore\n  dup1\n  mload(0x40)\n  dup1\n  0x40\n  add\n  0x40\n  mstore\n  dup1\n  0x03\n  dup2\n  mstore\n  0x20\n  add\n  0x7374720000000000000000000000000000000000000000000000000000000000\n  dup2\n  mstore\n  pop\n  dup2\n  mstore\n  pop\n  0x0a\n  swap1\n  0x01\n  tag_3\n  swap3\n  swap2\n  swap1\n  tag_4\n  jump\t// in\ntag_3:\n  pop\n    /* \"contracts/Lesson4Types.sol\":274:275  0 */\n  0x00\n    /* \"contracts/Lesson4Types.sol\":254:275  uint dynArrLength = 0 */\n  0x17\n  sstore\n    /* \"contracts/Lesson4Types.sol\":283:313  bytes31 public hobit = \"Bilbo\" */\n  0x42696c626f000000000000000000000000000000000000000000000000000000\n  0x18\n  exp(0x0100, 0x00)\n  dup2\n  sload\n  dup2\n  0xffffffffffffffffffffffffffffffffffffffffffffffffffffffffffffff\n  mul\n  not\n  and\n  swap1\n  dup4\n  0x08\n  shr\n  mul\n  or\n  swap1\n  sstore\n  pop\n    /* \"contracts/Lesson4Types.sol\":361:390  bytes public hobait = \"Bilbo\" */\n  mload(0x40)\n  dup1\n  0x40\n  add\n  0x40\n  mstore\n  dup1\n  0x05\n  dup2\n  mstore\n  0x20\n  add\n  0x42696c626f000000000000000000000000000000000000000000000000000000\n  dup2\n  mstore\n  pop\n  0x19\n  swap1\n  dup1\n  mload\n  swap1\n  0x20\n  add\n  swap1\n  tag_5\n  swap3\n  swap2\n  swap1\n  tag_6\n  jump\t// in\ntag_5:\n  pop\n    /* \"contracts/Lesson4Types.sol\":58:1052  contract Array4Lesson {... */\n  callvalue\n  dup1\n  iszero\n  tag_7\n  jumpi\n  0x00\n  dup1\n  revert\ntag_7:\n  pop\n  jump(tag_8)\ntag_2:\n  dup3\n  0x0a\n  dup2\n  add\n  swap3\n  dup3\n  iszero\n  tag_9\n  jumpi\n  swap2\n  0x20\n  mul\n  dup3\n  add\ntag_10:\n  dup3\n  dup2\n  gt\n  iszero\n  tag_11\n  jumpi\n  dup3\n  mload\n  dup3\n  swap1\n  0xff\n  and\n  swap1\n  sstore\n  swap2\n  0x20\n  add\n  swap2\n  swap1\n  0x01\n  add\n  swap1\n  jump(tag_10)\ntag_11:\ntag_9:\n  pop\n  swap1\n  pop\n  tag_12\n  swap2\n  swap1\n  tag_13\n  jump\t// in\ntag_12:\n  pop\n  swap1\n  jump\t// out\ntag_4:\n  dup3\n  0x02\n  dup2\n  add\n  swap3\n  dup3\n  iszero\n  tag_14\n  jumpi\n  swap2\n  0x20\n  mul\n  dup3\n  add\ntag_15:\n  dup3\n  dup2\n  gt\n  iszero\n  tag_16\n  jumpi\n  dup3\n  mload\n  dup3\n  swap1\n  dup1\n  mload\n  swap1\n  0x20\n  add\n  swap1\n  tag_17\n  swap3\n  swap2\n  swap1\n  tag_18\n  jump\t// in\ntag_17:\n  pop\n  swap2\n  0x20\n  add\n  swap2\n  swap1\n  0x01\n  add\n  swap1\n  jump(tag_15)\ntag_16:\ntag_14:\n  pop\n  swap1\n  pop\n  tag_19\n  swap2\n  swap1\n  tag_20\n  jump\t// in\ntag_19:\n  pop\n  swap1\n  jump\t// out\ntag_6:\n  dup3\n  dup1\n  sload\n  tag_21\n  swap1\n  tag_22\n  jump\t// in\ntag_21:\n  swap1\n  0x00\n  mstore\n  keccak256(0x00, 0x20)\n  swap1\n  0x1f\n  add\n  0x20\n  swap1\n  div\n  dup2\n  add\n  swap3\n  dup3\n  tag_24\n  jumpi\n  0x00\n  dup6\n  sstore\n  jump(tag_23)\ntag_24:\n  dup3\n  0x1f\n  lt\n  tag_25\n  jumpi\n  dup1\n  mload\n  not(0xff)\n  and\n  dup4\n  dup1\n  add\n  or\n  dup6\n  sstore\n  jump(tag_23)\ntag_25:\n  dup3\n  dup1\n  add\n  0x01\n  add\n  dup6\n  sstore\n  dup3\n  iszero\n  tag_23\n  jumpi\n  swap2\n  dup3\n  add\ntag_26:\n  dup3\n  dup2\n  gt\n  iszero\n  tag_27\n  jumpi\n  dup3\n  mload\n  dup3\n  sstore\n  swap2\n  0x20\n  add\n  swap2\n  swap1\n  0x01\n  add\n  swap1\n  jump(tag_26)\ntag_27:\ntag_23:\n  pop\n  swap1\n  pop\n  tag_28\n  swap2\n  swap1\n  tag_13\n  jump\t// in\ntag_28:\n  pop\n  swap1\n  jump\t// out\ntag_13:\ntag_29:\n  dup1\n  dup3\n  gt\n  iszero\n  tag_30\n  jumpi\n  0x00\n  dup2\n  0x00\n  swap1\n  sstore\n  pop\n  0x01\n  add\n  jump(tag_29)\ntag_30:\n  pop\n  swap1\n  jump\t// out\ntag_18:\n  dup3\n  dup1\n  sload\n  tag_31\n  swap1\n  tag_22\n  jump\t// in\ntag_31:\n  swap1\n  0x00\n  mstore\n  keccak256(0x00, 0x20)\n  swap1\n  0x1f\n  add\n  0x20\n  swap1\n  div\n  dup2\n  add\n  swap3\n  dup3\n  tag_33\n  jumpi\n  0x00\n  dup6\n  sstore\n  jump(tag_32)\ntag_33:\n  dup3\n  0x1f\n  lt\n  tag_34\n  jumpi\n  dup1\n  mload\n  not(0xff)\n  and\n  dup4\n  dup1\n  add\n  or\n  dup6\n  sstore\n  jump(tag_32)\ntag_34:\n  dup3\n  dup1\n  add\n  0x01\n  add\n  dup6\n  sstore\n  dup3\n  iszero\n  tag_32\n  jumpi\n  swap2\n  dup3\n  add\ntag_35:\n  dup3\n  dup2\n  gt\n  iszero\n  tag_36\n  jumpi\n  dup3\n  mload\n  dup3\n  sstore\n  swap2\n  0x20\n  add\n  swap2\n  swap1\n  0x01\n  add\n  swap1\n  jump(tag_35)\ntag_36:\ntag_32:\n  pop\n  swap1\n  pop\n  tag_37\n  swap2\n  swap1\n  tag_13\n  jump\t// in\ntag_37:\n  pop\n  swap1\n  jump\t// out\ntag_20:\ntag_38:\n  dup1\n  dup3\n  gt\n  iszero\n  tag_39\n  jumpi\n  0x00\n  dup2\n  dup2\n  tag_40\n  swap2\n  swap1\n  tag_41\n  jump\t// in\ntag_40:\n  pop\n  0x01\n  add\n  jump(tag_38)\ntag_39:\n  pop\n  swap1\n  jump\t// out\ntag_41:\n  pop\n  dup1\n  sload\n  tag_42\n  swap1\n  tag_22\n  jump\t// in\ntag_42:\n  0x00\n  dup3\n  sstore\n  dup1\n  0x1f\n  lt\n  tag_44\n  jumpi\n  pop\n  jump(tag_43)\ntag_44:\n  0x1f\n  add\n  0x20\n  swap1\n  div\n  swap1\n  0x00\n  mstore\n  keccak256(0x00, 0x20)\n  swap1\n  dup2\n  add\n  swap1\n  tag_45\n  swap2\n  swap1\n  tag_13\n  jump\t// in\ntag_45:\ntag_43:\n  pop\n  jump\t// out\n    /* \"#utility.yul\":7:327   */\ntag_22:\n    /* \"#utility.yul\":51:57   */\n  0x00\n    /* \"#utility.yul\":88:89   */\n  0x02\n    /* \"#utility.yul\":82:86   */\n  dup3\n    /* \"#utility.yul\":78:90   */\n  div\n    /* \"#utility.yul\":68:90   */\n  swap1\n  pop\n    /* \"#utility.yul\":135:136   */\n  0x01\n    /* \"#utility.yul\":129:133   */\n  dup3\n    /* \"#utility.yul\":125:137   */\n  and\n    /* \"#utility.yul\":156:174   */\n  dup1\n    /* \"#utility.yul\":146:227   */\n  tag_48\n  jumpi\n    /* \"#utility.yul\":212:216   */\n  0x7f\n    /* \"#utility.yul\":204:210   */\n  dup3\n    /* \"#utility.yul\":200:217   */\n  and\n    /* \"#utility.yul\":190:217   */\n  swap2\n  pop\n    /* \"#utility.yul\":146:227   */\ntag_48:\n    /* \"#utility.yul\":274:276   */\n  0x20\n    /* \"#utility.yul\":266:272   */\n  dup3\n    /* \"#utility.yul\":263:277   */\n  lt\n    /* \"#utility.yul\":243:261   */\n  dup2\n    /* \"#utility.yul\":240:278   */\n  eq\n    /* \"#utility.yul\":237:321   */\n  iszero\n  tag_49\n  jumpi\n    /* \"#utility.yul\":293:311   */\n  tag_50\n  tag_51\n  jump\t// in\ntag_50:\n    /* \"#utility.yul\":237:321   */\ntag_49:\n    /* \"#utility.yul\":58:327   */\n  pop\n    /* \"#utility.yul\":7:327   */\n  swap2\n  swap1\n  pop\n  jump\t// out\n    /* \"#utility.yul\":333:513   */\ntag_51:\n    /* \"#utility.yul\":381:458   */\n  0x4e487b7100000000000000000000000000000000000000000000000000000000\n    /* \"#utility.yul\":378:379   */\n  0x00\n    /* \"#utility.yul\":371:459   */\n  mstore\n    /* \"#utility.yul\":478:482   */\n  0x22\n    /* \"#utility.yul\":475:476   */\n  0x04\n    /* \"#utility.yul\":468:483   */\n  mstore\n    /* \"#utility.yul\":502:506   */\n  0x24\n    /* \"#utility.yul\":499:500   */\n  0x00\n    /* \"#utility.yul\":492:507   */\n  revert\n    /* \"contracts/Lesson4Types.sol\":58:1052  contract Array4Lesson {... */\ntag_8:\n  dataSize(sub_0)\n  dup1\n  dataOffset(sub_0)\n  0x00\n  codecopy\n  0x00\n  return\nstop\n\nsub_0: assembly {\n        /* \"contracts/Lesson4Types.sol\":58:1052  contract Array4Lesson {... */\n      mstore(0x40, 0x80)\n      callvalue\n      dup1\n      iszero\n      tag_1\n      jumpi\n      0x00\n      dup1\n      revert\n    tag_1:\n      pop\n      jumpi(tag_2, lt(calldatasize, 0x04))\n      shr(0xe0, calldataload(0x00))\n      dup1\n      0xbfb231d2\n      gt\n      tag_12\n      jumpi\n      dup1\n      0xbfb231d2\n      eq\n      tag_7\n      jumpi\n      dup1\n      0xce8a7af6\n      eq\n      tag_8\n      jumpi\n      dup1\n      0xd9a38d64\n      eq\n      tag_9\n      jumpi\n      dup1\n      0xe334d9d9\n      eq\n      tag_10\n      jumpi\n      dup1\n      0xe3440466\n      eq\n      tag_11\n      jumpi\n      jump(tag_2)\n    tag_12:\n      dup1\n      0x304acd68\n      eq\n      tag_3\n      jumpi\n      dup1\n      0x5a79b850\n      eq\n      tag_4\n      jumpi\n      dup1\n      0x80c9419e\n      eq\n      tag_5\n      jumpi\n      dup1\n      0xa34343c9\n      eq\n      tag_6\n      jumpi\n    tag_2:\n      0x00\n      dup1\n      revert\n        /* \"contracts/Lesson4Types.sol\":471:696  function modifyArray() public {... */\n    tag_3:\n      tag_13\n      tag_14\n      jump\t// in\n    tag_13:\n      stop\n        /* \"contracts/Lesson4Types.sol\":228:248  uint[] public dynArr */\n    tag_4:\n      tag_15\n      0x04\n      dup1\n      calldatasize\n      sub\n      dup2\n      add\n      swap1\n      tag_16\n      swap2\n      swap1\n      tag_17\n      jump\t// in\n    tag_16:\n      tag_18\n      jump\t// in\n    tag_15:\n      mload(0x40)\n      tag_19\n      swap2\n      swap1\n      tag_20\n      jump\t// in\n    tag_19:\n      mload(0x40)\n      dup1\n      swap2\n      sub\n      swap1\n      return\n        /* \"contracts/Lesson4Types.sol\":132:163  string[2] public list = ['str'] */\n    tag_5:\n      tag_21\n      0x04\n      dup1\n      calldatasize\n      sub\n      dup2\n      add\n      swap1\n      tag_22\n      swap2\n      swap1\n      tag_17\n      jump\t// in\n    tag_22:\n      tag_23\n      jump\t// in\n    tag_21:\n      mload(0x40)\n      tag_24\n      swap2\n      swap1\n      tag_25\n      jump\t// in\n    tag_24:\n      mload(0x40)\n      dup1\n      swap2\n      sub\n      swap1\n      return\n        /* \"contracts/Lesson4Types.sol\":702:862  function sampleMemory() public view returns(uint[] memory){... */\n    tag_6:\n      tag_26\n      tag_27\n      jump\t// in\n    tag_26:\n      mload(0x40)\n      tag_28\n      swap2\n      swap1\n      tag_29\n      jump\t// in\n    tag_28:\n      mload(0x40)\n      dup1\n      swap2\n      sub\n      swap1\n      return\n        /* \"contracts/Lesson4Types.sol\":91:126  uint[10] public items = [10, 20, 1] */\n    tag_7:\n      tag_30\n      0x04\n      dup1\n      calldatasize\n      sub\n      dup2\n      add\n      swap1\n      tag_31\n      swap2\n      swap1\n      tag_17\n      jump\t// in\n    tag_31:\n      tag_32\n      jump\t// in\n    tag_30:\n      mload(0x40)\n      tag_33\n      swap2\n      swap1\n      tag_20\n      jump\t// in\n    tag_33:\n      mload(0x40)\n      dup1\n      swap2\n      sub\n      swap1\n      return\n        /* \"contracts/Lesson4Types.sol\":361:390  bytes public hobait = \"Bilbo\" */\n    tag_8:\n      tag_34\n      tag_35\n      jump\t// in\n    tag_34:\n      mload(0x40)\n      tag_36\n      swap2\n      swap1\n      tag_37\n      jump\t// in\n    tag_36:\n      mload(0x40)\n      dup1\n      swap2\n      sub\n      swap1\n      return\n        /* \"contracts/Lesson4Types.sol\":170:194  uint[2][5] public matrix */\n    tag_9:\n      tag_38\n      0x04\n      dup1\n      calldatasize\n      sub\n      dup2\n      add\n      swap1\n      tag_39\n      swap2\n      swap1\n      tag_40\n      jump\t// in\n    tag_39:\n      tag_41\n      jump\t// in\n    tag_38:\n      mload(0x40)\n      tag_42\n      swap2\n      swap1\n      tag_20\n      jump\t// in\n    tag_42:\n      mload(0x40)\n      dup1\n      swap2\n      sub\n      swap1\n      return\n        /* \"contracts/Lesson4Types.sol\":283:313  bytes31 public hobit = \"Bilbo\" */\n    tag_10:\n      tag_43\n      tag_44\n      jump\t// in\n    tag_43:\n      mload(0x40)\n      tag_45\n      swap2\n      swap1\n      tag_46\n      jump\t// in\n    tag_45:\n      mload(0x40)\n      dup1\n      swap2\n      sub\n      swap1\n      return\n        /* \"contracts/Lesson4Types.sol\":868:1044  function modDynamicArr(uint num) public {... */\n    tag_11:\n      tag_47\n      0x04\n      dup1\n      calldatasize\n      sub\n      dup2\n      add\n      swap1\n      tag_48\n      swap2\n      swap1\n      tag_17\n      jump\t// in\n    tag_48:\n      tag_49\n      jump\t// in\n    tag_47:\n      stop\n        /* \"contracts/Lesson4Types.sol\":471:696  function modifyArray() public {... */\n    tag_14:\n        /* \"contracts/Lesson4Types.sol\":533:534  5 */\n      0x05\n        /* \"contracts/Lesson4Types.sol\":522:527  items */\n      0x00\n        /* \"contracts/Lesson4Types.sol\":528:529  0 */\n      dup1\n        /* \"contracts/Lesson4Types.sol\":522:530  items[0] */\n      0x0a\n      dup2\n      lt\n      tag_51\n      jumpi\n      tag_52\n      tag_53\n      jump\t// in\n    tag_52:\n    tag_51:\n      add\n      sload\n        /* \"contracts/Lesson4Types.sol\":522:534  items[0] * 5 */\n      tag_55\n      swap2\n      swap1\n      tag_56\n      jump\t// in\n    tag_55:\n        /* \"contracts/Lesson4Types.sol\":511:516  items */\n      0x00\n        /* \"contracts/Lesson4Types.sol\":517:518  0 */\n      dup1\n        /* \"contracts/Lesson4Types.sol\":511:519  items[0] */\n      0x0a\n      dup2\n      lt\n      tag_57\n      jumpi\n      tag_58\n      tag_53\n      jump\t// in\n    tag_58:\n    tag_57:\n      add\n        /* \"contracts/Lesson4Types.sol\":511:534  items[0] = items[0] * 5 */\n      dup2\n      swap1\n      sstore\n      pop\n        /* \"contracts/Lesson4Types.sol\":555:560  items */\n      0x00\n        /* \"contracts/Lesson4Types.sol\":561:562  0 */\n      dup1\n        /* \"contracts/Lesson4Types.sol\":555:563  items[0] */\n      0x0a\n      dup2\n      lt\n      tag_60\n      jumpi\n      tag_61\n      tag_53\n      jump\t// in\n    tag_61:\n    tag_60:\n      add\n      sload\n        /* \"contracts/Lesson4Types.sol\":544:549  items */\n      0x00\n        /* \"contracts/Lesson4Types.sol\":550:551  5 */\n      0x05\n        /* \"contracts/Lesson4Types.sol\":544:552  items[5] */\n      0x0a\n      dup2\n      lt\n      tag_63\n      jumpi\n      tag_64\n      tag_53\n      jump\t// in\n    tag_64:\n    tag_63:\n      add\n        /* \"contracts/Lesson4Types.sol\":544:563  items[5] = items[0] */\n      dup2\n      swap1\n      sstore\n      pop\n        /* \"contracts/Lesson4Types.sol\":575:689  matrix = [... */\n      mload(0x40)\n      dup1\n      0xa0\n      add\n      0x40\n      mstore\n      dup1\n      mload(0x40)\n      dup1\n      0x40\n      add\n      0x40\n      mstore\n      dup1\n        /* \"contracts/Lesson4Types.sol\":599:600  1 */\n      0x01\n        /* \"contracts/Lesson4Types.sol\":575:689  matrix = [... */\n      0xff\n      and\n      dup2\n      mstore\n      0x20\n      add\n        /* \"contracts/Lesson4Types.sol\":601:602  2 */\n      0x02\n        /* \"contracts/Lesson4Types.sol\":575:689  matrix = [... */\n      0xff\n      and\n      dup2\n      mstore\n      pop\n      dup2\n      mstore\n      0x20\n      add\n      mload(0x40)\n      dup1\n      0x40\n      add\n      0x40\n      mstore\n      dup1\n        /* \"contracts/Lesson4Types.sol\":618:619  1 */\n      0x01\n        /* \"contracts/Lesson4Types.sol\":575:689  matrix = [... */\n      0xff\n      and\n      dup2\n      mstore\n      0x20\n      add\n        /* \"contracts/Lesson4Types.sol\":620:621  2 */\n      0x02\n        /* \"contracts/Lesson4Types.sol\":575:689  matrix = [... */\n      0xff\n      and\n      dup2\n      mstore\n      pop\n      dup2\n      mstore\n      0x20\n      add\n      mload(0x40)\n      dup1\n      0x40\n      add\n      0x40\n      mstore\n      dup1\n        /* \"contracts/Lesson4Types.sol\":637:638  1 */\n      0x01\n        /* \"contracts/Lesson4Types.sol\":575:689  matrix = [... */\n      0xff\n      and\n      dup2\n      mstore\n      0x20\n      add\n        /* \"contracts/Lesson4Types.sol\":639:640  2 */\n      0x02\n        /* \"contracts/Lesson4Types.sol\":575:689  matrix = [... */\n      0xff\n      and\n      dup2\n      mstore\n      pop\n      dup2\n      mstore\n      0x20\n      add\n      mload(0x40)\n      dup1\n      0x40\n      add\n      0x40\n      mstore\n      dup1\n        /* \"contracts/Lesson4Types.sol\":656:657  1 */\n      0x01\n        /* \"contracts/Lesson4Types.sol\":575:689  matrix = [... */\n      0xff\n      and\n      dup2\n      mstore\n      0x20\n      add\n        /* \"contracts/Lesson4Types.sol\":658:659  2 */\n      0x02\n        /* \"contracts/Lesson4Types.sol\":575:689  matrix = [... */\n      0xff\n      and\n      dup2\n      mstore\n      pop\n      dup2\n      mstore\n      0x20\n      add\n      mload(0x40)\n      dup1\n      0x40\n      add\n      0x40\n      mstore\n      dup1\n        /* \"contracts/Lesson4Types.sol\":675:676  1 */\n      0x01\n        /* \"contracts/Lesson4Types.sol\":575:689  matrix = [... */\n      0xff\n      and\n      dup2\n      mstore\n      0x20\n      add\n        /* \"contracts/Lesson4Types.sol\":677:678  2 */\n      0x02\n        /* \"contracts/Lesson4Types.sol\":575:689  matrix = [... */\n      0xff\n      and\n      dup2\n      mstore\n      pop\n      dup2\n      mstore\n      pop\n        /* \"contracts/Lesson4Types.sol\":575:581  matrix */\n      0x0c\n        /* \"contracts/Lesson4Types.sol\":575:689  matrix = [... */\n      swap1\n      0x05\n      tag_66\n      swap3\n      swap2\n      swap1\n      tag_67\n      jump\t// in\n    tag_66:\n      pop\n        /* \"contracts/Lesson4Types.sol\":471:696  function modifyArray() public {... */\n      jump\t// out\n        /* \"contracts/Lesson4Types.sol\":228:248  uint[] public dynArr */\n    tag_18:\n      0x16\n      dup2\n      dup2\n      sload\n      dup2\n      lt\n      tag_68\n      jumpi\n      0x00\n      dup1\n      revert\n    tag_68:\n      swap1\n      0x00\n      mstore\n      keccak256(0x00, 0x20)\n      add\n      0x00\n      swap2\n      pop\n      swap1\n      pop\n      sload\n      dup2\n      jump\t// out\n        /* \"contracts/Lesson4Types.sol\":132:163  string[2] public list = ['str'] */\n    tag_23:\n      0x0a\n      dup2\n      0x02\n      dup2\n      lt\n      tag_70\n      jumpi\n      0x00\n      dup1\n      revert\n    tag_70:\n      add\n      0x00\n      swap2\n      pop\n      swap1\n      pop\n      dup1\n      sload\n      tag_72\n      swap1\n      tag_73\n      jump\t// in\n    tag_72:\n      dup1\n      0x1f\n      add\n      0x20\n      dup1\n      swap2\n      div\n      mul\n      0x20\n      add\n      mload(0x40)\n      swap1\n      dup2\n      add\n      0x40\n      mstore\n      dup1\n      swap3\n      swap2\n      swap1\n      dup2\n      dup2\n      mstore\n      0x20\n      add\n      dup3\n      dup1\n      sload\n      tag_74\n      swap1\n      tag_73\n      jump\t// in\n    tag_74:\n      dup1\n      iszero\n      tag_75\n      jumpi\n      dup1\n      0x1f\n      lt\n      tag_76\n      jumpi\n      0x0100\n      dup1\n      dup4\n      sload\n      div\n      mul\n      dup4\n      mstore\n      swap2\n      0x20\n      add\n      swap2\n      jump(tag_75)\n    tag_76:\n      dup3\n      add\n      swap2\n      swap1\n      0x00\n      mstore\n      keccak256(0x00, 0x20)\n      swap1\n    tag_77:\n      dup2\n      sload\n      dup2\n      mstore\n      swap1\n      0x01\n      add\n      swap1\n      0x20\n      add\n      dup1\n      dup4\n      gt\n      tag_77\n      jumpi\n      dup3\n      swap1\n      sub\n      0x1f\n      and\n      dup3\n      add\n      swap2\n    tag_75:\n      pop\n      pop\n      pop\n      pop\n      pop\n      dup2\n      jump\t// out\n        /* \"contracts/Lesson4Types.sol\":702:862  function sampleMemory() public view returns(uint[] memory){... */\n    tag_27:\n        /* \"contracts/Lesson4Types.sol\":746:759  uint[] memory */\n      0x60\n        /* \"contracts/Lesson4Types.sol\":770:791  uint[] memory tempArr */\n      0x00\n        /* \"contracts/Lesson4Types.sol\":805:806  5 */\n      0x05\n        /* \"contracts/Lesson4Types.sol\":794:807  new uint[](5) */\n      0xffffffffffffffff\n      dup2\n      gt\n      iszero\n      tag_79\n      jumpi\n      tag_80\n      tag_81\n      jump\t// in\n    tag_80:\n    tag_79:\n      mload(0x40)\n      swap1\n      dup1\n      dup3\n      mstore\n      dup1\n      0x20\n      mul\n      0x20\n      add\n      dup3\n      add\n      0x40\n      mstore\n      dup1\n      iszero\n      tag_82\n      jumpi\n      dup2\n      0x20\n      add\n      0x20\n      dup3\n      mul\n      dup1\n      calldatasize\n      dup4\n      calldatacopy\n      dup1\n      dup3\n      add\n      swap2\n      pop\n      pop\n      swap1\n      pop\n    tag_82:\n      pop\n        /* \"contracts/Lesson4Types.sol\":770:807  uint[] memory tempArr = new uint[](5) */\n      swap1\n      pop\n        /* \"contracts/Lesson4Types.sol\":830:831  0 */\n      0x00\n        /* \"contracts/Lesson4Types.sol\":817:824  tempArr */\n      dup2\n        /* \"contracts/Lesson4Types.sol\":825:826  4 */\n      0x04\n        /* \"contracts/Lesson4Types.sol\":817:827  tempArr[4] */\n      dup2\n      mload\n      dup2\n      lt\n      tag_83\n      jumpi\n      tag_84\n      tag_53\n      jump\t// in\n    tag_84:\n    tag_83:\n      0x20\n      mul\n      0x20\n      add\n      add\n        /* \"contracts/Lesson4Types.sol\":817:831  tempArr[4] = 0 */\n      dup2\n      dup2\n      mstore\n      pop\n      pop\n        /* \"contracts/Lesson4Types.sol\":848:855  tempArr */\n      dup1\n        /* \"contracts/Lesson4Types.sol\":841:855  return tempArr */\n      swap2\n      pop\n      pop\n        /* \"contracts/Lesson4Types.sol\":702:862  function sampleMemory() public view returns(uint[] memory){... */\n      swap1\n      jump\t// out\n        /* \"contracts/Lesson4Types.sol\":91:126  uint[10] public items = [10, 20, 1] */\n    tag_32:\n      0x00\n      dup2\n      0x0a\n      dup2\n      lt\n      tag_85\n      jumpi\n      0x00\n      dup1\n      revert\n    tag_85:\n      add\n      0x00\n      swap2\n      pop\n      swap1\n      pop\n      sload\n      dup2\n      jump\t// out\n        /* \"contracts/Lesson4Types.sol\":361:390  bytes public hobait = \"Bilbo\" */\n    tag_35:\n      0x19\n      dup1\n      sload\n      tag_87\n      swap1\n      tag_73\n      jump\t// in\n    tag_87:\n      dup1\n      0x1f\n      add\n      0x20\n      dup1\n      swap2\n      div\n      mul\n      0x20\n      add\n      mload(0x40)\n      swap1\n      dup2\n      add\n      0x40\n      mstore\n      dup1\n      swap3\n      swap2\n      swap1\n      dup2\n      dup2\n      mstore\n      0x20\n      add\n      dup3\n      dup1\n      sload\n      tag_88\n      swap1\n      tag_73\n      jump\t// in\n    tag_88:\n      dup1\n      iszero\n      tag_89\n      jumpi\n      dup1\n      0x1f\n      lt\n      tag_90\n      jumpi\n      0x0100\n      dup1\n      dup4\n      sload\n      div\n      mul\n      dup4\n      mstore\n      swap2\n      0x20\n      add\n      swap2\n      jump(tag_89)\n    tag_90:\n      dup3\n      add\n      swap2\n      swap1\n      0x00\n      mstore\n      keccak256(0x00, 0x20)\n      swap1\n    tag_91:\n      dup2\n      sload\n      dup2\n      mstore\n      swap1\n      0x01\n      add\n      swap1\n      0x20\n      add\n      dup1\n      dup4\n      gt\n      tag_91\n      jumpi\n      dup3\n      swap1\n      sub\n      0x1f\n      and\n      dup3\n      add\n      swap2\n    tag_89:\n      pop\n      pop\n      pop\n      pop\n      pop\n      dup2\n      jump\t// out\n        /* \"contracts/Lesson4Types.sol\":170:194  uint[2][5] public matrix */\n    tag_41:\n      0x0c\n      dup3\n      0x05\n      dup2\n      lt\n      tag_92\n      jumpi\n      0x00\n      dup1\n      revert\n    tag_92:\n      0x02\n      mul\n      add\n      dup2\n      0x02\n      dup2\n      lt\n      tag_94\n      jumpi\n      0x00\n      dup1\n      revert\n    tag_94:\n      add\n      0x00\n      swap2\n      pop\n      swap2\n      pop\n      pop\n      sload\n      dup2\n      jump\t// out\n        /* \"contracts/Lesson4Types.sol\":283:313  bytes31 public hobit = \"Bilbo\" */\n    tag_44:\n      0x18\n      0x00\n      swap1\n      sload\n      swap1\n      0x0100\n      exp\n      swap1\n      div\n      0x08\n      shl\n      dup2\n      jump\t// out\n        /* \"contracts/Lesson4Types.sol\":868:1044  function modDynamicArr(uint num) public {... */\n    tag_49:\n        /* \"contracts/Lesson4Types.sol\":918:924  dynArr */\n      0x16\n        /* \"contracts/Lesson4Types.sol\":930:933  num */\n      dup2\n        /* \"contracts/Lesson4Types.sol\":918:934  dynArr.push(num) */\n      swap1\n      dup1\n      0x01\n      dup2\n      sload\n      add\n      dup1\n      dup3\n      sstore\n      dup1\n      swap2\n      pop\n      pop\n      0x01\n      swap1\n      sub\n      swap1\n      0x00\n      mstore\n      keccak256(0x00, 0x20)\n      add\n      0x00\n      swap1\n      swap2\n      swap1\n      swap2\n      swap1\n      swap2\n      pop\n      sstore\n        /* \"contracts/Lesson4Types.sol\":1024:1030  dynArr */\n      0x16\n        /* \"contracts/Lesson4Types.sol\":1024:1037  dynArr.length */\n      dup1\n      sload\n      swap1\n      pop\n        /* \"contracts/Lesson4Types.sol\":1009:1021  dynArrLength */\n      0x17\n        /* \"contracts/Lesson4Types.sol\":1009:1037  dynArrLength = dynArr.length */\n      dup2\n      swap1\n      sstore\n      pop\n        /* \"contracts/Lesson4Types.sol\":868:1044  function modDynamicArr(uint num) public {... */\n      pop\n      jump\t// out\n    tag_67:\n      dup3\n      mul(0x02, 0x05)\n      dup2\n      add\n      swap3\n      dup3\n      iszero\n      tag_98\n      jumpi\n      swap2\n      0x20\n      mul\n      dup3\n      add\n    tag_99:\n      dup3\n      dup2\n      gt\n      iszero\n      tag_100\n      jumpi\n      dup3\n      mload\n      dup3\n      swap1\n      0x02\n      tag_101\n      swap3\n      swap2\n      swap1\n      tag_102\n      jump\t// in\n    tag_101:\n      pop\n      swap2\n      0x20\n      add\n      swap2\n      swap1\n      0x02\n      add\n      swap1\n      jump(tag_99)\n    tag_100:\n    tag_98:\n      pop\n      swap1\n      pop\n      tag_103\n      swap2\n      swap1\n      tag_104\n      jump\t// in\n    tag_103:\n      pop\n      swap1\n      jump\t// out\n    tag_102:\n      dup3\n      0x02\n      dup2\n      add\n      swap3\n      dup3\n      iszero\n      tag_105\n      jumpi\n      swap2\n      0x20\n      mul\n      dup3\n      add\n    tag_106:\n      dup3\n      dup2\n      gt\n      iszero\n      tag_107\n      jumpi\n      dup3\n      mload\n      dup3\n      swap1\n      0xff\n      and\n      swap1\n      sstore\n      swap2\n      0x20\n      add\n      swap2\n      swap1\n      0x01\n      add\n      swap1\n      jump(tag_106)\n    tag_107:\n    tag_105:\n      pop\n      swap1\n      pop\n      tag_108\n      swap2\n      swap1\n      tag_109\n      jump\t// in\n    tag_108:\n      pop\n      swap1\n      jump\t// out\n    tag_104:\n    tag_110:\n      dup1\n      dup3\n      gt\n      iszero\n      tag_111\n      jumpi\n      0x00\n      dup2\n      dup2\n      tag_112\n      swap2\n      swap1\n      tag_113\n      jump\t// in\n    tag_112:\n      pop\n      0x02\n      add\n      jump(tag_110)\n    tag_111:\n      pop\n      swap1\n      jump\t// out\n    tag_109:\n    tag_114:\n      dup1\n      dup3\n      gt\n      iszero\n      tag_115\n      jumpi\n      0x00\n      dup2\n      0x00\n      swap1\n      sstore\n      pop\n      0x01\n      add\n      jump(tag_114)\n    tag_115:\n      pop\n      swap1\n      jump\t// out\n    tag_113:\n      pop\n      0x00\n      dup2\n      sstore\n      0x01\n      add\n      0x00\n      swap1\n      sstore\n      jump\t// out\n        /* \"#utility.yul\":7:146   */\n    tag_117:\n        /* \"#utility.yul\":53:58   */\n      0x00\n        /* \"#utility.yul\":91:97   */\n      dup2\n        /* \"#utility.yul\":78:98   */\n      calldataload\n        /* \"#utility.yul\":69:98   */\n      swap1\n      pop\n        /* \"#utility.yul\":107:140   */\n      tag_119\n        /* \"#utility.yul\":134:139   */\n      dup2\n        /* \"#utility.yul\":107:140   */\n      tag_120\n      jump\t// in\n    tag_119:\n        /* \"#utility.yul\":7:146   */\n      swap3\n      swap2\n      pop\n      pop\n      jump\t// out\n        /* \"#utility.yul\":152:481   */\n    tag_17:\n        /* \"#utility.yul\":211:217   */\n      0x00\n        /* \"#utility.yul\":260:262   */\n      0x20\n        /* \"#utility.yul\":248:257   */\n      dup3\n        /* \"#utility.yul\":239:246   */\n      dup5\n        /* \"#utility.yul\":235:258   */\n      sub\n        /* \"#utility.yul\":231:263   */\n      slt\n        /* \"#utility.yul\":228:347   */\n      iszero\n      tag_122\n      jumpi\n        /* \"#utility.yul\":266:345   */\n      tag_123\n      tag_124\n      jump\t// in\n    tag_123:\n        /* \"#utility.yul\":228:347   */\n    tag_122:\n        /* \"#utility.yul\":386:387   */\n      0x00\n        /* \"#utility.yul\":411:464   */\n      tag_125\n        /* \"#utility.yul\":456:463   */\n      dup5\n        /* \"#utility.yul\":447:453   */\n      dup3\n        /* \"#utility.yul\":436:445   */\n      dup6\n        /* \"#utility.yul\":432:454   */\n      add\n        /* \"#utility.yul\":411:464   */\n      tag_117\n      jump\t// in\n    tag_125:\n        /* \"#utility.yul\":401:464   */\n      swap2\n      pop\n        /* \"#utility.yul\":357:474   */\n      pop\n        /* \"#utility.yul\":152:481   */\n      swap3\n      swap2\n      pop\n      pop\n      jump\t// out\n        /* \"#utility.yul\":487:961   */\n    tag_40:\n        /* \"#utility.yul\":555:561   */\n      0x00\n        /* \"#utility.yul\":563:569   */\n      dup1\n        /* \"#utility.yul\":612:614   */\n      0x40\n        /* \"#utility.yul\":600:609   */\n      dup4\n        /* \"#utility.yul\":591:598   */\n      dup6\n        /* \"#utility.yul\":587:610   */\n      sub\n        /* \"#utility.yul\":583:615   */\n      slt\n        /* \"#utility.yul\":580:699   */\n      iszero\n      tag_127\n      jumpi\n        /* \"#utility.yul\":618:697   */\n      tag_128\n      tag_124\n      jump\t// in\n    tag_128:\n        /* \"#utility.yul\":580:699   */\n    tag_127:\n        /* \"#utility.yul\":738:739   */\n      0x00\n        /* \"#utility.yul\":763:816   */\n      tag_129\n        /* \"#utility.yul\":808:815   */\n      dup6\n        /* \"#utility.yul\":799:805   */\n      dup3\n        /* \"#utility.yul\":788:797   */\n      dup7\n        /* \"#utility.yul\":784:806   */\n      add\n        /* \"#utility.yul\":763:816   */\n      tag_117\n      jump\t// in\n    tag_129:\n        /* \"#utility.yul\":753:816   */\n      swap3\n      pop\n        /* \"#utility.yul\":709:826   */\n      pop\n        /* \"#utility.yul\":865:867   */\n      0x20\n        /* \"#utility.yul\":891:944   */\n      tag_130\n        /* \"#utility.yul\":936:943   */\n      dup6\n        /* \"#utility.yul\":927:933   */\n      dup3\n        /* \"#utility.yul\":916:925   */\n      dup7\n        /* \"#utility.yul\":912:934   */\n      add\n        /* \"#utility.yul\":891:944   */\n      tag_117\n      jump\t// in\n    tag_130:\n        /* \"#utility.yul\":881:944   */\n      swap2\n      pop\n        /* \"#utility.yul\":836:954   */\n      pop\n        /* \"#utility.yul\":487:961   */\n      swap3\n      pop\n      swap3\n      swap1\n      pop\n      jump\t// out\n        /* \"#utility.yul\":967:1146   */\n    tag_131:\n        /* \"#utility.yul\":1036:1046   */\n      0x00\n        /* \"#utility.yul\":1057:1103   */\n      tag_133\n        /* \"#utility.yul\":1099:1102   */\n      dup4\n        /* \"#utility.yul\":1091:1097   */\n      dup4\n        /* \"#utility.yul\":1057:1103   */\n      tag_134\n      jump\t// in\n    tag_133:\n        /* \"#utility.yul\":1135:1139   */\n      0x20\n        /* \"#utility.yul\":1130:1133   */\n      dup4\n        /* \"#utility.yul\":1126:1140   */\n      add\n        /* \"#utility.yul\":1112:1140   */\n      swap1\n      pop\n        /* \"#utility.yul\":967:1146   */\n      swap3\n      swap2\n      pop\n      pop\n      jump\t// out\n        /* \"#utility.yul\":1182:1914   */\n    tag_135:\n        /* \"#utility.yul\":1301:1304   */\n      0x00\n        /* \"#utility.yul\":1330:1384   */\n      tag_137\n        /* \"#utility.yul\":1378:1383   */\n      dup3\n        /* \"#utility.yul\":1330:1384   */\n      tag_138\n      jump\t// in\n    tag_137:\n        /* \"#utility.yul\":1400:1486   */\n      tag_139\n        /* \"#utility.yul\":1479:1485   */\n      dup2\n        /* \"#utility.yul\":1474:1477   */\n      dup6\n        /* \"#utility.yul\":1400:1486   */\n      tag_140\n      jump\t// in\n    tag_139:\n        /* \"#utility.yul\":1393:1486   */\n      swap4\n      pop\n        /* \"#utility.yul\":1510:1566   */\n      tag_141\n        /* \"#utility.yul\":1560:1565   */\n      dup4\n        /* \"#utility.yul\":1510:1566   */\n      tag_142\n      jump\t// in\n    tag_141:\n        /* \"#utility.yul\":1589:1596   */\n      dup1\n        /* \"#utility.yul\":1620:1621   */\n      0x00\n        /* \"#utility.yul\":1605:1889   */\n    tag_143:\n        /* \"#utility.yul\":1630:1636   */\n      dup4\n        /* \"#utility.yul\":1627:1628   */\n      dup2\n        /* \"#utility.yul\":1624:1637   */\n      lt\n        /* \"#utility.yul\":1605:1889   */\n      iszero\n      tag_145\n      jumpi\n        /* \"#utility.yul\":1706:1712   */\n      dup2\n        /* \"#utility.yul\":1700:1713   */\n      mload\n        /* \"#utility.yul\":1733:1796   */\n      tag_146\n        /* \"#utility.yul\":1792:1795   */\n      dup9\n        /* \"#utility.yul\":1777:1790   */\n      dup3\n        /* \"#utility.yul\":1733:1796   */\n      tag_131\n      jump\t// in\n    tag_146:\n        /* \"#utility.yul\":1726:1796   */\n      swap8\n      pop\n        /* \"#utility.yul\":1819:1879   */\n      tag_147\n        /* \"#utility.yul\":1872:1878   */\n      dup4\n        /* \"#utility.yul\":1819:1879   */\n      tag_148\n      jump\t// in\n    tag_147:\n        /* \"#utility.yul\":1809:1879   */\n      swap3\n      pop\n        /* \"#utility.yul\":1665:1889   */\n      pop\n        /* \"#utility.yul\":1652:1653   */\n      0x01\n        /* \"#utility.yul\":1649:1650   */\n      dup2\n        /* \"#utility.yul\":1645:1654   */\n      add\n        /* \"#utility.yul\":1640:1654   */\n      swap1\n      pop\n        /* \"#utility.yul\":1605:1889   */\n      jump(tag_143)\n    tag_145:\n        /* \"#utility.yul\":1609:1623   */\n      pop\n        /* \"#utility.yul\":1905:1908   */\n      dup6\n        /* \"#utility.yul\":1898:1908   */\n      swap4\n      pop\n        /* \"#utility.yul\":1306:1914   */\n      pop\n      pop\n      pop\n        /* \"#utility.yul\":1182:1914   */\n      swap3\n      swap2\n      pop\n      pop\n      jump\t// out\n        /* \"#utility.yul\":1920:2038   */\n    tag_149:\n        /* \"#utility.yul\":2007:2031   */\n      tag_151\n        /* \"#utility.yul\":2025:2030   */\n      dup2\n        /* \"#utility.yul\":2007:2031   */\n      tag_152\n      jump\t// in\n    tag_151:\n        /* \"#utility.yul\":2002:2005   */\n      dup3\n        /* \"#utility.yul\":1995:2032   */\n      mstore\n        /* \"#utility.yul\":1920:2038   */\n      pop\n      pop\n      jump\t// out\n        /* \"#utility.yul\":2044:2404   */\n    tag_153:\n        /* \"#utility.yul\":2130:2133   */\n      0x00\n        /* \"#utility.yul\":2158:2196   */\n      tag_155\n        /* \"#utility.yul\":2190:2195   */\n      dup3\n        /* \"#utility.yul\":2158:2196   */\n      tag_156\n      jump\t// in\n    tag_155:\n        /* \"#utility.yul\":2212:2282   */\n      tag_157\n        /* \"#utility.yul\":2275:2281   */\n      dup2\n        /* \"#utility.yul\":2270:2273   */\n      dup6\n        /* \"#utility.yul\":2212:2282   */\n      tag_158\n      jump\t// in\n    tag_157:\n        /* \"#utility.yul\":2205:2282   */\n      swap4\n      pop\n        /* \"#utility.yul\":2291:2343   */\n      tag_159\n        /* \"#utility.yul\":2336:2342   */\n      dup2\n        /* \"#utility.yul\":2331:2334   */\n      dup6\n        /* \"#utility.yul\":2324:2328   */\n      0x20\n        /* \"#utility.yul\":2317:2322   */\n      dup7\n        /* \"#utility.yul\":2313:2329   */\n      add\n        /* \"#utility.yul\":2291:2343   */\n      tag_160\n      jump\t// in\n    tag_159:\n        /* \"#utility.yul\":2368:2397   */\n      tag_161\n        /* \"#utility.yul\":2390:2396   */\n      dup2\n        /* \"#utility.yul\":2368:2397   */\n      tag_162\n      jump\t// in\n    tag_161:\n        /* \"#utility.yul\":2363:2366   */\n      dup5\n        /* \"#utility.yul\":2359:2398   */\n      add\n        /* \"#utility.yul\":2352:2398   */\n      swap2\n      pop\n        /* \"#utility.yul\":2134:2404   */\n      pop\n        /* \"#utility.yul\":2044:2404   */\n      swap3\n      swap2\n      pop\n      pop\n      jump\t// out\n        /* \"#utility.yul\":2410:2774   */\n    tag_163:\n        /* \"#utility.yul\":2498:2501   */\n      0x00\n        /* \"#utility.yul\":2526:2565   */\n      tag_165\n        /* \"#utility.yul\":2559:2564   */\n      dup3\n        /* \"#utility.yul\":2526:2565   */\n      tag_166\n      jump\t// in\n    tag_165:\n        /* \"#utility.yul\":2581:2652   */\n      tag_167\n        /* \"#utility.yul\":2645:2651   */\n      dup2\n        /* \"#utility.yul\":2640:2643   */\n      dup6\n        /* \"#utility.yul\":2581:2652   */\n      tag_168\n      jump\t// in\n    tag_167:\n        /* \"#utility.yul\":2574:2652   */\n      swap4\n      pop\n        /* \"#utility.yul\":2661:2713   */\n      tag_169\n        /* \"#utility.yul\":2706:2712   */\n      dup2\n        /* \"#utility.yul\":2701:2704   */\n      dup6\n        /* \"#utility.yul\":2694:2698   */\n      0x20\n        /* \"#utility.yul\":2687:2692   */\n      dup7\n        /* \"#utility.yul\":2683:2699   */\n      add\n        /* \"#utility.yul\":2661:2713   */\n      tag_160\n      jump\t// in\n    tag_169:\n        /* \"#utility.yul\":2738:2767   */\n      tag_170\n        /* \"#utility.yul\":2760:2766   */\n      dup2\n        /* \"#utility.yul\":2738:2767   */\n      tag_162\n      jump\t// in\n    tag_170:\n        /* \"#utility.yul\":2733:2736   */\n      dup5\n        /* \"#utility.yul\":2729:2768   */\n      add\n        /* \"#utility.yul\":2722:2768   */\n      swap2\n      pop\n        /* \"#utility.yul\":2502:2774   */\n      pop\n        /* \"#utility.yul\":2410:2774   */\n      swap3\n      swap2\n      pop\n      pop\n      jump\t// out\n        /* \"#utility.yul\":2780:2888   */\n    tag_134:\n        /* \"#utility.yul\":2857:2881   */\n      tag_172\n        /* \"#utility.yul\":2875:2880   */\n      dup2\n        /* \"#utility.yul\":2857:2881   */\n      tag_173\n      jump\t// in\n    tag_172:\n        /* \"#utility.yul\":2852:2855   */\n      dup3\n        /* \"#utility.yul\":2845:2882   */\n      mstore\n        /* \"#utility.yul\":2780:2888   */\n      pop\n      pop\n      jump\t// out\n        /* \"#utility.yul\":2894:3012   */\n    tag_174:\n        /* \"#utility.yul\":2981:3005   */\n      tag_176\n        /* \"#utility.yul\":2999:3004   */\n      dup2\n        /* \"#utility.yul\":2981:3005   */\n      tag_173\n      jump\t// in\n    tag_176:\n        /* \"#utility.yul\":2976:2979   */\n      dup3\n        /* \"#utility.yul\":2969:3006   */\n      mstore\n        /* \"#utility.yul\":2894:3012   */\n      pop\n      pop\n      jump\t// out\n        /* \"#utility.yul\":3018:3391   */\n    tag_29:\n        /* \"#utility.yul\":3161:3165   */\n      0x00\n        /* \"#utility.yul\":3199:3201   */\n      0x20\n        /* \"#utility.yul\":3188:3197   */\n      dup3\n        /* \"#utility.yul\":3184:3202   */\n      add\n        /* \"#utility.yul\":3176:3202   */\n      swap1\n      pop\n        /* \"#utility.yul\":3248:3257   */\n      dup2\n        /* \"#utility.yul\":3242:3246   */\n      dup2\n        /* \"#utility.yul\":3238:3258   */\n      sub\n        /* \"#utility.yul\":3234:3235   */\n      0x00\n        /* \"#utility.yul\":3223:3232   */\n      dup4\n        /* \"#utility.yul\":3219:3236   */\n      add\n        /* \"#utility.yul\":3212:3259   */\n      mstore\n        /* \"#utility.yul\":3276:3384   */\n      tag_178\n        /* \"#utility.yul\":3379:3383   */\n      dup2\n        /* \"#utility.yul\":3370:3376   */\n      dup5\n        /* \"#utility.yul\":3276:3384   */\n      tag_135\n      jump\t// in\n    tag_178:\n        /* \"#utility.yul\":3268:3384   */\n      swap1\n      pop\n        /* \"#utility.yul\":3018:3391   */\n      swap3\n      swap2\n      pop\n      pop\n      jump\t// out\n        /* \"#utility.yul\":3397:3619   */\n    tag_46:\n        /* \"#utility.yul\":3490:3494   */\n      0x00\n        /* \"#utility.yul\":3528:3530   */\n      0x20\n        /* \"#utility.yul\":3517:3526   */\n      dup3\n        /* \"#utility.yul\":3513:3531   */\n      add\n        /* \"#utility.yul\":3505:3531   */\n      swap1\n      pop\n        /* \"#utility.yul\":3541:3612   */\n      tag_180\n        /* \"#utility.yul\":3609:3610   */\n      0x00\n        /* \"#utility.yul\":3598:3607   */\n      dup4\n        /* \"#utility.yul\":3594:3611   */\n      add\n        /* \"#utility.yul\":3585:3591   */\n      dup5\n        /* \"#utility.yul\":3541:3612   */\n      tag_149\n      jump\t// in\n    tag_180:\n        /* \"#utility.yul\":3397:3619   */\n      swap3\n      swap2\n      pop\n      pop\n      jump\t// out\n        /* \"#utility.yul\":3625:3934   */\n    tag_37:\n        /* \"#utility.yul\":3736:3740   */\n      0x00\n        /* \"#utility.yul\":3774:3776   */\n      0x20\n        /* \"#utility.yul\":3763:3772   */\n      dup3\n        /* \"#utility.yul\":3759:3777   */\n      add\n        /* \"#utility.yul\":3751:3777   */\n      swap1\n      pop\n        /* \"#utility.yul\":3823:3832   */\n      dup2\n        /* \"#utility.yul\":3817:3821   */\n      dup2\n        /* \"#utility.yul\":3813:3833   */\n      sub\n        /* \"#utility.yul\":3809:3810   */\n      0x00\n        /* \"#utility.yul\":3798:3807   */\n      dup4\n        /* \"#utility.yul\":3794:3811   */\n      add\n        /* \"#utility.yul\":3787:3834   */\n      mstore\n        /* \"#utility.yul\":3851:3927   */\n      tag_182\n        /* \"#utility.yul\":3922:3926   */\n      dup2\n        /* \"#utility.yul\":3913:3919   */\n      dup5\n        /* \"#utility.yul\":3851:3927   */\n      tag_153\n      jump\t// in\n    tag_182:\n        /* \"#utility.yul\":3843:3927   */\n      swap1\n      pop\n        /* \"#utility.yul\":3625:3934   */\n      swap3\n      swap2\n      pop\n      pop\n      jump\t// out\n        /* \"#utility.yul\":3940:4253   */\n    tag_25:\n        /* \"#utility.yul\":4053:4057   */\n      0x00\n        /* \"#utility.yul\":4091:4093   */\n      0x20\n        /* \"#utility.yul\":4080:4089   */\n      dup3\n        /* \"#utility.yul\":4076:4094   */\n      add\n        /* \"#utility.yul\":4068:4094   */\n      swap1\n      pop\n        /* \"#utility.yul\":4140:4149   */\n      dup2\n        /* \"#utility.yul\":4134:4138   */\n      dup2\n        /* \"#utility.yul\":4130:4150   */\n      sub\n        /* \"#utility.yul\":4126:4127   */\n      0x00\n        /* \"#utility.yul\":4115:4124   */\n      dup4\n        /* \"#utility.yul\":4111:4128   */\n      add\n        /* \"#utility.yul\":4104:4151   */\n      mstore\n        /* \"#utility.yul\":4168:4246   */\n      tag_184\n        /* \"#utility.yul\":4241:4245   */\n      dup2\n        /* \"#utility.yul\":4232:4238   */\n      dup5\n        /* \"#utility.yul\":4168:4246   */\n      tag_163\n      jump\t// in\n    tag_184:\n        /* \"#utility.yul\":4160:4246   */\n      swap1\n      pop\n        /* \"#utility.yul\":3940:4253   */\n      swap3\n      swap2\n      pop\n      pop\n      jump\t// out\n        /* \"#utility.yul\":4259:4481   */\n    tag_20:\n        /* \"#utility.yul\":4352:4356   */\n      0x00\n        /* \"#utility.yul\":4390:4392   */\n      0x20\n        /* \"#utility.yul\":4379:4388   */\n      dup3\n        /* \"#utility.yul\":4375:4393   */\n      add\n        /* \"#utility.yul\":4367:4393   */\n      swap1\n      pop\n        /* \"#utility.yul\":4403:4474   */\n      tag_186\n        /* \"#utility.yul\":4471:4472   */\n      0x00\n        /* \"#utility.yul\":4460:4469   */\n      dup4\n        /* \"#utility.yul\":4456:4473   */\n      add\n        /* \"#utility.yul\":4447:4453   */\n      dup5\n        /* \"#utility.yul\":4403:4474   */\n      tag_174\n      jump\t// in\n    tag_186:\n        /* \"#utility.yul\":4259:4481   */\n      swap3\n      swap2\n      pop\n      pop\n      jump\t// out\n        /* \"#utility.yul\":4568:4700   */\n    tag_142:\n        /* \"#utility.yul\":4635:4639   */\n      0x00\n        /* \"#utility.yul\":4658:4661   */\n      dup2\n        /* \"#utility.yul\":4650:4661   */\n      swap1\n      pop\n        /* \"#utility.yul\":4688:4692   */\n      0x20\n        /* \"#utility.yul\":4683:4686   */\n      dup3\n        /* \"#utility.yul\":4679:4693   */\n      add\n        /* \"#utility.yul\":4671:4693   */\n      swap1\n      pop\n        /* \"#utility.yul\":4568:4700   */\n      swap2\n      swap1\n      pop\n      jump\t// out\n        /* \"#utility.yul\":4706:4820   */\n    tag_138:\n        /* \"#utility.yul\":4773:4779   */\n      0x00\n        /* \"#utility.yul\":4807:4812   */\n      dup2\n        /* \"#utility.yul\":4801:4813   */\n      mload\n        /* \"#utility.yul\":4791:4813   */\n      swap1\n      pop\n        /* \"#utility.yul\":4706:4820   */\n      swap2\n      swap1\n      pop\n      jump\t// out\n        /* \"#utility.yul\":4826:4924   */\n    tag_156:\n        /* \"#utility.yul\":4877:4883   */\n      0x00\n        /* \"#utility.yul\":4911:4916   */\n      dup2\n        /* \"#utility.yul\":4905:4917   */\n      mload\n        /* \"#utility.yul\":4895:4917   */\n      swap1\n      pop\n        /* \"#utility.yul\":4826:4924   */\n      swap2\n      swap1\n      pop\n      jump\t// out\n        /* \"#utility.yul\":4930:5029   */\n    tag_166:\n        /* \"#utility.yul\":4982:4988   */\n      0x00\n        /* \"#utility.yul\":5016:5021   */\n      dup2\n        /* \"#utility.yul\":5010:5022   */\n      mload\n        /* \"#utility.yul\":5000:5022   */\n      swap1\n      pop\n        /* \"#utility.yul\":4930:5029   */\n      swap2\n      swap1\n      pop\n      jump\t// out\n        /* \"#utility.yul\":5035:5148   */\n    tag_148:\n        /* \"#utility.yul\":5105:5109   */\n      0x00\n        /* \"#utility.yul\":5137:5141   */\n      0x20\n        /* \"#utility.yul\":5132:5135   */\n      dup3\n        /* \"#utility.yul\":5128:5142   */\n      add\n        /* \"#utility.yul\":5120:5142   */\n      swap1\n      pop\n        /* \"#utility.yul\":5035:5148   */\n      swap2\n      swap1\n      pop\n      jump\t// out\n        /* \"#utility.yul\":5154:5338   */\n    tag_140:\n        /* \"#utility.yul\":5253:5264   */\n      0x00\n        /* \"#utility.yul\":5287:5293   */\n      dup3\n        /* \"#utility.yul\":5282:5285   */\n      dup3\n        /* \"#utility.yul\":5275:5294   */\n      mstore\n        /* \"#utility.yul\":5327:5331   */\n      0x20\n        /* \"#utility.yul\":5322:5325   */\n      dup3\n        /* \"#utility.yul\":5318:5332   */\n      add\n        /* \"#utility.yul\":5303:5332   */\n      swap1\n      pop\n        /* \"#utility.yul\":5154:5338   */\n      swap3\n      swap2\n      pop\n      pop\n      jump\t// out\n        /* \"#utility.yul\":5344:5512   */\n    tag_158:\n        /* \"#utility.yul\":5427:5438   */\n      0x00\n        /* \"#utility.yul\":5461:5467   */\n      dup3\n        /* \"#utility.yul\":5456:5459   */\n      dup3\n        /* \"#utility.yul\":5449:5468   */\n      mstore\n        /* \"#utility.yul\":5501:5505   */\n      0x20\n        /* \"#utility.yul\":5496:5499   */\n      dup3\n        /* \"#utility.yul\":5492:5506   */\n      add\n        /* \"#utility.yul\":5477:5506   */\n      swap1\n      pop\n        /* \"#utility.yul\":5344:5512   */\n      swap3\n      swap2\n      pop\n      pop\n      jump\t// out\n        /* \"#utility.yul\":5518:5687   */\n    tag_168:\n        /* \"#utility.yul\":5602:5613   */\n      0x00\n        /* \"#utility.yul\":5636:5642   */\n      dup3\n        /* \"#utility.yul\":5631:5634   */\n      dup3\n        /* \"#utility.yul\":5624:5643   */\n      mstore\n        /* \"#utility.yul\":5676:5680   */\n      0x20\n        /* \"#utility.yul\":5671:5674   */\n      dup3\n        /* \"#utility.yul\":5667:5681   */\n      add\n        /* \"#utility.yul\":5652:5681   */\n      swap1\n      pop\n        /* \"#utility.yul\":5518:5687   */\n      swap3\n      swap2\n      pop\n      pop\n      jump\t// out\n        /* \"#utility.yul\":5693:6041   */\n    tag_56:\n        /* \"#utility.yul\":5733:5740   */\n      0x00\n        /* \"#utility.yul\":5756:5776   */\n      tag_198\n        /* \"#utility.yul\":5774:5775   */\n      dup3\n        /* \"#utility.yul\":5756:5776   */\n      tag_173\n      jump\t// in\n    tag_198:\n        /* \"#utility.yul\":5751:5776   */\n      swap2\n      pop\n        /* \"#utility.yul\":5790:5810   */\n      tag_199\n        /* \"#utility.yul\":5808:5809   */\n      dup4\n        /* \"#utility.yul\":5790:5810   */\n      tag_173\n      jump\t// in\n    tag_199:\n        /* \"#utility.yul\":5785:5810   */\n      swap3\n      pop\n        /* \"#utility.yul\":5978:5979   */\n      dup2\n        /* \"#utility.yul\":5910:5976   */\n      0xffffffffffffffffffffffffffffffffffffffffffffffffffffffffffffffff\n        /* \"#utility.yul\":5906:5980   */\n      div\n        /* \"#utility.yul\":5903:5904   */\n      dup4\n        /* \"#utility.yul\":5900:5981   */\n      gt\n        /* \"#utility.yul\":5895:5896   */\n      dup3\n        /* \"#utility.yul\":5888:5897   */\n      iszero\n        /* \"#utility.yul\":5881:5898   */\n      iszero\n        /* \"#utility.yul\":5877:5982   */\n      and\n        /* \"#utility.yul\":5874:6005   */\n      iszero\n      tag_200\n      jumpi\n        /* \"#utility.yul\":5985:6003   */\n      tag_201\n      tag_202\n      jump\t// in\n    tag_201:\n        /* \"#utility.yul\":5874:6005   */\n    tag_200:\n        /* \"#utility.yul\":6033:6034   */\n      dup3\n        /* \"#utility.yul\":6030:6031   */\n      dup3\n        /* \"#utility.yul\":6026:6035   */\n      mul\n        /* \"#utility.yul\":6015:6035   */\n      swap1\n      pop\n        /* \"#utility.yul\":5693:6041   */\n      swap3\n      swap2\n      pop\n      pop\n      jump\t// out\n        /* \"#utility.yul\":6047:6197   */\n    tag_152:\n        /* \"#utility.yul\":6084:6091   */\n      0x00\n        /* \"#utility.yul\":6124:6190   */\n      0xffffffffffffffffffffffffffffffffffffffffffffffffffffffffffffff00\n        /* \"#utility.yul\":6117:6122   */\n      dup3\n        /* \"#utility.yul\":6113:6191   */\n      and\n        /* \"#utility.yul\":6102:6191   */\n      swap1\n      pop\n        /* \"#utility.yul\":6047:6197   */\n      swap2\n      swap1\n      pop\n      jump\t// out\n        /* \"#utility.yul\":6203:6280   */\n    tag_173:\n        /* \"#utility.yul\":6240:6247   */\n      0x00\n        /* \"#utility.yul\":6269:6274   */\n      dup2\n        /* \"#utility.yul\":6258:6274   */\n      swap1\n      pop\n        /* \"#utility.yul\":6203:6280   */\n      swap2\n      swap1\n      pop\n      jump\t// out\n        /* \"#utility.yul\":6286:6593   */\n    tag_160:\n        /* \"#utility.yul\":6354:6355   */\n      0x00\n        /* \"#utility.yul\":6364:6477   */\n    tag_206:\n        /* \"#utility.yul\":6378:6384   */\n      dup4\n        /* \"#utility.yul\":6375:6376   */\n      dup2\n        /* \"#utility.yul\":6372:6385   */\n      lt\n        /* \"#utility.yul\":6364:6477   */\n      iszero\n      tag_208\n      jumpi\n        /* \"#utility.yul\":6463:6464   */\n      dup1\n        /* \"#utility.yul\":6458:6461   */\n      dup3\n        /* \"#utility.yul\":6454:6465   */\n      add\n        /* \"#utility.yul\":6448:6466   */\n      mload\n        /* \"#utility.yul\":6444:6445   */\n      dup2\n        /* \"#utility.yul\":6439:6442   */\n      dup5\n        /* \"#utility.yul\":6435:6446   */\n      add\n        /* \"#utility.yul\":6428:6467   */\n      mstore\n        /* \"#utility.yul\":6400:6402   */\n      0x20\n        /* \"#utility.yul\":6397:6398   */\n      dup2\n        /* \"#utility.yul\":6393:6403   */\n      add\n        /* \"#utility.yul\":6388:6403   */\n      swap1\n      pop\n        /* \"#utility.yul\":6364:6477   */\n      jump(tag_206)\n    tag_208:\n        /* \"#utility.yul\":6495:6501   */\n      dup4\n        /* \"#utility.yul\":6492:6493   */\n      dup2\n        /* \"#utility.yul\":6489:6502   */\n      gt\n        /* \"#utility.yul\":6486:6587   */\n      iszero\n      tag_209\n      jumpi\n        /* \"#utility.yul\":6575:6576   */\n      0x00\n        /* \"#utility.yul\":6566:6572   */\n      dup5\n        /* \"#utility.yul\":6561:6564   */\n      dup5\n        /* \"#utility.yul\":6557:6573   */\n      add\n        /* \"#utility.yul\":6550:6577   */\n      mstore\n        /* \"#utility.yul\":6486:6587   */\n    tag_209:\n        /* \"#utility.yul\":6335:6593   */\n      pop\n        /* \"#utility.yul\":6286:6593   */\n      pop\n      pop\n      pop\n      jump\t// out\n        /* \"#utility.yul\":6599:6919   */\n    tag_73:\n        /* \"#utility.yul\":6643:6649   */\n      0x00\n        /* \"#utility.yul\":6680:6681   */\n      0x02\n        /* \"#utility.yul\":6674:6678   */\n      dup3\n        /* \"#utility.yul\":6670:6682   */\n      div\n        /* \"#utility.yul\":6660:6682   */\n      swap1\n      pop\n        /* \"#utility.yul\":6727:6728   */\n      0x01\n        /* \"#utility.yul\":6721:6725   */\n      dup3\n        /* \"#utility.yul\":6717:6729   */\n      and\n        /* \"#utility.yul\":6748:6766   */\n      dup1\n        /* \"#utility.yul\":6738:6819   */\n      tag_211\n      jumpi\n        /* \"#utility.yul\":6804:6808   */\n      0x7f\n        /* \"#utility.yul\":6796:6802   */\n      dup3\n        /* \"#utility.yul\":6792:6809   */\n      and\n        /* \"#utility.yul\":6782:6809   */\n      swap2\n      pop\n        /* \"#utility.yul\":6738:6819   */\n    tag_211:\n        /* \"#utility.yul\":6866:6868   */\n      0x20\n        /* \"#utility.yul\":6858:6864   */\n      dup3\n        /* \"#utility.yul\":6855:6869   */\n      lt\n        /* \"#utility.yul\":6835:6853   */\n      dup2\n        /* \"#utility.yul\":6832:6870   */\n      eq\n        /* \"#utility.yul\":6829:6913   */\n      iszero\n      tag_212\n      jumpi\n        /* \"#utility.yul\":6885:6903   */\n      tag_213\n      tag_214\n      jump\t// in\n    tag_213:\n        /* \"#utility.yul\":6829:6913   */\n    tag_212:\n        /* \"#utility.yul\":6650:6919   */\n      pop\n        /* \"#utility.yul\":6599:6919   */\n      swap2\n      swap1\n      pop\n      jump\t// out\n        /* \"#utility.yul\":6925:7105   */\n    tag_202:\n        /* \"#utility.yul\":6973:7050   */\n      0x4e487b7100000000000000000000000000000000000000000000000000000000\n        /* \"#utility.yul\":6970:6971   */\n      0x00\n        /* \"#utility.yul\":6963:7051   */\n      mstore\n        /* \"#utility.yul\":7070:7074   */\n      0x11\n        /* \"#utility.yul\":7067:7068   */\n      0x04\n        /* \"#utility.yul\":7060:7075   */\n      mstore\n        /* \"#utility.yul\":7094:7098   */\n      0x24\n        /* \"#utility.yul\":7091:7092   */\n      0x00\n        /* \"#utility.yul\":7084:7099   */\n      revert\n        /* \"#utility.yul\":7111:7291   */\n    tag_214:\n        /* \"#utility.yul\":7159:7236   */\n      0x4e487b7100000000000000000000000000000000000000000000000000000000\n        /* \"#utility.yul\":7156:7157   */\n      0x00\n        /* \"#utility.yul\":7149:7237   */\n      mstore\n        /* \"#utility.yul\":7256:7260   */\n      0x22\n        /* \"#utility.yul\":7253:7254   */\n      0x04\n        /* \"#utility.yul\":7246:7261   */\n      mstore\n        /* \"#utility.yul\":7280:7284   */\n      0x24\n        /* \"#utility.yul\":7277:7278   */\n      0x00\n        /* \"#utility.yul\":7270:7285   */\n      revert\n        /* \"#utility.yul\":7297:7477   */\n    tag_53:\n        /* \"#utility.yul\":7345:7422   */\n      0x4e487b7100000000000000000000000000000000000000000000000000000000\n        /* \"#utility.yul\":7342:7343   */\n      0x00\n        /* \"#utility.yul\":7335:7423   */\n      mstore\n        /* \"#utility.yul\":7442:7446   */\n      0x32\n        /* \"#utility.yul\":7439:7440   */\n      0x04\n        /* \"#utility.yul\":7432:7447   */\n      mstore\n        /* \"#utility.yul\":7466:7470   */\n      0x24\n        /* \"#utility.yul\":7463:7464   */\n      0x00\n        /* \"#utility.yul\":7456:7471   */\n      revert\n        /* \"#utility.yul\":7483:7663   */\n    tag_81:\n        /* \"#utility.yul\":7531:7608   */\n      0x4e487b7100000000000000000000000000000000000000000000000000000000\n        /* \"#utility.yul\":7528:7529   */\n      0x00\n        /* \"#utility.yul\":7521:7609   */\n      mstore\n        /* \"#utility.yul\":7628:7632   */\n      0x41\n        /* \"#utility.yul\":7625:7626   */\n      0x04\n        /* \"#utility.yul\":7618:7633   */\n      mstore\n        /* \"#utility.yul\":7652:7656   */\n      0x24\n        /* \"#utility.yul\":7649:7650   */\n      0x00\n        /* \"#utility.yul\":7642:7657   */\n      revert\n        /* \"#utility.yul\":7792:7909   */\n    tag_124:\n        /* \"#utility.yul\":7901:7902   */\n      0x00\n        /* \"#utility.yul\":7898:7899   */\n      dup1\n        /* \"#utility.yul\":7891:7903   */\n      revert\n        /* \"#utility.yul\":7915:8017   */\n    tag_162:\n        /* \"#utility.yul\":7956:7962   */\n      0x00\n        /* \"#utility.yul\":8007:8009   */\n      0x1f\n        /* \"#utility.yul\":8003:8010   */\n      not\n        /* \"#utility.yul\":7998:8000   */\n      0x1f\n        /* \"#utility.yul\":7991:7996   */\n      dup4\n        /* \"#utility.yul\":7987:8001   */\n      add\n        /* \"#utility.yul\":7983:8011   */\n      and\n        /* \"#utility.yul\":7973:8011   */\n      swap1\n      pop\n        /* \"#utility.yul\":7915:8017   */\n      swap2\n      swap1\n      pop\n      jump\t// out\n        /* \"#utility.yul\":8023:8145   */\n    tag_120:\n        /* \"#utility.yul\":8096:8120   */\n      tag_224\n        /* \"#utility.yul\":8114:8119   */\n      dup2\n        /* \"#utility.yul\":8096:8120   */\n      tag_173\n      jump\t// in\n    tag_224:\n        /* \"#utility.yul\":8089:8094   */\n      dup2\n        /* \"#utility.yul\":8086:8121   */\n      eq\n        /* \"#utility.yul\":8076:8139   */\n      tag_225\n      jumpi\n        /* \"#utility.yul\":8135:8136   */\n      0x00\n        /* \"#utility.yul\":8132:8133   */\n      dup1\n        /* \"#utility.yul\":8125:8137   */\n      revert\n        /* \"#utility.yul\":8076:8139   */\n    tag_225:\n        /* \"#utility.yul\":8023:8145   */\n      pop\n      jump\t// out\n\n    auxdata: 0xa2646970667358221220d2c85a08340b0002c124b1e80f23b8d60ac48b6764229acc75a7cc96b6ddbf1764736f6c63430008070033\n}\n",
				"bytecode": {
					"linkReferences": {},
					"object": "60806040526040518060600160405280600a60ff168152602001601460ff168152602001600160ff1681525060009060036200003d92919062000155565b5060405180602001604052806040518060400160405280600381526020017f7374720000000000000000000000000000000000000000000000000000000000815250815250600a906001620000949291906200019f565b5060006017557f42696c626f000000000000000000000000000000000000000000000000000000601860006101000a8154817effffffffffffffffffffffffffffffffffffffffffffffffffffffffffffff021916908360081c02179055506040518060400160405280600581526020017f42696c626f0000000000000000000000000000000000000000000000000000008152506019908051906020019062000140929190620001f9565b503480156200014e57600080fd5b506200040d565b82600a81019282156200018c579160200282015b828111156200018b578251829060ff1690559160200191906001019062000169565b5b5090506200019b91906200028a565b5090565b8260028101928215620001e6579160200282015b82811115620001e5578251829080519060200190620001d4929190620002a9565b5091602001919060010190620001b3565b5b509050620001f591906200033a565b5090565b8280546200020790620003a8565b90600052602060002090601f0160209004810192826200022b576000855562000277565b82601f106200024657805160ff191683800117855562000277565b8280016001018555821562000277579182015b828111156200027657825182559160200191906001019062000259565b5b5090506200028691906200028a565b5090565b5b80821115620002a55760008160009055506001016200028b565b5090565b828054620002b790620003a8565b90600052602060002090601f016020900481019282620002db576000855562000327565b82601f10620002f657805160ff191683800117855562000327565b8280016001018555821562000327579182015b828111156200032657825182559160200191906001019062000309565b5b5090506200033691906200028a565b5090565b5b808211156200035e576000818162000354919062000362565b506001016200033b565b5090565b5080546200037090620003a8565b6000825580601f10620003845750620003a5565b601f016020900490600052602060002090810190620003a491906200028a565b5b50565b60006002820490506001821680620003c157607f821691505b60208210811415620003d857620003d7620003de565b5b50919050565b7f4e487b7100000000000000000000000000000000000000000000000000000000600052602260045260246000fd5b610b08806200041d6000396000f3fe608060405234801561001057600080fd5b50600436106100935760003560e01c8063bfb231d211610066578063bfb231d214610120578063ce8a7af614610150578063d9a38d641461016e578063e334d9d91461019e578063e3440466146101bc57610093565b8063304acd68146100985780635a79b850146100a257806380c9419e146100d2578063a34343c914610102575b600080fd5b6100a06101d8565b005b6100bc60048036038101906100b79190610665565b610309565b6040516100c99190610868565b60405180910390f35b6100ec60048036038101906100e79190610665565b61032d565b6040516100f99190610846565b60405180910390f35b61010a6103d0565b60405161011791906107e7565b60405180910390f35b61013a60048036038101906101359190610665565b610449565b6040516101479190610868565b60405180910390f35b610158610464565b6040516101659190610824565b60405180910390f35b61018860048036038101906101839190610692565b6104f2565b6040516101959190610868565b60405180910390f35b6101a6610520565b6040516101b39190610809565b60405180910390f35b6101d660048036038101906101d19190610665565b610533565b005b6005600080600a81106101ee576101ed610a47565b5b01546101fa91906108f4565b600080600a811061020e5761020d610a47565b5b0181905550600080600a811061022757610226610a47565b5b015460006005600a811061023e5761023d610a47565b5b01819055506040518060a001604052806040518060400160405280600160ff168152602001600260ff1681525081526020016040518060400160405280600160ff168152602001600260ff1681525081526020016040518060400160405280600160ff168152602001600260ff1681525081526020016040518060400160405280600160ff168152602001600260ff1681525081526020016040518060400160405280600160ff168152602001600260ff16815250815250600c90600561030692919061056b565b50565b6016818154811061031957600080fd5b906000526020600020016000915090505481565b600a816002811061033d57600080fd5b01600091509050805461034f906109b7565b80601f016020809104026020016040519081016040528092919081815260200182805461037b906109b7565b80156103c85780601f1061039d576101008083540402835291602001916103c8565b820191906000526020600020905b8154815290600101906020018083116103ab57829003601f168201915b505050505081565b60606000600567ffffffffffffffff8111156103ef576103ee610a76565b5b60405190808252806020026020018201604052801561041d5781602001602082028036833780820191505090505b50905060008160048151811061043657610435610a47565b5b6020026020010181815250508091505090565b600081600a811061045957600080fd5b016000915090505481565b60198054610471906109b7565b80601f016020809104026020016040519081016040528092919081815260200182805461049d906109b7565b80156104ea5780601f106104bf576101008083540402835291602001916104ea565b820191906000526020600020905b8154815290600101906020018083116104cd57829003601f168201915b505050505081565b600c826005811061050257600080fd5b60020201816002811061051457600080fd5b01600091509150505481565b601860009054906101000a900460081b81565b601681908060018154018082558091505060019003906000526020600020016000909190919091505560168054905060178190555050565b82600560020281019282156105ab579160200282015b828111156105aa5782518290600261059a9291906105bc565b5091602001919060020190610581565b5b5090506105b89190610601565b5090565b82600281019282156105f0579160200282015b828111156105ef578251829060ff169055916020019190600101906105cf565b5b5090506105fd9190610625565b5090565b5b8082111561062157600081816106189190610642565b50600201610602565b5090565b5b8082111561063e576000816000905550600101610626565b5090565b506000815560010160009055565b60008135905061065f81610abb565b92915050565b60006020828403121561067b5761067a610aa5565b5b600061068984828501610650565b91505092915050565b600080604083850312156106a9576106a8610aa5565b5b60006106b785828601610650565b92505060206106c885828601610650565b9150509250929050565b60006106de83836107c9565b60208301905092915050565b60006106f582610893565b6106ff81856108c1565b935061070a83610883565b8060005b8381101561073b57815161072288826106d2565b975061072d836108b4565b92505060018101905061070e565b5085935050505092915050565b6107518161094e565b82525050565b60006107628261089e565b61076c81856108d2565b935061077c818560208601610984565b61078581610aaa565b840191505092915050565b600061079b826108a9565b6107a581856108e3565b93506107b5818560208601610984565b6107be81610aaa565b840191505092915050565b6107d28161097a565b82525050565b6107e18161097a565b82525050565b6000602082019050818103600083015261080181846106ea565b905092915050565b600060208201905061081e6000830184610748565b92915050565b6000602082019050818103600083015261083e8184610757565b905092915050565b600060208201905081810360008301526108608184610790565b905092915050565b600060208201905061087d60008301846107d8565b92915050565b6000819050602082019050919050565b600081519050919050565b600081519050919050565b600081519050919050565b6000602082019050919050565b600082825260208201905092915050565b600082825260208201905092915050565b600082825260208201905092915050565b60006108ff8261097a565b915061090a8361097a565b9250817fffffffffffffffffffffffffffffffffffffffffffffffffffffffffffffffff0483118215151615610943576109426109e9565b5b828202905092915050565b60007fffffffffffffffffffffffffffffffffffffffffffffffffffffffffffffff0082169050919050565b6000819050919050565b60005b838110156109a2578082015181840152602081019050610987565b838111156109b1576000848401525b50505050565b600060028204905060018216806109cf57607f821691505b602082108114156109e3576109e2610a18565b5b50919050565b7f4e487b7100000000000000000000000000000000000000000000000000000000600052601160045260246000fd5b7f4e487b7100000000000000000000000000000000000000000000000000000000600052602260045260246000fd5b7f4e487b7100000000000000000000000000000000000000000000000000000000600052603260045260246000fd5b7f4e487b7100000000000000000000000000000000000000000000000000000000600052604160045260246000fd5b600080fd5b6000601f19601f8301169050919050565b610ac48161097a565b8114610acf57600080fd5b5056fea2646970667358221220d2c85a08340b0002c124b1e80f23b8d60ac48b6764229acc75a7cc96b6ddbf1764736f6c63430008070033",
					"opcodes": "PUSH1 0x80 PUSH1 0x40 MSTORE PUSH1 0x40 MLOAD DUP1 PUSH1 0x60 ADD PUSH1 0x40 MSTORE DUP1 PUSH1 0xA PUSH1 0xFF AND DUP2 MSTORE PUSH1 0x20 ADD PUSH1 0x14 PUSH1 0xFF AND DUP2 MSTORE PUSH1 0x20 ADD PUSH1 0x1 PUSH1 0xFF AND DUP2 MSTORE POP PUSH1 0x0 SWAP1 PUSH1 0x3 PUSH3 0x3D SWAP3 SWAP2 SWAP1 PUSH3 0x155 JUMP JUMPDEST POP PUSH1 0x40 MLOAD DUP1 PUSH1 0x20 ADD PUSH1 0x40 MSTORE DUP1 PUSH1 0x40 MLOAD DUP1 PUSH1 0x40 ADD PUSH1 0x40 MSTORE DUP1 PUSH1 0x3 DUP2 MSTORE PUSH1 0x20 ADD PUSH32 0x7374720000000000000000000000000000000000000000000000000000000000 DUP2 MSTORE POP DUP2 MSTORE POP PUSH1 0xA SWAP1 PUSH1 0x1 PUSH3 0x94 SWAP3 SWAP2 SWAP1 PUSH3 0x19F JUMP JUMPDEST POP PUSH1 0x0 PUSH1 0x17 SSTORE PUSH32 0x42696C626F000000000000000000000000000000000000000000000000000000 PUSH1 0x18 PUSH1 0x0 PUSH2 0x100 EXP DUP2 SLOAD DUP2 PUSH31 0xFFFFFFFFFFFFFFFFFFFFFFFFFFFFFFFFFFFFFFFFFFFFFFFFFFFFFFFFFFFFFF MUL NOT AND SWAP1 DUP4 PUSH1 0x8 SHR MUL OR SWAP1 SSTORE POP PUSH1 0x40 MLOAD DUP1 PUSH1 0x40 ADD PUSH1 0x40 MSTORE DUP1 PUSH1 0x5 DUP2 MSTORE PUSH1 0x20 ADD PUSH32 0x42696C626F000000000000000000000000000000000000000000000000000000 DUP2 MSTORE POP PUSH1 0x19 SWAP1 DUP1 MLOAD SWAP1 PUSH1 0x20 ADD SWAP1 PUSH3 0x140 SWAP3 SWAP2 SWAP1 PUSH3 0x1F9 JUMP JUMPDEST POP CALLVALUE DUP1 ISZERO PUSH3 0x14E JUMPI PUSH1 0x0 DUP1 REVERT JUMPDEST POP PUSH3 0x40D JUMP JUMPDEST DUP3 PUSH1 0xA DUP2 ADD SWAP3 DUP3 ISZERO PUSH3 0x18C JUMPI SWAP2 PUSH1 0x20 MUL DUP3 ADD JUMPDEST DUP3 DUP2 GT ISZERO PUSH3 0x18B JUMPI DUP3 MLOAD DUP3 SWAP1 PUSH1 0xFF AND SWAP1 SSTORE SWAP2 PUSH1 0x20 ADD SWAP2 SWAP1 PUSH1 0x1 ADD SWAP1 PUSH3 0x169 JUMP JUMPDEST JUMPDEST POP SWAP1 POP PUSH3 0x19B SWAP2 SWAP1 PUSH3 0x28A JUMP JUMPDEST POP SWAP1 JUMP JUMPDEST DUP3 PUSH1 0x2 DUP2 ADD SWAP3 DUP3 ISZERO PUSH3 0x1E6 JUMPI SWAP2 PUSH1 0x20 MUL DUP3 ADD JUMPDEST DUP3 DUP2 GT ISZERO PUSH3 0x1E5 JUMPI DUP3 MLOAD DUP3 SWAP1 DUP1 MLOAD SWAP1 PUSH1 0x20 ADD SWAP1 PUSH3 0x1D4 SWAP3 SWAP2 SWAP1 PUSH3 0x2A9 JUMP JUMPDEST POP SWAP2 PUSH1 0x20 ADD SWAP2 SWAP1 PUSH1 0x1 ADD SWAP1 PUSH3 0x1B3 JUMP JUMPDEST JUMPDEST POP SWAP1 POP PUSH3 0x1F5 SWAP2 SWAP1 PUSH3 0x33A JUMP JUMPDEST POP SWAP1 JUMP JUMPDEST DUP3 DUP1 SLOAD PUSH3 0x207 SWAP1 PUSH3 0x3A8 JUMP JUMPDEST SWAP1 PUSH1 0x0 MSTORE PUSH1 0x20 PUSH1 0x0 KECCAK256 SWAP1 PUSH1 0x1F ADD PUSH1 0x20 SWAP1 DIV DUP2 ADD SWAP3 DUP3 PUSH3 0x22B JUMPI PUSH1 0x0 DUP6 SSTORE PUSH3 0x277 JUMP JUMPDEST DUP3 PUSH1 0x1F LT PUSH3 0x246 JUMPI DUP1 MLOAD PUSH1 0xFF NOT AND DUP4 DUP1 ADD OR DUP6 SSTORE PUSH3 0x277 JUMP JUMPDEST DUP3 DUP1 ADD PUSH1 0x1 ADD DUP6 SSTORE DUP3 ISZERO PUSH3 0x277 JUMPI SWAP2 DUP3 ADD JUMPDEST DUP3 DUP2 GT ISZERO PUSH3 0x276 JUMPI DUP3 MLOAD DUP3 SSTORE SWAP2 PUSH1 0x20 ADD SWAP2 SWAP1 PUSH1 0x1 ADD SWAP1 PUSH3 0x259 JUMP JUMPDEST JUMPDEST POP SWAP1 POP PUSH3 0x286 SWAP2 SWAP1 PUSH3 0x28A JUMP JUMPDEST POP SWAP1 JUMP JUMPDEST JUMPDEST DUP1 DUP3 GT ISZERO PUSH3 0x2A5 JUMPI PUSH1 0x0 DUP2 PUSH1 0x0 SWAP1 SSTORE POP PUSH1 0x1 ADD PUSH3 0x28B JUMP JUMPDEST POP SWAP1 JUMP JUMPDEST DUP3 DUP1 SLOAD PUSH3 0x2B7 SWAP1 PUSH3 0x3A8 JUMP JUMPDEST SWAP1 PUSH1 0x0 MSTORE PUSH1 0x20 PUSH1 0x0 KECCAK256 SWAP1 PUSH1 0x1F ADD PUSH1 0x20 SWAP1 DIV DUP2 ADD SWAP3 DUP3 PUSH3 0x2DB JUMPI PUSH1 0x0 DUP6 SSTORE PUSH3 0x327 JUMP JUMPDEST DUP3 PUSH1 0x1F LT PUSH3 0x2F6 JUMPI DUP1 MLOAD PUSH1 0xFF NOT AND DUP4 DUP1 ADD OR DUP6 SSTORE PUSH3 0x327 JUMP JUMPDEST DUP3 DUP1 ADD PUSH1 0x1 ADD DUP6 SSTORE DUP3 ISZERO PUSH3 0x327 JUMPI SWAP2 DUP3 ADD JUMPDEST DUP3 DUP2 GT ISZERO PUSH3 0x326 JUMPI DUP3 MLOAD DUP3 SSTORE SWAP2 PUSH1 0x20 ADD SWAP2 SWAP1 PUSH1 0x1 ADD SWAP1 PUSH3 0x309 JUMP JUMPDEST JUMPDEST POP SWAP1 POP PUSH3 0x336 SWAP2 SWAP1 PUSH3 0x28A JUMP JUMPDEST POP SWAP1 JUMP JUMPDEST JUMPDEST DUP1 DUP3 GT ISZERO PUSH3 0x35E JUMPI PUSH1 0x0 DUP2 DUP2 PUSH3 0x354 SWAP2 SWAP1 PUSH3 0x362 JUMP JUMPDEST POP PUSH1 0x1 ADD PUSH3 0x33B JUMP JUMPDEST POP SWAP1 JUMP JUMPDEST POP DUP1 SLOAD PUSH3 0x370 SWAP1 PUSH3 0x3A8 JUMP JUMPDEST PUSH1 0x0 DUP3 SSTORE DUP1 PUSH1 0x1F LT PUSH3 0x384 JUMPI POP PUSH3 0x3A5 JUMP JUMPDEST PUSH1 0x1F ADD PUSH1 0x20 SWAP1 DIV SWAP1 PUSH1 0x0 MSTORE PUSH1 0x20 PUSH1 0x0 KECCAK256 SWAP1 DUP2 ADD SWAP1 PUSH3 0x3A4 SWAP2 SWAP1 PUSH3 0x28A JUMP JUMPDEST JUMPDEST POP JUMP JUMPDEST PUSH1 0x0 PUSH1 0x2 DUP3 DIV SWAP1 POP PUSH1 0x1 DUP3 AND DUP1 PUSH3 0x3C1 JUMPI PUSH1 0x7F DUP3 AND SWAP2 POP JUMPDEST PUSH1 0x20 DUP3 LT DUP2 EQ ISZERO PUSH3 0x3D8 JUMPI PUSH3 0x3D7 PUSH3 0x3DE JUMP JUMPDEST JUMPDEST POP SWAP2 SWAP1 POP JUMP JUMPDEST PUSH32 0x4E487B7100000000000000000000000000000000000000000000000000000000 PUSH1 0x0 MSTORE PUSH1 0x22 PUSH1 0x4 MSTORE PUSH1 0x24 PUSH1 0x0 REVERT JUMPDEST PUSH2 0xB08 DUP1 PUSH3 0x41D PUSH1 0x0 CODECOPY PUSH1 0x0 RETURN INVALID PUSH1 0x80 PUSH1 0x40 MSTORE CALLVALUE DUP1 ISZERO PUSH2 0x10 JUMPI PUSH1 0x0 DUP1 REVERT JUMPDEST POP PUSH1 0x4 CALLDATASIZE LT PUSH2 0x93 JUMPI PUSH1 0x0 CALLDATALOAD PUSH1 0xE0 SHR DUP1 PUSH4 0xBFB231D2 GT PUSH2 0x66 JUMPI DUP1 PUSH4 0xBFB231D2 EQ PUSH2 0x120 JUMPI DUP1 PUSH4 0xCE8A7AF6 EQ PUSH2 0x150 JUMPI DUP1 PUSH4 0xD9A38D64 EQ PUSH2 0x16E JUMPI DUP1 PUSH4 0xE334D9D9 EQ PUSH2 0x19E JUMPI DUP1 PUSH4 0xE3440466 EQ PUSH2 0x1BC JUMPI PUSH2 0x93 JUMP JUMPDEST DUP1 PUSH4 0x304ACD68 EQ PUSH2 0x98 JUMPI DUP1 PUSH4 0x5A79B850 EQ PUSH2 0xA2 JUMPI DUP1 PUSH4 0x80C9419E EQ PUSH2 0xD2 JUMPI DUP1 PUSH4 0xA34343C9 EQ PUSH2 0x102 JUMPI JUMPDEST PUSH1 0x0 DUP1 REVERT JUMPDEST PUSH2 0xA0 PUSH2 0x1D8 JUMP JUMPDEST STOP JUMPDEST PUSH2 0xBC PUSH1 0x4 DUP1 CALLDATASIZE SUB DUP2 ADD SWAP1 PUSH2 0xB7 SWAP2 SWAP1 PUSH2 0x665 JUMP JUMPDEST PUSH2 0x309 JUMP JUMPDEST PUSH1 0x40 MLOAD PUSH2 0xC9 SWAP2 SWAP1 PUSH2 0x868 JUMP JUMPDEST PUSH1 0x40 MLOAD DUP1 SWAP2 SUB SWAP1 RETURN JUMPDEST PUSH2 0xEC PUSH1 0x4 DUP1 CALLDATASIZE SUB DUP2 ADD SWAP1 PUSH2 0xE7 SWAP2 SWAP1 PUSH2 0x665 JUMP JUMPDEST PUSH2 0x32D JUMP JUMPDEST PUSH1 0x40 MLOAD PUSH2 0xF9 SWAP2 SWAP1 PUSH2 0x846 JUMP JUMPDEST PUSH1 0x40 MLOAD DUP1 SWAP2 SUB SWAP1 RETURN JUMPDEST PUSH2 0x10A PUSH2 0x3D0 JUMP JUMPDEST PUSH1 0x40 MLOAD PUSH2 0x117 SWAP2 SWAP1 PUSH2 0x7E7 JUMP JUMPDEST PUSH1 0x40 MLOAD DUP1 SWAP2 SUB SWAP1 RETURN JUMPDEST PUSH2 0x13A PUSH1 0x4 DUP1 CALLDATASIZE SUB DUP2 ADD SWAP1 PUSH2 0x135 SWAP2 SWAP1 PUSH2 0x665 JUMP JUMPDEST PUSH2 0x449 JUMP JUMPDEST PUSH1 0x40 MLOAD PUSH2 0x147 SWAP2 SWAP1 PUSH2 0x868 JUMP JUMPDEST PUSH1 0x40 MLOAD DUP1 SWAP2 SUB SWAP1 RETURN JUMPDEST PUSH2 0x158 PUSH2 0x464 JUMP JUMPDEST PUSH1 0x40 MLOAD PUSH2 0x165 SWAP2 SWAP1 PUSH2 0x824 JUMP JUMPDEST PUSH1 0x40 MLOAD DUP1 SWAP2 SUB SWAP1 RETURN JUMPDEST PUSH2 0x188 PUSH1 0x4 DUP1 CALLDATASIZE SUB DUP2 ADD SWAP1 PUSH2 0x183 SWAP2 SWAP1 PUSH2 0x692 JUMP JUMPDEST PUSH2 0x4F2 JUMP JUMPDEST PUSH1 0x40 MLOAD PUSH2 0x195 SWAP2 SWAP1 PUSH2 0x868 JUMP JUMPDEST PUSH1 0x40 MLOAD DUP1 SWAP2 SUB SWAP1 RETURN JUMPDEST PUSH2 0x1A6 PUSH2 0x520 JUMP JUMPDEST PUSH1 0x40 MLOAD PUSH2 0x1B3 SWAP2 SWAP1 PUSH2 0x809 JUMP JUMPDEST PUSH1 0x40 MLOAD DUP1 SWAP2 SUB SWAP1 RETURN JUMPDEST PUSH2 0x1D6 PUSH1 0x4 DUP1 CALLDATASIZE SUB DUP2 ADD SWAP1 PUSH2 0x1D1 SWAP2 SWAP1 PUSH2 0x665 JUMP JUMPDEST PUSH2 0x533 JUMP JUMPDEST STOP JUMPDEST PUSH1 0x5 PUSH1 0x0 DUP1 PUSH1 0xA DUP2 LT PUSH2 0x1EE JUMPI PUSH2 0x1ED PUSH2 0xA47 JUMP JUMPDEST JUMPDEST ADD SLOAD PUSH2 0x1FA SWAP2 SWAP1 PUSH2 0x8F4 JUMP JUMPDEST PUSH1 0x0 DUP1 PUSH1 0xA DUP2 LT PUSH2 0x20E JUMPI PUSH2 0x20D PUSH2 0xA47 JUMP JUMPDEST JUMPDEST ADD DUP2 SWAP1 SSTORE POP PUSH1 0x0 DUP1 PUSH1 0xA DUP2 LT PUSH2 0x227 JUMPI PUSH2 0x226 PUSH2 0xA47 JUMP JUMPDEST JUMPDEST ADD SLOAD PUSH1 0x0 PUSH1 0x5 PUSH1 0xA DUP2 LT PUSH2 0x23E JUMPI PUSH2 0x23D PUSH2 0xA47 JUMP JUMPDEST JUMPDEST ADD DUP2 SWAP1 SSTORE POP PUSH1 0x40 MLOAD DUP1 PUSH1 0xA0 ADD PUSH1 0x40 MSTORE DUP1 PUSH1 0x40 MLOAD DUP1 PUSH1 0x40 ADD PUSH1 0x40 MSTORE DUP1 PUSH1 0x1 PUSH1 0xFF AND DUP2 MSTORE PUSH1 0x20 ADD PUSH1 0x2 PUSH1 0xFF AND DUP2 MSTORE POP DUP2 MSTORE PUSH1 0x20 ADD PUSH1 0x40 MLOAD DUP1 PUSH1 0x40 ADD PUSH1 0x40 MSTORE DUP1 PUSH1 0x1 PUSH1 0xFF AND DUP2 MSTORE PUSH1 0x20 ADD PUSH1 0x2 PUSH1 0xFF AND DUP2 MSTORE POP DUP2 MSTORE PUSH1 0x20 ADD PUSH1 0x40 MLOAD DUP1 PUSH1 0x40 ADD PUSH1 0x40 MSTORE DUP1 PUSH1 0x1 PUSH1 0xFF AND DUP2 MSTORE PUSH1 0x20 ADD PUSH1 0x2 PUSH1 0xFF AND DUP2 MSTORE POP DUP2 MSTORE PUSH1 0x20 ADD PUSH1 0x40 MLOAD DUP1 PUSH1 0x40 ADD PUSH1 0x40 MSTORE DUP1 PUSH1 0x1 PUSH1 0xFF AND DUP2 MSTORE PUSH1 0x20 ADD PUSH1 0x2 PUSH1 0xFF AND DUP2 MSTORE POP DUP2 MSTORE PUSH1 0x20 ADD PUSH1 0x40 MLOAD DUP1 PUSH1 0x40 ADD PUSH1 0x40 MSTORE DUP1 PUSH1 0x1 PUSH1 0xFF AND DUP2 MSTORE PUSH1 0x20 ADD PUSH1 0x2 PUSH1 0xFF AND DUP2 MSTORE POP DUP2 MSTORE POP PUSH1 0xC SWAP1 PUSH1 0x5 PUSH2 0x306 SWAP3 SWAP2 SWAP1 PUSH2 0x56B JUMP JUMPDEST POP JUMP JUMPDEST PUSH1 0x16 DUP2 DUP2 SLOAD DUP2 LT PUSH2 0x319 JUMPI PUSH1 0x0 DUP1 REVERT JUMPDEST SWAP1 PUSH1 0x0 MSTORE PUSH1 0x20 PUSH1 0x0 KECCAK256 ADD PUSH1 0x0 SWAP2 POP SWAP1 POP SLOAD DUP2 JUMP JUMPDEST PUSH1 0xA DUP2 PUSH1 0x2 DUP2 LT PUSH2 0x33D JUMPI PUSH1 0x0 DUP1 REVERT JUMPDEST ADD PUSH1 0x0 SWAP2 POP SWAP1 POP DUP1 SLOAD PUSH2 0x34F SWAP1 PUSH2 0x9B7 JUMP JUMPDEST DUP1 PUSH1 0x1F ADD PUSH1 0x20 DUP1 SWAP2 DIV MUL PUSH1 0x20 ADD PUSH1 0x40 MLOAD SWAP1 DUP2 ADD PUSH1 0x40 MSTORE DUP1 SWAP3 SWAP2 SWAP1 DUP2 DUP2 MSTORE PUSH1 0x20 ADD DUP3 DUP1 SLOAD PUSH2 0x37B SWAP1 PUSH2 0x9B7 JUMP JUMPDEST DUP1 ISZERO PUSH2 0x3C8 JUMPI DUP1 PUSH1 0x1F LT PUSH2 0x39D JUMPI PUSH2 0x100 DUP1 DUP4 SLOAD DIV MUL DUP4 MSTORE SWAP2 PUSH1 0x20 ADD SWAP2 PUSH2 0x3C8 JUMP JUMPDEST DUP3 ADD SWAP2 SWAP1 PUSH1 0x0 MSTORE PUSH1 0x20 PUSH1 0x0 KECCAK256 SWAP1 JUMPDEST DUP2 SLOAD DUP2 MSTORE SWAP1 PUSH1 0x1 ADD SWAP1 PUSH1 0x20 ADD DUP1 DUP4 GT PUSH2 0x3AB JUMPI DUP3 SWAP1 SUB PUSH1 0x1F AND DUP3 ADD SWAP2 JUMPDEST POP POP POP POP POP DUP2 JUMP JUMPDEST PUSH1 0x60 PUSH1 0x0 PUSH1 0x5 PUSH8 0xFFFFFFFFFFFFFFFF DUP2 GT ISZERO PUSH2 0x3EF JUMPI PUSH2 0x3EE PUSH2 0xA76 JUMP JUMPDEST JUMPDEST PUSH1 0x40 MLOAD SWAP1 DUP1 DUP3 MSTORE DUP1 PUSH1 0x20 MUL PUSH1 0x20 ADD DUP3 ADD PUSH1 0x40 MSTORE DUP1 ISZERO PUSH2 0x41D JUMPI DUP2 PUSH1 0x20 ADD PUSH1 0x20 DUP3 MUL DUP1 CALLDATASIZE DUP4 CALLDATACOPY DUP1 DUP3 ADD SWAP2 POP POP SWAP1 POP JUMPDEST POP SWAP1 POP PUSH1 0x0 DUP2 PUSH1 0x4 DUP2 MLOAD DUP2 LT PUSH2 0x436 JUMPI PUSH2 0x435 PUSH2 0xA47 JUMP JUMPDEST JUMPDEST PUSH1 0x20 MUL PUSH1 0x20 ADD ADD DUP2 DUP2 MSTORE POP POP DUP1 SWAP2 POP POP SWAP1 JUMP JUMPDEST PUSH1 0x0 DUP2 PUSH1 0xA DUP2 LT PUSH2 0x459 JUMPI PUSH1 0x0 DUP1 REVERT JUMPDEST ADD PUSH1 0x0 SWAP2 POP SWAP1 POP SLOAD DUP2 JUMP JUMPDEST PUSH1 0x19 DUP1 SLOAD PUSH2 0x471 SWAP1 PUSH2 0x9B7 JUMP JUMPDEST DUP1 PUSH1 0x1F ADD PUSH1 0x20 DUP1 SWAP2 DIV MUL PUSH1 0x20 ADD PUSH1 0x40 MLOAD SWAP1 DUP2 ADD PUSH1 0x40 MSTORE DUP1 SWAP3 SWAP2 SWAP1 DUP2 DUP2 MSTORE PUSH1 0x20 ADD DUP3 DUP1 SLOAD PUSH2 0x49D SWAP1 PUSH2 0x9B7 JUMP JUMPDEST DUP1 ISZERO PUSH2 0x4EA JUMPI DUP1 PUSH1 0x1F LT PUSH2 0x4BF JUMPI PUSH2 0x100 DUP1 DUP4 SLOAD DIV MUL DUP4 MSTORE SWAP2 PUSH1 0x20 ADD SWAP2 PUSH2 0x4EA JUMP JUMPDEST DUP3 ADD SWAP2 SWAP1 PUSH1 0x0 MSTORE PUSH1 0x20 PUSH1 0x0 KECCAK256 SWAP1 JUMPDEST DUP2 SLOAD DUP2 MSTORE SWAP1 PUSH1 0x1 ADD SWAP1 PUSH1 0x20 ADD DUP1 DUP4 GT PUSH2 0x4CD JUMPI DUP3 SWAP1 SUB PUSH1 0x1F AND DUP3 ADD SWAP2 JUMPDEST POP POP POP POP POP DUP2 JUMP JUMPDEST PUSH1 0xC DUP3 PUSH1 0x5 DUP2 LT PUSH2 0x502 JUMPI PUSH1 0x0 DUP1 REVERT JUMPDEST PUSH1 0x2 MUL ADD DUP2 PUSH1 0x2 DUP2 LT PUSH2 0x514 JUMPI PUSH1 0x0 DUP1 REVERT JUMPDEST ADD PUSH1 0x0 SWAP2 POP SWAP2 POP POP SLOAD DUP2 JUMP JUMPDEST PUSH1 0x18 PUSH1 0x0 SWAP1 SLOAD SWAP1 PUSH2 0x100 EXP SWAP1 DIV PUSH1 0x8 SHL DUP2 JUMP JUMPDEST PUSH1 0x16 DUP2 SWAP1 DUP1 PUSH1 0x1 DUP2 SLOAD ADD DUP1 DUP3 SSTORE DUP1 SWAP2 POP POP PUSH1 0x1 SWAP1 SUB SWAP1 PUSH1 0x0 MSTORE PUSH1 0x20 PUSH1 0x0 KECCAK256 ADD PUSH1 0x0 SWAP1 SWAP2 SWAP1 SWAP2 SWAP1 SWAP2 POP SSTORE PUSH1 0x16 DUP1 SLOAD SWAP1 POP PUSH1 0x17 DUP2 SWAP1 SSTORE POP POP JUMP JUMPDEST DUP3 PUSH1 0x5 PUSH1 0x2 MUL DUP2 ADD SWAP3 DUP3 ISZERO PUSH2 0x5AB JUMPI SWAP2 PUSH1 0x20 MUL DUP3 ADD JUMPDEST DUP3 DUP2 GT ISZERO PUSH2 0x5AA JUMPI DUP3 MLOAD DUP3 SWAP1 PUSH1 0x2 PUSH2 0x59A SWAP3 SWAP2 SWAP1 PUSH2 0x5BC JUMP JUMPDEST POP SWAP2 PUSH1 0x20 ADD SWAP2 SWAP1 PUSH1 0x2 ADD SWAP1 PUSH2 0x581 JUMP JUMPDEST JUMPDEST POP SWAP1 POP PUSH2 0x5B8 SWAP2 SWAP1 PUSH2 0x601 JUMP JUMPDEST POP SWAP1 JUMP JUMPDEST DUP3 PUSH1 0x2 DUP2 ADD SWAP3 DUP3 ISZERO PUSH2 0x5F0 JUMPI SWAP2 PUSH1 0x20 MUL DUP3 ADD JUMPDEST DUP3 DUP2 GT ISZERO PUSH2 0x5EF JUMPI DUP3 MLOAD DUP3 SWAP1 PUSH1 0xFF AND SWAP1 SSTORE SWAP2 PUSH1 0x20 ADD SWAP2 SWAP1 PUSH1 0x1 ADD SWAP1 PUSH2 0x5CF JUMP JUMPDEST JUMPDEST POP SWAP1 POP PUSH2 0x5FD SWAP2 SWAP1 PUSH2 0x625 JUMP JUMPDEST POP SWAP1 JUMP JUMPDEST JUMPDEST DUP1 DUP3 GT ISZERO PUSH2 0x621 JUMPI PUSH1 0x0 DUP2 DUP2 PUSH2 0x618 SWAP2 SWAP1 PUSH2 0x642 JUMP JUMPDEST POP PUSH1 0x2 ADD PUSH2 0x602 JUMP JUMPDEST POP SWAP1 JUMP JUMPDEST JUMPDEST DUP1 DUP3 GT ISZERO PUSH2 0x63E JUMPI PUSH1 0x0 DUP2 PUSH1 0x0 SWAP1 SSTORE POP PUSH1 0x1 ADD PUSH2 0x626 JUMP JUMPDEST POP SWAP1 JUMP JUMPDEST POP PUSH1 0x0 DUP2 SSTORE PUSH1 0x1 ADD PUSH1 0x0 SWAP1 SSTORE JUMP JUMPDEST PUSH1 0x0 DUP2 CALLDATALOAD SWAP1 POP PUSH2 0x65F DUP2 PUSH2 0xABB JUMP JUMPDEST SWAP3 SWAP2 POP POP JUMP JUMPDEST PUSH1 0x0 PUSH1 0x20 DUP3 DUP5 SUB SLT ISZERO PUSH2 0x67B JUMPI PUSH2 0x67A PUSH2 0xAA5 JUMP JUMPDEST JUMPDEST PUSH1 0x0 PUSH2 0x689 DUP5 DUP3 DUP6 ADD PUSH2 0x650 JUMP JUMPDEST SWAP2 POP POP SWAP3 SWAP2 POP POP JUMP JUMPDEST PUSH1 0x0 DUP1 PUSH1 0x40 DUP4 DUP6 SUB SLT ISZERO PUSH2 0x6A9 JUMPI PUSH2 0x6A8 PUSH2 0xAA5 JUMP JUMPDEST JUMPDEST PUSH1 0x0 PUSH2 0x6B7 DUP6 DUP3 DUP7 ADD PUSH2 0x650 JUMP JUMPDEST SWAP3 POP POP PUSH1 0x20 PUSH2 0x6C8 DUP6 DUP3 DUP7 ADD PUSH2 0x650 JUMP JUMPDEST SWAP2 POP POP SWAP3 POP SWAP3 SWAP1 POP JUMP JUMPDEST PUSH1 0x0 PUSH2 0x6DE DUP4 DUP4 PUSH2 0x7C9 JUMP JUMPDEST PUSH1 0x20 DUP4 ADD SWAP1 POP SWAP3 SWAP2 POP POP JUMP JUMPDEST PUSH1 0x0 PUSH2 0x6F5 DUP3 PUSH2 0x893 JUMP JUMPDEST PUSH2 0x6FF DUP2 DUP6 PUSH2 0x8C1 JUMP JUMPDEST SWAP4 POP PUSH2 0x70A DUP4 PUSH2 0x883 JUMP JUMPDEST DUP1 PUSH1 0x0 JUMPDEST DUP4 DUP2 LT ISZERO PUSH2 0x73B JUMPI DUP2 MLOAD PUSH2 0x722 DUP9 DUP3 PUSH2 0x6D2 JUMP JUMPDEST SWAP8 POP PUSH2 0x72D DUP4 PUSH2 0x8B4 JUMP JUMPDEST SWAP3 POP POP PUSH1 0x1 DUP2 ADD SWAP1 POP PUSH2 0x70E JUMP JUMPDEST POP DUP6 SWAP4 POP POP POP POP SWAP3 SWAP2 POP POP JUMP JUMPDEST PUSH2 0x751 DUP2 PUSH2 0x94E JUMP JUMPDEST DUP3 MSTORE POP POP JUMP JUMPDEST PUSH1 0x0 PUSH2 0x762 DUP3 PUSH2 0x89E JUMP JUMPDEST PUSH2 0x76C DUP2 DUP6 PUSH2 0x8D2 JUMP JUMPDEST SWAP4 POP PUSH2 0x77C DUP2 DUP6 PUSH1 0x20 DUP7 ADD PUSH2 0x984 JUMP JUMPDEST PUSH2 0x785 DUP2 PUSH2 0xAAA JUMP JUMPDEST DUP5 ADD SWAP2 POP POP SWAP3 SWAP2 POP POP JUMP JUMPDEST PUSH1 0x0 PUSH2 0x79B DUP3 PUSH2 0x8A9 JUMP JUMPDEST PUSH2 0x7A5 DUP2 DUP6 PUSH2 0x8E3 JUMP JUMPDEST SWAP4 POP PUSH2 0x7B5 DUP2 DUP6 PUSH1 0x20 DUP7 ADD PUSH2 0x984 JUMP JUMPDEST PUSH2 0x7BE DUP2 PUSH2 0xAAA JUMP JUMPDEST DUP5 ADD SWAP2 POP POP SWAP3 SWAP2 POP POP JUMP JUMPDEST PUSH2 0x7D2 DUP2 PUSH2 0x97A JUMP JUMPDEST DUP3 MSTORE POP POP JUMP JUMPDEST PUSH2 0x7E1 DUP2 PUSH2 0x97A JUMP JUMPDEST DUP3 MSTORE POP POP JUMP JUMPDEST PUSH1 0x0 PUSH1 0x20 DUP3 ADD SWAP1 POP DUP2 DUP2 SUB PUSH1 0x0 DUP4 ADD MSTORE PUSH2 0x801 DUP2 DUP5 PUSH2 0x6EA JUMP JUMPDEST SWAP1 POP SWAP3 SWAP2 POP POP JUMP JUMPDEST PUSH1 0x0 PUSH1 0x20 DUP3 ADD SWAP1 POP PUSH2 0x81E PUSH1 0x0 DUP4 ADD DUP5 PUSH2 0x748 JUMP JUMPDEST SWAP3 SWAP2 POP POP JUMP JUMPDEST PUSH1 0x0 PUSH1 0x20 DUP3 ADD SWAP1 POP DUP2 DUP2 SUB PUSH1 0x0 DUP4 ADD MSTORE PUSH2 0x83E DUP2 DUP5 PUSH2 0x757 JUMP JUMPDEST SWAP1 POP SWAP3 SWAP2 POP POP JUMP JUMPDEST PUSH1 0x0 PUSH1 0x20 DUP3 ADD SWAP1 POP DUP2 DUP2 SUB PUSH1 0x0 DUP4 ADD MSTORE PUSH2 0x860 DUP2 DUP5 PUSH2 0x790 JUMP JUMPDEST SWAP1 POP SWAP3 SWAP2 POP POP JUMP JUMPDEST PUSH1 0x0 PUSH1 0x20 DUP3 ADD SWAP1 POP PUSH2 0x87D PUSH1 0x0 DUP4 ADD DUP5 PUSH2 0x7D8 JUMP JUMPDEST SWAP3 SWAP2 POP POP JUMP JUMPDEST PUSH1 0x0 DUP2 SWAP1 POP PUSH1 0x20 DUP3 ADD SWAP1 POP SWAP2 SWAP1 POP JUMP JUMPDEST PUSH1 0x0 DUP2 MLOAD SWAP1 POP SWAP2 SWAP1 POP JUMP JUMPDEST PUSH1 0x0 DUP2 MLOAD SWAP1 POP SWAP2 SWAP1 POP JUMP JUMPDEST PUSH1 0x0 DUP2 MLOAD SWAP1 POP SWAP2 SWAP1 POP JUMP JUMPDEST PUSH1 0x0 PUSH1 0x20 DUP3 ADD SWAP1 POP SWAP2 SWAP1 POP JUMP JUMPDEST PUSH1 0x0 DUP3 DUP3 MSTORE PUSH1 0x20 DUP3 ADD SWAP1 POP SWAP3 SWAP2 POP POP JUMP JUMPDEST PUSH1 0x0 DUP3 DUP3 MSTORE PUSH1 0x20 DUP3 ADD SWAP1 POP SWAP3 SWAP2 POP POP JUMP JUMPDEST PUSH1 0x0 DUP3 DUP3 MSTORE PUSH1 0x20 DUP3 ADD SWAP1 POP SWAP3 SWAP2 POP POP JUMP JUMPDEST PUSH1 0x0 PUSH2 0x8FF DUP3 PUSH2 0x97A JUMP JUMPDEST SWAP2 POP PUSH2 0x90A DUP4 PUSH2 0x97A JUMP JUMPDEST SWAP3 POP DUP2 PUSH32 0xFFFFFFFFFFFFFFFFFFFFFFFFFFFFFFFFFFFFFFFFFFFFFFFFFFFFFFFFFFFFFFFF DIV DUP4 GT DUP3 ISZERO ISZERO AND ISZERO PUSH2 0x943 JUMPI PUSH2 0x942 PUSH2 0x9E9 JUMP JUMPDEST JUMPDEST DUP3 DUP3 MUL SWAP1 POP SWAP3 SWAP2 POP POP JUMP JUMPDEST PUSH1 0x0 PUSH32 0xFFFFFFFFFFFFFFFFFFFFFFFFFFFFFFFFFFFFFFFFFFFFFFFFFFFFFFFFFFFFFF00 DUP3 AND SWAP1 POP SWAP2 SWAP1 POP JUMP JUMPDEST PUSH1 0x0 DUP2 SWAP1 POP SWAP2 SWAP1 POP JUMP JUMPDEST PUSH1 0x0 JUMPDEST DUP4 DUP2 LT ISZERO PUSH2 0x9A2 JUMPI DUP1 DUP3 ADD MLOAD DUP2 DUP5 ADD MSTORE PUSH1 0x20 DUP2 ADD SWAP1 POP PUSH2 0x987 JUMP JUMPDEST DUP4 DUP2 GT ISZERO PUSH2 0x9B1 JUMPI PUSH1 0x0 DUP5 DUP5 ADD MSTORE JUMPDEST POP POP POP POP JUMP JUMPDEST PUSH1 0x0 PUSH1 0x2 DUP3 DIV SWAP1 POP PUSH1 0x1 DUP3 AND DUP1 PUSH2 0x9CF JUMPI PUSH1 0x7F DUP3 AND SWAP2 POP JUMPDEST PUSH1 0x20 DUP3 LT DUP2 EQ ISZERO PUSH2 0x9E3 JUMPI PUSH2 0x9E2 PUSH2 0xA18 JUMP JUMPDEST JUMPDEST POP SWAP2 SWAP1 POP JUMP JUMPDEST PUSH32 0x4E487B7100000000000000000000000000000000000000000000000000000000 PUSH1 0x0 MSTORE PUSH1 0x11 PUSH1 0x4 MSTORE PUSH1 0x24 PUSH1 0x0 REVERT JUMPDEST PUSH32 0x4E487B7100000000000000000000000000000000000000000000000000000000 PUSH1 0x0 MSTORE PUSH1 0x22 PUSH1 0x4 MSTORE PUSH1 0x24 PUSH1 0x0 REVERT JUMPDEST PUSH32 0x4E487B7100000000000000000000000000000000000000000000000000000000 PUSH1 0x0 MSTORE PUSH1 0x32 PUSH1 0x4 MSTORE PUSH1 0x24 PUSH1 0x0 REVERT JUMPDEST PUSH32 0x4E487B7100000000000000000000000000000000000000000000000000000000 PUSH1 0x0 MSTORE PUSH1 0x41 PUSH1 0x4 MSTORE PUSH1 0x24 PUSH1 0x0 REVERT JUMPDEST PUSH1 0x0 DUP1 REVERT JUMPDEST PUSH1 0x0 PUSH1 0x1F NOT PUSH1 0x1F DUP4 ADD AND SWAP1 POP SWAP2 SWAP1 POP JUMP JUMPDEST PUSH2 0xAC4 DUP2 PUSH2 0x97A JUMP JUMPDEST DUP2 EQ PUSH2 0xACF JUMPI PUSH1 0x0 DUP1 REVERT JUMPDEST POP JUMP INVALID LOG2 PUSH5 0x6970667358 0x22 SLT KECCAK256 0xD2 0xC8 GAS ADDMOD CALLVALUE SIGNEXTEND STOP MUL 0xC1 0x24 0xB1 0xE8 0xF 0x23 0xB8 0xD6 EXP 0xC4 DUP12 PUSH8 0x64229ACC75A7CC96 0xB6 0xDD 0xBF OR PUSH5 0x736F6C6343 STOP ADDMOD SMOD STOP CALLER "
				},
				"gasEstimates": {
					"creation": {
						"codeDepositCost": "564800",
						"executionCost": "infinite",
						"totalCost": "infinite"
					},
					"external": {
						"dynArr(uint256)": "infinite",
						"hobait()": "infinite",
						"hobit()": "2537",
						"items(uint256)": "infinite",
						"list(uint256)": "infinite",
						"matrix(uint256,uint256)": "infinite",
						"modDynamicArr(uint256)": "71139",
						"modifyArray()": "infinite",
						"sampleMemory()": "infinite"
					}
				},
				"methodIdentifiers": {
					"dynArr(uint256)": "5a79b850",
					"hobait()": "ce8a7af6",
					"hobit()": "e334d9d9",
					"items(uint256)": "bfb231d2",
					"list(uint256)": "80c9419e",
					"matrix(uint256,uint256)": "d9a38d64",
					"modDynamicArr(uint256)": "e3440466",
					"modifyArray()": "304acd68",
					"sampleMemory()": "a34343c9"
				}
			},
			"storageLayout": {
				"storage": [
					{
						"astId": 9,
						"contract": "contracts/Lesson4Types.sol:Array4Lesson",
						"label": "items",
						"offset": 0,
						"slot": "0",
						"type": "t_array(t_uint256)10_storage"
					},
					{
						"astId": 15,
						"contract": "contracts/Lesson4Types.sol:Array4Lesson",
						"label": "list",
						"offset": 0,
						"slot": "10",
						"type": "t_array(t_string_storage)2_storage"
					},
					{
						"astId": 21,
						"contract": "contracts/Lesson4Types.sol:Array4Lesson",
						"label": "matrix",
						"offset": 0,
						"slot": "12",
						"type": "t_array(t_array(t_uint256)2_storage)5_storage"
					},
					{
						"astId": 24,
						"contract": "contracts/Lesson4Types.sol:Array4Lesson",
						"label": "dynArr",
						"offset": 0,
						"slot": "22",
						"type": "t_array(t_uint256)dyn_storage"
					},
					{
						"astId": 27,
						"contract": "contracts/Lesson4Types.sol:Array4Lesson",
						"label": "dynArrLength",
						"offset": 0,
						"slot": "23",
						"type": "t_uint256"
					},
					{
						"astId": 30,
						"contract": "contracts/Lesson4Types.sol:Array4Lesson",
						"label": "hobit",
						"offset": 0,
						"slot": "24",
						"type": "t_bytes31"
					},
					{
						"astId": 33,
						"contract": "contracts/Lesson4Types.sol:Array4Lesson",
						"label": "hobait",
						"offset": 0,
						"slot": "25",
						"type": "t_bytes_storage"
					}
				],
				"types": {
					"t_array(t_array(t_uint256)2_storage)5_storage": {
						"base": "t_array(t_uint256)2_storage",
						"encoding": "inplace",
						"label": "uint256[2][5]",
						"numberOfBytes": "320"
					},
					"t_array(t_string_storage)2_storage": {
						"base": "t_string_storage",
						"encoding": "inplace",
						"label": "string[2]",
						"numberOfBytes": "64"
					},
					"t_array(t_uint256)10_storage": {
						"base": "t_uint256",
						"encoding": "inplace",
						"label": "uint256[10]",
						"numberOfBytes": "320"
					},
					"t_array(t_uint256)2_storage": {
						"base": "t_uint256",
						"encoding": "inplace",
						"label": "uint256[2]",
						"numberOfBytes": "64"
					},
					"t_array(t_uint256)dyn_storage": {
						"base": "t_uint256",
						"encoding": "dynamic_array",
						"label": "uint256[]",
						"numberOfBytes": "32"
					},
					"t_bytes31": {
						"encoding": "inplace",
						"label": "bytes31",
						"numberOfBytes": "31"
					},
					"t_bytes_storage": {
						"encoding": "bytes",
						"label": "bytes",
						"numberOfBytes": "32"
					},
					"t_string_storage": {
						"encoding": "bytes",
						"label": "string",
						"numberOfBytes": "32"
					},
					"t_uint256": {
						"encoding": "inplace",
						"label": "uint256",
						"numberOfBytes": "32"
					}
				}
			},
			"userdoc": {
				"kind": "user",
				"methods": {},
				"version": 1
			}
		}
	}
}