{
	"contracts/Lesson1Types.sol": {
		"DemoInt": {
			"abi": [
				{
					"inputs": [
						{
							"internalType": "uint256",
							"name": "_tempUint",
							"type": "uint256"
						}
					],
					"name": "myFunc",
					"outputs": [],
					"stateMutability": "nonpayable",
					"type": "function"
				},
				{
					"inputs": [],
					"name": "myInt",
					"outputs": [
						{
							"internalType": "int256",
							"name": "",
							"type": "int256"
						}
					],
					"stateMutability": "view",
					"type": "function"
				},
				{
					"inputs": [],
					"name": "mySmallestInt",
					"outputs": [
						{
							"internalType": "int8",
							"name": "",
							"type": "int8"
						}
					],
					"stateMutability": "view",
					"type": "function"
				}
			],
			"devdoc": {
				"kind": "dev",
				"methods": {},
				"version": 1
			},
			"evm": {
				"assembly": "    /* \"contracts/Lesson1Types.sol\":1029:1756  contract DemoInt {... */\n  mstore(0x40, 0x80)\n    /* \"contracts/Lesson1Types.sol\":1066:1068  10 */\n  0x0a\n    /* \"contracts/Lesson1Types.sol\":1052:1068  uint myUint = 10 */\n  0x00\n  sstore\n    /* \"contracts/Lesson1Types.sol\":1678:1681  -22 */\n  0xffffffffffffffffffffffffffffffffffffffffffffffffffffffffffffffea\n    /* \"contracts/Lesson1Types.sol\":1659:1681  int public myInt = -22 */\n  0x01\n  sstore\n    /* \"contracts/Lesson1Types.sol\":1715:1717  -1 */\n  0xffffffffffffffffffffffffffffffffffffffffffffffffffffffffffffffff\n    /* \"contracts/Lesson1Types.sol\":1687:1717  int8 public mySmallestInt = -1 */\n  0x02\n  exp(0x0100, 0x00)\n  dup2\n  sload\n  dup2\n  0xff\n  mul\n  not\n  and\n  swap1\n  dup4\n  0x00\n  signextend\n  0xff\n  and\n  mul\n  or\n  swap1\n  sstore\n  pop\n    /* \"contracts/Lesson1Types.sol\":1029:1756  contract DemoInt {... */\n  callvalue\n  dup1\n  iszero\n  tag_1\n  jumpi\n  0x00\n  dup1\n  revert\ntag_1:\n  pop\n  dataSize(sub_0)\n  dup1\n  dataOffset(sub_0)\n  0x00\n  codecopy\n  0x00\n  return\nstop\n\nsub_0: assembly {\n        /* \"contracts/Lesson1Types.sol\":1029:1756  contract DemoInt {... */\n      mstore(0x40, 0x80)\n      callvalue\n      dup1\n      iszero\n      tag_1\n      jumpi\n      0x00\n      dup1\n      revert\n    tag_1:\n      pop\n      jumpi(tag_2, lt(calldatasize, 0x04))\n      shr(0xe0, calldataload(0x00))\n      dup1\n      0x0b79ba80\n      eq\n      tag_3\n      jumpi\n      dup1\n      0x2cb777a6\n      eq\n      tag_4\n      jumpi\n      dup1\n      0xa9bf5633\n      eq\n      tag_5\n      jumpi\n    tag_2:\n      0x00\n      dup1\n      revert\n        /* \"contracts/Lesson1Types.sol\":1687:1717  int8 public mySmallestInt = -1 */\n    tag_3:\n      tag_6\n      tag_7\n      jump\t// in\n    tag_6:\n      mload(0x40)\n      tag_8\n      swap2\n      swap1\n      tag_9\n      jump\t// in\n    tag_8:\n      mload(0x40)\n      dup1\n      swap2\n      sub\n      swap1\n      return\n        /* \"contracts/Lesson1Types.sol\":1659:1681  int public myInt = -22 */\n    tag_4:\n      tag_10\n      tag_11\n      jump\t// in\n    tag_10:\n      mload(0x40)\n      tag_12\n      swap2\n      swap1\n      tag_13\n      jump\t// in\n    tag_12:\n      mload(0x40)\n      dup1\n      swap2\n      sub\n      swap1\n      return\n        /* \"contracts/Lesson1Types.sol\":1125:1637  function myFunc(uint _tempUint) public {... */\n    tag_5:\n      tag_14\n      0x04\n      dup1\n      calldatasize\n      sub\n      dup2\n      add\n      swap1\n      tag_15\n      swap2\n      swap1\n      tag_16\n      jump\t// in\n    tag_15:\n      tag_17\n      jump\t// in\n    tag_14:\n      stop\n        /* \"contracts/Lesson1Types.sol\":1687:1717  int8 public mySmallestInt = -1 */\n    tag_7:\n      0x02\n      0x00\n      swap1\n      sload\n      swap1\n      0x0100\n      exp\n      swap1\n      div\n      0x00\n      signextend\n      dup2\n      jump\t// out\n        /* \"contracts/Lesson1Types.sol\":1659:1681  int public myInt = -22 */\n    tag_11:\n      sload(0x01)\n      dup2\n      jump\t// out\n        /* \"contracts/Lesson1Types.sol\":1125:1637  function myFunc(uint _tempUint) public {... */\n    tag_17:\n        /* \"contracts/Lesson1Types.sol\":1174:1188  uint localUint */\n      0x00\n        /* \"contracts/Lesson1Types.sol\":1191:1193  42 */\n      0x2a\n        /* \"contracts/Lesson1Types.sol\":1174:1193  uint localUint = 42 */\n      swap1\n      pop\n        /* \"contracts/Lesson1Types.sol\":1203:1218  uint256 newUint */\n      0x00\n        /* \"contracts/Lesson1Types.sol\":1221:1225  1234 */\n      0x04d2\n        /* \"contracts/Lesson1Types.sol\":1203:1225  uint256 newUint = 1234 */\n      swap1\n      pop\n        /* \"contracts/Lesson1Types.sol\":1275:1293  uint8 smallestUint */\n      0x00\n        /* \"contracts/Lesson1Types.sol\":1296:1297  2 */\n      0x02\n        /* \"contracts/Lesson1Types.sol\":1275:1297  uint8 smallestUint = 2 */\n      swap1\n      pop\n        /* \"contracts/Lesson1Types.sol\":1352:1353  1 */\n      0x01\n        /* \"contracts/Lesson1Types.sol\":1340:1349  localUint */\n      dup4\n        /* \"contracts/Lesson1Types.sol\":1340:1353  localUint + 1 */\n      tag_19\n      swap2\n      swap1\n      tag_20\n      jump\t// in\n    tag_19:\n      pop\n        /* \"contracts/Lesson1Types.sol\":1375:1376  1 */\n      0x01\n        /* \"contracts/Lesson1Types.sol\":1363:1372  localUint */\n      dup4\n        /* \"contracts/Lesson1Types.sol\":1363:1376  localUint - 1 */\n      tag_21\n      swap2\n      swap1\n      tag_22\n      jump\t// in\n    tag_21:\n      pop\n        /* \"contracts/Lesson1Types.sol\":1398:1399  5 */\n      0x05\n        /* \"contracts/Lesson1Types.sol\":1386:1395  localUint */\n      dup4\n        /* \"contracts/Lesson1Types.sol\":1386:1399  localUint * 5 */\n      tag_23\n      swap2\n      swap1\n      tag_24\n      jump\t// in\n    tag_23:\n      pop\n        /* \"contracts/Lesson1Types.sol\":1421:1422  5 */\n      0x05\n        /* \"contracts/Lesson1Types.sol\":1409:1418  localUint */\n      dup4\n        /* \"contracts/Lesson1Types.sol\":1409:1422  localUint / 5 */\n      tag_25\n      swap2\n      swap1\n      tag_26\n      jump\t// in\n    tag_25:\n      pop\n        /* \"contracts/Lesson1Types.sol\":1445:1446  2 */\n      0x02\n        /* \"contracts/Lesson1Types.sol\":1432:1441  localUint */\n      dup4\n        /* \"contracts/Lesson1Types.sol\":1432:1446  localUint ** 2 */\n      tag_27\n      swap2\n      swap1\n      tag_28\n      jump\t// in\n    tag_27:\n      pop\n        /* \"contracts/Lesson1Types.sol\":1510:1511  1 */\n      0x01\n        /* \"contracts/Lesson1Types.sol\":1498:1507  localUint */\n      dup4\n        /* \"contracts/Lesson1Types.sol\":1498:1511  localUint % 1 */\n      tag_29\n      swap2\n      swap1\n      tag_30\n      jump\t// in\n    tag_29:\n      pop\n        /* \"contracts/Lesson1Types.sol\":1164:1637  {... */\n      pop\n      pop\n      pop\n        /* \"contracts/Lesson1Types.sol\":1125:1637  function myFunc(uint _tempUint) public {... */\n      pop\n      jump\t// out\n        /* \"#utility.yul\":7:146   */\n    tag_32:\n        /* \"#utility.yul\":53:58   */\n      0x00\n        /* \"#utility.yul\":91:97   */\n      dup2\n        /* \"#utility.yul\":78:98   */\n      calldataload\n        /* \"#utility.yul\":69:98   */\n      swap1\n      pop\n        /* \"#utility.yul\":107:140   */\n      tag_34\n        /* \"#utility.yul\":134:139   */\n      dup2\n        /* \"#utility.yul\":107:140   */\n      tag_35\n      jump\t// in\n    tag_34:\n        /* \"#utility.yul\":7:146   */\n      swap3\n      swap2\n      pop\n      pop\n      jump\t// out\n        /* \"#utility.yul\":152:481   */\n    tag_16:\n        /* \"#utility.yul\":211:217   */\n      0x00\n        /* \"#utility.yul\":260:262   */\n      0x20\n        /* \"#utility.yul\":248:257   */\n      dup3\n        /* \"#utility.yul\":239:246   */\n      dup5\n        /* \"#utility.yul\":235:258   */\n      sub\n        /* \"#utility.yul\":231:263   */\n      slt\n        /* \"#utility.yul\":228:347   */\n      iszero\n      tag_37\n      jumpi\n        /* \"#utility.yul\":266:345   */\n      tag_38\n      tag_39\n      jump\t// in\n    tag_38:\n        /* \"#utility.yul\":228:347   */\n    tag_37:\n        /* \"#utility.yul\":386:387   */\n      0x00\n        /* \"#utility.yul\":411:464   */\n      tag_40\n        /* \"#utility.yul\":456:463   */\n      dup5\n        /* \"#utility.yul\":447:453   */\n      dup3\n        /* \"#utility.yul\":436:445   */\n      dup6\n        /* \"#utility.yul\":432:454   */\n      add\n        /* \"#utility.yul\":411:464   */\n      tag_32\n      jump\t// in\n    tag_40:\n        /* \"#utility.yul\":401:464   */\n      swap2\n      pop\n        /* \"#utility.yul\":357:474   */\n      pop\n        /* \"#utility.yul\":152:481   */\n      swap3\n      swap2\n      pop\n      pop\n      jump\t// out\n        /* \"#utility.yul\":487:602   */\n    tag_41:\n        /* \"#utility.yul\":572:595   */\n      tag_43\n        /* \"#utility.yul\":589:594   */\n      dup2\n        /* \"#utility.yul\":572:595   */\n      tag_44\n      jump\t// in\n    tag_43:\n        /* \"#utility.yul\":567:570   */\n      dup3\n        /* \"#utility.yul\":560:596   */\n      mstore\n        /* \"#utility.yul\":487:602   */\n      pop\n      pop\n      jump\t// out\n        /* \"#utility.yul\":608:717   */\n    tag_45:\n        /* \"#utility.yul\":689:710   */\n      tag_47\n        /* \"#utility.yul\":704:709   */\n      dup2\n        /* \"#utility.yul\":689:710   */\n      tag_48\n      jump\t// in\n    tag_47:\n        /* \"#utility.yul\":684:687   */\n      dup3\n        /* \"#utility.yul\":677:711   */\n      mstore\n        /* \"#utility.yul\":608:717   */\n      pop\n      pop\n      jump\t// out\n        /* \"#utility.yul\":723:941   */\n    tag_13:\n        /* \"#utility.yul\":814:818   */\n      0x00\n        /* \"#utility.yul\":852:854   */\n      0x20\n        /* \"#utility.yul\":841:850   */\n      dup3\n        /* \"#utility.yul\":837:855   */\n      add\n        /* \"#utility.yul\":829:855   */\n      swap1\n      pop\n        /* \"#utility.yul\":865:934   */\n      tag_50\n        /* \"#utility.yul\":931:932   */\n      0x00\n        /* \"#utility.yul\":920:929   */\n      dup4\n        /* \"#utility.yul\":916:933   */\n      add\n        /* \"#utility.yul\":907:913   */\n      dup5\n        /* \"#utility.yul\":865:934   */\n      tag_41\n      jump\t// in\n    tag_50:\n        /* \"#utility.yul\":723:941   */\n      swap3\n      swap2\n      pop\n      pop\n      jump\t// out\n        /* \"#utility.yul\":947:1157   */\n    tag_9:\n        /* \"#utility.yul\":1034:1038   */\n      0x00\n        /* \"#utility.yul\":1072:1074   */\n      0x20\n        /* \"#utility.yul\":1061:1070   */\n      dup3\n        /* \"#utility.yul\":1057:1075   */\n      add\n        /* \"#utility.yul\":1049:1075   */\n      swap1\n      pop\n        /* \"#utility.yul\":1085:1150   */\n      tag_52\n        /* \"#utility.yul\":1147:1148   */\n      0x00\n        /* \"#utility.yul\":1136:1145   */\n      dup4\n        /* \"#utility.yul\":1132:1149   */\n      add\n        /* \"#utility.yul\":1123:1129   */\n      dup5\n        /* \"#utility.yul\":1085:1150   */\n      tag_45\n      jump\t// in\n    tag_52:\n        /* \"#utility.yul\":947:1157   */\n      swap3\n      swap2\n      pop\n      pop\n      jump\t// out\n        /* \"#utility.yul\":1244:1549   */\n    tag_20:\n        /* \"#utility.yul\":1284:1287   */\n      0x00\n        /* \"#utility.yul\":1303:1323   */\n      tag_56\n        /* \"#utility.yul\":1321:1322   */\n      dup3\n        /* \"#utility.yul\":1303:1323   */\n      tag_57\n      jump\t// in\n    tag_56:\n        /* \"#utility.yul\":1298:1323   */\n      swap2\n      pop\n        /* \"#utility.yul\":1337:1357   */\n      tag_58\n        /* \"#utility.yul\":1355:1356   */\n      dup4\n        /* \"#utility.yul\":1337:1357   */\n      tag_57\n      jump\t// in\n    tag_58:\n        /* \"#utility.yul\":1332:1357   */\n      swap3\n      pop\n        /* \"#utility.yul\":1491:1492   */\n      dup3\n        /* \"#utility.yul\":1423:1489   */\n      0xffffffffffffffffffffffffffffffffffffffffffffffffffffffffffffffff\n        /* \"#utility.yul\":1419:1493   */\n      sub\n        /* \"#utility.yul\":1416:1417   */\n      dup3\n        /* \"#utility.yul\":1413:1494   */\n      gt\n        /* \"#utility.yul\":1410:1517   */\n      iszero\n      tag_59\n      jumpi\n        /* \"#utility.yul\":1497:1515   */\n      tag_60\n      tag_61\n      jump\t// in\n    tag_60:\n        /* \"#utility.yul\":1410:1517   */\n    tag_59:\n        /* \"#utility.yul\":1541:1542   */\n      dup3\n        /* \"#utility.yul\":1538:1539   */\n      dup3\n        /* \"#utility.yul\":1534:1543   */\n      add\n        /* \"#utility.yul\":1527:1543   */\n      swap1\n      pop\n        /* \"#utility.yul\":1244:1549   */\n      swap3\n      swap2\n      pop\n      pop\n      jump\t// out\n        /* \"#utility.yul\":1555:1740   */\n    tag_26:\n        /* \"#utility.yul\":1595:1596   */\n      0x00\n        /* \"#utility.yul\":1612:1632   */\n      tag_63\n        /* \"#utility.yul\":1630:1631   */\n      dup3\n        /* \"#utility.yul\":1612:1632   */\n      tag_57\n      jump\t// in\n    tag_63:\n        /* \"#utility.yul\":1607:1632   */\n      swap2\n      pop\n        /* \"#utility.yul\":1646:1666   */\n      tag_64\n        /* \"#utility.yul\":1664:1665   */\n      dup4\n        /* \"#utility.yul\":1646:1666   */\n      tag_57\n      jump\t// in\n    tag_64:\n        /* \"#utility.yul\":1641:1666   */\n      swap3\n      pop\n        /* \"#utility.yul\":1685:1686   */\n      dup3\n        /* \"#utility.yul\":1675:1710   */\n      tag_65\n      jumpi\n        /* \"#utility.yul\":1690:1708   */\n      tag_66\n      tag_67\n      jump\t// in\n    tag_66:\n        /* \"#utility.yul\":1675:1710   */\n    tag_65:\n        /* \"#utility.yul\":1732:1733   */\n      dup3\n        /* \"#utility.yul\":1729:1730   */\n      dup3\n        /* \"#utility.yul\":1725:1734   */\n      div\n        /* \"#utility.yul\":1720:1734   */\n      swap1\n      pop\n        /* \"#utility.yul\":1555:1740   */\n      swap3\n      swap2\n      pop\n      pop\n      jump\t// out\n        /* \"#utility.yul\":1746:2594   */\n    tag_68:\n        /* \"#utility.yul\":1807:1812   */\n      0x00\n        /* \"#utility.yul\":1814:1818   */\n      dup1\n        /* \"#utility.yul\":1838:1844   */\n      dup3\n        /* \"#utility.yul\":1829:1844   */\n      swap2\n      pop\n        /* \"#utility.yul\":1862:1867   */\n      dup4\n        /* \"#utility.yul\":1853:1867   */\n      swap1\n      pop\n        /* \"#utility.yul\":1876:2588   */\n    tag_70:\n        /* \"#utility.yul\":1897:1898   */\n      0x01\n        /* \"#utility.yul\":1887:1895   */\n      dup6\n        /* \"#utility.yul\":1884:1899   */\n      gt\n        /* \"#utility.yul\":1876:2588   */\n      iszero\n      tag_72\n      jumpi\n        /* \"#utility.yul\":1992:1996   */\n      dup1\n        /* \"#utility.yul\":1987:1990   */\n      dup7\n        /* \"#utility.yul\":1983:1997   */\n      div\n        /* \"#utility.yul\":1977:1981   */\n      dup2\n        /* \"#utility.yul\":1974:1998   */\n      gt\n        /* \"#utility.yul\":1971:2021   */\n      iszero\n      tag_73\n      jumpi\n        /* \"#utility.yul\":2001:2019   */\n      tag_74\n      tag_61\n      jump\t// in\n    tag_74:\n        /* \"#utility.yul\":1971:2021   */\n    tag_73:\n        /* \"#utility.yul\":2051:2052   */\n      0x01\n        /* \"#utility.yul\":2041:2049   */\n      dup6\n        /* \"#utility.yul\":2037:2053   */\n      and\n        /* \"#utility.yul\":2034:2485   */\n      iszero\n      tag_75\n      jumpi\n        /* \"#utility.yul\":2466:2470   */\n      dup1\n        /* \"#utility.yul\":2459:2464   */\n      dup3\n        /* \"#utility.yul\":2455:2471   */\n      mul\n        /* \"#utility.yul\":2446:2471   */\n      swap2\n      pop\n        /* \"#utility.yul\":2034:2485   */\n    tag_75:\n        /* \"#utility.yul\":2516:2520   */\n      dup1\n        /* \"#utility.yul\":2510:2514   */\n      dup2\n        /* \"#utility.yul\":2506:2521   */\n      mul\n        /* \"#utility.yul\":2498:2521   */\n      swap1\n      pop\n        /* \"#utility.yul\":2546:2578   */\n      tag_76\n        /* \"#utility.yul\":2569:2577   */\n      dup6\n        /* \"#utility.yul\":2546:2578   */\n      tag_77\n      jump\t// in\n    tag_76:\n        /* \"#utility.yul\":2534:2578   */\n      swap5\n      pop\n        /* \"#utility.yul\":1876:2588   */\n      jump(tag_70)\n    tag_72:\n        /* \"#utility.yul\":1746:2594   */\n      swap5\n      pop\n      swap5\n      swap3\n      pop\n      pop\n      pop\n      jump\t// out\n        /* \"#utility.yul\":2600:2881   */\n    tag_28:\n        /* \"#utility.yul\":2658:2663   */\n      0x00\n        /* \"#utility.yul\":2682:2705   */\n      tag_79\n        /* \"#utility.yul\":2700:2704   */\n      dup3\n        /* \"#utility.yul\":2682:2705   */\n      tag_57\n      jump\t// in\n    tag_79:\n        /* \"#utility.yul\":2674:2705   */\n      swap2\n      pop\n        /* \"#utility.yul\":2726:2751   */\n      tag_80\n        /* \"#utility.yul\":2742:2750   */\n      dup4\n        /* \"#utility.yul\":2726:2751   */\n      tag_81\n      jump\t// in\n    tag_80:\n        /* \"#utility.yul\":2714:2751   */\n      swap3\n      pop\n        /* \"#utility.yul\":2770:2874   */\n      tag_82\n        /* \"#utility.yul\":2807:2873   */\n      0xffffffffffffffffffffffffffffffffffffffffffffffffffffffffffffffff\n        /* \"#utility.yul\":2797:2805   */\n      dup5\n        /* \"#utility.yul\":2791:2795   */\n      dup5\n        /* \"#utility.yul\":2770:2874   */\n      tag_83\n      jump\t// in\n    tag_82:\n        /* \"#utility.yul\":2761:2874   */\n      swap1\n      pop\n        /* \"#utility.yul\":2600:2881   */\n      swap3\n      swap2\n      pop\n      pop\n      jump\t// out\n        /* \"#utility.yul\":2887:3960   */\n    tag_83:\n        /* \"#utility.yul\":2941:2946   */\n      0x00\n        /* \"#utility.yul\":3132:3140   */\n      dup3\n        /* \"#utility.yul\":3122:3162   */\n      tag_85\n      jumpi\n        /* \"#utility.yul\":3153:3154   */\n      0x01\n        /* \"#utility.yul\":3144:3154   */\n      swap1\n      pop\n        /* \"#utility.yul\":3155:3160   */\n      jump(tag_84)\n        /* \"#utility.yul\":3122:3162   */\n    tag_85:\n        /* \"#utility.yul\":3181:3185   */\n      dup2\n        /* \"#utility.yul\":3171:3207   */\n      tag_86\n      jumpi\n        /* \"#utility.yul\":3198:3199   */\n      0x00\n        /* \"#utility.yul\":3189:3199   */\n      swap1\n      pop\n        /* \"#utility.yul\":3200:3205   */\n      jump(tag_84)\n        /* \"#utility.yul\":3171:3207   */\n    tag_86:\n        /* \"#utility.yul\":3267:3271   */\n      dup2\n        /* \"#utility.yul\":3315:3316   */\n      0x01\n        /* \"#utility.yul\":3310:3337   */\n      dup2\n      eq\n      tag_88\n      jumpi\n        /* \"#utility.yul\":3351:3352   */\n      0x02\n        /* \"#utility.yul\":3346:3537   */\n      dup2\n      eq\n      tag_89\n      jumpi\n        /* \"#utility.yul\":3260:3537   */\n      jump(tag_87)\n        /* \"#utility.yul\":3310:3337   */\n    tag_88:\n        /* \"#utility.yul\":3328:3329   */\n      0x01\n        /* \"#utility.yul\":3319:3329   */\n      swap2\n      pop\n        /* \"#utility.yul\":3330:3335   */\n      pop\n      jump(tag_84)\n        /* \"#utility.yul\":3346:3537   */\n    tag_89:\n        /* \"#utility.yul\":3391:3394   */\n      0xff\n        /* \"#utility.yul\":3381:3389   */\n      dup5\n        /* \"#utility.yul\":3378:3395   */\n      gt\n        /* \"#utility.yul\":3375:3418   */\n      iszero\n      tag_90\n      jumpi\n        /* \"#utility.yul\":3398:3416   */\n      tag_91\n      tag_61\n      jump\t// in\n    tag_91:\n        /* \"#utility.yul\":3375:3418   */\n    tag_90:\n        /* \"#utility.yul\":3447:3455   */\n      dup4\n        /* \"#utility.yul\":3444:3445   */\n      0x02\n        /* \"#utility.yul\":3440:3456   */\n      exp\n        /* \"#utility.yul\":3431:3456   */\n      swap2\n      pop\n        /* \"#utility.yul\":3482:3485   */\n      dup5\n        /* \"#utility.yul\":3475:3480   */\n      dup3\n        /* \"#utility.yul\":3472:3486   */\n      gt\n        /* \"#utility.yul\":3469:3509   */\n      iszero\n      tag_92\n      jumpi\n        /* \"#utility.yul\":3489:3507   */\n      tag_93\n      tag_61\n      jump\t// in\n    tag_93:\n        /* \"#utility.yul\":3469:3509   */\n    tag_92:\n        /* \"#utility.yul\":3522:3527   */\n      pop\n      jump(tag_84)\n        /* \"#utility.yul\":3260:3537   */\n    tag_87:\n      pop\n        /* \"#utility.yul\":3646:3648   */\n      0x20\n        /* \"#utility.yul\":3636:3644   */\n      dup4\n        /* \"#utility.yul\":3633:3649   */\n      lt\n        /* \"#utility.yul\":3627:3630   */\n      0x0133\n        /* \"#utility.yul\":3621:3625   */\n      dup4\n        /* \"#utility.yul\":3618:3631   */\n      lt\n        /* \"#utility.yul\":3614:3650   */\n      and\n        /* \"#utility.yul\":3596:3598   */\n      0x4e\n        /* \"#utility.yul\":3586:3594   */\n      dup5\n        /* \"#utility.yul\":3583:3599   */\n      lt\n        /* \"#utility.yul\":3578:3580   */\n      0x0b\n        /* \"#utility.yul\":3572:3576   */\n      dup5\n        /* \"#utility.yul\":3569:3581   */\n      lt\n        /* \"#utility.yul\":3565:3600   */\n      and\n        /* \"#utility.yul\":3549:3660   */\n      or\n        /* \"#utility.yul\":3546:3792   */\n      iszero\n      tag_94\n      jumpi\n        /* \"#utility.yul\":3702:3710   */\n      dup3\n        /* \"#utility.yul\":3696:3700   */\n      dup3\n        /* \"#utility.yul\":3692:3711   */\n      exp\n        /* \"#utility.yul\":3683:3711   */\n      swap1\n      pop\n        /* \"#utility.yul\":3737:3740   */\n      dup4\n        /* \"#utility.yul\":3730:3735   */\n      dup2\n        /* \"#utility.yul\":3727:3741   */\n      gt\n        /* \"#utility.yul\":3724:3764   */\n      iszero\n      tag_95\n      jumpi\n        /* \"#utility.yul\":3744:3762   */\n      tag_96\n      tag_61\n      jump\t// in\n    tag_96:\n        /* \"#utility.yul\":3724:3764   */\n    tag_95:\n        /* \"#utility.yul\":3777:3782   */\n      jump(tag_84)\n        /* \"#utility.yul\":3546:3792   */\n    tag_94:\n        /* \"#utility.yul\":3817:3859   */\n      tag_97\n        /* \"#utility.yul\":3855:3858   */\n      dup5\n        /* \"#utility.yul\":3845:3853   */\n      dup5\n        /* \"#utility.yul\":3839:3843   */\n      dup5\n        /* \"#utility.yul\":3836:3837   */\n      0x01\n        /* \"#utility.yul\":3817:3859   */\n      tag_68\n      jump\t// in\n    tag_97:\n        /* \"#utility.yul\":3802:3859   */\n      swap3\n      pop\n      swap1\n      pop\n        /* \"#utility.yul\":3891:3895   */\n      dup2\n        /* \"#utility.yul\":3886:3889   */\n      dup5\n        /* \"#utility.yul\":3882:3896   */\n      div\n        /* \"#utility.yul\":3875:3880   */\n      dup2\n        /* \"#utility.yul\":3872:3897   */\n      gt\n        /* \"#utility.yul\":3869:3920   */\n      iszero\n      tag_98\n      jumpi\n        /* \"#utility.yul\":3900:3918   */\n      tag_99\n      tag_61\n      jump\t// in\n    tag_99:\n        /* \"#utility.yul\":3869:3920   */\n    tag_98:\n        /* \"#utility.yul\":3949:3953   */\n      dup2\n        /* \"#utility.yul\":3942:3947   */\n      dup2\n        /* \"#utility.yul\":3938:3954   */\n      mul\n        /* \"#utility.yul\":3929:3954   */\n      swap1\n      pop\n        /* \"#utility.yul\":2887:3960   */\n    tag_84:\n      swap4\n      swap3\n      pop\n      pop\n      pop\n      jump\t// out\n        /* \"#utility.yul\":3966:4314   */\n    tag_24:\n        /* \"#utility.yul\":4006:4013   */\n      0x00\n        /* \"#utility.yul\":4029:4049   */\n      tag_101\n        /* \"#utility.yul\":4047:4048   */\n      dup3\n        /* \"#utility.yul\":4029:4049   */\n      tag_57\n      jump\t// in\n    tag_101:\n        /* \"#utility.yul\":4024:4049   */\n      swap2\n      pop\n        /* \"#utility.yul\":4063:4083   */\n      tag_102\n        /* \"#utility.yul\":4081:4082   */\n      dup4\n        /* \"#utility.yul\":4063:4083   */\n      tag_57\n      jump\t// in\n    tag_102:\n        /* \"#utility.yul\":4058:4083   */\n      swap3\n      pop\n        /* \"#utility.yul\":4251:4252   */\n      dup2\n        /* \"#utility.yul\":4183:4249   */\n      0xffffffffffffffffffffffffffffffffffffffffffffffffffffffffffffffff\n        /* \"#utility.yul\":4179:4253   */\n      div\n        /* \"#utility.yul\":4176:4177   */\n      dup4\n        /* \"#utility.yul\":4173:4254   */\n      gt\n        /* \"#utility.yul\":4168:4169   */\n      dup3\n        /* \"#utility.yul\":4161:4170   */\n      iszero\n        /* \"#utility.yul\":4154:4171   */\n      iszero\n        /* \"#utility.yul\":4150:4255   */\n      and\n        /* \"#utility.yul\":4147:4278   */\n      iszero\n      tag_103\n      jumpi\n        /* \"#utility.yul\":4258:4276   */\n      tag_104\n      tag_61\n      jump\t// in\n    tag_104:\n        /* \"#utility.yul\":4147:4278   */\n    tag_103:\n        /* \"#utility.yul\":4306:4307   */\n      dup3\n        /* \"#utility.yul\":4303:4304   */\n      dup3\n        /* \"#utility.yul\":4299:4308   */\n      mul\n        /* \"#utility.yul\":4288:4308   */\n      swap1\n      pop\n        /* \"#utility.yul\":3966:4314   */\n      swap3\n      swap2\n      pop\n      pop\n      jump\t// out\n        /* \"#utility.yul\":4320:4511   */\n    tag_22:\n        /* \"#utility.yul\":4360:4364   */\n      0x00\n        /* \"#utility.yul\":4380:4400   */\n      tag_106\n        /* \"#utility.yul\":4398:4399   */\n      dup3\n        /* \"#utility.yul\":4380:4400   */\n      tag_57\n      jump\t// in\n    tag_106:\n        /* \"#utility.yul\":4375:4400   */\n      swap2\n      pop\n        /* \"#utility.yul\":4414:4434   */\n      tag_107\n        /* \"#utility.yul\":4432:4433   */\n      dup4\n        /* \"#utility.yul\":4414:4434   */\n      tag_57\n      jump\t// in\n    tag_107:\n        /* \"#utility.yul\":4409:4434   */\n      swap3\n      pop\n        /* \"#utility.yul\":4453:4454   */\n      dup3\n        /* \"#utility.yul\":4450:4451   */\n      dup3\n        /* \"#utility.yul\":4447:4455   */\n      lt\n        /* \"#utility.yul\":4444:4478   */\n      iszero\n      tag_108\n      jumpi\n        /* \"#utility.yul\":4458:4476   */\n      tag_109\n      tag_61\n      jump\t// in\n    tag_109:\n        /* \"#utility.yul\":4444:4478   */\n    tag_108:\n        /* \"#utility.yul\":4503:4504   */\n      dup3\n        /* \"#utility.yul\":4500:4501   */\n      dup3\n        /* \"#utility.yul\":4496:4505   */\n      sub\n        /* \"#utility.yul\":4488:4505   */\n      swap1\n      pop\n        /* \"#utility.yul\":4320:4511   */\n      swap3\n      swap2\n      pop\n      pop\n      jump\t// out\n        /* \"#utility.yul\":4517:4593   */\n    tag_44:\n        /* \"#utility.yul\":4553:4560   */\n      0x00\n        /* \"#utility.yul\":4582:4587   */\n      dup2\n        /* \"#utility.yul\":4571:4587   */\n      swap1\n      pop\n        /* \"#utility.yul\":4517:4593   */\n      swap2\n      swap1\n      pop\n      jump\t// out\n        /* \"#utility.yul\":4599:4688   */\n    tag_48:\n        /* \"#utility.yul\":4633:4640   */\n      0x00\n        /* \"#utility.yul\":4676:4681   */\n      dup2\n        /* \"#utility.yul\":4673:4674   */\n      0x00\n        /* \"#utility.yul\":4662:4682   */\n      signextend\n        /* \"#utility.yul\":4651:4682   */\n      swap1\n      pop\n        /* \"#utility.yul\":4599:4688   */\n      swap2\n      swap1\n      pop\n      jump\t// out\n        /* \"#utility.yul\":4694:4771   */\n    tag_57:\n        /* \"#utility.yul\":4731:4738   */\n      0x00\n        /* \"#utility.yul\":4760:4765   */\n      dup2\n        /* \"#utility.yul\":4749:4765   */\n      swap1\n      pop\n        /* \"#utility.yul\":4694:4771   */\n      swap2\n      swap1\n      pop\n      jump\t// out\n        /* \"#utility.yul\":4777:4863   */\n    tag_81:\n        /* \"#utility.yul\":4812:4819   */\n      0x00\n        /* \"#utility.yul\":4852:4856   */\n      0xff\n        /* \"#utility.yul\":4845:4850   */\n      dup3\n        /* \"#utility.yul\":4841:4857   */\n      and\n        /* \"#utility.yul\":4830:4857   */\n      swap1\n      pop\n        /* \"#utility.yul\":4777:4863   */\n      swap2\n      swap1\n      pop\n      jump\t// out\n        /* \"#utility.yul\":4869:5045   */\n    tag_30:\n        /* \"#utility.yul\":4901:4902   */\n      0x00\n        /* \"#utility.yul\":4918:4938   */\n      tag_115\n        /* \"#utility.yul\":4936:4937   */\n      dup3\n        /* \"#utility.yul\":4918:4938   */\n      tag_57\n      jump\t// in\n    tag_115:\n        /* \"#utility.yul\":4913:4938   */\n      swap2\n      pop\n        /* \"#utility.yul\":4952:4972   */\n      tag_116\n        /* \"#utility.yul\":4970:4971   */\n      dup4\n        /* \"#utility.yul\":4952:4972   */\n      tag_57\n      jump\t// in\n    tag_116:\n        /* \"#utility.yul\":4947:4972   */\n      swap3\n      pop\n        /* \"#utility.yul\":4991:4992   */\n      dup3\n        /* \"#utility.yul\":4981:5016   */\n      tag_117\n      jumpi\n        /* \"#utility.yul\":4996:5014   */\n      tag_118\n      tag_67\n      jump\t// in\n    tag_118:\n        /* \"#utility.yul\":4981:5016   */\n    tag_117:\n        /* \"#utility.yul\":5037:5038   */\n      dup3\n        /* \"#utility.yul\":5034:5035   */\n      dup3\n        /* \"#utility.yul\":5030:5039   */\n      mod\n        /* \"#utility.yul\":5025:5039   */\n      swap1\n      pop\n        /* \"#utility.yul\":4869:5045   */\n      swap3\n      swap2\n      pop\n      pop\n      jump\t// out\n        /* \"#utility.yul\":5051:5231   */\n    tag_61:\n        /* \"#utility.yul\":5099:5176   */\n      0x4e487b7100000000000000000000000000000000000000000000000000000000\n        /* \"#utility.yul\":5096:5097   */\n      0x00\n        /* \"#utility.yul\":5089:5177   */\n      mstore\n        /* \"#utility.yul\":5196:5200   */\n      0x11\n        /* \"#utility.yul\":5193:5194   */\n      0x04\n        /* \"#utility.yul\":5186:5201   */\n      mstore\n        /* \"#utility.yul\":5220:5224   */\n      0x24\n        /* \"#utility.yul\":5217:5218   */\n      0x00\n        /* \"#utility.yul\":5210:5225   */\n      revert\n        /* \"#utility.yul\":5237:5417   */\n    tag_67:\n        /* \"#utility.yul\":5285:5362   */\n      0x4e487b7100000000000000000000000000000000000000000000000000000000\n        /* \"#utility.yul\":5282:5283   */\n      0x00\n        /* \"#utility.yul\":5275:5363   */\n      mstore\n        /* \"#utility.yul\":5382:5386   */\n      0x12\n        /* \"#utility.yul\":5379:5380   */\n      0x04\n        /* \"#utility.yul\":5372:5387   */\n      mstore\n        /* \"#utility.yul\":5406:5410   */\n      0x24\n        /* \"#utility.yul\":5403:5404   */\n      0x00\n        /* \"#utility.yul\":5396:5411   */\n      revert\n        /* \"#utility.yul\":5546:5663   */\n    tag_39:\n        /* \"#utility.yul\":5655:5656   */\n      0x00\n        /* \"#utility.yul\":5652:5653   */\n      dup1\n        /* \"#utility.yul\":5645:5657   */\n      revert\n        /* \"#utility.yul\":5669:5771   */\n    tag_77:\n        /* \"#utility.yul\":5711:5719   */\n      0x00\n        /* \"#utility.yul\":5758:5763   */\n      dup2\n        /* \"#utility.yul\":5755:5756   */\n      0x01\n        /* \"#utility.yul\":5751:5764   */\n      shr\n        /* \"#utility.yul\":5730:5764   */\n      swap1\n      pop\n        /* \"#utility.yul\":5669:5771   */\n      swap2\n      swap1\n      pop\n      jump\t// out\n        /* \"#utility.yul\":5777:5899   */\n    tag_35:\n        /* \"#utility.yul\":5850:5874   */\n      tag_126\n        /* \"#utility.yul\":5868:5873   */\n      dup2\n        /* \"#utility.yul\":5850:5874   */\n      tag_57\n      jump\t// in\n    tag_126:\n        /* \"#utility.yul\":5843:5848   */\n      dup2\n        /* \"#utility.yul\":5840:5875   */\n      eq\n        /* \"#utility.yul\":5830:5893   */\n      tag_127\n      jumpi\n        /* \"#utility.yul\":5889:5890   */\n      0x00\n        /* \"#utility.yul\":5886:5887   */\n      dup1\n        /* \"#utility.yul\":5879:5891   */\n      revert\n        /* \"#utility.yul\":5830:5893   */\n    tag_127:\n        /* \"#utility.yul\":5777:5899   */\n      pop\n      jump\t// out\n\n    auxdata: 0xa2646970667358221220e0250a6732190180c37314382b4db0025d24d43aa279827f71e9d9b1461f007464736f6c63430008070033\n}\n",
				"bytecode": {
					"linkReferences": {},
					"object": "6080604052600a6000557fffffffffffffffffffffffffffffffffffffffffffffffffffffffffffffffea6001557fffffffffffffffffffffffffffffffffffffffffffffffffffffffffffffffff600260006101000a81548160ff021916908360000b60ff16021790555034801561007757600080fd5b5061055c806100876000396000f3fe608060405234801561001057600080fd5b50600436106100415760003560e01c80630b79ba80146100465780632cb777a614610064578063a9bf563314610082575b600080fd5b61004e61009e565b60405161005b919061019f565b60405180910390f35b61006c6100b1565b6040516100799190610184565b60405180910390f35b61009c60048036038101906100979190610139565b6100b7565b005b600260009054906101000a900460000b81565b60015481565b6000602a905060006104d290506000600290506001836100d791906101ba565b506001836100e5919061040c565b506005836100f391906103b2565b506005836101019190610210565b5060028361010f9190610294565b5060018361011d919061046e565b5050505050565b6000813590506101338161050f565b92915050565b60006020828403121561014f5761014e6104fd565b5b600061015d84828501610124565b91505092915050565b61016f81610440565b82525050565b61017e8161044a565b82525050565b60006020820190506101996000830184610166565b92915050565b60006020820190506101b46000830184610175565b92915050565b60006101c582610457565b91506101d083610457565b9250827fffffffffffffffffffffffffffffffffffffffffffffffffffffffffffffffff038211156102055761020461049f565b5b828201905092915050565b600061021b82610457565b915061022683610457565b925082610236576102356104ce565b5b828204905092915050565b6000808291508390505b600185111561028b578086048111156102675761026661049f565b5b60018516156102765780820291505b808102905061028485610502565b945061024b565b94509492505050565b600061029f82610457565b91506102aa83610461565b92506102d77fffffffffffffffffffffffffffffffffffffffffffffffffffffffffffffffff84846102df565b905092915050565b6000826102ef57600190506103ab565b816102fd57600090506103ab565b8160018114610313576002811461031d5761034c565b60019150506103ab565b60ff84111561032f5761032e61049f565b5b8360020a9150848211156103465761034561049f565b5b506103ab565b5060208310610133831016604e8410600b84101617156103815782820a90508381111561037c5761037b61049f565b5b6103ab565b61038e8484846001610241565b925090508184048111156103a5576103a461049f565b5b81810290505b9392505050565b60006103bd82610457565b91506103c883610457565b9250817fffffffffffffffffffffffffffffffffffffffffffffffffffffffffffffffff04831182151516156104015761040061049f565b5b828202905092915050565b600061041782610457565b915061042283610457565b9250828210156104355761043461049f565b5b828203905092915050565b6000819050919050565b60008160000b9050919050565b6000819050919050565b600060ff82169050919050565b600061047982610457565b915061048483610457565b925082610494576104936104ce565b5b828206905092915050565b7f4e487b7100000000000000000000000000000000000000000000000000000000600052601160045260246000fd5b7f4e487b7100000000000000000000000000000000000000000000000000000000600052601260045260246000fd5b600080fd5b60008160011c9050919050565b61051881610457565b811461052357600080fd5b5056fea2646970667358221220e0250a6732190180c37314382b4db0025d24d43aa279827f71e9d9b1461f007464736f6c63430008070033",
					"opcodes": "PUSH1 0x80 PUSH1 0x40 MSTORE PUSH1 0xA PUSH1 0x0 SSTORE PUSH32 0xFFFFFFFFFFFFFFFFFFFFFFFFFFFFFFFFFFFFFFFFFFFFFFFFFFFFFFFFFFFFFFEA PUSH1 0x1 SSTORE PUSH32 0xFFFFFFFFFFFFFFFFFFFFFFFFFFFFFFFFFFFFFFFFFFFFFFFFFFFFFFFFFFFFFFFF PUSH1 0x2 PUSH1 0x0 PUSH2 0x100 EXP DUP2 SLOAD DUP2 PUSH1 0xFF MUL NOT AND SWAP1 DUP4 PUSH1 0x0 SIGNEXTEND PUSH1 0xFF AND MUL OR SWAP1 SSTORE POP CALLVALUE DUP1 ISZERO PUSH2 0x77 JUMPI PUSH1 0x0 DUP1 REVERT JUMPDEST POP PUSH2 0x55C DUP1 PUSH2 0x87 PUSH1 0x0 CODECOPY PUSH1 0x0 RETURN INVALID PUSH1 0x80 PUSH1 0x40 MSTORE CALLVALUE DUP1 ISZERO PUSH2 0x10 JUMPI PUSH1 0x0 DUP1 REVERT JUMPDEST POP PUSH1 0x4 CALLDATASIZE LT PUSH2 0x41 JUMPI PUSH1 0x0 CALLDATALOAD PUSH1 0xE0 SHR DUP1 PUSH4 0xB79BA80 EQ PUSH2 0x46 JUMPI DUP1 PUSH4 0x2CB777A6 EQ PUSH2 0x64 JUMPI DUP1 PUSH4 0xA9BF5633 EQ PUSH2 0x82 JUMPI JUMPDEST PUSH1 0x0 DUP1 REVERT JUMPDEST PUSH2 0x4E PUSH2 0x9E JUMP JUMPDEST PUSH1 0x40 MLOAD PUSH2 0x5B SWAP2 SWAP1 PUSH2 0x19F JUMP JUMPDEST PUSH1 0x40 MLOAD DUP1 SWAP2 SUB SWAP1 RETURN JUMPDEST PUSH2 0x6C PUSH2 0xB1 JUMP JUMPDEST PUSH1 0x40 MLOAD PUSH2 0x79 SWAP2 SWAP1 PUSH2 0x184 JUMP JUMPDEST PUSH1 0x40 MLOAD DUP1 SWAP2 SUB SWAP1 RETURN JUMPDEST PUSH2 0x9C PUSH1 0x4 DUP1 CALLDATASIZE SUB DUP2 ADD SWAP1 PUSH2 0x97 SWAP2 SWAP1 PUSH2 0x139 JUMP JUMPDEST PUSH2 0xB7 JUMP JUMPDEST STOP JUMPDEST PUSH1 0x2 PUSH1 0x0 SWAP1 SLOAD SWAP1 PUSH2 0x100 EXP SWAP1 DIV PUSH1 0x0 SIGNEXTEND DUP2 JUMP JUMPDEST PUSH1 0x1 SLOAD DUP2 JUMP JUMPDEST PUSH1 0x0 PUSH1 0x2A SWAP1 POP PUSH1 0x0 PUSH2 0x4D2 SWAP1 POP PUSH1 0x0 PUSH1 0x2 SWAP1 POP PUSH1 0x1 DUP4 PUSH2 0xD7 SWAP2 SWAP1 PUSH2 0x1BA JUMP JUMPDEST POP PUSH1 0x1 DUP4 PUSH2 0xE5 SWAP2 SWAP1 PUSH2 0x40C JUMP JUMPDEST POP PUSH1 0x5 DUP4 PUSH2 0xF3 SWAP2 SWAP1 PUSH2 0x3B2 JUMP JUMPDEST POP PUSH1 0x5 DUP4 PUSH2 0x101 SWAP2 SWAP1 PUSH2 0x210 JUMP JUMPDEST POP PUSH1 0x2 DUP4 PUSH2 0x10F SWAP2 SWAP1 PUSH2 0x294 JUMP JUMPDEST POP PUSH1 0x1 DUP4 PUSH2 0x11D SWAP2 SWAP1 PUSH2 0x46E JUMP JUMPDEST POP POP POP POP POP JUMP JUMPDEST PUSH1 0x0 DUP2 CALLDATALOAD SWAP1 POP PUSH2 0x133 DUP2 PUSH2 0x50F JUMP JUMPDEST SWAP3 SWAP2 POP POP JUMP JUMPDEST PUSH1 0x0 PUSH1 0x20 DUP3 DUP5 SUB SLT ISZERO PUSH2 0x14F JUMPI PUSH2 0x14E PUSH2 0x4FD JUMP JUMPDEST JUMPDEST PUSH1 0x0 PUSH2 0x15D DUP5 DUP3 DUP6 ADD PUSH2 0x124 JUMP JUMPDEST SWAP2 POP POP SWAP3 SWAP2 POP POP JUMP JUMPDEST PUSH2 0x16F DUP2 PUSH2 0x440 JUMP JUMPDEST DUP3 MSTORE POP POP JUMP JUMPDEST PUSH2 0x17E DUP2 PUSH2 0x44A JUMP JUMPDEST DUP3 MSTORE POP POP JUMP JUMPDEST PUSH1 0x0 PUSH1 0x20 DUP3 ADD SWAP1 POP PUSH2 0x199 PUSH1 0x0 DUP4 ADD DUP5 PUSH2 0x166 JUMP JUMPDEST SWAP3 SWAP2 POP POP JUMP JUMPDEST PUSH1 0x0 PUSH1 0x20 DUP3 ADD SWAP1 POP PUSH2 0x1B4 PUSH1 0x0 DUP4 ADD DUP5 PUSH2 0x175 JUMP JUMPDEST SWAP3 SWAP2 POP POP JUMP JUMPDEST PUSH1 0x0 PUSH2 0x1C5 DUP3 PUSH2 0x457 JUMP JUMPDEST SWAP2 POP PUSH2 0x1D0 DUP4 PUSH2 0x457 JUMP JUMPDEST SWAP3 POP DUP3 PUSH32 0xFFFFFFFFFFFFFFFFFFFFFFFFFFFFFFFFFFFFFFFFFFFFFFFFFFFFFFFFFFFFFFFF SUB DUP3 GT ISZERO PUSH2 0x205 JUMPI PUSH2 0x204 PUSH2 0x49F JUMP JUMPDEST JUMPDEST DUP3 DUP3 ADD SWAP1 POP SWAP3 SWAP2 POP POP JUMP JUMPDEST PUSH1 0x0 PUSH2 0x21B DUP3 PUSH2 0x457 JUMP JUMPDEST SWAP2 POP PUSH2 0x226 DUP4 PUSH2 0x457 JUMP JUMPDEST SWAP3 POP DUP3 PUSH2 0x236 JUMPI PUSH2 0x235 PUSH2 0x4CE JUMP JUMPDEST JUMPDEST DUP3 DUP3 DIV SWAP1 POP SWAP3 SWAP2 POP POP JUMP JUMPDEST PUSH1 0x0 DUP1 DUP3 SWAP2 POP DUP4 SWAP1 POP JUMPDEST PUSH1 0x1 DUP6 GT ISZERO PUSH2 0x28B JUMPI DUP1 DUP7 DIV DUP2 GT ISZERO PUSH2 0x267 JUMPI PUSH2 0x266 PUSH2 0x49F JUMP JUMPDEST JUMPDEST PUSH1 0x1 DUP6 AND ISZERO PUSH2 0x276 JUMPI DUP1 DUP3 MUL SWAP2 POP JUMPDEST DUP1 DUP2 MUL SWAP1 POP PUSH2 0x284 DUP6 PUSH2 0x502 JUMP JUMPDEST SWAP5 POP PUSH2 0x24B JUMP JUMPDEST SWAP5 POP SWAP5 SWAP3 POP POP POP JUMP JUMPDEST PUSH1 0x0 PUSH2 0x29F DUP3 PUSH2 0x457 JUMP JUMPDEST SWAP2 POP PUSH2 0x2AA DUP4 PUSH2 0x461 JUMP JUMPDEST SWAP3 POP PUSH2 0x2D7 PUSH32 0xFFFFFFFFFFFFFFFFFFFFFFFFFFFFFFFFFFFFFFFFFFFFFFFFFFFFFFFFFFFFFFFF DUP5 DUP5 PUSH2 0x2DF JUMP JUMPDEST SWAP1 POP SWAP3 SWAP2 POP POP JUMP JUMPDEST PUSH1 0x0 DUP3 PUSH2 0x2EF JUMPI PUSH1 0x1 SWAP1 POP PUSH2 0x3AB JUMP JUMPDEST DUP2 PUSH2 0x2FD JUMPI PUSH1 0x0 SWAP1 POP PUSH2 0x3AB JUMP JUMPDEST DUP2 PUSH1 0x1 DUP2 EQ PUSH2 0x313 JUMPI PUSH1 0x2 DUP2 EQ PUSH2 0x31D JUMPI PUSH2 0x34C JUMP JUMPDEST PUSH1 0x1 SWAP2 POP POP PUSH2 0x3AB JUMP JUMPDEST PUSH1 0xFF DUP5 GT ISZERO PUSH2 0x32F JUMPI PUSH2 0x32E PUSH2 0x49F JUMP JUMPDEST JUMPDEST DUP4 PUSH1 0x2 EXP SWAP2 POP DUP5 DUP3 GT ISZERO PUSH2 0x346 JUMPI PUSH2 0x345 PUSH2 0x49F JUMP JUMPDEST JUMPDEST POP PUSH2 0x3AB JUMP JUMPDEST POP PUSH1 0x20 DUP4 LT PUSH2 0x133 DUP4 LT AND PUSH1 0x4E DUP5 LT PUSH1 0xB DUP5 LT AND OR ISZERO PUSH2 0x381 JUMPI DUP3 DUP3 EXP SWAP1 POP DUP4 DUP2 GT ISZERO PUSH2 0x37C JUMPI PUSH2 0x37B PUSH2 0x49F JUMP JUMPDEST JUMPDEST PUSH2 0x3AB JUMP JUMPDEST PUSH2 0x38E DUP5 DUP5 DUP5 PUSH1 0x1 PUSH2 0x241 JUMP JUMPDEST SWAP3 POP SWAP1 POP DUP2 DUP5 DIV DUP2 GT ISZERO PUSH2 0x3A5 JUMPI PUSH2 0x3A4 PUSH2 0x49F JUMP JUMPDEST JUMPDEST DUP2 DUP2 MUL SWAP1 POP JUMPDEST SWAP4 SWAP3 POP POP POP JUMP JUMPDEST PUSH1 0x0 PUSH2 0x3BD DUP3 PUSH2 0x457 JUMP JUMPDEST SWAP2 POP PUSH2 0x3C8 DUP4 PUSH2 0x457 JUMP JUMPDEST SWAP3 POP DUP2 PUSH32 0xFFFFFFFFFFFFFFFFFFFFFFFFFFFFFFFFFFFFFFFFFFFFFFFFFFFFFFFFFFFFFFFF DIV DUP4 GT DUP3 ISZERO ISZERO AND ISZERO PUSH2 0x401 JUMPI PUSH2 0x400 PUSH2 0x49F JUMP JUMPDEST JUMPDEST DUP3 DUP3 MUL SWAP1 POP SWAP3 SWAP2 POP POP JUMP JUMPDEST PUSH1 0x0 PUSH2 0x417 DUP3 PUSH2 0x457 JUMP JUMPDEST SWAP2 POP PUSH2 0x422 DUP4 PUSH2 0x457 JUMP JUMPDEST SWAP3 POP DUP3 DUP3 LT ISZERO PUSH2 0x435 JUMPI PUSH2 0x434 PUSH2 0x49F JUMP JUMPDEST JUMPDEST DUP3 DUP3 SUB SWAP1 POP SWAP3 SWAP2 POP POP JUMP JUMPDEST PUSH1 0x0 DUP2 SWAP1 POP SWAP2 SWAP1 POP JUMP JUMPDEST PUSH1 0x0 DUP2 PUSH1 0x0 SIGNEXTEND SWAP1 POP SWAP2 SWAP1 POP JUMP JUMPDEST PUSH1 0x0 DUP2 SWAP1 POP SWAP2 SWAP1 POP JUMP JUMPDEST PUSH1 0x0 PUSH1 0xFF DUP3 AND SWAP1 POP SWAP2 SWAP1 POP JUMP JUMPDEST PUSH1 0x0 PUSH2 0x479 DUP3 PUSH2 0x457 JUMP JUMPDEST SWAP2 POP PUSH2 0x484 DUP4 PUSH2 0x457 JUMP JUMPDEST SWAP3 POP DUP3 PUSH2 0x494 JUMPI PUSH2 0x493 PUSH2 0x4CE JUMP JUMPDEST JUMPDEST DUP3 DUP3 MOD SWAP1 POP SWAP3 SWAP2 POP POP JUMP JUMPDEST PUSH32 0x4E487B7100000000000000000000000000000000000000000000000000000000 PUSH1 0x0 MSTORE PUSH1 0x11 PUSH1 0x4 MSTORE PUSH1 0x24 PUSH1 0x0 REVERT JUMPDEST PUSH32 0x4E487B7100000000000000000000000000000000000000000000000000000000 PUSH1 0x0 MSTORE PUSH1 0x12 PUSH1 0x4 MSTORE PUSH1 0x24 PUSH1 0x0 REVERT JUMPDEST PUSH1 0x0 DUP1 REVERT JUMPDEST PUSH1 0x0 DUP2 PUSH1 0x1 SHR SWAP1 POP SWAP2 SWAP1 POP JUMP JUMPDEST PUSH2 0x518 DUP2 PUSH2 0x457 JUMP JUMPDEST DUP2 EQ PUSH2 0x523 JUMPI PUSH1 0x0 DUP1 REVERT JUMPDEST POP JUMP INVALID LOG2 PUSH5 0x6970667358 0x22 SLT KECCAK256 0xE0 0x25 EXP PUSH8 0x32190180C3731438 0x2B 0x4D 0xB0 MUL 0x5D 0x24 0xD4 GASPRICE LOG2 PUSH26 0x827F71E9D9B1461F007464736F6C634300080700330000000000 "
				},
				"gasEstimates": {
					"creation": {
						"codeDepositCost": "274400",
						"executionCost": "68799",
						"totalCost": "343199"
					},
					"external": {
						"myFunc(uint256)": "infinite",
						"myInt()": "2429",
						"mySmallestInt()": "2453"
					}
				},
				"methodIdentifiers": {
					"myFunc(uint256)": "a9bf5633",
					"myInt()": "2cb777a6",
					"mySmallestInt()": "0b79ba80"
				}
			},
			"storageLayout": {
				"storage": [
					{
						"astId": 4,
						"contract": "contracts/Lesson1Types.sol:DemoInt",
						"label": "myUint",
						"offset": 0,
						"slot": "0",
						"type": "t_uint256"
					},
					{
						"astId": 50,
						"contract": "contracts/Lesson1Types.sol:DemoInt",
						"label": "myInt",
						"offset": 0,
						"slot": "1",
						"type": "t_int256"
					},
					{
						"astId": 54,
						"contract": "contracts/Lesson1Types.sol:DemoInt",
						"label": "mySmallestInt",
						"offset": 0,
						"slot": "2",
						"type": "t_int8"
					}
				],
				"types": {
					"t_int256": {
						"encoding": "inplace",
						"label": "int256",
						"numberOfBytes": "32"
					},
					"t_int8": {
						"encoding": "inplace",
						"label": "int8",
						"numberOfBytes": "1"
					},
					"t_uint256": {
						"encoding": "inplace",
						"label": "uint256",
						"numberOfBytes": "32"
					}
				}
			},
			"userdoc": {
				"kind": "user",
				"methods": {},
				"version": 1
			}
		}
	}
}