{
	"contracts/Lesson7Functions.sol": {
		"Function7Lesson": {
			"abi": [
				{
					"inputs": [],
					"stateMutability": "nonpayable",
					"type": "constructor"
				},
				{
					"inputs": [],
					"name": "pay",
					"outputs": [],
					"stateMutability": "payable",
					"type": "function"
				},
				{
					"inputs": [
						{
							"internalType": "address payable",
							"name": "to",
							"type": "address"
						}
					],
					"name": "protectedWithdraw",
					"outputs": [],
					"stateMutability": "nonpayable",
					"type": "function"
				},
				{
					"inputs": [
						{
							"internalType": "address payable",
							"name": "to",
							"type": "address"
						}
					],
					"name": "withdraw",
					"outputs": [],
					"stateMutability": "nonpayable",
					"type": "function"
				}
			],
			"devdoc": {
				"kind": "dev",
				"methods": {},
				"version": 1
			},
			"evm": {
				"assembly": "    /* \"contracts/Lesson7Functions.sol\":58:651  contract Function7Lesson {... */\n  mstore(0x40, 0x80)\n    /* \"contracts/Lesson7Functions.sol\":111:159  constructor(){... */\n  callvalue\n  dup1\n  iszero\n  tag_1\n  jumpi\n  0x00\n  dup1\n  revert\ntag_1:\n  pop\n    /* \"contracts/Lesson7Functions.sol\":142:152  msg.sender */\n  caller\n    /* \"contracts/Lesson7Functions.sol\":134:139  owner */\n  0x00\n  dup1\n    /* \"contracts/Lesson7Functions.sol\":134:152  owner = msg.sender */\n  0x0100\n  exp\n  dup2\n  sload\n  dup2\n  0xffffffffffffffffffffffffffffffffffffffff\n  mul\n  not\n  and\n  swap1\n  dup4\n  0xffffffffffffffffffffffffffffffffffffffff\n  and\n  mul\n  or\n  swap1\n  sstore\n  pop\n    /* \"contracts/Lesson7Functions.sol\":58:651  contract Function7Lesson {... */\n  dataSize(sub_0)\n  dup1\n  dataOffset(sub_0)\n  0x00\n  codecopy\n  0x00\n  return\nstop\n\nsub_0: assembly {\n        /* \"contracts/Lesson7Functions.sol\":58:651  contract Function7Lesson {... */\n      mstore(0x40, 0x80)\n      jumpi(tag_1, lt(calldatasize, 0x04))\n      shr(0xe0, calldataload(0x00))\n      dup1\n      0x1b9265b8\n      eq\n      tag_2\n      jumpi\n      dup1\n      0x51cff8d9\n      eq\n      tag_3\n      jumpi\n      dup1\n      0xcdd9c5de\n      eq\n      tag_4\n      jumpi\n    tag_1:\n      0x00\n      dup1\n      revert\n        /* \"contracts/Lesson7Functions.sol\":169:208  function pay() external payable {... */\n    tag_2:\n      tag_5\n      tag_6\n      jump\t// in\n    tag_5:\n      stop\n        /* \"contracts/Lesson7Functions.sol\":214:390  function withdraw(address payable to) external { // может вызвать любой пользователь в сети ... */\n    tag_3:\n      callvalue\n      dup1\n      iszero\n      tag_7\n      jumpi\n      0x00\n      dup1\n      revert\n    tag_7:\n      pop\n      tag_8\n      0x04\n      dup1\n      calldatasize\n      sub\n      dup2\n      add\n      swap1\n      tag_9\n      swap2\n      swap1\n      tag_10\n      jump\t// in\n    tag_9:\n      tag_11\n      jump\t// in\n    tag_8:\n      stop\n        /* \"contracts/Lesson7Functions.sol\":396:642  function protectedWithdraw(address payable to) external { // может вызвать только владелец контракта... */\n    tag_4:\n      callvalue\n      dup1\n      iszero\n      tag_12\n      jumpi\n      0x00\n      dup1\n      revert\n    tag_12:\n      pop\n      tag_13\n      0x04\n      dup1\n      calldatasize\n      sub\n      dup2\n      add\n      swap1\n      tag_14\n      swap2\n      swap1\n      tag_10\n      jump\t// in\n    tag_14:\n      tag_15\n      jump\t// in\n    tag_13:\n      stop\n        /* \"contracts/Lesson7Functions.sol\":169:208  function pay() external payable {... */\n    tag_6:\n      jump\t// out\n        /* \"contracts/Lesson7Functions.sol\":214:390  function withdraw(address payable to) external { // может вызвать любой пользователь в сети ... */\n    tag_11:\n        /* \"contracts/Lesson7Functions.sol\":349:351  to */\n      dup1\n        /* \"contracts/Lesson7Functions.sol\":349:360  to.transfer */\n      0xffffffffffffffffffffffffffffffffffffffff\n      and\n        /* \"contracts/Lesson7Functions.sol\":349:383  to.transfer(address(this).balance) */\n      0x08fc\n        /* \"contracts/Lesson7Functions.sol\":361:382  address(this).balance */\n      selfbalance\n        /* \"contracts/Lesson7Functions.sol\":349:383  to.transfer(address(this).balance) */\n      swap1\n      dup2\n      iszero\n      mul\n      swap1\n      mload(0x40)\n      0x00\n      mload(0x40)\n      dup1\n      dup4\n      sub\n      dup2\n      dup6\n      dup9\n      dup9\n      call\n      swap4\n      pop\n      pop\n      pop\n      pop\n      iszero\n      dup1\n      iszero\n      tag_19\n      jumpi\n      returndatasize\n      0x00\n      dup1\n      returndatacopy\n      revert(0x00, returndatasize)\n    tag_19:\n      pop\n        /* \"contracts/Lesson7Functions.sol\":214:390  function withdraw(address payable to) external { // может вызвать любой пользователь в сети ... */\n      pop\n      jump\t// out\n        /* \"contracts/Lesson7Functions.sol\":396:642  function protectedWithdraw(address payable to) external { // может вызвать только владелец контракта... */\n    tag_15:\n        /* \"contracts/Lesson7Functions.sol\":562:567  owner */\n      0x00\n      dup1\n      sload\n      swap1\n      0x0100\n      exp\n      swap1\n      div\n      0xffffffffffffffffffffffffffffffffffffffff\n      and\n        /* \"contracts/Lesson7Functions.sol\":548:567  msg.sender == owner */\n      0xffffffffffffffffffffffffffffffffffffffff\n      and\n        /* \"contracts/Lesson7Functions.sol\":548:558  msg.sender */\n      caller\n        /* \"contracts/Lesson7Functions.sol\":548:567  msg.sender == owner */\n      0xffffffffffffffffffffffffffffffffffffffff\n      and\n      eq\n        /* \"contracts/Lesson7Functions.sol\":540:591  require(msg.sender == owner, 'you aren`t an owner') */\n      tag_21\n      jumpi\n      mload(0x40)\n      0x08c379a000000000000000000000000000000000000000000000000000000000\n      dup2\n      mstore\n      0x04\n      add\n      tag_22\n      swap1\n      tag_23\n      jump\t// in\n    tag_22:\n      mload(0x40)\n      dup1\n      swap2\n      sub\n      swap1\n      revert\n    tag_21:\n        /* \"contracts/Lesson7Functions.sol\":601:603  to */\n      dup1\n        /* \"contracts/Lesson7Functions.sol\":601:612  to.transfer */\n      0xffffffffffffffffffffffffffffffffffffffff\n      and\n        /* \"contracts/Lesson7Functions.sol\":601:635  to.transfer(address(this).balance) */\n      0x08fc\n        /* \"contracts/Lesson7Functions.sol\":613:634  address(this).balance */\n      selfbalance\n        /* \"contracts/Lesson7Functions.sol\":601:635  to.transfer(address(this).balance) */\n      swap1\n      dup2\n      iszero\n      mul\n      swap1\n      mload(0x40)\n      0x00\n      mload(0x40)\n      dup1\n      dup4\n      sub\n      dup2\n      dup6\n      dup9\n      dup9\n      call\n      swap4\n      pop\n      pop\n      pop\n      pop\n      iszero\n      dup1\n      iszero\n      tag_25\n      jumpi\n      returndatasize\n      0x00\n      dup1\n      returndatacopy\n      revert(0x00, returndatasize)\n    tag_25:\n      pop\n        /* \"contracts/Lesson7Functions.sol\":396:642  function protectedWithdraw(address payable to) external { // может вызвать только владелец контракта... */\n      pop\n      jump\t// out\n        /* \"#utility.yul\":7:162   */\n    tag_27:\n        /* \"#utility.yul\":61:66   */\n      0x00\n        /* \"#utility.yul\":99:105   */\n      dup2\n        /* \"#utility.yul\":86:106   */\n      calldataload\n        /* \"#utility.yul\":77:106   */\n      swap1\n      pop\n        /* \"#utility.yul\":115:156   */\n      tag_29\n        /* \"#utility.yul\":150:155   */\n      dup2\n        /* \"#utility.yul\":115:156   */\n      tag_30\n      jump\t// in\n    tag_29:\n        /* \"#utility.yul\":7:162   */\n      swap3\n      swap2\n      pop\n      pop\n      jump\t// out\n        /* \"#utility.yul\":168:513   */\n    tag_10:\n        /* \"#utility.yul\":235:241   */\n      0x00\n        /* \"#utility.yul\":284:286   */\n      0x20\n        /* \"#utility.yul\":272:281   */\n      dup3\n        /* \"#utility.yul\":263:270   */\n      dup5\n        /* \"#utility.yul\":259:282   */\n      sub\n        /* \"#utility.yul\":255:287   */\n      slt\n        /* \"#utility.yul\":252:371   */\n      iszero\n      tag_32\n      jumpi\n        /* \"#utility.yul\":290:369   */\n      tag_33\n      tag_34\n      jump\t// in\n    tag_33:\n        /* \"#utility.yul\":252:371   */\n    tag_32:\n        /* \"#utility.yul\":410:411   */\n      0x00\n        /* \"#utility.yul\":435:496   */\n      tag_35\n        /* \"#utility.yul\":488:495   */\n      dup5\n        /* \"#utility.yul\":479:485   */\n      dup3\n        /* \"#utility.yul\":468:477   */\n      dup6\n        /* \"#utility.yul\":464:486   */\n      add\n        /* \"#utility.yul\":435:496   */\n      tag_27\n      jump\t// in\n    tag_35:\n        /* \"#utility.yul\":425:496   */\n      swap2\n      pop\n        /* \"#utility.yul\":381:506   */\n      pop\n        /* \"#utility.yul\":168:513   */\n      swap3\n      swap2\n      pop\n      pop\n      jump\t// out\n        /* \"#utility.yul\":519:885   */\n    tag_36:\n        /* \"#utility.yul\":661:664   */\n      0x00\n        /* \"#utility.yul\":682:749   */\n      tag_38\n        /* \"#utility.yul\":746:748   */\n      0x13\n        /* \"#utility.yul\":741:744   */\n      dup4\n        /* \"#utility.yul\":682:749   */\n      tag_39\n      jump\t// in\n    tag_38:\n        /* \"#utility.yul\":675:749   */\n      swap2\n      pop\n        /* \"#utility.yul\":758:851   */\n      tag_40\n        /* \"#utility.yul\":847:850   */\n      dup3\n        /* \"#utility.yul\":758:851   */\n      tag_41\n      jump\t// in\n    tag_40:\n        /* \"#utility.yul\":876:878   */\n      0x20\n        /* \"#utility.yul\":871:874   */\n      dup3\n        /* \"#utility.yul\":867:879   */\n      add\n        /* \"#utility.yul\":860:879   */\n      swap1\n      pop\n        /* \"#utility.yul\":519:885   */\n      swap2\n      swap1\n      pop\n      jump\t// out\n        /* \"#utility.yul\":891:1310   */\n    tag_23:\n        /* \"#utility.yul\":1057:1061   */\n      0x00\n        /* \"#utility.yul\":1095:1097   */\n      0x20\n        /* \"#utility.yul\":1084:1093   */\n      dup3\n        /* \"#utility.yul\":1080:1098   */\n      add\n        /* \"#utility.yul\":1072:1098   */\n      swap1\n      pop\n        /* \"#utility.yul\":1144:1153   */\n      dup2\n        /* \"#utility.yul\":1138:1142   */\n      dup2\n        /* \"#utility.yul\":1134:1154   */\n      sub\n        /* \"#utility.yul\":1130:1131   */\n      0x00\n        /* \"#utility.yul\":1119:1128   */\n      dup4\n        /* \"#utility.yul\":1115:1132   */\n      add\n        /* \"#utility.yul\":1108:1155   */\n      mstore\n        /* \"#utility.yul\":1172:1303   */\n      tag_43\n        /* \"#utility.yul\":1298:1302   */\n      dup2\n        /* \"#utility.yul\":1172:1303   */\n      tag_36\n      jump\t// in\n    tag_43:\n        /* \"#utility.yul\":1164:1303   */\n      swap1\n      pop\n        /* \"#utility.yul\":891:1310   */\n      swap2\n      swap1\n      pop\n      jump\t// out\n        /* \"#utility.yul\":1397:1566   */\n    tag_39:\n        /* \"#utility.yul\":1481:1492   */\n      0x00\n        /* \"#utility.yul\":1515:1521   */\n      dup3\n        /* \"#utility.yul\":1510:1513   */\n      dup3\n        /* \"#utility.yul\":1503:1522   */\n      mstore\n        /* \"#utility.yul\":1555:1559   */\n      0x20\n        /* \"#utility.yul\":1550:1553   */\n      dup3\n        /* \"#utility.yul\":1546:1560   */\n      add\n        /* \"#utility.yul\":1531:1560   */\n      swap1\n      pop\n        /* \"#utility.yul\":1397:1566   */\n      swap3\n      swap2\n      pop\n      pop\n      jump\t// out\n        /* \"#utility.yul\":1572:1676   */\n    tag_47:\n        /* \"#utility.yul\":1617:1624   */\n      0x00\n        /* \"#utility.yul\":1646:1670   */\n      tag_49\n        /* \"#utility.yul\":1664:1669   */\n      dup3\n        /* \"#utility.yul\":1646:1670   */\n      tag_50\n      jump\t// in\n    tag_49:\n        /* \"#utility.yul\":1635:1670   */\n      swap1\n      pop\n        /* \"#utility.yul\":1572:1676   */\n      swap2\n      swap1\n      pop\n      jump\t// out\n        /* \"#utility.yul\":1682:1808   */\n    tag_50:\n        /* \"#utility.yul\":1719:1726   */\n      0x00\n        /* \"#utility.yul\":1759:1801   */\n      0xffffffffffffffffffffffffffffffffffffffff\n        /* \"#utility.yul\":1752:1757   */\n      dup3\n        /* \"#utility.yul\":1748:1802   */\n      and\n        /* \"#utility.yul\":1737:1802   */\n      swap1\n      pop\n        /* \"#utility.yul\":1682:1808   */\n      swap2\n      swap1\n      pop\n      jump\t// out\n        /* \"#utility.yul\":1937:2054   */\n    tag_34:\n        /* \"#utility.yul\":2046:2047   */\n      0x00\n        /* \"#utility.yul\":2043:2044   */\n      dup1\n        /* \"#utility.yul\":2036:2048   */\n      revert\n        /* \"#utility.yul\":2060:2229   */\n    tag_41:\n        /* \"#utility.yul\":2200:2221   */\n      0x796f75206172656e607420616e206f776e657200000000000000000000000000\n        /* \"#utility.yul\":2196:2197   */\n      0x00\n        /* \"#utility.yul\":2188:2194   */\n      dup3\n        /* \"#utility.yul\":2184:2198   */\n      add\n        /* \"#utility.yul\":2177:2222   */\n      mstore\n        /* \"#utility.yul\":2060:2229   */\n      pop\n      jump\t// out\n        /* \"#utility.yul\":2235:2373   */\n    tag_30:\n        /* \"#utility.yul\":2316:2348   */\n      tag_57\n        /* \"#utility.yul\":2342:2347   */\n      dup2\n        /* \"#utility.yul\":2316:2348   */\n      tag_47\n      jump\t// in\n    tag_57:\n        /* \"#utility.yul\":2309:2314   */\n      dup2\n        /* \"#utility.yul\":2306:2349   */\n      eq\n        /* \"#utility.yul\":2296:2367   */\n      tag_58\n      jumpi\n        /* \"#utility.yul\":2363:2364   */\n      0x00\n        /* \"#utility.yul\":2360:2361   */\n      dup1\n        /* \"#utility.yul\":2353:2365   */\n      revert\n        /* \"#utility.yul\":2296:2367   */\n    tag_58:\n        /* \"#utility.yul\":2235:2373   */\n      pop\n      jump\t// out\n\n    auxdata: 0xa264697066735822122099c5c27be0f926c9de6e6f573f343b15983068016abd923cdb9e0ccaf93ef46964736f6c63430008070033\n}\n",
				"bytecode": {
					"linkReferences": {},
					"object": "608060405234801561001057600080fd5b50336000806101000a81548173ffffffffffffffffffffffffffffffffffffffff021916908373ffffffffffffffffffffffffffffffffffffffff1602179055506102fc806100606000396000f3fe6080604052600436106100345760003560e01c80631b9265b81461003957806351cff8d914610043578063cdd9c5de1461006c575b600080fd5b610041610095565b005b34801561004f57600080fd5b5061006a600480360381019061006591906101ce565b610097565b005b34801561007857600080fd5b50610093600480360381019061008e91906101ce565b6100e1565b005b565b8073ffffffffffffffffffffffffffffffffffffffff166108fc479081150290604051600060405180830381858888f193505050501580156100dd573d6000803e3d6000fd5b5050565b60008054906101000a900473ffffffffffffffffffffffffffffffffffffffff1673ffffffffffffffffffffffffffffffffffffffff163373ffffffffffffffffffffffffffffffffffffffff161461016f576040517f08c379a00000000000000000000000000000000000000000000000000000000081526004016101669061021e565b60405180910390fd5b8073ffffffffffffffffffffffffffffffffffffffff166108fc479081150290604051600060405180830381858888f193505050501580156101b5573d6000803e3d6000fd5b5050565b6000813590506101c8816102af565b92915050565b6000602082840312156101e4576101e3610281565b5b60006101f2848285016101b9565b91505092915050565b600061020860138361023e565b915061021382610286565b602082019050919050565b60006020820190508181036000830152610237816101fb565b9050919050565b600082825260208201905092915050565b600061025a82610261565b9050919050565b600073ffffffffffffffffffffffffffffffffffffffff82169050919050565b600080fd5b7f796f75206172656e607420616e206f776e657200000000000000000000000000600082015250565b6102b88161024f565b81146102c357600080fd5b5056fea264697066735822122099c5c27be0f926c9de6e6f573f343b15983068016abd923cdb9e0ccaf93ef46964736f6c63430008070033",
					"opcodes": "PUSH1 0x80 PUSH1 0x40 MSTORE CALLVALUE DUP1 ISZERO PUSH2 0x10 JUMPI PUSH1 0x0 DUP1 REVERT JUMPDEST POP CALLER PUSH1 0x0 DUP1 PUSH2 0x100 EXP DUP2 SLOAD DUP2 PUSH20 0xFFFFFFFFFFFFFFFFFFFFFFFFFFFFFFFFFFFFFFFF MUL NOT AND SWAP1 DUP4 PUSH20 0xFFFFFFFFFFFFFFFFFFFFFFFFFFFFFFFFFFFFFFFF AND MUL OR SWAP1 SSTORE POP PUSH2 0x2FC DUP1 PUSH2 0x60 PUSH1 0x0 CODECOPY PUSH1 0x0 RETURN INVALID PUSH1 0x80 PUSH1 0x40 MSTORE PUSH1 0x4 CALLDATASIZE LT PUSH2 0x34 JUMPI PUSH1 0x0 CALLDATALOAD PUSH1 0xE0 SHR DUP1 PUSH4 0x1B9265B8 EQ PUSH2 0x39 JUMPI DUP1 PUSH4 0x51CFF8D9 EQ PUSH2 0x43 JUMPI DUP1 PUSH4 0xCDD9C5DE EQ PUSH2 0x6C JUMPI JUMPDEST PUSH1 0x0 DUP1 REVERT JUMPDEST PUSH2 0x41 PUSH2 0x95 JUMP JUMPDEST STOP JUMPDEST CALLVALUE DUP1 ISZERO PUSH2 0x4F JUMPI PUSH1 0x0 DUP1 REVERT JUMPDEST POP PUSH2 0x6A PUSH1 0x4 DUP1 CALLDATASIZE SUB DUP2 ADD SWAP1 PUSH2 0x65 SWAP2 SWAP1 PUSH2 0x1CE JUMP JUMPDEST PUSH2 0x97 JUMP JUMPDEST STOP JUMPDEST CALLVALUE DUP1 ISZERO PUSH2 0x78 JUMPI PUSH1 0x0 DUP1 REVERT JUMPDEST POP PUSH2 0x93 PUSH1 0x4 DUP1 CALLDATASIZE SUB DUP2 ADD SWAP1 PUSH2 0x8E SWAP2 SWAP1 PUSH2 0x1CE JUMP JUMPDEST PUSH2 0xE1 JUMP JUMPDEST STOP JUMPDEST JUMP JUMPDEST DUP1 PUSH20 0xFFFFFFFFFFFFFFFFFFFFFFFFFFFFFFFFFFFFFFFF AND PUSH2 0x8FC SELFBALANCE SWAP1 DUP2 ISZERO MUL SWAP1 PUSH1 0x40 MLOAD PUSH1 0x0 PUSH1 0x40 MLOAD DUP1 DUP4 SUB DUP2 DUP6 DUP9 DUP9 CALL SWAP4 POP POP POP POP ISZERO DUP1 ISZERO PUSH2 0xDD JUMPI RETURNDATASIZE PUSH1 0x0 DUP1 RETURNDATACOPY RETURNDATASIZE PUSH1 0x0 REVERT JUMPDEST POP POP JUMP JUMPDEST PUSH1 0x0 DUP1 SLOAD SWAP1 PUSH2 0x100 EXP SWAP1 DIV PUSH20 0xFFFFFFFFFFFFFFFFFFFFFFFFFFFFFFFFFFFFFFFF AND PUSH20 0xFFFFFFFFFFFFFFFFFFFFFFFFFFFFFFFFFFFFFFFF AND CALLER PUSH20 0xFFFFFFFFFFFFFFFFFFFFFFFFFFFFFFFFFFFFFFFF AND EQ PUSH2 0x16F JUMPI PUSH1 0x40 MLOAD PUSH32 0x8C379A000000000000000000000000000000000000000000000000000000000 DUP2 MSTORE PUSH1 0x4 ADD PUSH2 0x166 SWAP1 PUSH2 0x21E JUMP JUMPDEST PUSH1 0x40 MLOAD DUP1 SWAP2 SUB SWAP1 REVERT JUMPDEST DUP1 PUSH20 0xFFFFFFFFFFFFFFFFFFFFFFFFFFFFFFFFFFFFFFFF AND PUSH2 0x8FC SELFBALANCE SWAP1 DUP2 ISZERO MUL SWAP1 PUSH1 0x40 MLOAD PUSH1 0x0 PUSH1 0x40 MLOAD DUP1 DUP4 SUB DUP2 DUP6 DUP9 DUP9 CALL SWAP4 POP POP POP POP ISZERO DUP1 ISZERO PUSH2 0x1B5 JUMPI RETURNDATASIZE PUSH1 0x0 DUP1 RETURNDATACOPY RETURNDATASIZE PUSH1 0x0 REVERT JUMPDEST POP POP JUMP JUMPDEST PUSH1 0x0 DUP2 CALLDATALOAD SWAP1 POP PUSH2 0x1C8 DUP2 PUSH2 0x2AF JUMP JUMPDEST SWAP3 SWAP2 POP POP JUMP JUMPDEST PUSH1 0x0 PUSH1 0x20 DUP3 DUP5 SUB SLT ISZERO PUSH2 0x1E4 JUMPI PUSH2 0x1E3 PUSH2 0x281 JUMP JUMPDEST JUMPDEST PUSH1 0x0 PUSH2 0x1F2 DUP5 DUP3 DUP6 ADD PUSH2 0x1B9 JUMP JUMPDEST SWAP2 POP POP SWAP3 SWAP2 POP POP JUMP JUMPDEST PUSH1 0x0 PUSH2 0x208 PUSH1 0x13 DUP4 PUSH2 0x23E JUMP JUMPDEST SWAP2 POP PUSH2 0x213 DUP3 PUSH2 0x286 JUMP JUMPDEST PUSH1 0x20 DUP3 ADD SWAP1 POP SWAP2 SWAP1 POP JUMP JUMPDEST PUSH1 0x0 PUSH1 0x20 DUP3 ADD SWAP1 POP DUP2 DUP2 SUB PUSH1 0x0 DUP4 ADD MSTORE PUSH2 0x237 DUP2 PUSH2 0x1FB JUMP JUMPDEST SWAP1 POP SWAP2 SWAP1 POP JUMP JUMPDEST PUSH1 0x0 DUP3 DUP3 MSTORE PUSH1 0x20 DUP3 ADD SWAP1 POP SWAP3 SWAP2 POP POP JUMP JUMPDEST PUSH1 0x0 PUSH2 0x25A DUP3 PUSH2 0x261 JUMP JUMPDEST SWAP1 POP SWAP2 SWAP1 POP JUMP JUMPDEST PUSH1 0x0 PUSH20 0xFFFFFFFFFFFFFFFFFFFFFFFFFFFFFFFFFFFFFFFF DUP3 AND SWAP1 POP SWAP2 SWAP1 POP JUMP JUMPDEST PUSH1 0x0 DUP1 REVERT JUMPDEST PUSH32 0x796F75206172656E607420616E206F776E657200000000000000000000000000 PUSH1 0x0 DUP3 ADD MSTORE POP JUMP JUMPDEST PUSH2 0x2B8 DUP2 PUSH2 0x24F JUMP JUMPDEST DUP2 EQ PUSH2 0x2C3 JUMPI PUSH1 0x0 DUP1 REVERT JUMPDEST POP JUMP INVALID LOG2 PUSH5 0x6970667358 0x22 SLT KECCAK256 SWAP10 0xC5 0xC2 PUSH28 0xE0F926C9DE6E6F573F343B15983068016ABD923CDB9E0CCAF93EF469 PUSH5 0x736F6C6343 STOP ADDMOD SMOD STOP CALLER "
				},
				"gasEstimates": {
					"creation": {
						"codeDepositCost": "152800",
						"executionCost": "24462",
						"totalCost": "177262"
					},
					"external": {
						"pay()": "98",
						"protectedWithdraw(address)": "infinite",
						"withdraw(address)": "infinite"
					}
				},
				"methodIdentifiers": {
					"pay()": "1b9265b8",
					"protectedWithdraw(address)": "cdd9c5de",
					"withdraw(address)": "51cff8d9"
				}
			},
			"storageLayout": {
				"storage": [
					{
						"astId": 3,
						"contract": "contracts/Lesson7Functions.sol:Function7Lesson",
						"label": "owner",
						"offset": 0,
						"slot": "0",
						"type": "t_address"
					}
				],
				"types": {
					"t_address": {
						"encoding": "inplace",
						"label": "address",
						"numberOfBytes": "20"
					}
				}
			},
			"userdoc": {
				"kind": "user",
				"methods": {},
				"version": 1
			}
		}
	}
}