{
	"contracts/Lesson7Functions.sol": {
		"Function7Lesson": {
			"abi": [
				{
					"inputs": [],
					"stateMutability": "nonpayable",
					"type": "constructor"
				},
				{
					"anonymous": false,
					"inputs": [
						{
							"indexed": false,
							"internalType": "address",
							"name": "_from",
							"type": "address"
						},
						{
							"indexed": false,
							"internalType": "uint256",
							"name": "_amount",
							"type": "uint256"
						},
						{
							"indexed": false,
							"internalType": "uint256",
							"name": "_timestamp",
							"type": "uint256"
						}
					],
					"name": "Paid",
					"type": "event"
				},
				{
					"inputs": [],
					"name": "pay",
					"outputs": [],
					"stateMutability": "payable",
					"type": "function"
				},
				{
					"inputs": [
						{
							"internalType": "address payable",
							"name": "to",
							"type": "address"
						}
					],
					"name": "protectedRevertWithdraw",
					"outputs": [],
					"stateMutability": "nonpayable",
					"type": "function"
				},
				{
					"inputs": [
						{
							"internalType": "address payable",
							"name": "to",
							"type": "address"
						}
					],
					"name": "protectedWithdraw",
					"outputs": [],
					"stateMutability": "nonpayable",
					"type": "function"
				},
				{
					"inputs": [
						{
							"internalType": "address payable",
							"name": "to",
							"type": "address"
						}
					],
					"name": "withdraw",
					"outputs": [],
					"stateMutability": "nonpayable",
					"type": "function"
				}
			],
			"devdoc": {
				"kind": "dev",
				"methods": {},
				"version": 1
			},
			"evm": {
				"assembly": "    /* \"contracts/Lesson7Functions.sol\":58:1074  contract Function7Lesson {... */\n  mstore(0x40, 0x80)\n    /* \"contracts/Lesson7Functions.sol\":111:159  constructor(){... */\n  callvalue\n  dup1\n  iszero\n  tag_1\n  jumpi\n  0x00\n  dup1\n  revert\ntag_1:\n  pop\n    /* \"contracts/Lesson7Functions.sol\":142:152  msg.sender */\n  caller\n    /* \"contracts/Lesson7Functions.sol\":134:139  owner */\n  0x00\n  dup1\n    /* \"contracts/Lesson7Functions.sol\":134:152  owner = msg.sender */\n  0x0100\n  exp\n  dup2\n  sload\n  dup2\n  0xffffffffffffffffffffffffffffffffffffffff\n  mul\n  not\n  and\n  swap1\n  dup4\n  0xffffffffffffffffffffffffffffffffffffffff\n  and\n  mul\n  or\n  swap1\n  sstore\n  pop\n    /* \"contracts/Lesson7Functions.sol\":58:1074  contract Function7Lesson {... */\n  dataSize(sub_0)\n  dup1\n  dataOffset(sub_0)\n  0x00\n  codecopy\n  0x00\n  return\nstop\n\nsub_0: assembly {\n        /* \"contracts/Lesson7Functions.sol\":58:1074  contract Function7Lesson {... */\n      mstore(0x40, 0x80)\n      jumpi(tag_1, lt(calldatasize, 0x04))\n      shr(0xe0, calldataload(0x00))\n      dup1\n      0x1b9265b8\n      eq\n      tag_2\n      jumpi\n      dup1\n      0x343405ca\n      eq\n      tag_3\n      jumpi\n      dup1\n      0x51cff8d9\n      eq\n      tag_4\n      jumpi\n      dup1\n      0xcdd9c5de\n      eq\n      tag_5\n      jumpi\n    tag_1:\n      0x00\n      dup1\n      revert\n        /* \"contracts/Lesson7Functions.sol\":232:329  function pay() external payable {... */\n    tag_2:\n      tag_6\n      tag_7\n      jump\t// in\n    tag_6:\n      stop\n        /* \"contracts/Lesson7Functions.sol\":769:1067  function protectedRevertWithdraw(address payable to) external { // может вызвать только владелец контракта... */\n    tag_3:\n      callvalue\n      dup1\n      iszero\n      tag_8\n      jumpi\n      0x00\n      dup1\n      revert\n    tag_8:\n      pop\n      tag_9\n      0x04\n      dup1\n      calldatasize\n      sub\n      dup2\n      add\n      swap1\n      tag_10\n      swap2\n      swap1\n      tag_11\n      jump\t// in\n    tag_10:\n      tag_12\n      jump\t// in\n    tag_9:\n      stop\n        /* \"contracts/Lesson7Functions.sol\":335:511  function withdraw(address payable to) external { // может вызвать любой пользователь в сети ... */\n    tag_4:\n      callvalue\n      dup1\n      iszero\n      tag_13\n      jumpi\n      0x00\n      dup1\n      revert\n    tag_13:\n      pop\n      tag_14\n      0x04\n      dup1\n      calldatasize\n      sub\n      dup2\n      add\n      swap1\n      tag_15\n      swap2\n      swap1\n      tag_11\n      jump\t// in\n    tag_15:\n      tag_16\n      jump\t// in\n    tag_14:\n      stop\n        /* \"contracts/Lesson7Functions.sol\":517:763  function protectedWithdraw(address payable to) external { // может вызвать только владелец контракта... */\n    tag_5:\n      callvalue\n      dup1\n      iszero\n      tag_17\n      jumpi\n      0x00\n      dup1\n      revert\n    tag_17:\n      pop\n      tag_18\n      0x04\n      dup1\n      calldatasize\n      sub\n      dup2\n      add\n      swap1\n      tag_19\n      swap2\n      swap1\n      tag_11\n      jump\t// in\n    tag_19:\n      tag_20\n      jump\t// in\n    tag_18:\n      stop\n        /* \"contracts/Lesson7Functions.sol\":232:329  function pay() external payable {... */\n    tag_7:\n        /* \"contracts/Lesson7Functions.sol\":278:322  Paid(msg.sender, msg.value, block.timestamp) */\n      0xdf9a51129930649214df58f542322c245372c6f2fa6fc3c9b40d927c597cd230\n        /* \"contracts/Lesson7Functions.sol\":283:293  msg.sender */\n      caller\n        /* \"contracts/Lesson7Functions.sol\":295:304  msg.value */\n      callvalue\n        /* \"contracts/Lesson7Functions.sol\":306:321  block.timestamp */\n      timestamp\n        /* \"contracts/Lesson7Functions.sol\":278:322  Paid(msg.sender, msg.value, block.timestamp) */\n      mload(0x40)\n      tag_22\n      swap4\n      swap3\n      swap2\n      swap1\n      tag_23\n      jump\t// in\n    tag_22:\n      mload(0x40)\n      dup1\n      swap2\n      sub\n      swap1\n      log1\n        /* \"contracts/Lesson7Functions.sol\":232:329  function pay() external payable {... */\n      jump\t// out\n        /* \"contracts/Lesson7Functions.sol\":769:1067  function protectedRevertWithdraw(address payable to) external { // может вызвать только владелец контракта... */\n    tag_12:\n        /* \"contracts/Lesson7Functions.sol\":936:941  owner */\n      0x00\n      dup1\n      sload\n      swap1\n      0x0100\n      exp\n      swap1\n      div\n      0xffffffffffffffffffffffffffffffffffffffff\n      and\n        /* \"contracts/Lesson7Functions.sol\":922:941  msg.sender != owner */\n      0xffffffffffffffffffffffffffffffffffffffff\n      and\n        /* \"contracts/Lesson7Functions.sol\":922:932  msg.sender */\n      caller\n        /* \"contracts/Lesson7Functions.sol\":922:941  msg.sender != owner */\n      0xffffffffffffffffffffffffffffffffffffffff\n      and\n      eq\n        /* \"contracts/Lesson7Functions.sol\":919:1061  if(msg.sender != owner){... */\n      tag_25\n      jumpi\n        /* \"contracts/Lesson7Functions.sol\":956:985  revert('you aren`t an owner') */\n      mload(0x40)\n      0x08c379a000000000000000000000000000000000000000000000000000000000\n      dup2\n      mstore\n      0x04\n      add\n      tag_26\n      swap1\n      tag_27\n      jump\t// in\n    tag_26:\n      mload(0x40)\n      dup1\n      swap2\n      sub\n      swap1\n      revert\n        /* \"contracts/Lesson7Functions.sol\":919:1061  if(msg.sender != owner){... */\n    tag_25:\n        /* \"contracts/Lesson7Functions.sol\":1016:1018  to */\n      dup1\n        /* \"contracts/Lesson7Functions.sol\":1016:1027  to.transfer */\n      0xffffffffffffffffffffffffffffffffffffffff\n      and\n        /* \"contracts/Lesson7Functions.sol\":1016:1050  to.transfer(address(this).balance) */\n      0x08fc\n        /* \"contracts/Lesson7Functions.sol\":1028:1049  address(this).balance */\n      selfbalance\n        /* \"contracts/Lesson7Functions.sol\":1016:1050  to.transfer(address(this).balance) */\n      swap1\n      dup2\n      iszero\n      mul\n      swap1\n      mload(0x40)\n      0x00\n      mload(0x40)\n      dup1\n      dup4\n      sub\n      dup2\n      dup6\n      dup9\n      dup9\n      call\n      swap4\n      pop\n      pop\n      pop\n      pop\n      iszero\n      dup1\n      iszero\n      tag_30\n      jumpi\n      returndatasize\n      0x00\n      dup1\n      returndatacopy\n      revert(0x00, returndatasize)\n    tag_30:\n      pop\n        /* \"contracts/Lesson7Functions.sol\":769:1067  function protectedRevertWithdraw(address payable to) external { // может вызвать только владелец контракта... */\n      pop\n      jump\t// out\n        /* \"contracts/Lesson7Functions.sol\":335:511  function withdraw(address payable to) external { // может вызвать любой пользователь в сети ... */\n    tag_16:\n        /* \"contracts/Lesson7Functions.sol\":470:472  to */\n      dup1\n        /* \"contracts/Lesson7Functions.sol\":470:481  to.transfer */\n      0xffffffffffffffffffffffffffffffffffffffff\n      and\n        /* \"contracts/Lesson7Functions.sol\":470:504  to.transfer(address(this).balance) */\n      0x08fc\n        /* \"contracts/Lesson7Functions.sol\":482:503  address(this).balance */\n      selfbalance\n        /* \"contracts/Lesson7Functions.sol\":470:504  to.transfer(address(this).balance) */\n      swap1\n      dup2\n      iszero\n      mul\n      swap1\n      mload(0x40)\n      0x00\n      mload(0x40)\n      dup1\n      dup4\n      sub\n      dup2\n      dup6\n      dup9\n      dup9\n      call\n      swap4\n      pop\n      pop\n      pop\n      pop\n      iszero\n      dup1\n      iszero\n      tag_33\n      jumpi\n      returndatasize\n      0x00\n      dup1\n      returndatacopy\n      revert(0x00, returndatasize)\n    tag_33:\n      pop\n        /* \"contracts/Lesson7Functions.sol\":335:511  function withdraw(address payable to) external { // может вызвать любой пользователь в сети ... */\n      pop\n      jump\t// out\n        /* \"contracts/Lesson7Functions.sol\":517:763  function protectedWithdraw(address payable to) external { // может вызвать только владелец контракта... */\n    tag_20:\n        /* \"contracts/Lesson7Functions.sol\":683:688  owner */\n      0x00\n      dup1\n      sload\n      swap1\n      0x0100\n      exp\n      swap1\n      div\n      0xffffffffffffffffffffffffffffffffffffffff\n      and\n        /* \"contracts/Lesson7Functions.sol\":669:688  msg.sender != owner */\n      0xffffffffffffffffffffffffffffffffffffffff\n      and\n        /* \"contracts/Lesson7Functions.sol\":669:679  msg.sender */\n      caller\n        /* \"contracts/Lesson7Functions.sol\":669:688  msg.sender != owner */\n      0xffffffffffffffffffffffffffffffffffffffff\n      and\n      eq\n      iszero\n        /* \"contracts/Lesson7Functions.sol\":661:712  require(msg.sender != owner, 'you aren`t an owner') */\n      tag_35\n      jumpi\n      mload(0x40)\n      0x08c379a000000000000000000000000000000000000000000000000000000000\n      dup2\n      mstore\n      0x04\n      add\n      tag_36\n      swap1\n      tag_27\n      jump\t// in\n    tag_36:\n      mload(0x40)\n      dup1\n      swap2\n      sub\n      swap1\n      revert\n    tag_35:\n        /* \"contracts/Lesson7Functions.sol\":722:724  to */\n      dup1\n        /* \"contracts/Lesson7Functions.sol\":722:733  to.transfer */\n      0xffffffffffffffffffffffffffffffffffffffff\n      and\n        /* \"contracts/Lesson7Functions.sol\":722:756  to.transfer(address(this).balance) */\n      0x08fc\n        /* \"contracts/Lesson7Functions.sol\":734:755  address(this).balance */\n      selfbalance\n        /* \"contracts/Lesson7Functions.sol\":722:756  to.transfer(address(this).balance) */\n      swap1\n      dup2\n      iszero\n      mul\n      swap1\n      mload(0x40)\n      0x00\n      mload(0x40)\n      dup1\n      dup4\n      sub\n      dup2\n      dup6\n      dup9\n      dup9\n      call\n      swap4\n      pop\n      pop\n      pop\n      pop\n      iszero\n      dup1\n      iszero\n      tag_38\n      jumpi\n      returndatasize\n      0x00\n      dup1\n      returndatacopy\n      revert(0x00, returndatasize)\n    tag_38:\n      pop\n        /* \"contracts/Lesson7Functions.sol\":517:763  function protectedWithdraw(address payable to) external { // может вызвать только владелец контракта... */\n      pop\n      jump\t// out\n        /* \"#utility.yul\":7:162   */\n    tag_40:\n        /* \"#utility.yul\":61:66   */\n      0x00\n        /* \"#utility.yul\":99:105   */\n      dup2\n        /* \"#utility.yul\":86:106   */\n      calldataload\n        /* \"#utility.yul\":77:106   */\n      swap1\n      pop\n        /* \"#utility.yul\":115:156   */\n      tag_42\n        /* \"#utility.yul\":150:155   */\n      dup2\n        /* \"#utility.yul\":115:156   */\n      tag_43\n      jump\t// in\n    tag_42:\n        /* \"#utility.yul\":7:162   */\n      swap3\n      swap2\n      pop\n      pop\n      jump\t// out\n        /* \"#utility.yul\":168:513   */\n    tag_11:\n        /* \"#utility.yul\":235:241   */\n      0x00\n        /* \"#utility.yul\":284:286   */\n      0x20\n        /* \"#utility.yul\":272:281   */\n      dup3\n        /* \"#utility.yul\":263:270   */\n      dup5\n        /* \"#utility.yul\":259:282   */\n      sub\n        /* \"#utility.yul\":255:287   */\n      slt\n        /* \"#utility.yul\":252:371   */\n      iszero\n      tag_45\n      jumpi\n        /* \"#utility.yul\":290:369   */\n      tag_46\n      tag_47\n      jump\t// in\n    tag_46:\n        /* \"#utility.yul\":252:371   */\n    tag_45:\n        /* \"#utility.yul\":410:411   */\n      0x00\n        /* \"#utility.yul\":435:496   */\n      tag_48\n        /* \"#utility.yul\":488:495   */\n      dup5\n        /* \"#utility.yul\":479:485   */\n      dup3\n        /* \"#utility.yul\":468:477   */\n      dup6\n        /* \"#utility.yul\":464:486   */\n      add\n        /* \"#utility.yul\":435:496   */\n      tag_40\n      jump\t// in\n    tag_48:\n        /* \"#utility.yul\":425:496   */\n      swap2\n      pop\n        /* \"#utility.yul\":381:506   */\n      pop\n        /* \"#utility.yul\":168:513   */\n      swap3\n      swap2\n      pop\n      pop\n      jump\t// out\n        /* \"#utility.yul\":519:637   */\n    tag_49:\n        /* \"#utility.yul\":606:630   */\n      tag_51\n        /* \"#utility.yul\":624:629   */\n      dup2\n        /* \"#utility.yul\":606:630   */\n      tag_52\n      jump\t// in\n    tag_51:\n        /* \"#utility.yul\":601:604   */\n      dup3\n        /* \"#utility.yul\":594:631   */\n      mstore\n        /* \"#utility.yul\":519:637   */\n      pop\n      pop\n      jump\t// out\n        /* \"#utility.yul\":643:1009   */\n    tag_53:\n        /* \"#utility.yul\":785:788   */\n      0x00\n        /* \"#utility.yul\":806:873   */\n      tag_55\n        /* \"#utility.yul\":870:872   */\n      0x13\n        /* \"#utility.yul\":865:868   */\n      dup4\n        /* \"#utility.yul\":806:873   */\n      tag_56\n      jump\t// in\n    tag_55:\n        /* \"#utility.yul\":799:873   */\n      swap2\n      pop\n        /* \"#utility.yul\":882:975   */\n      tag_57\n        /* \"#utility.yul\":971:974   */\n      dup3\n        /* \"#utility.yul\":882:975   */\n      tag_58\n      jump\t// in\n    tag_57:\n        /* \"#utility.yul\":1000:1002   */\n      0x20\n        /* \"#utility.yul\":995:998   */\n      dup3\n        /* \"#utility.yul\":991:1003   */\n      add\n        /* \"#utility.yul\":984:1003   */\n      swap1\n      pop\n        /* \"#utility.yul\":643:1009   */\n      swap2\n      swap1\n      pop\n      jump\t// out\n        /* \"#utility.yul\":1015:1133   */\n    tag_59:\n        /* \"#utility.yul\":1102:1126   */\n      tag_61\n        /* \"#utility.yul\":1120:1125   */\n      dup2\n        /* \"#utility.yul\":1102:1126   */\n      tag_62\n      jump\t// in\n    tag_61:\n        /* \"#utility.yul\":1097:1100   */\n      dup3\n        /* \"#utility.yul\":1090:1127   */\n      mstore\n        /* \"#utility.yul\":1015:1133   */\n      pop\n      pop\n      jump\t// out\n        /* \"#utility.yul\":1139:1581   */\n    tag_23:\n        /* \"#utility.yul\":1288:1292   */\n      0x00\n        /* \"#utility.yul\":1326:1328   */\n      0x60\n        /* \"#utility.yul\":1315:1324   */\n      dup3\n        /* \"#utility.yul\":1311:1329   */\n      add\n        /* \"#utility.yul\":1303:1329   */\n      swap1\n      pop\n        /* \"#utility.yul\":1339:1410   */\n      tag_64\n        /* \"#utility.yul\":1407:1408   */\n      0x00\n        /* \"#utility.yul\":1396:1405   */\n      dup4\n        /* \"#utility.yul\":1392:1409   */\n      add\n        /* \"#utility.yul\":1383:1389   */\n      dup7\n        /* \"#utility.yul\":1339:1410   */\n      tag_49\n      jump\t// in\n    tag_64:\n        /* \"#utility.yul\":1420:1492   */\n      tag_65\n        /* \"#utility.yul\":1488:1490   */\n      0x20\n        /* \"#utility.yul\":1477:1486   */\n      dup4\n        /* \"#utility.yul\":1473:1491   */\n      add\n        /* \"#utility.yul\":1464:1470   */\n      dup6\n        /* \"#utility.yul\":1420:1492   */\n      tag_59\n      jump\t// in\n    tag_65:\n        /* \"#utility.yul\":1502:1574   */\n      tag_66\n        /* \"#utility.yul\":1570:1572   */\n      0x40\n        /* \"#utility.yul\":1559:1568   */\n      dup4\n        /* \"#utility.yul\":1555:1573   */\n      add\n        /* \"#utility.yul\":1546:1552   */\n      dup5\n        /* \"#utility.yul\":1502:1574   */\n      tag_59\n      jump\t// in\n    tag_66:\n        /* \"#utility.yul\":1139:1581   */\n      swap5\n      swap4\n      pop\n      pop\n      pop\n      pop\n      jump\t// out\n        /* \"#utility.yul\":1587:2006   */\n    tag_27:\n        /* \"#utility.yul\":1753:1757   */\n      0x00\n        /* \"#utility.yul\":1791:1793   */\n      0x20\n        /* \"#utility.yul\":1780:1789   */\n      dup3\n        /* \"#utility.yul\":1776:1794   */\n      add\n        /* \"#utility.yul\":1768:1794   */\n      swap1\n      pop\n        /* \"#utility.yul\":1840:1849   */\n      dup2\n        /* \"#utility.yul\":1834:1838   */\n      dup2\n        /* \"#utility.yul\":1830:1850   */\n      sub\n        /* \"#utility.yul\":1826:1827   */\n      0x00\n        /* \"#utility.yul\":1815:1824   */\n      dup4\n        /* \"#utility.yul\":1811:1828   */\n      add\n        /* \"#utility.yul\":1804:1851   */\n      mstore\n        /* \"#utility.yul\":1868:1999   */\n      tag_68\n        /* \"#utility.yul\":1994:1998   */\n      dup2\n        /* \"#utility.yul\":1868:1999   */\n      tag_53\n      jump\t// in\n    tag_68:\n        /* \"#utility.yul\":1860:1999   */\n      swap1\n      pop\n        /* \"#utility.yul\":1587:2006   */\n      swap2\n      swap1\n      pop\n      jump\t// out\n        /* \"#utility.yul\":2093:2262   */\n    tag_56:\n        /* \"#utility.yul\":2177:2188   */\n      0x00\n        /* \"#utility.yul\":2211:2217   */\n      dup3\n        /* \"#utility.yul\":2206:2209   */\n      dup3\n        /* \"#utility.yul\":2199:2218   */\n      mstore\n        /* \"#utility.yul\":2251:2255   */\n      0x20\n        /* \"#utility.yul\":2246:2249   */\n      dup3\n        /* \"#utility.yul\":2242:2256   */\n      add\n        /* \"#utility.yul\":2227:2256   */\n      swap1\n      pop\n        /* \"#utility.yul\":2093:2262   */\n      swap3\n      swap2\n      pop\n      pop\n      jump\t// out\n        /* \"#utility.yul\":2268:2364   */\n    tag_52:\n        /* \"#utility.yul\":2305:2312   */\n      0x00\n        /* \"#utility.yul\":2334:2358   */\n      tag_73\n        /* \"#utility.yul\":2352:2357   */\n      dup3\n        /* \"#utility.yul\":2334:2358   */\n      tag_74\n      jump\t// in\n    tag_73:\n        /* \"#utility.yul\":2323:2358   */\n      swap1\n      pop\n        /* \"#utility.yul\":2268:2364   */\n      swap2\n      swap1\n      pop\n      jump\t// out\n        /* \"#utility.yul\":2370:2474   */\n    tag_75:\n        /* \"#utility.yul\":2415:2422   */\n      0x00\n        /* \"#utility.yul\":2444:2468   */\n      tag_77\n        /* \"#utility.yul\":2462:2467   */\n      dup3\n        /* \"#utility.yul\":2444:2468   */\n      tag_74\n      jump\t// in\n    tag_77:\n        /* \"#utility.yul\":2433:2468   */\n      swap1\n      pop\n        /* \"#utility.yul\":2370:2474   */\n      swap2\n      swap1\n      pop\n      jump\t// out\n        /* \"#utility.yul\":2480:2606   */\n    tag_74:\n        /* \"#utility.yul\":2517:2524   */\n      0x00\n        /* \"#utility.yul\":2557:2599   */\n      0xffffffffffffffffffffffffffffffffffffffff\n        /* \"#utility.yul\":2550:2555   */\n      dup3\n        /* \"#utility.yul\":2546:2600   */\n      and\n        /* \"#utility.yul\":2535:2600   */\n      swap1\n      pop\n        /* \"#utility.yul\":2480:2606   */\n      swap2\n      swap1\n      pop\n      jump\t// out\n        /* \"#utility.yul\":2612:2689   */\n    tag_62:\n        /* \"#utility.yul\":2649:2656   */\n      0x00\n        /* \"#utility.yul\":2678:2683   */\n      dup2\n        /* \"#utility.yul\":2667:2683   */\n      swap1\n      pop\n        /* \"#utility.yul\":2612:2689   */\n      swap2\n      swap1\n      pop\n      jump\t// out\n        /* \"#utility.yul\":2818:2935   */\n    tag_47:\n        /* \"#utility.yul\":2927:2928   */\n      0x00\n        /* \"#utility.yul\":2924:2925   */\n      dup1\n        /* \"#utility.yul\":2917:2929   */\n      revert\n        /* \"#utility.yul\":2941:3110   */\n    tag_58:\n        /* \"#utility.yul\":3081:3102   */\n      0x796f75206172656e607420616e206f776e657200000000000000000000000000\n        /* \"#utility.yul\":3077:3078   */\n      0x00\n        /* \"#utility.yul\":3069:3075   */\n      dup3\n        /* \"#utility.yul\":3065:3079   */\n      add\n        /* \"#utility.yul\":3058:3103   */\n      mstore\n        /* \"#utility.yul\":2941:3110   */\n      pop\n      jump\t// out\n        /* \"#utility.yul\":3116:3254   */\n    tag_43:\n        /* \"#utility.yul\":3197:3229   */\n      tag_85\n        /* \"#utility.yul\":3223:3228   */\n      dup2\n        /* \"#utility.yul\":3197:3229   */\n      tag_75\n      jump\t// in\n    tag_85:\n        /* \"#utility.yul\":3190:3195   */\n      dup2\n        /* \"#utility.yul\":3187:3230   */\n      eq\n        /* \"#utility.yul\":3177:3248   */\n      tag_86\n      jumpi\n        /* \"#utility.yul\":3244:3245   */\n      0x00\n        /* \"#utility.yul\":3241:3242   */\n      dup1\n        /* \"#utility.yul\":3234:3246   */\n      revert\n        /* \"#utility.yul\":3177:3248   */\n    tag_86:\n        /* \"#utility.yul\":3116:3254   */\n      pop\n      jump\t// out\n\n    auxdata: 0xa26469706673582212209fa3dc0f37ded1c567ecef823754f3e3f678e7c3b87f3bab13fc00b97e77e9f064736f6c63430008070033\n}\n",
				"bytecode": {
					"linkReferences": {},
					"object": "608060405234801561001057600080fd5b50336000806101000a81548173ffffffffffffffffffffffffffffffffffffffff021916908373ffffffffffffffffffffffffffffffffffffffff1602179055506104b5806100606000396000f3fe60806040526004361061003f5760003560e01c80631b9265b814610044578063343405ca1461004e57806351cff8d914610077578063cdd9c5de146100a0575b600080fd5b61004c6100c9565b005b34801561005a57600080fd5b5061007560048036038101906100709190610316565b610106565b005b34801561008357600080fd5b5061009e60048036038101906100999190610316565b6101de565b005b3480156100ac57600080fd5b506100c760048036038101906100c29190610316565b610228565b005b7fdf9a51129930649214df58f542322c245372c6f2fa6fc3c9b40d927c597cd2303334426040516100fc93929190610384565b60405180910390a1565b60008054906101000a900473ffffffffffffffffffffffffffffffffffffffff1673ffffffffffffffffffffffffffffffffffffffff163373ffffffffffffffffffffffffffffffffffffffff1614610194576040517f08c379a000000000000000000000000000000000000000000000000000000000815260040161018b906103bb565b60405180910390fd5b8073ffffffffffffffffffffffffffffffffffffffff166108fc479081150290604051600060405180830381858888f193505050501580156101da573d6000803e3d6000fd5b5050565b8073ffffffffffffffffffffffffffffffffffffffff166108fc479081150290604051600060405180830381858888f19350505050158015610224573d6000803e3d6000fd5b5050565b60008054906101000a900473ffffffffffffffffffffffffffffffffffffffff1673ffffffffffffffffffffffffffffffffffffffff163373ffffffffffffffffffffffffffffffffffffffff1614156102b7576040517f08c379a00000000000000000000000000000000000000000000000000000000081526004016102ae906103bb565b60405180910390fd5b8073ffffffffffffffffffffffffffffffffffffffff166108fc479081150290604051600060405180830381858888f193505050501580156102fd573d6000803e3d6000fd5b5050565b60008135905061031081610468565b92915050565b60006020828403121561032c5761032b61043a565b5b600061033a84828501610301565b91505092915050565b61034c816103ec565b82525050565b600061035f6013836103db565b915061036a8261043f565b602082019050919050565b61037e81610430565b82525050565b60006060820190506103996000830186610343565b6103a66020830185610375565b6103b36040830184610375565b949350505050565b600060208201905081810360008301526103d481610352565b9050919050565b600082825260208201905092915050565b60006103f782610410565b9050919050565b600061040982610410565b9050919050565b600073ffffffffffffffffffffffffffffffffffffffff82169050919050565b6000819050919050565b600080fd5b7f796f75206172656e607420616e206f776e657200000000000000000000000000600082015250565b610471816103fe565b811461047c57600080fd5b5056fea26469706673582212209fa3dc0f37ded1c567ecef823754f3e3f678e7c3b87f3bab13fc00b97e77e9f064736f6c63430008070033",
					"opcodes": "PUSH1 0x80 PUSH1 0x40 MSTORE CALLVALUE DUP1 ISZERO PUSH2 0x10 JUMPI PUSH1 0x0 DUP1 REVERT JUMPDEST POP CALLER PUSH1 0x0 DUP1 PUSH2 0x100 EXP DUP2 SLOAD DUP2 PUSH20 0xFFFFFFFFFFFFFFFFFFFFFFFFFFFFFFFFFFFFFFFF MUL NOT AND SWAP1 DUP4 PUSH20 0xFFFFFFFFFFFFFFFFFFFFFFFFFFFFFFFFFFFFFFFF AND MUL OR SWAP1 SSTORE POP PUSH2 0x4B5 DUP1 PUSH2 0x60 PUSH1 0x0 CODECOPY PUSH1 0x0 RETURN INVALID PUSH1 0x80 PUSH1 0x40 MSTORE PUSH1 0x4 CALLDATASIZE LT PUSH2 0x3F JUMPI PUSH1 0x0 CALLDATALOAD PUSH1 0xE0 SHR DUP1 PUSH4 0x1B9265B8 EQ PUSH2 0x44 JUMPI DUP1 PUSH4 0x343405CA EQ PUSH2 0x4E JUMPI DUP1 PUSH4 0x51CFF8D9 EQ PUSH2 0x77 JUMPI DUP1 PUSH4 0xCDD9C5DE EQ PUSH2 0xA0 JUMPI JUMPDEST PUSH1 0x0 DUP1 REVERT JUMPDEST PUSH2 0x4C PUSH2 0xC9 JUMP JUMPDEST STOP JUMPDEST CALLVALUE DUP1 ISZERO PUSH2 0x5A JUMPI PUSH1 0x0 DUP1 REVERT JUMPDEST POP PUSH2 0x75 PUSH1 0x4 DUP1 CALLDATASIZE SUB DUP2 ADD SWAP1 PUSH2 0x70 SWAP2 SWAP1 PUSH2 0x316 JUMP JUMPDEST PUSH2 0x106 JUMP JUMPDEST STOP JUMPDEST CALLVALUE DUP1 ISZERO PUSH2 0x83 JUMPI PUSH1 0x0 DUP1 REVERT JUMPDEST POP PUSH2 0x9E PUSH1 0x4 DUP1 CALLDATASIZE SUB DUP2 ADD SWAP1 PUSH2 0x99 SWAP2 SWAP1 PUSH2 0x316 JUMP JUMPDEST PUSH2 0x1DE JUMP JUMPDEST STOP JUMPDEST CALLVALUE DUP1 ISZERO PUSH2 0xAC JUMPI PUSH1 0x0 DUP1 REVERT JUMPDEST POP PUSH2 0xC7 PUSH1 0x4 DUP1 CALLDATASIZE SUB DUP2 ADD SWAP1 PUSH2 0xC2 SWAP2 SWAP1 PUSH2 0x316 JUMP JUMPDEST PUSH2 0x228 JUMP JUMPDEST STOP JUMPDEST PUSH32 0xDF9A51129930649214DF58F542322C245372C6F2FA6FC3C9B40D927C597CD230 CALLER CALLVALUE TIMESTAMP PUSH1 0x40 MLOAD PUSH2 0xFC SWAP4 SWAP3 SWAP2 SWAP1 PUSH2 0x384 JUMP JUMPDEST PUSH1 0x40 MLOAD DUP1 SWAP2 SUB SWAP1 LOG1 JUMP JUMPDEST PUSH1 0x0 DUP1 SLOAD SWAP1 PUSH2 0x100 EXP SWAP1 DIV PUSH20 0xFFFFFFFFFFFFFFFFFFFFFFFFFFFFFFFFFFFFFFFF AND PUSH20 0xFFFFFFFFFFFFFFFFFFFFFFFFFFFFFFFFFFFFFFFF AND CALLER PUSH20 0xFFFFFFFFFFFFFFFFFFFFFFFFFFFFFFFFFFFFFFFF AND EQ PUSH2 0x194 JUMPI PUSH1 0x40 MLOAD PUSH32 0x8C379A000000000000000000000000000000000000000000000000000000000 DUP2 MSTORE PUSH1 0x4 ADD PUSH2 0x18B SWAP1 PUSH2 0x3BB JUMP JUMPDEST PUSH1 0x40 MLOAD DUP1 SWAP2 SUB SWAP1 REVERT JUMPDEST DUP1 PUSH20 0xFFFFFFFFFFFFFFFFFFFFFFFFFFFFFFFFFFFFFFFF AND PUSH2 0x8FC SELFBALANCE SWAP1 DUP2 ISZERO MUL SWAP1 PUSH1 0x40 MLOAD PUSH1 0x0 PUSH1 0x40 MLOAD DUP1 DUP4 SUB DUP2 DUP6 DUP9 DUP9 CALL SWAP4 POP POP POP POP ISZERO DUP1 ISZERO PUSH2 0x1DA JUMPI RETURNDATASIZE PUSH1 0x0 DUP1 RETURNDATACOPY RETURNDATASIZE PUSH1 0x0 REVERT JUMPDEST POP POP JUMP JUMPDEST DUP1 PUSH20 0xFFFFFFFFFFFFFFFFFFFFFFFFFFFFFFFFFFFFFFFF AND PUSH2 0x8FC SELFBALANCE SWAP1 DUP2 ISZERO MUL SWAP1 PUSH1 0x40 MLOAD PUSH1 0x0 PUSH1 0x40 MLOAD DUP1 DUP4 SUB DUP2 DUP6 DUP9 DUP9 CALL SWAP4 POP POP POP POP ISZERO DUP1 ISZERO PUSH2 0x224 JUMPI RETURNDATASIZE PUSH1 0x0 DUP1 RETURNDATACOPY RETURNDATASIZE PUSH1 0x0 REVERT JUMPDEST POP POP JUMP JUMPDEST PUSH1 0x0 DUP1 SLOAD SWAP1 PUSH2 0x100 EXP SWAP1 DIV PUSH20 0xFFFFFFFFFFFFFFFFFFFFFFFFFFFFFFFFFFFFFFFF AND PUSH20 0xFFFFFFFFFFFFFFFFFFFFFFFFFFFFFFFFFFFFFFFF AND CALLER PUSH20 0xFFFFFFFFFFFFFFFFFFFFFFFFFFFFFFFFFFFFFFFF AND EQ ISZERO PUSH2 0x2B7 JUMPI PUSH1 0x40 MLOAD PUSH32 0x8C379A000000000000000000000000000000000000000000000000000000000 DUP2 MSTORE PUSH1 0x4 ADD PUSH2 0x2AE SWAP1 PUSH2 0x3BB JUMP JUMPDEST PUSH1 0x40 MLOAD DUP1 SWAP2 SUB SWAP1 REVERT JUMPDEST DUP1 PUSH20 0xFFFFFFFFFFFFFFFFFFFFFFFFFFFFFFFFFFFFFFFF AND PUSH2 0x8FC SELFBALANCE SWAP1 DUP2 ISZERO MUL SWAP1 PUSH1 0x40 MLOAD PUSH1 0x0 PUSH1 0x40 MLOAD DUP1 DUP4 SUB DUP2 DUP6 DUP9 DUP9 CALL SWAP4 POP POP POP POP ISZERO DUP1 ISZERO PUSH2 0x2FD JUMPI RETURNDATASIZE PUSH1 0x0 DUP1 RETURNDATACOPY RETURNDATASIZE PUSH1 0x0 REVERT JUMPDEST POP POP JUMP JUMPDEST PUSH1 0x0 DUP2 CALLDATALOAD SWAP1 POP PUSH2 0x310 DUP2 PUSH2 0x468 JUMP JUMPDEST SWAP3 SWAP2 POP POP JUMP JUMPDEST PUSH1 0x0 PUSH1 0x20 DUP3 DUP5 SUB SLT ISZERO PUSH2 0x32C JUMPI PUSH2 0x32B PUSH2 0x43A JUMP JUMPDEST JUMPDEST PUSH1 0x0 PUSH2 0x33A DUP5 DUP3 DUP6 ADD PUSH2 0x301 JUMP JUMPDEST SWAP2 POP POP SWAP3 SWAP2 POP POP JUMP JUMPDEST PUSH2 0x34C DUP2 PUSH2 0x3EC JUMP JUMPDEST DUP3 MSTORE POP POP JUMP JUMPDEST PUSH1 0x0 PUSH2 0x35F PUSH1 0x13 DUP4 PUSH2 0x3DB JUMP JUMPDEST SWAP2 POP PUSH2 0x36A DUP3 PUSH2 0x43F JUMP JUMPDEST PUSH1 0x20 DUP3 ADD SWAP1 POP SWAP2 SWAP1 POP JUMP JUMPDEST PUSH2 0x37E DUP2 PUSH2 0x430 JUMP JUMPDEST DUP3 MSTORE POP POP JUMP JUMPDEST PUSH1 0x0 PUSH1 0x60 DUP3 ADD SWAP1 POP PUSH2 0x399 PUSH1 0x0 DUP4 ADD DUP7 PUSH2 0x343 JUMP JUMPDEST PUSH2 0x3A6 PUSH1 0x20 DUP4 ADD DUP6 PUSH2 0x375 JUMP JUMPDEST PUSH2 0x3B3 PUSH1 0x40 DUP4 ADD DUP5 PUSH2 0x375 JUMP JUMPDEST SWAP5 SWAP4 POP POP POP POP JUMP JUMPDEST PUSH1 0x0 PUSH1 0x20 DUP3 ADD SWAP1 POP DUP2 DUP2 SUB PUSH1 0x0 DUP4 ADD MSTORE PUSH2 0x3D4 DUP2 PUSH2 0x352 JUMP JUMPDEST SWAP1 POP SWAP2 SWAP1 POP JUMP JUMPDEST PUSH1 0x0 DUP3 DUP3 MSTORE PUSH1 0x20 DUP3 ADD SWAP1 POP SWAP3 SWAP2 POP POP JUMP JUMPDEST PUSH1 0x0 PUSH2 0x3F7 DUP3 PUSH2 0x410 JUMP JUMPDEST SWAP1 POP SWAP2 SWAP1 POP JUMP JUMPDEST PUSH1 0x0 PUSH2 0x409 DUP3 PUSH2 0x410 JUMP JUMPDEST SWAP1 POP SWAP2 SWAP1 POP JUMP JUMPDEST PUSH1 0x0 PUSH20 0xFFFFFFFFFFFFFFFFFFFFFFFFFFFFFFFFFFFFFFFF DUP3 AND SWAP1 POP SWAP2 SWAP1 POP JUMP JUMPDEST PUSH1 0x0 DUP2 SWAP1 POP SWAP2 SWAP1 POP JUMP JUMPDEST PUSH1 0x0 DUP1 REVERT JUMPDEST PUSH32 0x796F75206172656E607420616E206F776E657200000000000000000000000000 PUSH1 0x0 DUP3 ADD MSTORE POP JUMP JUMPDEST PUSH2 0x471 DUP2 PUSH2 0x3FE JUMP JUMPDEST DUP2 EQ PUSH2 0x47C JUMPI PUSH1 0x0 DUP1 REVERT JUMPDEST POP JUMP INVALID LOG2 PUSH5 0x6970667358 0x22 SLT KECCAK256 SWAP16 LOG3 0xDC 0xF CALLDATACOPY 0xDE 0xD1 0xC5 PUSH8 0xECEF823754F3E3F6 PUSH25 0xE7C3B87F3BAB13FC00B97E77E9F064736F6C63430008070033 "
				},
				"gasEstimates": {
					"creation": {
						"codeDepositCost": "241000",
						"executionCost": "24547",
						"totalCost": "265547"
					},
					"external": {
						"pay()": "infinite",
						"protectedRevertWithdraw(address)": "infinite",
						"protectedWithdraw(address)": "infinite",
						"withdraw(address)": "infinite"
					}
				},
				"methodIdentifiers": {
					"pay()": "1b9265b8",
					"protectedRevertWithdraw(address)": "343405ca",
					"protectedWithdraw(address)": "cdd9c5de",
					"withdraw(address)": "51cff8d9"
				}
			},
			"storageLayout": {
				"storage": [
					{
						"astId": 3,
						"contract": "contracts/Lesson7Functions.sol:Function7Lesson",
						"label": "owner",
						"offset": 0,
						"slot": "0",
						"type": "t_address"
					}
				],
				"types": {
					"t_address": {
						"encoding": "inplace",
						"label": "address",
						"numberOfBytes": "20"
					}
				}
			},
			"userdoc": {
				"kind": "user",
				"methods": {},
				"version": 1
			}
		}
	}
}