{
	"contracts/Lesson4Types.sol": {
		"Array4Lesson": {
			"abi": [
				{
					"inputs": [
						{
							"internalType": "uint256",
							"name": "",
							"type": "uint256"
						}
					],
					"name": "items",
					"outputs": [
						{
							"internalType": "uint256",
							"name": "",
							"type": "uint256"
						}
					],
					"stateMutability": "view",
					"type": "function"
				},
				{
					"inputs": [
						{
							"internalType": "uint256",
							"name": "",
							"type": "uint256"
						}
					],
					"name": "list",
					"outputs": [
						{
							"internalType": "string",
							"name": "",
							"type": "string"
						}
					],
					"stateMutability": "view",
					"type": "function"
				},
				{
					"inputs": [],
					"name": "modifyArray",
					"outputs": [],
					"stateMutability": "nonpayable",
					"type": "function"
				}
			],
			"devdoc": {
				"kind": "dev",
				"methods": {},
				"version": 1
			},
			"evm": {
				"assembly": "    /* \"contracts/Lesson4Types.sol\":58:262  contract Array4Lesson {... */\n  mstore(0x40, 0x80)\n    /* \"contracts/Lesson4Types.sol\":91:126  uint[10] public items = [10, 20, 1] */\n  mload(0x40)\n  dup1\n  0x60\n  add\n  0x40\n  mstore\n  dup1\n    /* \"contracts/Lesson4Types.sol\":116:118  10 */\n  0x0a\n    /* \"contracts/Lesson4Types.sol\":91:126  uint[10] public items = [10, 20, 1] */\n  0xff\n  and\n  dup2\n  mstore\n  0x20\n  add\n    /* \"contracts/Lesson4Types.sol\":120:122  20 */\n  0x14\n    /* \"contracts/Lesson4Types.sol\":91:126  uint[10] public items = [10, 20, 1] */\n  0xff\n  and\n  dup2\n  mstore\n  0x20\n  add\n    /* \"contracts/Lesson4Types.sol\":124:125  1 */\n  0x01\n    /* \"contracts/Lesson4Types.sol\":91:126  uint[10] public items = [10, 20, 1] */\n  0xff\n  and\n  dup2\n  mstore\n  pop\n  0x00\n  swap1\n  0x03\n  tag_1\n  swap3\n  swap2\n  swap1\n  tag_2\n  jump\t// in\ntag_1:\n  pop\n    /* \"contracts/Lesson4Types.sol\":58:262  contract Array4Lesson {... */\n  callvalue\n  dup1\n  iszero\n  tag_3\n  jumpi\n  0x00\n  dup1\n  revert\ntag_3:\n  pop\n  jump(tag_4)\ntag_2:\n  dup3\n  0x0a\n  dup2\n  add\n  swap3\n  dup3\n  iszero\n  tag_5\n  jumpi\n  swap2\n  0x20\n  mul\n  dup3\n  add\ntag_6:\n  dup3\n  dup2\n  gt\n  iszero\n  tag_7\n  jumpi\n  dup3\n  mload\n  dup3\n  swap1\n  0xff\n  and\n  swap1\n  sstore\n  swap2\n  0x20\n  add\n  swap2\n  swap1\n  0x01\n  add\n  swap1\n  jump(tag_6)\ntag_7:\ntag_5:\n  pop\n  swap1\n  pop\n  tag_8\n  swap2\n  swap1\n  tag_9\n  jump\t// in\ntag_8:\n  pop\n  swap1\n  jump\t// out\ntag_9:\ntag_10:\n  dup1\n  dup3\n  gt\n  iszero\n  tag_11\n  jumpi\n  0x00\n  dup2\n  0x00\n  swap1\n  sstore\n  pop\n  0x01\n  add\n  jump(tag_10)\ntag_11:\n  pop\n  swap1\n  jump\t// out\ntag_4:\n  dataSize(sub_0)\n  dup1\n  dataOffset(sub_0)\n  0x00\n  codecopy\n  0x00\n  return\nstop\n\nsub_0: assembly {\n        /* \"contracts/Lesson4Types.sol\":58:262  contract Array4Lesson {... */\n      mstore(0x40, 0x80)\n      callvalue\n      dup1\n      iszero\n      tag_1\n      jumpi\n      0x00\n      dup1\n      revert\n    tag_1:\n      pop\n      jumpi(tag_2, lt(calldatasize, 0x04))\n      shr(0xe0, calldataload(0x00))\n      dup1\n      0x304acd68\n      eq\n      tag_3\n      jumpi\n      dup1\n      0x80c9419e\n      eq\n      tag_4\n      jumpi\n      dup1\n      0xbfb231d2\n      eq\n      tag_5\n      jumpi\n    tag_2:\n      0x00\n      dup1\n      revert\n        /* \"contracts/Lesson4Types.sol\":161:260  function modifyArray() public {... */\n    tag_3:\n      tag_6\n      tag_7\n      jump\t// in\n    tag_6:\n      stop\n        /* \"contracts/Lesson4Types.sol\":132:153  string[2] public list */\n    tag_4:\n      tag_8\n      0x04\n      dup1\n      calldatasize\n      sub\n      dup2\n      add\n      swap1\n      tag_9\n      swap2\n      swap1\n      tag_10\n      jump\t// in\n    tag_9:\n      tag_11\n      jump\t// in\n    tag_8:\n      mload(0x40)\n      tag_12\n      swap2\n      swap1\n      tag_13\n      jump\t// in\n    tag_12:\n      mload(0x40)\n      dup1\n      swap2\n      sub\n      swap1\n      return\n        /* \"contracts/Lesson4Types.sol\":91:126  uint[10] public items = [10, 20, 1] */\n    tag_5:\n      tag_14\n      0x04\n      dup1\n      calldatasize\n      sub\n      dup2\n      add\n      swap1\n      tag_15\n      swap2\n      swap1\n      tag_10\n      jump\t// in\n    tag_15:\n      tag_16\n      jump\t// in\n    tag_14:\n      mload(0x40)\n      tag_17\n      swap2\n      swap1\n      tag_18\n      jump\t// in\n    tag_17:\n      mload(0x40)\n      dup1\n      swap2\n      sub\n      swap1\n      return\n        /* \"contracts/Lesson4Types.sol\":161:260  function modifyArray() public {... */\n    tag_7:\n        /* \"contracts/Lesson4Types.sol\":223:224  5 */\n      0x05\n        /* \"contracts/Lesson4Types.sol\":212:217  items */\n      0x00\n        /* \"contracts/Lesson4Types.sol\":218:219  0 */\n      dup1\n        /* \"contracts/Lesson4Types.sol\":212:220  items[0] */\n      0x0a\n      dup2\n      lt\n      tag_20\n      jumpi\n      tag_21\n      tag_22\n      jump\t// in\n    tag_21:\n    tag_20:\n      add\n      sload\n        /* \"contracts/Lesson4Types.sol\":212:224  items[0] * 5 */\n      tag_24\n      swap2\n      swap1\n      tag_25\n      jump\t// in\n    tag_24:\n        /* \"contracts/Lesson4Types.sol\":201:206  items */\n      0x00\n        /* \"contracts/Lesson4Types.sol\":207:208  0 */\n      dup1\n        /* \"contracts/Lesson4Types.sol\":201:209  items[0] */\n      0x0a\n      dup2\n      lt\n      tag_26\n      jumpi\n      tag_27\n      tag_22\n      jump\t// in\n    tag_27:\n    tag_26:\n      add\n        /* \"contracts/Lesson4Types.sol\":201:224  items[0] = items[0] * 5 */\n      dup2\n      swap1\n      sstore\n      pop\n        /* \"contracts/Lesson4Types.sol\":245:250  items */\n      0x00\n        /* \"contracts/Lesson4Types.sol\":251:252  0 */\n      dup1\n        /* \"contracts/Lesson4Types.sol\":245:253  items[0] */\n      0x0a\n      dup2\n      lt\n      tag_29\n      jumpi\n      tag_30\n      tag_22\n      jump\t// in\n    tag_30:\n    tag_29:\n      add\n      sload\n        /* \"contracts/Lesson4Types.sol\":234:239  items */\n      0x00\n        /* \"contracts/Lesson4Types.sol\":240:241  5 */\n      0x05\n        /* \"contracts/Lesson4Types.sol\":234:242  items[5] */\n      0x0a\n      dup2\n      lt\n      tag_32\n      jumpi\n      tag_33\n      tag_22\n      jump\t// in\n    tag_33:\n    tag_32:\n      add\n        /* \"contracts/Lesson4Types.sol\":234:253  items[5] = items[0] */\n      dup2\n      swap1\n      sstore\n      pop\n        /* \"contracts/Lesson4Types.sol\":161:260  function modifyArray() public {... */\n      jump\t// out\n        /* \"contracts/Lesson4Types.sol\":132:153  string[2] public list */\n    tag_11:\n      0x0a\n      dup2\n      0x02\n      dup2\n      lt\n      tag_35\n      jumpi\n      0x00\n      dup1\n      revert\n    tag_35:\n      add\n      0x00\n      swap2\n      pop\n      swap1\n      pop\n      dup1\n      sload\n      tag_37\n      swap1\n      tag_38\n      jump\t// in\n    tag_37:\n      dup1\n      0x1f\n      add\n      0x20\n      dup1\n      swap2\n      div\n      mul\n      0x20\n      add\n      mload(0x40)\n      swap1\n      dup2\n      add\n      0x40\n      mstore\n      dup1\n      swap3\n      swap2\n      swap1\n      dup2\n      dup2\n      mstore\n      0x20\n      add\n      dup3\n      dup1\n      sload\n      tag_39\n      swap1\n      tag_38\n      jump\t// in\n    tag_39:\n      dup1\n      iszero\n      tag_40\n      jumpi\n      dup1\n      0x1f\n      lt\n      tag_41\n      jumpi\n      0x0100\n      dup1\n      dup4\n      sload\n      div\n      mul\n      dup4\n      mstore\n      swap2\n      0x20\n      add\n      swap2\n      jump(tag_40)\n    tag_41:\n      dup3\n      add\n      swap2\n      swap1\n      0x00\n      mstore\n      keccak256(0x00, 0x20)\n      swap1\n    tag_42:\n      dup2\n      sload\n      dup2\n      mstore\n      swap1\n      0x01\n      add\n      swap1\n      0x20\n      add\n      dup1\n      dup4\n      gt\n      tag_42\n      jumpi\n      dup3\n      swap1\n      sub\n      0x1f\n      and\n      dup3\n      add\n      swap2\n    tag_40:\n      pop\n      pop\n      pop\n      pop\n      pop\n      dup2\n      jump\t// out\n        /* \"contracts/Lesson4Types.sol\":91:126  uint[10] public items = [10, 20, 1] */\n    tag_16:\n      0x00\n      dup2\n      0x0a\n      dup2\n      lt\n      tag_43\n      jumpi\n      0x00\n      dup1\n      revert\n    tag_43:\n      add\n      0x00\n      swap2\n      pop\n      swap1\n      pop\n      sload\n      dup2\n      jump\t// out\n        /* \"#utility.yul\":7:146   */\n    tag_46:\n        /* \"#utility.yul\":53:58   */\n      0x00\n        /* \"#utility.yul\":91:97   */\n      dup2\n        /* \"#utility.yul\":78:98   */\n      calldataload\n        /* \"#utility.yul\":69:98   */\n      swap1\n      pop\n        /* \"#utility.yul\":107:140   */\n      tag_48\n        /* \"#utility.yul\":134:139   */\n      dup2\n        /* \"#utility.yul\":107:140   */\n      tag_49\n      jump\t// in\n    tag_48:\n        /* \"#utility.yul\":7:146   */\n      swap3\n      swap2\n      pop\n      pop\n      jump\t// out\n        /* \"#utility.yul\":152:481   */\n    tag_10:\n        /* \"#utility.yul\":211:217   */\n      0x00\n        /* \"#utility.yul\":260:262   */\n      0x20\n        /* \"#utility.yul\":248:257   */\n      dup3\n        /* \"#utility.yul\":239:246   */\n      dup5\n        /* \"#utility.yul\":235:258   */\n      sub\n        /* \"#utility.yul\":231:263   */\n      slt\n        /* \"#utility.yul\":228:347   */\n      iszero\n      tag_51\n      jumpi\n        /* \"#utility.yul\":266:345   */\n      tag_52\n      tag_53\n      jump\t// in\n    tag_52:\n        /* \"#utility.yul\":228:347   */\n    tag_51:\n        /* \"#utility.yul\":386:387   */\n      0x00\n        /* \"#utility.yul\":411:464   */\n      tag_54\n        /* \"#utility.yul\":456:463   */\n      dup5\n        /* \"#utility.yul\":447:453   */\n      dup3\n        /* \"#utility.yul\":436:445   */\n      dup6\n        /* \"#utility.yul\":432:454   */\n      add\n        /* \"#utility.yul\":411:464   */\n      tag_46\n      jump\t// in\n    tag_54:\n        /* \"#utility.yul\":401:464   */\n      swap2\n      pop\n        /* \"#utility.yul\":357:474   */\n      pop\n        /* \"#utility.yul\":152:481   */\n      swap3\n      swap2\n      pop\n      pop\n      jump\t// out\n        /* \"#utility.yul\":487:851   */\n    tag_55:\n        /* \"#utility.yul\":575:578   */\n      0x00\n        /* \"#utility.yul\":603:642   */\n      tag_57\n        /* \"#utility.yul\":636:641   */\n      dup3\n        /* \"#utility.yul\":603:642   */\n      tag_58\n      jump\t// in\n    tag_57:\n        /* \"#utility.yul\":658:729   */\n      tag_59\n        /* \"#utility.yul\":722:728   */\n      dup2\n        /* \"#utility.yul\":717:720   */\n      dup6\n        /* \"#utility.yul\":658:729   */\n      tag_60\n      jump\t// in\n    tag_59:\n        /* \"#utility.yul\":651:729   */\n      swap4\n      pop\n        /* \"#utility.yul\":738:790   */\n      tag_61\n        /* \"#utility.yul\":783:789   */\n      dup2\n        /* \"#utility.yul\":778:781   */\n      dup6\n        /* \"#utility.yul\":771:775   */\n      0x20\n        /* \"#utility.yul\":764:769   */\n      dup7\n        /* \"#utility.yul\":760:776   */\n      add\n        /* \"#utility.yul\":738:790   */\n      tag_62\n      jump\t// in\n    tag_61:\n        /* \"#utility.yul\":815:844   */\n      tag_63\n        /* \"#utility.yul\":837:843   */\n      dup2\n        /* \"#utility.yul\":815:844   */\n      tag_64\n      jump\t// in\n    tag_63:\n        /* \"#utility.yul\":810:813   */\n      dup5\n        /* \"#utility.yul\":806:845   */\n      add\n        /* \"#utility.yul\":799:845   */\n      swap2\n      pop\n        /* \"#utility.yul\":579:851   */\n      pop\n        /* \"#utility.yul\":487:851   */\n      swap3\n      swap2\n      pop\n      pop\n      jump\t// out\n        /* \"#utility.yul\":857:975   */\n    tag_65:\n        /* \"#utility.yul\":944:968   */\n      tag_67\n        /* \"#utility.yul\":962:967   */\n      dup2\n        /* \"#utility.yul\":944:968   */\n      tag_68\n      jump\t// in\n    tag_67:\n        /* \"#utility.yul\":939:942   */\n      dup3\n        /* \"#utility.yul\":932:969   */\n      mstore\n        /* \"#utility.yul\":857:975   */\n      pop\n      pop\n      jump\t// out\n        /* \"#utility.yul\":981:1294   */\n    tag_13:\n        /* \"#utility.yul\":1094:1098   */\n      0x00\n        /* \"#utility.yul\":1132:1134   */\n      0x20\n        /* \"#utility.yul\":1121:1130   */\n      dup3\n        /* \"#utility.yul\":1117:1135   */\n      add\n        /* \"#utility.yul\":1109:1135   */\n      swap1\n      pop\n        /* \"#utility.yul\":1181:1190   */\n      dup2\n        /* \"#utility.yul\":1175:1179   */\n      dup2\n        /* \"#utility.yul\":1171:1191   */\n      sub\n        /* \"#utility.yul\":1167:1168   */\n      0x00\n        /* \"#utility.yul\":1156:1165   */\n      dup4\n        /* \"#utility.yul\":1152:1169   */\n      add\n        /* \"#utility.yul\":1145:1192   */\n      mstore\n        /* \"#utility.yul\":1209:1287   */\n      tag_70\n        /* \"#utility.yul\":1282:1286   */\n      dup2\n        /* \"#utility.yul\":1273:1279   */\n      dup5\n        /* \"#utility.yul\":1209:1287   */\n      tag_55\n      jump\t// in\n    tag_70:\n        /* \"#utility.yul\":1201:1287   */\n      swap1\n      pop\n        /* \"#utility.yul\":981:1294   */\n      swap3\n      swap2\n      pop\n      pop\n      jump\t// out\n        /* \"#utility.yul\":1300:1522   */\n    tag_18:\n        /* \"#utility.yul\":1393:1397   */\n      0x00\n        /* \"#utility.yul\":1431:1433   */\n      0x20\n        /* \"#utility.yul\":1420:1429   */\n      dup3\n        /* \"#utility.yul\":1416:1434   */\n      add\n        /* \"#utility.yul\":1408:1434   */\n      swap1\n      pop\n        /* \"#utility.yul\":1444:1515   */\n      tag_72\n        /* \"#utility.yul\":1512:1513   */\n      0x00\n        /* \"#utility.yul\":1501:1510   */\n      dup4\n        /* \"#utility.yul\":1497:1514   */\n      add\n        /* \"#utility.yul\":1488:1494   */\n      dup5\n        /* \"#utility.yul\":1444:1515   */\n      tag_65\n      jump\t// in\n    tag_72:\n        /* \"#utility.yul\":1300:1522   */\n      swap3\n      swap2\n      pop\n      pop\n      jump\t// out\n        /* \"#utility.yul\":1609:1708   */\n    tag_58:\n        /* \"#utility.yul\":1661:1667   */\n      0x00\n        /* \"#utility.yul\":1695:1700   */\n      dup2\n        /* \"#utility.yul\":1689:1701   */\n      mload\n        /* \"#utility.yul\":1679:1701   */\n      swap1\n      pop\n        /* \"#utility.yul\":1609:1708   */\n      swap2\n      swap1\n      pop\n      jump\t// out\n        /* \"#utility.yul\":1714:1883   */\n    tag_60:\n        /* \"#utility.yul\":1798:1809   */\n      0x00\n        /* \"#utility.yul\":1832:1838   */\n      dup3\n        /* \"#utility.yul\":1827:1830   */\n      dup3\n        /* \"#utility.yul\":1820:1839   */\n      mstore\n        /* \"#utility.yul\":1872:1876   */\n      0x20\n        /* \"#utility.yul\":1867:1870   */\n      dup3\n        /* \"#utility.yul\":1863:1877   */\n      add\n        /* \"#utility.yul\":1848:1877   */\n      swap1\n      pop\n        /* \"#utility.yul\":1714:1883   */\n      swap3\n      swap2\n      pop\n      pop\n      jump\t// out\n        /* \"#utility.yul\":1889:2237   */\n    tag_25:\n        /* \"#utility.yul\":1929:1936   */\n      0x00\n        /* \"#utility.yul\":1952:1972   */\n      tag_78\n        /* \"#utility.yul\":1970:1971   */\n      dup3\n        /* \"#utility.yul\":1952:1972   */\n      tag_68\n      jump\t// in\n    tag_78:\n        /* \"#utility.yul\":1947:1972   */\n      swap2\n      pop\n        /* \"#utility.yul\":1986:2006   */\n      tag_79\n        /* \"#utility.yul\":2004:2005   */\n      dup4\n        /* \"#utility.yul\":1986:2006   */\n      tag_68\n      jump\t// in\n    tag_79:\n        /* \"#utility.yul\":1981:2006   */\n      swap3\n      pop\n        /* \"#utility.yul\":2174:2175   */\n      dup2\n        /* \"#utility.yul\":2106:2172   */\n      0xffffffffffffffffffffffffffffffffffffffffffffffffffffffffffffffff\n        /* \"#utility.yul\":2102:2176   */\n      div\n        /* \"#utility.yul\":2099:2100   */\n      dup4\n        /* \"#utility.yul\":2096:2177   */\n      gt\n        /* \"#utility.yul\":2091:2092   */\n      dup3\n        /* \"#utility.yul\":2084:2093   */\n      iszero\n        /* \"#utility.yul\":2077:2094   */\n      iszero\n        /* \"#utility.yul\":2073:2178   */\n      and\n        /* \"#utility.yul\":2070:2201   */\n      iszero\n      tag_80\n      jumpi\n        /* \"#utility.yul\":2181:2199   */\n      tag_81\n      tag_82\n      jump\t// in\n    tag_81:\n        /* \"#utility.yul\":2070:2201   */\n    tag_80:\n        /* \"#utility.yul\":2229:2230   */\n      dup3\n        /* \"#utility.yul\":2226:2227   */\n      dup3\n        /* \"#utility.yul\":2222:2231   */\n      mul\n        /* \"#utility.yul\":2211:2231   */\n      swap1\n      pop\n        /* \"#utility.yul\":1889:2237   */\n      swap3\n      swap2\n      pop\n      pop\n      jump\t// out\n        /* \"#utility.yul\":2243:2320   */\n    tag_68:\n        /* \"#utility.yul\":2280:2287   */\n      0x00\n        /* \"#utility.yul\":2309:2314   */\n      dup2\n        /* \"#utility.yul\":2298:2314   */\n      swap1\n      pop\n        /* \"#utility.yul\":2243:2320   */\n      swap2\n      swap1\n      pop\n      jump\t// out\n        /* \"#utility.yul\":2326:2633   */\n    tag_62:\n        /* \"#utility.yul\":2394:2395   */\n      0x00\n        /* \"#utility.yul\":2404:2517   */\n    tag_85:\n        /* \"#utility.yul\":2418:2424   */\n      dup4\n        /* \"#utility.yul\":2415:2416   */\n      dup2\n        /* \"#utility.yul\":2412:2425   */\n      lt\n        /* \"#utility.yul\":2404:2517   */\n      iszero\n      tag_87\n      jumpi\n        /* \"#utility.yul\":2503:2504   */\n      dup1\n        /* \"#utility.yul\":2498:2501   */\n      dup3\n        /* \"#utility.yul\":2494:2505   */\n      add\n        /* \"#utility.yul\":2488:2506   */\n      mload\n        /* \"#utility.yul\":2484:2485   */\n      dup2\n        /* \"#utility.yul\":2479:2482   */\n      dup5\n        /* \"#utility.yul\":2475:2486   */\n      add\n        /* \"#utility.yul\":2468:2507   */\n      mstore\n        /* \"#utility.yul\":2440:2442   */\n      0x20\n        /* \"#utility.yul\":2437:2438   */\n      dup2\n        /* \"#utility.yul\":2433:2443   */\n      add\n        /* \"#utility.yul\":2428:2443   */\n      swap1\n      pop\n        /* \"#utility.yul\":2404:2517   */\n      jump(tag_85)\n    tag_87:\n        /* \"#utility.yul\":2535:2541   */\n      dup4\n        /* \"#utility.yul\":2532:2533   */\n      dup2\n        /* \"#utility.yul\":2529:2542   */\n      gt\n        /* \"#utility.yul\":2526:2627   */\n      iszero\n      tag_88\n      jumpi\n        /* \"#utility.yul\":2615:2616   */\n      0x00\n        /* \"#utility.yul\":2606:2612   */\n      dup5\n        /* \"#utility.yul\":2601:2604   */\n      dup5\n        /* \"#utility.yul\":2597:2613   */\n      add\n        /* \"#utility.yul\":2590:2617   */\n      mstore\n        /* \"#utility.yul\":2526:2627   */\n    tag_88:\n        /* \"#utility.yul\":2375:2633   */\n      pop\n        /* \"#utility.yul\":2326:2633   */\n      pop\n      pop\n      pop\n      jump\t// out\n        /* \"#utility.yul\":2639:2959   */\n    tag_38:\n        /* \"#utility.yul\":2683:2689   */\n      0x00\n        /* \"#utility.yul\":2720:2721   */\n      0x02\n        /* \"#utility.yul\":2714:2718   */\n      dup3\n        /* \"#utility.yul\":2710:2722   */\n      div\n        /* \"#utility.yul\":2700:2722   */\n      swap1\n      pop\n        /* \"#utility.yul\":2767:2768   */\n      0x01\n        /* \"#utility.yul\":2761:2765   */\n      dup3\n        /* \"#utility.yul\":2757:2769   */\n      and\n        /* \"#utility.yul\":2788:2806   */\n      dup1\n        /* \"#utility.yul\":2778:2859   */\n      tag_90\n      jumpi\n        /* \"#utility.yul\":2844:2848   */\n      0x7f\n        /* \"#utility.yul\":2836:2842   */\n      dup3\n        /* \"#utility.yul\":2832:2849   */\n      and\n        /* \"#utility.yul\":2822:2849   */\n      swap2\n      pop\n        /* \"#utility.yul\":2778:2859   */\n    tag_90:\n        /* \"#utility.yul\":2906:2908   */\n      0x20\n        /* \"#utility.yul\":2898:2904   */\n      dup3\n        /* \"#utility.yul\":2895:2909   */\n      lt\n        /* \"#utility.yul\":2875:2893   */\n      dup2\n        /* \"#utility.yul\":2872:2910   */\n      eq\n        /* \"#utility.yul\":2869:2953   */\n      iszero\n      tag_91\n      jumpi\n        /* \"#utility.yul\":2925:2943   */\n      tag_92\n      tag_93\n      jump\t// in\n    tag_92:\n        /* \"#utility.yul\":2869:2953   */\n    tag_91:\n        /* \"#utility.yul\":2690:2959   */\n      pop\n        /* \"#utility.yul\":2639:2959   */\n      swap2\n      swap1\n      pop\n      jump\t// out\n        /* \"#utility.yul\":2965:3145   */\n    tag_82:\n        /* \"#utility.yul\":3013:3090   */\n      0x4e487b7100000000000000000000000000000000000000000000000000000000\n        /* \"#utility.yul\":3010:3011   */\n      0x00\n        /* \"#utility.yul\":3003:3091   */\n      mstore\n        /* \"#utility.yul\":3110:3114   */\n      0x11\n        /* \"#utility.yul\":3107:3108   */\n      0x04\n        /* \"#utility.yul\":3100:3115   */\n      mstore\n        /* \"#utility.yul\":3134:3138   */\n      0x24\n        /* \"#utility.yul\":3131:3132   */\n      0x00\n        /* \"#utility.yul\":3124:3139   */\n      revert\n        /* \"#utility.yul\":3151:3331   */\n    tag_93:\n        /* \"#utility.yul\":3199:3276   */\n      0x4e487b7100000000000000000000000000000000000000000000000000000000\n        /* \"#utility.yul\":3196:3197   */\n      0x00\n        /* \"#utility.yul\":3189:3277   */\n      mstore\n        /* \"#utility.yul\":3296:3300   */\n      0x22\n        /* \"#utility.yul\":3293:3294   */\n      0x04\n        /* \"#utility.yul\":3286:3301   */\n      mstore\n        /* \"#utility.yul\":3320:3324   */\n      0x24\n        /* \"#utility.yul\":3317:3318   */\n      0x00\n        /* \"#utility.yul\":3310:3325   */\n      revert\n        /* \"#utility.yul\":3337:3517   */\n    tag_22:\n        /* \"#utility.yul\":3385:3462   */\n      0x4e487b7100000000000000000000000000000000000000000000000000000000\n        /* \"#utility.yul\":3382:3383   */\n      0x00\n        /* \"#utility.yul\":3375:3463   */\n      mstore\n        /* \"#utility.yul\":3482:3486   */\n      0x32\n        /* \"#utility.yul\":3479:3480   */\n      0x04\n        /* \"#utility.yul\":3472:3487   */\n      mstore\n        /* \"#utility.yul\":3506:3510   */\n      0x24\n        /* \"#utility.yul\":3503:3504   */\n      0x00\n        /* \"#utility.yul\":3496:3511   */\n      revert\n        /* \"#utility.yul\":3646:3763   */\n    tag_53:\n        /* \"#utility.yul\":3755:3756   */\n      0x00\n        /* \"#utility.yul\":3752:3753   */\n      dup1\n        /* \"#utility.yul\":3745:3757   */\n      revert\n        /* \"#utility.yul\":3769:3871   */\n    tag_64:\n        /* \"#utility.yul\":3810:3816   */\n      0x00\n        /* \"#utility.yul\":3861:3863   */\n      0x1f\n        /* \"#utility.yul\":3857:3864   */\n      not\n        /* \"#utility.yul\":3852:3854   */\n      0x1f\n        /* \"#utility.yul\":3845:3850   */\n      dup4\n        /* \"#utility.yul\":3841:3855   */\n      add\n        /* \"#utility.yul\":3837:3865   */\n      and\n        /* \"#utility.yul\":3827:3865   */\n      swap1\n      pop\n        /* \"#utility.yul\":3769:3871   */\n      swap2\n      swap1\n      pop\n      jump\t// out\n        /* \"#utility.yul\":3877:3999   */\n    tag_49:\n        /* \"#utility.yul\":3950:3974   */\n      tag_102\n        /* \"#utility.yul\":3968:3973   */\n      dup2\n        /* \"#utility.yul\":3950:3974   */\n      tag_68\n      jump\t// in\n    tag_102:\n        /* \"#utility.yul\":3943:3948   */\n      dup2\n        /* \"#utility.yul\":3940:3975   */\n      eq\n        /* \"#utility.yul\":3930:3993   */\n      tag_103\n      jumpi\n        /* \"#utility.yul\":3989:3990   */\n      0x00\n        /* \"#utility.yul\":3986:3987   */\n      dup1\n        /* \"#utility.yul\":3979:3991   */\n      revert\n        /* \"#utility.yul\":3930:3993   */\n    tag_103:\n        /* \"#utility.yul\":3877:3999   */\n      pop\n      jump\t// out\n\n    auxdata: 0xa264697066735822122046437ac8af6d8b547e1e37db55a5353f77602d31f35aff1369fbca7cc05bae7764736f6c63430008070033\n}\n",
				"bytecode": {
					"linkReferences": {},
					"object": "60806040526040518060600160405280600a60ff168152602001601460ff168152602001600160ff16815250600090600361003b92919061004e565b5034801561004857600080fd5b506100b0565b82600a8101928215610082579160200282015b82811115610081578251829060ff16905591602001919060010190610061565b5b50905061008f9190610093565b5090565b5b808211156100ac576000816000905550600101610094565b5090565b610477806100bf6000396000f3fe608060405234801561001057600080fd5b50600436106100415760003560e01c8063304acd681461004657806380c9419e14610050578063bfb231d214610080575b600080fd5b61004e6100b0565b005b61006a600480360381019061006591906101f0565b61011d565b6040516100779190610265565b60405180910390f35b61009a600480360381019061009591906101f0565b6101c0565b6040516100a79190610287565b60405180910390f35b6005600080600a81106100c6576100c56103e5565b5b01546100d291906102be565b600080600a81106100e6576100e56103e5565b5b0181905550600080600a81106100ff576100fe6103e5565b5b015460006005600a8110610116576101156103e5565b5b0181905550565b600a816002811061012d57600080fd5b01600091509050805461013f90610355565b80601f016020809104026020016040519081016040528092919081815260200182805461016b90610355565b80156101b85780601f1061018d576101008083540402835291602001916101b8565b820191906000526020600020905b81548152906001019060200180831161019b57829003601f168201915b505050505081565b600081600a81106101d057600080fd5b016000915090505481565b6000813590506101ea8161042a565b92915050565b60006020828403121561020657610205610414565b5b6000610214848285016101db565b91505092915050565b6000610228826102a2565b61023281856102ad565b9350610242818560208601610322565b61024b81610419565b840191505092915050565b61025f81610318565b82525050565b6000602082019050818103600083015261027f818461021d565b905092915050565b600060208201905061029c6000830184610256565b92915050565b600081519050919050565b600082825260208201905092915050565b60006102c982610318565b91506102d483610318565b9250817fffffffffffffffffffffffffffffffffffffffffffffffffffffffffffffffff048311821515161561030d5761030c610387565b5b828202905092915050565b6000819050919050565b60005b83811015610340578082015181840152602081019050610325565b8381111561034f576000848401525b50505050565b6000600282049050600182168061036d57607f821691505b60208210811415610381576103806103b6565b5b50919050565b7f4e487b7100000000000000000000000000000000000000000000000000000000600052601160045260246000fd5b7f4e487b7100000000000000000000000000000000000000000000000000000000600052602260045260246000fd5b7f4e487b7100000000000000000000000000000000000000000000000000000000600052603260045260246000fd5b600080fd5b6000601f19601f8301169050919050565b61043381610318565b811461043e57600080fd5b5056fea264697066735822122046437ac8af6d8b547e1e37db55a5353f77602d31f35aff1369fbca7cc05bae7764736f6c63430008070033",
					"opcodes": "PUSH1 0x80 PUSH1 0x40 MSTORE PUSH1 0x40 MLOAD DUP1 PUSH1 0x60 ADD PUSH1 0x40 MSTORE DUP1 PUSH1 0xA PUSH1 0xFF AND DUP2 MSTORE PUSH1 0x20 ADD PUSH1 0x14 PUSH1 0xFF AND DUP2 MSTORE PUSH1 0x20 ADD PUSH1 0x1 PUSH1 0xFF AND DUP2 MSTORE POP PUSH1 0x0 SWAP1 PUSH1 0x3 PUSH2 0x3B SWAP3 SWAP2 SWAP1 PUSH2 0x4E JUMP JUMPDEST POP CALLVALUE DUP1 ISZERO PUSH2 0x48 JUMPI PUSH1 0x0 DUP1 REVERT JUMPDEST POP PUSH2 0xB0 JUMP JUMPDEST DUP3 PUSH1 0xA DUP2 ADD SWAP3 DUP3 ISZERO PUSH2 0x82 JUMPI SWAP2 PUSH1 0x20 MUL DUP3 ADD JUMPDEST DUP3 DUP2 GT ISZERO PUSH2 0x81 JUMPI DUP3 MLOAD DUP3 SWAP1 PUSH1 0xFF AND SWAP1 SSTORE SWAP2 PUSH1 0x20 ADD SWAP2 SWAP1 PUSH1 0x1 ADD SWAP1 PUSH2 0x61 JUMP JUMPDEST JUMPDEST POP SWAP1 POP PUSH2 0x8F SWAP2 SWAP1 PUSH2 0x93 JUMP JUMPDEST POP SWAP1 JUMP JUMPDEST JUMPDEST DUP1 DUP3 GT ISZERO PUSH2 0xAC JUMPI PUSH1 0x0 DUP2 PUSH1 0x0 SWAP1 SSTORE POP PUSH1 0x1 ADD PUSH2 0x94 JUMP JUMPDEST POP SWAP1 JUMP JUMPDEST PUSH2 0x477 DUP1 PUSH2 0xBF PUSH1 0x0 CODECOPY PUSH1 0x0 RETURN INVALID PUSH1 0x80 PUSH1 0x40 MSTORE CALLVALUE DUP1 ISZERO PUSH2 0x10 JUMPI PUSH1 0x0 DUP1 REVERT JUMPDEST POP PUSH1 0x4 CALLDATASIZE LT PUSH2 0x41 JUMPI PUSH1 0x0 CALLDATALOAD PUSH1 0xE0 SHR DUP1 PUSH4 0x304ACD68 EQ PUSH2 0x46 JUMPI DUP1 PUSH4 0x80C9419E EQ PUSH2 0x50 JUMPI DUP1 PUSH4 0xBFB231D2 EQ PUSH2 0x80 JUMPI JUMPDEST PUSH1 0x0 DUP1 REVERT JUMPDEST PUSH2 0x4E PUSH2 0xB0 JUMP JUMPDEST STOP JUMPDEST PUSH2 0x6A PUSH1 0x4 DUP1 CALLDATASIZE SUB DUP2 ADD SWAP1 PUSH2 0x65 SWAP2 SWAP1 PUSH2 0x1F0 JUMP JUMPDEST PUSH2 0x11D JUMP JUMPDEST PUSH1 0x40 MLOAD PUSH2 0x77 SWAP2 SWAP1 PUSH2 0x265 JUMP JUMPDEST PUSH1 0x40 MLOAD DUP1 SWAP2 SUB SWAP1 RETURN JUMPDEST PUSH2 0x9A PUSH1 0x4 DUP1 CALLDATASIZE SUB DUP2 ADD SWAP1 PUSH2 0x95 SWAP2 SWAP1 PUSH2 0x1F0 JUMP JUMPDEST PUSH2 0x1C0 JUMP JUMPDEST PUSH1 0x40 MLOAD PUSH2 0xA7 SWAP2 SWAP1 PUSH2 0x287 JUMP JUMPDEST PUSH1 0x40 MLOAD DUP1 SWAP2 SUB SWAP1 RETURN JUMPDEST PUSH1 0x5 PUSH1 0x0 DUP1 PUSH1 0xA DUP2 LT PUSH2 0xC6 JUMPI PUSH2 0xC5 PUSH2 0x3E5 JUMP JUMPDEST JUMPDEST ADD SLOAD PUSH2 0xD2 SWAP2 SWAP1 PUSH2 0x2BE JUMP JUMPDEST PUSH1 0x0 DUP1 PUSH1 0xA DUP2 LT PUSH2 0xE6 JUMPI PUSH2 0xE5 PUSH2 0x3E5 JUMP JUMPDEST JUMPDEST ADD DUP2 SWAP1 SSTORE POP PUSH1 0x0 DUP1 PUSH1 0xA DUP2 LT PUSH2 0xFF JUMPI PUSH2 0xFE PUSH2 0x3E5 JUMP JUMPDEST JUMPDEST ADD SLOAD PUSH1 0x0 PUSH1 0x5 PUSH1 0xA DUP2 LT PUSH2 0x116 JUMPI PUSH2 0x115 PUSH2 0x3E5 JUMP JUMPDEST JUMPDEST ADD DUP2 SWAP1 SSTORE POP JUMP JUMPDEST PUSH1 0xA DUP2 PUSH1 0x2 DUP2 LT PUSH2 0x12D JUMPI PUSH1 0x0 DUP1 REVERT JUMPDEST ADD PUSH1 0x0 SWAP2 POP SWAP1 POP DUP1 SLOAD PUSH2 0x13F SWAP1 PUSH2 0x355 JUMP JUMPDEST DUP1 PUSH1 0x1F ADD PUSH1 0x20 DUP1 SWAP2 DIV MUL PUSH1 0x20 ADD PUSH1 0x40 MLOAD SWAP1 DUP2 ADD PUSH1 0x40 MSTORE DUP1 SWAP3 SWAP2 SWAP1 DUP2 DUP2 MSTORE PUSH1 0x20 ADD DUP3 DUP1 SLOAD PUSH2 0x16B SWAP1 PUSH2 0x355 JUMP JUMPDEST DUP1 ISZERO PUSH2 0x1B8 JUMPI DUP1 PUSH1 0x1F LT PUSH2 0x18D JUMPI PUSH2 0x100 DUP1 DUP4 SLOAD DIV MUL DUP4 MSTORE SWAP2 PUSH1 0x20 ADD SWAP2 PUSH2 0x1B8 JUMP JUMPDEST DUP3 ADD SWAP2 SWAP1 PUSH1 0x0 MSTORE PUSH1 0x20 PUSH1 0x0 KECCAK256 SWAP1 JUMPDEST DUP2 SLOAD DUP2 MSTORE SWAP1 PUSH1 0x1 ADD SWAP1 PUSH1 0x20 ADD DUP1 DUP4 GT PUSH2 0x19B JUMPI DUP3 SWAP1 SUB PUSH1 0x1F AND DUP3 ADD SWAP2 JUMPDEST POP POP POP POP POP DUP2 JUMP JUMPDEST PUSH1 0x0 DUP2 PUSH1 0xA DUP2 LT PUSH2 0x1D0 JUMPI PUSH1 0x0 DUP1 REVERT JUMPDEST ADD PUSH1 0x0 SWAP2 POP SWAP1 POP SLOAD DUP2 JUMP JUMPDEST PUSH1 0x0 DUP2 CALLDATALOAD SWAP1 POP PUSH2 0x1EA DUP2 PUSH2 0x42A JUMP JUMPDEST SWAP3 SWAP2 POP POP JUMP JUMPDEST PUSH1 0x0 PUSH1 0x20 DUP3 DUP5 SUB SLT ISZERO PUSH2 0x206 JUMPI PUSH2 0x205 PUSH2 0x414 JUMP JUMPDEST JUMPDEST PUSH1 0x0 PUSH2 0x214 DUP5 DUP3 DUP6 ADD PUSH2 0x1DB JUMP JUMPDEST SWAP2 POP POP SWAP3 SWAP2 POP POP JUMP JUMPDEST PUSH1 0x0 PUSH2 0x228 DUP3 PUSH2 0x2A2 JUMP JUMPDEST PUSH2 0x232 DUP2 DUP6 PUSH2 0x2AD JUMP JUMPDEST SWAP4 POP PUSH2 0x242 DUP2 DUP6 PUSH1 0x20 DUP7 ADD PUSH2 0x322 JUMP JUMPDEST PUSH2 0x24B DUP2 PUSH2 0x419 JUMP JUMPDEST DUP5 ADD SWAP2 POP POP SWAP3 SWAP2 POP POP JUMP JUMPDEST PUSH2 0x25F DUP2 PUSH2 0x318 JUMP JUMPDEST DUP3 MSTORE POP POP JUMP JUMPDEST PUSH1 0x0 PUSH1 0x20 DUP3 ADD SWAP1 POP DUP2 DUP2 SUB PUSH1 0x0 DUP4 ADD MSTORE PUSH2 0x27F DUP2 DUP5 PUSH2 0x21D JUMP JUMPDEST SWAP1 POP SWAP3 SWAP2 POP POP JUMP JUMPDEST PUSH1 0x0 PUSH1 0x20 DUP3 ADD SWAP1 POP PUSH2 0x29C PUSH1 0x0 DUP4 ADD DUP5 PUSH2 0x256 JUMP JUMPDEST SWAP3 SWAP2 POP POP JUMP JUMPDEST PUSH1 0x0 DUP2 MLOAD SWAP1 POP SWAP2 SWAP1 POP JUMP JUMPDEST PUSH1 0x0 DUP3 DUP3 MSTORE PUSH1 0x20 DUP3 ADD SWAP1 POP SWAP3 SWAP2 POP POP JUMP JUMPDEST PUSH1 0x0 PUSH2 0x2C9 DUP3 PUSH2 0x318 JUMP JUMPDEST SWAP2 POP PUSH2 0x2D4 DUP4 PUSH2 0x318 JUMP JUMPDEST SWAP3 POP DUP2 PUSH32 0xFFFFFFFFFFFFFFFFFFFFFFFFFFFFFFFFFFFFFFFFFFFFFFFFFFFFFFFFFFFFFFFF DIV DUP4 GT DUP3 ISZERO ISZERO AND ISZERO PUSH2 0x30D JUMPI PUSH2 0x30C PUSH2 0x387 JUMP JUMPDEST JUMPDEST DUP3 DUP3 MUL SWAP1 POP SWAP3 SWAP2 POP POP JUMP JUMPDEST PUSH1 0x0 DUP2 SWAP1 POP SWAP2 SWAP1 POP JUMP JUMPDEST PUSH1 0x0 JUMPDEST DUP4 DUP2 LT ISZERO PUSH2 0x340 JUMPI DUP1 DUP3 ADD MLOAD DUP2 DUP5 ADD MSTORE PUSH1 0x20 DUP2 ADD SWAP1 POP PUSH2 0x325 JUMP JUMPDEST DUP4 DUP2 GT ISZERO PUSH2 0x34F JUMPI PUSH1 0x0 DUP5 DUP5 ADD MSTORE JUMPDEST POP POP POP POP JUMP JUMPDEST PUSH1 0x0 PUSH1 0x2 DUP3 DIV SWAP1 POP PUSH1 0x1 DUP3 AND DUP1 PUSH2 0x36D JUMPI PUSH1 0x7F DUP3 AND SWAP2 POP JUMPDEST PUSH1 0x20 DUP3 LT DUP2 EQ ISZERO PUSH2 0x381 JUMPI PUSH2 0x380 PUSH2 0x3B6 JUMP JUMPDEST JUMPDEST POP SWAP2 SWAP1 POP JUMP JUMPDEST PUSH32 0x4E487B7100000000000000000000000000000000000000000000000000000000 PUSH1 0x0 MSTORE PUSH1 0x11 PUSH1 0x4 MSTORE PUSH1 0x24 PUSH1 0x0 REVERT JUMPDEST PUSH32 0x4E487B7100000000000000000000000000000000000000000000000000000000 PUSH1 0x0 MSTORE PUSH1 0x22 PUSH1 0x4 MSTORE PUSH1 0x24 PUSH1 0x0 REVERT JUMPDEST PUSH32 0x4E487B7100000000000000000000000000000000000000000000000000000000 PUSH1 0x0 MSTORE PUSH1 0x32 PUSH1 0x4 MSTORE PUSH1 0x24 PUSH1 0x0 REVERT JUMPDEST PUSH1 0x0 DUP1 REVERT JUMPDEST PUSH1 0x0 PUSH1 0x1F NOT PUSH1 0x1F DUP4 ADD AND SWAP1 POP SWAP2 SWAP1 POP JUMP JUMPDEST PUSH2 0x433 DUP2 PUSH2 0x318 JUMP JUMPDEST DUP2 EQ PUSH2 0x43E JUMPI PUSH1 0x0 DUP1 REVERT JUMPDEST POP JUMP INVALID LOG2 PUSH5 0x6970667358 0x22 SLT KECCAK256 CHAINID NUMBER PUSH27 0xC8AF6D8B547E1E37DB55A5353F77602D31F35AFF1369FBCA7CC05B 0xAE PUSH24 0x64736F6C6343000807003300000000000000000000000000 "
				},
				"gasEstimates": {
					"creation": {
						"codeDepositCost": "228600",
						"executionCost": "infinite",
						"totalCost": "infinite"
					},
					"external": {
						"items(uint256)": "infinite",
						"list(uint256)": "infinite",
						"modifyArray()": "infinite"
					}
				},
				"methodIdentifiers": {
					"items(uint256)": "bfb231d2",
					"list(uint256)": "80c9419e",
					"modifyArray()": "304acd68"
				}
			},
			"storageLayout": {
				"storage": [
					{
						"astId": 9,
						"contract": "contracts/Lesson4Types.sol:Array4Lesson",
						"label": "items",
						"offset": 0,
						"slot": "0",
						"type": "t_array(t_uint256)10_storage"
					},
					{
						"astId": 13,
						"contract": "contracts/Lesson4Types.sol:Array4Lesson",
						"label": "list",
						"offset": 0,
						"slot": "10",
						"type": "t_array(t_string_storage)2_storage"
					}
				],
				"types": {
					"t_array(t_string_storage)2_storage": {
						"base": "t_string_storage",
						"encoding": "inplace",
						"label": "string[2]",
						"numberOfBytes": "64"
					},
					"t_array(t_uint256)10_storage": {
						"base": "t_uint256",
						"encoding": "inplace",
						"label": "uint256[10]",
						"numberOfBytes": "320"
					},
					"t_string_storage": {
						"encoding": "bytes",
						"label": "string",
						"numberOfBytes": "32"
					},
					"t_uint256": {
						"encoding": "inplace",
						"label": "uint256",
						"numberOfBytes": "32"
					}
				}
			},
			"userdoc": {
				"kind": "user",
				"methods": {},
				"version": 1
			}
		}
	}
}