{
	"contracts/Lesson5Types.sol": {
		"Struct5Lesson": {
			"abi": [
				{
					"inputs": [
						{
							"internalType": "address",
							"name": "",
							"type": "address"
						}
					],
					"name": "balances",
					"outputs": [
						{
							"internalType": "uint256",
							"name": "totalPayments",
							"type": "uint256"
						}
					],
					"stateMutability": "view",
					"type": "function"
				},
				{
					"inputs": [
						{
							"internalType": "string",
							"name": "message",
							"type": "string"
						}
					],
					"name": "pay",
					"outputs": [],
					"stateMutability": "payable",
					"type": "function"
				}
			],
			"devdoc": {
				"kind": "dev",
				"methods": {},
				"version": 1
			},
			"evm": {
				"assembly": "    /* \"contracts/Lesson5Types.sol\":58:703  contract Struct5Lesson {... */\n  mstore(0x40, 0x80)\n  callvalue\n  dup1\n  iszero\n  tag_1\n  jumpi\n  0x00\n  dup1\n  revert\ntag_1:\n  pop\n  dataSize(sub_0)\n  dup1\n  dataOffset(sub_0)\n  0x00\n  codecopy\n  0x00\n  return\nstop\n\nsub_0: assembly {\n        /* \"contracts/Lesson5Types.sol\":58:703  contract Struct5Lesson {... */\n      mstore(0x40, 0x80)\n      jumpi(tag_1, lt(calldatasize, 0x04))\n      shr(0xe0, calldataload(0x00))\n      dup1\n      0x27e235e3\n      eq\n      tag_2\n      jumpi\n      dup1\n      0x2b66d72e\n      eq\n      tag_3\n      jumpi\n    tag_1:\n      0x00\n      dup1\n      revert\n        /* \"contracts/Lesson5Types.sol\":305:348  mapping(address => Balance) public balances */\n    tag_2:\n      callvalue\n      dup1\n      iszero\n      tag_4\n      jumpi\n      0x00\n      dup1\n      revert\n    tag_4:\n      pop\n      tag_5\n      0x04\n      dup1\n      calldatasize\n      sub\n      dup2\n      add\n      swap1\n      tag_6\n      swap2\n      swap1\n      tag_7\n      jump\t// in\n    tag_6:\n      tag_8\n      jump\t// in\n    tag_5:\n      mload(0x40)\n      tag_9\n      swap2\n      swap1\n      tag_10\n      jump\t// in\n    tag_9:\n      mload(0x40)\n      dup1\n      swap2\n      sub\n      swap1\n      return\n        /* \"contracts/Lesson5Types.sol\":355:701  function pay(string memory message) public payable {... */\n    tag_3:\n      tag_11\n      0x04\n      dup1\n      calldatasize\n      sub\n      dup2\n      add\n      swap1\n      tag_12\n      swap2\n      swap1\n      tag_13\n      jump\t// in\n    tag_12:\n      tag_14\n      jump\t// in\n    tag_11:\n      stop\n        /* \"contracts/Lesson5Types.sol\":305:348  mapping(address => Balance) public balances */\n    tag_8:\n      mstore(0x20, 0x00)\n      dup1\n      0x00\n      mstore\n      keccak256(0x00, 0x40)\n      0x00\n      swap2\n      pop\n      swap1\n      pop\n      dup1\n      0x00\n      add\n      sload\n      swap1\n      pop\n      dup2\n      jump\t// out\n        /* \"contracts/Lesson5Types.sol\":355:701  function pay(string memory message) public payable {... */\n    tag_14:\n        /* \"contracts/Lesson5Types.sol\":416:424  balances */\n      0x00\n        /* \"contracts/Lesson5Types.sol\":416:436  balances[msg.sender] */\n      dup1\n        /* \"contracts/Lesson5Types.sol\":425:435  msg.sender */\n      caller\n        /* \"contracts/Lesson5Types.sol\":416:436  balances[msg.sender] */\n      0xffffffffffffffffffffffffffffffffffffffff\n      and\n      0xffffffffffffffffffffffffffffffffffffffff\n      and\n      dup2\n      mstore\n      0x20\n      add\n      swap1\n      dup2\n      mstore\n      0x20\n      add\n      0x00\n      keccak256\n        /* \"contracts/Lesson5Types.sol\":416:450  balances[msg.sender].totalPayments */\n      0x00\n      add\n      0x00\n        /* \"contracts/Lesson5Types.sol\":416:452  balances[msg.sender].totalPayments++ */\n      dup2\n      sload\n      dup1\n      swap3\n      swap2\n      swap1\n      tag_16\n      swap1\n      tag_17\n      jump\t// in\n    tag_16:\n      swap2\n      swap1\n      pop\n      sstore\n      pop\n        /* \"contracts/Lesson5Types.sol\":463:488  Payment memory newPayment */\n      0x00\n        /* \"contracts/Lesson5Types.sol\":491:605  Payment(... */\n      mload(0x40)\n      dup1\n      0x80\n      add\n      0x40\n      mstore\n      dup1\n        /* \"contracts/Lesson5Types.sol\":512:521  msg.value */\n      callvalue\n        /* \"contracts/Lesson5Types.sol\":491:605  Payment(... */\n      dup2\n      mstore\n      0x20\n      add\n        /* \"contracts/Lesson5Types.sol\":535:550  block.timestamp */\n      timestamp\n        /* \"contracts/Lesson5Types.sol\":491:605  Payment(... */\n      dup2\n      mstore\n      0x20\n      add\n        /* \"contracts/Lesson5Types.sol\":564:574  msg.sender */\n      caller\n        /* \"contracts/Lesson5Types.sol\":491:605  Payment(... */\n      0xffffffffffffffffffffffffffffffffffffffff\n      and\n      dup2\n      mstore\n      0x20\n      add\n        /* \"contracts/Lesson5Types.sol\":588:595  message */\n      dup4\n        /* \"contracts/Lesson5Types.sol\":491:605  Payment(... */\n      dup2\n      mstore\n      pop\n        /* \"contracts/Lesson5Types.sol\":463:605  Payment memory newPayment = Payment(... */\n      swap1\n      pop\n        /* \"contracts/Lesson5Types.sol\":683:693  newPayment */\n      dup1\n        /* \"contracts/Lesson5Types.sol\":615:623  balances */\n      0x00\n        /* \"contracts/Lesson5Types.sol\":615:635  balances[msg.sender] */\n      dup1\n        /* \"contracts/Lesson5Types.sol\":624:634  msg.sender */\n      caller\n        /* \"contracts/Lesson5Types.sol\":615:635  balances[msg.sender] */\n      0xffffffffffffffffffffffffffffffffffffffff\n      and\n      0xffffffffffffffffffffffffffffffffffffffff\n      and\n      dup2\n      mstore\n      0x20\n      add\n      swap1\n      dup2\n      mstore\n      0x20\n      add\n      0x00\n      keccak256\n        /* \"contracts/Lesson5Types.sol\":615:644  balances[msg.sender].payments */\n      0x01\n      add\n        /* \"contracts/Lesson5Types.sol\":615:680  balances[msg.sender].payments[balances[msg.sender].totalPayments] */\n      0x00\n        /* \"contracts/Lesson5Types.sol\":645:653  balances */\n      dup1\n        /* \"contracts/Lesson5Types.sol\":645:665  balances[msg.sender] */\n      0x00\n        /* \"contracts/Lesson5Types.sol\":654:664  msg.sender */\n      caller\n        /* \"contracts/Lesson5Types.sol\":645:665  balances[msg.sender] */\n      0xffffffffffffffffffffffffffffffffffffffff\n      and\n      0xffffffffffffffffffffffffffffffffffffffff\n      and\n      dup2\n      mstore\n      0x20\n      add\n      swap1\n      dup2\n      mstore\n      0x20\n      add\n      0x00\n      keccak256\n        /* \"contracts/Lesson5Types.sol\":645:679  balances[msg.sender].totalPayments */\n      0x00\n      add\n      sload\n        /* \"contracts/Lesson5Types.sol\":615:680  balances[msg.sender].payments[balances[msg.sender].totalPayments] */\n      dup2\n      mstore\n      0x20\n      add\n      swap1\n      dup2\n      mstore\n      0x20\n      add\n      0x00\n      keccak256\n        /* \"contracts/Lesson5Types.sol\":615:693  balances[msg.sender].payments[balances[msg.sender].totalPayments] = newPayment */\n      0x00\n      dup3\n      add\n      mload\n      dup2\n      0x00\n      add\n      sstore\n      0x20\n      dup3\n      add\n      mload\n      dup2\n      0x01\n      add\n      sstore\n      0x40\n      dup3\n      add\n      mload\n      dup2\n      0x02\n      add\n      exp(0x0100, 0x00)\n      dup2\n      sload\n      dup2\n      0xffffffffffffffffffffffffffffffffffffffff\n      mul\n      not\n      and\n      swap1\n      dup4\n      0xffffffffffffffffffffffffffffffffffffffff\n      and\n      mul\n      or\n      swap1\n      sstore\n      pop\n      0x60\n      dup3\n      add\n      mload\n      dup2\n      0x03\n      add\n      swap1\n      dup1\n      mload\n      swap1\n      0x20\n      add\n      swap1\n      tag_18\n      swap3\n      swap2\n      swap1\n      tag_19\n      jump\t// in\n    tag_18:\n      pop\n      swap1\n      pop\n      pop\n        /* \"contracts/Lesson5Types.sol\":406:701  {... */\n      pop\n        /* \"contracts/Lesson5Types.sol\":355:701  function pay(string memory message) public payable {... */\n      pop\n      jump\t// out\n    tag_19:\n      dup3\n      dup1\n      sload\n      tag_20\n      swap1\n      tag_21\n      jump\t// in\n    tag_20:\n      swap1\n      0x00\n      mstore\n      keccak256(0x00, 0x20)\n      swap1\n      0x1f\n      add\n      0x20\n      swap1\n      div\n      dup2\n      add\n      swap3\n      dup3\n      tag_23\n      jumpi\n      0x00\n      dup6\n      sstore\n      jump(tag_22)\n    tag_23:\n      dup3\n      0x1f\n      lt\n      tag_24\n      jumpi\n      dup1\n      mload\n      not(0xff)\n      and\n      dup4\n      dup1\n      add\n      or\n      dup6\n      sstore\n      jump(tag_22)\n    tag_24:\n      dup3\n      dup1\n      add\n      0x01\n      add\n      dup6\n      sstore\n      dup3\n      iszero\n      tag_22\n      jumpi\n      swap2\n      dup3\n      add\n    tag_25:\n      dup3\n      dup2\n      gt\n      iszero\n      tag_26\n      jumpi\n      dup3\n      mload\n      dup3\n      sstore\n      swap2\n      0x20\n      add\n      swap2\n      swap1\n      0x01\n      add\n      swap1\n      jump(tag_25)\n    tag_26:\n    tag_22:\n      pop\n      swap1\n      pop\n      tag_27\n      swap2\n      swap1\n      tag_28\n      jump\t// in\n    tag_27:\n      pop\n      swap1\n      jump\t// out\n    tag_28:\n    tag_29:\n      dup1\n      dup3\n      gt\n      iszero\n      tag_30\n      jumpi\n      0x00\n      dup2\n      0x00\n      swap1\n      sstore\n      pop\n      0x01\n      add\n      jump(tag_29)\n    tag_30:\n      pop\n      swap1\n      jump\t// out\n        /* \"#utility.yul\":7:419   */\n    tag_32:\n        /* \"#utility.yul\":85:90   */\n      0x00\n        /* \"#utility.yul\":110:176   */\n      tag_34\n        /* \"#utility.yul\":126:175   */\n      tag_35\n        /* \"#utility.yul\":168:174   */\n      dup5\n        /* \"#utility.yul\":126:175   */\n      tag_36\n      jump\t// in\n    tag_35:\n        /* \"#utility.yul\":110:176   */\n      tag_37\n      jump\t// in\n    tag_34:\n        /* \"#utility.yul\":101:176   */\n      swap1\n      pop\n        /* \"#utility.yul\":199:205   */\n      dup3\n        /* \"#utility.yul\":192:197   */\n      dup2\n        /* \"#utility.yul\":185:206   */\n      mstore\n        /* \"#utility.yul\":237:241   */\n      0x20\n        /* \"#utility.yul\":230:235   */\n      dup2\n        /* \"#utility.yul\":226:242   */\n      add\n        /* \"#utility.yul\":275:278   */\n      dup5\n        /* \"#utility.yul\":266:272   */\n      dup5\n        /* \"#utility.yul\":261:264   */\n      dup5\n        /* \"#utility.yul\":257:273   */\n      add\n        /* \"#utility.yul\":254:279   */\n      gt\n        /* \"#utility.yul\":251:363   */\n      iszero\n      tag_38\n      jumpi\n        /* \"#utility.yul\":282:361   */\n      tag_39\n      tag_40\n      jump\t// in\n    tag_39:\n        /* \"#utility.yul\":251:363   */\n    tag_38:\n        /* \"#utility.yul\":372:413   */\n      tag_41\n        /* \"#utility.yul\":406:412   */\n      dup5\n        /* \"#utility.yul\":401:404   */\n      dup3\n        /* \"#utility.yul\":396:399   */\n      dup6\n        /* \"#utility.yul\":372:413   */\n      tag_42\n      jump\t// in\n    tag_41:\n        /* \"#utility.yul\":91:419   */\n      pop\n        /* \"#utility.yul\":7:419   */\n      swap4\n      swap3\n      pop\n      pop\n      pop\n      jump\t// out\n        /* \"#utility.yul\":425:564   */\n    tag_43:\n        /* \"#utility.yul\":471:476   */\n      0x00\n        /* \"#utility.yul\":509:515   */\n      dup2\n        /* \"#utility.yul\":496:516   */\n      calldataload\n        /* \"#utility.yul\":487:516   */\n      swap1\n      pop\n        /* \"#utility.yul\":525:558   */\n      tag_45\n        /* \"#utility.yul\":552:557   */\n      dup2\n        /* \"#utility.yul\":525:558   */\n      tag_46\n      jump\t// in\n    tag_45:\n        /* \"#utility.yul\":425:564   */\n      swap3\n      swap2\n      pop\n      pop\n      jump\t// out\n        /* \"#utility.yul\":584:924   */\n    tag_47:\n        /* \"#utility.yul\":640:645   */\n      0x00\n        /* \"#utility.yul\":689:692   */\n      dup3\n        /* \"#utility.yul\":682:686   */\n      0x1f\n        /* \"#utility.yul\":674:680   */\n      dup4\n        /* \"#utility.yul\":670:687   */\n      add\n        /* \"#utility.yul\":666:693   */\n      slt\n        /* \"#utility.yul\":656:778   */\n      tag_49\n      jumpi\n        /* \"#utility.yul\":697:776   */\n      tag_50\n      tag_51\n      jump\t// in\n    tag_50:\n        /* \"#utility.yul\":656:778   */\n    tag_49:\n        /* \"#utility.yul\":814:820   */\n      dup2\n        /* \"#utility.yul\":801:821   */\n      calldataload\n        /* \"#utility.yul\":839:918   */\n      tag_52\n        /* \"#utility.yul\":914:917   */\n      dup5\n        /* \"#utility.yul\":906:912   */\n      dup3\n        /* \"#utility.yul\":899:903   */\n      0x20\n        /* \"#utility.yul\":891:897   */\n      dup7\n        /* \"#utility.yul\":887:904   */\n      add\n        /* \"#utility.yul\":839:918   */\n      tag_32\n      jump\t// in\n    tag_52:\n        /* \"#utility.yul\":830:918   */\n      swap2\n      pop\n        /* \"#utility.yul\":646:924   */\n      pop\n        /* \"#utility.yul\":584:924   */\n      swap3\n      swap2\n      pop\n      pop\n      jump\t// out\n        /* \"#utility.yul\":930:1259   */\n    tag_7:\n        /* \"#utility.yul\":989:995   */\n      0x00\n        /* \"#utility.yul\":1038:1040   */\n      0x20\n        /* \"#utility.yul\":1026:1035   */\n      dup3\n        /* \"#utility.yul\":1017:1024   */\n      dup5\n        /* \"#utility.yul\":1013:1036   */\n      sub\n        /* \"#utility.yul\":1009:1041   */\n      slt\n        /* \"#utility.yul\":1006:1125   */\n      iszero\n      tag_54\n      jumpi\n        /* \"#utility.yul\":1044:1123   */\n      tag_55\n      tag_56\n      jump\t// in\n    tag_55:\n        /* \"#utility.yul\":1006:1125   */\n    tag_54:\n        /* \"#utility.yul\":1164:1165   */\n      0x00\n        /* \"#utility.yul\":1189:1242   */\n      tag_57\n        /* \"#utility.yul\":1234:1241   */\n      dup5\n        /* \"#utility.yul\":1225:1231   */\n      dup3\n        /* \"#utility.yul\":1214:1223   */\n      dup6\n        /* \"#utility.yul\":1210:1232   */\n      add\n        /* \"#utility.yul\":1189:1242   */\n      tag_43\n      jump\t// in\n    tag_57:\n        /* \"#utility.yul\":1179:1242   */\n      swap2\n      pop\n        /* \"#utility.yul\":1135:1252   */\n      pop\n        /* \"#utility.yul\":930:1259   */\n      swap3\n      swap2\n      pop\n      pop\n      jump\t// out\n        /* \"#utility.yul\":1265:1774   */\n    tag_13:\n        /* \"#utility.yul\":1334:1340   */\n      0x00\n        /* \"#utility.yul\":1383:1385   */\n      0x20\n        /* \"#utility.yul\":1371:1380   */\n      dup3\n        /* \"#utility.yul\":1362:1369   */\n      dup5\n        /* \"#utility.yul\":1358:1381   */\n      sub\n        /* \"#utility.yul\":1354:1386   */\n      slt\n        /* \"#utility.yul\":1351:1470   */\n      iszero\n      tag_59\n      jumpi\n        /* \"#utility.yul\":1389:1468   */\n      tag_60\n      tag_56\n      jump\t// in\n    tag_60:\n        /* \"#utility.yul\":1351:1470   */\n    tag_59:\n        /* \"#utility.yul\":1537:1538   */\n      0x00\n        /* \"#utility.yul\":1526:1535   */\n      dup3\n        /* \"#utility.yul\":1522:1539   */\n      add\n        /* \"#utility.yul\":1509:1540   */\n      calldataload\n        /* \"#utility.yul\":1567:1585   */\n      0xffffffffffffffff\n        /* \"#utility.yul\":1559:1565   */\n      dup2\n        /* \"#utility.yul\":1556:1586   */\n      gt\n        /* \"#utility.yul\":1553:1670   */\n      iszero\n      tag_61\n      jumpi\n        /* \"#utility.yul\":1589:1668   */\n      tag_62\n      tag_63\n      jump\t// in\n    tag_62:\n        /* \"#utility.yul\":1553:1670   */\n    tag_61:\n        /* \"#utility.yul\":1694:1757   */\n      tag_64\n        /* \"#utility.yul\":1749:1756   */\n      dup5\n        /* \"#utility.yul\":1740:1746   */\n      dup3\n        /* \"#utility.yul\":1729:1738   */\n      dup6\n        /* \"#utility.yul\":1725:1747   */\n      add\n        /* \"#utility.yul\":1694:1757   */\n      tag_47\n      jump\t// in\n    tag_64:\n        /* \"#utility.yul\":1684:1757   */\n      swap2\n      pop\n        /* \"#utility.yul\":1480:1767   */\n      pop\n        /* \"#utility.yul\":1265:1774   */\n      swap3\n      swap2\n      pop\n      pop\n      jump\t// out\n        /* \"#utility.yul\":1780:1898   */\n    tag_65:\n        /* \"#utility.yul\":1867:1891   */\n      tag_67\n        /* \"#utility.yul\":1885:1890   */\n      dup2\n        /* \"#utility.yul\":1867:1891   */\n      tag_68\n      jump\t// in\n    tag_67:\n        /* \"#utility.yul\":1862:1865   */\n      dup3\n        /* \"#utility.yul\":1855:1892   */\n      mstore\n        /* \"#utility.yul\":1780:1898   */\n      pop\n      pop\n      jump\t// out\n        /* \"#utility.yul\":1904:2126   */\n    tag_10:\n        /* \"#utility.yul\":1997:2001   */\n      0x00\n        /* \"#utility.yul\":2035:2037   */\n      0x20\n        /* \"#utility.yul\":2024:2033   */\n      dup3\n        /* \"#utility.yul\":2020:2038   */\n      add\n        /* \"#utility.yul\":2012:2038   */\n      swap1\n      pop\n        /* \"#utility.yul\":2048:2119   */\n      tag_70\n        /* \"#utility.yul\":2116:2117   */\n      0x00\n        /* \"#utility.yul\":2105:2114   */\n      dup4\n        /* \"#utility.yul\":2101:2118   */\n      add\n        /* \"#utility.yul\":2092:2098   */\n      dup5\n        /* \"#utility.yul\":2048:2119   */\n      tag_65\n      jump\t// in\n    tag_70:\n        /* \"#utility.yul\":1904:2126   */\n      swap3\n      swap2\n      pop\n      pop\n      jump\t// out\n        /* \"#utility.yul\":2132:2261   */\n    tag_37:\n        /* \"#utility.yul\":2166:2172   */\n      0x00\n        /* \"#utility.yul\":2193:2213   */\n      tag_72\n      tag_73\n      jump\t// in\n    tag_72:\n        /* \"#utility.yul\":2183:2213   */\n      swap1\n      pop\n        /* \"#utility.yul\":2222:2255   */\n      tag_74\n        /* \"#utility.yul\":2250:2254   */\n      dup3\n        /* \"#utility.yul\":2242:2248   */\n      dup3\n        /* \"#utility.yul\":2222:2255   */\n      tag_75\n      jump\t// in\n    tag_74:\n        /* \"#utility.yul\":2132:2261   */\n      swap2\n      swap1\n      pop\n      jump\t// out\n        /* \"#utility.yul\":2267:2342   */\n    tag_73:\n        /* \"#utility.yul\":2300:2306   */\n      0x00\n        /* \"#utility.yul\":2333:2335   */\n      0x40\n        /* \"#utility.yul\":2327:2336   */\n      mload\n        /* \"#utility.yul\":2317:2336   */\n      swap1\n      pop\n        /* \"#utility.yul\":2267:2342   */\n      swap1\n      jump\t// out\n        /* \"#utility.yul\":2348:2656   */\n    tag_36:\n        /* \"#utility.yul\":2410:2414   */\n      0x00\n        /* \"#utility.yul\":2500:2518   */\n      0xffffffffffffffff\n        /* \"#utility.yul\":2492:2498   */\n      dup3\n        /* \"#utility.yul\":2489:2519   */\n      gt\n        /* \"#utility.yul\":2486:2542   */\n      iszero\n      tag_78\n      jumpi\n        /* \"#utility.yul\":2522:2540   */\n      tag_79\n      tag_80\n      jump\t// in\n    tag_79:\n        /* \"#utility.yul\":2486:2542   */\n    tag_78:\n        /* \"#utility.yul\":2560:2589   */\n      tag_81\n        /* \"#utility.yul\":2582:2588   */\n      dup3\n        /* \"#utility.yul\":2560:2589   */\n      tag_82\n      jump\t// in\n    tag_81:\n        /* \"#utility.yul\":2552:2589   */\n      swap1\n      pop\n        /* \"#utility.yul\":2644:2648   */\n      0x20\n        /* \"#utility.yul\":2638:2642   */\n      dup2\n        /* \"#utility.yul\":2634:2649   */\n      add\n        /* \"#utility.yul\":2626:2649   */\n      swap1\n      pop\n        /* \"#utility.yul\":2348:2656   */\n      swap2\n      swap1\n      pop\n      jump\t// out\n        /* \"#utility.yul\":2662:2758   */\n    tag_83:\n        /* \"#utility.yul\":2699:2706   */\n      0x00\n        /* \"#utility.yul\":2728:2752   */\n      tag_85\n        /* \"#utility.yul\":2746:2751   */\n      dup3\n        /* \"#utility.yul\":2728:2752   */\n      tag_86\n      jump\t// in\n    tag_85:\n        /* \"#utility.yul\":2717:2752   */\n      swap1\n      pop\n        /* \"#utility.yul\":2662:2758   */\n      swap2\n      swap1\n      pop\n      jump\t// out\n        /* \"#utility.yul\":2764:2890   */\n    tag_86:\n        /* \"#utility.yul\":2801:2808   */\n      0x00\n        /* \"#utility.yul\":2841:2883   */\n      0xffffffffffffffffffffffffffffffffffffffff\n        /* \"#utility.yul\":2834:2839   */\n      dup3\n        /* \"#utility.yul\":2830:2884   */\n      and\n        /* \"#utility.yul\":2819:2884   */\n      swap1\n      pop\n        /* \"#utility.yul\":2764:2890   */\n      swap2\n      swap1\n      pop\n      jump\t// out\n        /* \"#utility.yul\":2896:2973   */\n    tag_68:\n        /* \"#utility.yul\":2933:2940   */\n      0x00\n        /* \"#utility.yul\":2962:2967   */\n      dup2\n        /* \"#utility.yul\":2951:2967   */\n      swap1\n      pop\n        /* \"#utility.yul\":2896:2973   */\n      swap2\n      swap1\n      pop\n      jump\t// out\n        /* \"#utility.yul\":2979:3133   */\n    tag_42:\n        /* \"#utility.yul\":3063:3069   */\n      dup3\n        /* \"#utility.yul\":3058:3061   */\n      dup2\n        /* \"#utility.yul\":3053:3056   */\n      dup4\n        /* \"#utility.yul\":3040:3070   */\n      calldatacopy\n        /* \"#utility.yul\":3125:3126   */\n      0x00\n        /* \"#utility.yul\":3116:3122   */\n      dup4\n        /* \"#utility.yul\":3111:3114   */\n      dup4\n        /* \"#utility.yul\":3107:3123   */\n      add\n        /* \"#utility.yul\":3100:3127   */\n      mstore\n        /* \"#utility.yul\":2979:3133   */\n      pop\n      pop\n      pop\n      jump\t// out\n        /* \"#utility.yul\":3139:3459   */\n    tag_21:\n        /* \"#utility.yul\":3183:3189   */\n      0x00\n        /* \"#utility.yul\":3220:3221   */\n      0x02\n        /* \"#utility.yul\":3214:3218   */\n      dup3\n        /* \"#utility.yul\":3210:3222   */\n      div\n        /* \"#utility.yul\":3200:3222   */\n      swap1\n      pop\n        /* \"#utility.yul\":3267:3268   */\n      0x01\n        /* \"#utility.yul\":3261:3265   */\n      dup3\n        /* \"#utility.yul\":3257:3269   */\n      and\n        /* \"#utility.yul\":3288:3306   */\n      dup1\n        /* \"#utility.yul\":3278:3359   */\n      tag_91\n      jumpi\n        /* \"#utility.yul\":3344:3348   */\n      0x7f\n        /* \"#utility.yul\":3336:3342   */\n      dup3\n        /* \"#utility.yul\":3332:3349   */\n      and\n        /* \"#utility.yul\":3322:3349   */\n      swap2\n      pop\n        /* \"#utility.yul\":3278:3359   */\n    tag_91:\n        /* \"#utility.yul\":3406:3408   */\n      0x20\n        /* \"#utility.yul\":3398:3404   */\n      dup3\n        /* \"#utility.yul\":3395:3409   */\n      lt\n        /* \"#utility.yul\":3375:3393   */\n      dup2\n        /* \"#utility.yul\":3372:3410   */\n      eq\n        /* \"#utility.yul\":3369:3453   */\n      iszero\n      tag_92\n      jumpi\n        /* \"#utility.yul\":3425:3443   */\n      tag_93\n      tag_94\n      jump\t// in\n    tag_93:\n        /* \"#utility.yul\":3369:3453   */\n    tag_92:\n        /* \"#utility.yul\":3190:3459   */\n      pop\n        /* \"#utility.yul\":3139:3459   */\n      swap2\n      swap1\n      pop\n      jump\t// out\n        /* \"#utility.yul\":3465:3746   */\n    tag_75:\n        /* \"#utility.yul\":3548:3575   */\n      tag_96\n        /* \"#utility.yul\":3570:3574   */\n      dup3\n        /* \"#utility.yul\":3548:3575   */\n      tag_82\n      jump\t// in\n    tag_96:\n        /* \"#utility.yul\":3540:3546   */\n      dup2\n        /* \"#utility.yul\":3536:3576   */\n      add\n        /* \"#utility.yul\":3678:3684   */\n      dup2\n        /* \"#utility.yul\":3666:3676   */\n      dup2\n        /* \"#utility.yul\":3663:3685   */\n      lt\n        /* \"#utility.yul\":3642:3660   */\n      0xffffffffffffffff\n        /* \"#utility.yul\":3630:3640   */\n      dup3\n        /* \"#utility.yul\":3627:3661   */\n      gt\n        /* \"#utility.yul\":3624:3686   */\n      or\n        /* \"#utility.yul\":3621:3709   */\n      iszero\n      tag_97\n      jumpi\n        /* \"#utility.yul\":3689:3707   */\n      tag_98\n      tag_80\n      jump\t// in\n    tag_98:\n        /* \"#utility.yul\":3621:3709   */\n    tag_97:\n        /* \"#utility.yul\":3729:3739   */\n      dup1\n        /* \"#utility.yul\":3725:3727   */\n      0x40\n        /* \"#utility.yul\":3718:3740   */\n      mstore\n        /* \"#utility.yul\":3508:3746   */\n      pop\n        /* \"#utility.yul\":3465:3746   */\n      pop\n      pop\n      jump\t// out\n        /* \"#utility.yul\":3752:3985   */\n    tag_17:\n        /* \"#utility.yul\":3791:3794   */\n      0x00\n        /* \"#utility.yul\":3814:3838   */\n      tag_100\n        /* \"#utility.yul\":3832:3837   */\n      dup3\n        /* \"#utility.yul\":3814:3838   */\n      tag_68\n      jump\t// in\n    tag_100:\n        /* \"#utility.yul\":3805:3838   */\n      swap2\n      pop\n        /* \"#utility.yul\":3860:3926   */\n      0xffffffffffffffffffffffffffffffffffffffffffffffffffffffffffffffff\n        /* \"#utility.yul\":3853:3858   */\n      dup3\n        /* \"#utility.yul\":3850:3927   */\n      eq\n        /* \"#utility.yul\":3847:3950   */\n      iszero\n      tag_101\n      jumpi\n        /* \"#utility.yul\":3930:3948   */\n      tag_102\n      tag_103\n      jump\t// in\n    tag_102:\n        /* \"#utility.yul\":3847:3950   */\n    tag_101:\n        /* \"#utility.yul\":3977:3978   */\n      0x01\n        /* \"#utility.yul\":3970:3975   */\n      dup3\n        /* \"#utility.yul\":3966:3979   */\n      add\n        /* \"#utility.yul\":3959:3979   */\n      swap1\n      pop\n        /* \"#utility.yul\":3752:3985   */\n      swap2\n      swap1\n      pop\n      jump\t// out\n        /* \"#utility.yul\":3991:4171   */\n    tag_103:\n        /* \"#utility.yul\":4039:4116   */\n      0x4e487b7100000000000000000000000000000000000000000000000000000000\n        /* \"#utility.yul\":4036:4037   */\n      0x00\n        /* \"#utility.yul\":4029:4117   */\n      mstore\n        /* \"#utility.yul\":4136:4140   */\n      0x11\n        /* \"#utility.yul\":4133:4134   */\n      0x04\n        /* \"#utility.yul\":4126:4141   */\n      mstore\n        /* \"#utility.yul\":4160:4164   */\n      0x24\n        /* \"#utility.yul\":4157:4158   */\n      0x00\n        /* \"#utility.yul\":4150:4165   */\n      revert\n        /* \"#utility.yul\":4177:4357   */\n    tag_94:\n        /* \"#utility.yul\":4225:4302   */\n      0x4e487b7100000000000000000000000000000000000000000000000000000000\n        /* \"#utility.yul\":4222:4223   */\n      0x00\n        /* \"#utility.yul\":4215:4303   */\n      mstore\n        /* \"#utility.yul\":4322:4326   */\n      0x22\n        /* \"#utility.yul\":4319:4320   */\n      0x04\n        /* \"#utility.yul\":4312:4327   */\n      mstore\n        /* \"#utility.yul\":4346:4350   */\n      0x24\n        /* \"#utility.yul\":4343:4344   */\n      0x00\n        /* \"#utility.yul\":4336:4351   */\n      revert\n        /* \"#utility.yul\":4363:4543   */\n    tag_80:\n        /* \"#utility.yul\":4411:4488   */\n      0x4e487b7100000000000000000000000000000000000000000000000000000000\n        /* \"#utility.yul\":4408:4409   */\n      0x00\n        /* \"#utility.yul\":4401:4489   */\n      mstore\n        /* \"#utility.yul\":4508:4512   */\n      0x41\n        /* \"#utility.yul\":4505:4506   */\n      0x04\n        /* \"#utility.yul\":4498:4513   */\n      mstore\n        /* \"#utility.yul\":4532:4536   */\n      0x24\n        /* \"#utility.yul\":4529:4530   */\n      0x00\n        /* \"#utility.yul\":4522:4537   */\n      revert\n        /* \"#utility.yul\":4549:4666   */\n    tag_51:\n        /* \"#utility.yul\":4658:4659   */\n      0x00\n        /* \"#utility.yul\":4655:4656   */\n      dup1\n        /* \"#utility.yul\":4648:4660   */\n      revert\n        /* \"#utility.yul\":4672:4789   */\n    tag_40:\n        /* \"#utility.yul\":4781:4782   */\n      0x00\n        /* \"#utility.yul\":4778:4779   */\n      dup1\n        /* \"#utility.yul\":4771:4783   */\n      revert\n        /* \"#utility.yul\":4795:4912   */\n    tag_63:\n        /* \"#utility.yul\":4904:4905   */\n      0x00\n        /* \"#utility.yul\":4901:4902   */\n      dup1\n        /* \"#utility.yul\":4894:4906   */\n      revert\n        /* \"#utility.yul\":4918:5035   */\n    tag_56:\n        /* \"#utility.yul\":5027:5028   */\n      0x00\n        /* \"#utility.yul\":5024:5025   */\n      dup1\n        /* \"#utility.yul\":5017:5029   */\n      revert\n        /* \"#utility.yul\":5041:5143   */\n    tag_82:\n        /* \"#utility.yul\":5082:5088   */\n      0x00\n        /* \"#utility.yul\":5133:5135   */\n      0x1f\n        /* \"#utility.yul\":5129:5136   */\n      not\n        /* \"#utility.yul\":5124:5126   */\n      0x1f\n        /* \"#utility.yul\":5117:5122   */\n      dup4\n        /* \"#utility.yul\":5113:5127   */\n      add\n        /* \"#utility.yul\":5109:5137   */\n      and\n        /* \"#utility.yul\":5099:5137   */\n      swap1\n      pop\n        /* \"#utility.yul\":5041:5143   */\n      swap2\n      swap1\n      pop\n      jump\t// out\n        /* \"#utility.yul\":5149:5271   */\n    tag_46:\n        /* \"#utility.yul\":5222:5246   */\n      tag_113\n        /* \"#utility.yul\":5240:5245   */\n      dup2\n        /* \"#utility.yul\":5222:5246   */\n      tag_83\n      jump\t// in\n    tag_113:\n        /* \"#utility.yul\":5215:5220   */\n      dup2\n        /* \"#utility.yul\":5212:5247   */\n      eq\n        /* \"#utility.yul\":5202:5265   */\n      tag_114\n      jumpi\n        /* \"#utility.yul\":5261:5262   */\n      0x00\n        /* \"#utility.yul\":5258:5259   */\n      dup1\n        /* \"#utility.yul\":5251:5263   */\n      revert\n        /* \"#utility.yul\":5202:5265   */\n    tag_114:\n        /* \"#utility.yul\":5149:5271   */\n      pop\n      jump\t// out\n\n    auxdata: 0xa264697066735822122041aa04808efaa93ace6a5cba06b74183bbb76d08b82ed0e06c3651017533625264736f6c63430008070033\n}\n",
				"bytecode": {
					"linkReferences": {},
					"object": "608060405234801561001057600080fd5b5061065e806100206000396000f3fe6080604052600436106100295760003560e01c806327e235e31461002e5780632b66d72e1461006b575b600080fd5b34801561003a57600080fd5b5061005560048036038101906100509190610372565b610087565b60405161006291906103f7565b60405180910390f35b6100856004803603810190610080919061039f565b6100a5565b005b60006020528060005260406000206000915090508060000154905081565b6000803373ffffffffffffffffffffffffffffffffffffffff1673ffffffffffffffffffffffffffffffffffffffff16815260200190815260200160002060000160008154809291906100f790610516565b9190505550600060405180608001604052803481526020014281526020013373ffffffffffffffffffffffffffffffffffffffff168152602001838152509050806000803373ffffffffffffffffffffffffffffffffffffffff1673ffffffffffffffffffffffffffffffffffffffff16815260200190815260200160002060010160008060003373ffffffffffffffffffffffffffffffffffffffff1673ffffffffffffffffffffffffffffffffffffffff168152602001908152602001600020600001548152602001908152602001600020600082015181600001556020820151816001015560408201518160020160006101000a81548173ffffffffffffffffffffffffffffffffffffffff021916908373ffffffffffffffffffffffffffffffffffffffff160217905550606082015181600301908051906020019061024292919061024a565b509050505050565b828054610256906104b3565b90600052602060002090601f01602090048101928261027857600085556102bf565b82601f1061029157805160ff19168380011785556102bf565b828001600101855582156102bf579182015b828111156102be5782518255916020019190600101906102a3565b5b5090506102cc91906102d0565b5090565b5b808211156102e95760008160009055506001016102d1565b5090565b60006103006102fb84610437565b610412565b90508281526020810184848401111561031c5761031b6105f1565b5b6103278482856104a4565b509392505050565b60008135905061033e81610611565b92915050565b600082601f830112610359576103586105ec565b5b81356103698482602086016102ed565b91505092915050565b600060208284031215610388576103876105fb565b5b60006103968482850161032f565b91505092915050565b6000602082840312156103b5576103b46105fb565b5b600082013567ffffffffffffffff8111156103d3576103d26105f6565b5b6103df84828501610344565b91505092915050565b6103f18161049a565b82525050565b600060208201905061040c60008301846103e8565b92915050565b600061041c61042d565b905061042882826104e5565b919050565b6000604051905090565b600067ffffffffffffffff821115610452576104516105bd565b5b61045b82610600565b9050602081019050919050565b60006104738261047a565b9050919050565b600073ffffffffffffffffffffffffffffffffffffffff82169050919050565b6000819050919050565b82818337600083830152505050565b600060028204905060018216806104cb57607f821691505b602082108114156104df576104de61058e565b5b50919050565b6104ee82610600565b810181811067ffffffffffffffff8211171561050d5761050c6105bd565b5b80604052505050565b60006105218261049a565b91507fffffffffffffffffffffffffffffffffffffffffffffffffffffffffffffffff8214156105545761055361055f565b5b600182019050919050565b7f4e487b7100000000000000000000000000000000000000000000000000000000600052601160045260246000fd5b7f4e487b7100000000000000000000000000000000000000000000000000000000600052602260045260246000fd5b7f4e487b7100000000000000000000000000000000000000000000000000000000600052604160045260246000fd5b600080fd5b600080fd5b600080fd5b600080fd5b6000601f19601f8301169050919050565b61061a81610468565b811461062557600080fd5b5056fea264697066735822122041aa04808efaa93ace6a5cba06b74183bbb76d08b82ed0e06c3651017533625264736f6c63430008070033",
					"opcodes": "PUSH1 0x80 PUSH1 0x40 MSTORE CALLVALUE DUP1 ISZERO PUSH2 0x10 JUMPI PUSH1 0x0 DUP1 REVERT JUMPDEST POP PUSH2 0x65E DUP1 PUSH2 0x20 PUSH1 0x0 CODECOPY PUSH1 0x0 RETURN INVALID PUSH1 0x80 PUSH1 0x40 MSTORE PUSH1 0x4 CALLDATASIZE LT PUSH2 0x29 JUMPI PUSH1 0x0 CALLDATALOAD PUSH1 0xE0 SHR DUP1 PUSH4 0x27E235E3 EQ PUSH2 0x2E JUMPI DUP1 PUSH4 0x2B66D72E EQ PUSH2 0x6B JUMPI JUMPDEST PUSH1 0x0 DUP1 REVERT JUMPDEST CALLVALUE DUP1 ISZERO PUSH2 0x3A JUMPI PUSH1 0x0 DUP1 REVERT JUMPDEST POP PUSH2 0x55 PUSH1 0x4 DUP1 CALLDATASIZE SUB DUP2 ADD SWAP1 PUSH2 0x50 SWAP2 SWAP1 PUSH2 0x372 JUMP JUMPDEST PUSH2 0x87 JUMP JUMPDEST PUSH1 0x40 MLOAD PUSH2 0x62 SWAP2 SWAP1 PUSH2 0x3F7 JUMP JUMPDEST PUSH1 0x40 MLOAD DUP1 SWAP2 SUB SWAP1 RETURN JUMPDEST PUSH2 0x85 PUSH1 0x4 DUP1 CALLDATASIZE SUB DUP2 ADD SWAP1 PUSH2 0x80 SWAP2 SWAP1 PUSH2 0x39F JUMP JUMPDEST PUSH2 0xA5 JUMP JUMPDEST STOP JUMPDEST PUSH1 0x0 PUSH1 0x20 MSTORE DUP1 PUSH1 0x0 MSTORE PUSH1 0x40 PUSH1 0x0 KECCAK256 PUSH1 0x0 SWAP2 POP SWAP1 POP DUP1 PUSH1 0x0 ADD SLOAD SWAP1 POP DUP2 JUMP JUMPDEST PUSH1 0x0 DUP1 CALLER PUSH20 0xFFFFFFFFFFFFFFFFFFFFFFFFFFFFFFFFFFFFFFFF AND PUSH20 0xFFFFFFFFFFFFFFFFFFFFFFFFFFFFFFFFFFFFFFFF AND DUP2 MSTORE PUSH1 0x20 ADD SWAP1 DUP2 MSTORE PUSH1 0x20 ADD PUSH1 0x0 KECCAK256 PUSH1 0x0 ADD PUSH1 0x0 DUP2 SLOAD DUP1 SWAP3 SWAP2 SWAP1 PUSH2 0xF7 SWAP1 PUSH2 0x516 JUMP JUMPDEST SWAP2 SWAP1 POP SSTORE POP PUSH1 0x0 PUSH1 0x40 MLOAD DUP1 PUSH1 0x80 ADD PUSH1 0x40 MSTORE DUP1 CALLVALUE DUP2 MSTORE PUSH1 0x20 ADD TIMESTAMP DUP2 MSTORE PUSH1 0x20 ADD CALLER PUSH20 0xFFFFFFFFFFFFFFFFFFFFFFFFFFFFFFFFFFFFFFFF AND DUP2 MSTORE PUSH1 0x20 ADD DUP4 DUP2 MSTORE POP SWAP1 POP DUP1 PUSH1 0x0 DUP1 CALLER PUSH20 0xFFFFFFFFFFFFFFFFFFFFFFFFFFFFFFFFFFFFFFFF AND PUSH20 0xFFFFFFFFFFFFFFFFFFFFFFFFFFFFFFFFFFFFFFFF AND DUP2 MSTORE PUSH1 0x20 ADD SWAP1 DUP2 MSTORE PUSH1 0x20 ADD PUSH1 0x0 KECCAK256 PUSH1 0x1 ADD PUSH1 0x0 DUP1 PUSH1 0x0 CALLER PUSH20 0xFFFFFFFFFFFFFFFFFFFFFFFFFFFFFFFFFFFFFFFF AND PUSH20 0xFFFFFFFFFFFFFFFFFFFFFFFFFFFFFFFFFFFFFFFF AND DUP2 MSTORE PUSH1 0x20 ADD SWAP1 DUP2 MSTORE PUSH1 0x20 ADD PUSH1 0x0 KECCAK256 PUSH1 0x0 ADD SLOAD DUP2 MSTORE PUSH1 0x20 ADD SWAP1 DUP2 MSTORE PUSH1 0x20 ADD PUSH1 0x0 KECCAK256 PUSH1 0x0 DUP3 ADD MLOAD DUP2 PUSH1 0x0 ADD SSTORE PUSH1 0x20 DUP3 ADD MLOAD DUP2 PUSH1 0x1 ADD SSTORE PUSH1 0x40 DUP3 ADD MLOAD DUP2 PUSH1 0x2 ADD PUSH1 0x0 PUSH2 0x100 EXP DUP2 SLOAD DUP2 PUSH20 0xFFFFFFFFFFFFFFFFFFFFFFFFFFFFFFFFFFFFFFFF MUL NOT AND SWAP1 DUP4 PUSH20 0xFFFFFFFFFFFFFFFFFFFFFFFFFFFFFFFFFFFFFFFF AND MUL OR SWAP1 SSTORE POP PUSH1 0x60 DUP3 ADD MLOAD DUP2 PUSH1 0x3 ADD SWAP1 DUP1 MLOAD SWAP1 PUSH1 0x20 ADD SWAP1 PUSH2 0x242 SWAP3 SWAP2 SWAP1 PUSH2 0x24A JUMP JUMPDEST POP SWAP1 POP POP POP POP JUMP JUMPDEST DUP3 DUP1 SLOAD PUSH2 0x256 SWAP1 PUSH2 0x4B3 JUMP JUMPDEST SWAP1 PUSH1 0x0 MSTORE PUSH1 0x20 PUSH1 0x0 KECCAK256 SWAP1 PUSH1 0x1F ADD PUSH1 0x20 SWAP1 DIV DUP2 ADD SWAP3 DUP3 PUSH2 0x278 JUMPI PUSH1 0x0 DUP6 SSTORE PUSH2 0x2BF JUMP JUMPDEST DUP3 PUSH1 0x1F LT PUSH2 0x291 JUMPI DUP1 MLOAD PUSH1 0xFF NOT AND DUP4 DUP1 ADD OR DUP6 SSTORE PUSH2 0x2BF JUMP JUMPDEST DUP3 DUP1 ADD PUSH1 0x1 ADD DUP6 SSTORE DUP3 ISZERO PUSH2 0x2BF JUMPI SWAP2 DUP3 ADD JUMPDEST DUP3 DUP2 GT ISZERO PUSH2 0x2BE JUMPI DUP3 MLOAD DUP3 SSTORE SWAP2 PUSH1 0x20 ADD SWAP2 SWAP1 PUSH1 0x1 ADD SWAP1 PUSH2 0x2A3 JUMP JUMPDEST JUMPDEST POP SWAP1 POP PUSH2 0x2CC SWAP2 SWAP1 PUSH2 0x2D0 JUMP JUMPDEST POP SWAP1 JUMP JUMPDEST JUMPDEST DUP1 DUP3 GT ISZERO PUSH2 0x2E9 JUMPI PUSH1 0x0 DUP2 PUSH1 0x0 SWAP1 SSTORE POP PUSH1 0x1 ADD PUSH2 0x2D1 JUMP JUMPDEST POP SWAP1 JUMP JUMPDEST PUSH1 0x0 PUSH2 0x300 PUSH2 0x2FB DUP5 PUSH2 0x437 JUMP JUMPDEST PUSH2 0x412 JUMP JUMPDEST SWAP1 POP DUP3 DUP2 MSTORE PUSH1 0x20 DUP2 ADD DUP5 DUP5 DUP5 ADD GT ISZERO PUSH2 0x31C JUMPI PUSH2 0x31B PUSH2 0x5F1 JUMP JUMPDEST JUMPDEST PUSH2 0x327 DUP5 DUP3 DUP6 PUSH2 0x4A4 JUMP JUMPDEST POP SWAP4 SWAP3 POP POP POP JUMP JUMPDEST PUSH1 0x0 DUP2 CALLDATALOAD SWAP1 POP PUSH2 0x33E DUP2 PUSH2 0x611 JUMP JUMPDEST SWAP3 SWAP2 POP POP JUMP JUMPDEST PUSH1 0x0 DUP3 PUSH1 0x1F DUP4 ADD SLT PUSH2 0x359 JUMPI PUSH2 0x358 PUSH2 0x5EC JUMP JUMPDEST JUMPDEST DUP2 CALLDATALOAD PUSH2 0x369 DUP5 DUP3 PUSH1 0x20 DUP7 ADD PUSH2 0x2ED JUMP JUMPDEST SWAP2 POP POP SWAP3 SWAP2 POP POP JUMP JUMPDEST PUSH1 0x0 PUSH1 0x20 DUP3 DUP5 SUB SLT ISZERO PUSH2 0x388 JUMPI PUSH2 0x387 PUSH2 0x5FB JUMP JUMPDEST JUMPDEST PUSH1 0x0 PUSH2 0x396 DUP5 DUP3 DUP6 ADD PUSH2 0x32F JUMP JUMPDEST SWAP2 POP POP SWAP3 SWAP2 POP POP JUMP JUMPDEST PUSH1 0x0 PUSH1 0x20 DUP3 DUP5 SUB SLT ISZERO PUSH2 0x3B5 JUMPI PUSH2 0x3B4 PUSH2 0x5FB JUMP JUMPDEST JUMPDEST PUSH1 0x0 DUP3 ADD CALLDATALOAD PUSH8 0xFFFFFFFFFFFFFFFF DUP2 GT ISZERO PUSH2 0x3D3 JUMPI PUSH2 0x3D2 PUSH2 0x5F6 JUMP JUMPDEST JUMPDEST PUSH2 0x3DF DUP5 DUP3 DUP6 ADD PUSH2 0x344 JUMP JUMPDEST SWAP2 POP POP SWAP3 SWAP2 POP POP JUMP JUMPDEST PUSH2 0x3F1 DUP2 PUSH2 0x49A JUMP JUMPDEST DUP3 MSTORE POP POP JUMP JUMPDEST PUSH1 0x0 PUSH1 0x20 DUP3 ADD SWAP1 POP PUSH2 0x40C PUSH1 0x0 DUP4 ADD DUP5 PUSH2 0x3E8 JUMP JUMPDEST SWAP3 SWAP2 POP POP JUMP JUMPDEST PUSH1 0x0 PUSH2 0x41C PUSH2 0x42D JUMP JUMPDEST SWAP1 POP PUSH2 0x428 DUP3 DUP3 PUSH2 0x4E5 JUMP JUMPDEST SWAP2 SWAP1 POP JUMP JUMPDEST PUSH1 0x0 PUSH1 0x40 MLOAD SWAP1 POP SWAP1 JUMP JUMPDEST PUSH1 0x0 PUSH8 0xFFFFFFFFFFFFFFFF DUP3 GT ISZERO PUSH2 0x452 JUMPI PUSH2 0x451 PUSH2 0x5BD JUMP JUMPDEST JUMPDEST PUSH2 0x45B DUP3 PUSH2 0x600 JUMP JUMPDEST SWAP1 POP PUSH1 0x20 DUP2 ADD SWAP1 POP SWAP2 SWAP1 POP JUMP JUMPDEST PUSH1 0x0 PUSH2 0x473 DUP3 PUSH2 0x47A JUMP JUMPDEST SWAP1 POP SWAP2 SWAP1 POP JUMP JUMPDEST PUSH1 0x0 PUSH20 0xFFFFFFFFFFFFFFFFFFFFFFFFFFFFFFFFFFFFFFFF DUP3 AND SWAP1 POP SWAP2 SWAP1 POP JUMP JUMPDEST PUSH1 0x0 DUP2 SWAP1 POP SWAP2 SWAP1 POP JUMP JUMPDEST DUP3 DUP2 DUP4 CALLDATACOPY PUSH1 0x0 DUP4 DUP4 ADD MSTORE POP POP POP JUMP JUMPDEST PUSH1 0x0 PUSH1 0x2 DUP3 DIV SWAP1 POP PUSH1 0x1 DUP3 AND DUP1 PUSH2 0x4CB JUMPI PUSH1 0x7F DUP3 AND SWAP2 POP JUMPDEST PUSH1 0x20 DUP3 LT DUP2 EQ ISZERO PUSH2 0x4DF JUMPI PUSH2 0x4DE PUSH2 0x58E JUMP JUMPDEST JUMPDEST POP SWAP2 SWAP1 POP JUMP JUMPDEST PUSH2 0x4EE DUP3 PUSH2 0x600 JUMP JUMPDEST DUP2 ADD DUP2 DUP2 LT PUSH8 0xFFFFFFFFFFFFFFFF DUP3 GT OR ISZERO PUSH2 0x50D JUMPI PUSH2 0x50C PUSH2 0x5BD JUMP JUMPDEST JUMPDEST DUP1 PUSH1 0x40 MSTORE POP POP POP JUMP JUMPDEST PUSH1 0x0 PUSH2 0x521 DUP3 PUSH2 0x49A JUMP JUMPDEST SWAP2 POP PUSH32 0xFFFFFFFFFFFFFFFFFFFFFFFFFFFFFFFFFFFFFFFFFFFFFFFFFFFFFFFFFFFFFFFF DUP3 EQ ISZERO PUSH2 0x554 JUMPI PUSH2 0x553 PUSH2 0x55F JUMP JUMPDEST JUMPDEST PUSH1 0x1 DUP3 ADD SWAP1 POP SWAP2 SWAP1 POP JUMP JUMPDEST PUSH32 0x4E487B7100000000000000000000000000000000000000000000000000000000 PUSH1 0x0 MSTORE PUSH1 0x11 PUSH1 0x4 MSTORE PUSH1 0x24 PUSH1 0x0 REVERT JUMPDEST PUSH32 0x4E487B7100000000000000000000000000000000000000000000000000000000 PUSH1 0x0 MSTORE PUSH1 0x22 PUSH1 0x4 MSTORE PUSH1 0x24 PUSH1 0x0 REVERT JUMPDEST PUSH32 0x4E487B7100000000000000000000000000000000000000000000000000000000 PUSH1 0x0 MSTORE PUSH1 0x41 PUSH1 0x4 MSTORE PUSH1 0x24 PUSH1 0x0 REVERT JUMPDEST PUSH1 0x0 DUP1 REVERT JUMPDEST PUSH1 0x0 DUP1 REVERT JUMPDEST PUSH1 0x0 DUP1 REVERT JUMPDEST PUSH1 0x0 DUP1 REVERT JUMPDEST PUSH1 0x0 PUSH1 0x1F NOT PUSH1 0x1F DUP4 ADD AND SWAP1 POP SWAP2 SWAP1 POP JUMP JUMPDEST PUSH2 0x61A DUP2 PUSH2 0x468 JUMP JUMPDEST DUP2 EQ PUSH2 0x625 JUMPI PUSH1 0x0 DUP1 REVERT JUMPDEST POP JUMP INVALID LOG2 PUSH5 0x6970667358 0x22 SLT KECCAK256 COINBASE 0xAA DIV DUP1 DUP15 STATICCALL 0xA9 GASPRICE 0xCE PUSH11 0x5CBA06B74183BBB76D08B8 0x2E 0xD0 0xE0 PUSH13 0x3651017533625264736F6C6343 STOP ADDMOD SMOD STOP CALLER "
				},
				"gasEstimates": {
					"creation": {
						"codeDepositCost": "326000",
						"executionCost": "362",
						"totalCost": "326362"
					},
					"external": {
						"balances(address)": "2806",
						"pay(string)": "infinite"
					}
				},
				"methodIdentifiers": {
					"balances(address)": "27e235e3",
					"pay(string)": "2b66d72e"
				}
			},
			"storageLayout": {
				"storage": [
					{
						"astId": 23,
						"contract": "contracts/Lesson5Types.sol:Struct5Lesson",
						"label": "balances",
						"offset": 0,
						"slot": "0",
						"type": "t_mapping(t_address,t_struct(Balance)18_storage)"
					}
				],
				"types": {
					"t_address": {
						"encoding": "inplace",
						"label": "address",
						"numberOfBytes": "20"
					},
					"t_mapping(t_address,t_struct(Balance)18_storage)": {
						"encoding": "mapping",
						"key": "t_address",
						"label": "mapping(address => struct Struct5Lesson.Balance)",
						"numberOfBytes": "32",
						"value": "t_struct(Balance)18_storage"
					},
					"t_mapping(t_uint256,t_struct(Payment)10_storage)": {
						"encoding": "mapping",
						"key": "t_uint256",
						"label": "mapping(uint256 => struct Struct5Lesson.Payment)",
						"numberOfBytes": "32",
						"value": "t_struct(Payment)10_storage"
					},
					"t_string_storage": {
						"encoding": "bytes",
						"label": "string",
						"numberOfBytes": "32"
					},
					"t_struct(Balance)18_storage": {
						"encoding": "inplace",
						"label": "struct Struct5Lesson.Balance",
						"members": [
							{
								"astId": 12,
								"contract": "contracts/Lesson5Types.sol:Struct5Lesson",
								"label": "totalPayments",
								"offset": 0,
								"slot": "0",
								"type": "t_uint256"
							},
							{
								"astId": 17,
								"contract": "contracts/Lesson5Types.sol:Struct5Lesson",
								"label": "payments",
								"offset": 0,
								"slot": "1",
								"type": "t_mapping(t_uint256,t_struct(Payment)10_storage)"
							}
						],
						"numberOfBytes": "64"
					},
					"t_struct(Payment)10_storage": {
						"encoding": "inplace",
						"label": "struct Struct5Lesson.Payment",
						"members": [
							{
								"astId": 3,
								"contract": "contracts/Lesson5Types.sol:Struct5Lesson",
								"label": "amount",
								"offset": 0,
								"slot": "0",
								"type": "t_uint256"
							},
							{
								"astId": 5,
								"contract": "contracts/Lesson5Types.sol:Struct5Lesson",
								"label": "timestamp",
								"offset": 0,
								"slot": "1",
								"type": "t_uint256"
							},
							{
								"astId": 7,
								"contract": "contracts/Lesson5Types.sol:Struct5Lesson",
								"label": "from",
								"offset": 0,
								"slot": "2",
								"type": "t_address"
							},
							{
								"astId": 9,
								"contract": "contracts/Lesson5Types.sol:Struct5Lesson",
								"label": "message",
								"offset": 0,
								"slot": "3",
								"type": "t_string_storage"
							}
						],
						"numberOfBytes": "128"
					},
					"t_uint256": {
						"encoding": "inplace",
						"label": "uint256",
						"numberOfBytes": "32"
					}
				}
			},
			"userdoc": {
				"kind": "user",
				"methods": {},
				"version": 1
			}
		}
	}
}