{
	"contracts/Lesson1Types.sol": {
		"DemoInt": {
			"abi": [
				{
					"inputs": [],
					"name": "demo",
					"outputs": [],
					"stateMutability": "nonpayable",
					"type": "function"
				},
				{
					"inputs": [],
					"name": "max",
					"outputs": [
						{
							"internalType": "uint256",
							"name": "",
							"type": "uint256"
						}
					],
					"stateMutability": "view",
					"type": "function"
				},
				{
					"inputs": [],
					"name": "min",
					"outputs": [
						{
							"internalType": "uint256",
							"name": "",
							"type": "uint256"
						}
					],
					"stateMutability": "view",
					"type": "function"
				},
				{
					"inputs": [
						{
							"internalType": "uint256",
							"name": "_tempUint",
							"type": "uint256"
						}
					],
					"name": "myFunc",
					"outputs": [],
					"stateMutability": "nonpayable",
					"type": "function"
				},
				{
					"inputs": [],
					"name": "myInt",
					"outputs": [
						{
							"internalType": "int256",
							"name": "",
							"type": "int256"
						}
					],
					"stateMutability": "view",
					"type": "function"
				},
				{
					"inputs": [],
					"name": "mySmallestInt",
					"outputs": [
						{
							"internalType": "int8",
							"name": "",
							"type": "int8"
						}
					],
					"stateMutability": "view",
					"type": "function"
				}
			],
			"devdoc": {
				"kind": "dev",
				"methods": {},
				"version": 1
			},
			"evm": {
				"assembly": "    /* \"contracts/Lesson1Types.sol\":1029:2103  contract DemoInt {... */\n  mstore(0x40, 0x80)\n    /* \"contracts/Lesson1Types.sol\":1066:1068  10 */\n  0x0a\n    /* \"contracts/Lesson1Types.sol\":1052:1068  uint myUint = 10 */\n  0x00\n  sstore\n    /* \"contracts/Lesson1Types.sol\":1885:1888  -22 */\n  0xffffffffffffffffffffffffffffffffffffffffffffffffffffffffffffffea\n    /* \"contracts/Lesson1Types.sol\":1866:1888  int public myInt = -22 */\n  0x01\n  sstore\n    /* \"contracts/Lesson1Types.sol\":1922:1924  -1 */\n  0xffffffffffffffffffffffffffffffffffffffffffffffffffffffffffffffff\n    /* \"contracts/Lesson1Types.sol\":1894:1924  int8 public mySmallestInt = -1 */\n  0x02\n  exp(0x0100, 0x00)\n  dup2\n  sload\n  dup2\n  0xff\n  mul\n  not\n  and\n  swap1\n  dup4\n  0x00\n  signextend\n  0xff\n  and\n  mul\n  or\n  swap1\n  sstore\n  pop\n    /* \"contracts/Lesson1Types.sol\":1029:2103  contract DemoInt {... */\n  callvalue\n  dup1\n  iszero\n  tag_1\n  jumpi\n  0x00\n  dup1\n  revert\ntag_1:\n  pop\n  dataSize(sub_0)\n  dup1\n  dataOffset(sub_0)\n  0x00\n  codecopy\n  0x00\n  return\nstop\n\nsub_0: assembly {\n        /* \"contracts/Lesson1Types.sol\":1029:2103  contract DemoInt {... */\n      mstore(0x40, 0x80)\n      callvalue\n      dup1\n      iszero\n      tag_1\n      jumpi\n      0x00\n      dup1\n      revert\n    tag_1:\n      pop\n      jumpi(tag_2, lt(calldatasize, 0x04))\n      shr(0xe0, calldataload(0x00))\n      dup1\n      0x01725a0b\n      eq\n      tag_3\n      jumpi\n      dup1\n      0x0b79ba80\n      eq\n      tag_4\n      jumpi\n      dup1\n      0x2cb777a6\n      eq\n      tag_5\n      jumpi\n      dup1\n      0x6ac5db19\n      eq\n      tag_6\n      jumpi\n      dup1\n      0xa9bf5633\n      eq\n      tag_7\n      jumpi\n      dup1\n      0xf8897945\n      eq\n      tag_8\n      jumpi\n    tag_2:\n      0x00\n      dup1\n      revert\n        /* \"contracts/Lesson1Types.sol\":2009:2101  function demo() public {... */\n    tag_3:\n      tag_9\n      tag_10\n      jump\t// in\n    tag_9:\n      stop\n        /* \"contracts/Lesson1Types.sol\":1894:1924  int8 public mySmallestInt = -1 */\n    tag_4:\n      tag_11\n      tag_12\n      jump\t// in\n    tag_11:\n      mload(0x40)\n      tag_13\n      swap2\n      swap1\n      tag_14\n      jump\t// in\n    tag_13:\n      mload(0x40)\n      dup1\n      swap2\n      sub\n      swap1\n      return\n        /* \"contracts/Lesson1Types.sol\":1866:1888  int public myInt = -22 */\n    tag_5:\n      tag_15\n      tag_16\n      jump\t// in\n    tag_15:\n      mload(0x40)\n      tag_17\n      swap2\n      swap1\n      tag_18\n      jump\t// in\n    tag_17:\n      mload(0x40)\n      dup1\n      swap2\n      sub\n      swap1\n      return\n        /* \"contracts/Lesson1Types.sol\":1987:2002  uint public max */\n    tag_6:\n      tag_19\n      tag_20\n      jump\t// in\n    tag_19:\n      mload(0x40)\n      tag_21\n      swap2\n      swap1\n      tag_22\n      jump\t// in\n    tag_21:\n      mload(0x40)\n      dup1\n      swap2\n      sub\n      swap1\n      return\n        /* \"contracts/Lesson1Types.sol\":1125:1844  function myFunc(uint _tempUint) public {... */\n    tag_7:\n      tag_23\n      0x04\n      dup1\n      calldatasize\n      sub\n      dup2\n      add\n      swap1\n      tag_24\n      swap2\n      swap1\n      tag_25\n      jump\t// in\n    tag_24:\n      tag_26\n      jump\t// in\n    tag_23:\n      stop\n        /* \"contracts/Lesson1Types.sol\":1966:1981  uint public min */\n    tag_8:\n      tag_27\n      tag_28\n      jump\t// in\n    tag_27:\n      mload(0x40)\n      tag_29\n      swap2\n      swap1\n      tag_22\n      jump\t// in\n    tag_29:\n      mload(0x40)\n      dup1\n      swap2\n      sub\n      swap1\n      return\n        /* \"contracts/Lesson1Types.sol\":2009:2101  function demo() public {... */\n    tag_10:\n        /* \"contracts/Lesson1Types.sol\":2048:2063  type(uint8).min */\n      0x00\n        /* \"contracts/Lesson1Types.sol\":2042:2063  min = type(uint8).min */\n      0xff\n      and\n        /* \"contracts/Lesson1Types.sol\":2042:2045  min */\n      0x03\n        /* \"contracts/Lesson1Types.sol\":2042:2063  min = type(uint8).min */\n      dup2\n      swap1\n      sstore\n      pop\n        /* \"contracts/Lesson1Types.sol\":2079:2094  type(uint8).max */\n      0xff\n        /* \"contracts/Lesson1Types.sol\":2073:2094  max = type(uint8).max */\n      dup1\n      and\n        /* \"contracts/Lesson1Types.sol\":2073:2076  max */\n      0x04\n        /* \"contracts/Lesson1Types.sol\":2073:2094  max = type(uint8).max */\n      dup2\n      swap1\n      sstore\n      pop\n        /* \"contracts/Lesson1Types.sol\":2009:2101  function demo() public {... */\n      jump\t// out\n        /* \"contracts/Lesson1Types.sol\":1894:1924  int8 public mySmallestInt = -1 */\n    tag_12:\n      0x02\n      0x00\n      swap1\n      sload\n      swap1\n      0x0100\n      exp\n      swap1\n      div\n      0x00\n      signextend\n      dup2\n      jump\t// out\n        /* \"contracts/Lesson1Types.sol\":1866:1888  int public myInt = -22 */\n    tag_16:\n      sload(0x01)\n      dup2\n      jump\t// out\n        /* \"contracts/Lesson1Types.sol\":1987:2002  uint public max */\n    tag_20:\n      sload(0x04)\n      dup2\n      jump\t// out\n        /* \"contracts/Lesson1Types.sol\":1125:1844  function myFunc(uint _tempUint) public {... */\n    tag_26:\n        /* \"contracts/Lesson1Types.sol\":1174:1188  uint localUint */\n      0x00\n        /* \"contracts/Lesson1Types.sol\":1191:1193  42 */\n      0x2a\n        /* \"contracts/Lesson1Types.sol\":1174:1193  uint localUint = 42 */\n      swap1\n      pop\n        /* \"contracts/Lesson1Types.sol\":1203:1218  uint256 newUint */\n      0x00\n        /* \"contracts/Lesson1Types.sol\":1221:1225  1234 */\n      0x04d2\n        /* \"contracts/Lesson1Types.sol\":1203:1225  uint256 newUint = 1234 */\n      swap1\n      pop\n        /* \"contracts/Lesson1Types.sol\":1275:1293  uint8 smallestUint */\n      0x00\n        /* \"contracts/Lesson1Types.sol\":1296:1297  2 */\n      0x02\n        /* \"contracts/Lesson1Types.sol\":1275:1297  uint8 smallestUint = 2 */\n      swap1\n      pop\n        /* \"contracts/Lesson1Types.sol\":1352:1353  1 */\n      0x01\n        /* \"contracts/Lesson1Types.sol\":1340:1349  localUint */\n      dup4\n        /* \"contracts/Lesson1Types.sol\":1340:1353  localUint + 1 */\n      tag_32\n      swap2\n      swap1\n      tag_33\n      jump\t// in\n    tag_32:\n      pop\n        /* \"contracts/Lesson1Types.sol\":1375:1376  1 */\n      0x01\n        /* \"contracts/Lesson1Types.sol\":1363:1372  localUint */\n      dup4\n        /* \"contracts/Lesson1Types.sol\":1363:1376  localUint - 1 */\n      tag_34\n      swap2\n      swap1\n      tag_35\n      jump\t// in\n    tag_34:\n      pop\n        /* \"contracts/Lesson1Types.sol\":1398:1399  5 */\n      0x05\n        /* \"contracts/Lesson1Types.sol\":1386:1395  localUint */\n      dup4\n        /* \"contracts/Lesson1Types.sol\":1386:1399  localUint * 5 */\n      tag_36\n      swap2\n      swap1\n      tag_37\n      jump\t// in\n    tag_36:\n      pop\n        /* \"contracts/Lesson1Types.sol\":1421:1422  5 */\n      0x05\n        /* \"contracts/Lesson1Types.sol\":1409:1418  localUint */\n      dup4\n        /* \"contracts/Lesson1Types.sol\":1409:1422  localUint / 5 */\n      tag_38\n      swap2\n      swap1\n      tag_39\n      jump\t// in\n    tag_38:\n      pop\n        /* \"contracts/Lesson1Types.sol\":1445:1446  2 */\n      0x02\n        /* \"contracts/Lesson1Types.sol\":1432:1441  localUint */\n      dup4\n        /* \"contracts/Lesson1Types.sol\":1432:1446  localUint ** 2 */\n      tag_40\n      swap2\n      swap1\n      tag_41\n      jump\t// in\n    tag_40:\n      pop\n        /* \"contracts/Lesson1Types.sol\":1510:1511  1 */\n      0x01\n        /* \"contracts/Lesson1Types.sol\":1498:1507  localUint */\n      dup4\n        /* \"contracts/Lesson1Types.sol\":1498:1511  localUint % 1 */\n      tag_42\n      swap2\n      swap1\n      tag_43\n      jump\t// in\n    tag_42:\n      pop\n        /* \"contracts/Lesson1Types.sol\":1164:1844  {... */\n      pop\n      pop\n      pop\n        /* \"contracts/Lesson1Types.sol\":1125:1844  function myFunc(uint _tempUint) public {... */\n      pop\n      jump\t// out\n        /* \"contracts/Lesson1Types.sol\":1966:1981  uint public min */\n    tag_28:\n      sload(0x03)\n      dup2\n      jump\t// out\n        /* \"#utility.yul\":7:146   */\n    tag_45:\n        /* \"#utility.yul\":53:58   */\n      0x00\n        /* \"#utility.yul\":91:97   */\n      dup2\n        /* \"#utility.yul\":78:98   */\n      calldataload\n        /* \"#utility.yul\":69:98   */\n      swap1\n      pop\n        /* \"#utility.yul\":107:140   */\n      tag_47\n        /* \"#utility.yul\":134:139   */\n      dup2\n        /* \"#utility.yul\":107:140   */\n      tag_48\n      jump\t// in\n    tag_47:\n        /* \"#utility.yul\":7:146   */\n      swap3\n      swap2\n      pop\n      pop\n      jump\t// out\n        /* \"#utility.yul\":152:481   */\n    tag_25:\n        /* \"#utility.yul\":211:217   */\n      0x00\n        /* \"#utility.yul\":260:262   */\n      0x20\n        /* \"#utility.yul\":248:257   */\n      dup3\n        /* \"#utility.yul\":239:246   */\n      dup5\n        /* \"#utility.yul\":235:258   */\n      sub\n        /* \"#utility.yul\":231:263   */\n      slt\n        /* \"#utility.yul\":228:347   */\n      iszero\n      tag_50\n      jumpi\n        /* \"#utility.yul\":266:345   */\n      tag_51\n      tag_52\n      jump\t// in\n    tag_51:\n        /* \"#utility.yul\":228:347   */\n    tag_50:\n        /* \"#utility.yul\":386:387   */\n      0x00\n        /* \"#utility.yul\":411:464   */\n      tag_53\n        /* \"#utility.yul\":456:463   */\n      dup5\n        /* \"#utility.yul\":447:453   */\n      dup3\n        /* \"#utility.yul\":436:445   */\n      dup6\n        /* \"#utility.yul\":432:454   */\n      add\n        /* \"#utility.yul\":411:464   */\n      tag_45\n      jump\t// in\n    tag_53:\n        /* \"#utility.yul\":401:464   */\n      swap2\n      pop\n        /* \"#utility.yul\":357:474   */\n      pop\n        /* \"#utility.yul\":152:481   */\n      swap3\n      swap2\n      pop\n      pop\n      jump\t// out\n        /* \"#utility.yul\":487:602   */\n    tag_54:\n        /* \"#utility.yul\":572:595   */\n      tag_56\n        /* \"#utility.yul\":589:594   */\n      dup2\n        /* \"#utility.yul\":572:595   */\n      tag_57\n      jump\t// in\n    tag_56:\n        /* \"#utility.yul\":567:570   */\n      dup3\n        /* \"#utility.yul\":560:596   */\n      mstore\n        /* \"#utility.yul\":487:602   */\n      pop\n      pop\n      jump\t// out\n        /* \"#utility.yul\":608:717   */\n    tag_58:\n        /* \"#utility.yul\":689:710   */\n      tag_60\n        /* \"#utility.yul\":704:709   */\n      dup2\n        /* \"#utility.yul\":689:710   */\n      tag_61\n      jump\t// in\n    tag_60:\n        /* \"#utility.yul\":684:687   */\n      dup3\n        /* \"#utility.yul\":677:711   */\n      mstore\n        /* \"#utility.yul\":608:717   */\n      pop\n      pop\n      jump\t// out\n        /* \"#utility.yul\":723:841   */\n    tag_62:\n        /* \"#utility.yul\":810:834   */\n      tag_64\n        /* \"#utility.yul\":828:833   */\n      dup2\n        /* \"#utility.yul\":810:834   */\n      tag_65\n      jump\t// in\n    tag_64:\n        /* \"#utility.yul\":805:808   */\n      dup3\n        /* \"#utility.yul\":798:835   */\n      mstore\n        /* \"#utility.yul\":723:841   */\n      pop\n      pop\n      jump\t// out\n        /* \"#utility.yul\":847:1065   */\n    tag_18:\n        /* \"#utility.yul\":938:942   */\n      0x00\n        /* \"#utility.yul\":976:978   */\n      0x20\n        /* \"#utility.yul\":965:974   */\n      dup3\n        /* \"#utility.yul\":961:979   */\n      add\n        /* \"#utility.yul\":953:979   */\n      swap1\n      pop\n        /* \"#utility.yul\":989:1058   */\n      tag_67\n        /* \"#utility.yul\":1055:1056   */\n      0x00\n        /* \"#utility.yul\":1044:1053   */\n      dup4\n        /* \"#utility.yul\":1040:1057   */\n      add\n        /* \"#utility.yul\":1031:1037   */\n      dup5\n        /* \"#utility.yul\":989:1058   */\n      tag_54\n      jump\t// in\n    tag_67:\n        /* \"#utility.yul\":847:1065   */\n      swap3\n      swap2\n      pop\n      pop\n      jump\t// out\n        /* \"#utility.yul\":1071:1281   */\n    tag_14:\n        /* \"#utility.yul\":1158:1162   */\n      0x00\n        /* \"#utility.yul\":1196:1198   */\n      0x20\n        /* \"#utility.yul\":1185:1194   */\n      dup3\n        /* \"#utility.yul\":1181:1199   */\n      add\n        /* \"#utility.yul\":1173:1199   */\n      swap1\n      pop\n        /* \"#utility.yul\":1209:1274   */\n      tag_69\n        /* \"#utility.yul\":1271:1272   */\n      0x00\n        /* \"#utility.yul\":1260:1269   */\n      dup4\n        /* \"#utility.yul\":1256:1273   */\n      add\n        /* \"#utility.yul\":1247:1253   */\n      dup5\n        /* \"#utility.yul\":1209:1274   */\n      tag_58\n      jump\t// in\n    tag_69:\n        /* \"#utility.yul\":1071:1281   */\n      swap3\n      swap2\n      pop\n      pop\n      jump\t// out\n        /* \"#utility.yul\":1287:1509   */\n    tag_22:\n        /* \"#utility.yul\":1380:1384   */\n      0x00\n        /* \"#utility.yul\":1418:1420   */\n      0x20\n        /* \"#utility.yul\":1407:1416   */\n      dup3\n        /* \"#utility.yul\":1403:1421   */\n      add\n        /* \"#utility.yul\":1395:1421   */\n      swap1\n      pop\n        /* \"#utility.yul\":1431:1502   */\n      tag_71\n        /* \"#utility.yul\":1499:1500   */\n      0x00\n        /* \"#utility.yul\":1488:1497   */\n      dup4\n        /* \"#utility.yul\":1484:1501   */\n      add\n        /* \"#utility.yul\":1475:1481   */\n      dup5\n        /* \"#utility.yul\":1431:1502   */\n      tag_62\n      jump\t// in\n    tag_71:\n        /* \"#utility.yul\":1287:1509   */\n      swap3\n      swap2\n      pop\n      pop\n      jump\t// out\n        /* \"#utility.yul\":1596:1901   */\n    tag_33:\n        /* \"#utility.yul\":1636:1639   */\n      0x00\n        /* \"#utility.yul\":1655:1675   */\n      tag_75\n        /* \"#utility.yul\":1673:1674   */\n      dup3\n        /* \"#utility.yul\":1655:1675   */\n      tag_65\n      jump\t// in\n    tag_75:\n        /* \"#utility.yul\":1650:1675   */\n      swap2\n      pop\n        /* \"#utility.yul\":1689:1709   */\n      tag_76\n        /* \"#utility.yul\":1707:1708   */\n      dup4\n        /* \"#utility.yul\":1689:1709   */\n      tag_65\n      jump\t// in\n    tag_76:\n        /* \"#utility.yul\":1684:1709   */\n      swap3\n      pop\n        /* \"#utility.yul\":1843:1844   */\n      dup3\n        /* \"#utility.yul\":1775:1841   */\n      0xffffffffffffffffffffffffffffffffffffffffffffffffffffffffffffffff\n        /* \"#utility.yul\":1771:1845   */\n      sub\n        /* \"#utility.yul\":1768:1769   */\n      dup3\n        /* \"#utility.yul\":1765:1846   */\n      gt\n        /* \"#utility.yul\":1762:1869   */\n      iszero\n      tag_77\n      jumpi\n        /* \"#utility.yul\":1849:1867   */\n      tag_78\n      tag_79\n      jump\t// in\n    tag_78:\n        /* \"#utility.yul\":1762:1869   */\n    tag_77:\n        /* \"#utility.yul\":1893:1894   */\n      dup3\n        /* \"#utility.yul\":1890:1891   */\n      dup3\n        /* \"#utility.yul\":1886:1895   */\n      add\n        /* \"#utility.yul\":1879:1895   */\n      swap1\n      pop\n        /* \"#utility.yul\":1596:1901   */\n      swap3\n      swap2\n      pop\n      pop\n      jump\t// out\n        /* \"#utility.yul\":1907:2092   */\n    tag_39:\n        /* \"#utility.yul\":1947:1948   */\n      0x00\n        /* \"#utility.yul\":1964:1984   */\n      tag_81\n        /* \"#utility.yul\":1982:1983   */\n      dup3\n        /* \"#utility.yul\":1964:1984   */\n      tag_65\n      jump\t// in\n    tag_81:\n        /* \"#utility.yul\":1959:1984   */\n      swap2\n      pop\n        /* \"#utility.yul\":1998:2018   */\n      tag_82\n        /* \"#utility.yul\":2016:2017   */\n      dup4\n        /* \"#utility.yul\":1998:2018   */\n      tag_65\n      jump\t// in\n    tag_82:\n        /* \"#utility.yul\":1993:2018   */\n      swap3\n      pop\n        /* \"#utility.yul\":2037:2038   */\n      dup3\n        /* \"#utility.yul\":2027:2062   */\n      tag_83\n      jumpi\n        /* \"#utility.yul\":2042:2060   */\n      tag_84\n      tag_85\n      jump\t// in\n    tag_84:\n        /* \"#utility.yul\":2027:2062   */\n    tag_83:\n        /* \"#utility.yul\":2084:2085   */\n      dup3\n        /* \"#utility.yul\":2081:2082   */\n      dup3\n        /* \"#utility.yul\":2077:2086   */\n      div\n        /* \"#utility.yul\":2072:2086   */\n      swap1\n      pop\n        /* \"#utility.yul\":1907:2092   */\n      swap3\n      swap2\n      pop\n      pop\n      jump\t// out\n        /* \"#utility.yul\":2098:2946   */\n    tag_86:\n        /* \"#utility.yul\":2159:2164   */\n      0x00\n        /* \"#utility.yul\":2166:2170   */\n      dup1\n        /* \"#utility.yul\":2190:2196   */\n      dup3\n        /* \"#utility.yul\":2181:2196   */\n      swap2\n      pop\n        /* \"#utility.yul\":2214:2219   */\n      dup4\n        /* \"#utility.yul\":2205:2219   */\n      swap1\n      pop\n        /* \"#utility.yul\":2228:2940   */\n    tag_88:\n        /* \"#utility.yul\":2249:2250   */\n      0x01\n        /* \"#utility.yul\":2239:2247   */\n      dup6\n        /* \"#utility.yul\":2236:2251   */\n      gt\n        /* \"#utility.yul\":2228:2940   */\n      iszero\n      tag_90\n      jumpi\n        /* \"#utility.yul\":2344:2348   */\n      dup1\n        /* \"#utility.yul\":2339:2342   */\n      dup7\n        /* \"#utility.yul\":2335:2349   */\n      div\n        /* \"#utility.yul\":2329:2333   */\n      dup2\n        /* \"#utility.yul\":2326:2350   */\n      gt\n        /* \"#utility.yul\":2323:2373   */\n      iszero\n      tag_91\n      jumpi\n        /* \"#utility.yul\":2353:2371   */\n      tag_92\n      tag_79\n      jump\t// in\n    tag_92:\n        /* \"#utility.yul\":2323:2373   */\n    tag_91:\n        /* \"#utility.yul\":2403:2404   */\n      0x01\n        /* \"#utility.yul\":2393:2401   */\n      dup6\n        /* \"#utility.yul\":2389:2405   */\n      and\n        /* \"#utility.yul\":2386:2837   */\n      iszero\n      tag_93\n      jumpi\n        /* \"#utility.yul\":2818:2822   */\n      dup1\n        /* \"#utility.yul\":2811:2816   */\n      dup3\n        /* \"#utility.yul\":2807:2823   */\n      mul\n        /* \"#utility.yul\":2798:2823   */\n      swap2\n      pop\n        /* \"#utility.yul\":2386:2837   */\n    tag_93:\n        /* \"#utility.yul\":2868:2872   */\n      dup1\n        /* \"#utility.yul\":2862:2866   */\n      dup2\n        /* \"#utility.yul\":2858:2873   */\n      mul\n        /* \"#utility.yul\":2850:2873   */\n      swap1\n      pop\n        /* \"#utility.yul\":2898:2930   */\n      tag_94\n        /* \"#utility.yul\":2921:2929   */\n      dup6\n        /* \"#utility.yul\":2898:2930   */\n      tag_95\n      jump\t// in\n    tag_94:\n        /* \"#utility.yul\":2886:2930   */\n      swap5\n      pop\n        /* \"#utility.yul\":2228:2940   */\n      jump(tag_88)\n    tag_90:\n        /* \"#utility.yul\":2098:2946   */\n      swap5\n      pop\n      swap5\n      swap3\n      pop\n      pop\n      pop\n      jump\t// out\n        /* \"#utility.yul\":2952:3233   */\n    tag_41:\n        /* \"#utility.yul\":3010:3015   */\n      0x00\n        /* \"#utility.yul\":3034:3057   */\n      tag_97\n        /* \"#utility.yul\":3052:3056   */\n      dup3\n        /* \"#utility.yul\":3034:3057   */\n      tag_65\n      jump\t// in\n    tag_97:\n        /* \"#utility.yul\":3026:3057   */\n      swap2\n      pop\n        /* \"#utility.yul\":3078:3103   */\n      tag_98\n        /* \"#utility.yul\":3094:3102   */\n      dup4\n        /* \"#utility.yul\":3078:3103   */\n      tag_99\n      jump\t// in\n    tag_98:\n        /* \"#utility.yul\":3066:3103   */\n      swap3\n      pop\n        /* \"#utility.yul\":3122:3226   */\n      tag_100\n        /* \"#utility.yul\":3159:3225   */\n      0xffffffffffffffffffffffffffffffffffffffffffffffffffffffffffffffff\n        /* \"#utility.yul\":3149:3157   */\n      dup5\n        /* \"#utility.yul\":3143:3147   */\n      dup5\n        /* \"#utility.yul\":3122:3226   */\n      tag_101\n      jump\t// in\n    tag_100:\n        /* \"#utility.yul\":3113:3226   */\n      swap1\n      pop\n        /* \"#utility.yul\":2952:3233   */\n      swap3\n      swap2\n      pop\n      pop\n      jump\t// out\n        /* \"#utility.yul\":3239:4312   */\n    tag_101:\n        /* \"#utility.yul\":3293:3298   */\n      0x00\n        /* \"#utility.yul\":3484:3492   */\n      dup3\n        /* \"#utility.yul\":3474:3514   */\n      tag_103\n      jumpi\n        /* \"#utility.yul\":3505:3506   */\n      0x01\n        /* \"#utility.yul\":3496:3506   */\n      swap1\n      pop\n        /* \"#utility.yul\":3507:3512   */\n      jump(tag_102)\n        /* \"#utility.yul\":3474:3514   */\n    tag_103:\n        /* \"#utility.yul\":3533:3537   */\n      dup2\n        /* \"#utility.yul\":3523:3559   */\n      tag_104\n      jumpi\n        /* \"#utility.yul\":3550:3551   */\n      0x00\n        /* \"#utility.yul\":3541:3551   */\n      swap1\n      pop\n        /* \"#utility.yul\":3552:3557   */\n      jump(tag_102)\n        /* \"#utility.yul\":3523:3559   */\n    tag_104:\n        /* \"#utility.yul\":3619:3623   */\n      dup2\n        /* \"#utility.yul\":3667:3668   */\n      0x01\n        /* \"#utility.yul\":3662:3689   */\n      dup2\n      eq\n      tag_106\n      jumpi\n        /* \"#utility.yul\":3703:3704   */\n      0x02\n        /* \"#utility.yul\":3698:3889   */\n      dup2\n      eq\n      tag_107\n      jumpi\n        /* \"#utility.yul\":3612:3889   */\n      jump(tag_105)\n        /* \"#utility.yul\":3662:3689   */\n    tag_106:\n        /* \"#utility.yul\":3680:3681   */\n      0x01\n        /* \"#utility.yul\":3671:3681   */\n      swap2\n      pop\n        /* \"#utility.yul\":3682:3687   */\n      pop\n      jump(tag_102)\n        /* \"#utility.yul\":3698:3889   */\n    tag_107:\n        /* \"#utility.yul\":3743:3746   */\n      0xff\n        /* \"#utility.yul\":3733:3741   */\n      dup5\n        /* \"#utility.yul\":3730:3747   */\n      gt\n        /* \"#utility.yul\":3727:3770   */\n      iszero\n      tag_108\n      jumpi\n        /* \"#utility.yul\":3750:3768   */\n      tag_109\n      tag_79\n      jump\t// in\n    tag_109:\n        /* \"#utility.yul\":3727:3770   */\n    tag_108:\n        /* \"#utility.yul\":3799:3807   */\n      dup4\n        /* \"#utility.yul\":3796:3797   */\n      0x02\n        /* \"#utility.yul\":3792:3808   */\n      exp\n        /* \"#utility.yul\":3783:3808   */\n      swap2\n      pop\n        /* \"#utility.yul\":3834:3837   */\n      dup5\n        /* \"#utility.yul\":3827:3832   */\n      dup3\n        /* \"#utility.yul\":3824:3838   */\n      gt\n        /* \"#utility.yul\":3821:3861   */\n      iszero\n      tag_110\n      jumpi\n        /* \"#utility.yul\":3841:3859   */\n      tag_111\n      tag_79\n      jump\t// in\n    tag_111:\n        /* \"#utility.yul\":3821:3861   */\n    tag_110:\n        /* \"#utility.yul\":3874:3879   */\n      pop\n      jump(tag_102)\n        /* \"#utility.yul\":3612:3889   */\n    tag_105:\n      pop\n        /* \"#utility.yul\":3998:4000   */\n      0x20\n        /* \"#utility.yul\":3988:3996   */\n      dup4\n        /* \"#utility.yul\":3985:4001   */\n      lt\n        /* \"#utility.yul\":3979:3982   */\n      0x0133\n        /* \"#utility.yul\":3973:3977   */\n      dup4\n        /* \"#utility.yul\":3970:3983   */\n      lt\n        /* \"#utility.yul\":3966:4002   */\n      and\n        /* \"#utility.yul\":3948:3950   */\n      0x4e\n        /* \"#utility.yul\":3938:3946   */\n      dup5\n        /* \"#utility.yul\":3935:3951   */\n      lt\n        /* \"#utility.yul\":3930:3932   */\n      0x0b\n        /* \"#utility.yul\":3924:3928   */\n      dup5\n        /* \"#utility.yul\":3921:3933   */\n      lt\n        /* \"#utility.yul\":3917:3952   */\n      and\n        /* \"#utility.yul\":3901:4012   */\n      or\n        /* \"#utility.yul\":3898:4144   */\n      iszero\n      tag_112\n      jumpi\n        /* \"#utility.yul\":4054:4062   */\n      dup3\n        /* \"#utility.yul\":4048:4052   */\n      dup3\n        /* \"#utility.yul\":4044:4063   */\n      exp\n        /* \"#utility.yul\":4035:4063   */\n      swap1\n      pop\n        /* \"#utility.yul\":4089:4092   */\n      dup4\n        /* \"#utility.yul\":4082:4087   */\n      dup2\n        /* \"#utility.yul\":4079:4093   */\n      gt\n        /* \"#utility.yul\":4076:4116   */\n      iszero\n      tag_113\n      jumpi\n        /* \"#utility.yul\":4096:4114   */\n      tag_114\n      tag_79\n      jump\t// in\n    tag_114:\n        /* \"#utility.yul\":4076:4116   */\n    tag_113:\n        /* \"#utility.yul\":4129:4134   */\n      jump(tag_102)\n        /* \"#utility.yul\":3898:4144   */\n    tag_112:\n        /* \"#utility.yul\":4169:4211   */\n      tag_115\n        /* \"#utility.yul\":4207:4210   */\n      dup5\n        /* \"#utility.yul\":4197:4205   */\n      dup5\n        /* \"#utility.yul\":4191:4195   */\n      dup5\n        /* \"#utility.yul\":4188:4189   */\n      0x01\n        /* \"#utility.yul\":4169:4211   */\n      tag_86\n      jump\t// in\n    tag_115:\n        /* \"#utility.yul\":4154:4211   */\n      swap3\n      pop\n      swap1\n      pop\n        /* \"#utility.yul\":4243:4247   */\n      dup2\n        /* \"#utility.yul\":4238:4241   */\n      dup5\n        /* \"#utility.yul\":4234:4248   */\n      div\n        /* \"#utility.yul\":4227:4232   */\n      dup2\n        /* \"#utility.yul\":4224:4249   */\n      gt\n        /* \"#utility.yul\":4221:4272   */\n      iszero\n      tag_116\n      jumpi\n        /* \"#utility.yul\":4252:4270   */\n      tag_117\n      tag_79\n      jump\t// in\n    tag_117:\n        /* \"#utility.yul\":4221:4272   */\n    tag_116:\n        /* \"#utility.yul\":4301:4305   */\n      dup2\n        /* \"#utility.yul\":4294:4299   */\n      dup2\n        /* \"#utility.yul\":4290:4306   */\n      mul\n        /* \"#utility.yul\":4281:4306   */\n      swap1\n      pop\n        /* \"#utility.yul\":3239:4312   */\n    tag_102:\n      swap4\n      swap3\n      pop\n      pop\n      pop\n      jump\t// out\n        /* \"#utility.yul\":4318:4666   */\n    tag_37:\n        /* \"#utility.yul\":4358:4365   */\n      0x00\n        /* \"#utility.yul\":4381:4401   */\n      tag_119\n        /* \"#utility.yul\":4399:4400   */\n      dup3\n        /* \"#utility.yul\":4381:4401   */\n      tag_65\n      jump\t// in\n    tag_119:\n        /* \"#utility.yul\":4376:4401   */\n      swap2\n      pop\n        /* \"#utility.yul\":4415:4435   */\n      tag_120\n        /* \"#utility.yul\":4433:4434   */\n      dup4\n        /* \"#utility.yul\":4415:4435   */\n      tag_65\n      jump\t// in\n    tag_120:\n        /* \"#utility.yul\":4410:4435   */\n      swap3\n      pop\n        /* \"#utility.yul\":4603:4604   */\n      dup2\n        /* \"#utility.yul\":4535:4601   */\n      0xffffffffffffffffffffffffffffffffffffffffffffffffffffffffffffffff\n        /* \"#utility.yul\":4531:4605   */\n      div\n        /* \"#utility.yul\":4528:4529   */\n      dup4\n        /* \"#utility.yul\":4525:4606   */\n      gt\n        /* \"#utility.yul\":4520:4521   */\n      dup3\n        /* \"#utility.yul\":4513:4522   */\n      iszero\n        /* \"#utility.yul\":4506:4523   */\n      iszero\n        /* \"#utility.yul\":4502:4607   */\n      and\n        /* \"#utility.yul\":4499:4630   */\n      iszero\n      tag_121\n      jumpi\n        /* \"#utility.yul\":4610:4628   */\n      tag_122\n      tag_79\n      jump\t// in\n    tag_122:\n        /* \"#utility.yul\":4499:4630   */\n    tag_121:\n        /* \"#utility.yul\":4658:4659   */\n      dup3\n        /* \"#utility.yul\":4655:4656   */\n      dup3\n        /* \"#utility.yul\":4651:4660   */\n      mul\n        /* \"#utility.yul\":4640:4660   */\n      swap1\n      pop\n        /* \"#utility.yul\":4318:4666   */\n      swap3\n      swap2\n      pop\n      pop\n      jump\t// out\n        /* \"#utility.yul\":4672:4863   */\n    tag_35:\n        /* \"#utility.yul\":4712:4716   */\n      0x00\n        /* \"#utility.yul\":4732:4752   */\n      tag_124\n        /* \"#utility.yul\":4750:4751   */\n      dup3\n        /* \"#utility.yul\":4732:4752   */\n      tag_65\n      jump\t// in\n    tag_124:\n        /* \"#utility.yul\":4727:4752   */\n      swap2\n      pop\n        /* \"#utility.yul\":4766:4786   */\n      tag_125\n        /* \"#utility.yul\":4784:4785   */\n      dup4\n        /* \"#utility.yul\":4766:4786   */\n      tag_65\n      jump\t// in\n    tag_125:\n        /* \"#utility.yul\":4761:4786   */\n      swap3\n      pop\n        /* \"#utility.yul\":4805:4806   */\n      dup3\n        /* \"#utility.yul\":4802:4803   */\n      dup3\n        /* \"#utility.yul\":4799:4807   */\n      lt\n        /* \"#utility.yul\":4796:4830   */\n      iszero\n      tag_126\n      jumpi\n        /* \"#utility.yul\":4810:4828   */\n      tag_127\n      tag_79\n      jump\t// in\n    tag_127:\n        /* \"#utility.yul\":4796:4830   */\n    tag_126:\n        /* \"#utility.yul\":4855:4856   */\n      dup3\n        /* \"#utility.yul\":4852:4853   */\n      dup3\n        /* \"#utility.yul\":4848:4857   */\n      sub\n        /* \"#utility.yul\":4840:4857   */\n      swap1\n      pop\n        /* \"#utility.yul\":4672:4863   */\n      swap3\n      swap2\n      pop\n      pop\n      jump\t// out\n        /* \"#utility.yul\":4869:4945   */\n    tag_57:\n        /* \"#utility.yul\":4905:4912   */\n      0x00\n        /* \"#utility.yul\":4934:4939   */\n      dup2\n        /* \"#utility.yul\":4923:4939   */\n      swap1\n      pop\n        /* \"#utility.yul\":4869:4945   */\n      swap2\n      swap1\n      pop\n      jump\t// out\n        /* \"#utility.yul\":4951:5040   */\n    tag_61:\n        /* \"#utility.yul\":4985:4992   */\n      0x00\n        /* \"#utility.yul\":5028:5033   */\n      dup2\n        /* \"#utility.yul\":5025:5026   */\n      0x00\n        /* \"#utility.yul\":5014:5034   */\n      signextend\n        /* \"#utility.yul\":5003:5034   */\n      swap1\n      pop\n        /* \"#utility.yul\":4951:5040   */\n      swap2\n      swap1\n      pop\n      jump\t// out\n        /* \"#utility.yul\":5046:5123   */\n    tag_65:\n        /* \"#utility.yul\":5083:5090   */\n      0x00\n        /* \"#utility.yul\":5112:5117   */\n      dup2\n        /* \"#utility.yul\":5101:5117   */\n      swap1\n      pop\n        /* \"#utility.yul\":5046:5123   */\n      swap2\n      swap1\n      pop\n      jump\t// out\n        /* \"#utility.yul\":5129:5215   */\n    tag_99:\n        /* \"#utility.yul\":5164:5171   */\n      0x00\n        /* \"#utility.yul\":5204:5208   */\n      0xff\n        /* \"#utility.yul\":5197:5202   */\n      dup3\n        /* \"#utility.yul\":5193:5209   */\n      and\n        /* \"#utility.yul\":5182:5209   */\n      swap1\n      pop\n        /* \"#utility.yul\":5129:5215   */\n      swap2\n      swap1\n      pop\n      jump\t// out\n        /* \"#utility.yul\":5221:5397   */\n    tag_43:\n        /* \"#utility.yul\":5253:5254   */\n      0x00\n        /* \"#utility.yul\":5270:5290   */\n      tag_133\n        /* \"#utility.yul\":5288:5289   */\n      dup3\n        /* \"#utility.yul\":5270:5290   */\n      tag_65\n      jump\t// in\n    tag_133:\n        /* \"#utility.yul\":5265:5290   */\n      swap2\n      pop\n        /* \"#utility.yul\":5304:5324   */\n      tag_134\n        /* \"#utility.yul\":5322:5323   */\n      dup4\n        /* \"#utility.yul\":5304:5324   */\n      tag_65\n      jump\t// in\n    tag_134:\n        /* \"#utility.yul\":5299:5324   */\n      swap3\n      pop\n        /* \"#utility.yul\":5343:5344   */\n      dup3\n        /* \"#utility.yul\":5333:5368   */\n      tag_135\n      jumpi\n        /* \"#utility.yul\":5348:5366   */\n      tag_136\n      tag_85\n      jump\t// in\n    tag_136:\n        /* \"#utility.yul\":5333:5368   */\n    tag_135:\n        /* \"#utility.yul\":5389:5390   */\n      dup3\n        /* \"#utility.yul\":5386:5387   */\n      dup3\n        /* \"#utility.yul\":5382:5391   */\n      mod\n        /* \"#utility.yul\":5377:5391   */\n      swap1\n      pop\n        /* \"#utility.yul\":5221:5397   */\n      swap3\n      swap2\n      pop\n      pop\n      jump\t// out\n        /* \"#utility.yul\":5403:5583   */\n    tag_79:\n        /* \"#utility.yul\":5451:5528   */\n      0x4e487b7100000000000000000000000000000000000000000000000000000000\n        /* \"#utility.yul\":5448:5449   */\n      0x00\n        /* \"#utility.yul\":5441:5529   */\n      mstore\n        /* \"#utility.yul\":5548:5552   */\n      0x11\n        /* \"#utility.yul\":5545:5546   */\n      0x04\n        /* \"#utility.yul\":5538:5553   */\n      mstore\n        /* \"#utility.yul\":5572:5576   */\n      0x24\n        /* \"#utility.yul\":5569:5570   */\n      0x00\n        /* \"#utility.yul\":5562:5577   */\n      revert\n        /* \"#utility.yul\":5589:5769   */\n    tag_85:\n        /* \"#utility.yul\":5637:5714   */\n      0x4e487b7100000000000000000000000000000000000000000000000000000000\n        /* \"#utility.yul\":5634:5635   */\n      0x00\n        /* \"#utility.yul\":5627:5715   */\n      mstore\n        /* \"#utility.yul\":5734:5738   */\n      0x12\n        /* \"#utility.yul\":5731:5732   */\n      0x04\n        /* \"#utility.yul\":5724:5739   */\n      mstore\n        /* \"#utility.yul\":5758:5762   */\n      0x24\n        /* \"#utility.yul\":5755:5756   */\n      0x00\n        /* \"#utility.yul\":5748:5763   */\n      revert\n        /* \"#utility.yul\":5898:6015   */\n    tag_52:\n        /* \"#utility.yul\":6007:6008   */\n      0x00\n        /* \"#utility.yul\":6004:6005   */\n      dup1\n        /* \"#utility.yul\":5997:6009   */\n      revert\n        /* \"#utility.yul\":6021:6123   */\n    tag_95:\n        /* \"#utility.yul\":6063:6071   */\n      0x00\n        /* \"#utility.yul\":6110:6115   */\n      dup2\n        /* \"#utility.yul\":6107:6108   */\n      0x01\n        /* \"#utility.yul\":6103:6116   */\n      shr\n        /* \"#utility.yul\":6082:6116   */\n      swap1\n      pop\n        /* \"#utility.yul\":6021:6123   */\n      swap2\n      swap1\n      pop\n      jump\t// out\n        /* \"#utility.yul\":6129:6251   */\n    tag_48:\n        /* \"#utility.yul\":6202:6226   */\n      tag_144\n        /* \"#utility.yul\":6220:6225   */\n      dup2\n        /* \"#utility.yul\":6202:6226   */\n      tag_65\n      jump\t// in\n    tag_144:\n        /* \"#utility.yul\":6195:6200   */\n      dup2\n        /* \"#utility.yul\":6192:6227   */\n      eq\n        /* \"#utility.yul\":6182:6245   */\n      tag_145\n      jumpi\n        /* \"#utility.yul\":6241:6242   */\n      0x00\n        /* \"#utility.yul\":6238:6239   */\n      dup1\n        /* \"#utility.yul\":6231:6243   */\n      revert\n        /* \"#utility.yul\":6182:6245   */\n    tag_145:\n        /* \"#utility.yul\":6129:6251   */\n      pop\n      jump\t// out\n\n    auxdata: 0xa2646970667358221220ba1f7fbad03602e270e02b62d3afc0fe1f9d799aebf1ce16b15ac0af1bf2b86164736f6c63430008070033\n}\n",
				"bytecode": {
					"linkReferences": {},
					"object": "6080604052600a6000557fffffffffffffffffffffffffffffffffffffffffffffffffffffffffffffffea6001557fffffffffffffffffffffffffffffffffffffffffffffffffffffffffffffffff600260006101000a81548160ff021916908360000b60ff16021790555034801561007757600080fd5b50610610806100876000396000f3fe608060405234801561001057600080fd5b50600436106100625760003560e01c806301725a0b146100675780630b79ba80146100715780632cb777a61461008f5780636ac5db19146100ad578063a9bf5633146100cb578063f8897945146100e7575b600080fd5b61006f610105565b005b61007961011c565b6040516100869190610238565b60405180910390f35b61009761012f565b6040516100a4919061021d565b60405180910390f35b6100b5610135565b6040516100c29190610253565b60405180910390f35b6100e560048036038101906100e091906101c3565b61013b565b005b6100ef6101a8565b6040516100fc9190610253565b60405180910390f35b600060ff1660038190555060ff8016600481905550565b600260009054906101000a900460000b81565b60015481565b60045481565b6000602a905060006104d2905060006002905060018361015b919061026e565b5060018361016991906104c0565b506005836101779190610466565b5060058361018591906102c4565b506002836101939190610348565b506001836101a19190610522565b5050505050565b60035481565b6000813590506101bd816105c3565b92915050565b6000602082840312156101d9576101d86105b1565b5b60006101e7848285016101ae565b91505092915050565b6101f9816104f4565b82525050565b610208816104fe565b82525050565b6102178161050b565b82525050565b600060208201905061023260008301846101f0565b92915050565b600060208201905061024d60008301846101ff565b92915050565b6000602082019050610268600083018461020e565b92915050565b60006102798261050b565b91506102848361050b565b9250827fffffffffffffffffffffffffffffffffffffffffffffffffffffffffffffffff038211156102b9576102b8610553565b5b828201905092915050565b60006102cf8261050b565b91506102da8361050b565b9250826102ea576102e9610582565b5b828204905092915050565b6000808291508390505b600185111561033f5780860481111561031b5761031a610553565b5b600185161561032a5780820291505b8081029050610338856105b6565b94506102ff565b94509492505050565b60006103538261050b565b915061035e83610515565b925061038b7fffffffffffffffffffffffffffffffffffffffffffffffffffffffffffffffff8484610393565b905092915050565b6000826103a3576001905061045f565b816103b1576000905061045f565b81600181146103c757600281146103d157610400565b600191505061045f565b60ff8411156103e3576103e2610553565b5b8360020a9150848211156103fa576103f9610553565b5b5061045f565b5060208310610133831016604e8410600b84101617156104355782820a9050838111156104305761042f610553565b5b61045f565b61044284848460016102f5565b9250905081840481111561045957610458610553565b5b81810290505b9392505050565b60006104718261050b565b915061047c8361050b565b9250817fffffffffffffffffffffffffffffffffffffffffffffffffffffffffffffffff04831182151516156104b5576104b4610553565b5b828202905092915050565b60006104cb8261050b565b91506104d68361050b565b9250828210156104e9576104e8610553565b5b828203905092915050565b6000819050919050565b60008160000b9050919050565b6000819050919050565b600060ff82169050919050565b600061052d8261050b565b91506105388361050b565b92508261054857610547610582565b5b828206905092915050565b7f4e487b7100000000000000000000000000000000000000000000000000000000600052601160045260246000fd5b7f4e487b7100000000000000000000000000000000000000000000000000000000600052601260045260246000fd5b600080fd5b60008160011c9050919050565b6105cc8161050b565b81146105d757600080fd5b5056fea2646970667358221220ba1f7fbad03602e270e02b62d3afc0fe1f9d799aebf1ce16b15ac0af1bf2b86164736f6c63430008070033",
					"opcodes": "PUSH1 0x80 PUSH1 0x40 MSTORE PUSH1 0xA PUSH1 0x0 SSTORE PUSH32 0xFFFFFFFFFFFFFFFFFFFFFFFFFFFFFFFFFFFFFFFFFFFFFFFFFFFFFFFFFFFFFFEA PUSH1 0x1 SSTORE PUSH32 0xFFFFFFFFFFFFFFFFFFFFFFFFFFFFFFFFFFFFFFFFFFFFFFFFFFFFFFFFFFFFFFFF PUSH1 0x2 PUSH1 0x0 PUSH2 0x100 EXP DUP2 SLOAD DUP2 PUSH1 0xFF MUL NOT AND SWAP1 DUP4 PUSH1 0x0 SIGNEXTEND PUSH1 0xFF AND MUL OR SWAP1 SSTORE POP CALLVALUE DUP1 ISZERO PUSH2 0x77 JUMPI PUSH1 0x0 DUP1 REVERT JUMPDEST POP PUSH2 0x610 DUP1 PUSH2 0x87 PUSH1 0x0 CODECOPY PUSH1 0x0 RETURN INVALID PUSH1 0x80 PUSH1 0x40 MSTORE CALLVALUE DUP1 ISZERO PUSH2 0x10 JUMPI PUSH1 0x0 DUP1 REVERT JUMPDEST POP PUSH1 0x4 CALLDATASIZE LT PUSH2 0x62 JUMPI PUSH1 0x0 CALLDATALOAD PUSH1 0xE0 SHR DUP1 PUSH4 0x1725A0B EQ PUSH2 0x67 JUMPI DUP1 PUSH4 0xB79BA80 EQ PUSH2 0x71 JUMPI DUP1 PUSH4 0x2CB777A6 EQ PUSH2 0x8F JUMPI DUP1 PUSH4 0x6AC5DB19 EQ PUSH2 0xAD JUMPI DUP1 PUSH4 0xA9BF5633 EQ PUSH2 0xCB JUMPI DUP1 PUSH4 0xF8897945 EQ PUSH2 0xE7 JUMPI JUMPDEST PUSH1 0x0 DUP1 REVERT JUMPDEST PUSH2 0x6F PUSH2 0x105 JUMP JUMPDEST STOP JUMPDEST PUSH2 0x79 PUSH2 0x11C JUMP JUMPDEST PUSH1 0x40 MLOAD PUSH2 0x86 SWAP2 SWAP1 PUSH2 0x238 JUMP JUMPDEST PUSH1 0x40 MLOAD DUP1 SWAP2 SUB SWAP1 RETURN JUMPDEST PUSH2 0x97 PUSH2 0x12F JUMP JUMPDEST PUSH1 0x40 MLOAD PUSH2 0xA4 SWAP2 SWAP1 PUSH2 0x21D JUMP JUMPDEST PUSH1 0x40 MLOAD DUP1 SWAP2 SUB SWAP1 RETURN JUMPDEST PUSH2 0xB5 PUSH2 0x135 JUMP JUMPDEST PUSH1 0x40 MLOAD PUSH2 0xC2 SWAP2 SWAP1 PUSH2 0x253 JUMP JUMPDEST PUSH1 0x40 MLOAD DUP1 SWAP2 SUB SWAP1 RETURN JUMPDEST PUSH2 0xE5 PUSH1 0x4 DUP1 CALLDATASIZE SUB DUP2 ADD SWAP1 PUSH2 0xE0 SWAP2 SWAP1 PUSH2 0x1C3 JUMP JUMPDEST PUSH2 0x13B JUMP JUMPDEST STOP JUMPDEST PUSH2 0xEF PUSH2 0x1A8 JUMP JUMPDEST PUSH1 0x40 MLOAD PUSH2 0xFC SWAP2 SWAP1 PUSH2 0x253 JUMP JUMPDEST PUSH1 0x40 MLOAD DUP1 SWAP2 SUB SWAP1 RETURN JUMPDEST PUSH1 0x0 PUSH1 0xFF AND PUSH1 0x3 DUP2 SWAP1 SSTORE POP PUSH1 0xFF DUP1 AND PUSH1 0x4 DUP2 SWAP1 SSTORE POP JUMP JUMPDEST PUSH1 0x2 PUSH1 0x0 SWAP1 SLOAD SWAP1 PUSH2 0x100 EXP SWAP1 DIV PUSH1 0x0 SIGNEXTEND DUP2 JUMP JUMPDEST PUSH1 0x1 SLOAD DUP2 JUMP JUMPDEST PUSH1 0x4 SLOAD DUP2 JUMP JUMPDEST PUSH1 0x0 PUSH1 0x2A SWAP1 POP PUSH1 0x0 PUSH2 0x4D2 SWAP1 POP PUSH1 0x0 PUSH1 0x2 SWAP1 POP PUSH1 0x1 DUP4 PUSH2 0x15B SWAP2 SWAP1 PUSH2 0x26E JUMP JUMPDEST POP PUSH1 0x1 DUP4 PUSH2 0x169 SWAP2 SWAP1 PUSH2 0x4C0 JUMP JUMPDEST POP PUSH1 0x5 DUP4 PUSH2 0x177 SWAP2 SWAP1 PUSH2 0x466 JUMP JUMPDEST POP PUSH1 0x5 DUP4 PUSH2 0x185 SWAP2 SWAP1 PUSH2 0x2C4 JUMP JUMPDEST POP PUSH1 0x2 DUP4 PUSH2 0x193 SWAP2 SWAP1 PUSH2 0x348 JUMP JUMPDEST POP PUSH1 0x1 DUP4 PUSH2 0x1A1 SWAP2 SWAP1 PUSH2 0x522 JUMP JUMPDEST POP POP POP POP POP JUMP JUMPDEST PUSH1 0x3 SLOAD DUP2 JUMP JUMPDEST PUSH1 0x0 DUP2 CALLDATALOAD SWAP1 POP PUSH2 0x1BD DUP2 PUSH2 0x5C3 JUMP JUMPDEST SWAP3 SWAP2 POP POP JUMP JUMPDEST PUSH1 0x0 PUSH1 0x20 DUP3 DUP5 SUB SLT ISZERO PUSH2 0x1D9 JUMPI PUSH2 0x1D8 PUSH2 0x5B1 JUMP JUMPDEST JUMPDEST PUSH1 0x0 PUSH2 0x1E7 DUP5 DUP3 DUP6 ADD PUSH2 0x1AE JUMP JUMPDEST SWAP2 POP POP SWAP3 SWAP2 POP POP JUMP JUMPDEST PUSH2 0x1F9 DUP2 PUSH2 0x4F4 JUMP JUMPDEST DUP3 MSTORE POP POP JUMP JUMPDEST PUSH2 0x208 DUP2 PUSH2 0x4FE JUMP JUMPDEST DUP3 MSTORE POP POP JUMP JUMPDEST PUSH2 0x217 DUP2 PUSH2 0x50B JUMP JUMPDEST DUP3 MSTORE POP POP JUMP JUMPDEST PUSH1 0x0 PUSH1 0x20 DUP3 ADD SWAP1 POP PUSH2 0x232 PUSH1 0x0 DUP4 ADD DUP5 PUSH2 0x1F0 JUMP JUMPDEST SWAP3 SWAP2 POP POP JUMP JUMPDEST PUSH1 0x0 PUSH1 0x20 DUP3 ADD SWAP1 POP PUSH2 0x24D PUSH1 0x0 DUP4 ADD DUP5 PUSH2 0x1FF JUMP JUMPDEST SWAP3 SWAP2 POP POP JUMP JUMPDEST PUSH1 0x0 PUSH1 0x20 DUP3 ADD SWAP1 POP PUSH2 0x268 PUSH1 0x0 DUP4 ADD DUP5 PUSH2 0x20E JUMP JUMPDEST SWAP3 SWAP2 POP POP JUMP JUMPDEST PUSH1 0x0 PUSH2 0x279 DUP3 PUSH2 0x50B JUMP JUMPDEST SWAP2 POP PUSH2 0x284 DUP4 PUSH2 0x50B JUMP JUMPDEST SWAP3 POP DUP3 PUSH32 0xFFFFFFFFFFFFFFFFFFFFFFFFFFFFFFFFFFFFFFFFFFFFFFFFFFFFFFFFFFFFFFFF SUB DUP3 GT ISZERO PUSH2 0x2B9 JUMPI PUSH2 0x2B8 PUSH2 0x553 JUMP JUMPDEST JUMPDEST DUP3 DUP3 ADD SWAP1 POP SWAP3 SWAP2 POP POP JUMP JUMPDEST PUSH1 0x0 PUSH2 0x2CF DUP3 PUSH2 0x50B JUMP JUMPDEST SWAP2 POP PUSH2 0x2DA DUP4 PUSH2 0x50B JUMP JUMPDEST SWAP3 POP DUP3 PUSH2 0x2EA JUMPI PUSH2 0x2E9 PUSH2 0x582 JUMP JUMPDEST JUMPDEST DUP3 DUP3 DIV SWAP1 POP SWAP3 SWAP2 POP POP JUMP JUMPDEST PUSH1 0x0 DUP1 DUP3 SWAP2 POP DUP4 SWAP1 POP JUMPDEST PUSH1 0x1 DUP6 GT ISZERO PUSH2 0x33F JUMPI DUP1 DUP7 DIV DUP2 GT ISZERO PUSH2 0x31B JUMPI PUSH2 0x31A PUSH2 0x553 JUMP JUMPDEST JUMPDEST PUSH1 0x1 DUP6 AND ISZERO PUSH2 0x32A JUMPI DUP1 DUP3 MUL SWAP2 POP JUMPDEST DUP1 DUP2 MUL SWAP1 POP PUSH2 0x338 DUP6 PUSH2 0x5B6 JUMP JUMPDEST SWAP5 POP PUSH2 0x2FF JUMP JUMPDEST SWAP5 POP SWAP5 SWAP3 POP POP POP JUMP JUMPDEST PUSH1 0x0 PUSH2 0x353 DUP3 PUSH2 0x50B JUMP JUMPDEST SWAP2 POP PUSH2 0x35E DUP4 PUSH2 0x515 JUMP JUMPDEST SWAP3 POP PUSH2 0x38B PUSH32 0xFFFFFFFFFFFFFFFFFFFFFFFFFFFFFFFFFFFFFFFFFFFFFFFFFFFFFFFFFFFFFFFF DUP5 DUP5 PUSH2 0x393 JUMP JUMPDEST SWAP1 POP SWAP3 SWAP2 POP POP JUMP JUMPDEST PUSH1 0x0 DUP3 PUSH2 0x3A3 JUMPI PUSH1 0x1 SWAP1 POP PUSH2 0x45F JUMP JUMPDEST DUP2 PUSH2 0x3B1 JUMPI PUSH1 0x0 SWAP1 POP PUSH2 0x45F JUMP JUMPDEST DUP2 PUSH1 0x1 DUP2 EQ PUSH2 0x3C7 JUMPI PUSH1 0x2 DUP2 EQ PUSH2 0x3D1 JUMPI PUSH2 0x400 JUMP JUMPDEST PUSH1 0x1 SWAP2 POP POP PUSH2 0x45F JUMP JUMPDEST PUSH1 0xFF DUP5 GT ISZERO PUSH2 0x3E3 JUMPI PUSH2 0x3E2 PUSH2 0x553 JUMP JUMPDEST JUMPDEST DUP4 PUSH1 0x2 EXP SWAP2 POP DUP5 DUP3 GT ISZERO PUSH2 0x3FA JUMPI PUSH2 0x3F9 PUSH2 0x553 JUMP JUMPDEST JUMPDEST POP PUSH2 0x45F JUMP JUMPDEST POP PUSH1 0x20 DUP4 LT PUSH2 0x133 DUP4 LT AND PUSH1 0x4E DUP5 LT PUSH1 0xB DUP5 LT AND OR ISZERO PUSH2 0x435 JUMPI DUP3 DUP3 EXP SWAP1 POP DUP4 DUP2 GT ISZERO PUSH2 0x430 JUMPI PUSH2 0x42F PUSH2 0x553 JUMP JUMPDEST JUMPDEST PUSH2 0x45F JUMP JUMPDEST PUSH2 0x442 DUP5 DUP5 DUP5 PUSH1 0x1 PUSH2 0x2F5 JUMP JUMPDEST SWAP3 POP SWAP1 POP DUP2 DUP5 DIV DUP2 GT ISZERO PUSH2 0x459 JUMPI PUSH2 0x458 PUSH2 0x553 JUMP JUMPDEST JUMPDEST DUP2 DUP2 MUL SWAP1 POP JUMPDEST SWAP4 SWAP3 POP POP POP JUMP JUMPDEST PUSH1 0x0 PUSH2 0x471 DUP3 PUSH2 0x50B JUMP JUMPDEST SWAP2 POP PUSH2 0x47C DUP4 PUSH2 0x50B JUMP JUMPDEST SWAP3 POP DUP2 PUSH32 0xFFFFFFFFFFFFFFFFFFFFFFFFFFFFFFFFFFFFFFFFFFFFFFFFFFFFFFFFFFFFFFFF DIV DUP4 GT DUP3 ISZERO ISZERO AND ISZERO PUSH2 0x4B5 JUMPI PUSH2 0x4B4 PUSH2 0x553 JUMP JUMPDEST JUMPDEST DUP3 DUP3 MUL SWAP1 POP SWAP3 SWAP2 POP POP JUMP JUMPDEST PUSH1 0x0 PUSH2 0x4CB DUP3 PUSH2 0x50B JUMP JUMPDEST SWAP2 POP PUSH2 0x4D6 DUP4 PUSH2 0x50B JUMP JUMPDEST SWAP3 POP DUP3 DUP3 LT ISZERO PUSH2 0x4E9 JUMPI PUSH2 0x4E8 PUSH2 0x553 JUMP JUMPDEST JUMPDEST DUP3 DUP3 SUB SWAP1 POP SWAP3 SWAP2 POP POP JUMP JUMPDEST PUSH1 0x0 DUP2 SWAP1 POP SWAP2 SWAP1 POP JUMP JUMPDEST PUSH1 0x0 DUP2 PUSH1 0x0 SIGNEXTEND SWAP1 POP SWAP2 SWAP1 POP JUMP JUMPDEST PUSH1 0x0 DUP2 SWAP1 POP SWAP2 SWAP1 POP JUMP JUMPDEST PUSH1 0x0 PUSH1 0xFF DUP3 AND SWAP1 POP SWAP2 SWAP1 POP JUMP JUMPDEST PUSH1 0x0 PUSH2 0x52D DUP3 PUSH2 0x50B JUMP JUMPDEST SWAP2 POP PUSH2 0x538 DUP4 PUSH2 0x50B JUMP JUMPDEST SWAP3 POP DUP3 PUSH2 0x548 JUMPI PUSH2 0x547 PUSH2 0x582 JUMP JUMPDEST JUMPDEST DUP3 DUP3 MOD SWAP1 POP SWAP3 SWAP2 POP POP JUMP JUMPDEST PUSH32 0x4E487B7100000000000000000000000000000000000000000000000000000000 PUSH1 0x0 MSTORE PUSH1 0x11 PUSH1 0x4 MSTORE PUSH1 0x24 PUSH1 0x0 REVERT JUMPDEST PUSH32 0x4E487B7100000000000000000000000000000000000000000000000000000000 PUSH1 0x0 MSTORE PUSH1 0x12 PUSH1 0x4 MSTORE PUSH1 0x24 PUSH1 0x0 REVERT JUMPDEST PUSH1 0x0 DUP1 REVERT JUMPDEST PUSH1 0x0 DUP2 PUSH1 0x1 SHR SWAP1 POP SWAP2 SWAP1 POP JUMP JUMPDEST PUSH2 0x5CC DUP2 PUSH2 0x50B JUMP JUMPDEST DUP2 EQ PUSH2 0x5D7 JUMPI PUSH1 0x0 DUP1 REVERT JUMPDEST POP JUMP INVALID LOG2 PUSH5 0x6970667358 0x22 SLT KECCAK256 0xBA 0x1F PUSH32 0xBAD03602E270E02B62D3AFC0FE1F9D799AEBF1CE16B15AC0AF1BF2B86164736F PUSH13 0x63430008070033000000000000 "
				},
				"gasEstimates": {
					"creation": {
						"codeDepositCost": "310400",
						"executionCost": "68836",
						"totalCost": "379236"
					},
					"external": {
						"demo()": "27262",
						"max()": "2473",
						"min()": "2517",
						"myFunc(uint256)": "infinite",
						"myInt()": "2451",
						"mySmallestInt()": "2475"
					}
				},
				"methodIdentifiers": {
					"demo()": "01725a0b",
					"max()": "6ac5db19",
					"min()": "f8897945",
					"myFunc(uint256)": "a9bf5633",
					"myInt()": "2cb777a6",
					"mySmallestInt()": "0b79ba80"
				}
			},
			"storageLayout": {
				"storage": [
					{
						"astId": 4,
						"contract": "contracts/Lesson1Types.sol:DemoInt",
						"label": "myUint",
						"offset": 0,
						"slot": "0",
						"type": "t_uint256"
					},
					{
						"astId": 74,
						"contract": "contracts/Lesson1Types.sol:DemoInt",
						"label": "myInt",
						"offset": 0,
						"slot": "1",
						"type": "t_int256"
					},
					{
						"astId": 78,
						"contract": "contracts/Lesson1Types.sol:DemoInt",
						"label": "mySmallestInt",
						"offset": 0,
						"slot": "2",
						"type": "t_int8"
					},
					{
						"astId": 80,
						"contract": "contracts/Lesson1Types.sol:DemoInt",
						"label": "min",
						"offset": 0,
						"slot": "3",
						"type": "t_uint256"
					},
					{
						"astId": 82,
						"contract": "contracts/Lesson1Types.sol:DemoInt",
						"label": "max",
						"offset": 0,
						"slot": "4",
						"type": "t_uint256"
					}
				],
				"types": {
					"t_int256": {
						"encoding": "inplace",
						"label": "int256",
						"numberOfBytes": "32"
					},
					"t_int8": {
						"encoding": "inplace",
						"label": "int8",
						"numberOfBytes": "1"
					},
					"t_uint256": {
						"encoding": "inplace",
						"label": "uint256",
						"numberOfBytes": "32"
					}
				}
			},
			"userdoc": {
				"kind": "user",
				"methods": {},
				"version": 1
			}
		}
	}
}