{
	"contracts/Lesson3Types.sol": {
		"Map3Lesson": {
			"abi": [
				{
					"inputs": [
						{
							"internalType": "address",
							"name": "",
							"type": "address"
						}
					],
					"name": "accounts",
					"outputs": [
						{
							"internalType": "string",
							"name": "",
							"type": "string"
						}
					],
					"stateMutability": "view",
					"type": "function"
				},
				{
					"inputs": [
						{
							"internalType": "string",
							"name": "",
							"type": "string"
						}
					],
					"name": "ages",
					"outputs": [
						{
							"internalType": "uint256",
							"name": "",
							"type": "uint256"
						}
					],
					"stateMutability": "view",
					"type": "function"
				},
				{
					"inputs": [
						{
							"internalType": "address",
							"name": "",
							"type": "address"
						}
					],
					"name": "payments",
					"outputs": [
						{
							"internalType": "uint256",
							"name": "",
							"type": "uint256"
						}
					],
					"stateMutability": "view",
					"type": "function"
				},
				{
					"inputs": [
						{
							"internalType": "address",
							"name": "adr",
							"type": "address"
						},
						{
							"internalType": "string",
							"name": "name",
							"type": "string"
						}
					],
					"name": "setAccounts",
					"outputs": [],
					"stateMutability": "nonpayable",
					"type": "function"
				},
				{
					"inputs": [
						{
							"internalType": "string",
							"name": "name",
							"type": "string"
						},
						{
							"internalType": "uint256",
							"name": "age",
							"type": "uint256"
						}
					],
					"name": "setAges",
					"outputs": [],
					"stateMutability": "nonpayable",
					"type": "function"
				},
				{
					"inputs": [
						{
							"internalType": "address",
							"name": "adr",
							"type": "address"
						},
						{
							"internalType": "uint256",
							"name": "money",
							"type": "uint256"
						}
					],
					"name": "setPayments",
					"outputs": [],
					"stateMutability": "nonpayable",
					"type": "function"
				}
			],
			"devdoc": {
				"kind": "dev",
				"methods": {},
				"version": 1
			},
			"evm": {
				"assembly": "    /* \"contracts/Lesson3Types.sol\":58:715  contract Map3Lesson {... */\n  mstore(0x40, 0x80)\n  callvalue\n  dup1\n  iszero\n  tag_1\n  jumpi\n  0x00\n  dup1\n  revert\ntag_1:\n  pop\n  dataSize(sub_0)\n  dup1\n  dataOffset(sub_0)\n  0x00\n  codecopy\n  0x00\n  return\nstop\n\nsub_0: assembly {\n        /* \"contracts/Lesson3Types.sol\":58:715  contract Map3Lesson {... */\n      mstore(0x40, 0x80)\n      callvalue\n      dup1\n      iszero\n      tag_1\n      jumpi\n      0x00\n      dup1\n      revert\n    tag_1:\n      pop\n      jumpi(tag_2, lt(calldatasize, 0x04))\n      shr(0xe0, calldataload(0x00))\n      dup1\n      0x250f050a\n      eq\n      tag_3\n      jumpi\n      dup1\n      0x3878388e\n      eq\n      tag_4\n      jumpi\n      dup1\n      0x5e5c06e2\n      eq\n      tag_5\n      jumpi\n      dup1\n      0x6dcfe452\n      eq\n      tag_6\n      jumpi\n      dup1\n      0xcc319e84\n      eq\n      tag_7\n      jumpi\n      dup1\n      0xe2982c21\n      eq\n      tag_8\n      jumpi\n    tag_2:\n      0x00\n      dup1\n      revert\n        /* \"contracts/Lesson3Types.sol\":428:514  function setAges(string memory name, uint age) public{... */\n    tag_3:\n      tag_9\n      0x04\n      dup1\n      calldatasize\n      sub\n      dup2\n      add\n      swap1\n      tag_10\n      swap2\n      swap1\n      tag_11\n      jump\t// in\n    tag_10:\n      tag_12\n      jump\t// in\n    tag_9:\n      stop\n        /* \"contracts/Lesson3Types.sol\":520:617  function setAccounts(address adr, string memory name) public{... */\n    tag_4:\n      tag_13\n      0x04\n      dup1\n      calldatasize\n      sub\n      dup2\n      add\n      swap1\n      tag_14\n      swap2\n      swap1\n      tag_15\n      jump\t// in\n    tag_14:\n      tag_16\n      jump\t// in\n    tag_13:\n      stop\n        /* \"contracts/Lesson3Types.sol\":158:201  mapping (address => string) public accounts */\n    tag_5:\n      tag_17\n      0x04\n      dup1\n      calldatasize\n      sub\n      dup2\n      add\n      swap1\n      tag_18\n      swap2\n      swap1\n      tag_19\n      jump\t// in\n    tag_18:\n      tag_20\n      jump\t// in\n    tag_17:\n      mload(0x40)\n      tag_21\n      swap2\n      swap1\n      tag_22\n      jump\t// in\n    tag_21:\n      mload(0x40)\n      dup1\n      swap2\n      sub\n      swap1\n      return\n        /* \"contracts/Lesson3Types.sol\":84:120  mapping (string => uint) public ages */\n    tag_6:\n      tag_23\n      0x04\n      dup1\n      calldatasize\n      sub\n      dup2\n      add\n      swap1\n      tag_24\n      swap2\n      swap1\n      tag_25\n      jump\t// in\n    tag_24:\n      tag_26\n      jump\t// in\n    tag_23:\n      mload(0x40)\n      tag_27\n      swap2\n      swap1\n      tag_28\n      jump\t// in\n    tag_27:\n      mload(0x40)\n      dup1\n      swap2\n      sub\n      swap1\n      return\n        /* \"contracts/Lesson3Types.sol\":623:713  function setPayments(address adr, uint money) public{... */\n    tag_7:\n      tag_29\n      0x04\n      dup1\n      calldatasize\n      sub\n      dup2\n      add\n      swap1\n      tag_30\n      swap2\n      swap1\n      tag_31\n      jump\t// in\n    tag_30:\n      tag_32\n      jump\t// in\n    tag_29:\n      stop\n        /* \"contracts/Lesson3Types.sol\":279:320  mapping (address => uint) public payments */\n    tag_8:\n      tag_33\n      0x04\n      dup1\n      calldatasize\n      sub\n      dup2\n      add\n      swap1\n      tag_34\n      swap2\n      swap1\n      tag_19\n      jump\t// in\n    tag_34:\n      tag_35\n      jump\t// in\n    tag_33:\n      mload(0x40)\n      tag_36\n      swap2\n      swap1\n      tag_28\n      jump\t// in\n    tag_36:\n      mload(0x40)\n      dup1\n      swap2\n      sub\n      swap1\n      return\n        /* \"contracts/Lesson3Types.sol\":428:514  function setAges(string memory name, uint age) public{... */\n    tag_12:\n        /* \"contracts/Lesson3Types.sol\":504:507  age */\n      dup1\n        /* \"contracts/Lesson3Types.sol\":491:495  ages */\n      0x00\n        /* \"contracts/Lesson3Types.sol\":496:500  name */\n      dup4\n        /* \"contracts/Lesson3Types.sol\":491:501  ages[name] */\n      mload(0x40)\n      tag_38\n      swap2\n      swap1\n      tag_39\n      jump\t// in\n    tag_38:\n      swap1\n      dup2\n      mstore\n      0x20\n      add\n      mload(0x40)\n      dup1\n      swap2\n      sub\n      swap1\n      keccak256\n        /* \"contracts/Lesson3Types.sol\":491:507  ages[name] = age */\n      dup2\n      swap1\n      sstore\n      pop\n        /* \"contracts/Lesson3Types.sol\":428:514  function setAges(string memory name, uint age) public{... */\n      pop\n      pop\n      jump\t// out\n        /* \"contracts/Lesson3Types.sol\":520:617  function setAccounts(address adr, string memory name) public{... */\n    tag_16:\n        /* \"contracts/Lesson3Types.sol\":606:610  name */\n      dup1\n        /* \"contracts/Lesson3Types.sol\":590:598  accounts */\n      0x01\n        /* \"contracts/Lesson3Types.sol\":590:603  accounts[adr] */\n      0x00\n        /* \"contracts/Lesson3Types.sol\":599:602  adr */\n      dup5\n        /* \"contracts/Lesson3Types.sol\":590:603  accounts[adr] */\n      0xffffffffffffffffffffffffffffffffffffffff\n      and\n      0xffffffffffffffffffffffffffffffffffffffff\n      and\n      dup2\n      mstore\n      0x20\n      add\n      swap1\n      dup2\n      mstore\n      0x20\n      add\n      0x00\n      keccak256\n        /* \"contracts/Lesson3Types.sol\":590:610  accounts[adr] = name */\n      swap1\n      dup1\n      mload\n      swap1\n      0x20\n      add\n      swap1\n      tag_41\n      swap3\n      swap2\n      swap1\n      tag_42\n      jump\t// in\n    tag_41:\n      pop\n        /* \"contracts/Lesson3Types.sol\":520:617  function setAccounts(address adr, string memory name) public{... */\n      pop\n      pop\n      jump\t// out\n        /* \"contracts/Lesson3Types.sol\":158:201  mapping (address => string) public accounts */\n    tag_20:\n      mstore(0x20, 0x01)\n      dup1\n      0x00\n      mstore\n      keccak256(0x00, 0x40)\n      0x00\n      swap2\n      pop\n      swap1\n      pop\n      dup1\n      sload\n      tag_43\n      swap1\n      tag_44\n      jump\t// in\n    tag_43:\n      dup1\n      0x1f\n      add\n      0x20\n      dup1\n      swap2\n      div\n      mul\n      0x20\n      add\n      mload(0x40)\n      swap1\n      dup2\n      add\n      0x40\n      mstore\n      dup1\n      swap3\n      swap2\n      swap1\n      dup2\n      dup2\n      mstore\n      0x20\n      add\n      dup3\n      dup1\n      sload\n      tag_45\n      swap1\n      tag_44\n      jump\t// in\n    tag_45:\n      dup1\n      iszero\n      tag_46\n      jumpi\n      dup1\n      0x1f\n      lt\n      tag_47\n      jumpi\n      0x0100\n      dup1\n      dup4\n      sload\n      div\n      mul\n      dup4\n      mstore\n      swap2\n      0x20\n      add\n      swap2\n      jump(tag_46)\n    tag_47:\n      dup3\n      add\n      swap2\n      swap1\n      0x00\n      mstore\n      keccak256(0x00, 0x20)\n      swap1\n    tag_48:\n      dup2\n      sload\n      dup2\n      mstore\n      swap1\n      0x01\n      add\n      swap1\n      0x20\n      add\n      dup1\n      dup4\n      gt\n      tag_48\n      jumpi\n      dup3\n      swap1\n      sub\n      0x1f\n      and\n      dup3\n      add\n      swap2\n    tag_46:\n      pop\n      pop\n      pop\n      pop\n      pop\n      dup2\n      jump\t// out\n        /* \"contracts/Lesson3Types.sol\":84:120  mapping (string => uint) public ages */\n    tag_26:\n      0x00\n      dup2\n      dup1\n      mload\n      0x20\n      dup2\n      add\n      dup3\n      add\n      dup1\n      mload\n      dup5\n      dup3\n      mstore\n      0x20\n      dup4\n      add\n      0x20\n      dup6\n      add\n      keccak256\n      dup2\n      dup4\n      mstore\n      dup1\n      swap6\n      pop\n      pop\n      pop\n      pop\n      pop\n      pop\n      0x00\n      swap2\n      pop\n      swap1\n      pop\n      sload\n      dup2\n      jump\t// out\n        /* \"contracts/Lesson3Types.sol\":623:713  function setPayments(address adr, uint money) public{... */\n    tag_32:\n        /* \"contracts/Lesson3Types.sol\":701:706  money */\n      dup1\n        /* \"contracts/Lesson3Types.sol\":685:693  payments */\n      0x02\n        /* \"contracts/Lesson3Types.sol\":685:698  payments[adr] */\n      0x00\n        /* \"contracts/Lesson3Types.sol\":694:697  adr */\n      dup5\n        /* \"contracts/Lesson3Types.sol\":685:698  payments[adr] */\n      0xffffffffffffffffffffffffffffffffffffffff\n      and\n      0xffffffffffffffffffffffffffffffffffffffff\n      and\n      dup2\n      mstore\n      0x20\n      add\n      swap1\n      dup2\n      mstore\n      0x20\n      add\n      0x00\n      keccak256\n        /* \"contracts/Lesson3Types.sol\":685:706  payments[adr] = money */\n      dup2\n      swap1\n      sstore\n      pop\n        /* \"contracts/Lesson3Types.sol\":623:713  function setPayments(address adr, uint money) public{... */\n      pop\n      pop\n      jump\t// out\n        /* \"contracts/Lesson3Types.sol\":279:320  mapping (address => uint) public payments */\n    tag_35:\n      mstore(0x20, 0x02)\n      dup1\n      0x00\n      mstore\n      keccak256(0x00, 0x40)\n      0x00\n      swap2\n      pop\n      swap1\n      pop\n      sload\n      dup2\n      jump\t// out\n    tag_42:\n      dup3\n      dup1\n      sload\n      tag_50\n      swap1\n      tag_44\n      jump\t// in\n    tag_50:\n      swap1\n      0x00\n      mstore\n      keccak256(0x00, 0x20)\n      swap1\n      0x1f\n      add\n      0x20\n      swap1\n      div\n      dup2\n      add\n      swap3\n      dup3\n      tag_52\n      jumpi\n      0x00\n      dup6\n      sstore\n      jump(tag_51)\n    tag_52:\n      dup3\n      0x1f\n      lt\n      tag_53\n      jumpi\n      dup1\n      mload\n      not(0xff)\n      and\n      dup4\n      dup1\n      add\n      or\n      dup6\n      sstore\n      jump(tag_51)\n    tag_53:\n      dup3\n      dup1\n      add\n      0x01\n      add\n      dup6\n      sstore\n      dup3\n      iszero\n      tag_51\n      jumpi\n      swap2\n      dup3\n      add\n    tag_54:\n      dup3\n      dup2\n      gt\n      iszero\n      tag_55\n      jumpi\n      dup3\n      mload\n      dup3\n      sstore\n      swap2\n      0x20\n      add\n      swap2\n      swap1\n      0x01\n      add\n      swap1\n      jump(tag_54)\n    tag_55:\n    tag_51:\n      pop\n      swap1\n      pop\n      tag_56\n      swap2\n      swap1\n      tag_57\n      jump\t// in\n    tag_56:\n      pop\n      swap1\n      jump\t// out\n    tag_57:\n    tag_58:\n      dup1\n      dup3\n      gt\n      iszero\n      tag_59\n      jumpi\n      0x00\n      dup2\n      0x00\n      swap1\n      sstore\n      pop\n      0x01\n      add\n      jump(tag_58)\n    tag_59:\n      pop\n      swap1\n      jump\t// out\n        /* \"#utility.yul\":7:419   */\n    tag_61:\n        /* \"#utility.yul\":85:90   */\n      0x00\n        /* \"#utility.yul\":110:176   */\n      tag_63\n        /* \"#utility.yul\":126:175   */\n      tag_64\n        /* \"#utility.yul\":168:174   */\n      dup5\n        /* \"#utility.yul\":126:175   */\n      tag_65\n      jump\t// in\n    tag_64:\n        /* \"#utility.yul\":110:176   */\n      tag_66\n      jump\t// in\n    tag_63:\n        /* \"#utility.yul\":101:176   */\n      swap1\n      pop\n        /* \"#utility.yul\":199:205   */\n      dup3\n        /* \"#utility.yul\":192:197   */\n      dup2\n        /* \"#utility.yul\":185:206   */\n      mstore\n        /* \"#utility.yul\":237:241   */\n      0x20\n        /* \"#utility.yul\":230:235   */\n      dup2\n        /* \"#utility.yul\":226:242   */\n      add\n        /* \"#utility.yul\":275:278   */\n      dup5\n        /* \"#utility.yul\":266:272   */\n      dup5\n        /* \"#utility.yul\":261:264   */\n      dup5\n        /* \"#utility.yul\":257:273   */\n      add\n        /* \"#utility.yul\":254:279   */\n      gt\n        /* \"#utility.yul\":251:363   */\n      iszero\n      tag_67\n      jumpi\n        /* \"#utility.yul\":282:361   */\n      tag_68\n      tag_69\n      jump\t// in\n    tag_68:\n        /* \"#utility.yul\":251:363   */\n    tag_67:\n        /* \"#utility.yul\":372:413   */\n      tag_70\n        /* \"#utility.yul\":406:412   */\n      dup5\n        /* \"#utility.yul\":401:404   */\n      dup3\n        /* \"#utility.yul\":396:399   */\n      dup6\n        /* \"#utility.yul\":372:413   */\n      tag_71\n      jump\t// in\n    tag_70:\n        /* \"#utility.yul\":91:419   */\n      pop\n        /* \"#utility.yul\":7:419   */\n      swap4\n      swap3\n      pop\n      pop\n      pop\n      jump\t// out\n        /* \"#utility.yul\":425:564   */\n    tag_72:\n        /* \"#utility.yul\":471:476   */\n      0x00\n        /* \"#utility.yul\":509:515   */\n      dup2\n        /* \"#utility.yul\":496:516   */\n      calldataload\n        /* \"#utility.yul\":487:516   */\n      swap1\n      pop\n        /* \"#utility.yul\":525:558   */\n      tag_74\n        /* \"#utility.yul\":552:557   */\n      dup2\n        /* \"#utility.yul\":525:558   */\n      tag_75\n      jump\t// in\n    tag_74:\n        /* \"#utility.yul\":425:564   */\n      swap3\n      swap2\n      pop\n      pop\n      jump\t// out\n        /* \"#utility.yul\":584:924   */\n    tag_76:\n        /* \"#utility.yul\":640:645   */\n      0x00\n        /* \"#utility.yul\":689:692   */\n      dup3\n        /* \"#utility.yul\":682:686   */\n      0x1f\n        /* \"#utility.yul\":674:680   */\n      dup4\n        /* \"#utility.yul\":670:687   */\n      add\n        /* \"#utility.yul\":666:693   */\n      slt\n        /* \"#utility.yul\":656:778   */\n      tag_78\n      jumpi\n        /* \"#utility.yul\":697:776   */\n      tag_79\n      tag_80\n      jump\t// in\n    tag_79:\n        /* \"#utility.yul\":656:778   */\n    tag_78:\n        /* \"#utility.yul\":814:820   */\n      dup2\n        /* \"#utility.yul\":801:821   */\n      calldataload\n        /* \"#utility.yul\":839:918   */\n      tag_81\n        /* \"#utility.yul\":914:917   */\n      dup5\n        /* \"#utility.yul\":906:912   */\n      dup3\n        /* \"#utility.yul\":899:903   */\n      0x20\n        /* \"#utility.yul\":891:897   */\n      dup7\n        /* \"#utility.yul\":887:904   */\n      add\n        /* \"#utility.yul\":839:918   */\n      tag_61\n      jump\t// in\n    tag_81:\n        /* \"#utility.yul\":830:918   */\n      swap2\n      pop\n        /* \"#utility.yul\":646:924   */\n      pop\n        /* \"#utility.yul\":584:924   */\n      swap3\n      swap2\n      pop\n      pop\n      jump\t// out\n        /* \"#utility.yul\":930:1069   */\n    tag_82:\n        /* \"#utility.yul\":976:981   */\n      0x00\n        /* \"#utility.yul\":1014:1020   */\n      dup2\n        /* \"#utility.yul\":1001:1021   */\n      calldataload\n        /* \"#utility.yul\":992:1021   */\n      swap1\n      pop\n        /* \"#utility.yul\":1030:1063   */\n      tag_84\n        /* \"#utility.yul\":1057:1062   */\n      dup2\n        /* \"#utility.yul\":1030:1063   */\n      tag_85\n      jump\t// in\n    tag_84:\n        /* \"#utility.yul\":930:1069   */\n      swap3\n      swap2\n      pop\n      pop\n      jump\t// out\n        /* \"#utility.yul\":1075:1404   */\n    tag_19:\n        /* \"#utility.yul\":1134:1140   */\n      0x00\n        /* \"#utility.yul\":1183:1185   */\n      0x20\n        /* \"#utility.yul\":1171:1180   */\n      dup3\n        /* \"#utility.yul\":1162:1169   */\n      dup5\n        /* \"#utility.yul\":1158:1181   */\n      sub\n        /* \"#utility.yul\":1154:1186   */\n      slt\n        /* \"#utility.yul\":1151:1270   */\n      iszero\n      tag_87\n      jumpi\n        /* \"#utility.yul\":1189:1268   */\n      tag_88\n      tag_89\n      jump\t// in\n    tag_88:\n        /* \"#utility.yul\":1151:1270   */\n    tag_87:\n        /* \"#utility.yul\":1309:1310   */\n      0x00\n        /* \"#utility.yul\":1334:1387   */\n      tag_90\n        /* \"#utility.yul\":1379:1386   */\n      dup5\n        /* \"#utility.yul\":1370:1376   */\n      dup3\n        /* \"#utility.yul\":1359:1368   */\n      dup6\n        /* \"#utility.yul\":1355:1377   */\n      add\n        /* \"#utility.yul\":1334:1387   */\n      tag_72\n      jump\t// in\n    tag_90:\n        /* \"#utility.yul\":1324:1387   */\n      swap2\n      pop\n        /* \"#utility.yul\":1280:1397   */\n      pop\n        /* \"#utility.yul\":1075:1404   */\n      swap3\n      swap2\n      pop\n      pop\n      jump\t// out\n        /* \"#utility.yul\":1410:2064   */\n    tag_15:\n        /* \"#utility.yul\":1488:1494   */\n      0x00\n        /* \"#utility.yul\":1496:1502   */\n      dup1\n        /* \"#utility.yul\":1545:1547   */\n      0x40\n        /* \"#utility.yul\":1533:1542   */\n      dup4\n        /* \"#utility.yul\":1524:1531   */\n      dup6\n        /* \"#utility.yul\":1520:1543   */\n      sub\n        /* \"#utility.yul\":1516:1548   */\n      slt\n        /* \"#utility.yul\":1513:1632   */\n      iszero\n      tag_92\n      jumpi\n        /* \"#utility.yul\":1551:1630   */\n      tag_93\n      tag_89\n      jump\t// in\n    tag_93:\n        /* \"#utility.yul\":1513:1632   */\n    tag_92:\n        /* \"#utility.yul\":1671:1672   */\n      0x00\n        /* \"#utility.yul\":1696:1749   */\n      tag_94\n        /* \"#utility.yul\":1741:1748   */\n      dup6\n        /* \"#utility.yul\":1732:1738   */\n      dup3\n        /* \"#utility.yul\":1721:1730   */\n      dup7\n        /* \"#utility.yul\":1717:1739   */\n      add\n        /* \"#utility.yul\":1696:1749   */\n      tag_72\n      jump\t// in\n    tag_94:\n        /* \"#utility.yul\":1686:1749   */\n      swap3\n      pop\n        /* \"#utility.yul\":1642:1759   */\n      pop\n        /* \"#utility.yul\":1826:1828   */\n      0x20\n        /* \"#utility.yul\":1815:1824   */\n      dup4\n        /* \"#utility.yul\":1811:1829   */\n      add\n        /* \"#utility.yul\":1798:1830   */\n      calldataload\n        /* \"#utility.yul\":1857:1875   */\n      0xffffffffffffffff\n        /* \"#utility.yul\":1849:1855   */\n      dup2\n        /* \"#utility.yul\":1846:1876   */\n      gt\n        /* \"#utility.yul\":1843:1960   */\n      iszero\n      tag_95\n      jumpi\n        /* \"#utility.yul\":1879:1958   */\n      tag_96\n      tag_97\n      jump\t// in\n    tag_96:\n        /* \"#utility.yul\":1843:1960   */\n    tag_95:\n        /* \"#utility.yul\":1984:2047   */\n      tag_98\n        /* \"#utility.yul\":2039:2046   */\n      dup6\n        /* \"#utility.yul\":2030:2036   */\n      dup3\n        /* \"#utility.yul\":2019:2028   */\n      dup7\n        /* \"#utility.yul\":2015:2037   */\n      add\n        /* \"#utility.yul\":1984:2047   */\n      tag_76\n      jump\t// in\n    tag_98:\n        /* \"#utility.yul\":1974:2047   */\n      swap2\n      pop\n        /* \"#utility.yul\":1769:2057   */\n      pop\n        /* \"#utility.yul\":1410:2064   */\n      swap3\n      pop\n      swap3\n      swap1\n      pop\n      jump\t// out\n        /* \"#utility.yul\":2070:2544   */\n    tag_31:\n        /* \"#utility.yul\":2138:2144   */\n      0x00\n        /* \"#utility.yul\":2146:2152   */\n      dup1\n        /* \"#utility.yul\":2195:2197   */\n      0x40\n        /* \"#utility.yul\":2183:2192   */\n      dup4\n        /* \"#utility.yul\":2174:2181   */\n      dup6\n        /* \"#utility.yul\":2170:2193   */\n      sub\n        /* \"#utility.yul\":2166:2198   */\n      slt\n        /* \"#utility.yul\":2163:2282   */\n      iszero\n      tag_100\n      jumpi\n        /* \"#utility.yul\":2201:2280   */\n      tag_101\n      tag_89\n      jump\t// in\n    tag_101:\n        /* \"#utility.yul\":2163:2282   */\n    tag_100:\n        /* \"#utility.yul\":2321:2322   */\n      0x00\n        /* \"#utility.yul\":2346:2399   */\n      tag_102\n        /* \"#utility.yul\":2391:2398   */\n      dup6\n        /* \"#utility.yul\":2382:2388   */\n      dup3\n        /* \"#utility.yul\":2371:2380   */\n      dup7\n        /* \"#utility.yul\":2367:2389   */\n      add\n        /* \"#utility.yul\":2346:2399   */\n      tag_72\n      jump\t// in\n    tag_102:\n        /* \"#utility.yul\":2336:2399   */\n      swap3\n      pop\n        /* \"#utility.yul\":2292:2409   */\n      pop\n        /* \"#utility.yul\":2448:2450   */\n      0x20\n        /* \"#utility.yul\":2474:2527   */\n      tag_103\n        /* \"#utility.yul\":2519:2526   */\n      dup6\n        /* \"#utility.yul\":2510:2516   */\n      dup3\n        /* \"#utility.yul\":2499:2508   */\n      dup7\n        /* \"#utility.yul\":2495:2517   */\n      add\n        /* \"#utility.yul\":2474:2527   */\n      tag_82\n      jump\t// in\n    tag_103:\n        /* \"#utility.yul\":2464:2527   */\n      swap2\n      pop\n        /* \"#utility.yul\":2419:2537   */\n      pop\n        /* \"#utility.yul\":2070:2544   */\n      swap3\n      pop\n      swap3\n      swap1\n      pop\n      jump\t// out\n        /* \"#utility.yul\":2550:3059   */\n    tag_25:\n        /* \"#utility.yul\":2619:2625   */\n      0x00\n        /* \"#utility.yul\":2668:2670   */\n      0x20\n        /* \"#utility.yul\":2656:2665   */\n      dup3\n        /* \"#utility.yul\":2647:2654   */\n      dup5\n        /* \"#utility.yul\":2643:2666   */\n      sub\n        /* \"#utility.yul\":2639:2671   */\n      slt\n        /* \"#utility.yul\":2636:2755   */\n      iszero\n      tag_105\n      jumpi\n        /* \"#utility.yul\":2674:2753   */\n      tag_106\n      tag_89\n      jump\t// in\n    tag_106:\n        /* \"#utility.yul\":2636:2755   */\n    tag_105:\n        /* \"#utility.yul\":2822:2823   */\n      0x00\n        /* \"#utility.yul\":2811:2820   */\n      dup3\n        /* \"#utility.yul\":2807:2824   */\n      add\n        /* \"#utility.yul\":2794:2825   */\n      calldataload\n        /* \"#utility.yul\":2852:2870   */\n      0xffffffffffffffff\n        /* \"#utility.yul\":2844:2850   */\n      dup2\n        /* \"#utility.yul\":2841:2871   */\n      gt\n        /* \"#utility.yul\":2838:2955   */\n      iszero\n      tag_107\n      jumpi\n        /* \"#utility.yul\":2874:2953   */\n      tag_108\n      tag_97\n      jump\t// in\n    tag_108:\n        /* \"#utility.yul\":2838:2955   */\n    tag_107:\n        /* \"#utility.yul\":2979:3042   */\n      tag_109\n        /* \"#utility.yul\":3034:3041   */\n      dup5\n        /* \"#utility.yul\":3025:3031   */\n      dup3\n        /* \"#utility.yul\":3014:3023   */\n      dup6\n        /* \"#utility.yul\":3010:3032   */\n      add\n        /* \"#utility.yul\":2979:3042   */\n      tag_76\n      jump\t// in\n    tag_109:\n        /* \"#utility.yul\":2969:3042   */\n      swap2\n      pop\n        /* \"#utility.yul\":2765:3052   */\n      pop\n        /* \"#utility.yul\":2550:3059   */\n      swap3\n      swap2\n      pop\n      pop\n      jump\t// out\n        /* \"#utility.yul\":3065:3719   */\n    tag_11:\n        /* \"#utility.yul\":3143:3149   */\n      0x00\n        /* \"#utility.yul\":3151:3157   */\n      dup1\n        /* \"#utility.yul\":3200:3202   */\n      0x40\n        /* \"#utility.yul\":3188:3197   */\n      dup4\n        /* \"#utility.yul\":3179:3186   */\n      dup6\n        /* \"#utility.yul\":3175:3198   */\n      sub\n        /* \"#utility.yul\":3171:3203   */\n      slt\n        /* \"#utility.yul\":3168:3287   */\n      iszero\n      tag_111\n      jumpi\n        /* \"#utility.yul\":3206:3285   */\n      tag_112\n      tag_89\n      jump\t// in\n    tag_112:\n        /* \"#utility.yul\":3168:3287   */\n    tag_111:\n        /* \"#utility.yul\":3354:3355   */\n      0x00\n        /* \"#utility.yul\":3343:3352   */\n      dup4\n        /* \"#utility.yul\":3339:3356   */\n      add\n        /* \"#utility.yul\":3326:3357   */\n      calldataload\n        /* \"#utility.yul\":3384:3402   */\n      0xffffffffffffffff\n        /* \"#utility.yul\":3376:3382   */\n      dup2\n        /* \"#utility.yul\":3373:3403   */\n      gt\n        /* \"#utility.yul\":3370:3487   */\n      iszero\n      tag_113\n      jumpi\n        /* \"#utility.yul\":3406:3485   */\n      tag_114\n      tag_97\n      jump\t// in\n    tag_114:\n        /* \"#utility.yul\":3370:3487   */\n    tag_113:\n        /* \"#utility.yul\":3511:3574   */\n      tag_115\n        /* \"#utility.yul\":3566:3573   */\n      dup6\n        /* \"#utility.yul\":3557:3563   */\n      dup3\n        /* \"#utility.yul\":3546:3555   */\n      dup7\n        /* \"#utility.yul\":3542:3564   */\n      add\n        /* \"#utility.yul\":3511:3574   */\n      tag_76\n      jump\t// in\n    tag_115:\n        /* \"#utility.yul\":3501:3574   */\n      swap3\n      pop\n        /* \"#utility.yul\":3297:3584   */\n      pop\n        /* \"#utility.yul\":3623:3625   */\n      0x20\n        /* \"#utility.yul\":3649:3702   */\n      tag_116\n        /* \"#utility.yul\":3694:3701   */\n      dup6\n        /* \"#utility.yul\":3685:3691   */\n      dup3\n        /* \"#utility.yul\":3674:3683   */\n      dup7\n        /* \"#utility.yul\":3670:3692   */\n      add\n        /* \"#utility.yul\":3649:3702   */\n      tag_82\n      jump\t// in\n    tag_116:\n        /* \"#utility.yul\":3639:3702   */\n      swap2\n      pop\n        /* \"#utility.yul\":3594:3712   */\n      pop\n        /* \"#utility.yul\":3065:3719   */\n      swap3\n      pop\n      swap3\n      swap1\n      pop\n      jump\t// out\n        /* \"#utility.yul\":3725:4089   */\n    tag_117:\n        /* \"#utility.yul\":3813:3816   */\n      0x00\n        /* \"#utility.yul\":3841:3880   */\n      tag_119\n        /* \"#utility.yul\":3874:3879   */\n      dup3\n        /* \"#utility.yul\":3841:3880   */\n      tag_120\n      jump\t// in\n    tag_119:\n        /* \"#utility.yul\":3896:3967   */\n      tag_121\n        /* \"#utility.yul\":3960:3966   */\n      dup2\n        /* \"#utility.yul\":3955:3958   */\n      dup6\n        /* \"#utility.yul\":3896:3967   */\n      tag_122\n      jump\t// in\n    tag_121:\n        /* \"#utility.yul\":3889:3967   */\n      swap4\n      pop\n        /* \"#utility.yul\":3976:4028   */\n      tag_123\n        /* \"#utility.yul\":4021:4027   */\n      dup2\n        /* \"#utility.yul\":4016:4019   */\n      dup6\n        /* \"#utility.yul\":4009:4013   */\n      0x20\n        /* \"#utility.yul\":4002:4007   */\n      dup7\n        /* \"#utility.yul\":3998:4014   */\n      add\n        /* \"#utility.yul\":3976:4028   */\n      tag_124\n      jump\t// in\n    tag_123:\n        /* \"#utility.yul\":4053:4082   */\n      tag_125\n        /* \"#utility.yul\":4075:4081   */\n      dup2\n        /* \"#utility.yul\":4053:4082   */\n      tag_126\n      jump\t// in\n    tag_125:\n        /* \"#utility.yul\":4048:4051   */\n      dup5\n        /* \"#utility.yul\":4044:4083   */\n      add\n        /* \"#utility.yul\":4037:4083   */\n      swap2\n      pop\n        /* \"#utility.yul\":3817:4089   */\n      pop\n        /* \"#utility.yul\":3725:4089   */\n      swap3\n      swap2\n      pop\n      pop\n      jump\t// out\n        /* \"#utility.yul\":4095:4472   */\n    tag_127:\n        /* \"#utility.yul\":4201:4204   */\n      0x00\n        /* \"#utility.yul\":4229:4268   */\n      tag_129\n        /* \"#utility.yul\":4262:4267   */\n      dup3\n        /* \"#utility.yul\":4229:4268   */\n      tag_120\n      jump\t// in\n    tag_129:\n        /* \"#utility.yul\":4284:4373   */\n      tag_130\n        /* \"#utility.yul\":4366:4372   */\n      dup2\n        /* \"#utility.yul\":4361:4364   */\n      dup6\n        /* \"#utility.yul\":4284:4373   */\n      tag_131\n      jump\t// in\n    tag_130:\n        /* \"#utility.yul\":4277:4373   */\n      swap4\n      pop\n        /* \"#utility.yul\":4382:4434   */\n      tag_132\n        /* \"#utility.yul\":4427:4433   */\n      dup2\n        /* \"#utility.yul\":4422:4425   */\n      dup6\n        /* \"#utility.yul\":4415:4419   */\n      0x20\n        /* \"#utility.yul\":4408:4413   */\n      dup7\n        /* \"#utility.yul\":4404:4420   */\n      add\n        /* \"#utility.yul\":4382:4434   */\n      tag_124\n      jump\t// in\n    tag_132:\n        /* \"#utility.yul\":4459:4465   */\n      dup1\n        /* \"#utility.yul\":4454:4457   */\n      dup5\n        /* \"#utility.yul\":4450:4466   */\n      add\n        /* \"#utility.yul\":4443:4466   */\n      swap2\n      pop\n        /* \"#utility.yul\":4205:4472   */\n      pop\n        /* \"#utility.yul\":4095:4472   */\n      swap3\n      swap2\n      pop\n      pop\n      jump\t// out\n        /* \"#utility.yul\":4478:4596   */\n    tag_133:\n        /* \"#utility.yul\":4565:4589   */\n      tag_135\n        /* \"#utility.yul\":4583:4588   */\n      dup2\n        /* \"#utility.yul\":4565:4589   */\n      tag_136\n      jump\t// in\n    tag_135:\n        /* \"#utility.yul\":4560:4563   */\n      dup3\n        /* \"#utility.yul\":4553:4590   */\n      mstore\n        /* \"#utility.yul\":4478:4596   */\n      pop\n      pop\n      jump\t// out\n        /* \"#utility.yul\":4602:4877   */\n    tag_39:\n        /* \"#utility.yul\":4734:4737   */\n      0x00\n        /* \"#utility.yul\":4756:4851   */\n      tag_138\n        /* \"#utility.yul\":4847:4850   */\n      dup3\n        /* \"#utility.yul\":4838:4844   */\n      dup5\n        /* \"#utility.yul\":4756:4851   */\n      tag_127\n      jump\t// in\n    tag_138:\n        /* \"#utility.yul\":4749:4851   */\n      swap2\n      pop\n        /* \"#utility.yul\":4868:4871   */\n      dup2\n        /* \"#utility.yul\":4861:4871   */\n      swap1\n      pop\n        /* \"#utility.yul\":4602:4877   */\n      swap3\n      swap2\n      pop\n      pop\n      jump\t// out\n        /* \"#utility.yul\":4883:5196   */\n    tag_22:\n        /* \"#utility.yul\":4996:5000   */\n      0x00\n        /* \"#utility.yul\":5034:5036   */\n      0x20\n        /* \"#utility.yul\":5023:5032   */\n      dup3\n        /* \"#utility.yul\":5019:5037   */\n      add\n        /* \"#utility.yul\":5011:5037   */\n      swap1\n      pop\n        /* \"#utility.yul\":5083:5092   */\n      dup2\n        /* \"#utility.yul\":5077:5081   */\n      dup2\n        /* \"#utility.yul\":5073:5093   */\n      sub\n        /* \"#utility.yul\":5069:5070   */\n      0x00\n        /* \"#utility.yul\":5058:5067   */\n      dup4\n        /* \"#utility.yul\":5054:5071   */\n      add\n        /* \"#utility.yul\":5047:5094   */\n      mstore\n        /* \"#utility.yul\":5111:5189   */\n      tag_140\n        /* \"#utility.yul\":5184:5188   */\n      dup2\n        /* \"#utility.yul\":5175:5181   */\n      dup5\n        /* \"#utility.yul\":5111:5189   */\n      tag_117\n      jump\t// in\n    tag_140:\n        /* \"#utility.yul\":5103:5189   */\n      swap1\n      pop\n        /* \"#utility.yul\":4883:5196   */\n      swap3\n      swap2\n      pop\n      pop\n      jump\t// out\n        /* \"#utility.yul\":5202:5424   */\n    tag_28:\n        /* \"#utility.yul\":5295:5299   */\n      0x00\n        /* \"#utility.yul\":5333:5335   */\n      0x20\n        /* \"#utility.yul\":5322:5331   */\n      dup3\n        /* \"#utility.yul\":5318:5336   */\n      add\n        /* \"#utility.yul\":5310:5336   */\n      swap1\n      pop\n        /* \"#utility.yul\":5346:5417   */\n      tag_142\n        /* \"#utility.yul\":5414:5415   */\n      0x00\n        /* \"#utility.yul\":5403:5412   */\n      dup4\n        /* \"#utility.yul\":5399:5416   */\n      add\n        /* \"#utility.yul\":5390:5396   */\n      dup5\n        /* \"#utility.yul\":5346:5417   */\n      tag_133\n      jump\t// in\n    tag_142:\n        /* \"#utility.yul\":5202:5424   */\n      swap3\n      swap2\n      pop\n      pop\n      jump\t// out\n        /* \"#utility.yul\":5430:5559   */\n    tag_66:\n        /* \"#utility.yul\":5464:5470   */\n      0x00\n        /* \"#utility.yul\":5491:5511   */\n      tag_144\n      tag_145\n      jump\t// in\n    tag_144:\n        /* \"#utility.yul\":5481:5511   */\n      swap1\n      pop\n        /* \"#utility.yul\":5520:5553   */\n      tag_146\n        /* \"#utility.yul\":5548:5552   */\n      dup3\n        /* \"#utility.yul\":5540:5546   */\n      dup3\n        /* \"#utility.yul\":5520:5553   */\n      tag_147\n      jump\t// in\n    tag_146:\n        /* \"#utility.yul\":5430:5559   */\n      swap2\n      swap1\n      pop\n      jump\t// out\n        /* \"#utility.yul\":5565:5640   */\n    tag_145:\n        /* \"#utility.yul\":5598:5604   */\n      0x00\n        /* \"#utility.yul\":5631:5633   */\n      0x40\n        /* \"#utility.yul\":5625:5634   */\n      mload\n        /* \"#utility.yul\":5615:5634   */\n      swap1\n      pop\n        /* \"#utility.yul\":5565:5640   */\n      swap1\n      jump\t// out\n        /* \"#utility.yul\":5646:5954   */\n    tag_65:\n        /* \"#utility.yul\":5708:5712   */\n      0x00\n        /* \"#utility.yul\":5798:5816   */\n      0xffffffffffffffff\n        /* \"#utility.yul\":5790:5796   */\n      dup3\n        /* \"#utility.yul\":5787:5817   */\n      gt\n        /* \"#utility.yul\":5784:5840   */\n      iszero\n      tag_150\n      jumpi\n        /* \"#utility.yul\":5820:5838   */\n      tag_151\n      tag_152\n      jump\t// in\n    tag_151:\n        /* \"#utility.yul\":5784:5840   */\n    tag_150:\n        /* \"#utility.yul\":5858:5887   */\n      tag_153\n        /* \"#utility.yul\":5880:5886   */\n      dup3\n        /* \"#utility.yul\":5858:5887   */\n      tag_126\n      jump\t// in\n    tag_153:\n        /* \"#utility.yul\":5850:5887   */\n      swap1\n      pop\n        /* \"#utility.yul\":5942:5946   */\n      0x20\n        /* \"#utility.yul\":5936:5940   */\n      dup2\n        /* \"#utility.yul\":5932:5947   */\n      add\n        /* \"#utility.yul\":5924:5947   */\n      swap1\n      pop\n        /* \"#utility.yul\":5646:5954   */\n      swap2\n      swap1\n      pop\n      jump\t// out\n        /* \"#utility.yul\":5960:6059   */\n    tag_120:\n        /* \"#utility.yul\":6012:6018   */\n      0x00\n        /* \"#utility.yul\":6046:6051   */\n      dup2\n        /* \"#utility.yul\":6040:6052   */\n      mload\n        /* \"#utility.yul\":6030:6052   */\n      swap1\n      pop\n        /* \"#utility.yul\":5960:6059   */\n      swap2\n      swap1\n      pop\n      jump\t// out\n        /* \"#utility.yul\":6065:6234   */\n    tag_122:\n        /* \"#utility.yul\":6149:6160   */\n      0x00\n        /* \"#utility.yul\":6183:6189   */\n      dup3\n        /* \"#utility.yul\":6178:6181   */\n      dup3\n        /* \"#utility.yul\":6171:6190   */\n      mstore\n        /* \"#utility.yul\":6223:6227   */\n      0x20\n        /* \"#utility.yul\":6218:6221   */\n      dup3\n        /* \"#utility.yul\":6214:6228   */\n      add\n        /* \"#utility.yul\":6199:6228   */\n      swap1\n      pop\n        /* \"#utility.yul\":6065:6234   */\n      swap3\n      swap2\n      pop\n      pop\n      jump\t// out\n        /* \"#utility.yul\":6240:6388   */\n    tag_131:\n        /* \"#utility.yul\":6342:6353   */\n      0x00\n        /* \"#utility.yul\":6379:6382   */\n      dup2\n        /* \"#utility.yul\":6364:6382   */\n      swap1\n      pop\n        /* \"#utility.yul\":6240:6388   */\n      swap3\n      swap2\n      pop\n      pop\n      jump\t// out\n        /* \"#utility.yul\":6394:6490   */\n    tag_157:\n        /* \"#utility.yul\":6431:6438   */\n      0x00\n        /* \"#utility.yul\":6460:6484   */\n      tag_159\n        /* \"#utility.yul\":6478:6483   */\n      dup3\n        /* \"#utility.yul\":6460:6484   */\n      tag_160\n      jump\t// in\n    tag_159:\n        /* \"#utility.yul\":6449:6484   */\n      swap1\n      pop\n        /* \"#utility.yul\":6394:6490   */\n      swap2\n      swap1\n      pop\n      jump\t// out\n        /* \"#utility.yul\":6496:6622   */\n    tag_160:\n        /* \"#utility.yul\":6533:6540   */\n      0x00\n        /* \"#utility.yul\":6573:6615   */\n      0xffffffffffffffffffffffffffffffffffffffff\n        /* \"#utility.yul\":6566:6571   */\n      dup3\n        /* \"#utility.yul\":6562:6616   */\n      and\n        /* \"#utility.yul\":6551:6616   */\n      swap1\n      pop\n        /* \"#utility.yul\":6496:6622   */\n      swap2\n      swap1\n      pop\n      jump\t// out\n        /* \"#utility.yul\":6628:6705   */\n    tag_136:\n        /* \"#utility.yul\":6665:6672   */\n      0x00\n        /* \"#utility.yul\":6694:6699   */\n      dup2\n        /* \"#utility.yul\":6683:6699   */\n      swap1\n      pop\n        /* \"#utility.yul\":6628:6705   */\n      swap2\n      swap1\n      pop\n      jump\t// out\n        /* \"#utility.yul\":6711:6865   */\n    tag_71:\n        /* \"#utility.yul\":6795:6801   */\n      dup3\n        /* \"#utility.yul\":6790:6793   */\n      dup2\n        /* \"#utility.yul\":6785:6788   */\n      dup4\n        /* \"#utility.yul\":6772:6802   */\n      calldatacopy\n        /* \"#utility.yul\":6857:6858   */\n      0x00\n        /* \"#utility.yul\":6848:6854   */\n      dup4\n        /* \"#utility.yul\":6843:6846   */\n      dup4\n        /* \"#utility.yul\":6839:6855   */\n      add\n        /* \"#utility.yul\":6832:6859   */\n      mstore\n        /* \"#utility.yul\":6711:6865   */\n      pop\n      pop\n      pop\n      jump\t// out\n        /* \"#utility.yul\":6871:7178   */\n    tag_124:\n        /* \"#utility.yul\":6939:6940   */\n      0x00\n        /* \"#utility.yul\":6949:7062   */\n    tag_165:\n        /* \"#utility.yul\":6963:6969   */\n      dup4\n        /* \"#utility.yul\":6960:6961   */\n      dup2\n        /* \"#utility.yul\":6957:6970   */\n      lt\n        /* \"#utility.yul\":6949:7062   */\n      iszero\n      tag_167\n      jumpi\n        /* \"#utility.yul\":7048:7049   */\n      dup1\n        /* \"#utility.yul\":7043:7046   */\n      dup3\n        /* \"#utility.yul\":7039:7050   */\n      add\n        /* \"#utility.yul\":7033:7051   */\n      mload\n        /* \"#utility.yul\":7029:7030   */\n      dup2\n        /* \"#utility.yul\":7024:7027   */\n      dup5\n        /* \"#utility.yul\":7020:7031   */\n      add\n        /* \"#utility.yul\":7013:7052   */\n      mstore\n        /* \"#utility.yul\":6985:6987   */\n      0x20\n        /* \"#utility.yul\":6982:6983   */\n      dup2\n        /* \"#utility.yul\":6978:6988   */\n      add\n        /* \"#utility.yul\":6973:6988   */\n      swap1\n      pop\n        /* \"#utility.yul\":6949:7062   */\n      jump(tag_165)\n    tag_167:\n        /* \"#utility.yul\":7080:7086   */\n      dup4\n        /* \"#utility.yul\":7077:7078   */\n      dup2\n        /* \"#utility.yul\":7074:7087   */\n      gt\n        /* \"#utility.yul\":7071:7172   */\n      iszero\n      tag_168\n      jumpi\n        /* \"#utility.yul\":7160:7161   */\n      0x00\n        /* \"#utility.yul\":7151:7157   */\n      dup5\n        /* \"#utility.yul\":7146:7149   */\n      dup5\n        /* \"#utility.yul\":7142:7158   */\n      add\n        /* \"#utility.yul\":7135:7162   */\n      mstore\n        /* \"#utility.yul\":7071:7172   */\n    tag_168:\n        /* \"#utility.yul\":6920:7178   */\n      pop\n        /* \"#utility.yul\":6871:7178   */\n      pop\n      pop\n      pop\n      jump\t// out\n        /* \"#utility.yul\":7184:7504   */\n    tag_44:\n        /* \"#utility.yul\":7228:7234   */\n      0x00\n        /* \"#utility.yul\":7265:7266   */\n      0x02\n        /* \"#utility.yul\":7259:7263   */\n      dup3\n        /* \"#utility.yul\":7255:7267   */\n      div\n        /* \"#utility.yul\":7245:7267   */\n      swap1\n      pop\n        /* \"#utility.yul\":7312:7313   */\n      0x01\n        /* \"#utility.yul\":7306:7310   */\n      dup3\n        /* \"#utility.yul\":7302:7314   */\n      and\n        /* \"#utility.yul\":7333:7351   */\n      dup1\n        /* \"#utility.yul\":7323:7404   */\n      tag_170\n      jumpi\n        /* \"#utility.yul\":7389:7393   */\n      0x7f\n        /* \"#utility.yul\":7381:7387   */\n      dup3\n        /* \"#utility.yul\":7377:7394   */\n      and\n        /* \"#utility.yul\":7367:7394   */\n      swap2\n      pop\n        /* \"#utility.yul\":7323:7404   */\n    tag_170:\n        /* \"#utility.yul\":7451:7453   */\n      0x20\n        /* \"#utility.yul\":7443:7449   */\n      dup3\n        /* \"#utility.yul\":7440:7454   */\n      lt\n        /* \"#utility.yul\":7420:7438   */\n      dup2\n        /* \"#utility.yul\":7417:7455   */\n      eq\n        /* \"#utility.yul\":7414:7498   */\n      iszero\n      tag_171\n      jumpi\n        /* \"#utility.yul\":7470:7488   */\n      tag_172\n      tag_173\n      jump\t// in\n    tag_172:\n        /* \"#utility.yul\":7414:7498   */\n    tag_171:\n        /* \"#utility.yul\":7235:7504   */\n      pop\n        /* \"#utility.yul\":7184:7504   */\n      swap2\n      swap1\n      pop\n      jump\t// out\n        /* \"#utility.yul\":7510:7791   */\n    tag_147:\n        /* \"#utility.yul\":7593:7620   */\n      tag_175\n        /* \"#utility.yul\":7615:7619   */\n      dup3\n        /* \"#utility.yul\":7593:7620   */\n      tag_126\n      jump\t// in\n    tag_175:\n        /* \"#utility.yul\":7585:7591   */\n      dup2\n        /* \"#utility.yul\":7581:7621   */\n      add\n        /* \"#utility.yul\":7723:7729   */\n      dup2\n        /* \"#utility.yul\":7711:7721   */\n      dup2\n        /* \"#utility.yul\":7708:7730   */\n      lt\n        /* \"#utility.yul\":7687:7705   */\n      0xffffffffffffffff\n        /* \"#utility.yul\":7675:7685   */\n      dup3\n        /* \"#utility.yul\":7672:7706   */\n      gt\n        /* \"#utility.yul\":7669:7731   */\n      or\n        /* \"#utility.yul\":7666:7754   */\n      iszero\n      tag_176\n      jumpi\n        /* \"#utility.yul\":7734:7752   */\n      tag_177\n      tag_152\n      jump\t// in\n    tag_177:\n        /* \"#utility.yul\":7666:7754   */\n    tag_176:\n        /* \"#utility.yul\":7774:7784   */\n      dup1\n        /* \"#utility.yul\":7770:7772   */\n      0x40\n        /* \"#utility.yul\":7763:7785   */\n      mstore\n        /* \"#utility.yul\":7553:7791   */\n      pop\n        /* \"#utility.yul\":7510:7791   */\n      pop\n      pop\n      jump\t// out\n        /* \"#utility.yul\":7797:7977   */\n    tag_173:\n        /* \"#utility.yul\":7845:7922   */\n      0x4e487b7100000000000000000000000000000000000000000000000000000000\n        /* \"#utility.yul\":7842:7843   */\n      0x00\n        /* \"#utility.yul\":7835:7923   */\n      mstore\n        /* \"#utility.yul\":7942:7946   */\n      0x22\n        /* \"#utility.yul\":7939:7940   */\n      0x04\n        /* \"#utility.yul\":7932:7947   */\n      mstore\n        /* \"#utility.yul\":7966:7970   */\n      0x24\n        /* \"#utility.yul\":7963:7964   */\n      0x00\n        /* \"#utility.yul\":7956:7971   */\n      revert\n        /* \"#utility.yul\":7983:8163   */\n    tag_152:\n        /* \"#utility.yul\":8031:8108   */\n      0x4e487b7100000000000000000000000000000000000000000000000000000000\n        /* \"#utility.yul\":8028:8029   */\n      0x00\n        /* \"#utility.yul\":8021:8109   */\n      mstore\n        /* \"#utility.yul\":8128:8132   */\n      0x41\n        /* \"#utility.yul\":8125:8126   */\n      0x04\n        /* \"#utility.yul\":8118:8133   */\n      mstore\n        /* \"#utility.yul\":8152:8156   */\n      0x24\n        /* \"#utility.yul\":8149:8150   */\n      0x00\n        /* \"#utility.yul\":8142:8157   */\n      revert\n        /* \"#utility.yul\":8169:8286   */\n    tag_80:\n        /* \"#utility.yul\":8278:8279   */\n      0x00\n        /* \"#utility.yul\":8275:8276   */\n      dup1\n        /* \"#utility.yul\":8268:8280   */\n      revert\n        /* \"#utility.yul\":8292:8409   */\n    tag_69:\n        /* \"#utility.yul\":8401:8402   */\n      0x00\n        /* \"#utility.yul\":8398:8399   */\n      dup1\n        /* \"#utility.yul\":8391:8403   */\n      revert\n        /* \"#utility.yul\":8415:8532   */\n    tag_97:\n        /* \"#utility.yul\":8524:8525   */\n      0x00\n        /* \"#utility.yul\":8521:8522   */\n      dup1\n        /* \"#utility.yul\":8514:8526   */\n      revert\n        /* \"#utility.yul\":8538:8655   */\n    tag_89:\n        /* \"#utility.yul\":8647:8648   */\n      0x00\n        /* \"#utility.yul\":8644:8645   */\n      dup1\n        /* \"#utility.yul\":8637:8649   */\n      revert\n        /* \"#utility.yul\":8661:8763   */\n    tag_126:\n        /* \"#utility.yul\":8702:8708   */\n      0x00\n        /* \"#utility.yul\":8753:8755   */\n      0x1f\n        /* \"#utility.yul\":8749:8756   */\n      not\n        /* \"#utility.yul\":8744:8746   */\n      0x1f\n        /* \"#utility.yul\":8737:8742   */\n      dup4\n        /* \"#utility.yul\":8733:8747   */\n      add\n        /* \"#utility.yul\":8729:8757   */\n      and\n        /* \"#utility.yul\":8719:8757   */\n      swap1\n      pop\n        /* \"#utility.yul\":8661:8763   */\n      swap2\n      swap1\n      pop\n      jump\t// out\n        /* \"#utility.yul\":8769:8891   */\n    tag_75:\n        /* \"#utility.yul\":8842:8866   */\n      tag_186\n        /* \"#utility.yul\":8860:8865   */\n      dup2\n        /* \"#utility.yul\":8842:8866   */\n      tag_157\n      jump\t// in\n    tag_186:\n        /* \"#utility.yul\":8835:8840   */\n      dup2\n        /* \"#utility.yul\":8832:8867   */\n      eq\n        /* \"#utility.yul\":8822:8885   */\n      tag_187\n      jumpi\n        /* \"#utility.yul\":8881:8882   */\n      0x00\n        /* \"#utility.yul\":8878:8879   */\n      dup1\n        /* \"#utility.yul\":8871:8883   */\n      revert\n        /* \"#utility.yul\":8822:8885   */\n    tag_187:\n        /* \"#utility.yul\":8769:8891   */\n      pop\n      jump\t// out\n        /* \"#utility.yul\":8897:9019   */\n    tag_85:\n        /* \"#utility.yul\":8970:8994   */\n      tag_189\n        /* \"#utility.yul\":8988:8993   */\n      dup2\n        /* \"#utility.yul\":8970:8994   */\n      tag_136\n      jump\t// in\n    tag_189:\n        /* \"#utility.yul\":8963:8968   */\n      dup2\n        /* \"#utility.yul\":8960:8995   */\n      eq\n        /* \"#utility.yul\":8950:9013   */\n      tag_190\n      jumpi\n        /* \"#utility.yul\":9009:9010   */\n      0x00\n        /* \"#utility.yul\":9006:9007   */\n      dup1\n        /* \"#utility.yul\":8999:9011   */\n      revert\n        /* \"#utility.yul\":8950:9013   */\n    tag_190:\n        /* \"#utility.yul\":8897:9019   */\n      pop\n      jump\t// out\n\n    auxdata: 0xa26469706673582212208be5db57837a23c1cf174ca4761979c477ef5009c195be792c5d8026d2dc089b64736f6c63430008070033\n}\n",
				"bytecode": {
					"linkReferences": {},
					"object": "608060405234801561001057600080fd5b506108b5806100206000396000f3fe608060405234801561001057600080fd5b50600436106100625760003560e01c8063250f050a146100675780633878388e146100835780635e5c06e21461009f5780636dcfe452146100cf578063cc319e84146100ff578063e2982c211461011b575b600080fd5b610081600480360381019061007c9190610547565b61014b565b005b61009d60048036038101906100989190610462565b610172565b005b6100b960048036038101906100b49190610435565b6101ca565b6040516100c69190610633565b60405180910390f35b6100e960048036038101906100e491906104fe565b61026a565b6040516100f69190610655565b60405180910390f35b610119600480360381019061011491906104be565b610298565b005b61013560048036038101906101309190610435565b6102e0565b6040516101429190610655565b60405180910390f35b8060008360405161015c919061061c565b9081526020016040518091039020819055505050565b80600160008473ffffffffffffffffffffffffffffffffffffffff1673ffffffffffffffffffffffffffffffffffffffff16815260200190815260200160002090805190602001906101c59291906102f8565b505050565b600160205280600052604060002060009150905080546101e99061076b565b80601f01602080910402602001604051908101604052809291908181526020018280546102159061076b565b80156102625780601f1061023757610100808354040283529160200191610262565b820191906000526020600020905b81548152906001019060200180831161024557829003601f168201915b505050505081565b6000818051602081018201805184825260208301602085012081835280955050505050506000915090505481565b80600260008473ffffffffffffffffffffffffffffffffffffffff1673ffffffffffffffffffffffffffffffffffffffff168152602001908152602001600020819055505050565b60026020528060005260406000206000915090505481565b8280546103049061076b565b90600052602060002090601f016020900481019282610326576000855561036d565b82601f1061033f57805160ff191683800117855561036d565b8280016001018555821561036d579182015b8281111561036c578251825591602001919060010190610351565b5b50905061037a919061037e565b5090565b5b8082111561039757600081600090555060010161037f565b5090565b60006103ae6103a984610695565b610670565b9050828152602081018484840111156103ca576103c9610831565b5b6103d5848285610729565b509392505050565b6000813590506103ec81610851565b92915050565b600082601f8301126104075761040661082c565b5b813561041784826020860161039b565b91505092915050565b60008135905061042f81610868565b92915050565b60006020828403121561044b5761044a61083b565b5b6000610459848285016103dd565b91505092915050565b600080604083850312156104795761047861083b565b5b6000610487858286016103dd565b925050602083013567ffffffffffffffff8111156104a8576104a7610836565b5b6104b4858286016103f2565b9150509250929050565b600080604083850312156104d5576104d461083b565b5b60006104e3858286016103dd565b92505060206104f485828601610420565b9150509250929050565b6000602082840312156105145761051361083b565b5b600082013567ffffffffffffffff81111561053257610531610836565b5b61053e848285016103f2565b91505092915050565b6000806040838503121561055e5761055d61083b565b5b600083013567ffffffffffffffff81111561057c5761057b610836565b5b610588858286016103f2565b925050602061059985828601610420565b9150509250929050565b60006105ae826106c6565b6105b881856106d1565b93506105c8818560208601610738565b6105d181610840565b840191505092915050565b60006105e7826106c6565b6105f181856106e2565b9350610601818560208601610738565b80840191505092915050565b6106168161071f565b82525050565b600061062882846105dc565b915081905092915050565b6000602082019050818103600083015261064d81846105a3565b905092915050565b600060208201905061066a600083018461060d565b92915050565b600061067a61068b565b9050610686828261079d565b919050565b6000604051905090565b600067ffffffffffffffff8211156106b0576106af6107fd565b5b6106b982610840565b9050602081019050919050565b600081519050919050565b600082825260208201905092915050565b600081905092915050565b60006106f8826106ff565b9050919050565b600073ffffffffffffffffffffffffffffffffffffffff82169050919050565b6000819050919050565b82818337600083830152505050565b60005b8381101561075657808201518184015260208101905061073b565b83811115610765576000848401525b50505050565b6000600282049050600182168061078357607f821691505b60208210811415610797576107966107ce565b5b50919050565b6107a682610840565b810181811067ffffffffffffffff821117156107c5576107c46107fd565b5b80604052505050565b7f4e487b7100000000000000000000000000000000000000000000000000000000600052602260045260246000fd5b7f4e487b7100000000000000000000000000000000000000000000000000000000600052604160045260246000fd5b600080fd5b600080fd5b600080fd5b600080fd5b6000601f19601f8301169050919050565b61085a816106ed565b811461086557600080fd5b50565b6108718161071f565b811461087c57600080fd5b5056fea26469706673582212208be5db57837a23c1cf174ca4761979c477ef5009c195be792c5d8026d2dc089b64736f6c63430008070033",
					"opcodes": "PUSH1 0x80 PUSH1 0x40 MSTORE CALLVALUE DUP1 ISZERO PUSH2 0x10 JUMPI PUSH1 0x0 DUP1 REVERT JUMPDEST POP PUSH2 0x8B5 DUP1 PUSH2 0x20 PUSH1 0x0 CODECOPY PUSH1 0x0 RETURN INVALID PUSH1 0x80 PUSH1 0x40 MSTORE CALLVALUE DUP1 ISZERO PUSH2 0x10 JUMPI PUSH1 0x0 DUP1 REVERT JUMPDEST POP PUSH1 0x4 CALLDATASIZE LT PUSH2 0x62 JUMPI PUSH1 0x0 CALLDATALOAD PUSH1 0xE0 SHR DUP1 PUSH4 0x250F050A EQ PUSH2 0x67 JUMPI DUP1 PUSH4 0x3878388E EQ PUSH2 0x83 JUMPI DUP1 PUSH4 0x5E5C06E2 EQ PUSH2 0x9F JUMPI DUP1 PUSH4 0x6DCFE452 EQ PUSH2 0xCF JUMPI DUP1 PUSH4 0xCC319E84 EQ PUSH2 0xFF JUMPI DUP1 PUSH4 0xE2982C21 EQ PUSH2 0x11B JUMPI JUMPDEST PUSH1 0x0 DUP1 REVERT JUMPDEST PUSH2 0x81 PUSH1 0x4 DUP1 CALLDATASIZE SUB DUP2 ADD SWAP1 PUSH2 0x7C SWAP2 SWAP1 PUSH2 0x547 JUMP JUMPDEST PUSH2 0x14B JUMP JUMPDEST STOP JUMPDEST PUSH2 0x9D PUSH1 0x4 DUP1 CALLDATASIZE SUB DUP2 ADD SWAP1 PUSH2 0x98 SWAP2 SWAP1 PUSH2 0x462 JUMP JUMPDEST PUSH2 0x172 JUMP JUMPDEST STOP JUMPDEST PUSH2 0xB9 PUSH1 0x4 DUP1 CALLDATASIZE SUB DUP2 ADD SWAP1 PUSH2 0xB4 SWAP2 SWAP1 PUSH2 0x435 JUMP JUMPDEST PUSH2 0x1CA JUMP JUMPDEST PUSH1 0x40 MLOAD PUSH2 0xC6 SWAP2 SWAP1 PUSH2 0x633 JUMP JUMPDEST PUSH1 0x40 MLOAD DUP1 SWAP2 SUB SWAP1 RETURN JUMPDEST PUSH2 0xE9 PUSH1 0x4 DUP1 CALLDATASIZE SUB DUP2 ADD SWAP1 PUSH2 0xE4 SWAP2 SWAP1 PUSH2 0x4FE JUMP JUMPDEST PUSH2 0x26A JUMP JUMPDEST PUSH1 0x40 MLOAD PUSH2 0xF6 SWAP2 SWAP1 PUSH2 0x655 JUMP JUMPDEST PUSH1 0x40 MLOAD DUP1 SWAP2 SUB SWAP1 RETURN JUMPDEST PUSH2 0x119 PUSH1 0x4 DUP1 CALLDATASIZE SUB DUP2 ADD SWAP1 PUSH2 0x114 SWAP2 SWAP1 PUSH2 0x4BE JUMP JUMPDEST PUSH2 0x298 JUMP JUMPDEST STOP JUMPDEST PUSH2 0x135 PUSH1 0x4 DUP1 CALLDATASIZE SUB DUP2 ADD SWAP1 PUSH2 0x130 SWAP2 SWAP1 PUSH2 0x435 JUMP JUMPDEST PUSH2 0x2E0 JUMP JUMPDEST PUSH1 0x40 MLOAD PUSH2 0x142 SWAP2 SWAP1 PUSH2 0x655 JUMP JUMPDEST PUSH1 0x40 MLOAD DUP1 SWAP2 SUB SWAP1 RETURN JUMPDEST DUP1 PUSH1 0x0 DUP4 PUSH1 0x40 MLOAD PUSH2 0x15C SWAP2 SWAP1 PUSH2 0x61C JUMP JUMPDEST SWAP1 DUP2 MSTORE PUSH1 0x20 ADD PUSH1 0x40 MLOAD DUP1 SWAP2 SUB SWAP1 KECCAK256 DUP2 SWAP1 SSTORE POP POP POP JUMP JUMPDEST DUP1 PUSH1 0x1 PUSH1 0x0 DUP5 PUSH20 0xFFFFFFFFFFFFFFFFFFFFFFFFFFFFFFFFFFFFFFFF AND PUSH20 0xFFFFFFFFFFFFFFFFFFFFFFFFFFFFFFFFFFFFFFFF AND DUP2 MSTORE PUSH1 0x20 ADD SWAP1 DUP2 MSTORE PUSH1 0x20 ADD PUSH1 0x0 KECCAK256 SWAP1 DUP1 MLOAD SWAP1 PUSH1 0x20 ADD SWAP1 PUSH2 0x1C5 SWAP3 SWAP2 SWAP1 PUSH2 0x2F8 JUMP JUMPDEST POP POP POP JUMP JUMPDEST PUSH1 0x1 PUSH1 0x20 MSTORE DUP1 PUSH1 0x0 MSTORE PUSH1 0x40 PUSH1 0x0 KECCAK256 PUSH1 0x0 SWAP2 POP SWAP1 POP DUP1 SLOAD PUSH2 0x1E9 SWAP1 PUSH2 0x76B JUMP JUMPDEST DUP1 PUSH1 0x1F ADD PUSH1 0x20 DUP1 SWAP2 DIV MUL PUSH1 0x20 ADD PUSH1 0x40 MLOAD SWAP1 DUP2 ADD PUSH1 0x40 MSTORE DUP1 SWAP3 SWAP2 SWAP1 DUP2 DUP2 MSTORE PUSH1 0x20 ADD DUP3 DUP1 SLOAD PUSH2 0x215 SWAP1 PUSH2 0x76B JUMP JUMPDEST DUP1 ISZERO PUSH2 0x262 JUMPI DUP1 PUSH1 0x1F LT PUSH2 0x237 JUMPI PUSH2 0x100 DUP1 DUP4 SLOAD DIV MUL DUP4 MSTORE SWAP2 PUSH1 0x20 ADD SWAP2 PUSH2 0x262 JUMP JUMPDEST DUP3 ADD SWAP2 SWAP1 PUSH1 0x0 MSTORE PUSH1 0x20 PUSH1 0x0 KECCAK256 SWAP1 JUMPDEST DUP2 SLOAD DUP2 MSTORE SWAP1 PUSH1 0x1 ADD SWAP1 PUSH1 0x20 ADD DUP1 DUP4 GT PUSH2 0x245 JUMPI DUP3 SWAP1 SUB PUSH1 0x1F AND DUP3 ADD SWAP2 JUMPDEST POP POP POP POP POP DUP2 JUMP JUMPDEST PUSH1 0x0 DUP2 DUP1 MLOAD PUSH1 0x20 DUP2 ADD DUP3 ADD DUP1 MLOAD DUP5 DUP3 MSTORE PUSH1 0x20 DUP4 ADD PUSH1 0x20 DUP6 ADD KECCAK256 DUP2 DUP4 MSTORE DUP1 SWAP6 POP POP POP POP POP POP PUSH1 0x0 SWAP2 POP SWAP1 POP SLOAD DUP2 JUMP JUMPDEST DUP1 PUSH1 0x2 PUSH1 0x0 DUP5 PUSH20 0xFFFFFFFFFFFFFFFFFFFFFFFFFFFFFFFFFFFFFFFF AND PUSH20 0xFFFFFFFFFFFFFFFFFFFFFFFFFFFFFFFFFFFFFFFF AND DUP2 MSTORE PUSH1 0x20 ADD SWAP1 DUP2 MSTORE PUSH1 0x20 ADD PUSH1 0x0 KECCAK256 DUP2 SWAP1 SSTORE POP POP POP JUMP JUMPDEST PUSH1 0x2 PUSH1 0x20 MSTORE DUP1 PUSH1 0x0 MSTORE PUSH1 0x40 PUSH1 0x0 KECCAK256 PUSH1 0x0 SWAP2 POP SWAP1 POP SLOAD DUP2 JUMP JUMPDEST DUP3 DUP1 SLOAD PUSH2 0x304 SWAP1 PUSH2 0x76B JUMP JUMPDEST SWAP1 PUSH1 0x0 MSTORE PUSH1 0x20 PUSH1 0x0 KECCAK256 SWAP1 PUSH1 0x1F ADD PUSH1 0x20 SWAP1 DIV DUP2 ADD SWAP3 DUP3 PUSH2 0x326 JUMPI PUSH1 0x0 DUP6 SSTORE PUSH2 0x36D JUMP JUMPDEST DUP3 PUSH1 0x1F LT PUSH2 0x33F JUMPI DUP1 MLOAD PUSH1 0xFF NOT AND DUP4 DUP1 ADD OR DUP6 SSTORE PUSH2 0x36D JUMP JUMPDEST DUP3 DUP1 ADD PUSH1 0x1 ADD DUP6 SSTORE DUP3 ISZERO PUSH2 0x36D JUMPI SWAP2 DUP3 ADD JUMPDEST DUP3 DUP2 GT ISZERO PUSH2 0x36C JUMPI DUP3 MLOAD DUP3 SSTORE SWAP2 PUSH1 0x20 ADD SWAP2 SWAP1 PUSH1 0x1 ADD SWAP1 PUSH2 0x351 JUMP JUMPDEST JUMPDEST POP SWAP1 POP PUSH2 0x37A SWAP2 SWAP1 PUSH2 0x37E JUMP JUMPDEST POP SWAP1 JUMP JUMPDEST JUMPDEST DUP1 DUP3 GT ISZERO PUSH2 0x397 JUMPI PUSH1 0x0 DUP2 PUSH1 0x0 SWAP1 SSTORE POP PUSH1 0x1 ADD PUSH2 0x37F JUMP JUMPDEST POP SWAP1 JUMP JUMPDEST PUSH1 0x0 PUSH2 0x3AE PUSH2 0x3A9 DUP5 PUSH2 0x695 JUMP JUMPDEST PUSH2 0x670 JUMP JUMPDEST SWAP1 POP DUP3 DUP2 MSTORE PUSH1 0x20 DUP2 ADD DUP5 DUP5 DUP5 ADD GT ISZERO PUSH2 0x3CA JUMPI PUSH2 0x3C9 PUSH2 0x831 JUMP JUMPDEST JUMPDEST PUSH2 0x3D5 DUP5 DUP3 DUP6 PUSH2 0x729 JUMP JUMPDEST POP SWAP4 SWAP3 POP POP POP JUMP JUMPDEST PUSH1 0x0 DUP2 CALLDATALOAD SWAP1 POP PUSH2 0x3EC DUP2 PUSH2 0x851 JUMP JUMPDEST SWAP3 SWAP2 POP POP JUMP JUMPDEST PUSH1 0x0 DUP3 PUSH1 0x1F DUP4 ADD SLT PUSH2 0x407 JUMPI PUSH2 0x406 PUSH2 0x82C JUMP JUMPDEST JUMPDEST DUP2 CALLDATALOAD PUSH2 0x417 DUP5 DUP3 PUSH1 0x20 DUP7 ADD PUSH2 0x39B JUMP JUMPDEST SWAP2 POP POP SWAP3 SWAP2 POP POP JUMP JUMPDEST PUSH1 0x0 DUP2 CALLDATALOAD SWAP1 POP PUSH2 0x42F DUP2 PUSH2 0x868 JUMP JUMPDEST SWAP3 SWAP2 POP POP JUMP JUMPDEST PUSH1 0x0 PUSH1 0x20 DUP3 DUP5 SUB SLT ISZERO PUSH2 0x44B JUMPI PUSH2 0x44A PUSH2 0x83B JUMP JUMPDEST JUMPDEST PUSH1 0x0 PUSH2 0x459 DUP5 DUP3 DUP6 ADD PUSH2 0x3DD JUMP JUMPDEST SWAP2 POP POP SWAP3 SWAP2 POP POP JUMP JUMPDEST PUSH1 0x0 DUP1 PUSH1 0x40 DUP4 DUP6 SUB SLT ISZERO PUSH2 0x479 JUMPI PUSH2 0x478 PUSH2 0x83B JUMP JUMPDEST JUMPDEST PUSH1 0x0 PUSH2 0x487 DUP6 DUP3 DUP7 ADD PUSH2 0x3DD JUMP JUMPDEST SWAP3 POP POP PUSH1 0x20 DUP4 ADD CALLDATALOAD PUSH8 0xFFFFFFFFFFFFFFFF DUP2 GT ISZERO PUSH2 0x4A8 JUMPI PUSH2 0x4A7 PUSH2 0x836 JUMP JUMPDEST JUMPDEST PUSH2 0x4B4 DUP6 DUP3 DUP7 ADD PUSH2 0x3F2 JUMP JUMPDEST SWAP2 POP POP SWAP3 POP SWAP3 SWAP1 POP JUMP JUMPDEST PUSH1 0x0 DUP1 PUSH1 0x40 DUP4 DUP6 SUB SLT ISZERO PUSH2 0x4D5 JUMPI PUSH2 0x4D4 PUSH2 0x83B JUMP JUMPDEST JUMPDEST PUSH1 0x0 PUSH2 0x4E3 DUP6 DUP3 DUP7 ADD PUSH2 0x3DD JUMP JUMPDEST SWAP3 POP POP PUSH1 0x20 PUSH2 0x4F4 DUP6 DUP3 DUP7 ADD PUSH2 0x420 JUMP JUMPDEST SWAP2 POP POP SWAP3 POP SWAP3 SWAP1 POP JUMP JUMPDEST PUSH1 0x0 PUSH1 0x20 DUP3 DUP5 SUB SLT ISZERO PUSH2 0x514 JUMPI PUSH2 0x513 PUSH2 0x83B JUMP JUMPDEST JUMPDEST PUSH1 0x0 DUP3 ADD CALLDATALOAD PUSH8 0xFFFFFFFFFFFFFFFF DUP2 GT ISZERO PUSH2 0x532 JUMPI PUSH2 0x531 PUSH2 0x836 JUMP JUMPDEST JUMPDEST PUSH2 0x53E DUP5 DUP3 DUP6 ADD PUSH2 0x3F2 JUMP JUMPDEST SWAP2 POP POP SWAP3 SWAP2 POP POP JUMP JUMPDEST PUSH1 0x0 DUP1 PUSH1 0x40 DUP4 DUP6 SUB SLT ISZERO PUSH2 0x55E JUMPI PUSH2 0x55D PUSH2 0x83B JUMP JUMPDEST JUMPDEST PUSH1 0x0 DUP4 ADD CALLDATALOAD PUSH8 0xFFFFFFFFFFFFFFFF DUP2 GT ISZERO PUSH2 0x57C JUMPI PUSH2 0x57B PUSH2 0x836 JUMP JUMPDEST JUMPDEST PUSH2 0x588 DUP6 DUP3 DUP7 ADD PUSH2 0x3F2 JUMP JUMPDEST SWAP3 POP POP PUSH1 0x20 PUSH2 0x599 DUP6 DUP3 DUP7 ADD PUSH2 0x420 JUMP JUMPDEST SWAP2 POP POP SWAP3 POP SWAP3 SWAP1 POP JUMP JUMPDEST PUSH1 0x0 PUSH2 0x5AE DUP3 PUSH2 0x6C6 JUMP JUMPDEST PUSH2 0x5B8 DUP2 DUP6 PUSH2 0x6D1 JUMP JUMPDEST SWAP4 POP PUSH2 0x5C8 DUP2 DUP6 PUSH1 0x20 DUP7 ADD PUSH2 0x738 JUMP JUMPDEST PUSH2 0x5D1 DUP2 PUSH2 0x840 JUMP JUMPDEST DUP5 ADD SWAP2 POP POP SWAP3 SWAP2 POP POP JUMP JUMPDEST PUSH1 0x0 PUSH2 0x5E7 DUP3 PUSH2 0x6C6 JUMP JUMPDEST PUSH2 0x5F1 DUP2 DUP6 PUSH2 0x6E2 JUMP JUMPDEST SWAP4 POP PUSH2 0x601 DUP2 DUP6 PUSH1 0x20 DUP7 ADD PUSH2 0x738 JUMP JUMPDEST DUP1 DUP5 ADD SWAP2 POP POP SWAP3 SWAP2 POP POP JUMP JUMPDEST PUSH2 0x616 DUP2 PUSH2 0x71F JUMP JUMPDEST DUP3 MSTORE POP POP JUMP JUMPDEST PUSH1 0x0 PUSH2 0x628 DUP3 DUP5 PUSH2 0x5DC JUMP JUMPDEST SWAP2 POP DUP2 SWAP1 POP SWAP3 SWAP2 POP POP JUMP JUMPDEST PUSH1 0x0 PUSH1 0x20 DUP3 ADD SWAP1 POP DUP2 DUP2 SUB PUSH1 0x0 DUP4 ADD MSTORE PUSH2 0x64D DUP2 DUP5 PUSH2 0x5A3 JUMP JUMPDEST SWAP1 POP SWAP3 SWAP2 POP POP JUMP JUMPDEST PUSH1 0x0 PUSH1 0x20 DUP3 ADD SWAP1 POP PUSH2 0x66A PUSH1 0x0 DUP4 ADD DUP5 PUSH2 0x60D JUMP JUMPDEST SWAP3 SWAP2 POP POP JUMP JUMPDEST PUSH1 0x0 PUSH2 0x67A PUSH2 0x68B JUMP JUMPDEST SWAP1 POP PUSH2 0x686 DUP3 DUP3 PUSH2 0x79D JUMP JUMPDEST SWAP2 SWAP1 POP JUMP JUMPDEST PUSH1 0x0 PUSH1 0x40 MLOAD SWAP1 POP SWAP1 JUMP JUMPDEST PUSH1 0x0 PUSH8 0xFFFFFFFFFFFFFFFF DUP3 GT ISZERO PUSH2 0x6B0 JUMPI PUSH2 0x6AF PUSH2 0x7FD JUMP JUMPDEST JUMPDEST PUSH2 0x6B9 DUP3 PUSH2 0x840 JUMP JUMPDEST SWAP1 POP PUSH1 0x20 DUP2 ADD SWAP1 POP SWAP2 SWAP1 POP JUMP JUMPDEST PUSH1 0x0 DUP2 MLOAD SWAP1 POP SWAP2 SWAP1 POP JUMP JUMPDEST PUSH1 0x0 DUP3 DUP3 MSTORE PUSH1 0x20 DUP3 ADD SWAP1 POP SWAP3 SWAP2 POP POP JUMP JUMPDEST PUSH1 0x0 DUP2 SWAP1 POP SWAP3 SWAP2 POP POP JUMP JUMPDEST PUSH1 0x0 PUSH2 0x6F8 DUP3 PUSH2 0x6FF JUMP JUMPDEST SWAP1 POP SWAP2 SWAP1 POP JUMP JUMPDEST PUSH1 0x0 PUSH20 0xFFFFFFFFFFFFFFFFFFFFFFFFFFFFFFFFFFFFFFFF DUP3 AND SWAP1 POP SWAP2 SWAP1 POP JUMP JUMPDEST PUSH1 0x0 DUP2 SWAP1 POP SWAP2 SWAP1 POP JUMP JUMPDEST DUP3 DUP2 DUP4 CALLDATACOPY PUSH1 0x0 DUP4 DUP4 ADD MSTORE POP POP POP JUMP JUMPDEST PUSH1 0x0 JUMPDEST DUP4 DUP2 LT ISZERO PUSH2 0x756 JUMPI DUP1 DUP3 ADD MLOAD DUP2 DUP5 ADD MSTORE PUSH1 0x20 DUP2 ADD SWAP1 POP PUSH2 0x73B JUMP JUMPDEST DUP4 DUP2 GT ISZERO PUSH2 0x765 JUMPI PUSH1 0x0 DUP5 DUP5 ADD MSTORE JUMPDEST POP POP POP POP JUMP JUMPDEST PUSH1 0x0 PUSH1 0x2 DUP3 DIV SWAP1 POP PUSH1 0x1 DUP3 AND DUP1 PUSH2 0x783 JUMPI PUSH1 0x7F DUP3 AND SWAP2 POP JUMPDEST PUSH1 0x20 DUP3 LT DUP2 EQ ISZERO PUSH2 0x797 JUMPI PUSH2 0x796 PUSH2 0x7CE JUMP JUMPDEST JUMPDEST POP SWAP2 SWAP1 POP JUMP JUMPDEST PUSH2 0x7A6 DUP3 PUSH2 0x840 JUMP JUMPDEST DUP2 ADD DUP2 DUP2 LT PUSH8 0xFFFFFFFFFFFFFFFF DUP3 GT OR ISZERO PUSH2 0x7C5 JUMPI PUSH2 0x7C4 PUSH2 0x7FD JUMP JUMPDEST JUMPDEST DUP1 PUSH1 0x40 MSTORE POP POP POP JUMP JUMPDEST PUSH32 0x4E487B7100000000000000000000000000000000000000000000000000000000 PUSH1 0x0 MSTORE PUSH1 0x22 PUSH1 0x4 MSTORE PUSH1 0x24 PUSH1 0x0 REVERT JUMPDEST PUSH32 0x4E487B7100000000000000000000000000000000000000000000000000000000 PUSH1 0x0 MSTORE PUSH1 0x41 PUSH1 0x4 MSTORE PUSH1 0x24 PUSH1 0x0 REVERT JUMPDEST PUSH1 0x0 DUP1 REVERT JUMPDEST PUSH1 0x0 DUP1 REVERT JUMPDEST PUSH1 0x0 DUP1 REVERT JUMPDEST PUSH1 0x0 DUP1 REVERT JUMPDEST PUSH1 0x0 PUSH1 0x1F NOT PUSH1 0x1F DUP4 ADD AND SWAP1 POP SWAP2 SWAP1 POP JUMP JUMPDEST PUSH2 0x85A DUP2 PUSH2 0x6ED JUMP JUMPDEST DUP2 EQ PUSH2 0x865 JUMPI PUSH1 0x0 DUP1 REVERT JUMPDEST POP JUMP JUMPDEST PUSH2 0x871 DUP2 PUSH2 0x71F JUMP JUMPDEST DUP2 EQ PUSH2 0x87C JUMPI PUSH1 0x0 DUP1 REVERT JUMPDEST POP JUMP INVALID LOG2 PUSH5 0x6970667358 0x22 SLT KECCAK256 DUP12 0xE5 0xDB JUMPI DUP4 PUSH27 0x23C1CF174CA4761979C477EF5009C195BE792C5D8026D2DC089B64 PUSH20 0x6F6C634300080700330000000000000000000000 "
				},
				"gasEstimates": {
					"creation": {
						"codeDepositCost": "445800",
						"executionCost": "480",
						"totalCost": "446280"
					},
					"external": {
						"accounts(address)": "infinite",
						"ages(string)": "infinite",
						"payments(address)": "2902",
						"setAccounts(address,string)": "infinite",
						"setAges(string,uint256)": "infinite",
						"setPayments(address,uint256)": "22898"
					}
				},
				"methodIdentifiers": {
					"accounts(address)": "5e5c06e2",
					"ages(string)": "6dcfe452",
					"payments(address)": "e2982c21",
					"setAccounts(address,string)": "3878388e",
					"setAges(string,uint256)": "250f050a",
					"setPayments(address,uint256)": "cc319e84"
				}
			},
			"storageLayout": {
				"storage": [
					{
						"astId": 5,
						"contract": "contracts/Lesson3Types.sol:Map3Lesson",
						"label": "ages",
						"offset": 0,
						"slot": "0",
						"type": "t_mapping(t_string_memory_ptr,t_uint256)"
					},
					{
						"astId": 9,
						"contract": "contracts/Lesson3Types.sol:Map3Lesson",
						"label": "accounts",
						"offset": 0,
						"slot": "1",
						"type": "t_mapping(t_address,t_string_storage)"
					},
					{
						"astId": 13,
						"contract": "contracts/Lesson3Types.sol:Map3Lesson",
						"label": "payments",
						"offset": 0,
						"slot": "2",
						"type": "t_mapping(t_address,t_uint256)"
					}
				],
				"types": {
					"t_address": {
						"encoding": "inplace",
						"label": "address",
						"numberOfBytes": "20"
					},
					"t_mapping(t_address,t_string_storage)": {
						"encoding": "mapping",
						"key": "t_address",
						"label": "mapping(address => string)",
						"numberOfBytes": "32",
						"value": "t_string_storage"
					},
					"t_mapping(t_address,t_uint256)": {
						"encoding": "mapping",
						"key": "t_address",
						"label": "mapping(address => uint256)",
						"numberOfBytes": "32",
						"value": "t_uint256"
					},
					"t_mapping(t_string_memory_ptr,t_uint256)": {
						"encoding": "mapping",
						"key": "t_string_memory_ptr",
						"label": "mapping(string => uint256)",
						"numberOfBytes": "32",
						"value": "t_uint256"
					},
					"t_string_memory_ptr": {
						"encoding": "bytes",
						"label": "string",
						"numberOfBytes": "32"
					},
					"t_string_storage": {
						"encoding": "bytes",
						"label": "string",
						"numberOfBytes": "32"
					},
					"t_uint256": {
						"encoding": "inplace",
						"label": "uint256",
						"numberOfBytes": "32"
					}
				}
			},
			"userdoc": {
				"kind": "user",
				"methods": {},
				"version": 1
			}
		}
	}
}