{
	"contracts/Lesson3Types.sol": {
		"Map3Lesson": {
			"abi": [
				{
					"inputs": [
						{
							"internalType": "address",
							"name": "",
							"type": "address"
						}
					],
					"name": "accounts",
					"outputs": [
						{
							"internalType": "string",
							"name": "",
							"type": "string"
						}
					],
					"stateMutability": "view",
					"type": "function"
				},
				{
					"inputs": [
						{
							"internalType": "string",
							"name": "",
							"type": "string"
						}
					],
					"name": "ages",
					"outputs": [
						{
							"internalType": "uint256",
							"name": "",
							"type": "uint256"
						}
					],
					"stateMutability": "view",
					"type": "function"
				},
				{
					"inputs": [
						{
							"internalType": "address",
							"name": "",
							"type": "address"
						}
					],
					"name": "payments",
					"outputs": [
						{
							"internalType": "uint256",
							"name": "",
							"type": "uint256"
						}
					],
					"stateMutability": "view",
					"type": "function"
				},
				{
					"inputs": [
						{
							"internalType": "address",
							"name": "adr",
							"type": "address"
						},
						{
							"internalType": "string",
							"name": "name",
							"type": "string"
						}
					],
					"name": "setAccounts",
					"outputs": [],
					"stateMutability": "nonpayable",
					"type": "function"
				},
				{
					"inputs": [
						{
							"internalType": "string",
							"name": "name",
							"type": "string"
						},
						{
							"internalType": "uint256",
							"name": "age",
							"type": "uint256"
						}
					],
					"name": "setAges",
					"outputs": [],
					"stateMutability": "nonpayable",
					"type": "function"
				},
				{
					"inputs": [],
					"name": "setPayments",
					"outputs": [],
					"stateMutability": "payable",
					"type": "function"
				}
			],
			"devdoc": {
				"kind": "dev",
				"methods": {},
				"version": 1
			},
			"evm": {
				"assembly": "    /* \"contracts/Lesson3Types.sol\":58:711  contract Map3Lesson {... */\n  mstore(0x40, 0x80)\n  callvalue\n  dup1\n  iszero\n  tag_1\n  jumpi\n  0x00\n  dup1\n  revert\ntag_1:\n  pop\n  dataSize(sub_0)\n  dup1\n  dataOffset(sub_0)\n  0x00\n  codecopy\n  0x00\n  return\nstop\n\nsub_0: assembly {\n        /* \"contracts/Lesson3Types.sol\":58:711  contract Map3Lesson {... */\n      mstore(0x40, 0x80)\n      jumpi(tag_1, lt(calldatasize, 0x04))\n      shr(0xe0, calldataload(0x00))\n      dup1\n      0x250f050a\n      eq\n      tag_2\n      jumpi\n      dup1\n      0x3878388e\n      eq\n      tag_3\n      jumpi\n      dup1\n      0x5e5c06e2\n      eq\n      tag_4\n      jumpi\n      dup1\n      0x6dcfe452\n      eq\n      tag_5\n      jumpi\n      dup1\n      0x8b8cfeff\n      eq\n      tag_6\n      jumpi\n      dup1\n      0xe2982c21\n      eq\n      tag_7\n      jumpi\n    tag_1:\n      0x00\n      dup1\n      revert\n        /* \"contracts/Lesson3Types.sol\":428:514  function setAges(string memory name, uint age) public{... */\n    tag_2:\n      callvalue\n      dup1\n      iszero\n      tag_8\n      jumpi\n      0x00\n      dup1\n      revert\n    tag_8:\n      pop\n      tag_9\n      0x04\n      dup1\n      calldatasize\n      sub\n      dup2\n      add\n      swap1\n      tag_10\n      swap2\n      swap1\n      tag_11\n      jump\t// in\n    tag_10:\n      tag_12\n      jump\t// in\n    tag_9:\n      stop\n        /* \"contracts/Lesson3Types.sol\":520:617  function setAccounts(address adr, string memory name) public{... */\n    tag_3:\n      callvalue\n      dup1\n      iszero\n      tag_13\n      jumpi\n      0x00\n      dup1\n      revert\n    tag_13:\n      pop\n      tag_14\n      0x04\n      dup1\n      calldatasize\n      sub\n      dup2\n      add\n      swap1\n      tag_15\n      swap2\n      swap1\n      tag_16\n      jump\t// in\n    tag_15:\n      tag_17\n      jump\t// in\n    tag_14:\n      stop\n        /* \"contracts/Lesson3Types.sol\":158:201  mapping (address => string) public accounts */\n    tag_4:\n      callvalue\n      dup1\n      iszero\n      tag_18\n      jumpi\n      0x00\n      dup1\n      revert\n    tag_18:\n      pop\n      tag_19\n      0x04\n      dup1\n      calldatasize\n      sub\n      dup2\n      add\n      swap1\n      tag_20\n      swap2\n      swap1\n      tag_21\n      jump\t// in\n    tag_20:\n      tag_22\n      jump\t// in\n    tag_19:\n      mload(0x40)\n      tag_23\n      swap2\n      swap1\n      tag_24\n      jump\t// in\n    tag_23:\n      mload(0x40)\n      dup1\n      swap2\n      sub\n      swap1\n      return\n        /* \"contracts/Lesson3Types.sol\":84:120  mapping (string => uint) public ages */\n    tag_5:\n      callvalue\n      dup1\n      iszero\n      tag_25\n      jumpi\n      0x00\n      dup1\n      revert\n    tag_25:\n      pop\n      tag_26\n      0x04\n      dup1\n      calldatasize\n      sub\n      dup2\n      add\n      swap1\n      tag_27\n      swap2\n      swap1\n      tag_28\n      jump\t// in\n    tag_27:\n      tag_29\n      jump\t// in\n    tag_26:\n      mload(0x40)\n      tag_30\n      swap2\n      swap1\n      tag_31\n      jump\t// in\n    tag_30:\n      mload(0x40)\n      dup1\n      swap2\n      sub\n      swap1\n      return\n        /* \"contracts/Lesson3Types.sol\":623:709  function setPayments() public payable{... */\n    tag_6:\n      tag_32\n      tag_33\n      jump\t// in\n    tag_32:\n      stop\n        /* \"contracts/Lesson3Types.sol\":279:320  mapping (address => uint) public payments */\n    tag_7:\n      callvalue\n      dup1\n      iszero\n      tag_34\n      jumpi\n      0x00\n      dup1\n      revert\n    tag_34:\n      pop\n      tag_35\n      0x04\n      dup1\n      calldatasize\n      sub\n      dup2\n      add\n      swap1\n      tag_36\n      swap2\n      swap1\n      tag_21\n      jump\t// in\n    tag_36:\n      tag_37\n      jump\t// in\n    tag_35:\n      mload(0x40)\n      tag_38\n      swap2\n      swap1\n      tag_31\n      jump\t// in\n    tag_38:\n      mload(0x40)\n      dup1\n      swap2\n      sub\n      swap1\n      return\n        /* \"contracts/Lesson3Types.sol\":428:514  function setAges(string memory name, uint age) public{... */\n    tag_12:\n        /* \"contracts/Lesson3Types.sol\":504:507  age */\n      dup1\n        /* \"contracts/Lesson3Types.sol\":491:495  ages */\n      0x00\n        /* \"contracts/Lesson3Types.sol\":496:500  name */\n      dup4\n        /* \"contracts/Lesson3Types.sol\":491:501  ages[name] */\n      mload(0x40)\n      tag_40\n      swap2\n      swap1\n      tag_41\n      jump\t// in\n    tag_40:\n      swap1\n      dup2\n      mstore\n      0x20\n      add\n      mload(0x40)\n      dup1\n      swap2\n      sub\n      swap1\n      keccak256\n        /* \"contracts/Lesson3Types.sol\":491:507  ages[name] = age */\n      dup2\n      swap1\n      sstore\n      pop\n        /* \"contracts/Lesson3Types.sol\":428:514  function setAges(string memory name, uint age) public{... */\n      pop\n      pop\n      jump\t// out\n        /* \"contracts/Lesson3Types.sol\":520:617  function setAccounts(address adr, string memory name) public{... */\n    tag_17:\n        /* \"contracts/Lesson3Types.sol\":606:610  name */\n      dup1\n        /* \"contracts/Lesson3Types.sol\":590:598  accounts */\n      0x01\n        /* \"contracts/Lesson3Types.sol\":590:603  accounts[adr] */\n      0x00\n        /* \"contracts/Lesson3Types.sol\":599:602  adr */\n      dup5\n        /* \"contracts/Lesson3Types.sol\":590:603  accounts[adr] */\n      0xffffffffffffffffffffffffffffffffffffffff\n      and\n      0xffffffffffffffffffffffffffffffffffffffff\n      and\n      dup2\n      mstore\n      0x20\n      add\n      swap1\n      dup2\n      mstore\n      0x20\n      add\n      0x00\n      keccak256\n        /* \"contracts/Lesson3Types.sol\":590:610  accounts[adr] = name */\n      swap1\n      dup1\n      mload\n      swap1\n      0x20\n      add\n      swap1\n      tag_43\n      swap3\n      swap2\n      swap1\n      tag_44\n      jump\t// in\n    tag_43:\n      pop\n        /* \"contracts/Lesson3Types.sol\":520:617  function setAccounts(address adr, string memory name) public{... */\n      pop\n      pop\n      jump\t// out\n        /* \"contracts/Lesson3Types.sol\":158:201  mapping (address => string) public accounts */\n    tag_22:\n      mstore(0x20, 0x01)\n      dup1\n      0x00\n      mstore\n      keccak256(0x00, 0x40)\n      0x00\n      swap2\n      pop\n      swap1\n      pop\n      dup1\n      sload\n      tag_45\n      swap1\n      tag_46\n      jump\t// in\n    tag_45:\n      dup1\n      0x1f\n      add\n      0x20\n      dup1\n      swap2\n      div\n      mul\n      0x20\n      add\n      mload(0x40)\n      swap1\n      dup2\n      add\n      0x40\n      mstore\n      dup1\n      swap3\n      swap2\n      swap1\n      dup2\n      dup2\n      mstore\n      0x20\n      add\n      dup3\n      dup1\n      sload\n      tag_47\n      swap1\n      tag_46\n      jump\t// in\n    tag_47:\n      dup1\n      iszero\n      tag_48\n      jumpi\n      dup1\n      0x1f\n      lt\n      tag_49\n      jumpi\n      0x0100\n      dup1\n      dup4\n      sload\n      div\n      mul\n      dup4\n      mstore\n      swap2\n      0x20\n      add\n      swap2\n      jump(tag_48)\n    tag_49:\n      dup3\n      add\n      swap2\n      swap1\n      0x00\n      mstore\n      keccak256(0x00, 0x20)\n      swap1\n    tag_50:\n      dup2\n      sload\n      dup2\n      mstore\n      swap1\n      0x01\n      add\n      swap1\n      0x20\n      add\n      dup1\n      dup4\n      gt\n      tag_50\n      jumpi\n      dup3\n      swap1\n      sub\n      0x1f\n      and\n      dup3\n      add\n      swap2\n    tag_48:\n      pop\n      pop\n      pop\n      pop\n      pop\n      dup2\n      jump\t// out\n        /* \"contracts/Lesson3Types.sol\":84:120  mapping (string => uint) public ages */\n    tag_29:\n      0x00\n      dup2\n      dup1\n      mload\n      0x20\n      dup2\n      add\n      dup3\n      add\n      dup1\n      mload\n      dup5\n      dup3\n      mstore\n      0x20\n      dup4\n      add\n      0x20\n      dup6\n      add\n      keccak256\n      dup2\n      dup4\n      mstore\n      dup1\n      swap6\n      pop\n      pop\n      pop\n      pop\n      pop\n      pop\n      0x00\n      swap2\n      pop\n      swap1\n      pop\n      sload\n      dup2\n      jump\t// out\n        /* \"contracts/Lesson3Types.sol\":623:709  function setPayments() public payable{... */\n    tag_33:\n        /* \"contracts/Lesson3Types.sol\":693:702  msg.value */\n      callvalue\n        /* \"contracts/Lesson3Types.sol\":670:678  payments */\n      0x02\n        /* \"contracts/Lesson3Types.sol\":670:690  payments[msg.sender] */\n      0x00\n        /* \"contracts/Lesson3Types.sol\":679:689  msg.sender */\n      caller\n        /* \"contracts/Lesson3Types.sol\":670:690  payments[msg.sender] */\n      0xffffffffffffffffffffffffffffffffffffffff\n      and\n      0xffffffffffffffffffffffffffffffffffffffff\n      and\n      dup2\n      mstore\n      0x20\n      add\n      swap1\n      dup2\n      mstore\n      0x20\n      add\n      0x00\n      keccak256\n        /* \"contracts/Lesson3Types.sol\":670:702  payments[msg.sender] = msg.value */\n      dup2\n      swap1\n      sstore\n      pop\n        /* \"contracts/Lesson3Types.sol\":623:709  function setPayments() public payable{... */\n      jump\t// out\n        /* \"contracts/Lesson3Types.sol\":279:320  mapping (address => uint) public payments */\n    tag_37:\n      mstore(0x20, 0x02)\n      dup1\n      0x00\n      mstore\n      keccak256(0x00, 0x40)\n      0x00\n      swap2\n      pop\n      swap1\n      pop\n      sload\n      dup2\n      jump\t// out\n    tag_44:\n      dup3\n      dup1\n      sload\n      tag_52\n      swap1\n      tag_46\n      jump\t// in\n    tag_52:\n      swap1\n      0x00\n      mstore\n      keccak256(0x00, 0x20)\n      swap1\n      0x1f\n      add\n      0x20\n      swap1\n      div\n      dup2\n      add\n      swap3\n      dup3\n      tag_54\n      jumpi\n      0x00\n      dup6\n      sstore\n      jump(tag_53)\n    tag_54:\n      dup3\n      0x1f\n      lt\n      tag_55\n      jumpi\n      dup1\n      mload\n      not(0xff)\n      and\n      dup4\n      dup1\n      add\n      or\n      dup6\n      sstore\n      jump(tag_53)\n    tag_55:\n      dup3\n      dup1\n      add\n      0x01\n      add\n      dup6\n      sstore\n      dup3\n      iszero\n      tag_53\n      jumpi\n      swap2\n      dup3\n      add\n    tag_56:\n      dup3\n      dup2\n      gt\n      iszero\n      tag_57\n      jumpi\n      dup3\n      mload\n      dup3\n      sstore\n      swap2\n      0x20\n      add\n      swap2\n      swap1\n      0x01\n      add\n      swap1\n      jump(tag_56)\n    tag_57:\n    tag_53:\n      pop\n      swap1\n      pop\n      tag_58\n      swap2\n      swap1\n      tag_59\n      jump\t// in\n    tag_58:\n      pop\n      swap1\n      jump\t// out\n    tag_59:\n    tag_60:\n      dup1\n      dup3\n      gt\n      iszero\n      tag_61\n      jumpi\n      0x00\n      dup2\n      0x00\n      swap1\n      sstore\n      pop\n      0x01\n      add\n      jump(tag_60)\n    tag_61:\n      pop\n      swap1\n      jump\t// out\n        /* \"#utility.yul\":7:419   */\n    tag_63:\n        /* \"#utility.yul\":85:90   */\n      0x00\n        /* \"#utility.yul\":110:176   */\n      tag_65\n        /* \"#utility.yul\":126:175   */\n      tag_66\n        /* \"#utility.yul\":168:174   */\n      dup5\n        /* \"#utility.yul\":126:175   */\n      tag_67\n      jump\t// in\n    tag_66:\n        /* \"#utility.yul\":110:176   */\n      tag_68\n      jump\t// in\n    tag_65:\n        /* \"#utility.yul\":101:176   */\n      swap1\n      pop\n        /* \"#utility.yul\":199:205   */\n      dup3\n        /* \"#utility.yul\":192:197   */\n      dup2\n        /* \"#utility.yul\":185:206   */\n      mstore\n        /* \"#utility.yul\":237:241   */\n      0x20\n        /* \"#utility.yul\":230:235   */\n      dup2\n        /* \"#utility.yul\":226:242   */\n      add\n        /* \"#utility.yul\":275:278   */\n      dup5\n        /* \"#utility.yul\":266:272   */\n      dup5\n        /* \"#utility.yul\":261:264   */\n      dup5\n        /* \"#utility.yul\":257:273   */\n      add\n        /* \"#utility.yul\":254:279   */\n      gt\n        /* \"#utility.yul\":251:363   */\n      iszero\n      tag_69\n      jumpi\n        /* \"#utility.yul\":282:361   */\n      tag_70\n      tag_71\n      jump\t// in\n    tag_70:\n        /* \"#utility.yul\":251:363   */\n    tag_69:\n        /* \"#utility.yul\":372:413   */\n      tag_72\n        /* \"#utility.yul\":406:412   */\n      dup5\n        /* \"#utility.yul\":401:404   */\n      dup3\n        /* \"#utility.yul\":396:399   */\n      dup6\n        /* \"#utility.yul\":372:413   */\n      tag_73\n      jump\t// in\n    tag_72:\n        /* \"#utility.yul\":91:419   */\n      pop\n        /* \"#utility.yul\":7:419   */\n      swap4\n      swap3\n      pop\n      pop\n      pop\n      jump\t// out\n        /* \"#utility.yul\":425:564   */\n    tag_74:\n        /* \"#utility.yul\":471:476   */\n      0x00\n        /* \"#utility.yul\":509:515   */\n      dup2\n        /* \"#utility.yul\":496:516   */\n      calldataload\n        /* \"#utility.yul\":487:516   */\n      swap1\n      pop\n        /* \"#utility.yul\":525:558   */\n      tag_76\n        /* \"#utility.yul\":552:557   */\n      dup2\n        /* \"#utility.yul\":525:558   */\n      tag_77\n      jump\t// in\n    tag_76:\n        /* \"#utility.yul\":425:564   */\n      swap3\n      swap2\n      pop\n      pop\n      jump\t// out\n        /* \"#utility.yul\":584:924   */\n    tag_78:\n        /* \"#utility.yul\":640:645   */\n      0x00\n        /* \"#utility.yul\":689:692   */\n      dup3\n        /* \"#utility.yul\":682:686   */\n      0x1f\n        /* \"#utility.yul\":674:680   */\n      dup4\n        /* \"#utility.yul\":670:687   */\n      add\n        /* \"#utility.yul\":666:693   */\n      slt\n        /* \"#utility.yul\":656:778   */\n      tag_80\n      jumpi\n        /* \"#utility.yul\":697:776   */\n      tag_81\n      tag_82\n      jump\t// in\n    tag_81:\n        /* \"#utility.yul\":656:778   */\n    tag_80:\n        /* \"#utility.yul\":814:820   */\n      dup2\n        /* \"#utility.yul\":801:821   */\n      calldataload\n        /* \"#utility.yul\":839:918   */\n      tag_83\n        /* \"#utility.yul\":914:917   */\n      dup5\n        /* \"#utility.yul\":906:912   */\n      dup3\n        /* \"#utility.yul\":899:903   */\n      0x20\n        /* \"#utility.yul\":891:897   */\n      dup7\n        /* \"#utility.yul\":887:904   */\n      add\n        /* \"#utility.yul\":839:918   */\n      tag_63\n      jump\t// in\n    tag_83:\n        /* \"#utility.yul\":830:918   */\n      swap2\n      pop\n        /* \"#utility.yul\":646:924   */\n      pop\n        /* \"#utility.yul\":584:924   */\n      swap3\n      swap2\n      pop\n      pop\n      jump\t// out\n        /* \"#utility.yul\":930:1069   */\n    tag_84:\n        /* \"#utility.yul\":976:981   */\n      0x00\n        /* \"#utility.yul\":1014:1020   */\n      dup2\n        /* \"#utility.yul\":1001:1021   */\n      calldataload\n        /* \"#utility.yul\":992:1021   */\n      swap1\n      pop\n        /* \"#utility.yul\":1030:1063   */\n      tag_86\n        /* \"#utility.yul\":1057:1062   */\n      dup2\n        /* \"#utility.yul\":1030:1063   */\n      tag_87\n      jump\t// in\n    tag_86:\n        /* \"#utility.yul\":930:1069   */\n      swap3\n      swap2\n      pop\n      pop\n      jump\t// out\n        /* \"#utility.yul\":1075:1404   */\n    tag_21:\n        /* \"#utility.yul\":1134:1140   */\n      0x00\n        /* \"#utility.yul\":1183:1185   */\n      0x20\n        /* \"#utility.yul\":1171:1180   */\n      dup3\n        /* \"#utility.yul\":1162:1169   */\n      dup5\n        /* \"#utility.yul\":1158:1181   */\n      sub\n        /* \"#utility.yul\":1154:1186   */\n      slt\n        /* \"#utility.yul\":1151:1270   */\n      iszero\n      tag_89\n      jumpi\n        /* \"#utility.yul\":1189:1268   */\n      tag_90\n      tag_91\n      jump\t// in\n    tag_90:\n        /* \"#utility.yul\":1151:1270   */\n    tag_89:\n        /* \"#utility.yul\":1309:1310   */\n      0x00\n        /* \"#utility.yul\":1334:1387   */\n      tag_92\n        /* \"#utility.yul\":1379:1386   */\n      dup5\n        /* \"#utility.yul\":1370:1376   */\n      dup3\n        /* \"#utility.yul\":1359:1368   */\n      dup6\n        /* \"#utility.yul\":1355:1377   */\n      add\n        /* \"#utility.yul\":1334:1387   */\n      tag_74\n      jump\t// in\n    tag_92:\n        /* \"#utility.yul\":1324:1387   */\n      swap2\n      pop\n        /* \"#utility.yul\":1280:1397   */\n      pop\n        /* \"#utility.yul\":1075:1404   */\n      swap3\n      swap2\n      pop\n      pop\n      jump\t// out\n        /* \"#utility.yul\":1410:2064   */\n    tag_16:\n        /* \"#utility.yul\":1488:1494   */\n      0x00\n        /* \"#utility.yul\":1496:1502   */\n      dup1\n        /* \"#utility.yul\":1545:1547   */\n      0x40\n        /* \"#utility.yul\":1533:1542   */\n      dup4\n        /* \"#utility.yul\":1524:1531   */\n      dup6\n        /* \"#utility.yul\":1520:1543   */\n      sub\n        /* \"#utility.yul\":1516:1548   */\n      slt\n        /* \"#utility.yul\":1513:1632   */\n      iszero\n      tag_94\n      jumpi\n        /* \"#utility.yul\":1551:1630   */\n      tag_95\n      tag_91\n      jump\t// in\n    tag_95:\n        /* \"#utility.yul\":1513:1632   */\n    tag_94:\n        /* \"#utility.yul\":1671:1672   */\n      0x00\n        /* \"#utility.yul\":1696:1749   */\n      tag_96\n        /* \"#utility.yul\":1741:1748   */\n      dup6\n        /* \"#utility.yul\":1732:1738   */\n      dup3\n        /* \"#utility.yul\":1721:1730   */\n      dup7\n        /* \"#utility.yul\":1717:1739   */\n      add\n        /* \"#utility.yul\":1696:1749   */\n      tag_74\n      jump\t// in\n    tag_96:\n        /* \"#utility.yul\":1686:1749   */\n      swap3\n      pop\n        /* \"#utility.yul\":1642:1759   */\n      pop\n        /* \"#utility.yul\":1826:1828   */\n      0x20\n        /* \"#utility.yul\":1815:1824   */\n      dup4\n        /* \"#utility.yul\":1811:1829   */\n      add\n        /* \"#utility.yul\":1798:1830   */\n      calldataload\n        /* \"#utility.yul\":1857:1875   */\n      0xffffffffffffffff\n        /* \"#utility.yul\":1849:1855   */\n      dup2\n        /* \"#utility.yul\":1846:1876   */\n      gt\n        /* \"#utility.yul\":1843:1960   */\n      iszero\n      tag_97\n      jumpi\n        /* \"#utility.yul\":1879:1958   */\n      tag_98\n      tag_99\n      jump\t// in\n    tag_98:\n        /* \"#utility.yul\":1843:1960   */\n    tag_97:\n        /* \"#utility.yul\":1984:2047   */\n      tag_100\n        /* \"#utility.yul\":2039:2046   */\n      dup6\n        /* \"#utility.yul\":2030:2036   */\n      dup3\n        /* \"#utility.yul\":2019:2028   */\n      dup7\n        /* \"#utility.yul\":2015:2037   */\n      add\n        /* \"#utility.yul\":1984:2047   */\n      tag_78\n      jump\t// in\n    tag_100:\n        /* \"#utility.yul\":1974:2047   */\n      swap2\n      pop\n        /* \"#utility.yul\":1769:2057   */\n      pop\n        /* \"#utility.yul\":1410:2064   */\n      swap3\n      pop\n      swap3\n      swap1\n      pop\n      jump\t// out\n        /* \"#utility.yul\":2070:2579   */\n    tag_28:\n        /* \"#utility.yul\":2139:2145   */\n      0x00\n        /* \"#utility.yul\":2188:2190   */\n      0x20\n        /* \"#utility.yul\":2176:2185   */\n      dup3\n        /* \"#utility.yul\":2167:2174   */\n      dup5\n        /* \"#utility.yul\":2163:2186   */\n      sub\n        /* \"#utility.yul\":2159:2191   */\n      slt\n        /* \"#utility.yul\":2156:2275   */\n      iszero\n      tag_102\n      jumpi\n        /* \"#utility.yul\":2194:2273   */\n      tag_103\n      tag_91\n      jump\t// in\n    tag_103:\n        /* \"#utility.yul\":2156:2275   */\n    tag_102:\n        /* \"#utility.yul\":2342:2343   */\n      0x00\n        /* \"#utility.yul\":2331:2340   */\n      dup3\n        /* \"#utility.yul\":2327:2344   */\n      add\n        /* \"#utility.yul\":2314:2345   */\n      calldataload\n        /* \"#utility.yul\":2372:2390   */\n      0xffffffffffffffff\n        /* \"#utility.yul\":2364:2370   */\n      dup2\n        /* \"#utility.yul\":2361:2391   */\n      gt\n        /* \"#utility.yul\":2358:2475   */\n      iszero\n      tag_104\n      jumpi\n        /* \"#utility.yul\":2394:2473   */\n      tag_105\n      tag_99\n      jump\t// in\n    tag_105:\n        /* \"#utility.yul\":2358:2475   */\n    tag_104:\n        /* \"#utility.yul\":2499:2562   */\n      tag_106\n        /* \"#utility.yul\":2554:2561   */\n      dup5\n        /* \"#utility.yul\":2545:2551   */\n      dup3\n        /* \"#utility.yul\":2534:2543   */\n      dup6\n        /* \"#utility.yul\":2530:2552   */\n      add\n        /* \"#utility.yul\":2499:2562   */\n      tag_78\n      jump\t// in\n    tag_106:\n        /* \"#utility.yul\":2489:2562   */\n      swap2\n      pop\n        /* \"#utility.yul\":2285:2572   */\n      pop\n        /* \"#utility.yul\":2070:2579   */\n      swap3\n      swap2\n      pop\n      pop\n      jump\t// out\n        /* \"#utility.yul\":2585:3239   */\n    tag_11:\n        /* \"#utility.yul\":2663:2669   */\n      0x00\n        /* \"#utility.yul\":2671:2677   */\n      dup1\n        /* \"#utility.yul\":2720:2722   */\n      0x40\n        /* \"#utility.yul\":2708:2717   */\n      dup4\n        /* \"#utility.yul\":2699:2706   */\n      dup6\n        /* \"#utility.yul\":2695:2718   */\n      sub\n        /* \"#utility.yul\":2691:2723   */\n      slt\n        /* \"#utility.yul\":2688:2807   */\n      iszero\n      tag_108\n      jumpi\n        /* \"#utility.yul\":2726:2805   */\n      tag_109\n      tag_91\n      jump\t// in\n    tag_109:\n        /* \"#utility.yul\":2688:2807   */\n    tag_108:\n        /* \"#utility.yul\":2874:2875   */\n      0x00\n        /* \"#utility.yul\":2863:2872   */\n      dup4\n        /* \"#utility.yul\":2859:2876   */\n      add\n        /* \"#utility.yul\":2846:2877   */\n      calldataload\n        /* \"#utility.yul\":2904:2922   */\n      0xffffffffffffffff\n        /* \"#utility.yul\":2896:2902   */\n      dup2\n        /* \"#utility.yul\":2893:2923   */\n      gt\n        /* \"#utility.yul\":2890:3007   */\n      iszero\n      tag_110\n      jumpi\n        /* \"#utility.yul\":2926:3005   */\n      tag_111\n      tag_99\n      jump\t// in\n    tag_111:\n        /* \"#utility.yul\":2890:3007   */\n    tag_110:\n        /* \"#utility.yul\":3031:3094   */\n      tag_112\n        /* \"#utility.yul\":3086:3093   */\n      dup6\n        /* \"#utility.yul\":3077:3083   */\n      dup3\n        /* \"#utility.yul\":3066:3075   */\n      dup7\n        /* \"#utility.yul\":3062:3084   */\n      add\n        /* \"#utility.yul\":3031:3094   */\n      tag_78\n      jump\t// in\n    tag_112:\n        /* \"#utility.yul\":3021:3094   */\n      swap3\n      pop\n        /* \"#utility.yul\":2817:3104   */\n      pop\n        /* \"#utility.yul\":3143:3145   */\n      0x20\n        /* \"#utility.yul\":3169:3222   */\n      tag_113\n        /* \"#utility.yul\":3214:3221   */\n      dup6\n        /* \"#utility.yul\":3205:3211   */\n      dup3\n        /* \"#utility.yul\":3194:3203   */\n      dup7\n        /* \"#utility.yul\":3190:3212   */\n      add\n        /* \"#utility.yul\":3169:3222   */\n      tag_84\n      jump\t// in\n    tag_113:\n        /* \"#utility.yul\":3159:3222   */\n      swap2\n      pop\n        /* \"#utility.yul\":3114:3232   */\n      pop\n        /* \"#utility.yul\":2585:3239   */\n      swap3\n      pop\n      swap3\n      swap1\n      pop\n      jump\t// out\n        /* \"#utility.yul\":3245:3609   */\n    tag_114:\n        /* \"#utility.yul\":3333:3336   */\n      0x00\n        /* \"#utility.yul\":3361:3400   */\n      tag_116\n        /* \"#utility.yul\":3394:3399   */\n      dup3\n        /* \"#utility.yul\":3361:3400   */\n      tag_117\n      jump\t// in\n    tag_116:\n        /* \"#utility.yul\":3416:3487   */\n      tag_118\n        /* \"#utility.yul\":3480:3486   */\n      dup2\n        /* \"#utility.yul\":3475:3478   */\n      dup6\n        /* \"#utility.yul\":3416:3487   */\n      tag_119\n      jump\t// in\n    tag_118:\n        /* \"#utility.yul\":3409:3487   */\n      swap4\n      pop\n        /* \"#utility.yul\":3496:3548   */\n      tag_120\n        /* \"#utility.yul\":3541:3547   */\n      dup2\n        /* \"#utility.yul\":3536:3539   */\n      dup6\n        /* \"#utility.yul\":3529:3533   */\n      0x20\n        /* \"#utility.yul\":3522:3527   */\n      dup7\n        /* \"#utility.yul\":3518:3534   */\n      add\n        /* \"#utility.yul\":3496:3548   */\n      tag_121\n      jump\t// in\n    tag_120:\n        /* \"#utility.yul\":3573:3602   */\n      tag_122\n        /* \"#utility.yul\":3595:3601   */\n      dup2\n        /* \"#utility.yul\":3573:3602   */\n      tag_123\n      jump\t// in\n    tag_122:\n        /* \"#utility.yul\":3568:3571   */\n      dup5\n        /* \"#utility.yul\":3564:3603   */\n      add\n        /* \"#utility.yul\":3557:3603   */\n      swap2\n      pop\n        /* \"#utility.yul\":3337:3609   */\n      pop\n        /* \"#utility.yul\":3245:3609   */\n      swap3\n      swap2\n      pop\n      pop\n      jump\t// out\n        /* \"#utility.yul\":3615:3992   */\n    tag_124:\n        /* \"#utility.yul\":3721:3724   */\n      0x00\n        /* \"#utility.yul\":3749:3788   */\n      tag_126\n        /* \"#utility.yul\":3782:3787   */\n      dup3\n        /* \"#utility.yul\":3749:3788   */\n      tag_117\n      jump\t// in\n    tag_126:\n        /* \"#utility.yul\":3804:3893   */\n      tag_127\n        /* \"#utility.yul\":3886:3892   */\n      dup2\n        /* \"#utility.yul\":3881:3884   */\n      dup6\n        /* \"#utility.yul\":3804:3893   */\n      tag_128\n      jump\t// in\n    tag_127:\n        /* \"#utility.yul\":3797:3893   */\n      swap4\n      pop\n        /* \"#utility.yul\":3902:3954   */\n      tag_129\n        /* \"#utility.yul\":3947:3953   */\n      dup2\n        /* \"#utility.yul\":3942:3945   */\n      dup6\n        /* \"#utility.yul\":3935:3939   */\n      0x20\n        /* \"#utility.yul\":3928:3933   */\n      dup7\n        /* \"#utility.yul\":3924:3940   */\n      add\n        /* \"#utility.yul\":3902:3954   */\n      tag_121\n      jump\t// in\n    tag_129:\n        /* \"#utility.yul\":3979:3985   */\n      dup1\n        /* \"#utility.yul\":3974:3977   */\n      dup5\n        /* \"#utility.yul\":3970:3986   */\n      add\n        /* \"#utility.yul\":3963:3986   */\n      swap2\n      pop\n        /* \"#utility.yul\":3725:3992   */\n      pop\n        /* \"#utility.yul\":3615:3992   */\n      swap3\n      swap2\n      pop\n      pop\n      jump\t// out\n        /* \"#utility.yul\":3998:4116   */\n    tag_130:\n        /* \"#utility.yul\":4085:4109   */\n      tag_132\n        /* \"#utility.yul\":4103:4108   */\n      dup2\n        /* \"#utility.yul\":4085:4109   */\n      tag_133\n      jump\t// in\n    tag_132:\n        /* \"#utility.yul\":4080:4083   */\n      dup3\n        /* \"#utility.yul\":4073:4110   */\n      mstore\n        /* \"#utility.yul\":3998:4116   */\n      pop\n      pop\n      jump\t// out\n        /* \"#utility.yul\":4122:4397   */\n    tag_41:\n        /* \"#utility.yul\":4254:4257   */\n      0x00\n        /* \"#utility.yul\":4276:4371   */\n      tag_135\n        /* \"#utility.yul\":4367:4370   */\n      dup3\n        /* \"#utility.yul\":4358:4364   */\n      dup5\n        /* \"#utility.yul\":4276:4371   */\n      tag_124\n      jump\t// in\n    tag_135:\n        /* \"#utility.yul\":4269:4371   */\n      swap2\n      pop\n        /* \"#utility.yul\":4388:4391   */\n      dup2\n        /* \"#utility.yul\":4381:4391   */\n      swap1\n      pop\n        /* \"#utility.yul\":4122:4397   */\n      swap3\n      swap2\n      pop\n      pop\n      jump\t// out\n        /* \"#utility.yul\":4403:4716   */\n    tag_24:\n        /* \"#utility.yul\":4516:4520   */\n      0x00\n        /* \"#utility.yul\":4554:4556   */\n      0x20\n        /* \"#utility.yul\":4543:4552   */\n      dup3\n        /* \"#utility.yul\":4539:4557   */\n      add\n        /* \"#utility.yul\":4531:4557   */\n      swap1\n      pop\n        /* \"#utility.yul\":4603:4612   */\n      dup2\n        /* \"#utility.yul\":4597:4601   */\n      dup2\n        /* \"#utility.yul\":4593:4613   */\n      sub\n        /* \"#utility.yul\":4589:4590   */\n      0x00\n        /* \"#utility.yul\":4578:4587   */\n      dup4\n        /* \"#utility.yul\":4574:4591   */\n      add\n        /* \"#utility.yul\":4567:4614   */\n      mstore\n        /* \"#utility.yul\":4631:4709   */\n      tag_137\n        /* \"#utility.yul\":4704:4708   */\n      dup2\n        /* \"#utility.yul\":4695:4701   */\n      dup5\n        /* \"#utility.yul\":4631:4709   */\n      tag_114\n      jump\t// in\n    tag_137:\n        /* \"#utility.yul\":4623:4709   */\n      swap1\n      pop\n        /* \"#utility.yul\":4403:4716   */\n      swap3\n      swap2\n      pop\n      pop\n      jump\t// out\n        /* \"#utility.yul\":4722:4944   */\n    tag_31:\n        /* \"#utility.yul\":4815:4819   */\n      0x00\n        /* \"#utility.yul\":4853:4855   */\n      0x20\n        /* \"#utility.yul\":4842:4851   */\n      dup3\n        /* \"#utility.yul\":4838:4856   */\n      add\n        /* \"#utility.yul\":4830:4856   */\n      swap1\n      pop\n        /* \"#utility.yul\":4866:4937   */\n      tag_139\n        /* \"#utility.yul\":4934:4935   */\n      0x00\n        /* \"#utility.yul\":4923:4932   */\n      dup4\n        /* \"#utility.yul\":4919:4936   */\n      add\n        /* \"#utility.yul\":4910:4916   */\n      dup5\n        /* \"#utility.yul\":4866:4937   */\n      tag_130\n      jump\t// in\n    tag_139:\n        /* \"#utility.yul\":4722:4944   */\n      swap3\n      swap2\n      pop\n      pop\n      jump\t// out\n        /* \"#utility.yul\":4950:5079   */\n    tag_68:\n        /* \"#utility.yul\":4984:4990   */\n      0x00\n        /* \"#utility.yul\":5011:5031   */\n      tag_141\n      tag_142\n      jump\t// in\n    tag_141:\n        /* \"#utility.yul\":5001:5031   */\n      swap1\n      pop\n        /* \"#utility.yul\":5040:5073   */\n      tag_143\n        /* \"#utility.yul\":5068:5072   */\n      dup3\n        /* \"#utility.yul\":5060:5066   */\n      dup3\n        /* \"#utility.yul\":5040:5073   */\n      tag_144\n      jump\t// in\n    tag_143:\n        /* \"#utility.yul\":4950:5079   */\n      swap2\n      swap1\n      pop\n      jump\t// out\n        /* \"#utility.yul\":5085:5160   */\n    tag_142:\n        /* \"#utility.yul\":5118:5124   */\n      0x00\n        /* \"#utility.yul\":5151:5153   */\n      0x40\n        /* \"#utility.yul\":5145:5154   */\n      mload\n        /* \"#utility.yul\":5135:5154   */\n      swap1\n      pop\n        /* \"#utility.yul\":5085:5160   */\n      swap1\n      jump\t// out\n        /* \"#utility.yul\":5166:5474   */\n    tag_67:\n        /* \"#utility.yul\":5228:5232   */\n      0x00\n        /* \"#utility.yul\":5318:5336   */\n      0xffffffffffffffff\n        /* \"#utility.yul\":5310:5316   */\n      dup3\n        /* \"#utility.yul\":5307:5337   */\n      gt\n        /* \"#utility.yul\":5304:5360   */\n      iszero\n      tag_147\n      jumpi\n        /* \"#utility.yul\":5340:5358   */\n      tag_148\n      tag_149\n      jump\t// in\n    tag_148:\n        /* \"#utility.yul\":5304:5360   */\n    tag_147:\n        /* \"#utility.yul\":5378:5407   */\n      tag_150\n        /* \"#utility.yul\":5400:5406   */\n      dup3\n        /* \"#utility.yul\":5378:5407   */\n      tag_123\n      jump\t// in\n    tag_150:\n        /* \"#utility.yul\":5370:5407   */\n      swap1\n      pop\n        /* \"#utility.yul\":5462:5466   */\n      0x20\n        /* \"#utility.yul\":5456:5460   */\n      dup2\n        /* \"#utility.yul\":5452:5467   */\n      add\n        /* \"#utility.yul\":5444:5467   */\n      swap1\n      pop\n        /* \"#utility.yul\":5166:5474   */\n      swap2\n      swap1\n      pop\n      jump\t// out\n        /* \"#utility.yul\":5480:5579   */\n    tag_117:\n        /* \"#utility.yul\":5532:5538   */\n      0x00\n        /* \"#utility.yul\":5566:5571   */\n      dup2\n        /* \"#utility.yul\":5560:5572   */\n      mload\n        /* \"#utility.yul\":5550:5572   */\n      swap1\n      pop\n        /* \"#utility.yul\":5480:5579   */\n      swap2\n      swap1\n      pop\n      jump\t// out\n        /* \"#utility.yul\":5585:5754   */\n    tag_119:\n        /* \"#utility.yul\":5669:5680   */\n      0x00\n        /* \"#utility.yul\":5703:5709   */\n      dup3\n        /* \"#utility.yul\":5698:5701   */\n      dup3\n        /* \"#utility.yul\":5691:5710   */\n      mstore\n        /* \"#utility.yul\":5743:5747   */\n      0x20\n        /* \"#utility.yul\":5738:5741   */\n      dup3\n        /* \"#utility.yul\":5734:5748   */\n      add\n        /* \"#utility.yul\":5719:5748   */\n      swap1\n      pop\n        /* \"#utility.yul\":5585:5754   */\n      swap3\n      swap2\n      pop\n      pop\n      jump\t// out\n        /* \"#utility.yul\":5760:5908   */\n    tag_128:\n        /* \"#utility.yul\":5862:5873   */\n      0x00\n        /* \"#utility.yul\":5899:5902   */\n      dup2\n        /* \"#utility.yul\":5884:5902   */\n      swap1\n      pop\n        /* \"#utility.yul\":5760:5908   */\n      swap3\n      swap2\n      pop\n      pop\n      jump\t// out\n        /* \"#utility.yul\":5914:6010   */\n    tag_154:\n        /* \"#utility.yul\":5951:5958   */\n      0x00\n        /* \"#utility.yul\":5980:6004   */\n      tag_156\n        /* \"#utility.yul\":5998:6003   */\n      dup3\n        /* \"#utility.yul\":5980:6004   */\n      tag_157\n      jump\t// in\n    tag_156:\n        /* \"#utility.yul\":5969:6004   */\n      swap1\n      pop\n        /* \"#utility.yul\":5914:6010   */\n      swap2\n      swap1\n      pop\n      jump\t// out\n        /* \"#utility.yul\":6016:6142   */\n    tag_157:\n        /* \"#utility.yul\":6053:6060   */\n      0x00\n        /* \"#utility.yul\":6093:6135   */\n      0xffffffffffffffffffffffffffffffffffffffff\n        /* \"#utility.yul\":6086:6091   */\n      dup3\n        /* \"#utility.yul\":6082:6136   */\n      and\n        /* \"#utility.yul\":6071:6136   */\n      swap1\n      pop\n        /* \"#utility.yul\":6016:6142   */\n      swap2\n      swap1\n      pop\n      jump\t// out\n        /* \"#utility.yul\":6148:6225   */\n    tag_133:\n        /* \"#utility.yul\":6185:6192   */\n      0x00\n        /* \"#utility.yul\":6214:6219   */\n      dup2\n        /* \"#utility.yul\":6203:6219   */\n      swap1\n      pop\n        /* \"#utility.yul\":6148:6225   */\n      swap2\n      swap1\n      pop\n      jump\t// out\n        /* \"#utility.yul\":6231:6385   */\n    tag_73:\n        /* \"#utility.yul\":6315:6321   */\n      dup3\n        /* \"#utility.yul\":6310:6313   */\n      dup2\n        /* \"#utility.yul\":6305:6308   */\n      dup4\n        /* \"#utility.yul\":6292:6322   */\n      calldatacopy\n        /* \"#utility.yul\":6377:6378   */\n      0x00\n        /* \"#utility.yul\":6368:6374   */\n      dup4\n        /* \"#utility.yul\":6363:6366   */\n      dup4\n        /* \"#utility.yul\":6359:6375   */\n      add\n        /* \"#utility.yul\":6352:6379   */\n      mstore\n        /* \"#utility.yul\":6231:6385   */\n      pop\n      pop\n      pop\n      jump\t// out\n        /* \"#utility.yul\":6391:6698   */\n    tag_121:\n        /* \"#utility.yul\":6459:6460   */\n      0x00\n        /* \"#utility.yul\":6469:6582   */\n    tag_162:\n        /* \"#utility.yul\":6483:6489   */\n      dup4\n        /* \"#utility.yul\":6480:6481   */\n      dup2\n        /* \"#utility.yul\":6477:6490   */\n      lt\n        /* \"#utility.yul\":6469:6582   */\n      iszero\n      tag_164\n      jumpi\n        /* \"#utility.yul\":6568:6569   */\n      dup1\n        /* \"#utility.yul\":6563:6566   */\n      dup3\n        /* \"#utility.yul\":6559:6570   */\n      add\n        /* \"#utility.yul\":6553:6571   */\n      mload\n        /* \"#utility.yul\":6549:6550   */\n      dup2\n        /* \"#utility.yul\":6544:6547   */\n      dup5\n        /* \"#utility.yul\":6540:6551   */\n      add\n        /* \"#utility.yul\":6533:6572   */\n      mstore\n        /* \"#utility.yul\":6505:6507   */\n      0x20\n        /* \"#utility.yul\":6502:6503   */\n      dup2\n        /* \"#utility.yul\":6498:6508   */\n      add\n        /* \"#utility.yul\":6493:6508   */\n      swap1\n      pop\n        /* \"#utility.yul\":6469:6582   */\n      jump(tag_162)\n    tag_164:\n        /* \"#utility.yul\":6600:6606   */\n      dup4\n        /* \"#utility.yul\":6597:6598   */\n      dup2\n        /* \"#utility.yul\":6594:6607   */\n      gt\n        /* \"#utility.yul\":6591:6692   */\n      iszero\n      tag_165\n      jumpi\n        /* \"#utility.yul\":6680:6681   */\n      0x00\n        /* \"#utility.yul\":6671:6677   */\n      dup5\n        /* \"#utility.yul\":6666:6669   */\n      dup5\n        /* \"#utility.yul\":6662:6678   */\n      add\n        /* \"#utility.yul\":6655:6682   */\n      mstore\n        /* \"#utility.yul\":6591:6692   */\n    tag_165:\n        /* \"#utility.yul\":6440:6698   */\n      pop\n        /* \"#utility.yul\":6391:6698   */\n      pop\n      pop\n      pop\n      jump\t// out\n        /* \"#utility.yul\":6704:7024   */\n    tag_46:\n        /* \"#utility.yul\":6748:6754   */\n      0x00\n        /* \"#utility.yul\":6785:6786   */\n      0x02\n        /* \"#utility.yul\":6779:6783   */\n      dup3\n        /* \"#utility.yul\":6775:6787   */\n      div\n        /* \"#utility.yul\":6765:6787   */\n      swap1\n      pop\n        /* \"#utility.yul\":6832:6833   */\n      0x01\n        /* \"#utility.yul\":6826:6830   */\n      dup3\n        /* \"#utility.yul\":6822:6834   */\n      and\n        /* \"#utility.yul\":6853:6871   */\n      dup1\n        /* \"#utility.yul\":6843:6924   */\n      tag_167\n      jumpi\n        /* \"#utility.yul\":6909:6913   */\n      0x7f\n        /* \"#utility.yul\":6901:6907   */\n      dup3\n        /* \"#utility.yul\":6897:6914   */\n      and\n        /* \"#utility.yul\":6887:6914   */\n      swap2\n      pop\n        /* \"#utility.yul\":6843:6924   */\n    tag_167:\n        /* \"#utility.yul\":6971:6973   */\n      0x20\n        /* \"#utility.yul\":6963:6969   */\n      dup3\n        /* \"#utility.yul\":6960:6974   */\n      lt\n        /* \"#utility.yul\":6940:6958   */\n      dup2\n        /* \"#utility.yul\":6937:6975   */\n      eq\n        /* \"#utility.yul\":6934:7018   */\n      iszero\n      tag_168\n      jumpi\n        /* \"#utility.yul\":6990:7008   */\n      tag_169\n      tag_170\n      jump\t// in\n    tag_169:\n        /* \"#utility.yul\":6934:7018   */\n    tag_168:\n        /* \"#utility.yul\":6755:7024   */\n      pop\n        /* \"#utility.yul\":6704:7024   */\n      swap2\n      swap1\n      pop\n      jump\t// out\n        /* \"#utility.yul\":7030:7311   */\n    tag_144:\n        /* \"#utility.yul\":7113:7140   */\n      tag_172\n        /* \"#utility.yul\":7135:7139   */\n      dup3\n        /* \"#utility.yul\":7113:7140   */\n      tag_123\n      jump\t// in\n    tag_172:\n        /* \"#utility.yul\":7105:7111   */\n      dup2\n        /* \"#utility.yul\":7101:7141   */\n      add\n        /* \"#utility.yul\":7243:7249   */\n      dup2\n        /* \"#utility.yul\":7231:7241   */\n      dup2\n        /* \"#utility.yul\":7228:7250   */\n      lt\n        /* \"#utility.yul\":7207:7225   */\n      0xffffffffffffffff\n        /* \"#utility.yul\":7195:7205   */\n      dup3\n        /* \"#utility.yul\":7192:7226   */\n      gt\n        /* \"#utility.yul\":7189:7251   */\n      or\n        /* \"#utility.yul\":7186:7274   */\n      iszero\n      tag_173\n      jumpi\n        /* \"#utility.yul\":7254:7272   */\n      tag_174\n      tag_149\n      jump\t// in\n    tag_174:\n        /* \"#utility.yul\":7186:7274   */\n    tag_173:\n        /* \"#utility.yul\":7294:7304   */\n      dup1\n        /* \"#utility.yul\":7290:7292   */\n      0x40\n        /* \"#utility.yul\":7283:7305   */\n      mstore\n        /* \"#utility.yul\":7073:7311   */\n      pop\n        /* \"#utility.yul\":7030:7311   */\n      pop\n      pop\n      jump\t// out\n        /* \"#utility.yul\":7317:7497   */\n    tag_170:\n        /* \"#utility.yul\":7365:7442   */\n      0x4e487b7100000000000000000000000000000000000000000000000000000000\n        /* \"#utility.yul\":7362:7363   */\n      0x00\n        /* \"#utility.yul\":7355:7443   */\n      mstore\n        /* \"#utility.yul\":7462:7466   */\n      0x22\n        /* \"#utility.yul\":7459:7460   */\n      0x04\n        /* \"#utility.yul\":7452:7467   */\n      mstore\n        /* \"#utility.yul\":7486:7490   */\n      0x24\n        /* \"#utility.yul\":7483:7484   */\n      0x00\n        /* \"#utility.yul\":7476:7491   */\n      revert\n        /* \"#utility.yul\":7503:7683   */\n    tag_149:\n        /* \"#utility.yul\":7551:7628   */\n      0x4e487b7100000000000000000000000000000000000000000000000000000000\n        /* \"#utility.yul\":7548:7549   */\n      0x00\n        /* \"#utility.yul\":7541:7629   */\n      mstore\n        /* \"#utility.yul\":7648:7652   */\n      0x41\n        /* \"#utility.yul\":7645:7646   */\n      0x04\n        /* \"#utility.yul\":7638:7653   */\n      mstore\n        /* \"#utility.yul\":7672:7676   */\n      0x24\n        /* \"#utility.yul\":7669:7670   */\n      0x00\n        /* \"#utility.yul\":7662:7677   */\n      revert\n        /* \"#utility.yul\":7689:7806   */\n    tag_82:\n        /* \"#utility.yul\":7798:7799   */\n      0x00\n        /* \"#utility.yul\":7795:7796   */\n      dup1\n        /* \"#utility.yul\":7788:7800   */\n      revert\n        /* \"#utility.yul\":7812:7929   */\n    tag_71:\n        /* \"#utility.yul\":7921:7922   */\n      0x00\n        /* \"#utility.yul\":7918:7919   */\n      dup1\n        /* \"#utility.yul\":7911:7923   */\n      revert\n        /* \"#utility.yul\":7935:8052   */\n    tag_99:\n        /* \"#utility.yul\":8044:8045   */\n      0x00\n        /* \"#utility.yul\":8041:8042   */\n      dup1\n        /* \"#utility.yul\":8034:8046   */\n      revert\n        /* \"#utility.yul\":8058:8175   */\n    tag_91:\n        /* \"#utility.yul\":8167:8168   */\n      0x00\n        /* \"#utility.yul\":8164:8165   */\n      dup1\n        /* \"#utility.yul\":8157:8169   */\n      revert\n        /* \"#utility.yul\":8181:8283   */\n    tag_123:\n        /* \"#utility.yul\":8222:8228   */\n      0x00\n        /* \"#utility.yul\":8273:8275   */\n      0x1f\n        /* \"#utility.yul\":8269:8276   */\n      not\n        /* \"#utility.yul\":8264:8266   */\n      0x1f\n        /* \"#utility.yul\":8257:8262   */\n      dup4\n        /* \"#utility.yul\":8253:8267   */\n      add\n        /* \"#utility.yul\":8249:8277   */\n      and\n        /* \"#utility.yul\":8239:8277   */\n      swap1\n      pop\n        /* \"#utility.yul\":8181:8283   */\n      swap2\n      swap1\n      pop\n      jump\t// out\n        /* \"#utility.yul\":8289:8411   */\n    tag_77:\n        /* \"#utility.yul\":8362:8386   */\n      tag_183\n        /* \"#utility.yul\":8380:8385   */\n      dup2\n        /* \"#utility.yul\":8362:8386   */\n      tag_154\n      jump\t// in\n    tag_183:\n        /* \"#utility.yul\":8355:8360   */\n      dup2\n        /* \"#utility.yul\":8352:8387   */\n      eq\n        /* \"#utility.yul\":8342:8405   */\n      tag_184\n      jumpi\n        /* \"#utility.yul\":8401:8402   */\n      0x00\n        /* \"#utility.yul\":8398:8399   */\n      dup1\n        /* \"#utility.yul\":8391:8403   */\n      revert\n        /* \"#utility.yul\":8342:8405   */\n    tag_184:\n        /* \"#utility.yul\":8289:8411   */\n      pop\n      jump\t// out\n        /* \"#utility.yul\":8417:8539   */\n    tag_87:\n        /* \"#utility.yul\":8490:8514   */\n      tag_186\n        /* \"#utility.yul\":8508:8513   */\n      dup2\n        /* \"#utility.yul\":8490:8514   */\n      tag_133\n      jump\t// in\n    tag_186:\n        /* \"#utility.yul\":8483:8488   */\n      dup2\n        /* \"#utility.yul\":8480:8515   */\n      eq\n        /* \"#utility.yul\":8470:8533   */\n      tag_187\n      jumpi\n        /* \"#utility.yul\":8529:8530   */\n      0x00\n        /* \"#utility.yul\":8526:8527   */\n      dup1\n        /* \"#utility.yul\":8519:8531   */\n      revert\n        /* \"#utility.yul\":8470:8533   */\n    tag_187:\n        /* \"#utility.yul\":8417:8539   */\n      pop\n      jump\t// out\n\n    auxdata: 0xa2646970667358221220f484d1e55e80f62d5b5bdf8bf8996ee6e5927ad4b4b9bb8164e31be41e74c36364736f6c63430008070033\n}\n",
				"bytecode": {
					"linkReferences": {},
					"object": "608060405234801561001057600080fd5b50610895806100206000396000f3fe6080604052600436106100555760003560e01c8063250f050a1461005a5780633878388e146100835780635e5c06e2146100ac5780636dcfe452146100e95780638b8cfeff14610126578063e2982c2114610130575b600080fd5b34801561006657600080fd5b50610081600480360381019061007c9190610527565b61016d565b005b34801561008f57600080fd5b506100aa60048036038101906100a59190610482565b610194565b005b3480156100b857600080fd5b506100d360048036038101906100ce9190610455565b6101ec565b6040516100e09190610613565b60405180910390f35b3480156100f557600080fd5b50610110600480360381019061010b91906104de565b61028c565b60405161011d9190610635565b60405180910390f35b61012e6102ba565b005b34801561013c57600080fd5b5061015760048036038101906101529190610455565b610300565b6040516101649190610635565b60405180910390f35b8060008360405161017e91906105fc565b9081526020016040518091039020819055505050565b80600160008473ffffffffffffffffffffffffffffffffffffffff1673ffffffffffffffffffffffffffffffffffffffff16815260200190815260200160002090805190602001906101e7929190610318565b505050565b6001602052806000526040600020600091509050805461020b9061074b565b80601f01602080910402602001604051908101604052809291908181526020018280546102379061074b565b80156102845780601f1061025957610100808354040283529160200191610284565b820191906000526020600020905b81548152906001019060200180831161026757829003601f168201915b505050505081565b6000818051602081018201805184825260208301602085012081835280955050505050506000915090505481565b34600260003373ffffffffffffffffffffffffffffffffffffffff1673ffffffffffffffffffffffffffffffffffffffff16815260200190815260200160002081905550565b60026020528060005260406000206000915090505481565b8280546103249061074b565b90600052602060002090601f016020900481019282610346576000855561038d565b82601f1061035f57805160ff191683800117855561038d565b8280016001018555821561038d579182015b8281111561038c578251825591602001919060010190610371565b5b50905061039a919061039e565b5090565b5b808211156103b757600081600090555060010161039f565b5090565b60006103ce6103c984610675565b610650565b9050828152602081018484840111156103ea576103e9610811565b5b6103f5848285610709565b509392505050565b60008135905061040c81610831565b92915050565b600082601f8301126104275761042661080c565b5b81356104378482602086016103bb565b91505092915050565b60008135905061044f81610848565b92915050565b60006020828403121561046b5761046a61081b565b5b6000610479848285016103fd565b91505092915050565b600080604083850312156104995761049861081b565b5b60006104a7858286016103fd565b925050602083013567ffffffffffffffff8111156104c8576104c7610816565b5b6104d485828601610412565b9150509250929050565b6000602082840312156104f4576104f361081b565b5b600082013567ffffffffffffffff81111561051257610511610816565b5b61051e84828501610412565b91505092915050565b6000806040838503121561053e5761053d61081b565b5b600083013567ffffffffffffffff81111561055c5761055b610816565b5b61056885828601610412565b925050602061057985828601610440565b9150509250929050565b600061058e826106a6565b61059881856106b1565b93506105a8818560208601610718565b6105b181610820565b840191505092915050565b60006105c7826106a6565b6105d181856106c2565b93506105e1818560208601610718565b80840191505092915050565b6105f6816106ff565b82525050565b600061060882846105bc565b915081905092915050565b6000602082019050818103600083015261062d8184610583565b905092915050565b600060208201905061064a60008301846105ed565b92915050565b600061065a61066b565b9050610666828261077d565b919050565b6000604051905090565b600067ffffffffffffffff8211156106905761068f6107dd565b5b61069982610820565b9050602081019050919050565b600081519050919050565b600082825260208201905092915050565b600081905092915050565b60006106d8826106df565b9050919050565b600073ffffffffffffffffffffffffffffffffffffffff82169050919050565b6000819050919050565b82818337600083830152505050565b60005b8381101561073657808201518184015260208101905061071b565b83811115610745576000848401525b50505050565b6000600282049050600182168061076357607f821691505b60208210811415610777576107766107ae565b5b50919050565b61078682610820565b810181811067ffffffffffffffff821117156107a5576107a46107dd565b5b80604052505050565b7f4e487b7100000000000000000000000000000000000000000000000000000000600052602260045260246000fd5b7f4e487b7100000000000000000000000000000000000000000000000000000000600052604160045260246000fd5b600080fd5b600080fd5b600080fd5b600080fd5b6000601f19601f8301169050919050565b61083a816106cd565b811461084557600080fd5b50565b610851816106ff565b811461085c57600080fd5b5056fea2646970667358221220f484d1e55e80f62d5b5bdf8bf8996ee6e5927ad4b4b9bb8164e31be41e74c36364736f6c63430008070033",
					"opcodes": "PUSH1 0x80 PUSH1 0x40 MSTORE CALLVALUE DUP1 ISZERO PUSH2 0x10 JUMPI PUSH1 0x0 DUP1 REVERT JUMPDEST POP PUSH2 0x895 DUP1 PUSH2 0x20 PUSH1 0x0 CODECOPY PUSH1 0x0 RETURN INVALID PUSH1 0x80 PUSH1 0x40 MSTORE PUSH1 0x4 CALLDATASIZE LT PUSH2 0x55 JUMPI PUSH1 0x0 CALLDATALOAD PUSH1 0xE0 SHR DUP1 PUSH4 0x250F050A EQ PUSH2 0x5A JUMPI DUP1 PUSH4 0x3878388E EQ PUSH2 0x83 JUMPI DUP1 PUSH4 0x5E5C06E2 EQ PUSH2 0xAC JUMPI DUP1 PUSH4 0x6DCFE452 EQ PUSH2 0xE9 JUMPI DUP1 PUSH4 0x8B8CFEFF EQ PUSH2 0x126 JUMPI DUP1 PUSH4 0xE2982C21 EQ PUSH2 0x130 JUMPI JUMPDEST PUSH1 0x0 DUP1 REVERT JUMPDEST CALLVALUE DUP1 ISZERO PUSH2 0x66 JUMPI PUSH1 0x0 DUP1 REVERT JUMPDEST POP PUSH2 0x81 PUSH1 0x4 DUP1 CALLDATASIZE SUB DUP2 ADD SWAP1 PUSH2 0x7C SWAP2 SWAP1 PUSH2 0x527 JUMP JUMPDEST PUSH2 0x16D JUMP JUMPDEST STOP JUMPDEST CALLVALUE DUP1 ISZERO PUSH2 0x8F JUMPI PUSH1 0x0 DUP1 REVERT JUMPDEST POP PUSH2 0xAA PUSH1 0x4 DUP1 CALLDATASIZE SUB DUP2 ADD SWAP1 PUSH2 0xA5 SWAP2 SWAP1 PUSH2 0x482 JUMP JUMPDEST PUSH2 0x194 JUMP JUMPDEST STOP JUMPDEST CALLVALUE DUP1 ISZERO PUSH2 0xB8 JUMPI PUSH1 0x0 DUP1 REVERT JUMPDEST POP PUSH2 0xD3 PUSH1 0x4 DUP1 CALLDATASIZE SUB DUP2 ADD SWAP1 PUSH2 0xCE SWAP2 SWAP1 PUSH2 0x455 JUMP JUMPDEST PUSH2 0x1EC JUMP JUMPDEST PUSH1 0x40 MLOAD PUSH2 0xE0 SWAP2 SWAP1 PUSH2 0x613 JUMP JUMPDEST PUSH1 0x40 MLOAD DUP1 SWAP2 SUB SWAP1 RETURN JUMPDEST CALLVALUE DUP1 ISZERO PUSH2 0xF5 JUMPI PUSH1 0x0 DUP1 REVERT JUMPDEST POP PUSH2 0x110 PUSH1 0x4 DUP1 CALLDATASIZE SUB DUP2 ADD SWAP1 PUSH2 0x10B SWAP2 SWAP1 PUSH2 0x4DE JUMP JUMPDEST PUSH2 0x28C JUMP JUMPDEST PUSH1 0x40 MLOAD PUSH2 0x11D SWAP2 SWAP1 PUSH2 0x635 JUMP JUMPDEST PUSH1 0x40 MLOAD DUP1 SWAP2 SUB SWAP1 RETURN JUMPDEST PUSH2 0x12E PUSH2 0x2BA JUMP JUMPDEST STOP JUMPDEST CALLVALUE DUP1 ISZERO PUSH2 0x13C JUMPI PUSH1 0x0 DUP1 REVERT JUMPDEST POP PUSH2 0x157 PUSH1 0x4 DUP1 CALLDATASIZE SUB DUP2 ADD SWAP1 PUSH2 0x152 SWAP2 SWAP1 PUSH2 0x455 JUMP JUMPDEST PUSH2 0x300 JUMP JUMPDEST PUSH1 0x40 MLOAD PUSH2 0x164 SWAP2 SWAP1 PUSH2 0x635 JUMP JUMPDEST PUSH1 0x40 MLOAD DUP1 SWAP2 SUB SWAP1 RETURN JUMPDEST DUP1 PUSH1 0x0 DUP4 PUSH1 0x40 MLOAD PUSH2 0x17E SWAP2 SWAP1 PUSH2 0x5FC JUMP JUMPDEST SWAP1 DUP2 MSTORE PUSH1 0x20 ADD PUSH1 0x40 MLOAD DUP1 SWAP2 SUB SWAP1 KECCAK256 DUP2 SWAP1 SSTORE POP POP POP JUMP JUMPDEST DUP1 PUSH1 0x1 PUSH1 0x0 DUP5 PUSH20 0xFFFFFFFFFFFFFFFFFFFFFFFFFFFFFFFFFFFFFFFF AND PUSH20 0xFFFFFFFFFFFFFFFFFFFFFFFFFFFFFFFFFFFFFFFF AND DUP2 MSTORE PUSH1 0x20 ADD SWAP1 DUP2 MSTORE PUSH1 0x20 ADD PUSH1 0x0 KECCAK256 SWAP1 DUP1 MLOAD SWAP1 PUSH1 0x20 ADD SWAP1 PUSH2 0x1E7 SWAP3 SWAP2 SWAP1 PUSH2 0x318 JUMP JUMPDEST POP POP POP JUMP JUMPDEST PUSH1 0x1 PUSH1 0x20 MSTORE DUP1 PUSH1 0x0 MSTORE PUSH1 0x40 PUSH1 0x0 KECCAK256 PUSH1 0x0 SWAP2 POP SWAP1 POP DUP1 SLOAD PUSH2 0x20B SWAP1 PUSH2 0x74B JUMP JUMPDEST DUP1 PUSH1 0x1F ADD PUSH1 0x20 DUP1 SWAP2 DIV MUL PUSH1 0x20 ADD PUSH1 0x40 MLOAD SWAP1 DUP2 ADD PUSH1 0x40 MSTORE DUP1 SWAP3 SWAP2 SWAP1 DUP2 DUP2 MSTORE PUSH1 0x20 ADD DUP3 DUP1 SLOAD PUSH2 0x237 SWAP1 PUSH2 0x74B JUMP JUMPDEST DUP1 ISZERO PUSH2 0x284 JUMPI DUP1 PUSH1 0x1F LT PUSH2 0x259 JUMPI PUSH2 0x100 DUP1 DUP4 SLOAD DIV MUL DUP4 MSTORE SWAP2 PUSH1 0x20 ADD SWAP2 PUSH2 0x284 JUMP JUMPDEST DUP3 ADD SWAP2 SWAP1 PUSH1 0x0 MSTORE PUSH1 0x20 PUSH1 0x0 KECCAK256 SWAP1 JUMPDEST DUP2 SLOAD DUP2 MSTORE SWAP1 PUSH1 0x1 ADD SWAP1 PUSH1 0x20 ADD DUP1 DUP4 GT PUSH2 0x267 JUMPI DUP3 SWAP1 SUB PUSH1 0x1F AND DUP3 ADD SWAP2 JUMPDEST POP POP POP POP POP DUP2 JUMP JUMPDEST PUSH1 0x0 DUP2 DUP1 MLOAD PUSH1 0x20 DUP2 ADD DUP3 ADD DUP1 MLOAD DUP5 DUP3 MSTORE PUSH1 0x20 DUP4 ADD PUSH1 0x20 DUP6 ADD KECCAK256 DUP2 DUP4 MSTORE DUP1 SWAP6 POP POP POP POP POP POP PUSH1 0x0 SWAP2 POP SWAP1 POP SLOAD DUP2 JUMP JUMPDEST CALLVALUE PUSH1 0x2 PUSH1 0x0 CALLER PUSH20 0xFFFFFFFFFFFFFFFFFFFFFFFFFFFFFFFFFFFFFFFF AND PUSH20 0xFFFFFFFFFFFFFFFFFFFFFFFFFFFFFFFFFFFFFFFF AND DUP2 MSTORE PUSH1 0x20 ADD SWAP1 DUP2 MSTORE PUSH1 0x20 ADD PUSH1 0x0 KECCAK256 DUP2 SWAP1 SSTORE POP JUMP JUMPDEST PUSH1 0x2 PUSH1 0x20 MSTORE DUP1 PUSH1 0x0 MSTORE PUSH1 0x40 PUSH1 0x0 KECCAK256 PUSH1 0x0 SWAP2 POP SWAP1 POP SLOAD DUP2 JUMP JUMPDEST DUP3 DUP1 SLOAD PUSH2 0x324 SWAP1 PUSH2 0x74B JUMP JUMPDEST SWAP1 PUSH1 0x0 MSTORE PUSH1 0x20 PUSH1 0x0 KECCAK256 SWAP1 PUSH1 0x1F ADD PUSH1 0x20 SWAP1 DIV DUP2 ADD SWAP3 DUP3 PUSH2 0x346 JUMPI PUSH1 0x0 DUP6 SSTORE PUSH2 0x38D JUMP JUMPDEST DUP3 PUSH1 0x1F LT PUSH2 0x35F JUMPI DUP1 MLOAD PUSH1 0xFF NOT AND DUP4 DUP1 ADD OR DUP6 SSTORE PUSH2 0x38D JUMP JUMPDEST DUP3 DUP1 ADD PUSH1 0x1 ADD DUP6 SSTORE DUP3 ISZERO PUSH2 0x38D JUMPI SWAP2 DUP3 ADD JUMPDEST DUP3 DUP2 GT ISZERO PUSH2 0x38C JUMPI DUP3 MLOAD DUP3 SSTORE SWAP2 PUSH1 0x20 ADD SWAP2 SWAP1 PUSH1 0x1 ADD SWAP1 PUSH2 0x371 JUMP JUMPDEST JUMPDEST POP SWAP1 POP PUSH2 0x39A SWAP2 SWAP1 PUSH2 0x39E JUMP JUMPDEST POP SWAP1 JUMP JUMPDEST JUMPDEST DUP1 DUP3 GT ISZERO PUSH2 0x3B7 JUMPI PUSH1 0x0 DUP2 PUSH1 0x0 SWAP1 SSTORE POP PUSH1 0x1 ADD PUSH2 0x39F JUMP JUMPDEST POP SWAP1 JUMP JUMPDEST PUSH1 0x0 PUSH2 0x3CE PUSH2 0x3C9 DUP5 PUSH2 0x675 JUMP JUMPDEST PUSH2 0x650 JUMP JUMPDEST SWAP1 POP DUP3 DUP2 MSTORE PUSH1 0x20 DUP2 ADD DUP5 DUP5 DUP5 ADD GT ISZERO PUSH2 0x3EA JUMPI PUSH2 0x3E9 PUSH2 0x811 JUMP JUMPDEST JUMPDEST PUSH2 0x3F5 DUP5 DUP3 DUP6 PUSH2 0x709 JUMP JUMPDEST POP SWAP4 SWAP3 POP POP POP JUMP JUMPDEST PUSH1 0x0 DUP2 CALLDATALOAD SWAP1 POP PUSH2 0x40C DUP2 PUSH2 0x831 JUMP JUMPDEST SWAP3 SWAP2 POP POP JUMP JUMPDEST PUSH1 0x0 DUP3 PUSH1 0x1F DUP4 ADD SLT PUSH2 0x427 JUMPI PUSH2 0x426 PUSH2 0x80C JUMP JUMPDEST JUMPDEST DUP2 CALLDATALOAD PUSH2 0x437 DUP5 DUP3 PUSH1 0x20 DUP7 ADD PUSH2 0x3BB JUMP JUMPDEST SWAP2 POP POP SWAP3 SWAP2 POP POP JUMP JUMPDEST PUSH1 0x0 DUP2 CALLDATALOAD SWAP1 POP PUSH2 0x44F DUP2 PUSH2 0x848 JUMP JUMPDEST SWAP3 SWAP2 POP POP JUMP JUMPDEST PUSH1 0x0 PUSH1 0x20 DUP3 DUP5 SUB SLT ISZERO PUSH2 0x46B JUMPI PUSH2 0x46A PUSH2 0x81B JUMP JUMPDEST JUMPDEST PUSH1 0x0 PUSH2 0x479 DUP5 DUP3 DUP6 ADD PUSH2 0x3FD JUMP JUMPDEST SWAP2 POP POP SWAP3 SWAP2 POP POP JUMP JUMPDEST PUSH1 0x0 DUP1 PUSH1 0x40 DUP4 DUP6 SUB SLT ISZERO PUSH2 0x499 JUMPI PUSH2 0x498 PUSH2 0x81B JUMP JUMPDEST JUMPDEST PUSH1 0x0 PUSH2 0x4A7 DUP6 DUP3 DUP7 ADD PUSH2 0x3FD JUMP JUMPDEST SWAP3 POP POP PUSH1 0x20 DUP4 ADD CALLDATALOAD PUSH8 0xFFFFFFFFFFFFFFFF DUP2 GT ISZERO PUSH2 0x4C8 JUMPI PUSH2 0x4C7 PUSH2 0x816 JUMP JUMPDEST JUMPDEST PUSH2 0x4D4 DUP6 DUP3 DUP7 ADD PUSH2 0x412 JUMP JUMPDEST SWAP2 POP POP SWAP3 POP SWAP3 SWAP1 POP JUMP JUMPDEST PUSH1 0x0 PUSH1 0x20 DUP3 DUP5 SUB SLT ISZERO PUSH2 0x4F4 JUMPI PUSH2 0x4F3 PUSH2 0x81B JUMP JUMPDEST JUMPDEST PUSH1 0x0 DUP3 ADD CALLDATALOAD PUSH8 0xFFFFFFFFFFFFFFFF DUP2 GT ISZERO PUSH2 0x512 JUMPI PUSH2 0x511 PUSH2 0x816 JUMP JUMPDEST JUMPDEST PUSH2 0x51E DUP5 DUP3 DUP6 ADD PUSH2 0x412 JUMP JUMPDEST SWAP2 POP POP SWAP3 SWAP2 POP POP JUMP JUMPDEST PUSH1 0x0 DUP1 PUSH1 0x40 DUP4 DUP6 SUB SLT ISZERO PUSH2 0x53E JUMPI PUSH2 0x53D PUSH2 0x81B JUMP JUMPDEST JUMPDEST PUSH1 0x0 DUP4 ADD CALLDATALOAD PUSH8 0xFFFFFFFFFFFFFFFF DUP2 GT ISZERO PUSH2 0x55C JUMPI PUSH2 0x55B PUSH2 0x816 JUMP JUMPDEST JUMPDEST PUSH2 0x568 DUP6 DUP3 DUP7 ADD PUSH2 0x412 JUMP JUMPDEST SWAP3 POP POP PUSH1 0x20 PUSH2 0x579 DUP6 DUP3 DUP7 ADD PUSH2 0x440 JUMP JUMPDEST SWAP2 POP POP SWAP3 POP SWAP3 SWAP1 POP JUMP JUMPDEST PUSH1 0x0 PUSH2 0x58E DUP3 PUSH2 0x6A6 JUMP JUMPDEST PUSH2 0x598 DUP2 DUP6 PUSH2 0x6B1 JUMP JUMPDEST SWAP4 POP PUSH2 0x5A8 DUP2 DUP6 PUSH1 0x20 DUP7 ADD PUSH2 0x718 JUMP JUMPDEST PUSH2 0x5B1 DUP2 PUSH2 0x820 JUMP JUMPDEST DUP5 ADD SWAP2 POP POP SWAP3 SWAP2 POP POP JUMP JUMPDEST PUSH1 0x0 PUSH2 0x5C7 DUP3 PUSH2 0x6A6 JUMP JUMPDEST PUSH2 0x5D1 DUP2 DUP6 PUSH2 0x6C2 JUMP JUMPDEST SWAP4 POP PUSH2 0x5E1 DUP2 DUP6 PUSH1 0x20 DUP7 ADD PUSH2 0x718 JUMP JUMPDEST DUP1 DUP5 ADD SWAP2 POP POP SWAP3 SWAP2 POP POP JUMP JUMPDEST PUSH2 0x5F6 DUP2 PUSH2 0x6FF JUMP JUMPDEST DUP3 MSTORE POP POP JUMP JUMPDEST PUSH1 0x0 PUSH2 0x608 DUP3 DUP5 PUSH2 0x5BC JUMP JUMPDEST SWAP2 POP DUP2 SWAP1 POP SWAP3 SWAP2 POP POP JUMP JUMPDEST PUSH1 0x0 PUSH1 0x20 DUP3 ADD SWAP1 POP DUP2 DUP2 SUB PUSH1 0x0 DUP4 ADD MSTORE PUSH2 0x62D DUP2 DUP5 PUSH2 0x583 JUMP JUMPDEST SWAP1 POP SWAP3 SWAP2 POP POP JUMP JUMPDEST PUSH1 0x0 PUSH1 0x20 DUP3 ADD SWAP1 POP PUSH2 0x64A PUSH1 0x0 DUP4 ADD DUP5 PUSH2 0x5ED JUMP JUMPDEST SWAP3 SWAP2 POP POP JUMP JUMPDEST PUSH1 0x0 PUSH2 0x65A PUSH2 0x66B JUMP JUMPDEST SWAP1 POP PUSH2 0x666 DUP3 DUP3 PUSH2 0x77D JUMP JUMPDEST SWAP2 SWAP1 POP JUMP JUMPDEST PUSH1 0x0 PUSH1 0x40 MLOAD SWAP1 POP SWAP1 JUMP JUMPDEST PUSH1 0x0 PUSH8 0xFFFFFFFFFFFFFFFF DUP3 GT ISZERO PUSH2 0x690 JUMPI PUSH2 0x68F PUSH2 0x7DD JUMP JUMPDEST JUMPDEST PUSH2 0x699 DUP3 PUSH2 0x820 JUMP JUMPDEST SWAP1 POP PUSH1 0x20 DUP2 ADD SWAP1 POP SWAP2 SWAP1 POP JUMP JUMPDEST PUSH1 0x0 DUP2 MLOAD SWAP1 POP SWAP2 SWAP1 POP JUMP JUMPDEST PUSH1 0x0 DUP3 DUP3 MSTORE PUSH1 0x20 DUP3 ADD SWAP1 POP SWAP3 SWAP2 POP POP JUMP JUMPDEST PUSH1 0x0 DUP2 SWAP1 POP SWAP3 SWAP2 POP POP JUMP JUMPDEST PUSH1 0x0 PUSH2 0x6D8 DUP3 PUSH2 0x6DF JUMP JUMPDEST SWAP1 POP SWAP2 SWAP1 POP JUMP JUMPDEST PUSH1 0x0 PUSH20 0xFFFFFFFFFFFFFFFFFFFFFFFFFFFFFFFFFFFFFFFF DUP3 AND SWAP1 POP SWAP2 SWAP1 POP JUMP JUMPDEST PUSH1 0x0 DUP2 SWAP1 POP SWAP2 SWAP1 POP JUMP JUMPDEST DUP3 DUP2 DUP4 CALLDATACOPY PUSH1 0x0 DUP4 DUP4 ADD MSTORE POP POP POP JUMP JUMPDEST PUSH1 0x0 JUMPDEST DUP4 DUP2 LT ISZERO PUSH2 0x736 JUMPI DUP1 DUP3 ADD MLOAD DUP2 DUP5 ADD MSTORE PUSH1 0x20 DUP2 ADD SWAP1 POP PUSH2 0x71B JUMP JUMPDEST DUP4 DUP2 GT ISZERO PUSH2 0x745 JUMPI PUSH1 0x0 DUP5 DUP5 ADD MSTORE JUMPDEST POP POP POP POP JUMP JUMPDEST PUSH1 0x0 PUSH1 0x2 DUP3 DIV SWAP1 POP PUSH1 0x1 DUP3 AND DUP1 PUSH2 0x763 JUMPI PUSH1 0x7F DUP3 AND SWAP2 POP JUMPDEST PUSH1 0x20 DUP3 LT DUP2 EQ ISZERO PUSH2 0x777 JUMPI PUSH2 0x776 PUSH2 0x7AE JUMP JUMPDEST JUMPDEST POP SWAP2 SWAP1 POP JUMP JUMPDEST PUSH2 0x786 DUP3 PUSH2 0x820 JUMP JUMPDEST DUP2 ADD DUP2 DUP2 LT PUSH8 0xFFFFFFFFFFFFFFFF DUP3 GT OR ISZERO PUSH2 0x7A5 JUMPI PUSH2 0x7A4 PUSH2 0x7DD JUMP JUMPDEST JUMPDEST DUP1 PUSH1 0x40 MSTORE POP POP POP JUMP JUMPDEST PUSH32 0x4E487B7100000000000000000000000000000000000000000000000000000000 PUSH1 0x0 MSTORE PUSH1 0x22 PUSH1 0x4 MSTORE PUSH1 0x24 PUSH1 0x0 REVERT JUMPDEST PUSH32 0x4E487B7100000000000000000000000000000000000000000000000000000000 PUSH1 0x0 MSTORE PUSH1 0x41 PUSH1 0x4 MSTORE PUSH1 0x24 PUSH1 0x0 REVERT JUMPDEST PUSH1 0x0 DUP1 REVERT JUMPDEST PUSH1 0x0 DUP1 REVERT JUMPDEST PUSH1 0x0 DUP1 REVERT JUMPDEST PUSH1 0x0 DUP1 REVERT JUMPDEST PUSH1 0x0 PUSH1 0x1F NOT PUSH1 0x1F DUP4 ADD AND SWAP1 POP SWAP2 SWAP1 POP JUMP JUMPDEST PUSH2 0x83A DUP2 PUSH2 0x6CD JUMP JUMPDEST DUP2 EQ PUSH2 0x845 JUMPI PUSH1 0x0 DUP1 REVERT JUMPDEST POP JUMP JUMPDEST PUSH2 0x851 DUP2 PUSH2 0x6FF JUMP JUMPDEST DUP2 EQ PUSH2 0x85C JUMPI PUSH1 0x0 DUP1 REVERT JUMPDEST POP JUMP INVALID LOG2 PUSH5 0x6970667358 0x22 SLT KECCAK256 DELEGATECALL DUP5 0xD1 0xE5 0x5E DUP1 0xF6 0x2D JUMPDEST JUMPDEST 0xDF DUP12 0xF8 SWAP10 PUSH15 0xE6E5927AD4B4B9BB8164E31BE41E74 0xC3 PUSH4 0x64736F6C PUSH4 0x43000807 STOP CALLER "
				},
				"gasEstimates": {
					"creation": {
						"codeDepositCost": "439400",
						"executionCost": "474",
						"totalCost": "439874"
					},
					"external": {
						"accounts(address)": "infinite",
						"ages(string)": "infinite",
						"payments(address)": "2902",
						"setAccounts(address,string)": "infinite",
						"setAges(string,uint256)": "infinite",
						"setPayments()": "22388"
					}
				},
				"methodIdentifiers": {
					"accounts(address)": "5e5c06e2",
					"ages(string)": "6dcfe452",
					"payments(address)": "e2982c21",
					"setAccounts(address,string)": "3878388e",
					"setAges(string,uint256)": "250f050a",
					"setPayments()": "8b8cfeff"
				}
			},
			"storageLayout": {
				"storage": [
					{
						"astId": 5,
						"contract": "contracts/Lesson3Types.sol:Map3Lesson",
						"label": "ages",
						"offset": 0,
						"slot": "0",
						"type": "t_mapping(t_string_memory_ptr,t_uint256)"
					},
					{
						"astId": 9,
						"contract": "contracts/Lesson3Types.sol:Map3Lesson",
						"label": "accounts",
						"offset": 0,
						"slot": "1",
						"type": "t_mapping(t_address,t_string_storage)"
					},
					{
						"astId": 13,
						"contract": "contracts/Lesson3Types.sol:Map3Lesson",
						"label": "payments",
						"offset": 0,
						"slot": "2",
						"type": "t_mapping(t_address,t_uint256)"
					}
				],
				"types": {
					"t_address": {
						"encoding": "inplace",
						"label": "address",
						"numberOfBytes": "20"
					},
					"t_mapping(t_address,t_string_storage)": {
						"encoding": "mapping",
						"key": "t_address",
						"label": "mapping(address => string)",
						"numberOfBytes": "32",
						"value": "t_string_storage"
					},
					"t_mapping(t_address,t_uint256)": {
						"encoding": "mapping",
						"key": "t_address",
						"label": "mapping(address => uint256)",
						"numberOfBytes": "32",
						"value": "t_uint256"
					},
					"t_mapping(t_string_memory_ptr,t_uint256)": {
						"encoding": "mapping",
						"key": "t_string_memory_ptr",
						"label": "mapping(string => uint256)",
						"numberOfBytes": "32",
						"value": "t_uint256"
					},
					"t_string_memory_ptr": {
						"encoding": "bytes",
						"label": "string",
						"numberOfBytes": "32"
					},
					"t_string_storage": {
						"encoding": "bytes",
						"label": "string",
						"numberOfBytes": "32"
					},
					"t_uint256": {
						"encoding": "inplace",
						"label": "uint256",
						"numberOfBytes": "32"
					}
				}
			},
			"userdoc": {
				"kind": "user",
				"methods": {},
				"version": 1
			}
		}
	}
}