{
	"contracts/Lesson4Types.sol": {
		"Array4Lesson": {
			"abi": [
				{
					"inputs": [
						{
							"internalType": "uint256",
							"name": "",
							"type": "uint256"
						}
					],
					"name": "dynArr",
					"outputs": [
						{
							"internalType": "uint256",
							"name": "",
							"type": "uint256"
						}
					],
					"stateMutability": "view",
					"type": "function"
				},
				{
					"inputs": [],
					"name": "dynArrLength",
					"outputs": [
						{
							"internalType": "uint256",
							"name": "",
							"type": "uint256"
						}
					],
					"stateMutability": "view",
					"type": "function"
				},
				{
					"inputs": [],
					"name": "hobLength",
					"outputs": [
						{
							"internalType": "uint256",
							"name": "",
							"type": "uint256"
						}
					],
					"stateMutability": "view",
					"type": "function"
				},
				{
					"inputs": [],
					"name": "hobait",
					"outputs": [
						{
							"internalType": "bytes",
							"name": "",
							"type": "bytes"
						}
					],
					"stateMutability": "view",
					"type": "function"
				},
				{
					"inputs": [],
					"name": "hobit",
					"outputs": [
						{
							"internalType": "bytes32",
							"name": "",
							"type": "bytes32"
						}
					],
					"stateMutability": "view",
					"type": "function"
				},
				{
					"inputs": [
						{
							"internalType": "uint256",
							"name": "",
							"type": "uint256"
						}
					],
					"name": "items",
					"outputs": [
						{
							"internalType": "uint256",
							"name": "",
							"type": "uint256"
						}
					],
					"stateMutability": "view",
					"type": "function"
				},
				{
					"inputs": [
						{
							"internalType": "uint256",
							"name": "",
							"type": "uint256"
						}
					],
					"name": "list",
					"outputs": [
						{
							"internalType": "string",
							"name": "",
							"type": "string"
						}
					],
					"stateMutability": "view",
					"type": "function"
				},
				{
					"inputs": [
						{
							"internalType": "uint256",
							"name": "",
							"type": "uint256"
						},
						{
							"internalType": "uint256",
							"name": "",
							"type": "uint256"
						}
					],
					"name": "matrix",
					"outputs": [
						{
							"internalType": "uint256",
							"name": "",
							"type": "uint256"
						}
					],
					"stateMutability": "view",
					"type": "function"
				},
				{
					"inputs": [
						{
							"internalType": "uint256",
							"name": "num",
							"type": "uint256"
						}
					],
					"name": "modDynamicArr",
					"outputs": [],
					"stateMutability": "nonpayable",
					"type": "function"
				},
				{
					"inputs": [],
					"name": "modifyArray",
					"outputs": [],
					"stateMutability": "nonpayable",
					"type": "function"
				},
				{
					"inputs": [],
					"name": "sampleMemory",
					"outputs": [
						{
							"internalType": "uint256[]",
							"name": "",
							"type": "uint256[]"
						}
					],
					"stateMutability": "view",
					"type": "function"
				}
			],
			"devdoc": {
				"kind": "dev",
				"methods": {},
				"version": 1
			},
			"evm": {
				"assembly": "    /* \"contracts/Lesson4Types.sol\":58:1096  contract Array4Lesson {... */\n  mstore(0x40, 0x80)\n    /* \"contracts/Lesson4Types.sol\":91:126  uint[10] public items = [10, 20, 1] */\n  mload(0x40)\n  dup1\n  0x60\n  add\n  0x40\n  mstore\n  dup1\n    /* \"contracts/Lesson4Types.sol\":116:118  10 */\n  0x0a\n    /* \"contracts/Lesson4Types.sol\":91:126  uint[10] public items = [10, 20, 1] */\n  0xff\n  and\n  dup2\n  mstore\n  0x20\n  add\n    /* \"contracts/Lesson4Types.sol\":120:122  20 */\n  0x14\n    /* \"contracts/Lesson4Types.sol\":91:126  uint[10] public items = [10, 20, 1] */\n  0xff\n  and\n  dup2\n  mstore\n  0x20\n  add\n    /* \"contracts/Lesson4Types.sol\":124:125  1 */\n  0x01\n    /* \"contracts/Lesson4Types.sol\":91:126  uint[10] public items = [10, 20, 1] */\n  0xff\n  and\n  dup2\n  mstore\n  pop\n  0x00\n  swap1\n  0x03\n  tag_1\n  swap3\n  swap2\n  swap1\n  tag_2\n  jump\t// in\ntag_1:\n  pop\n    /* \"contracts/Lesson4Types.sol\":132:163  string[2] public list = ['str'] */\n  mload(0x40)\n  dup1\n  0x20\n  add\n  0x40\n  mstore\n  dup1\n  mload(0x40)\n  dup1\n  0x40\n  add\n  0x40\n  mstore\n  dup1\n  0x03\n  dup2\n  mstore\n  0x20\n  add\n  0x7374720000000000000000000000000000000000000000000000000000000000\n  dup2\n  mstore\n  pop\n  dup2\n  mstore\n  pop\n  0x0a\n  swap1\n  0x01\n  tag_3\n  swap3\n  swap2\n  swap1\n  tag_4\n  jump\t// in\ntag_3:\n  pop\n    /* \"contracts/Lesson4Types.sol\":281:282  0 */\n  0x00\n    /* \"contracts/Lesson4Types.sol\":254:282  uint public dynArrLength = 0 */\n  0x17\n  sstore\n    /* \"contracts/Lesson4Types.sol\":290:320  bytes32 public hobit = \"Bilbo\" */\n  sstore(0x18, 0x42696c626f000000000000000000000000000000000000000000000000000000)\n    /* \"contracts/Lesson4Types.sol\":368:397  bytes public hobait = \"Bilbo\" */\n  mload(0x40)\n  dup1\n  0x40\n  add\n  0x40\n  mstore\n  dup1\n  0x05\n  dup2\n  mstore\n  0x20\n  add\n  0x42696c626f000000000000000000000000000000000000000000000000000000\n  dup2\n  mstore\n  pop\n  0x19\n  swap1\n  dup1\n  mload\n  swap1\n  0x20\n  add\n  swap1\n  tag_5\n  swap3\n  swap2\n  swap1\n  tag_6\n  jump\t// in\ntag_5:\n  pop\n    /* \"contracts/Lesson4Types.sol\":501:507  hobait */\n  0x19\n    /* \"contracts/Lesson4Types.sol\":501:514  hobait.length */\n  dup1\n  sload\n  tag_7\n  swap1\n  tag_8\n  jump\t// in\ntag_7:\n  swap1\n  pop\n    /* \"contracts/Lesson4Types.sol\":477:514  uint public hobLength = hobait.length */\n  0x1a\n  sstore\n    /* \"contracts/Lesson4Types.sol\":58:1096  contract Array4Lesson {... */\n  callvalue\n  dup1\n  iszero\n  tag_9\n  jumpi\n  0x00\n  dup1\n  revert\ntag_9:\n  pop\n  jump(tag_10)\ntag_2:\n  dup3\n  0x0a\n  dup2\n  add\n  swap3\n  dup3\n  iszero\n  tag_11\n  jumpi\n  swap2\n  0x20\n  mul\n  dup3\n  add\ntag_12:\n  dup3\n  dup2\n  gt\n  iszero\n  tag_13\n  jumpi\n  dup3\n  mload\n  dup3\n  swap1\n  0xff\n  and\n  swap1\n  sstore\n  swap2\n  0x20\n  add\n  swap2\n  swap1\n  0x01\n  add\n  swap1\n  jump(tag_12)\ntag_13:\ntag_11:\n  pop\n  swap1\n  pop\n  tag_14\n  swap2\n  swap1\n  tag_15\n  jump\t// in\ntag_14:\n  pop\n  swap1\n  jump\t// out\ntag_4:\n  dup3\n  0x02\n  dup2\n  add\n  swap3\n  dup3\n  iszero\n  tag_16\n  jumpi\n  swap2\n  0x20\n  mul\n  dup3\n  add\ntag_17:\n  dup3\n  dup2\n  gt\n  iszero\n  tag_18\n  jumpi\n  dup3\n  mload\n  dup3\n  swap1\n  dup1\n  mload\n  swap1\n  0x20\n  add\n  swap1\n  tag_19\n  swap3\n  swap2\n  swap1\n  tag_20\n  jump\t// in\ntag_19:\n  pop\n  swap2\n  0x20\n  add\n  swap2\n  swap1\n  0x01\n  add\n  swap1\n  jump(tag_17)\ntag_18:\ntag_16:\n  pop\n  swap1\n  pop\n  tag_21\n  swap2\n  swap1\n  tag_22\n  jump\t// in\ntag_21:\n  pop\n  swap1\n  jump\t// out\ntag_6:\n  dup3\n  dup1\n  sload\n  tag_23\n  swap1\n  tag_8\n  jump\t// in\ntag_23:\n  swap1\n  0x00\n  mstore\n  keccak256(0x00, 0x20)\n  swap1\n  0x1f\n  add\n  0x20\n  swap1\n  div\n  dup2\n  add\n  swap3\n  dup3\n  tag_25\n  jumpi\n  0x00\n  dup6\n  sstore\n  jump(tag_24)\ntag_25:\n  dup3\n  0x1f\n  lt\n  tag_26\n  jumpi\n  dup1\n  mload\n  not(0xff)\n  and\n  dup4\n  dup1\n  add\n  or\n  dup6\n  sstore\n  jump(tag_24)\ntag_26:\n  dup3\n  dup1\n  add\n  0x01\n  add\n  dup6\n  sstore\n  dup3\n  iszero\n  tag_24\n  jumpi\n  swap2\n  dup3\n  add\ntag_27:\n  dup3\n  dup2\n  gt\n  iszero\n  tag_28\n  jumpi\n  dup3\n  mload\n  dup3\n  sstore\n  swap2\n  0x20\n  add\n  swap2\n  swap1\n  0x01\n  add\n  swap1\n  jump(tag_27)\ntag_28:\ntag_24:\n  pop\n  swap1\n  pop\n  tag_29\n  swap2\n  swap1\n  tag_15\n  jump\t// in\ntag_29:\n  pop\n  swap1\n  jump\t// out\ntag_15:\ntag_30:\n  dup1\n  dup3\n  gt\n  iszero\n  tag_31\n  jumpi\n  0x00\n  dup2\n  0x00\n  swap1\n  sstore\n  pop\n  0x01\n  add\n  jump(tag_30)\ntag_31:\n  pop\n  swap1\n  jump\t// out\ntag_20:\n  dup3\n  dup1\n  sload\n  tag_32\n  swap1\n  tag_8\n  jump\t// in\ntag_32:\n  swap1\n  0x00\n  mstore\n  keccak256(0x00, 0x20)\n  swap1\n  0x1f\n  add\n  0x20\n  swap1\n  div\n  dup2\n  add\n  swap3\n  dup3\n  tag_34\n  jumpi\n  0x00\n  dup6\n  sstore\n  jump(tag_33)\ntag_34:\n  dup3\n  0x1f\n  lt\n  tag_35\n  jumpi\n  dup1\n  mload\n  not(0xff)\n  and\n  dup4\n  dup1\n  add\n  or\n  dup6\n  sstore\n  jump(tag_33)\ntag_35:\n  dup3\n  dup1\n  add\n  0x01\n  add\n  dup6\n  sstore\n  dup3\n  iszero\n  tag_33\n  jumpi\n  swap2\n  dup3\n  add\ntag_36:\n  dup3\n  dup2\n  gt\n  iszero\n  tag_37\n  jumpi\n  dup3\n  mload\n  dup3\n  sstore\n  swap2\n  0x20\n  add\n  swap2\n  swap1\n  0x01\n  add\n  swap1\n  jump(tag_36)\ntag_37:\ntag_33:\n  pop\n  swap1\n  pop\n  tag_38\n  swap2\n  swap1\n  tag_15\n  jump\t// in\ntag_38:\n  pop\n  swap1\n  jump\t// out\ntag_22:\ntag_39:\n  dup1\n  dup3\n  gt\n  iszero\n  tag_40\n  jumpi\n  0x00\n  dup2\n  dup2\n  tag_41\n  swap2\n  swap1\n  tag_42\n  jump\t// in\ntag_41:\n  pop\n  0x01\n  add\n  jump(tag_39)\ntag_40:\n  pop\n  swap1\n  jump\t// out\ntag_42:\n  pop\n  dup1\n  sload\n  tag_43\n  swap1\n  tag_8\n  jump\t// in\ntag_43:\n  0x00\n  dup3\n  sstore\n  dup1\n  0x1f\n  lt\n  tag_45\n  jumpi\n  pop\n  jump(tag_44)\ntag_45:\n  0x1f\n  add\n  0x20\n  swap1\n  div\n  swap1\n  0x00\n  mstore\n  keccak256(0x00, 0x20)\n  swap1\n  dup2\n  add\n  swap1\n  tag_46\n  swap2\n  swap1\n  tag_15\n  jump\t// in\ntag_46:\ntag_44:\n  pop\n  jump\t// out\n    /* \"#utility.yul\":7:327   */\ntag_8:\n    /* \"#utility.yul\":51:57   */\n  0x00\n    /* \"#utility.yul\":88:89   */\n  0x02\n    /* \"#utility.yul\":82:86   */\n  dup3\n    /* \"#utility.yul\":78:90   */\n  div\n    /* \"#utility.yul\":68:90   */\n  swap1\n  pop\n    /* \"#utility.yul\":135:136   */\n  0x01\n    /* \"#utility.yul\":129:133   */\n  dup3\n    /* \"#utility.yul\":125:137   */\n  and\n    /* \"#utility.yul\":156:174   */\n  dup1\n    /* \"#utility.yul\":146:227   */\n  tag_49\n  jumpi\n    /* \"#utility.yul\":212:216   */\n  0x7f\n    /* \"#utility.yul\":204:210   */\n  dup3\n    /* \"#utility.yul\":200:217   */\n  and\n    /* \"#utility.yul\":190:217   */\n  swap2\n  pop\n    /* \"#utility.yul\":146:227   */\ntag_49:\n    /* \"#utility.yul\":274:276   */\n  0x20\n    /* \"#utility.yul\":266:272   */\n  dup3\n    /* \"#utility.yul\":263:277   */\n  lt\n    /* \"#utility.yul\":243:261   */\n  dup2\n    /* \"#utility.yul\":240:278   */\n  eq\n    /* \"#utility.yul\":237:321   */\n  iszero\n  tag_50\n  jumpi\n    /* \"#utility.yul\":293:311   */\n  tag_51\n  tag_52\n  jump\t// in\ntag_51:\n    /* \"#utility.yul\":237:321   */\ntag_50:\n    /* \"#utility.yul\":58:327   */\n  pop\n    /* \"#utility.yul\":7:327   */\n  swap2\n  swap1\n  pop\n  jump\t// out\n    /* \"#utility.yul\":333:513   */\ntag_52:\n    /* \"#utility.yul\":381:458   */\n  0x4e487b7100000000000000000000000000000000000000000000000000000000\n    /* \"#utility.yul\":378:379   */\n  0x00\n    /* \"#utility.yul\":371:459   */\n  mstore\n    /* \"#utility.yul\":478:482   */\n  0x22\n    /* \"#utility.yul\":475:476   */\n  0x04\n    /* \"#utility.yul\":468:483   */\n  mstore\n    /* \"#utility.yul\":502:506   */\n  0x24\n    /* \"#utility.yul\":499:500   */\n  0x00\n    /* \"#utility.yul\":492:507   */\n  revert\n    /* \"contracts/Lesson4Types.sol\":58:1096  contract Array4Lesson {... */\ntag_10:\n  dataSize(sub_0)\n  dup1\n  dataOffset(sub_0)\n  0x00\n  codecopy\n  0x00\n  return\nstop\n\nsub_0: assembly {\n        /* \"contracts/Lesson4Types.sol\":58:1096  contract Array4Lesson {... */\n      mstore(0x40, 0x80)\n      callvalue\n      dup1\n      iszero\n      tag_1\n      jumpi\n      0x00\n      dup1\n      revert\n    tag_1:\n      pop\n      jumpi(tag_2, lt(calldatasize, 0x04))\n      shr(0xe0, calldataload(0x00))\n      dup1\n      0xbfb231d2\n      gt\n      tag_14\n      jumpi\n      dup1\n      0xbfb231d2\n      eq\n      tag_8\n      jumpi\n      dup1\n      0xc602a86a\n      eq\n      tag_9\n      jumpi\n      dup1\n      0xce8a7af6\n      eq\n      tag_10\n      jumpi\n      dup1\n      0xd9a38d64\n      eq\n      tag_11\n      jumpi\n      dup1\n      0xe334d9d9\n      eq\n      tag_12\n      jumpi\n      dup1\n      0xe3440466\n      eq\n      tag_13\n      jumpi\n      jump(tag_2)\n    tag_14:\n      dup1\n      0x304acd68\n      eq\n      tag_3\n      jumpi\n      dup1\n      0x500d850f\n      eq\n      tag_4\n      jumpi\n      dup1\n      0x5a79b850\n      eq\n      tag_5\n      jumpi\n      dup1\n      0x80c9419e\n      eq\n      tag_6\n      jumpi\n      dup1\n      0xa34343c9\n      eq\n      tag_7\n      jumpi\n    tag_2:\n      0x00\n      dup1\n      revert\n        /* \"contracts/Lesson4Types.sol\":521:746  function modifyArray() public {... */\n    tag_3:\n      tag_15\n      tag_16\n      jump\t// in\n    tag_15:\n      stop\n        /* \"contracts/Lesson4Types.sol\":254:282  uint public dynArrLength = 0 */\n    tag_4:\n      tag_17\n      tag_18\n      jump\t// in\n    tag_17:\n      mload(0x40)\n      tag_19\n      swap2\n      swap1\n      tag_20\n      jump\t// in\n    tag_19:\n      mload(0x40)\n      dup1\n      swap2\n      sub\n      swap1\n      return\n        /* \"contracts/Lesson4Types.sol\":228:248  uint[] public dynArr */\n    tag_5:\n      tag_21\n      0x04\n      dup1\n      calldatasize\n      sub\n      dup2\n      add\n      swap1\n      tag_22\n      swap2\n      swap1\n      tag_23\n      jump\t// in\n    tag_22:\n      tag_24\n      jump\t// in\n    tag_21:\n      mload(0x40)\n      tag_25\n      swap2\n      swap1\n      tag_20\n      jump\t// in\n    tag_25:\n      mload(0x40)\n      dup1\n      swap2\n      sub\n      swap1\n      return\n        /* \"contracts/Lesson4Types.sol\":132:163  string[2] public list = ['str'] */\n    tag_6:\n      tag_26\n      0x04\n      dup1\n      calldatasize\n      sub\n      dup2\n      add\n      swap1\n      tag_27\n      swap2\n      swap1\n      tag_23\n      jump\t// in\n    tag_27:\n      tag_28\n      jump\t// in\n    tag_26:\n      mload(0x40)\n      tag_29\n      swap2\n      swap1\n      tag_30\n      jump\t// in\n    tag_29:\n      mload(0x40)\n      dup1\n      swap2\n      sub\n      swap1\n      return\n        /* \"contracts/Lesson4Types.sol\":752:912  function sampleMemory() public view returns(uint[] memory){... */\n    tag_7:\n      tag_31\n      tag_32\n      jump\t// in\n    tag_31:\n      mload(0x40)\n      tag_33\n      swap2\n      swap1\n      tag_34\n      jump\t// in\n    tag_33:\n      mload(0x40)\n      dup1\n      swap2\n      sub\n      swap1\n      return\n        /* \"contracts/Lesson4Types.sol\":91:126  uint[10] public items = [10, 20, 1] */\n    tag_8:\n      tag_35\n      0x04\n      dup1\n      calldatasize\n      sub\n      dup2\n      add\n      swap1\n      tag_36\n      swap2\n      swap1\n      tag_23\n      jump\t// in\n    tag_36:\n      tag_37\n      jump\t// in\n    tag_35:\n      mload(0x40)\n      tag_38\n      swap2\n      swap1\n      tag_20\n      jump\t// in\n    tag_38:\n      mload(0x40)\n      dup1\n      swap2\n      sub\n      swap1\n      return\n        /* \"contracts/Lesson4Types.sol\":477:514  uint public hobLength = hobait.length */\n    tag_9:\n      tag_39\n      tag_40\n      jump\t// in\n    tag_39:\n      mload(0x40)\n      tag_41\n      swap2\n      swap1\n      tag_20\n      jump\t// in\n    tag_41:\n      mload(0x40)\n      dup1\n      swap2\n      sub\n      swap1\n      return\n        /* \"contracts/Lesson4Types.sol\":368:397  bytes public hobait = \"Bilbo\" */\n    tag_10:\n      tag_42\n      tag_43\n      jump\t// in\n    tag_42:\n      mload(0x40)\n      tag_44\n      swap2\n      swap1\n      tag_45\n      jump\t// in\n    tag_44:\n      mload(0x40)\n      dup1\n      swap2\n      sub\n      swap1\n      return\n        /* \"contracts/Lesson4Types.sol\":170:194  uint[2][5] public matrix */\n    tag_11:\n      tag_46\n      0x04\n      dup1\n      calldatasize\n      sub\n      dup2\n      add\n      swap1\n      tag_47\n      swap2\n      swap1\n      tag_48\n      jump\t// in\n    tag_47:\n      tag_49\n      jump\t// in\n    tag_46:\n      mload(0x40)\n      tag_50\n      swap2\n      swap1\n      tag_20\n      jump\t// in\n    tag_50:\n      mload(0x40)\n      dup1\n      swap2\n      sub\n      swap1\n      return\n        /* \"contracts/Lesson4Types.sol\":290:320  bytes32 public hobit = \"Bilbo\" */\n    tag_12:\n      tag_51\n      tag_52\n      jump\t// in\n    tag_51:\n      mload(0x40)\n      tag_53\n      swap2\n      swap1\n      tag_54\n      jump\t// in\n    tag_53:\n      mload(0x40)\n      dup1\n      swap2\n      sub\n      swap1\n      return\n        /* \"contracts/Lesson4Types.sol\":918:1094  function modDynamicArr(uint num) public {... */\n    tag_13:\n      tag_55\n      0x04\n      dup1\n      calldatasize\n      sub\n      dup2\n      add\n      swap1\n      tag_56\n      swap2\n      swap1\n      tag_23\n      jump\t// in\n    tag_56:\n      tag_57\n      jump\t// in\n    tag_55:\n      stop\n        /* \"contracts/Lesson4Types.sol\":521:746  function modifyArray() public {... */\n    tag_16:\n        /* \"contracts/Lesson4Types.sol\":583:584  5 */\n      0x05\n        /* \"contracts/Lesson4Types.sol\":572:577  items */\n      0x00\n        /* \"contracts/Lesson4Types.sol\":578:579  0 */\n      dup1\n        /* \"contracts/Lesson4Types.sol\":572:580  items[0] */\n      0x0a\n      dup2\n      lt\n      tag_59\n      jumpi\n      tag_60\n      tag_61\n      jump\t// in\n    tag_60:\n    tag_59:\n      add\n      sload\n        /* \"contracts/Lesson4Types.sol\":572:584  items[0] * 5 */\n      tag_63\n      swap2\n      swap1\n      tag_64\n      jump\t// in\n    tag_63:\n        /* \"contracts/Lesson4Types.sol\":561:566  items */\n      0x00\n        /* \"contracts/Lesson4Types.sol\":567:568  0 */\n      dup1\n        /* \"contracts/Lesson4Types.sol\":561:569  items[0] */\n      0x0a\n      dup2\n      lt\n      tag_65\n      jumpi\n      tag_66\n      tag_61\n      jump\t// in\n    tag_66:\n    tag_65:\n      add\n        /* \"contracts/Lesson4Types.sol\":561:584  items[0] = items[0] * 5 */\n      dup2\n      swap1\n      sstore\n      pop\n        /* \"contracts/Lesson4Types.sol\":605:610  items */\n      0x00\n        /* \"contracts/Lesson4Types.sol\":611:612  0 */\n      dup1\n        /* \"contracts/Lesson4Types.sol\":605:613  items[0] */\n      0x0a\n      dup2\n      lt\n      tag_68\n      jumpi\n      tag_69\n      tag_61\n      jump\t// in\n    tag_69:\n    tag_68:\n      add\n      sload\n        /* \"contracts/Lesson4Types.sol\":594:599  items */\n      0x00\n        /* \"contracts/Lesson4Types.sol\":600:601  5 */\n      0x05\n        /* \"contracts/Lesson4Types.sol\":594:602  items[5] */\n      0x0a\n      dup2\n      lt\n      tag_71\n      jumpi\n      tag_72\n      tag_61\n      jump\t// in\n    tag_72:\n    tag_71:\n      add\n        /* \"contracts/Lesson4Types.sol\":594:613  items[5] = items[0] */\n      dup2\n      swap1\n      sstore\n      pop\n        /* \"contracts/Lesson4Types.sol\":625:739  matrix = [... */\n      mload(0x40)\n      dup1\n      0xa0\n      add\n      0x40\n      mstore\n      dup1\n      mload(0x40)\n      dup1\n      0x40\n      add\n      0x40\n      mstore\n      dup1\n        /* \"contracts/Lesson4Types.sol\":649:650  1 */\n      0x01\n        /* \"contracts/Lesson4Types.sol\":625:739  matrix = [... */\n      0xff\n      and\n      dup2\n      mstore\n      0x20\n      add\n        /* \"contracts/Lesson4Types.sol\":651:652  2 */\n      0x02\n        /* \"contracts/Lesson4Types.sol\":625:739  matrix = [... */\n      0xff\n      and\n      dup2\n      mstore\n      pop\n      dup2\n      mstore\n      0x20\n      add\n      mload(0x40)\n      dup1\n      0x40\n      add\n      0x40\n      mstore\n      dup1\n        /* \"contracts/Lesson4Types.sol\":668:669  1 */\n      0x01\n        /* \"contracts/Lesson4Types.sol\":625:739  matrix = [... */\n      0xff\n      and\n      dup2\n      mstore\n      0x20\n      add\n        /* \"contracts/Lesson4Types.sol\":670:671  2 */\n      0x02\n        /* \"contracts/Lesson4Types.sol\":625:739  matrix = [... */\n      0xff\n      and\n      dup2\n      mstore\n      pop\n      dup2\n      mstore\n      0x20\n      add\n      mload(0x40)\n      dup1\n      0x40\n      add\n      0x40\n      mstore\n      dup1\n        /* \"contracts/Lesson4Types.sol\":687:688  1 */\n      0x01\n        /* \"contracts/Lesson4Types.sol\":625:739  matrix = [... */\n      0xff\n      and\n      dup2\n      mstore\n      0x20\n      add\n        /* \"contracts/Lesson4Types.sol\":689:690  2 */\n      0x02\n        /* \"contracts/Lesson4Types.sol\":625:739  matrix = [... */\n      0xff\n      and\n      dup2\n      mstore\n      pop\n      dup2\n      mstore\n      0x20\n      add\n      mload(0x40)\n      dup1\n      0x40\n      add\n      0x40\n      mstore\n      dup1\n        /* \"contracts/Lesson4Types.sol\":706:707  1 */\n      0x01\n        /* \"contracts/Lesson4Types.sol\":625:739  matrix = [... */\n      0xff\n      and\n      dup2\n      mstore\n      0x20\n      add\n        /* \"contracts/Lesson4Types.sol\":708:709  2 */\n      0x02\n        /* \"contracts/Lesson4Types.sol\":625:739  matrix = [... */\n      0xff\n      and\n      dup2\n      mstore\n      pop\n      dup2\n      mstore\n      0x20\n      add\n      mload(0x40)\n      dup1\n      0x40\n      add\n      0x40\n      mstore\n      dup1\n        /* \"contracts/Lesson4Types.sol\":725:726  1 */\n      0x01\n        /* \"contracts/Lesson4Types.sol\":625:739  matrix = [... */\n      0xff\n      and\n      dup2\n      mstore\n      0x20\n      add\n        /* \"contracts/Lesson4Types.sol\":727:728  2 */\n      0x02\n        /* \"contracts/Lesson4Types.sol\":625:739  matrix = [... */\n      0xff\n      and\n      dup2\n      mstore\n      pop\n      dup2\n      mstore\n      pop\n        /* \"contracts/Lesson4Types.sol\":625:631  matrix */\n      0x0c\n        /* \"contracts/Lesson4Types.sol\":625:739  matrix = [... */\n      swap1\n      0x05\n      tag_74\n      swap3\n      swap2\n      swap1\n      tag_75\n      jump\t// in\n    tag_74:\n      pop\n        /* \"contracts/Lesson4Types.sol\":521:746  function modifyArray() public {... */\n      jump\t// out\n        /* \"contracts/Lesson4Types.sol\":254:282  uint public dynArrLength = 0 */\n    tag_18:\n      sload(0x17)\n      dup2\n      jump\t// out\n        /* \"contracts/Lesson4Types.sol\":228:248  uint[] public dynArr */\n    tag_24:\n      0x16\n      dup2\n      dup2\n      sload\n      dup2\n      lt\n      tag_76\n      jumpi\n      0x00\n      dup1\n      revert\n    tag_76:\n      swap1\n      0x00\n      mstore\n      keccak256(0x00, 0x20)\n      add\n      0x00\n      swap2\n      pop\n      swap1\n      pop\n      sload\n      dup2\n      jump\t// out\n        /* \"contracts/Lesson4Types.sol\":132:163  string[2] public list = ['str'] */\n    tag_28:\n      0x0a\n      dup2\n      0x02\n      dup2\n      lt\n      tag_78\n      jumpi\n      0x00\n      dup1\n      revert\n    tag_78:\n      add\n      0x00\n      swap2\n      pop\n      swap1\n      pop\n      dup1\n      sload\n      tag_80\n      swap1\n      tag_81\n      jump\t// in\n    tag_80:\n      dup1\n      0x1f\n      add\n      0x20\n      dup1\n      swap2\n      div\n      mul\n      0x20\n      add\n      mload(0x40)\n      swap1\n      dup2\n      add\n      0x40\n      mstore\n      dup1\n      swap3\n      swap2\n      swap1\n      dup2\n      dup2\n      mstore\n      0x20\n      add\n      dup3\n      dup1\n      sload\n      tag_82\n      swap1\n      tag_81\n      jump\t// in\n    tag_82:\n      dup1\n      iszero\n      tag_83\n      jumpi\n      dup1\n      0x1f\n      lt\n      tag_84\n      jumpi\n      0x0100\n      dup1\n      dup4\n      sload\n      div\n      mul\n      dup4\n      mstore\n      swap2\n      0x20\n      add\n      swap2\n      jump(tag_83)\n    tag_84:\n      dup3\n      add\n      swap2\n      swap1\n      0x00\n      mstore\n      keccak256(0x00, 0x20)\n      swap1\n    tag_85:\n      dup2\n      sload\n      dup2\n      mstore\n      swap1\n      0x01\n      add\n      swap1\n      0x20\n      add\n      dup1\n      dup4\n      gt\n      tag_85\n      jumpi\n      dup3\n      swap1\n      sub\n      0x1f\n      and\n      dup3\n      add\n      swap2\n    tag_83:\n      pop\n      pop\n      pop\n      pop\n      pop\n      dup2\n      jump\t// out\n        /* \"contracts/Lesson4Types.sol\":752:912  function sampleMemory() public view returns(uint[] memory){... */\n    tag_32:\n        /* \"contracts/Lesson4Types.sol\":796:809  uint[] memory */\n      0x60\n        /* \"contracts/Lesson4Types.sol\":820:841  uint[] memory tempArr */\n      0x00\n        /* \"contracts/Lesson4Types.sol\":855:856  5 */\n      0x05\n        /* \"contracts/Lesson4Types.sol\":844:857  new uint[](5) */\n      0xffffffffffffffff\n      dup2\n      gt\n      iszero\n      tag_87\n      jumpi\n      tag_88\n      tag_89\n      jump\t// in\n    tag_88:\n    tag_87:\n      mload(0x40)\n      swap1\n      dup1\n      dup3\n      mstore\n      dup1\n      0x20\n      mul\n      0x20\n      add\n      dup3\n      add\n      0x40\n      mstore\n      dup1\n      iszero\n      tag_90\n      jumpi\n      dup2\n      0x20\n      add\n      0x20\n      dup3\n      mul\n      dup1\n      calldatasize\n      dup4\n      calldatacopy\n      dup1\n      dup3\n      add\n      swap2\n      pop\n      pop\n      swap1\n      pop\n    tag_90:\n      pop\n        /* \"contracts/Lesson4Types.sol\":820:857  uint[] memory tempArr = new uint[](5) */\n      swap1\n      pop\n        /* \"contracts/Lesson4Types.sol\":880:881  0 */\n      0x00\n        /* \"contracts/Lesson4Types.sol\":867:874  tempArr */\n      dup2\n        /* \"contracts/Lesson4Types.sol\":875:876  4 */\n      0x04\n        /* \"contracts/Lesson4Types.sol\":867:877  tempArr[4] */\n      dup2\n      mload\n      dup2\n      lt\n      tag_91\n      jumpi\n      tag_92\n      tag_61\n      jump\t// in\n    tag_92:\n    tag_91:\n      0x20\n      mul\n      0x20\n      add\n      add\n        /* \"contracts/Lesson4Types.sol\":867:881  tempArr[4] = 0 */\n      dup2\n      dup2\n      mstore\n      pop\n      pop\n        /* \"contracts/Lesson4Types.sol\":898:905  tempArr */\n      dup1\n        /* \"contracts/Lesson4Types.sol\":891:905  return tempArr */\n      swap2\n      pop\n      pop\n        /* \"contracts/Lesson4Types.sol\":752:912  function sampleMemory() public view returns(uint[] memory){... */\n      swap1\n      jump\t// out\n        /* \"contracts/Lesson4Types.sol\":91:126  uint[10] public items = [10, 20, 1] */\n    tag_37:\n      0x00\n      dup2\n      0x0a\n      dup2\n      lt\n      tag_93\n      jumpi\n      0x00\n      dup1\n      revert\n    tag_93:\n      add\n      0x00\n      swap2\n      pop\n      swap1\n      pop\n      sload\n      dup2\n      jump\t// out\n        /* \"contracts/Lesson4Types.sol\":477:514  uint public hobLength = hobait.length */\n    tag_40:\n      sload(0x1a)\n      dup2\n      jump\t// out\n        /* \"contracts/Lesson4Types.sol\":368:397  bytes public hobait = \"Bilbo\" */\n    tag_43:\n      0x19\n      dup1\n      sload\n      tag_95\n      swap1\n      tag_81\n      jump\t// in\n    tag_95:\n      dup1\n      0x1f\n      add\n      0x20\n      dup1\n      swap2\n      div\n      mul\n      0x20\n      add\n      mload(0x40)\n      swap1\n      dup2\n      add\n      0x40\n      mstore\n      dup1\n      swap3\n      swap2\n      swap1\n      dup2\n      dup2\n      mstore\n      0x20\n      add\n      dup3\n      dup1\n      sload\n      tag_96\n      swap1\n      tag_81\n      jump\t// in\n    tag_96:\n      dup1\n      iszero\n      tag_97\n      jumpi\n      dup1\n      0x1f\n      lt\n      tag_98\n      jumpi\n      0x0100\n      dup1\n      dup4\n      sload\n      div\n      mul\n      dup4\n      mstore\n      swap2\n      0x20\n      add\n      swap2\n      jump(tag_97)\n    tag_98:\n      dup3\n      add\n      swap2\n      swap1\n      0x00\n      mstore\n      keccak256(0x00, 0x20)\n      swap1\n    tag_99:\n      dup2\n      sload\n      dup2\n      mstore\n      swap1\n      0x01\n      add\n      swap1\n      0x20\n      add\n      dup1\n      dup4\n      gt\n      tag_99\n      jumpi\n      dup3\n      swap1\n      sub\n      0x1f\n      and\n      dup3\n      add\n      swap2\n    tag_97:\n      pop\n      pop\n      pop\n      pop\n      pop\n      dup2\n      jump\t// out\n        /* \"contracts/Lesson4Types.sol\":170:194  uint[2][5] public matrix */\n    tag_49:\n      0x0c\n      dup3\n      0x05\n      dup2\n      lt\n      tag_100\n      jumpi\n      0x00\n      dup1\n      revert\n    tag_100:\n      0x02\n      mul\n      add\n      dup2\n      0x02\n      dup2\n      lt\n      tag_102\n      jumpi\n      0x00\n      dup1\n      revert\n    tag_102:\n      add\n      0x00\n      swap2\n      pop\n      swap2\n      pop\n      pop\n      sload\n      dup2\n      jump\t// out\n        /* \"contracts/Lesson4Types.sol\":290:320  bytes32 public hobit = \"Bilbo\" */\n    tag_52:\n      sload(0x18)\n      dup2\n      jump\t// out\n        /* \"contracts/Lesson4Types.sol\":918:1094  function modDynamicArr(uint num) public {... */\n    tag_57:\n        /* \"contracts/Lesson4Types.sol\":968:974  dynArr */\n      0x16\n        /* \"contracts/Lesson4Types.sol\":980:983  num */\n      dup2\n        /* \"contracts/Lesson4Types.sol\":968:984  dynArr.push(num) */\n      swap1\n      dup1\n      0x01\n      dup2\n      sload\n      add\n      dup1\n      dup3\n      sstore\n      dup1\n      swap2\n      pop\n      pop\n      0x01\n      swap1\n      sub\n      swap1\n      0x00\n      mstore\n      keccak256(0x00, 0x20)\n      add\n      0x00\n      swap1\n      swap2\n      swap1\n      swap2\n      swap1\n      swap2\n      pop\n      sstore\n        /* \"contracts/Lesson4Types.sol\":1074:1080  dynArr */\n      0x16\n        /* \"contracts/Lesson4Types.sol\":1074:1087  dynArr.length */\n      dup1\n      sload\n      swap1\n      pop\n        /* \"contracts/Lesson4Types.sol\":1059:1071  dynArrLength */\n      0x17\n        /* \"contracts/Lesson4Types.sol\":1059:1087  dynArrLength = dynArr.length */\n      dup2\n      swap1\n      sstore\n      pop\n        /* \"contracts/Lesson4Types.sol\":918:1094  function modDynamicArr(uint num) public {... */\n      pop\n      jump\t// out\n    tag_75:\n      dup3\n      mul(0x02, 0x05)\n      dup2\n      add\n      swap3\n      dup3\n      iszero\n      tag_106\n      jumpi\n      swap2\n      0x20\n      mul\n      dup3\n      add\n    tag_107:\n      dup3\n      dup2\n      gt\n      iszero\n      tag_108\n      jumpi\n      dup3\n      mload\n      dup3\n      swap1\n      0x02\n      tag_109\n      swap3\n      swap2\n      swap1\n      tag_110\n      jump\t// in\n    tag_109:\n      pop\n      swap2\n      0x20\n      add\n      swap2\n      swap1\n      0x02\n      add\n      swap1\n      jump(tag_107)\n    tag_108:\n    tag_106:\n      pop\n      swap1\n      pop\n      tag_111\n      swap2\n      swap1\n      tag_112\n      jump\t// in\n    tag_111:\n      pop\n      swap1\n      jump\t// out\n    tag_110:\n      dup3\n      0x02\n      dup2\n      add\n      swap3\n      dup3\n      iszero\n      tag_113\n      jumpi\n      swap2\n      0x20\n      mul\n      dup3\n      add\n    tag_114:\n      dup3\n      dup2\n      gt\n      iszero\n      tag_115\n      jumpi\n      dup3\n      mload\n      dup3\n      swap1\n      0xff\n      and\n      swap1\n      sstore\n      swap2\n      0x20\n      add\n      swap2\n      swap1\n      0x01\n      add\n      swap1\n      jump(tag_114)\n    tag_115:\n    tag_113:\n      pop\n      swap1\n      pop\n      tag_116\n      swap2\n      swap1\n      tag_117\n      jump\t// in\n    tag_116:\n      pop\n      swap1\n      jump\t// out\n    tag_112:\n    tag_118:\n      dup1\n      dup3\n      gt\n      iszero\n      tag_119\n      jumpi\n      0x00\n      dup2\n      dup2\n      tag_120\n      swap2\n      swap1\n      tag_121\n      jump\t// in\n    tag_120:\n      pop\n      0x02\n      add\n      jump(tag_118)\n    tag_119:\n      pop\n      swap1\n      jump\t// out\n    tag_117:\n    tag_122:\n      dup1\n      dup3\n      gt\n      iszero\n      tag_123\n      jumpi\n      0x00\n      dup2\n      0x00\n      swap1\n      sstore\n      pop\n      0x01\n      add\n      jump(tag_122)\n    tag_123:\n      pop\n      swap1\n      jump\t// out\n    tag_121:\n      pop\n      0x00\n      dup2\n      sstore\n      0x01\n      add\n      0x00\n      swap1\n      sstore\n      jump\t// out\n        /* \"#utility.yul\":7:146   */\n    tag_125:\n        /* \"#utility.yul\":53:58   */\n      0x00\n        /* \"#utility.yul\":91:97   */\n      dup2\n        /* \"#utility.yul\":78:98   */\n      calldataload\n        /* \"#utility.yul\":69:98   */\n      swap1\n      pop\n        /* \"#utility.yul\":107:140   */\n      tag_127\n        /* \"#utility.yul\":134:139   */\n      dup2\n        /* \"#utility.yul\":107:140   */\n      tag_128\n      jump\t// in\n    tag_127:\n        /* \"#utility.yul\":7:146   */\n      swap3\n      swap2\n      pop\n      pop\n      jump\t// out\n        /* \"#utility.yul\":152:481   */\n    tag_23:\n        /* \"#utility.yul\":211:217   */\n      0x00\n        /* \"#utility.yul\":260:262   */\n      0x20\n        /* \"#utility.yul\":248:257   */\n      dup3\n        /* \"#utility.yul\":239:246   */\n      dup5\n        /* \"#utility.yul\":235:258   */\n      sub\n        /* \"#utility.yul\":231:263   */\n      slt\n        /* \"#utility.yul\":228:347   */\n      iszero\n      tag_130\n      jumpi\n        /* \"#utility.yul\":266:345   */\n      tag_131\n      tag_132\n      jump\t// in\n    tag_131:\n        /* \"#utility.yul\":228:347   */\n    tag_130:\n        /* \"#utility.yul\":386:387   */\n      0x00\n        /* \"#utility.yul\":411:464   */\n      tag_133\n        /* \"#utility.yul\":456:463   */\n      dup5\n        /* \"#utility.yul\":447:453   */\n      dup3\n        /* \"#utility.yul\":436:445   */\n      dup6\n        /* \"#utility.yul\":432:454   */\n      add\n        /* \"#utility.yul\":411:464   */\n      tag_125\n      jump\t// in\n    tag_133:\n        /* \"#utility.yul\":401:464   */\n      swap2\n      pop\n        /* \"#utility.yul\":357:474   */\n      pop\n        /* \"#utility.yul\":152:481   */\n      swap3\n      swap2\n      pop\n      pop\n      jump\t// out\n        /* \"#utility.yul\":487:961   */\n    tag_48:\n        /* \"#utility.yul\":555:561   */\n      0x00\n        /* \"#utility.yul\":563:569   */\n      dup1\n        /* \"#utility.yul\":612:614   */\n      0x40\n        /* \"#utility.yul\":600:609   */\n      dup4\n        /* \"#utility.yul\":591:598   */\n      dup6\n        /* \"#utility.yul\":587:610   */\n      sub\n        /* \"#utility.yul\":583:615   */\n      slt\n        /* \"#utility.yul\":580:699   */\n      iszero\n      tag_135\n      jumpi\n        /* \"#utility.yul\":618:697   */\n      tag_136\n      tag_132\n      jump\t// in\n    tag_136:\n        /* \"#utility.yul\":580:699   */\n    tag_135:\n        /* \"#utility.yul\":738:739   */\n      0x00\n        /* \"#utility.yul\":763:816   */\n      tag_137\n        /* \"#utility.yul\":808:815   */\n      dup6\n        /* \"#utility.yul\":799:805   */\n      dup3\n        /* \"#utility.yul\":788:797   */\n      dup7\n        /* \"#utility.yul\":784:806   */\n      add\n        /* \"#utility.yul\":763:816   */\n      tag_125\n      jump\t// in\n    tag_137:\n        /* \"#utility.yul\":753:816   */\n      swap3\n      pop\n        /* \"#utility.yul\":709:826   */\n      pop\n        /* \"#utility.yul\":865:867   */\n      0x20\n        /* \"#utility.yul\":891:944   */\n      tag_138\n        /* \"#utility.yul\":936:943   */\n      dup6\n        /* \"#utility.yul\":927:933   */\n      dup3\n        /* \"#utility.yul\":916:925   */\n      dup7\n        /* \"#utility.yul\":912:934   */\n      add\n        /* \"#utility.yul\":891:944   */\n      tag_125\n      jump\t// in\n    tag_138:\n        /* \"#utility.yul\":881:944   */\n      swap2\n      pop\n        /* \"#utility.yul\":836:954   */\n      pop\n        /* \"#utility.yul\":487:961   */\n      swap3\n      pop\n      swap3\n      swap1\n      pop\n      jump\t// out\n        /* \"#utility.yul\":967:1146   */\n    tag_139:\n        /* \"#utility.yul\":1036:1046   */\n      0x00\n        /* \"#utility.yul\":1057:1103   */\n      tag_141\n        /* \"#utility.yul\":1099:1102   */\n      dup4\n        /* \"#utility.yul\":1091:1097   */\n      dup4\n        /* \"#utility.yul\":1057:1103   */\n      tag_142\n      jump\t// in\n    tag_141:\n        /* \"#utility.yul\":1135:1139   */\n      0x20\n        /* \"#utility.yul\":1130:1133   */\n      dup4\n        /* \"#utility.yul\":1126:1140   */\n      add\n        /* \"#utility.yul\":1112:1140   */\n      swap1\n      pop\n        /* \"#utility.yul\":967:1146   */\n      swap3\n      swap2\n      pop\n      pop\n      jump\t// out\n        /* \"#utility.yul\":1182:1914   */\n    tag_143:\n        /* \"#utility.yul\":1301:1304   */\n      0x00\n        /* \"#utility.yul\":1330:1384   */\n      tag_145\n        /* \"#utility.yul\":1378:1383   */\n      dup3\n        /* \"#utility.yul\":1330:1384   */\n      tag_146\n      jump\t// in\n    tag_145:\n        /* \"#utility.yul\":1400:1486   */\n      tag_147\n        /* \"#utility.yul\":1479:1485   */\n      dup2\n        /* \"#utility.yul\":1474:1477   */\n      dup6\n        /* \"#utility.yul\":1400:1486   */\n      tag_148\n      jump\t// in\n    tag_147:\n        /* \"#utility.yul\":1393:1486   */\n      swap4\n      pop\n        /* \"#utility.yul\":1510:1566   */\n      tag_149\n        /* \"#utility.yul\":1560:1565   */\n      dup4\n        /* \"#utility.yul\":1510:1566   */\n      tag_150\n      jump\t// in\n    tag_149:\n        /* \"#utility.yul\":1589:1596   */\n      dup1\n        /* \"#utility.yul\":1620:1621   */\n      0x00\n        /* \"#utility.yul\":1605:1889   */\n    tag_151:\n        /* \"#utility.yul\":1630:1636   */\n      dup4\n        /* \"#utility.yul\":1627:1628   */\n      dup2\n        /* \"#utility.yul\":1624:1637   */\n      lt\n        /* \"#utility.yul\":1605:1889   */\n      iszero\n      tag_153\n      jumpi\n        /* \"#utility.yul\":1706:1712   */\n      dup2\n        /* \"#utility.yul\":1700:1713   */\n      mload\n        /* \"#utility.yul\":1733:1796   */\n      tag_154\n        /* \"#utility.yul\":1792:1795   */\n      dup9\n        /* \"#utility.yul\":1777:1790   */\n      dup3\n        /* \"#utility.yul\":1733:1796   */\n      tag_139\n      jump\t// in\n    tag_154:\n        /* \"#utility.yul\":1726:1796   */\n      swap8\n      pop\n        /* \"#utility.yul\":1819:1879   */\n      tag_155\n        /* \"#utility.yul\":1872:1878   */\n      dup4\n        /* \"#utility.yul\":1819:1879   */\n      tag_156\n      jump\t// in\n    tag_155:\n        /* \"#utility.yul\":1809:1879   */\n      swap3\n      pop\n        /* \"#utility.yul\":1665:1889   */\n      pop\n        /* \"#utility.yul\":1652:1653   */\n      0x01\n        /* \"#utility.yul\":1649:1650   */\n      dup2\n        /* \"#utility.yul\":1645:1654   */\n      add\n        /* \"#utility.yul\":1640:1654   */\n      swap1\n      pop\n        /* \"#utility.yul\":1605:1889   */\n      jump(tag_151)\n    tag_153:\n        /* \"#utility.yul\":1609:1623   */\n      pop\n        /* \"#utility.yul\":1905:1908   */\n      dup6\n        /* \"#utility.yul\":1898:1908   */\n      swap4\n      pop\n        /* \"#utility.yul\":1306:1914   */\n      pop\n      pop\n      pop\n        /* \"#utility.yul\":1182:1914   */\n      swap3\n      swap2\n      pop\n      pop\n      jump\t// out\n        /* \"#utility.yul\":1920:2038   */\n    tag_157:\n        /* \"#utility.yul\":2007:2031   */\n      tag_159\n        /* \"#utility.yul\":2025:2030   */\n      dup2\n        /* \"#utility.yul\":2007:2031   */\n      tag_160\n      jump\t// in\n    tag_159:\n        /* \"#utility.yul\":2002:2005   */\n      dup3\n        /* \"#utility.yul\":1995:2032   */\n      mstore\n        /* \"#utility.yul\":1920:2038   */\n      pop\n      pop\n      jump\t// out\n        /* \"#utility.yul\":2044:2404   */\n    tag_161:\n        /* \"#utility.yul\":2130:2133   */\n      0x00\n        /* \"#utility.yul\":2158:2196   */\n      tag_163\n        /* \"#utility.yul\":2190:2195   */\n      dup3\n        /* \"#utility.yul\":2158:2196   */\n      tag_164\n      jump\t// in\n    tag_163:\n        /* \"#utility.yul\":2212:2282   */\n      tag_165\n        /* \"#utility.yul\":2275:2281   */\n      dup2\n        /* \"#utility.yul\":2270:2273   */\n      dup6\n        /* \"#utility.yul\":2212:2282   */\n      tag_166\n      jump\t// in\n    tag_165:\n        /* \"#utility.yul\":2205:2282   */\n      swap4\n      pop\n        /* \"#utility.yul\":2291:2343   */\n      tag_167\n        /* \"#utility.yul\":2336:2342   */\n      dup2\n        /* \"#utility.yul\":2331:2334   */\n      dup6\n        /* \"#utility.yul\":2324:2328   */\n      0x20\n        /* \"#utility.yul\":2317:2322   */\n      dup7\n        /* \"#utility.yul\":2313:2329   */\n      add\n        /* \"#utility.yul\":2291:2343   */\n      tag_168\n      jump\t// in\n    tag_167:\n        /* \"#utility.yul\":2368:2397   */\n      tag_169\n        /* \"#utility.yul\":2390:2396   */\n      dup2\n        /* \"#utility.yul\":2368:2397   */\n      tag_170\n      jump\t// in\n    tag_169:\n        /* \"#utility.yul\":2363:2366   */\n      dup5\n        /* \"#utility.yul\":2359:2398   */\n      add\n        /* \"#utility.yul\":2352:2398   */\n      swap2\n      pop\n        /* \"#utility.yul\":2134:2404   */\n      pop\n        /* \"#utility.yul\":2044:2404   */\n      swap3\n      swap2\n      pop\n      pop\n      jump\t// out\n        /* \"#utility.yul\":2410:2774   */\n    tag_171:\n        /* \"#utility.yul\":2498:2501   */\n      0x00\n        /* \"#utility.yul\":2526:2565   */\n      tag_173\n        /* \"#utility.yul\":2559:2564   */\n      dup3\n        /* \"#utility.yul\":2526:2565   */\n      tag_174\n      jump\t// in\n    tag_173:\n        /* \"#utility.yul\":2581:2652   */\n      tag_175\n        /* \"#utility.yul\":2645:2651   */\n      dup2\n        /* \"#utility.yul\":2640:2643   */\n      dup6\n        /* \"#utility.yul\":2581:2652   */\n      tag_176\n      jump\t// in\n    tag_175:\n        /* \"#utility.yul\":2574:2652   */\n      swap4\n      pop\n        /* \"#utility.yul\":2661:2713   */\n      tag_177\n        /* \"#utility.yul\":2706:2712   */\n      dup2\n        /* \"#utility.yul\":2701:2704   */\n      dup6\n        /* \"#utility.yul\":2694:2698   */\n      0x20\n        /* \"#utility.yul\":2687:2692   */\n      dup7\n        /* \"#utility.yul\":2683:2699   */\n      add\n        /* \"#utility.yul\":2661:2713   */\n      tag_168\n      jump\t// in\n    tag_177:\n        /* \"#utility.yul\":2738:2767   */\n      tag_178\n        /* \"#utility.yul\":2760:2766   */\n      dup2\n        /* \"#utility.yul\":2738:2767   */\n      tag_170\n      jump\t// in\n    tag_178:\n        /* \"#utility.yul\":2733:2736   */\n      dup5\n        /* \"#utility.yul\":2729:2768   */\n      add\n        /* \"#utility.yul\":2722:2768   */\n      swap2\n      pop\n        /* \"#utility.yul\":2502:2774   */\n      pop\n        /* \"#utility.yul\":2410:2774   */\n      swap3\n      swap2\n      pop\n      pop\n      jump\t// out\n        /* \"#utility.yul\":2780:2888   */\n    tag_142:\n        /* \"#utility.yul\":2857:2881   */\n      tag_180\n        /* \"#utility.yul\":2875:2880   */\n      dup2\n        /* \"#utility.yul\":2857:2881   */\n      tag_181\n      jump\t// in\n    tag_180:\n        /* \"#utility.yul\":2852:2855   */\n      dup3\n        /* \"#utility.yul\":2845:2882   */\n      mstore\n        /* \"#utility.yul\":2780:2888   */\n      pop\n      pop\n      jump\t// out\n        /* \"#utility.yul\":2894:3012   */\n    tag_182:\n        /* \"#utility.yul\":2981:3005   */\n      tag_184\n        /* \"#utility.yul\":2999:3004   */\n      dup2\n        /* \"#utility.yul\":2981:3005   */\n      tag_181\n      jump\t// in\n    tag_184:\n        /* \"#utility.yul\":2976:2979   */\n      dup3\n        /* \"#utility.yul\":2969:3006   */\n      mstore\n        /* \"#utility.yul\":2894:3012   */\n      pop\n      pop\n      jump\t// out\n        /* \"#utility.yul\":3018:3391   */\n    tag_34:\n        /* \"#utility.yul\":3161:3165   */\n      0x00\n        /* \"#utility.yul\":3199:3201   */\n      0x20\n        /* \"#utility.yul\":3188:3197   */\n      dup3\n        /* \"#utility.yul\":3184:3202   */\n      add\n        /* \"#utility.yul\":3176:3202   */\n      swap1\n      pop\n        /* \"#utility.yul\":3248:3257   */\n      dup2\n        /* \"#utility.yul\":3242:3246   */\n      dup2\n        /* \"#utility.yul\":3238:3258   */\n      sub\n        /* \"#utility.yul\":3234:3235   */\n      0x00\n        /* \"#utility.yul\":3223:3232   */\n      dup4\n        /* \"#utility.yul\":3219:3236   */\n      add\n        /* \"#utility.yul\":3212:3259   */\n      mstore\n        /* \"#utility.yul\":3276:3384   */\n      tag_186\n        /* \"#utility.yul\":3379:3383   */\n      dup2\n        /* \"#utility.yul\":3370:3376   */\n      dup5\n        /* \"#utility.yul\":3276:3384   */\n      tag_143\n      jump\t// in\n    tag_186:\n        /* \"#utility.yul\":3268:3384   */\n      swap1\n      pop\n        /* \"#utility.yul\":3018:3391   */\n      swap3\n      swap2\n      pop\n      pop\n      jump\t// out\n        /* \"#utility.yul\":3397:3619   */\n    tag_54:\n        /* \"#utility.yul\":3490:3494   */\n      0x00\n        /* \"#utility.yul\":3528:3530   */\n      0x20\n        /* \"#utility.yul\":3517:3526   */\n      dup3\n        /* \"#utility.yul\":3513:3531   */\n      add\n        /* \"#utility.yul\":3505:3531   */\n      swap1\n      pop\n        /* \"#utility.yul\":3541:3612   */\n      tag_188\n        /* \"#utility.yul\":3609:3610   */\n      0x00\n        /* \"#utility.yul\":3598:3607   */\n      dup4\n        /* \"#utility.yul\":3594:3611   */\n      add\n        /* \"#utility.yul\":3585:3591   */\n      dup5\n        /* \"#utility.yul\":3541:3612   */\n      tag_157\n      jump\t// in\n    tag_188:\n        /* \"#utility.yul\":3397:3619   */\n      swap3\n      swap2\n      pop\n      pop\n      jump\t// out\n        /* \"#utility.yul\":3625:3934   */\n    tag_45:\n        /* \"#utility.yul\":3736:3740   */\n      0x00\n        /* \"#utility.yul\":3774:3776   */\n      0x20\n        /* \"#utility.yul\":3763:3772   */\n      dup3\n        /* \"#utility.yul\":3759:3777   */\n      add\n        /* \"#utility.yul\":3751:3777   */\n      swap1\n      pop\n        /* \"#utility.yul\":3823:3832   */\n      dup2\n        /* \"#utility.yul\":3817:3821   */\n      dup2\n        /* \"#utility.yul\":3813:3833   */\n      sub\n        /* \"#utility.yul\":3809:3810   */\n      0x00\n        /* \"#utility.yul\":3798:3807   */\n      dup4\n        /* \"#utility.yul\":3794:3811   */\n      add\n        /* \"#utility.yul\":3787:3834   */\n      mstore\n        /* \"#utility.yul\":3851:3927   */\n      tag_190\n        /* \"#utility.yul\":3922:3926   */\n      dup2\n        /* \"#utility.yul\":3913:3919   */\n      dup5\n        /* \"#utility.yul\":3851:3927   */\n      tag_161\n      jump\t// in\n    tag_190:\n        /* \"#utility.yul\":3843:3927   */\n      swap1\n      pop\n        /* \"#utility.yul\":3625:3934   */\n      swap3\n      swap2\n      pop\n      pop\n      jump\t// out\n        /* \"#utility.yul\":3940:4253   */\n    tag_30:\n        /* \"#utility.yul\":4053:4057   */\n      0x00\n        /* \"#utility.yul\":4091:4093   */\n      0x20\n        /* \"#utility.yul\":4080:4089   */\n      dup3\n        /* \"#utility.yul\":4076:4094   */\n      add\n        /* \"#utility.yul\":4068:4094   */\n      swap1\n      pop\n        /* \"#utility.yul\":4140:4149   */\n      dup2\n        /* \"#utility.yul\":4134:4138   */\n      dup2\n        /* \"#utility.yul\":4130:4150   */\n      sub\n        /* \"#utility.yul\":4126:4127   */\n      0x00\n        /* \"#utility.yul\":4115:4124   */\n      dup4\n        /* \"#utility.yul\":4111:4128   */\n      add\n        /* \"#utility.yul\":4104:4151   */\n      mstore\n        /* \"#utility.yul\":4168:4246   */\n      tag_192\n        /* \"#utility.yul\":4241:4245   */\n      dup2\n        /* \"#utility.yul\":4232:4238   */\n      dup5\n        /* \"#utility.yul\":4168:4246   */\n      tag_171\n      jump\t// in\n    tag_192:\n        /* \"#utility.yul\":4160:4246   */\n      swap1\n      pop\n        /* \"#utility.yul\":3940:4253   */\n      swap3\n      swap2\n      pop\n      pop\n      jump\t// out\n        /* \"#utility.yul\":4259:4481   */\n    tag_20:\n        /* \"#utility.yul\":4352:4356   */\n      0x00\n        /* \"#utility.yul\":4390:4392   */\n      0x20\n        /* \"#utility.yul\":4379:4388   */\n      dup3\n        /* \"#utility.yul\":4375:4393   */\n      add\n        /* \"#utility.yul\":4367:4393   */\n      swap1\n      pop\n        /* \"#utility.yul\":4403:4474   */\n      tag_194\n        /* \"#utility.yul\":4471:4472   */\n      0x00\n        /* \"#utility.yul\":4460:4469   */\n      dup4\n        /* \"#utility.yul\":4456:4473   */\n      add\n        /* \"#utility.yul\":4447:4453   */\n      dup5\n        /* \"#utility.yul\":4403:4474   */\n      tag_182\n      jump\t// in\n    tag_194:\n        /* \"#utility.yul\":4259:4481   */\n      swap3\n      swap2\n      pop\n      pop\n      jump\t// out\n        /* \"#utility.yul\":4568:4700   */\n    tag_150:\n        /* \"#utility.yul\":4635:4639   */\n      0x00\n        /* \"#utility.yul\":4658:4661   */\n      dup2\n        /* \"#utility.yul\":4650:4661   */\n      swap1\n      pop\n        /* \"#utility.yul\":4688:4692   */\n      0x20\n        /* \"#utility.yul\":4683:4686   */\n      dup3\n        /* \"#utility.yul\":4679:4693   */\n      add\n        /* \"#utility.yul\":4671:4693   */\n      swap1\n      pop\n        /* \"#utility.yul\":4568:4700   */\n      swap2\n      swap1\n      pop\n      jump\t// out\n        /* \"#utility.yul\":4706:4820   */\n    tag_146:\n        /* \"#utility.yul\":4773:4779   */\n      0x00\n        /* \"#utility.yul\":4807:4812   */\n      dup2\n        /* \"#utility.yul\":4801:4813   */\n      mload\n        /* \"#utility.yul\":4791:4813   */\n      swap1\n      pop\n        /* \"#utility.yul\":4706:4820   */\n      swap2\n      swap1\n      pop\n      jump\t// out\n        /* \"#utility.yul\":4826:4924   */\n    tag_164:\n        /* \"#utility.yul\":4877:4883   */\n      0x00\n        /* \"#utility.yul\":4911:4916   */\n      dup2\n        /* \"#utility.yul\":4905:4917   */\n      mload\n        /* \"#utility.yul\":4895:4917   */\n      swap1\n      pop\n        /* \"#utility.yul\":4826:4924   */\n      swap2\n      swap1\n      pop\n      jump\t// out\n        /* \"#utility.yul\":4930:5029   */\n    tag_174:\n        /* \"#utility.yul\":4982:4988   */\n      0x00\n        /* \"#utility.yul\":5016:5021   */\n      dup2\n        /* \"#utility.yul\":5010:5022   */\n      mload\n        /* \"#utility.yul\":5000:5022   */\n      swap1\n      pop\n        /* \"#utility.yul\":4930:5029   */\n      swap2\n      swap1\n      pop\n      jump\t// out\n        /* \"#utility.yul\":5035:5148   */\n    tag_156:\n        /* \"#utility.yul\":5105:5109   */\n      0x00\n        /* \"#utility.yul\":5137:5141   */\n      0x20\n        /* \"#utility.yul\":5132:5135   */\n      dup3\n        /* \"#utility.yul\":5128:5142   */\n      add\n        /* \"#utility.yul\":5120:5142   */\n      swap1\n      pop\n        /* \"#utility.yul\":5035:5148   */\n      swap2\n      swap1\n      pop\n      jump\t// out\n        /* \"#utility.yul\":5154:5338   */\n    tag_148:\n        /* \"#utility.yul\":5253:5264   */\n      0x00\n        /* \"#utility.yul\":5287:5293   */\n      dup3\n        /* \"#utility.yul\":5282:5285   */\n      dup3\n        /* \"#utility.yul\":5275:5294   */\n      mstore\n        /* \"#utility.yul\":5327:5331   */\n      0x20\n        /* \"#utility.yul\":5322:5325   */\n      dup3\n        /* \"#utility.yul\":5318:5332   */\n      add\n        /* \"#utility.yul\":5303:5332   */\n      swap1\n      pop\n        /* \"#utility.yul\":5154:5338   */\n      swap3\n      swap2\n      pop\n      pop\n      jump\t// out\n        /* \"#utility.yul\":5344:5512   */\n    tag_166:\n        /* \"#utility.yul\":5427:5438   */\n      0x00\n        /* \"#utility.yul\":5461:5467   */\n      dup3\n        /* \"#utility.yul\":5456:5459   */\n      dup3\n        /* \"#utility.yul\":5449:5468   */\n      mstore\n        /* \"#utility.yul\":5501:5505   */\n      0x20\n        /* \"#utility.yul\":5496:5499   */\n      dup3\n        /* \"#utility.yul\":5492:5506   */\n      add\n        /* \"#utility.yul\":5477:5506   */\n      swap1\n      pop\n        /* \"#utility.yul\":5344:5512   */\n      swap3\n      swap2\n      pop\n      pop\n      jump\t// out\n        /* \"#utility.yul\":5518:5687   */\n    tag_176:\n        /* \"#utility.yul\":5602:5613   */\n      0x00\n        /* \"#utility.yul\":5636:5642   */\n      dup3\n        /* \"#utility.yul\":5631:5634   */\n      dup3\n        /* \"#utility.yul\":5624:5643   */\n      mstore\n        /* \"#utility.yul\":5676:5680   */\n      0x20\n        /* \"#utility.yul\":5671:5674   */\n      dup3\n        /* \"#utility.yul\":5667:5681   */\n      add\n        /* \"#utility.yul\":5652:5681   */\n      swap1\n      pop\n        /* \"#utility.yul\":5518:5687   */\n      swap3\n      swap2\n      pop\n      pop\n      jump\t// out\n        /* \"#utility.yul\":5693:6041   */\n    tag_64:\n        /* \"#utility.yul\":5733:5740   */\n      0x00\n        /* \"#utility.yul\":5756:5776   */\n      tag_206\n        /* \"#utility.yul\":5774:5775   */\n      dup3\n        /* \"#utility.yul\":5756:5776   */\n      tag_181\n      jump\t// in\n    tag_206:\n        /* \"#utility.yul\":5751:5776   */\n      swap2\n      pop\n        /* \"#utility.yul\":5790:5810   */\n      tag_207\n        /* \"#utility.yul\":5808:5809   */\n      dup4\n        /* \"#utility.yul\":5790:5810   */\n      tag_181\n      jump\t// in\n    tag_207:\n        /* \"#utility.yul\":5785:5810   */\n      swap3\n      pop\n        /* \"#utility.yul\":5978:5979   */\n      dup2\n        /* \"#utility.yul\":5910:5976   */\n      0xffffffffffffffffffffffffffffffffffffffffffffffffffffffffffffffff\n        /* \"#utility.yul\":5906:5980   */\n      div\n        /* \"#utility.yul\":5903:5904   */\n      dup4\n        /* \"#utility.yul\":5900:5981   */\n      gt\n        /* \"#utility.yul\":5895:5896   */\n      dup3\n        /* \"#utility.yul\":5888:5897   */\n      iszero\n        /* \"#utility.yul\":5881:5898   */\n      iszero\n        /* \"#utility.yul\":5877:5982   */\n      and\n        /* \"#utility.yul\":5874:6005   */\n      iszero\n      tag_208\n      jumpi\n        /* \"#utility.yul\":5985:6003   */\n      tag_209\n      tag_210\n      jump\t// in\n    tag_209:\n        /* \"#utility.yul\":5874:6005   */\n    tag_208:\n        /* \"#utility.yul\":6033:6034   */\n      dup3\n        /* \"#utility.yul\":6030:6031   */\n      dup3\n        /* \"#utility.yul\":6026:6035   */\n      mul\n        /* \"#utility.yul\":6015:6035   */\n      swap1\n      pop\n        /* \"#utility.yul\":5693:6041   */\n      swap3\n      swap2\n      pop\n      pop\n      jump\t// out\n        /* \"#utility.yul\":6047:6124   */\n    tag_160:\n        /* \"#utility.yul\":6084:6091   */\n      0x00\n        /* \"#utility.yul\":6113:6118   */\n      dup2\n        /* \"#utility.yul\":6102:6118   */\n      swap1\n      pop\n        /* \"#utility.yul\":6047:6124   */\n      swap2\n      swap1\n      pop\n      jump\t// out\n        /* \"#utility.yul\":6130:6207   */\n    tag_181:\n        /* \"#utility.yul\":6167:6174   */\n      0x00\n        /* \"#utility.yul\":6196:6201   */\n      dup2\n        /* \"#utility.yul\":6185:6201   */\n      swap1\n      pop\n        /* \"#utility.yul\":6130:6207   */\n      swap2\n      swap1\n      pop\n      jump\t// out\n        /* \"#utility.yul\":6213:6520   */\n    tag_168:\n        /* \"#utility.yul\":6281:6282   */\n      0x00\n        /* \"#utility.yul\":6291:6404   */\n    tag_214:\n        /* \"#utility.yul\":6305:6311   */\n      dup4\n        /* \"#utility.yul\":6302:6303   */\n      dup2\n        /* \"#utility.yul\":6299:6312   */\n      lt\n        /* \"#utility.yul\":6291:6404   */\n      iszero\n      tag_216\n      jumpi\n        /* \"#utility.yul\":6390:6391   */\n      dup1\n        /* \"#utility.yul\":6385:6388   */\n      dup3\n        /* \"#utility.yul\":6381:6392   */\n      add\n        /* \"#utility.yul\":6375:6393   */\n      mload\n        /* \"#utility.yul\":6371:6372   */\n      dup2\n        /* \"#utility.yul\":6366:6369   */\n      dup5\n        /* \"#utility.yul\":6362:6373   */\n      add\n        /* \"#utility.yul\":6355:6394   */\n      mstore\n        /* \"#utility.yul\":6327:6329   */\n      0x20\n        /* \"#utility.yul\":6324:6325   */\n      dup2\n        /* \"#utility.yul\":6320:6330   */\n      add\n        /* \"#utility.yul\":6315:6330   */\n      swap1\n      pop\n        /* \"#utility.yul\":6291:6404   */\n      jump(tag_214)\n    tag_216:\n        /* \"#utility.yul\":6422:6428   */\n      dup4\n        /* \"#utility.yul\":6419:6420   */\n      dup2\n        /* \"#utility.yul\":6416:6429   */\n      gt\n        /* \"#utility.yul\":6413:6514   */\n      iszero\n      tag_217\n      jumpi\n        /* \"#utility.yul\":6502:6503   */\n      0x00\n        /* \"#utility.yul\":6493:6499   */\n      dup5\n        /* \"#utility.yul\":6488:6491   */\n      dup5\n        /* \"#utility.yul\":6484:6500   */\n      add\n        /* \"#utility.yul\":6477:6504   */\n      mstore\n        /* \"#utility.yul\":6413:6514   */\n    tag_217:\n        /* \"#utility.yul\":6262:6520   */\n      pop\n        /* \"#utility.yul\":6213:6520   */\n      pop\n      pop\n      pop\n      jump\t// out\n        /* \"#utility.yul\":6526:6846   */\n    tag_81:\n        /* \"#utility.yul\":6570:6576   */\n      0x00\n        /* \"#utility.yul\":6607:6608   */\n      0x02\n        /* \"#utility.yul\":6601:6605   */\n      dup3\n        /* \"#utility.yul\":6597:6609   */\n      div\n        /* \"#utility.yul\":6587:6609   */\n      swap1\n      pop\n        /* \"#utility.yul\":6654:6655   */\n      0x01\n        /* \"#utility.yul\":6648:6652   */\n      dup3\n        /* \"#utility.yul\":6644:6656   */\n      and\n        /* \"#utility.yul\":6675:6693   */\n      dup1\n        /* \"#utility.yul\":6665:6746   */\n      tag_219\n      jumpi\n        /* \"#utility.yul\":6731:6735   */\n      0x7f\n        /* \"#utility.yul\":6723:6729   */\n      dup3\n        /* \"#utility.yul\":6719:6736   */\n      and\n        /* \"#utility.yul\":6709:6736   */\n      swap2\n      pop\n        /* \"#utility.yul\":6665:6746   */\n    tag_219:\n        /* \"#utility.yul\":6793:6795   */\n      0x20\n        /* \"#utility.yul\":6785:6791   */\n      dup3\n        /* \"#utility.yul\":6782:6796   */\n      lt\n        /* \"#utility.yul\":6762:6780   */\n      dup2\n        /* \"#utility.yul\":6759:6797   */\n      eq\n        /* \"#utility.yul\":6756:6840   */\n      iszero\n      tag_220\n      jumpi\n        /* \"#utility.yul\":6812:6830   */\n      tag_221\n      tag_222\n      jump\t// in\n    tag_221:\n        /* \"#utility.yul\":6756:6840   */\n    tag_220:\n        /* \"#utility.yul\":6577:6846   */\n      pop\n        /* \"#utility.yul\":6526:6846   */\n      swap2\n      swap1\n      pop\n      jump\t// out\n        /* \"#utility.yul\":6852:7032   */\n    tag_210:\n        /* \"#utility.yul\":6900:6977   */\n      0x4e487b7100000000000000000000000000000000000000000000000000000000\n        /* \"#utility.yul\":6897:6898   */\n      0x00\n        /* \"#utility.yul\":6890:6978   */\n      mstore\n        /* \"#utility.yul\":6997:7001   */\n      0x11\n        /* \"#utility.yul\":6994:6995   */\n      0x04\n        /* \"#utility.yul\":6987:7002   */\n      mstore\n        /* \"#utility.yul\":7021:7025   */\n      0x24\n        /* \"#utility.yul\":7018:7019   */\n      0x00\n        /* \"#utility.yul\":7011:7026   */\n      revert\n        /* \"#utility.yul\":7038:7218   */\n    tag_222:\n        /* \"#utility.yul\":7086:7163   */\n      0x4e487b7100000000000000000000000000000000000000000000000000000000\n        /* \"#utility.yul\":7083:7084   */\n      0x00\n        /* \"#utility.yul\":7076:7164   */\n      mstore\n        /* \"#utility.yul\":7183:7187   */\n      0x22\n        /* \"#utility.yul\":7180:7181   */\n      0x04\n        /* \"#utility.yul\":7173:7188   */\n      mstore\n        /* \"#utility.yul\":7207:7211   */\n      0x24\n        /* \"#utility.yul\":7204:7205   */\n      0x00\n        /* \"#utility.yul\":7197:7212   */\n      revert\n        /* \"#utility.yul\":7224:7404   */\n    tag_61:\n        /* \"#utility.yul\":7272:7349   */\n      0x4e487b7100000000000000000000000000000000000000000000000000000000\n        /* \"#utility.yul\":7269:7270   */\n      0x00\n        /* \"#utility.yul\":7262:7350   */\n      mstore\n        /* \"#utility.yul\":7369:7373   */\n      0x32\n        /* \"#utility.yul\":7366:7367   */\n      0x04\n        /* \"#utility.yul\":7359:7374   */\n      mstore\n        /* \"#utility.yul\":7393:7397   */\n      0x24\n        /* \"#utility.yul\":7390:7391   */\n      0x00\n        /* \"#utility.yul\":7383:7398   */\n      revert\n        /* \"#utility.yul\":7410:7590   */\n    tag_89:\n        /* \"#utility.yul\":7458:7535   */\n      0x4e487b7100000000000000000000000000000000000000000000000000000000\n        /* \"#utility.yul\":7455:7456   */\n      0x00\n        /* \"#utility.yul\":7448:7536   */\n      mstore\n        /* \"#utility.yul\":7555:7559   */\n      0x41\n        /* \"#utility.yul\":7552:7553   */\n      0x04\n        /* \"#utility.yul\":7545:7560   */\n      mstore\n        /* \"#utility.yul\":7579:7583   */\n      0x24\n        /* \"#utility.yul\":7576:7577   */\n      0x00\n        /* \"#utility.yul\":7569:7584   */\n      revert\n        /* \"#utility.yul\":7719:7836   */\n    tag_132:\n        /* \"#utility.yul\":7828:7829   */\n      0x00\n        /* \"#utility.yul\":7825:7826   */\n      dup1\n        /* \"#utility.yul\":7818:7830   */\n      revert\n        /* \"#utility.yul\":7842:7944   */\n    tag_170:\n        /* \"#utility.yul\":7883:7889   */\n      0x00\n        /* \"#utility.yul\":7934:7936   */\n      0x1f\n        /* \"#utility.yul\":7930:7937   */\n      not\n        /* \"#utility.yul\":7925:7927   */\n      0x1f\n        /* \"#utility.yul\":7918:7923   */\n      dup4\n        /* \"#utility.yul\":7914:7928   */\n      add\n        /* \"#utility.yul\":7910:7938   */\n      and\n        /* \"#utility.yul\":7900:7938   */\n      swap1\n      pop\n        /* \"#utility.yul\":7842:7944   */\n      swap2\n      swap1\n      pop\n      jump\t// out\n        /* \"#utility.yul\":7950:8072   */\n    tag_128:\n        /* \"#utility.yul\":8023:8047   */\n      tag_232\n        /* \"#utility.yul\":8041:8046   */\n      dup2\n        /* \"#utility.yul\":8023:8047   */\n      tag_181\n      jump\t// in\n    tag_232:\n        /* \"#utility.yul\":8016:8021   */\n      dup2\n        /* \"#utility.yul\":8013:8048   */\n      eq\n        /* \"#utility.yul\":8003:8066   */\n      tag_233\n      jumpi\n        /* \"#utility.yul\":8062:8063   */\n      0x00\n        /* \"#utility.yul\":8059:8060   */\n      dup1\n        /* \"#utility.yul\":8052:8064   */\n      revert\n        /* \"#utility.yul\":8003:8066   */\n    tag_233:\n        /* \"#utility.yul\":7950:8072   */\n      pop\n      jump\t// out\n\n    auxdata: 0xa264697066735822122007e3307934182604c9d76431fe5f28b656254d5852bbceb68625e1b66afbe18164736f6c63430008070033\n}\n",
				"bytecode": {
					"linkReferences": {},
					"object": "60806040526040518060600160405280600a60ff168152602001601460ff168152602001600160ff1681525060009060036200003d92919062000134565b5060405180602001604052806040518060400160405280600381526020017f7374720000000000000000000000000000000000000000000000000000000000815250815250600a906001620000949291906200017e565b5060006017557f42696c626f0000000000000000000000000000000000000000000000000000006018556040518060400160405280600581526020017f42696c626f000000000000000000000000000000000000000000000000000000815250601990805190602001906200010b929190620001d8565b50601980546200011b9062000387565b9050601a553480156200012d57600080fd5b50620003ec565b82600a81019282156200016b579160200282015b828111156200016a578251829060ff1690559160200191906001019062000148565b5b5090506200017a919062000269565b5090565b8260028101928215620001c5579160200282015b82811115620001c4578251829080519060200190620001b392919062000288565b509160200191906001019062000192565b5b509050620001d4919062000319565b5090565b828054620001e69062000387565b90600052602060002090601f0160209004810192826200020a576000855562000256565b82601f106200022557805160ff191683800117855562000256565b8280016001018555821562000256579182015b828111156200025557825182559160200191906001019062000238565b5b50905062000265919062000269565b5090565b5b80821115620002845760008160009055506001016200026a565b5090565b828054620002969062000387565b90600052602060002090601f016020900481019282620002ba576000855562000306565b82601f10620002d557805160ff191683800117855562000306565b8280016001018555821562000306579182015b8281111562000305578251825591602001919060010190620002e8565b5b50905062000315919062000269565b5090565b5b808211156200033d576000818162000333919062000341565b506001016200031a565b5090565b5080546200034f9062000387565b6000825580601f1062000363575062000384565b601f01602090049060005260206000209081019062000383919062000269565b5b50565b60006002820490506001821680620003a057607f821691505b60208210811415620003b757620003b6620003bd565b5b50919050565b7f4e487b7100000000000000000000000000000000000000000000000000000000600052602260045260246000fd5b610b3780620003fc6000396000f3fe608060405234801561001057600080fd5b50600436106100a95760003560e01c8063bfb231d211610071578063bfb231d214610154578063c602a86a14610184578063ce8a7af6146101a2578063d9a38d64146101c0578063e334d9d9146101f0578063e34404661461020e576100a9565b8063304acd68146100ae578063500d850f146100b85780635a79b850146100d657806380c9419e14610106578063a34343c914610136575b600080fd5b6100b661022a565b005b6100c061035b565b6040516100cd91906108b9565b60405180910390f35b6100f060048036038101906100eb91906106b6565b610361565b6040516100fd91906108b9565b60405180910390f35b610120600480360381019061011b91906106b6565b610385565b60405161012d9190610897565b60405180910390f35b61013e610428565b60405161014b9190610838565b60405180910390f35b61016e600480360381019061016991906106b6565b6104a1565b60405161017b91906108b9565b60405180910390f35b61018c6104bc565b60405161019991906108b9565b60405180910390f35b6101aa6104c2565b6040516101b79190610875565b60405180910390f35b6101da60048036038101906101d591906106e3565b610550565b6040516101e791906108b9565b60405180910390f35b6101f861057e565b604051610205919061085a565b60405180910390f35b610228600480360381019061022391906106b6565b610584565b005b6005600080600a81106102405761023f610a76565b5b015461024c9190610945565b600080600a81106102605761025f610a76565b5b0181905550600080600a811061027957610278610a76565b5b015460006005600a81106102905761028f610a76565b5b01819055506040518060a001604052806040518060400160405280600160ff168152602001600260ff1681525081526020016040518060400160405280600160ff168152602001600260ff1681525081526020016040518060400160405280600160ff168152602001600260ff1681525081526020016040518060400160405280600160ff168152602001600260ff1681525081526020016040518060400160405280600160ff168152602001600260ff16815250815250600c9060056103589291906105bc565b50565b60175481565b6016818154811061037157600080fd5b906000526020600020016000915090505481565b600a816002811061039557600080fd5b0160009150905080546103a7906109e6565b80601f01602080910402602001604051908101604052809291908181526020018280546103d3906109e6565b80156104205780601f106103f557610100808354040283529160200191610420565b820191906000526020600020905b81548152906001019060200180831161040357829003601f168201915b505050505081565b60606000600567ffffffffffffffff81111561044757610446610aa5565b5b6040519080825280602002602001820160405280156104755781602001602082028036833780820191505090505b50905060008160048151811061048e5761048d610a76565b5b6020026020010181815250508091505090565b600081600a81106104b157600080fd5b016000915090505481565b601a5481565b601980546104cf906109e6565b80601f01602080910402602001604051908101604052809291908181526020018280546104fb906109e6565b80156105485780601f1061051d57610100808354040283529160200191610548565b820191906000526020600020905b81548152906001019060200180831161052b57829003601f168201915b505050505081565b600c826005811061056057600080fd5b60020201816002811061057257600080fd5b01600091509150505481565b60185481565b601681908060018154018082558091505060019003906000526020600020016000909190919091505560168054905060178190555050565b82600560020281019282156105fc579160200282015b828111156105fb578251829060026105eb92919061060d565b50916020019190600201906105d2565b5b5090506106099190610652565b5090565b8260028101928215610641579160200282015b82811115610640578251829060ff16905591602001919060010190610620565b5b50905061064e9190610676565b5090565b5b8082111561067257600081816106699190610693565b50600201610653565b5090565b5b8082111561068f576000816000905550600101610677565b5090565b506000815560010160009055565b6000813590506106b081610aea565b92915050565b6000602082840312156106cc576106cb610ad4565b5b60006106da848285016106a1565b91505092915050565b600080604083850312156106fa576106f9610ad4565b5b6000610708858286016106a1565b9250506020610719858286016106a1565b9150509250929050565b600061072f838361081a565b60208301905092915050565b6000610746826108e4565b6107508185610912565b935061075b836108d4565b8060005b8381101561078c5781516107738882610723565b975061077e83610905565b92505060018101905061075f565b5085935050505092915050565b6107a28161099f565b82525050565b60006107b3826108ef565b6107bd8185610923565b93506107cd8185602086016109b3565b6107d681610ad9565b840191505092915050565b60006107ec826108fa565b6107f68185610934565b93506108068185602086016109b3565b61080f81610ad9565b840191505092915050565b610823816109a9565b82525050565b610832816109a9565b82525050565b60006020820190508181036000830152610852818461073b565b905092915050565b600060208201905061086f6000830184610799565b92915050565b6000602082019050818103600083015261088f81846107a8565b905092915050565b600060208201905081810360008301526108b181846107e1565b905092915050565b60006020820190506108ce6000830184610829565b92915050565b6000819050602082019050919050565b600081519050919050565b600081519050919050565b600081519050919050565b6000602082019050919050565b600082825260208201905092915050565b600082825260208201905092915050565b600082825260208201905092915050565b6000610950826109a9565b915061095b836109a9565b9250817fffffffffffffffffffffffffffffffffffffffffffffffffffffffffffffffff048311821515161561099457610993610a18565b5b828202905092915050565b6000819050919050565b6000819050919050565b60005b838110156109d15780820151818401526020810190506109b6565b838111156109e0576000848401525b50505050565b600060028204905060018216806109fe57607f821691505b60208210811415610a1257610a11610a47565b5b50919050565b7f4e487b7100000000000000000000000000000000000000000000000000000000600052601160045260246000fd5b7f4e487b7100000000000000000000000000000000000000000000000000000000600052602260045260246000fd5b7f4e487b7100000000000000000000000000000000000000000000000000000000600052603260045260246000fd5b7f4e487b7100000000000000000000000000000000000000000000000000000000600052604160045260246000fd5b600080fd5b6000601f19601f8301169050919050565b610af3816109a9565b8114610afe57600080fd5b5056fea264697066735822122007e3307934182604c9d76431fe5f28b656254d5852bbceb68625e1b66afbe18164736f6c63430008070033",
					"opcodes": "PUSH1 0x80 PUSH1 0x40 MSTORE PUSH1 0x40 MLOAD DUP1 PUSH1 0x60 ADD PUSH1 0x40 MSTORE DUP1 PUSH1 0xA PUSH1 0xFF AND DUP2 MSTORE PUSH1 0x20 ADD PUSH1 0x14 PUSH1 0xFF AND DUP2 MSTORE PUSH1 0x20 ADD PUSH1 0x1 PUSH1 0xFF AND DUP2 MSTORE POP PUSH1 0x0 SWAP1 PUSH1 0x3 PUSH3 0x3D SWAP3 SWAP2 SWAP1 PUSH3 0x134 JUMP JUMPDEST POP PUSH1 0x40 MLOAD DUP1 PUSH1 0x20 ADD PUSH1 0x40 MSTORE DUP1 PUSH1 0x40 MLOAD DUP1 PUSH1 0x40 ADD PUSH1 0x40 MSTORE DUP1 PUSH1 0x3 DUP2 MSTORE PUSH1 0x20 ADD PUSH32 0x7374720000000000000000000000000000000000000000000000000000000000 DUP2 MSTORE POP DUP2 MSTORE POP PUSH1 0xA SWAP1 PUSH1 0x1 PUSH3 0x94 SWAP3 SWAP2 SWAP1 PUSH3 0x17E JUMP JUMPDEST POP PUSH1 0x0 PUSH1 0x17 SSTORE PUSH32 0x42696C626F000000000000000000000000000000000000000000000000000000 PUSH1 0x18 SSTORE PUSH1 0x40 MLOAD DUP1 PUSH1 0x40 ADD PUSH1 0x40 MSTORE DUP1 PUSH1 0x5 DUP2 MSTORE PUSH1 0x20 ADD PUSH32 0x42696C626F000000000000000000000000000000000000000000000000000000 DUP2 MSTORE POP PUSH1 0x19 SWAP1 DUP1 MLOAD SWAP1 PUSH1 0x20 ADD SWAP1 PUSH3 0x10B SWAP3 SWAP2 SWAP1 PUSH3 0x1D8 JUMP JUMPDEST POP PUSH1 0x19 DUP1 SLOAD PUSH3 0x11B SWAP1 PUSH3 0x387 JUMP JUMPDEST SWAP1 POP PUSH1 0x1A SSTORE CALLVALUE DUP1 ISZERO PUSH3 0x12D JUMPI PUSH1 0x0 DUP1 REVERT JUMPDEST POP PUSH3 0x3EC JUMP JUMPDEST DUP3 PUSH1 0xA DUP2 ADD SWAP3 DUP3 ISZERO PUSH3 0x16B JUMPI SWAP2 PUSH1 0x20 MUL DUP3 ADD JUMPDEST DUP3 DUP2 GT ISZERO PUSH3 0x16A JUMPI DUP3 MLOAD DUP3 SWAP1 PUSH1 0xFF AND SWAP1 SSTORE SWAP2 PUSH1 0x20 ADD SWAP2 SWAP1 PUSH1 0x1 ADD SWAP1 PUSH3 0x148 JUMP JUMPDEST JUMPDEST POP SWAP1 POP PUSH3 0x17A SWAP2 SWAP1 PUSH3 0x269 JUMP JUMPDEST POP SWAP1 JUMP JUMPDEST DUP3 PUSH1 0x2 DUP2 ADD SWAP3 DUP3 ISZERO PUSH3 0x1C5 JUMPI SWAP2 PUSH1 0x20 MUL DUP3 ADD JUMPDEST DUP3 DUP2 GT ISZERO PUSH3 0x1C4 JUMPI DUP3 MLOAD DUP3 SWAP1 DUP1 MLOAD SWAP1 PUSH1 0x20 ADD SWAP1 PUSH3 0x1B3 SWAP3 SWAP2 SWAP1 PUSH3 0x288 JUMP JUMPDEST POP SWAP2 PUSH1 0x20 ADD SWAP2 SWAP1 PUSH1 0x1 ADD SWAP1 PUSH3 0x192 JUMP JUMPDEST JUMPDEST POP SWAP1 POP PUSH3 0x1D4 SWAP2 SWAP1 PUSH3 0x319 JUMP JUMPDEST POP SWAP1 JUMP JUMPDEST DUP3 DUP1 SLOAD PUSH3 0x1E6 SWAP1 PUSH3 0x387 JUMP JUMPDEST SWAP1 PUSH1 0x0 MSTORE PUSH1 0x20 PUSH1 0x0 KECCAK256 SWAP1 PUSH1 0x1F ADD PUSH1 0x20 SWAP1 DIV DUP2 ADD SWAP3 DUP3 PUSH3 0x20A JUMPI PUSH1 0x0 DUP6 SSTORE PUSH3 0x256 JUMP JUMPDEST DUP3 PUSH1 0x1F LT PUSH3 0x225 JUMPI DUP1 MLOAD PUSH1 0xFF NOT AND DUP4 DUP1 ADD OR DUP6 SSTORE PUSH3 0x256 JUMP JUMPDEST DUP3 DUP1 ADD PUSH1 0x1 ADD DUP6 SSTORE DUP3 ISZERO PUSH3 0x256 JUMPI SWAP2 DUP3 ADD JUMPDEST DUP3 DUP2 GT ISZERO PUSH3 0x255 JUMPI DUP3 MLOAD DUP3 SSTORE SWAP2 PUSH1 0x20 ADD SWAP2 SWAP1 PUSH1 0x1 ADD SWAP1 PUSH3 0x238 JUMP JUMPDEST JUMPDEST POP SWAP1 POP PUSH3 0x265 SWAP2 SWAP1 PUSH3 0x269 JUMP JUMPDEST POP SWAP1 JUMP JUMPDEST JUMPDEST DUP1 DUP3 GT ISZERO PUSH3 0x284 JUMPI PUSH1 0x0 DUP2 PUSH1 0x0 SWAP1 SSTORE POP PUSH1 0x1 ADD PUSH3 0x26A JUMP JUMPDEST POP SWAP1 JUMP JUMPDEST DUP3 DUP1 SLOAD PUSH3 0x296 SWAP1 PUSH3 0x387 JUMP JUMPDEST SWAP1 PUSH1 0x0 MSTORE PUSH1 0x20 PUSH1 0x0 KECCAK256 SWAP1 PUSH1 0x1F ADD PUSH1 0x20 SWAP1 DIV DUP2 ADD SWAP3 DUP3 PUSH3 0x2BA JUMPI PUSH1 0x0 DUP6 SSTORE PUSH3 0x306 JUMP JUMPDEST DUP3 PUSH1 0x1F LT PUSH3 0x2D5 JUMPI DUP1 MLOAD PUSH1 0xFF NOT AND DUP4 DUP1 ADD OR DUP6 SSTORE PUSH3 0x306 JUMP JUMPDEST DUP3 DUP1 ADD PUSH1 0x1 ADD DUP6 SSTORE DUP3 ISZERO PUSH3 0x306 JUMPI SWAP2 DUP3 ADD JUMPDEST DUP3 DUP2 GT ISZERO PUSH3 0x305 JUMPI DUP3 MLOAD DUP3 SSTORE SWAP2 PUSH1 0x20 ADD SWAP2 SWAP1 PUSH1 0x1 ADD SWAP1 PUSH3 0x2E8 JUMP JUMPDEST JUMPDEST POP SWAP1 POP PUSH3 0x315 SWAP2 SWAP1 PUSH3 0x269 JUMP JUMPDEST POP SWAP1 JUMP JUMPDEST JUMPDEST DUP1 DUP3 GT ISZERO PUSH3 0x33D JUMPI PUSH1 0x0 DUP2 DUP2 PUSH3 0x333 SWAP2 SWAP1 PUSH3 0x341 JUMP JUMPDEST POP PUSH1 0x1 ADD PUSH3 0x31A JUMP JUMPDEST POP SWAP1 JUMP JUMPDEST POP DUP1 SLOAD PUSH3 0x34F SWAP1 PUSH3 0x387 JUMP JUMPDEST PUSH1 0x0 DUP3 SSTORE DUP1 PUSH1 0x1F LT PUSH3 0x363 JUMPI POP PUSH3 0x384 JUMP JUMPDEST PUSH1 0x1F ADD PUSH1 0x20 SWAP1 DIV SWAP1 PUSH1 0x0 MSTORE PUSH1 0x20 PUSH1 0x0 KECCAK256 SWAP1 DUP2 ADD SWAP1 PUSH3 0x383 SWAP2 SWAP1 PUSH3 0x269 JUMP JUMPDEST JUMPDEST POP JUMP JUMPDEST PUSH1 0x0 PUSH1 0x2 DUP3 DIV SWAP1 POP PUSH1 0x1 DUP3 AND DUP1 PUSH3 0x3A0 JUMPI PUSH1 0x7F DUP3 AND SWAP2 POP JUMPDEST PUSH1 0x20 DUP3 LT DUP2 EQ ISZERO PUSH3 0x3B7 JUMPI PUSH3 0x3B6 PUSH3 0x3BD JUMP JUMPDEST JUMPDEST POP SWAP2 SWAP1 POP JUMP JUMPDEST PUSH32 0x4E487B7100000000000000000000000000000000000000000000000000000000 PUSH1 0x0 MSTORE PUSH1 0x22 PUSH1 0x4 MSTORE PUSH1 0x24 PUSH1 0x0 REVERT JUMPDEST PUSH2 0xB37 DUP1 PUSH3 0x3FC PUSH1 0x0 CODECOPY PUSH1 0x0 RETURN INVALID PUSH1 0x80 PUSH1 0x40 MSTORE CALLVALUE DUP1 ISZERO PUSH2 0x10 JUMPI PUSH1 0x0 DUP1 REVERT JUMPDEST POP PUSH1 0x4 CALLDATASIZE LT PUSH2 0xA9 JUMPI PUSH1 0x0 CALLDATALOAD PUSH1 0xE0 SHR DUP1 PUSH4 0xBFB231D2 GT PUSH2 0x71 JUMPI DUP1 PUSH4 0xBFB231D2 EQ PUSH2 0x154 JUMPI DUP1 PUSH4 0xC602A86A EQ PUSH2 0x184 JUMPI DUP1 PUSH4 0xCE8A7AF6 EQ PUSH2 0x1A2 JUMPI DUP1 PUSH4 0xD9A38D64 EQ PUSH2 0x1C0 JUMPI DUP1 PUSH4 0xE334D9D9 EQ PUSH2 0x1F0 JUMPI DUP1 PUSH4 0xE3440466 EQ PUSH2 0x20E JUMPI PUSH2 0xA9 JUMP JUMPDEST DUP1 PUSH4 0x304ACD68 EQ PUSH2 0xAE JUMPI DUP1 PUSH4 0x500D850F EQ PUSH2 0xB8 JUMPI DUP1 PUSH4 0x5A79B850 EQ PUSH2 0xD6 JUMPI DUP1 PUSH4 0x80C9419E EQ PUSH2 0x106 JUMPI DUP1 PUSH4 0xA34343C9 EQ PUSH2 0x136 JUMPI JUMPDEST PUSH1 0x0 DUP1 REVERT JUMPDEST PUSH2 0xB6 PUSH2 0x22A JUMP JUMPDEST STOP JUMPDEST PUSH2 0xC0 PUSH2 0x35B JUMP JUMPDEST PUSH1 0x40 MLOAD PUSH2 0xCD SWAP2 SWAP1 PUSH2 0x8B9 JUMP JUMPDEST PUSH1 0x40 MLOAD DUP1 SWAP2 SUB SWAP1 RETURN JUMPDEST PUSH2 0xF0 PUSH1 0x4 DUP1 CALLDATASIZE SUB DUP2 ADD SWAP1 PUSH2 0xEB SWAP2 SWAP1 PUSH2 0x6B6 JUMP JUMPDEST PUSH2 0x361 JUMP JUMPDEST PUSH1 0x40 MLOAD PUSH2 0xFD SWAP2 SWAP1 PUSH2 0x8B9 JUMP JUMPDEST PUSH1 0x40 MLOAD DUP1 SWAP2 SUB SWAP1 RETURN JUMPDEST PUSH2 0x120 PUSH1 0x4 DUP1 CALLDATASIZE SUB DUP2 ADD SWAP1 PUSH2 0x11B SWAP2 SWAP1 PUSH2 0x6B6 JUMP JUMPDEST PUSH2 0x385 JUMP JUMPDEST PUSH1 0x40 MLOAD PUSH2 0x12D SWAP2 SWAP1 PUSH2 0x897 JUMP JUMPDEST PUSH1 0x40 MLOAD DUP1 SWAP2 SUB SWAP1 RETURN JUMPDEST PUSH2 0x13E PUSH2 0x428 JUMP JUMPDEST PUSH1 0x40 MLOAD PUSH2 0x14B SWAP2 SWAP1 PUSH2 0x838 JUMP JUMPDEST PUSH1 0x40 MLOAD DUP1 SWAP2 SUB SWAP1 RETURN JUMPDEST PUSH2 0x16E PUSH1 0x4 DUP1 CALLDATASIZE SUB DUP2 ADD SWAP1 PUSH2 0x169 SWAP2 SWAP1 PUSH2 0x6B6 JUMP JUMPDEST PUSH2 0x4A1 JUMP JUMPDEST PUSH1 0x40 MLOAD PUSH2 0x17B SWAP2 SWAP1 PUSH2 0x8B9 JUMP JUMPDEST PUSH1 0x40 MLOAD DUP1 SWAP2 SUB SWAP1 RETURN JUMPDEST PUSH2 0x18C PUSH2 0x4BC JUMP JUMPDEST PUSH1 0x40 MLOAD PUSH2 0x199 SWAP2 SWAP1 PUSH2 0x8B9 JUMP JUMPDEST PUSH1 0x40 MLOAD DUP1 SWAP2 SUB SWAP1 RETURN JUMPDEST PUSH2 0x1AA PUSH2 0x4C2 JUMP JUMPDEST PUSH1 0x40 MLOAD PUSH2 0x1B7 SWAP2 SWAP1 PUSH2 0x875 JUMP JUMPDEST PUSH1 0x40 MLOAD DUP1 SWAP2 SUB SWAP1 RETURN JUMPDEST PUSH2 0x1DA PUSH1 0x4 DUP1 CALLDATASIZE SUB DUP2 ADD SWAP1 PUSH2 0x1D5 SWAP2 SWAP1 PUSH2 0x6E3 JUMP JUMPDEST PUSH2 0x550 JUMP JUMPDEST PUSH1 0x40 MLOAD PUSH2 0x1E7 SWAP2 SWAP1 PUSH2 0x8B9 JUMP JUMPDEST PUSH1 0x40 MLOAD DUP1 SWAP2 SUB SWAP1 RETURN JUMPDEST PUSH2 0x1F8 PUSH2 0x57E JUMP JUMPDEST PUSH1 0x40 MLOAD PUSH2 0x205 SWAP2 SWAP1 PUSH2 0x85A JUMP JUMPDEST PUSH1 0x40 MLOAD DUP1 SWAP2 SUB SWAP1 RETURN JUMPDEST PUSH2 0x228 PUSH1 0x4 DUP1 CALLDATASIZE SUB DUP2 ADD SWAP1 PUSH2 0x223 SWAP2 SWAP1 PUSH2 0x6B6 JUMP JUMPDEST PUSH2 0x584 JUMP JUMPDEST STOP JUMPDEST PUSH1 0x5 PUSH1 0x0 DUP1 PUSH1 0xA DUP2 LT PUSH2 0x240 JUMPI PUSH2 0x23F PUSH2 0xA76 JUMP JUMPDEST JUMPDEST ADD SLOAD PUSH2 0x24C SWAP2 SWAP1 PUSH2 0x945 JUMP JUMPDEST PUSH1 0x0 DUP1 PUSH1 0xA DUP2 LT PUSH2 0x260 JUMPI PUSH2 0x25F PUSH2 0xA76 JUMP JUMPDEST JUMPDEST ADD DUP2 SWAP1 SSTORE POP PUSH1 0x0 DUP1 PUSH1 0xA DUP2 LT PUSH2 0x279 JUMPI PUSH2 0x278 PUSH2 0xA76 JUMP JUMPDEST JUMPDEST ADD SLOAD PUSH1 0x0 PUSH1 0x5 PUSH1 0xA DUP2 LT PUSH2 0x290 JUMPI PUSH2 0x28F PUSH2 0xA76 JUMP JUMPDEST JUMPDEST ADD DUP2 SWAP1 SSTORE POP PUSH1 0x40 MLOAD DUP1 PUSH1 0xA0 ADD PUSH1 0x40 MSTORE DUP1 PUSH1 0x40 MLOAD DUP1 PUSH1 0x40 ADD PUSH1 0x40 MSTORE DUP1 PUSH1 0x1 PUSH1 0xFF AND DUP2 MSTORE PUSH1 0x20 ADD PUSH1 0x2 PUSH1 0xFF AND DUP2 MSTORE POP DUP2 MSTORE PUSH1 0x20 ADD PUSH1 0x40 MLOAD DUP1 PUSH1 0x40 ADD PUSH1 0x40 MSTORE DUP1 PUSH1 0x1 PUSH1 0xFF AND DUP2 MSTORE PUSH1 0x20 ADD PUSH1 0x2 PUSH1 0xFF AND DUP2 MSTORE POP DUP2 MSTORE PUSH1 0x20 ADD PUSH1 0x40 MLOAD DUP1 PUSH1 0x40 ADD PUSH1 0x40 MSTORE DUP1 PUSH1 0x1 PUSH1 0xFF AND DUP2 MSTORE PUSH1 0x20 ADD PUSH1 0x2 PUSH1 0xFF AND DUP2 MSTORE POP DUP2 MSTORE PUSH1 0x20 ADD PUSH1 0x40 MLOAD DUP1 PUSH1 0x40 ADD PUSH1 0x40 MSTORE DUP1 PUSH1 0x1 PUSH1 0xFF AND DUP2 MSTORE PUSH1 0x20 ADD PUSH1 0x2 PUSH1 0xFF AND DUP2 MSTORE POP DUP2 MSTORE PUSH1 0x20 ADD PUSH1 0x40 MLOAD DUP1 PUSH1 0x40 ADD PUSH1 0x40 MSTORE DUP1 PUSH1 0x1 PUSH1 0xFF AND DUP2 MSTORE PUSH1 0x20 ADD PUSH1 0x2 PUSH1 0xFF AND DUP2 MSTORE POP DUP2 MSTORE POP PUSH1 0xC SWAP1 PUSH1 0x5 PUSH2 0x358 SWAP3 SWAP2 SWAP1 PUSH2 0x5BC JUMP JUMPDEST POP JUMP JUMPDEST PUSH1 0x17 SLOAD DUP2 JUMP JUMPDEST PUSH1 0x16 DUP2 DUP2 SLOAD DUP2 LT PUSH2 0x371 JUMPI PUSH1 0x0 DUP1 REVERT JUMPDEST SWAP1 PUSH1 0x0 MSTORE PUSH1 0x20 PUSH1 0x0 KECCAK256 ADD PUSH1 0x0 SWAP2 POP SWAP1 POP SLOAD DUP2 JUMP JUMPDEST PUSH1 0xA DUP2 PUSH1 0x2 DUP2 LT PUSH2 0x395 JUMPI PUSH1 0x0 DUP1 REVERT JUMPDEST ADD PUSH1 0x0 SWAP2 POP SWAP1 POP DUP1 SLOAD PUSH2 0x3A7 SWAP1 PUSH2 0x9E6 JUMP JUMPDEST DUP1 PUSH1 0x1F ADD PUSH1 0x20 DUP1 SWAP2 DIV MUL PUSH1 0x20 ADD PUSH1 0x40 MLOAD SWAP1 DUP2 ADD PUSH1 0x40 MSTORE DUP1 SWAP3 SWAP2 SWAP1 DUP2 DUP2 MSTORE PUSH1 0x20 ADD DUP3 DUP1 SLOAD PUSH2 0x3D3 SWAP1 PUSH2 0x9E6 JUMP JUMPDEST DUP1 ISZERO PUSH2 0x420 JUMPI DUP1 PUSH1 0x1F LT PUSH2 0x3F5 JUMPI PUSH2 0x100 DUP1 DUP4 SLOAD DIV MUL DUP4 MSTORE SWAP2 PUSH1 0x20 ADD SWAP2 PUSH2 0x420 JUMP JUMPDEST DUP3 ADD SWAP2 SWAP1 PUSH1 0x0 MSTORE PUSH1 0x20 PUSH1 0x0 KECCAK256 SWAP1 JUMPDEST DUP2 SLOAD DUP2 MSTORE SWAP1 PUSH1 0x1 ADD SWAP1 PUSH1 0x20 ADD DUP1 DUP4 GT PUSH2 0x403 JUMPI DUP3 SWAP1 SUB PUSH1 0x1F AND DUP3 ADD SWAP2 JUMPDEST POP POP POP POP POP DUP2 JUMP JUMPDEST PUSH1 0x60 PUSH1 0x0 PUSH1 0x5 PUSH8 0xFFFFFFFFFFFFFFFF DUP2 GT ISZERO PUSH2 0x447 JUMPI PUSH2 0x446 PUSH2 0xAA5 JUMP JUMPDEST JUMPDEST PUSH1 0x40 MLOAD SWAP1 DUP1 DUP3 MSTORE DUP1 PUSH1 0x20 MUL PUSH1 0x20 ADD DUP3 ADD PUSH1 0x40 MSTORE DUP1 ISZERO PUSH2 0x475 JUMPI DUP2 PUSH1 0x20 ADD PUSH1 0x20 DUP3 MUL DUP1 CALLDATASIZE DUP4 CALLDATACOPY DUP1 DUP3 ADD SWAP2 POP POP SWAP1 POP JUMPDEST POP SWAP1 POP PUSH1 0x0 DUP2 PUSH1 0x4 DUP2 MLOAD DUP2 LT PUSH2 0x48E JUMPI PUSH2 0x48D PUSH2 0xA76 JUMP JUMPDEST JUMPDEST PUSH1 0x20 MUL PUSH1 0x20 ADD ADD DUP2 DUP2 MSTORE POP POP DUP1 SWAP2 POP POP SWAP1 JUMP JUMPDEST PUSH1 0x0 DUP2 PUSH1 0xA DUP2 LT PUSH2 0x4B1 JUMPI PUSH1 0x0 DUP1 REVERT JUMPDEST ADD PUSH1 0x0 SWAP2 POP SWAP1 POP SLOAD DUP2 JUMP JUMPDEST PUSH1 0x1A SLOAD DUP2 JUMP JUMPDEST PUSH1 0x19 DUP1 SLOAD PUSH2 0x4CF SWAP1 PUSH2 0x9E6 JUMP JUMPDEST DUP1 PUSH1 0x1F ADD PUSH1 0x20 DUP1 SWAP2 DIV MUL PUSH1 0x20 ADD PUSH1 0x40 MLOAD SWAP1 DUP2 ADD PUSH1 0x40 MSTORE DUP1 SWAP3 SWAP2 SWAP1 DUP2 DUP2 MSTORE PUSH1 0x20 ADD DUP3 DUP1 SLOAD PUSH2 0x4FB SWAP1 PUSH2 0x9E6 JUMP JUMPDEST DUP1 ISZERO PUSH2 0x548 JUMPI DUP1 PUSH1 0x1F LT PUSH2 0x51D JUMPI PUSH2 0x100 DUP1 DUP4 SLOAD DIV MUL DUP4 MSTORE SWAP2 PUSH1 0x20 ADD SWAP2 PUSH2 0x548 JUMP JUMPDEST DUP3 ADD SWAP2 SWAP1 PUSH1 0x0 MSTORE PUSH1 0x20 PUSH1 0x0 KECCAK256 SWAP1 JUMPDEST DUP2 SLOAD DUP2 MSTORE SWAP1 PUSH1 0x1 ADD SWAP1 PUSH1 0x20 ADD DUP1 DUP4 GT PUSH2 0x52B JUMPI DUP3 SWAP1 SUB PUSH1 0x1F AND DUP3 ADD SWAP2 JUMPDEST POP POP POP POP POP DUP2 JUMP JUMPDEST PUSH1 0xC DUP3 PUSH1 0x5 DUP2 LT PUSH2 0x560 JUMPI PUSH1 0x0 DUP1 REVERT JUMPDEST PUSH1 0x2 MUL ADD DUP2 PUSH1 0x2 DUP2 LT PUSH2 0x572 JUMPI PUSH1 0x0 DUP1 REVERT JUMPDEST ADD PUSH1 0x0 SWAP2 POP SWAP2 POP POP SLOAD DUP2 JUMP JUMPDEST PUSH1 0x18 SLOAD DUP2 JUMP JUMPDEST PUSH1 0x16 DUP2 SWAP1 DUP1 PUSH1 0x1 DUP2 SLOAD ADD DUP1 DUP3 SSTORE DUP1 SWAP2 POP POP PUSH1 0x1 SWAP1 SUB SWAP1 PUSH1 0x0 MSTORE PUSH1 0x20 PUSH1 0x0 KECCAK256 ADD PUSH1 0x0 SWAP1 SWAP2 SWAP1 SWAP2 SWAP1 SWAP2 POP SSTORE PUSH1 0x16 DUP1 SLOAD SWAP1 POP PUSH1 0x17 DUP2 SWAP1 SSTORE POP POP JUMP JUMPDEST DUP3 PUSH1 0x5 PUSH1 0x2 MUL DUP2 ADD SWAP3 DUP3 ISZERO PUSH2 0x5FC JUMPI SWAP2 PUSH1 0x20 MUL DUP3 ADD JUMPDEST DUP3 DUP2 GT ISZERO PUSH2 0x5FB JUMPI DUP3 MLOAD DUP3 SWAP1 PUSH1 0x2 PUSH2 0x5EB SWAP3 SWAP2 SWAP1 PUSH2 0x60D JUMP JUMPDEST POP SWAP2 PUSH1 0x20 ADD SWAP2 SWAP1 PUSH1 0x2 ADD SWAP1 PUSH2 0x5D2 JUMP JUMPDEST JUMPDEST POP SWAP1 POP PUSH2 0x609 SWAP2 SWAP1 PUSH2 0x652 JUMP JUMPDEST POP SWAP1 JUMP JUMPDEST DUP3 PUSH1 0x2 DUP2 ADD SWAP3 DUP3 ISZERO PUSH2 0x641 JUMPI SWAP2 PUSH1 0x20 MUL DUP3 ADD JUMPDEST DUP3 DUP2 GT ISZERO PUSH2 0x640 JUMPI DUP3 MLOAD DUP3 SWAP1 PUSH1 0xFF AND SWAP1 SSTORE SWAP2 PUSH1 0x20 ADD SWAP2 SWAP1 PUSH1 0x1 ADD SWAP1 PUSH2 0x620 JUMP JUMPDEST JUMPDEST POP SWAP1 POP PUSH2 0x64E SWAP2 SWAP1 PUSH2 0x676 JUMP JUMPDEST POP SWAP1 JUMP JUMPDEST JUMPDEST DUP1 DUP3 GT ISZERO PUSH2 0x672 JUMPI PUSH1 0x0 DUP2 DUP2 PUSH2 0x669 SWAP2 SWAP1 PUSH2 0x693 JUMP JUMPDEST POP PUSH1 0x2 ADD PUSH2 0x653 JUMP JUMPDEST POP SWAP1 JUMP JUMPDEST JUMPDEST DUP1 DUP3 GT ISZERO PUSH2 0x68F JUMPI PUSH1 0x0 DUP2 PUSH1 0x0 SWAP1 SSTORE POP PUSH1 0x1 ADD PUSH2 0x677 JUMP JUMPDEST POP SWAP1 JUMP JUMPDEST POP PUSH1 0x0 DUP2 SSTORE PUSH1 0x1 ADD PUSH1 0x0 SWAP1 SSTORE JUMP JUMPDEST PUSH1 0x0 DUP2 CALLDATALOAD SWAP1 POP PUSH2 0x6B0 DUP2 PUSH2 0xAEA JUMP JUMPDEST SWAP3 SWAP2 POP POP JUMP JUMPDEST PUSH1 0x0 PUSH1 0x20 DUP3 DUP5 SUB SLT ISZERO PUSH2 0x6CC JUMPI PUSH2 0x6CB PUSH2 0xAD4 JUMP JUMPDEST JUMPDEST PUSH1 0x0 PUSH2 0x6DA DUP5 DUP3 DUP6 ADD PUSH2 0x6A1 JUMP JUMPDEST SWAP2 POP POP SWAP3 SWAP2 POP POP JUMP JUMPDEST PUSH1 0x0 DUP1 PUSH1 0x40 DUP4 DUP6 SUB SLT ISZERO PUSH2 0x6FA JUMPI PUSH2 0x6F9 PUSH2 0xAD4 JUMP JUMPDEST JUMPDEST PUSH1 0x0 PUSH2 0x708 DUP6 DUP3 DUP7 ADD PUSH2 0x6A1 JUMP JUMPDEST SWAP3 POP POP PUSH1 0x20 PUSH2 0x719 DUP6 DUP3 DUP7 ADD PUSH2 0x6A1 JUMP JUMPDEST SWAP2 POP POP SWAP3 POP SWAP3 SWAP1 POP JUMP JUMPDEST PUSH1 0x0 PUSH2 0x72F DUP4 DUP4 PUSH2 0x81A JUMP JUMPDEST PUSH1 0x20 DUP4 ADD SWAP1 POP SWAP3 SWAP2 POP POP JUMP JUMPDEST PUSH1 0x0 PUSH2 0x746 DUP3 PUSH2 0x8E4 JUMP JUMPDEST PUSH2 0x750 DUP2 DUP6 PUSH2 0x912 JUMP JUMPDEST SWAP4 POP PUSH2 0x75B DUP4 PUSH2 0x8D4 JUMP JUMPDEST DUP1 PUSH1 0x0 JUMPDEST DUP4 DUP2 LT ISZERO PUSH2 0x78C JUMPI DUP2 MLOAD PUSH2 0x773 DUP9 DUP3 PUSH2 0x723 JUMP JUMPDEST SWAP8 POP PUSH2 0x77E DUP4 PUSH2 0x905 JUMP JUMPDEST SWAP3 POP POP PUSH1 0x1 DUP2 ADD SWAP1 POP PUSH2 0x75F JUMP JUMPDEST POP DUP6 SWAP4 POP POP POP POP SWAP3 SWAP2 POP POP JUMP JUMPDEST PUSH2 0x7A2 DUP2 PUSH2 0x99F JUMP JUMPDEST DUP3 MSTORE POP POP JUMP JUMPDEST PUSH1 0x0 PUSH2 0x7B3 DUP3 PUSH2 0x8EF JUMP JUMPDEST PUSH2 0x7BD DUP2 DUP6 PUSH2 0x923 JUMP JUMPDEST SWAP4 POP PUSH2 0x7CD DUP2 DUP6 PUSH1 0x20 DUP7 ADD PUSH2 0x9B3 JUMP JUMPDEST PUSH2 0x7D6 DUP2 PUSH2 0xAD9 JUMP JUMPDEST DUP5 ADD SWAP2 POP POP SWAP3 SWAP2 POP POP JUMP JUMPDEST PUSH1 0x0 PUSH2 0x7EC DUP3 PUSH2 0x8FA JUMP JUMPDEST PUSH2 0x7F6 DUP2 DUP6 PUSH2 0x934 JUMP JUMPDEST SWAP4 POP PUSH2 0x806 DUP2 DUP6 PUSH1 0x20 DUP7 ADD PUSH2 0x9B3 JUMP JUMPDEST PUSH2 0x80F DUP2 PUSH2 0xAD9 JUMP JUMPDEST DUP5 ADD SWAP2 POP POP SWAP3 SWAP2 POP POP JUMP JUMPDEST PUSH2 0x823 DUP2 PUSH2 0x9A9 JUMP JUMPDEST DUP3 MSTORE POP POP JUMP JUMPDEST PUSH2 0x832 DUP2 PUSH2 0x9A9 JUMP JUMPDEST DUP3 MSTORE POP POP JUMP JUMPDEST PUSH1 0x0 PUSH1 0x20 DUP3 ADD SWAP1 POP DUP2 DUP2 SUB PUSH1 0x0 DUP4 ADD MSTORE PUSH2 0x852 DUP2 DUP5 PUSH2 0x73B JUMP JUMPDEST SWAP1 POP SWAP3 SWAP2 POP POP JUMP JUMPDEST PUSH1 0x0 PUSH1 0x20 DUP3 ADD SWAP1 POP PUSH2 0x86F PUSH1 0x0 DUP4 ADD DUP5 PUSH2 0x799 JUMP JUMPDEST SWAP3 SWAP2 POP POP JUMP JUMPDEST PUSH1 0x0 PUSH1 0x20 DUP3 ADD SWAP1 POP DUP2 DUP2 SUB PUSH1 0x0 DUP4 ADD MSTORE PUSH2 0x88F DUP2 DUP5 PUSH2 0x7A8 JUMP JUMPDEST SWAP1 POP SWAP3 SWAP2 POP POP JUMP JUMPDEST PUSH1 0x0 PUSH1 0x20 DUP3 ADD SWAP1 POP DUP2 DUP2 SUB PUSH1 0x0 DUP4 ADD MSTORE PUSH2 0x8B1 DUP2 DUP5 PUSH2 0x7E1 JUMP JUMPDEST SWAP1 POP SWAP3 SWAP2 POP POP JUMP JUMPDEST PUSH1 0x0 PUSH1 0x20 DUP3 ADD SWAP1 POP PUSH2 0x8CE PUSH1 0x0 DUP4 ADD DUP5 PUSH2 0x829 JUMP JUMPDEST SWAP3 SWAP2 POP POP JUMP JUMPDEST PUSH1 0x0 DUP2 SWAP1 POP PUSH1 0x20 DUP3 ADD SWAP1 POP SWAP2 SWAP1 POP JUMP JUMPDEST PUSH1 0x0 DUP2 MLOAD SWAP1 POP SWAP2 SWAP1 POP JUMP JUMPDEST PUSH1 0x0 DUP2 MLOAD SWAP1 POP SWAP2 SWAP1 POP JUMP JUMPDEST PUSH1 0x0 DUP2 MLOAD SWAP1 POP SWAP2 SWAP1 POP JUMP JUMPDEST PUSH1 0x0 PUSH1 0x20 DUP3 ADD SWAP1 POP SWAP2 SWAP1 POP JUMP JUMPDEST PUSH1 0x0 DUP3 DUP3 MSTORE PUSH1 0x20 DUP3 ADD SWAP1 POP SWAP3 SWAP2 POP POP JUMP JUMPDEST PUSH1 0x0 DUP3 DUP3 MSTORE PUSH1 0x20 DUP3 ADD SWAP1 POP SWAP3 SWAP2 POP POP JUMP JUMPDEST PUSH1 0x0 DUP3 DUP3 MSTORE PUSH1 0x20 DUP3 ADD SWAP1 POP SWAP3 SWAP2 POP POP JUMP JUMPDEST PUSH1 0x0 PUSH2 0x950 DUP3 PUSH2 0x9A9 JUMP JUMPDEST SWAP2 POP PUSH2 0x95B DUP4 PUSH2 0x9A9 JUMP JUMPDEST SWAP3 POP DUP2 PUSH32 0xFFFFFFFFFFFFFFFFFFFFFFFFFFFFFFFFFFFFFFFFFFFFFFFFFFFFFFFFFFFFFFFF DIV DUP4 GT DUP3 ISZERO ISZERO AND ISZERO PUSH2 0x994 JUMPI PUSH2 0x993 PUSH2 0xA18 JUMP JUMPDEST JUMPDEST DUP3 DUP3 MUL SWAP1 POP SWAP3 SWAP2 POP POP JUMP JUMPDEST PUSH1 0x0 DUP2 SWAP1 POP SWAP2 SWAP1 POP JUMP JUMPDEST PUSH1 0x0 DUP2 SWAP1 POP SWAP2 SWAP1 POP JUMP JUMPDEST PUSH1 0x0 JUMPDEST DUP4 DUP2 LT ISZERO PUSH2 0x9D1 JUMPI DUP1 DUP3 ADD MLOAD DUP2 DUP5 ADD MSTORE PUSH1 0x20 DUP2 ADD SWAP1 POP PUSH2 0x9B6 JUMP JUMPDEST DUP4 DUP2 GT ISZERO PUSH2 0x9E0 JUMPI PUSH1 0x0 DUP5 DUP5 ADD MSTORE JUMPDEST POP POP POP POP JUMP JUMPDEST PUSH1 0x0 PUSH1 0x2 DUP3 DIV SWAP1 POP PUSH1 0x1 DUP3 AND DUP1 PUSH2 0x9FE JUMPI PUSH1 0x7F DUP3 AND SWAP2 POP JUMPDEST PUSH1 0x20 DUP3 LT DUP2 EQ ISZERO PUSH2 0xA12 JUMPI PUSH2 0xA11 PUSH2 0xA47 JUMP JUMPDEST JUMPDEST POP SWAP2 SWAP1 POP JUMP JUMPDEST PUSH32 0x4E487B7100000000000000000000000000000000000000000000000000000000 PUSH1 0x0 MSTORE PUSH1 0x11 PUSH1 0x4 MSTORE PUSH1 0x24 PUSH1 0x0 REVERT JUMPDEST PUSH32 0x4E487B7100000000000000000000000000000000000000000000000000000000 PUSH1 0x0 MSTORE PUSH1 0x22 PUSH1 0x4 MSTORE PUSH1 0x24 PUSH1 0x0 REVERT JUMPDEST PUSH32 0x4E487B7100000000000000000000000000000000000000000000000000000000 PUSH1 0x0 MSTORE PUSH1 0x32 PUSH1 0x4 MSTORE PUSH1 0x24 PUSH1 0x0 REVERT JUMPDEST PUSH32 0x4E487B7100000000000000000000000000000000000000000000000000000000 PUSH1 0x0 MSTORE PUSH1 0x41 PUSH1 0x4 MSTORE PUSH1 0x24 PUSH1 0x0 REVERT JUMPDEST PUSH1 0x0 DUP1 REVERT JUMPDEST PUSH1 0x0 PUSH1 0x1F NOT PUSH1 0x1F DUP4 ADD AND SWAP1 POP SWAP2 SWAP1 POP JUMP JUMPDEST PUSH2 0xAF3 DUP2 PUSH2 0x9A9 JUMP JUMPDEST DUP2 EQ PUSH2 0xAFE JUMPI PUSH1 0x0 DUP1 REVERT JUMPDEST POP JUMP INVALID LOG2 PUSH5 0x6970667358 0x22 SLT KECCAK256 SMOD 0xE3 ADDRESS PUSH26 0x34182604C9D76431FE5F28B656254D5852BBCEB68625E1B66AFB 0xE1 DUP2 PUSH5 0x736F6C6343 STOP ADDMOD SMOD STOP CALLER "
				},
				"gasEstimates": {
					"creation": {
						"codeDepositCost": "574200",
						"executionCost": "infinite",
						"totalCost": "infinite"
					},
					"external": {
						"dynArr(uint256)": "infinite",
						"dynArrLength()": "2452",
						"hobLength()": "2451",
						"hobait()": "infinite",
						"hobit()": "2517",
						"items(uint256)": "infinite",
						"list(uint256)": "infinite",
						"matrix(uint256,uint256)": "infinite",
						"modDynamicArr(uint256)": "71161",
						"modifyArray()": "infinite",
						"sampleMemory()": "infinite"
					}
				},
				"methodIdentifiers": {
					"dynArr(uint256)": "5a79b850",
					"dynArrLength()": "500d850f",
					"hobLength()": "c602a86a",
					"hobait()": "ce8a7af6",
					"hobit()": "e334d9d9",
					"items(uint256)": "bfb231d2",
					"list(uint256)": "80c9419e",
					"matrix(uint256,uint256)": "d9a38d64",
					"modDynamicArr(uint256)": "e3440466",
					"modifyArray()": "304acd68",
					"sampleMemory()": "a34343c9"
				}
			},
			"storageLayout": {
				"storage": [
					{
						"astId": 9,
						"contract": "contracts/Lesson4Types.sol:Array4Lesson",
						"label": "items",
						"offset": 0,
						"slot": "0",
						"type": "t_array(t_uint256)10_storage"
					},
					{
						"astId": 15,
						"contract": "contracts/Lesson4Types.sol:Array4Lesson",
						"label": "list",
						"offset": 0,
						"slot": "10",
						"type": "t_array(t_string_storage)2_storage"
					},
					{
						"astId": 21,
						"contract": "contracts/Lesson4Types.sol:Array4Lesson",
						"label": "matrix",
						"offset": 0,
						"slot": "12",
						"type": "t_array(t_array(t_uint256)2_storage)5_storage"
					},
					{
						"astId": 24,
						"contract": "contracts/Lesson4Types.sol:Array4Lesson",
						"label": "dynArr",
						"offset": 0,
						"slot": "22",
						"type": "t_array(t_uint256)dyn_storage"
					},
					{
						"astId": 27,
						"contract": "contracts/Lesson4Types.sol:Array4Lesson",
						"label": "dynArrLength",
						"offset": 0,
						"slot": "23",
						"type": "t_uint256"
					},
					{
						"astId": 30,
						"contract": "contracts/Lesson4Types.sol:Array4Lesson",
						"label": "hobit",
						"offset": 0,
						"slot": "24",
						"type": "t_bytes32"
					},
					{
						"astId": 33,
						"contract": "contracts/Lesson4Types.sol:Array4Lesson",
						"label": "hobait",
						"offset": 0,
						"slot": "25",
						"type": "t_bytes_storage"
					},
					{
						"astId": 37,
						"contract": "contracts/Lesson4Types.sol:Array4Lesson",
						"label": "hobLength",
						"offset": 0,
						"slot": "26",
						"type": "t_uint256"
					}
				],
				"types": {
					"t_array(t_array(t_uint256)2_storage)5_storage": {
						"base": "t_array(t_uint256)2_storage",
						"encoding": "inplace",
						"label": "uint256[2][5]",
						"numberOfBytes": "320"
					},
					"t_array(t_string_storage)2_storage": {
						"base": "t_string_storage",
						"encoding": "inplace",
						"label": "string[2]",
						"numberOfBytes": "64"
					},
					"t_array(t_uint256)10_storage": {
						"base": "t_uint256",
						"encoding": "inplace",
						"label": "uint256[10]",
						"numberOfBytes": "320"
					},
					"t_array(t_uint256)2_storage": {
						"base": "t_uint256",
						"encoding": "inplace",
						"label": "uint256[2]",
						"numberOfBytes": "64"
					},
					"t_array(t_uint256)dyn_storage": {
						"base": "t_uint256",
						"encoding": "dynamic_array",
						"label": "uint256[]",
						"numberOfBytes": "32"
					},
					"t_bytes32": {
						"encoding": "inplace",
						"label": "bytes32",
						"numberOfBytes": "32"
					},
					"t_bytes_storage": {
						"encoding": "bytes",
						"label": "bytes",
						"numberOfBytes": "32"
					},
					"t_string_storage": {
						"encoding": "bytes",
						"label": "string",
						"numberOfBytes": "32"
					},
					"t_uint256": {
						"encoding": "inplace",
						"label": "uint256",
						"numberOfBytes": "32"
					}
				}
			},
			"userdoc": {
				"kind": "user",
				"methods": {},
				"version": 1
			}
		}
	}
}