{
	"contracts/Lesson1Types.sol": {
		"DemoInt": {
			"abi": [
				{
					"inputs": [],
					"name": "demo",
					"outputs": [],
					"stateMutability": "nonpayable",
					"type": "function"
				},
				{
					"inputs": [],
					"name": "inc",
					"outputs": [],
					"stateMutability": "nonpayable",
					"type": "function"
				},
				{
					"inputs": [],
					"name": "max",
					"outputs": [
						{
							"internalType": "uint256",
							"name": "",
							"type": "uint256"
						}
					],
					"stateMutability": "view",
					"type": "function"
				},
				{
					"inputs": [],
					"name": "min",
					"outputs": [
						{
							"internalType": "uint256",
							"name": "",
							"type": "uint256"
						}
					],
					"stateMutability": "view",
					"type": "function"
				},
				{
					"inputs": [
						{
							"internalType": "uint256",
							"name": "_tempUint",
							"type": "uint256"
						}
					],
					"name": "myFunc",
					"outputs": [],
					"stateMutability": "nonpayable",
					"type": "function"
				},
				{
					"inputs": [],
					"name": "myInt",
					"outputs": [
						{
							"internalType": "int256",
							"name": "",
							"type": "int256"
						}
					],
					"stateMutability": "view",
					"type": "function"
				},
				{
					"inputs": [],
					"name": "mySmallestInt",
					"outputs": [
						{
							"internalType": "int8",
							"name": "",
							"type": "int8"
						}
					],
					"stateMutability": "view",
					"type": "function"
				},
				{
					"inputs": [],
					"name": "tempVal",
					"outputs": [
						{
							"internalType": "uint8",
							"name": "",
							"type": "uint8"
						}
					],
					"stateMutability": "view",
					"type": "function"
				}
			],
			"devdoc": {
				"kind": "dev",
				"methods": {},
				"version": 1
			},
			"evm": {
				"assembly": "    /* \"contracts/Lesson1Types.sol\":1029:2245  contract DemoInt {... */\n  mstore(0x40, 0x80)\n    /* \"contracts/Lesson1Types.sol\":1066:1068  10 */\n  0x0a\n    /* \"contracts/Lesson1Types.sol\":1052:1068  uint myUint = 10 */\n  0x00\n  sstore\n    /* \"contracts/Lesson1Types.sol\":1885:1888  -22 */\n  0xffffffffffffffffffffffffffffffffffffffffffffffffffffffffffffffea\n    /* \"contracts/Lesson1Types.sol\":1866:1888  int public myInt = -22 */\n  0x01\n  sstore\n    /* \"contracts/Lesson1Types.sol\":1922:1924  -1 */\n  0xffffffffffffffffffffffffffffffffffffffffffffffffffffffffffffffff\n    /* \"contracts/Lesson1Types.sol\":1894:1924  int8 public mySmallestInt = -1 */\n  0x02\n  exp(0x0100, 0x00)\n  dup2\n  sload\n  dup2\n  0xff\n  mul\n  not\n  and\n  swap1\n  dup4\n  0x00\n  signextend\n  0xff\n  and\n  mul\n  or\n  swap1\n  sstore\n  pop\n    /* \"contracts/Lesson1Types.sol\":2130:2133  254 */\n  0xfe\n    /* \"contracts/Lesson1Types.sol\":2107:2133  uint8 public tempVal = 254 */\n  0x05\n  exp(0x0100, 0x00)\n  dup2\n  sload\n  dup2\n  0xff\n  mul\n  not\n  and\n  swap1\n  dup4\n  0xff\n  and\n  mul\n  or\n  swap1\n  sstore\n  pop\n    /* \"contracts/Lesson1Types.sol\":1029:2245  contract DemoInt {... */\n  callvalue\n  dup1\n  iszero\n  tag_1\n  jumpi\n  0x00\n  dup1\n  revert\ntag_1:\n  pop\n  dataSize(sub_0)\n  dup1\n  dataOffset(sub_0)\n  0x00\n  codecopy\n  0x00\n  return\nstop\n\nsub_0: assembly {\n        /* \"contracts/Lesson1Types.sol\":1029:2245  contract DemoInt {... */\n      mstore(0x40, 0x80)\n      callvalue\n      dup1\n      iszero\n      tag_1\n      jumpi\n      0x00\n      dup1\n      revert\n    tag_1:\n      pop\n      jumpi(tag_2, lt(calldatasize, 0x04))\n      shr(0xe0, calldataload(0x00))\n      dup1\n      0x6ac5db19\n      gt\n      tag_11\n      jumpi\n      dup1\n      0x6ac5db19\n      eq\n      tag_7\n      jumpi\n      dup1\n      0xa9bf5633\n      eq\n      tag_8\n      jumpi\n      dup1\n      0xa9e23bea\n      eq\n      tag_9\n      jumpi\n      dup1\n      0xf8897945\n      eq\n      tag_10\n      jumpi\n      jump(tag_2)\n    tag_11:\n      dup1\n      0x01725a0b\n      eq\n      tag_3\n      jumpi\n      dup1\n      0x0b79ba80\n      eq\n      tag_4\n      jumpi\n      dup1\n      0x2cb777a6\n      eq\n      tag_5\n      jumpi\n      dup1\n      0x371303c0\n      eq\n      tag_6\n      jumpi\n    tag_2:\n      0x00\n      dup1\n      revert\n        /* \"contracts/Lesson1Types.sol\":2009:2101  function demo() public {... */\n    tag_3:\n      tag_12\n      tag_13\n      jump\t// in\n    tag_12:\n      stop\n        /* \"contracts/Lesson1Types.sol\":1894:1924  int8 public mySmallestInt = -1 */\n    tag_4:\n      tag_14\n      tag_15\n      jump\t// in\n    tag_14:\n      mload(0x40)\n      tag_16\n      swap2\n      swap1\n      tag_17\n      jump\t// in\n    tag_16:\n      mload(0x40)\n      dup1\n      swap2\n      sub\n      swap1\n      return\n        /* \"contracts/Lesson1Types.sol\":1866:1888  int public myInt = -22 */\n    tag_5:\n      tag_18\n      tag_19\n      jump\t// in\n    tag_18:\n      mload(0x40)\n      tag_20\n      swap2\n      swap1\n      tag_21\n      jump\t// in\n    tag_20:\n      mload(0x40)\n      dup1\n      swap2\n      sub\n      swap1\n      return\n        /* \"contracts/Lesson1Types.sol\":2139:2243  function inc() public {... */\n    tag_6:\n      tag_22\n      tag_23\n      jump\t// in\n    tag_22:\n      stop\n        /* \"contracts/Lesson1Types.sol\":1987:2002  uint public max */\n    tag_7:\n      tag_24\n      tag_25\n      jump\t// in\n    tag_24:\n      mload(0x40)\n      tag_26\n      swap2\n      swap1\n      tag_27\n      jump\t// in\n    tag_26:\n      mload(0x40)\n      dup1\n      swap2\n      sub\n      swap1\n      return\n        /* \"contracts/Lesson1Types.sol\":1125:1844  function myFunc(uint _tempUint) public {... */\n    tag_8:\n      tag_28\n      0x04\n      dup1\n      calldatasize\n      sub\n      dup2\n      add\n      swap1\n      tag_29\n      swap2\n      swap1\n      tag_30\n      jump\t// in\n    tag_29:\n      tag_31\n      jump\t// in\n    tag_28:\n      stop\n        /* \"contracts/Lesson1Types.sol\":2107:2133  uint8 public tempVal = 254 */\n    tag_9:\n      tag_32\n      tag_33\n      jump\t// in\n    tag_32:\n      mload(0x40)\n      tag_34\n      swap2\n      swap1\n      tag_35\n      jump\t// in\n    tag_34:\n      mload(0x40)\n      dup1\n      swap2\n      sub\n      swap1\n      return\n        /* \"contracts/Lesson1Types.sol\":1966:1981  uint public min */\n    tag_10:\n      tag_36\n      tag_37\n      jump\t// in\n    tag_36:\n      mload(0x40)\n      tag_38\n      swap2\n      swap1\n      tag_27\n      jump\t// in\n    tag_38:\n      mload(0x40)\n      dup1\n      swap2\n      sub\n      swap1\n      return\n        /* \"contracts/Lesson1Types.sol\":2009:2101  function demo() public {... */\n    tag_13:\n        /* \"contracts/Lesson1Types.sol\":2048:2063  type(uint8).min */\n      0x00\n        /* \"contracts/Lesson1Types.sol\":2042:2063  min = type(uint8).min */\n      0xff\n      and\n        /* \"contracts/Lesson1Types.sol\":2042:2045  min */\n      0x03\n        /* \"contracts/Lesson1Types.sol\":2042:2063  min = type(uint8).min */\n      dup2\n      swap1\n      sstore\n      pop\n        /* \"contracts/Lesson1Types.sol\":2079:2094  type(uint8).max */\n      0xff\n        /* \"contracts/Lesson1Types.sol\":2073:2094  max = type(uint8).max */\n      dup1\n      and\n        /* \"contracts/Lesson1Types.sol\":2073:2076  max */\n      0x04\n        /* \"contracts/Lesson1Types.sol\":2073:2094  max = type(uint8).max */\n      dup2\n      swap1\n      sstore\n      pop\n        /* \"contracts/Lesson1Types.sol\":2009:2101  function demo() public {... */\n      jump\t// out\n        /* \"contracts/Lesson1Types.sol\":1894:1924  int8 public mySmallestInt = -1 */\n    tag_15:\n      0x02\n      0x00\n      swap1\n      sload\n      swap1\n      0x0100\n      exp\n      swap1\n      div\n      0x00\n      signextend\n      dup2\n      jump\t// out\n        /* \"contracts/Lesson1Types.sol\":1866:1888  int public myInt = -22 */\n    tag_19:\n      sload(0x01)\n      dup2\n      jump\t// out\n        /* \"contracts/Lesson1Types.sol\":2139:2243  function inc() public {... */\n    tag_23:\n        /* \"contracts/Lesson1Types.sol\":2227:2234  tempVal */\n      0x05\n      0x00\n        /* \"contracts/Lesson1Types.sol\":2227:2236  tempVal++ */\n      dup2\n      dup2\n      swap1\n      sload\n      swap1\n      0x0100\n      exp\n      swap1\n      div\n      0xff\n      and\n      dup1\n      swap3\n      swap2\n      swap1\n      tag_41\n      swap1\n      tag_42\n      jump\t// in\n    tag_41:\n      swap2\n      swap1\n      0x0100\n      exp\n      dup2\n      sload\n      dup2\n      0xff\n      mul\n      not\n      and\n      swap1\n      dup4\n      0xff\n      and\n      mul\n      or\n      swap1\n      sstore\n      pop\n      pop\n        /* \"contracts/Lesson1Types.sol\":2139:2243  function inc() public {... */\n      jump\t// out\n        /* \"contracts/Lesson1Types.sol\":1987:2002  uint public max */\n    tag_25:\n      sload(0x04)\n      dup2\n      jump\t// out\n        /* \"contracts/Lesson1Types.sol\":1125:1844  function myFunc(uint _tempUint) public {... */\n    tag_31:\n        /* \"contracts/Lesson1Types.sol\":1174:1188  uint localUint */\n      0x00\n        /* \"contracts/Lesson1Types.sol\":1191:1193  42 */\n      0x2a\n        /* \"contracts/Lesson1Types.sol\":1174:1193  uint localUint = 42 */\n      swap1\n      pop\n        /* \"contracts/Lesson1Types.sol\":1203:1218  uint256 newUint */\n      0x00\n        /* \"contracts/Lesson1Types.sol\":1221:1225  1234 */\n      0x04d2\n        /* \"contracts/Lesson1Types.sol\":1203:1225  uint256 newUint = 1234 */\n      swap1\n      pop\n        /* \"contracts/Lesson1Types.sol\":1275:1293  uint8 smallestUint */\n      0x00\n        /* \"contracts/Lesson1Types.sol\":1296:1297  2 */\n      0x02\n        /* \"contracts/Lesson1Types.sol\":1275:1297  uint8 smallestUint = 2 */\n      swap1\n      pop\n        /* \"contracts/Lesson1Types.sol\":1352:1353  1 */\n      0x01\n        /* \"contracts/Lesson1Types.sol\":1340:1349  localUint */\n      dup4\n        /* \"contracts/Lesson1Types.sol\":1340:1353  localUint + 1 */\n      tag_44\n      swap2\n      swap1\n      tag_45\n      jump\t// in\n    tag_44:\n      pop\n        /* \"contracts/Lesson1Types.sol\":1375:1376  1 */\n      0x01\n        /* \"contracts/Lesson1Types.sol\":1363:1372  localUint */\n      dup4\n        /* \"contracts/Lesson1Types.sol\":1363:1376  localUint - 1 */\n      tag_46\n      swap2\n      swap1\n      tag_47\n      jump\t// in\n    tag_46:\n      pop\n        /* \"contracts/Lesson1Types.sol\":1398:1399  5 */\n      0x05\n        /* \"contracts/Lesson1Types.sol\":1386:1395  localUint */\n      dup4\n        /* \"contracts/Lesson1Types.sol\":1386:1399  localUint * 5 */\n      tag_48\n      swap2\n      swap1\n      tag_49\n      jump\t// in\n    tag_48:\n      pop\n        /* \"contracts/Lesson1Types.sol\":1421:1422  5 */\n      0x05\n        /* \"contracts/Lesson1Types.sol\":1409:1418  localUint */\n      dup4\n        /* \"contracts/Lesson1Types.sol\":1409:1422  localUint / 5 */\n      tag_50\n      swap2\n      swap1\n      tag_51\n      jump\t// in\n    tag_50:\n      pop\n        /* \"contracts/Lesson1Types.sol\":1445:1446  2 */\n      0x02\n        /* \"contracts/Lesson1Types.sol\":1432:1441  localUint */\n      dup4\n        /* \"contracts/Lesson1Types.sol\":1432:1446  localUint ** 2 */\n      tag_52\n      swap2\n      swap1\n      tag_53\n      jump\t// in\n    tag_52:\n      pop\n        /* \"contracts/Lesson1Types.sol\":1510:1511  1 */\n      0x01\n        /* \"contracts/Lesson1Types.sol\":1498:1507  localUint */\n      dup4\n        /* \"contracts/Lesson1Types.sol\":1498:1511  localUint % 1 */\n      tag_54\n      swap2\n      swap1\n      tag_55\n      jump\t// in\n    tag_54:\n      pop\n        /* \"contracts/Lesson1Types.sol\":1164:1844  {... */\n      pop\n      pop\n      pop\n        /* \"contracts/Lesson1Types.sol\":1125:1844  function myFunc(uint _tempUint) public {... */\n      pop\n      jump\t// out\n        /* \"contracts/Lesson1Types.sol\":2107:2133  uint8 public tempVal = 254 */\n    tag_33:\n      0x05\n      0x00\n      swap1\n      sload\n      swap1\n      0x0100\n      exp\n      swap1\n      div\n      0xff\n      and\n      dup2\n      jump\t// out\n        /* \"contracts/Lesson1Types.sol\":1966:1981  uint public min */\n    tag_37:\n      sload(0x03)\n      dup2\n      jump\t// out\n        /* \"#utility.yul\":7:146   */\n    tag_57:\n        /* \"#utility.yul\":53:58   */\n      0x00\n        /* \"#utility.yul\":91:97   */\n      dup2\n        /* \"#utility.yul\":78:98   */\n      calldataload\n        /* \"#utility.yul\":69:98   */\n      swap1\n      pop\n        /* \"#utility.yul\":107:140   */\n      tag_59\n        /* \"#utility.yul\":134:139   */\n      dup2\n        /* \"#utility.yul\":107:140   */\n      tag_60\n      jump\t// in\n    tag_59:\n        /* \"#utility.yul\":7:146   */\n      swap3\n      swap2\n      pop\n      pop\n      jump\t// out\n        /* \"#utility.yul\":152:481   */\n    tag_30:\n        /* \"#utility.yul\":211:217   */\n      0x00\n        /* \"#utility.yul\":260:262   */\n      0x20\n        /* \"#utility.yul\":248:257   */\n      dup3\n        /* \"#utility.yul\":239:246   */\n      dup5\n        /* \"#utility.yul\":235:258   */\n      sub\n        /* \"#utility.yul\":231:263   */\n      slt\n        /* \"#utility.yul\":228:347   */\n      iszero\n      tag_62\n      jumpi\n        /* \"#utility.yul\":266:345   */\n      tag_63\n      tag_64\n      jump\t// in\n    tag_63:\n        /* \"#utility.yul\":228:347   */\n    tag_62:\n        /* \"#utility.yul\":386:387   */\n      0x00\n        /* \"#utility.yul\":411:464   */\n      tag_65\n        /* \"#utility.yul\":456:463   */\n      dup5\n        /* \"#utility.yul\":447:453   */\n      dup3\n        /* \"#utility.yul\":436:445   */\n      dup6\n        /* \"#utility.yul\":432:454   */\n      add\n        /* \"#utility.yul\":411:464   */\n      tag_57\n      jump\t// in\n    tag_65:\n        /* \"#utility.yul\":401:464   */\n      swap2\n      pop\n        /* \"#utility.yul\":357:474   */\n      pop\n        /* \"#utility.yul\":152:481   */\n      swap3\n      swap2\n      pop\n      pop\n      jump\t// out\n        /* \"#utility.yul\":487:602   */\n    tag_66:\n        /* \"#utility.yul\":572:595   */\n      tag_68\n        /* \"#utility.yul\":589:594   */\n      dup2\n        /* \"#utility.yul\":572:595   */\n      tag_69\n      jump\t// in\n    tag_68:\n        /* \"#utility.yul\":567:570   */\n      dup3\n        /* \"#utility.yul\":560:596   */\n      mstore\n        /* \"#utility.yul\":487:602   */\n      pop\n      pop\n      jump\t// out\n        /* \"#utility.yul\":608:717   */\n    tag_70:\n        /* \"#utility.yul\":689:710   */\n      tag_72\n        /* \"#utility.yul\":704:709   */\n      dup2\n        /* \"#utility.yul\":689:710   */\n      tag_73\n      jump\t// in\n    tag_72:\n        /* \"#utility.yul\":684:687   */\n      dup3\n        /* \"#utility.yul\":677:711   */\n      mstore\n        /* \"#utility.yul\":608:717   */\n      pop\n      pop\n      jump\t// out\n        /* \"#utility.yul\":723:841   */\n    tag_74:\n        /* \"#utility.yul\":810:834   */\n      tag_76\n        /* \"#utility.yul\":828:833   */\n      dup2\n        /* \"#utility.yul\":810:834   */\n      tag_77\n      jump\t// in\n    tag_76:\n        /* \"#utility.yul\":805:808   */\n      dup3\n        /* \"#utility.yul\":798:835   */\n      mstore\n        /* \"#utility.yul\":723:841   */\n      pop\n      pop\n      jump\t// out\n        /* \"#utility.yul\":847:959   */\n    tag_78:\n        /* \"#utility.yul\":930:952   */\n      tag_80\n        /* \"#utility.yul\":946:951   */\n      dup2\n        /* \"#utility.yul\":930:952   */\n      tag_81\n      jump\t// in\n    tag_80:\n        /* \"#utility.yul\":925:928   */\n      dup3\n        /* \"#utility.yul\":918:953   */\n      mstore\n        /* \"#utility.yul\":847:959   */\n      pop\n      pop\n      jump\t// out\n        /* \"#utility.yul\":965:1183   */\n    tag_21:\n        /* \"#utility.yul\":1056:1060   */\n      0x00\n        /* \"#utility.yul\":1094:1096   */\n      0x20\n        /* \"#utility.yul\":1083:1092   */\n      dup3\n        /* \"#utility.yul\":1079:1097   */\n      add\n        /* \"#utility.yul\":1071:1097   */\n      swap1\n      pop\n        /* \"#utility.yul\":1107:1176   */\n      tag_83\n        /* \"#utility.yul\":1173:1174   */\n      0x00\n        /* \"#utility.yul\":1162:1171   */\n      dup4\n        /* \"#utility.yul\":1158:1175   */\n      add\n        /* \"#utility.yul\":1149:1155   */\n      dup5\n        /* \"#utility.yul\":1107:1176   */\n      tag_66\n      jump\t// in\n    tag_83:\n        /* \"#utility.yul\":965:1183   */\n      swap3\n      swap2\n      pop\n      pop\n      jump\t// out\n        /* \"#utility.yul\":1189:1399   */\n    tag_17:\n        /* \"#utility.yul\":1276:1280   */\n      0x00\n        /* \"#utility.yul\":1314:1316   */\n      0x20\n        /* \"#utility.yul\":1303:1312   */\n      dup3\n        /* \"#utility.yul\":1299:1317   */\n      add\n        /* \"#utility.yul\":1291:1317   */\n      swap1\n      pop\n        /* \"#utility.yul\":1327:1392   */\n      tag_85\n        /* \"#utility.yul\":1389:1390   */\n      0x00\n        /* \"#utility.yul\":1378:1387   */\n      dup4\n        /* \"#utility.yul\":1374:1391   */\n      add\n        /* \"#utility.yul\":1365:1371   */\n      dup5\n        /* \"#utility.yul\":1327:1392   */\n      tag_70\n      jump\t// in\n    tag_85:\n        /* \"#utility.yul\":1189:1399   */\n      swap3\n      swap2\n      pop\n      pop\n      jump\t// out\n        /* \"#utility.yul\":1405:1627   */\n    tag_27:\n        /* \"#utility.yul\":1498:1502   */\n      0x00\n        /* \"#utility.yul\":1536:1538   */\n      0x20\n        /* \"#utility.yul\":1525:1534   */\n      dup3\n        /* \"#utility.yul\":1521:1539   */\n      add\n        /* \"#utility.yul\":1513:1539   */\n      swap1\n      pop\n        /* \"#utility.yul\":1549:1620   */\n      tag_87\n        /* \"#utility.yul\":1617:1618   */\n      0x00\n        /* \"#utility.yul\":1606:1615   */\n      dup4\n        /* \"#utility.yul\":1602:1619   */\n      add\n        /* \"#utility.yul\":1593:1599   */\n      dup5\n        /* \"#utility.yul\":1549:1620   */\n      tag_74\n      jump\t// in\n    tag_87:\n        /* \"#utility.yul\":1405:1627   */\n      swap3\n      swap2\n      pop\n      pop\n      jump\t// out\n        /* \"#utility.yul\":1633:1847   */\n    tag_35:\n        /* \"#utility.yul\":1722:1726   */\n      0x00\n        /* \"#utility.yul\":1760:1762   */\n      0x20\n        /* \"#utility.yul\":1749:1758   */\n      dup3\n        /* \"#utility.yul\":1745:1763   */\n      add\n        /* \"#utility.yul\":1737:1763   */\n      swap1\n      pop\n        /* \"#utility.yul\":1773:1840   */\n      tag_89\n        /* \"#utility.yul\":1837:1838   */\n      0x00\n        /* \"#utility.yul\":1826:1835   */\n      dup4\n        /* \"#utility.yul\":1822:1839   */\n      add\n        /* \"#utility.yul\":1813:1819   */\n      dup5\n        /* \"#utility.yul\":1773:1840   */\n      tag_78\n      jump\t// in\n    tag_89:\n        /* \"#utility.yul\":1633:1847   */\n      swap3\n      swap2\n      pop\n      pop\n      jump\t// out\n        /* \"#utility.yul\":1934:2239   */\n    tag_45:\n        /* \"#utility.yul\":1974:1977   */\n      0x00\n        /* \"#utility.yul\":1993:2013   */\n      tag_93\n        /* \"#utility.yul\":2011:2012   */\n      dup3\n        /* \"#utility.yul\":1993:2013   */\n      tag_77\n      jump\t// in\n    tag_93:\n        /* \"#utility.yul\":1988:2013   */\n      swap2\n      pop\n        /* \"#utility.yul\":2027:2047   */\n      tag_94\n        /* \"#utility.yul\":2045:2046   */\n      dup4\n        /* \"#utility.yul\":2027:2047   */\n      tag_77\n      jump\t// in\n    tag_94:\n        /* \"#utility.yul\":2022:2047   */\n      swap3\n      pop\n        /* \"#utility.yul\":2181:2182   */\n      dup3\n        /* \"#utility.yul\":2113:2179   */\n      0xffffffffffffffffffffffffffffffffffffffffffffffffffffffffffffffff\n        /* \"#utility.yul\":2109:2183   */\n      sub\n        /* \"#utility.yul\":2106:2107   */\n      dup3\n        /* \"#utility.yul\":2103:2184   */\n      gt\n        /* \"#utility.yul\":2100:2207   */\n      iszero\n      tag_95\n      jumpi\n        /* \"#utility.yul\":2187:2205   */\n      tag_96\n      tag_97\n      jump\t// in\n    tag_96:\n        /* \"#utility.yul\":2100:2207   */\n    tag_95:\n        /* \"#utility.yul\":2231:2232   */\n      dup3\n        /* \"#utility.yul\":2228:2229   */\n      dup3\n        /* \"#utility.yul\":2224:2233   */\n      add\n        /* \"#utility.yul\":2217:2233   */\n      swap1\n      pop\n        /* \"#utility.yul\":1934:2239   */\n      swap3\n      swap2\n      pop\n      pop\n      jump\t// out\n        /* \"#utility.yul\":2245:2430   */\n    tag_51:\n        /* \"#utility.yul\":2285:2286   */\n      0x00\n        /* \"#utility.yul\":2302:2322   */\n      tag_99\n        /* \"#utility.yul\":2320:2321   */\n      dup3\n        /* \"#utility.yul\":2302:2322   */\n      tag_77\n      jump\t// in\n    tag_99:\n        /* \"#utility.yul\":2297:2322   */\n      swap2\n      pop\n        /* \"#utility.yul\":2336:2356   */\n      tag_100\n        /* \"#utility.yul\":2354:2355   */\n      dup4\n        /* \"#utility.yul\":2336:2356   */\n      tag_77\n      jump\t// in\n    tag_100:\n        /* \"#utility.yul\":2331:2356   */\n      swap3\n      pop\n        /* \"#utility.yul\":2375:2376   */\n      dup3\n        /* \"#utility.yul\":2365:2400   */\n      tag_101\n      jumpi\n        /* \"#utility.yul\":2380:2398   */\n      tag_102\n      tag_103\n      jump\t// in\n    tag_102:\n        /* \"#utility.yul\":2365:2400   */\n    tag_101:\n        /* \"#utility.yul\":2422:2423   */\n      dup3\n        /* \"#utility.yul\":2419:2420   */\n      dup3\n        /* \"#utility.yul\":2415:2424   */\n      div\n        /* \"#utility.yul\":2410:2424   */\n      swap1\n      pop\n        /* \"#utility.yul\":2245:2430   */\n      swap3\n      swap2\n      pop\n      pop\n      jump\t// out\n        /* \"#utility.yul\":2436:3284   */\n    tag_104:\n        /* \"#utility.yul\":2497:2502   */\n      0x00\n        /* \"#utility.yul\":2504:2508   */\n      dup1\n        /* \"#utility.yul\":2528:2534   */\n      dup3\n        /* \"#utility.yul\":2519:2534   */\n      swap2\n      pop\n        /* \"#utility.yul\":2552:2557   */\n      dup4\n        /* \"#utility.yul\":2543:2557   */\n      swap1\n      pop\n        /* \"#utility.yul\":2566:3278   */\n    tag_106:\n        /* \"#utility.yul\":2587:2588   */\n      0x01\n        /* \"#utility.yul\":2577:2585   */\n      dup6\n        /* \"#utility.yul\":2574:2589   */\n      gt\n        /* \"#utility.yul\":2566:3278   */\n      iszero\n      tag_108\n      jumpi\n        /* \"#utility.yul\":2682:2686   */\n      dup1\n        /* \"#utility.yul\":2677:2680   */\n      dup7\n        /* \"#utility.yul\":2673:2687   */\n      div\n        /* \"#utility.yul\":2667:2671   */\n      dup2\n        /* \"#utility.yul\":2664:2688   */\n      gt\n        /* \"#utility.yul\":2661:2711   */\n      iszero\n      tag_109\n      jumpi\n        /* \"#utility.yul\":2691:2709   */\n      tag_110\n      tag_97\n      jump\t// in\n    tag_110:\n        /* \"#utility.yul\":2661:2711   */\n    tag_109:\n        /* \"#utility.yul\":2741:2742   */\n      0x01\n        /* \"#utility.yul\":2731:2739   */\n      dup6\n        /* \"#utility.yul\":2727:2743   */\n      and\n        /* \"#utility.yul\":2724:3175   */\n      iszero\n      tag_111\n      jumpi\n        /* \"#utility.yul\":3156:3160   */\n      dup1\n        /* \"#utility.yul\":3149:3154   */\n      dup3\n        /* \"#utility.yul\":3145:3161   */\n      mul\n        /* \"#utility.yul\":3136:3161   */\n      swap2\n      pop\n        /* \"#utility.yul\":2724:3175   */\n    tag_111:\n        /* \"#utility.yul\":3206:3210   */\n      dup1\n        /* \"#utility.yul\":3200:3204   */\n      dup2\n        /* \"#utility.yul\":3196:3211   */\n      mul\n        /* \"#utility.yul\":3188:3211   */\n      swap1\n      pop\n        /* \"#utility.yul\":3236:3268   */\n      tag_112\n        /* \"#utility.yul\":3259:3267   */\n      dup6\n        /* \"#utility.yul\":3236:3268   */\n      tag_113\n      jump\t// in\n    tag_112:\n        /* \"#utility.yul\":3224:3268   */\n      swap5\n      pop\n        /* \"#utility.yul\":2566:3278   */\n      jump(tag_106)\n    tag_108:\n        /* \"#utility.yul\":2436:3284   */\n      swap5\n      pop\n      swap5\n      swap3\n      pop\n      pop\n      pop\n      jump\t// out\n        /* \"#utility.yul\":3290:3571   */\n    tag_53:\n        /* \"#utility.yul\":3348:3353   */\n      0x00\n        /* \"#utility.yul\":3372:3395   */\n      tag_115\n        /* \"#utility.yul\":3390:3394   */\n      dup3\n        /* \"#utility.yul\":3372:3395   */\n      tag_77\n      jump\t// in\n    tag_115:\n        /* \"#utility.yul\":3364:3395   */\n      swap2\n      pop\n        /* \"#utility.yul\":3416:3441   */\n      tag_116\n        /* \"#utility.yul\":3432:3440   */\n      dup4\n        /* \"#utility.yul\":3416:3441   */\n      tag_81\n      jump\t// in\n    tag_116:\n        /* \"#utility.yul\":3404:3441   */\n      swap3\n      pop\n        /* \"#utility.yul\":3460:3564   */\n      tag_117\n        /* \"#utility.yul\":3497:3563   */\n      0xffffffffffffffffffffffffffffffffffffffffffffffffffffffffffffffff\n        /* \"#utility.yul\":3487:3495   */\n      dup5\n        /* \"#utility.yul\":3481:3485   */\n      dup5\n        /* \"#utility.yul\":3460:3564   */\n      tag_118\n      jump\t// in\n    tag_117:\n        /* \"#utility.yul\":3451:3564   */\n      swap1\n      pop\n        /* \"#utility.yul\":3290:3571   */\n      swap3\n      swap2\n      pop\n      pop\n      jump\t// out\n        /* \"#utility.yul\":3577:4650   */\n    tag_118:\n        /* \"#utility.yul\":3631:3636   */\n      0x00\n        /* \"#utility.yul\":3822:3830   */\n      dup3\n        /* \"#utility.yul\":3812:3852   */\n      tag_120\n      jumpi\n        /* \"#utility.yul\":3843:3844   */\n      0x01\n        /* \"#utility.yul\":3834:3844   */\n      swap1\n      pop\n        /* \"#utility.yul\":3845:3850   */\n      jump(tag_119)\n        /* \"#utility.yul\":3812:3852   */\n    tag_120:\n        /* \"#utility.yul\":3871:3875   */\n      dup2\n        /* \"#utility.yul\":3861:3897   */\n      tag_121\n      jumpi\n        /* \"#utility.yul\":3888:3889   */\n      0x00\n        /* \"#utility.yul\":3879:3889   */\n      swap1\n      pop\n        /* \"#utility.yul\":3890:3895   */\n      jump(tag_119)\n        /* \"#utility.yul\":3861:3897   */\n    tag_121:\n        /* \"#utility.yul\":3957:3961   */\n      dup2\n        /* \"#utility.yul\":4005:4006   */\n      0x01\n        /* \"#utility.yul\":4000:4027   */\n      dup2\n      eq\n      tag_123\n      jumpi\n        /* \"#utility.yul\":4041:4042   */\n      0x02\n        /* \"#utility.yul\":4036:4227   */\n      dup2\n      eq\n      tag_124\n      jumpi\n        /* \"#utility.yul\":3950:4227   */\n      jump(tag_122)\n        /* \"#utility.yul\":4000:4027   */\n    tag_123:\n        /* \"#utility.yul\":4018:4019   */\n      0x01\n        /* \"#utility.yul\":4009:4019   */\n      swap2\n      pop\n        /* \"#utility.yul\":4020:4025   */\n      pop\n      jump(tag_119)\n        /* \"#utility.yul\":4036:4227   */\n    tag_124:\n        /* \"#utility.yul\":4081:4084   */\n      0xff\n        /* \"#utility.yul\":4071:4079   */\n      dup5\n        /* \"#utility.yul\":4068:4085   */\n      gt\n        /* \"#utility.yul\":4065:4108   */\n      iszero\n      tag_125\n      jumpi\n        /* \"#utility.yul\":4088:4106   */\n      tag_126\n      tag_97\n      jump\t// in\n    tag_126:\n        /* \"#utility.yul\":4065:4108   */\n    tag_125:\n        /* \"#utility.yul\":4137:4145   */\n      dup4\n        /* \"#utility.yul\":4134:4135   */\n      0x02\n        /* \"#utility.yul\":4130:4146   */\n      exp\n        /* \"#utility.yul\":4121:4146   */\n      swap2\n      pop\n        /* \"#utility.yul\":4172:4175   */\n      dup5\n        /* \"#utility.yul\":4165:4170   */\n      dup3\n        /* \"#utility.yul\":4162:4176   */\n      gt\n        /* \"#utility.yul\":4159:4199   */\n      iszero\n      tag_127\n      jumpi\n        /* \"#utility.yul\":4179:4197   */\n      tag_128\n      tag_97\n      jump\t// in\n    tag_128:\n        /* \"#utility.yul\":4159:4199   */\n    tag_127:\n        /* \"#utility.yul\":4212:4217   */\n      pop\n      jump(tag_119)\n        /* \"#utility.yul\":3950:4227   */\n    tag_122:\n      pop\n        /* \"#utility.yul\":4336:4338   */\n      0x20\n        /* \"#utility.yul\":4326:4334   */\n      dup4\n        /* \"#utility.yul\":4323:4339   */\n      lt\n        /* \"#utility.yul\":4317:4320   */\n      0x0133\n        /* \"#utility.yul\":4311:4315   */\n      dup4\n        /* \"#utility.yul\":4308:4321   */\n      lt\n        /* \"#utility.yul\":4304:4340   */\n      and\n        /* \"#utility.yul\":4286:4288   */\n      0x4e\n        /* \"#utility.yul\":4276:4284   */\n      dup5\n        /* \"#utility.yul\":4273:4289   */\n      lt\n        /* \"#utility.yul\":4268:4270   */\n      0x0b\n        /* \"#utility.yul\":4262:4266   */\n      dup5\n        /* \"#utility.yul\":4259:4271   */\n      lt\n        /* \"#utility.yul\":4255:4290   */\n      and\n        /* \"#utility.yul\":4239:4350   */\n      or\n        /* \"#utility.yul\":4236:4482   */\n      iszero\n      tag_129\n      jumpi\n        /* \"#utility.yul\":4392:4400   */\n      dup3\n        /* \"#utility.yul\":4386:4390   */\n      dup3\n        /* \"#utility.yul\":4382:4401   */\n      exp\n        /* \"#utility.yul\":4373:4401   */\n      swap1\n      pop\n        /* \"#utility.yul\":4427:4430   */\n      dup4\n        /* \"#utility.yul\":4420:4425   */\n      dup2\n        /* \"#utility.yul\":4417:4431   */\n      gt\n        /* \"#utility.yul\":4414:4454   */\n      iszero\n      tag_130\n      jumpi\n        /* \"#utility.yul\":4434:4452   */\n      tag_131\n      tag_97\n      jump\t// in\n    tag_131:\n        /* \"#utility.yul\":4414:4454   */\n    tag_130:\n        /* \"#utility.yul\":4467:4472   */\n      jump(tag_119)\n        /* \"#utility.yul\":4236:4482   */\n    tag_129:\n        /* \"#utility.yul\":4507:4549   */\n      tag_132\n        /* \"#utility.yul\":4545:4548   */\n      dup5\n        /* \"#utility.yul\":4535:4543   */\n      dup5\n        /* \"#utility.yul\":4529:4533   */\n      dup5\n        /* \"#utility.yul\":4526:4527   */\n      0x01\n        /* \"#utility.yul\":4507:4549   */\n      tag_104\n      jump\t// in\n    tag_132:\n        /* \"#utility.yul\":4492:4549   */\n      swap3\n      pop\n      swap1\n      pop\n        /* \"#utility.yul\":4581:4585   */\n      dup2\n        /* \"#utility.yul\":4576:4579   */\n      dup5\n        /* \"#utility.yul\":4572:4586   */\n      div\n        /* \"#utility.yul\":4565:4570   */\n      dup2\n        /* \"#utility.yul\":4562:4587   */\n      gt\n        /* \"#utility.yul\":4559:4610   */\n      iszero\n      tag_133\n      jumpi\n        /* \"#utility.yul\":4590:4608   */\n      tag_134\n      tag_97\n      jump\t// in\n    tag_134:\n        /* \"#utility.yul\":4559:4610   */\n    tag_133:\n        /* \"#utility.yul\":4639:4643   */\n      dup2\n        /* \"#utility.yul\":4632:4637   */\n      dup2\n        /* \"#utility.yul\":4628:4644   */\n      mul\n        /* \"#utility.yul\":4619:4644   */\n      swap1\n      pop\n        /* \"#utility.yul\":3577:4650   */\n    tag_119:\n      swap4\n      swap3\n      pop\n      pop\n      pop\n      jump\t// out\n        /* \"#utility.yul\":4656:5004   */\n    tag_49:\n        /* \"#utility.yul\":4696:4703   */\n      0x00\n        /* \"#utility.yul\":4719:4739   */\n      tag_136\n        /* \"#utility.yul\":4737:4738   */\n      dup3\n        /* \"#utility.yul\":4719:4739   */\n      tag_77\n      jump\t// in\n    tag_136:\n        /* \"#utility.yul\":4714:4739   */\n      swap2\n      pop\n        /* \"#utility.yul\":4753:4773   */\n      tag_137\n        /* \"#utility.yul\":4771:4772   */\n      dup4\n        /* \"#utility.yul\":4753:4773   */\n      tag_77\n      jump\t// in\n    tag_137:\n        /* \"#utility.yul\":4748:4773   */\n      swap3\n      pop\n        /* \"#utility.yul\":4941:4942   */\n      dup2\n        /* \"#utility.yul\":4873:4939   */\n      0xffffffffffffffffffffffffffffffffffffffffffffffffffffffffffffffff\n        /* \"#utility.yul\":4869:4943   */\n      div\n        /* \"#utility.yul\":4866:4867   */\n      dup4\n        /* \"#utility.yul\":4863:4944   */\n      gt\n        /* \"#utility.yul\":4858:4859   */\n      dup3\n        /* \"#utility.yul\":4851:4860   */\n      iszero\n        /* \"#utility.yul\":4844:4861   */\n      iszero\n        /* \"#utility.yul\":4840:4945   */\n      and\n        /* \"#utility.yul\":4837:4968   */\n      iszero\n      tag_138\n      jumpi\n        /* \"#utility.yul\":4948:4966   */\n      tag_139\n      tag_97\n      jump\t// in\n    tag_139:\n        /* \"#utility.yul\":4837:4968   */\n    tag_138:\n        /* \"#utility.yul\":4996:4997   */\n      dup3\n        /* \"#utility.yul\":4993:4994   */\n      dup3\n        /* \"#utility.yul\":4989:4998   */\n      mul\n        /* \"#utility.yul\":4978:4998   */\n      swap1\n      pop\n        /* \"#utility.yul\":4656:5004   */\n      swap3\n      swap2\n      pop\n      pop\n      jump\t// out\n        /* \"#utility.yul\":5010:5201   */\n    tag_47:\n        /* \"#utility.yul\":5050:5054   */\n      0x00\n        /* \"#utility.yul\":5070:5090   */\n      tag_141\n        /* \"#utility.yul\":5088:5089   */\n      dup3\n        /* \"#utility.yul\":5070:5090   */\n      tag_77\n      jump\t// in\n    tag_141:\n        /* \"#utility.yul\":5065:5090   */\n      swap2\n      pop\n        /* \"#utility.yul\":5104:5124   */\n      tag_142\n        /* \"#utility.yul\":5122:5123   */\n      dup4\n        /* \"#utility.yul\":5104:5124   */\n      tag_77\n      jump\t// in\n    tag_142:\n        /* \"#utility.yul\":5099:5124   */\n      swap3\n      pop\n        /* \"#utility.yul\":5143:5144   */\n      dup3\n        /* \"#utility.yul\":5140:5141   */\n      dup3\n        /* \"#utility.yul\":5137:5145   */\n      lt\n        /* \"#utility.yul\":5134:5168   */\n      iszero\n      tag_143\n      jumpi\n        /* \"#utility.yul\":5148:5166   */\n      tag_144\n      tag_97\n      jump\t// in\n    tag_144:\n        /* \"#utility.yul\":5134:5168   */\n    tag_143:\n        /* \"#utility.yul\":5193:5194   */\n      dup3\n        /* \"#utility.yul\":5190:5191   */\n      dup3\n        /* \"#utility.yul\":5186:5195   */\n      sub\n        /* \"#utility.yul\":5178:5195   */\n      swap1\n      pop\n        /* \"#utility.yul\":5010:5201   */\n      swap3\n      swap2\n      pop\n      pop\n      jump\t// out\n        /* \"#utility.yul\":5207:5283   */\n    tag_69:\n        /* \"#utility.yul\":5243:5250   */\n      0x00\n        /* \"#utility.yul\":5272:5277   */\n      dup2\n        /* \"#utility.yul\":5261:5277   */\n      swap1\n      pop\n        /* \"#utility.yul\":5207:5283   */\n      swap2\n      swap1\n      pop\n      jump\t// out\n        /* \"#utility.yul\":5289:5378   */\n    tag_73:\n        /* \"#utility.yul\":5323:5330   */\n      0x00\n        /* \"#utility.yul\":5366:5371   */\n      dup2\n        /* \"#utility.yul\":5363:5364   */\n      0x00\n        /* \"#utility.yul\":5352:5372   */\n      signextend\n        /* \"#utility.yul\":5341:5372   */\n      swap1\n      pop\n        /* \"#utility.yul\":5289:5378   */\n      swap2\n      swap1\n      pop\n      jump\t// out\n        /* \"#utility.yul\":5384:5461   */\n    tag_77:\n        /* \"#utility.yul\":5421:5428   */\n      0x00\n        /* \"#utility.yul\":5450:5455   */\n      dup2\n        /* \"#utility.yul\":5439:5455   */\n      swap1\n      pop\n        /* \"#utility.yul\":5384:5461   */\n      swap2\n      swap1\n      pop\n      jump\t// out\n        /* \"#utility.yul\":5467:5553   */\n    tag_81:\n        /* \"#utility.yul\":5502:5509   */\n      0x00\n        /* \"#utility.yul\":5542:5546   */\n      0xff\n        /* \"#utility.yul\":5535:5540   */\n      dup3\n        /* \"#utility.yul\":5531:5547   */\n      and\n        /* \"#utility.yul\":5520:5547   */\n      swap1\n      pop\n        /* \"#utility.yul\":5467:5553   */\n      swap2\n      swap1\n      pop\n      jump\t// out\n        /* \"#utility.yul\":5559:5726   */\n    tag_42:\n        /* \"#utility.yul\":5596:5599   */\n      0x00\n        /* \"#utility.yul\":5619:5641   */\n      tag_150\n        /* \"#utility.yul\":5635:5640   */\n      dup3\n        /* \"#utility.yul\":5619:5641   */\n      tag_81\n      jump\t// in\n    tag_150:\n        /* \"#utility.yul\":5610:5641   */\n      swap2\n      pop\n        /* \"#utility.yul\":5663:5667   */\n      0xff\n        /* \"#utility.yul\":5656:5661   */\n      dup3\n        /* \"#utility.yul\":5653:5668   */\n      eq\n        /* \"#utility.yul\":5650:5691   */\n      iszero\n      tag_151\n      jumpi\n        /* \"#utility.yul\":5671:5689   */\n      tag_152\n      tag_97\n      jump\t// in\n    tag_152:\n        /* \"#utility.yul\":5650:5691   */\n    tag_151:\n        /* \"#utility.yul\":5718:5719   */\n      0x01\n        /* \"#utility.yul\":5711:5716   */\n      dup3\n        /* \"#utility.yul\":5707:5720   */\n      add\n        /* \"#utility.yul\":5700:5720   */\n      swap1\n      pop\n        /* \"#utility.yul\":5559:5726   */\n      swap2\n      swap1\n      pop\n      jump\t// out\n        /* \"#utility.yul\":5732:5908   */\n    tag_55:\n        /* \"#utility.yul\":5764:5765   */\n      0x00\n        /* \"#utility.yul\":5781:5801   */\n      tag_154\n        /* \"#utility.yul\":5799:5800   */\n      dup3\n        /* \"#utility.yul\":5781:5801   */\n      tag_77\n      jump\t// in\n    tag_154:\n        /* \"#utility.yul\":5776:5801   */\n      swap2\n      pop\n        /* \"#utility.yul\":5815:5835   */\n      tag_155\n        /* \"#utility.yul\":5833:5834   */\n      dup4\n        /* \"#utility.yul\":5815:5835   */\n      tag_77\n      jump\t// in\n    tag_155:\n        /* \"#utility.yul\":5810:5835   */\n      swap3\n      pop\n        /* \"#utility.yul\":5854:5855   */\n      dup3\n        /* \"#utility.yul\":5844:5879   */\n      tag_156\n      jumpi\n        /* \"#utility.yul\":5859:5877   */\n      tag_157\n      tag_103\n      jump\t// in\n    tag_157:\n        /* \"#utility.yul\":5844:5879   */\n    tag_156:\n        /* \"#utility.yul\":5900:5901   */\n      dup3\n        /* \"#utility.yul\":5897:5898   */\n      dup3\n        /* \"#utility.yul\":5893:5902   */\n      mod\n        /* \"#utility.yul\":5888:5902   */\n      swap1\n      pop\n        /* \"#utility.yul\":5732:5908   */\n      swap3\n      swap2\n      pop\n      pop\n      jump\t// out\n        /* \"#utility.yul\":5914:6094   */\n    tag_97:\n        /* \"#utility.yul\":5962:6039   */\n      0x4e487b7100000000000000000000000000000000000000000000000000000000\n        /* \"#utility.yul\":5959:5960   */\n      0x00\n        /* \"#utility.yul\":5952:6040   */\n      mstore\n        /* \"#utility.yul\":6059:6063   */\n      0x11\n        /* \"#utility.yul\":6056:6057   */\n      0x04\n        /* \"#utility.yul\":6049:6064   */\n      mstore\n        /* \"#utility.yul\":6083:6087   */\n      0x24\n        /* \"#utility.yul\":6080:6081   */\n      0x00\n        /* \"#utility.yul\":6073:6088   */\n      revert\n        /* \"#utility.yul\":6100:6280   */\n    tag_103:\n        /* \"#utility.yul\":6148:6225   */\n      0x4e487b7100000000000000000000000000000000000000000000000000000000\n        /* \"#utility.yul\":6145:6146   */\n      0x00\n        /* \"#utility.yul\":6138:6226   */\n      mstore\n        /* \"#utility.yul\":6245:6249   */\n      0x12\n        /* \"#utility.yul\":6242:6243   */\n      0x04\n        /* \"#utility.yul\":6235:6250   */\n      mstore\n        /* \"#utility.yul\":6269:6273   */\n      0x24\n        /* \"#utility.yul\":6266:6267   */\n      0x00\n        /* \"#utility.yul\":6259:6274   */\n      revert\n        /* \"#utility.yul\":6409:6526   */\n    tag_64:\n        /* \"#utility.yul\":6518:6519   */\n      0x00\n        /* \"#utility.yul\":6515:6516   */\n      dup1\n        /* \"#utility.yul\":6508:6520   */\n      revert\n        /* \"#utility.yul\":6532:6634   */\n    tag_113:\n        /* \"#utility.yul\":6574:6582   */\n      0x00\n        /* \"#utility.yul\":6621:6626   */\n      dup2\n        /* \"#utility.yul\":6618:6619   */\n      0x01\n        /* \"#utility.yul\":6614:6627   */\n      shr\n        /* \"#utility.yul\":6593:6627   */\n      swap1\n      pop\n        /* \"#utility.yul\":6532:6634   */\n      swap2\n      swap1\n      pop\n      jump\t// out\n        /* \"#utility.yul\":6640:6762   */\n    tag_60:\n        /* \"#utility.yul\":6713:6737   */\n      tag_165\n        /* \"#utility.yul\":6731:6736   */\n      dup2\n        /* \"#utility.yul\":6713:6737   */\n      tag_77\n      jump\t// in\n    tag_165:\n        /* \"#utility.yul\":6706:6711   */\n      dup2\n        /* \"#utility.yul\":6703:6738   */\n      eq\n        /* \"#utility.yul\":6693:6756   */\n      tag_166\n      jumpi\n        /* \"#utility.yul\":6752:6753   */\n      0x00\n        /* \"#utility.yul\":6749:6750   */\n      dup1\n        /* \"#utility.yul\":6742:6754   */\n      revert\n        /* \"#utility.yul\":6693:6756   */\n    tag_166:\n        /* \"#utility.yul\":6640:6762   */\n      pop\n      jump\t// out\n\n    auxdata: 0xa264697066735822122030c23cb76264deb778f7409e6517405887b85cf68a36f20203a7ed321160751d64736f6c63430008070033\n}\n",
				"bytecode": {
					"linkReferences": {},
					"object": "6080604052600a6000557fffffffffffffffffffffffffffffffffffffffffffffffffffffffffffffffea6001557fffffffffffffffffffffffffffffffffffffffffffffffffffffffffffffffff600260006101000a81548160ff021916908360000b60ff16021790555060fe600560006101000a81548160ff021916908360ff16021790555034801561009357600080fd5b506106ff806100a36000396000f3fe608060405234801561001057600080fd5b50600436106100885760003560e01c80636ac5db191161005b5780636ac5db19146100dd578063a9bf5633146100fb578063a9e23bea14610117578063f88979451461013557610088565b806301725a0b1461008d5780630b79ba80146100975780632cb777a6146100b5578063371303c0146100d3575b600080fd5b610095610153565b005b61009f61016a565b6040516100ac91906102e2565b60405180910390f35b6100bd61017d565b6040516100ca91906102c7565b60405180910390f35b6100db610183565b005b6100e56101bd565b6040516100f291906102fd565b60405180910390f35b6101156004803603810190610110919061025e565b6101c3565b005b61011f610230565b60405161012c9190610318565b60405180910390f35b61013d610243565b60405161014a91906102fd565b60405180910390f35b600060ff1660038190555060ff8016600481905550565b600260009054906101000a900460000b81565b60015481565b6005600081819054906101000a900460ff16809291906101a2906105e7565b91906101000a81548160ff021916908360ff16021790555050565b60045481565b6000602a905060006104d290506000600290506001836101e39190610333565b506001836101f19190610585565b506005836101ff919061052b565b5060058361020d9190610389565b5060028361021b919061040d565b506001836102299190610611565b5050505050565b600560009054906101000a900460ff1681565b60035481565b600081359050610258816106b2565b92915050565b600060208284031215610274576102736106a0565b5b600061028284828501610249565b91505092915050565b610294816105b9565b82525050565b6102a3816105c3565b82525050565b6102b2816105d0565b82525050565b6102c1816105da565b82525050565b60006020820190506102dc600083018461028b565b92915050565b60006020820190506102f7600083018461029a565b92915050565b600060208201905061031260008301846102a9565b92915050565b600060208201905061032d60008301846102b8565b92915050565b600061033e826105d0565b9150610349836105d0565b9250827fffffffffffffffffffffffffffffffffffffffffffffffffffffffffffffffff0382111561037e5761037d610642565b5b828201905092915050565b6000610394826105d0565b915061039f836105d0565b9250826103af576103ae610671565b5b828204905092915050565b6000808291508390505b6001851115610404578086048111156103e0576103df610642565b5b60018516156103ef5780820291505b80810290506103fd856106a5565b94506103c4565b94509492505050565b6000610418826105d0565b9150610423836105da565b92506104507fffffffffffffffffffffffffffffffffffffffffffffffffffffffffffffffff8484610458565b905092915050565b6000826104685760019050610524565b816104765760009050610524565b816001811461048c5760028114610496576104c5565b6001915050610524565b60ff8411156104a8576104a7610642565b5b8360020a9150848211156104bf576104be610642565b5b50610524565b5060208310610133831016604e8410600b84101617156104fa5782820a9050838111156104f5576104f4610642565b5b610524565b61050784848460016103ba565b9250905081840481111561051e5761051d610642565b5b81810290505b9392505050565b6000610536826105d0565b9150610541836105d0565b9250817fffffffffffffffffffffffffffffffffffffffffffffffffffffffffffffffff048311821515161561057a57610579610642565b5b828202905092915050565b6000610590826105d0565b915061059b836105d0565b9250828210156105ae576105ad610642565b5b828203905092915050565b6000819050919050565b60008160000b9050919050565b6000819050919050565b600060ff82169050919050565b60006105f2826105da565b915060ff82141561060657610605610642565b5b600182019050919050565b600061061c826105d0565b9150610627836105d0565b92508261063757610636610671565b5b828206905092915050565b7f4e487b7100000000000000000000000000000000000000000000000000000000600052601160045260246000fd5b7f4e487b7100000000000000000000000000000000000000000000000000000000600052601260045260246000fd5b600080fd5b60008160011c9050919050565b6106bb816105d0565b81146106c657600080fd5b5056fea264697066735822122030c23cb76264deb778f7409e6517405887b85cf68a36f20203a7ed321160751d64736f6c63430008070033",
					"opcodes": "PUSH1 0x80 PUSH1 0x40 MSTORE PUSH1 0xA PUSH1 0x0 SSTORE PUSH32 0xFFFFFFFFFFFFFFFFFFFFFFFFFFFFFFFFFFFFFFFFFFFFFFFFFFFFFFFFFFFFFFEA PUSH1 0x1 SSTORE PUSH32 0xFFFFFFFFFFFFFFFFFFFFFFFFFFFFFFFFFFFFFFFFFFFFFFFFFFFFFFFFFFFFFFFF PUSH1 0x2 PUSH1 0x0 PUSH2 0x100 EXP DUP2 SLOAD DUP2 PUSH1 0xFF MUL NOT AND SWAP1 DUP4 PUSH1 0x0 SIGNEXTEND PUSH1 0xFF AND MUL OR SWAP1 SSTORE POP PUSH1 0xFE PUSH1 0x5 PUSH1 0x0 PUSH2 0x100 EXP DUP2 SLOAD DUP2 PUSH1 0xFF MUL NOT AND SWAP1 DUP4 PUSH1 0xFF AND MUL OR SWAP1 SSTORE POP CALLVALUE DUP1 ISZERO PUSH2 0x93 JUMPI PUSH1 0x0 DUP1 REVERT JUMPDEST POP PUSH2 0x6FF DUP1 PUSH2 0xA3 PUSH1 0x0 CODECOPY PUSH1 0x0 RETURN INVALID PUSH1 0x80 PUSH1 0x40 MSTORE CALLVALUE DUP1 ISZERO PUSH2 0x10 JUMPI PUSH1 0x0 DUP1 REVERT JUMPDEST POP PUSH1 0x4 CALLDATASIZE LT PUSH2 0x88 JUMPI PUSH1 0x0 CALLDATALOAD PUSH1 0xE0 SHR DUP1 PUSH4 0x6AC5DB19 GT PUSH2 0x5B JUMPI DUP1 PUSH4 0x6AC5DB19 EQ PUSH2 0xDD JUMPI DUP1 PUSH4 0xA9BF5633 EQ PUSH2 0xFB JUMPI DUP1 PUSH4 0xA9E23BEA EQ PUSH2 0x117 JUMPI DUP1 PUSH4 0xF8897945 EQ PUSH2 0x135 JUMPI PUSH2 0x88 JUMP JUMPDEST DUP1 PUSH4 0x1725A0B EQ PUSH2 0x8D JUMPI DUP1 PUSH4 0xB79BA80 EQ PUSH2 0x97 JUMPI DUP1 PUSH4 0x2CB777A6 EQ PUSH2 0xB5 JUMPI DUP1 PUSH4 0x371303C0 EQ PUSH2 0xD3 JUMPI JUMPDEST PUSH1 0x0 DUP1 REVERT JUMPDEST PUSH2 0x95 PUSH2 0x153 JUMP JUMPDEST STOP JUMPDEST PUSH2 0x9F PUSH2 0x16A JUMP JUMPDEST PUSH1 0x40 MLOAD PUSH2 0xAC SWAP2 SWAP1 PUSH2 0x2E2 JUMP JUMPDEST PUSH1 0x40 MLOAD DUP1 SWAP2 SUB SWAP1 RETURN JUMPDEST PUSH2 0xBD PUSH2 0x17D JUMP JUMPDEST PUSH1 0x40 MLOAD PUSH2 0xCA SWAP2 SWAP1 PUSH2 0x2C7 JUMP JUMPDEST PUSH1 0x40 MLOAD DUP1 SWAP2 SUB SWAP1 RETURN JUMPDEST PUSH2 0xDB PUSH2 0x183 JUMP JUMPDEST STOP JUMPDEST PUSH2 0xE5 PUSH2 0x1BD JUMP JUMPDEST PUSH1 0x40 MLOAD PUSH2 0xF2 SWAP2 SWAP1 PUSH2 0x2FD JUMP JUMPDEST PUSH1 0x40 MLOAD DUP1 SWAP2 SUB SWAP1 RETURN JUMPDEST PUSH2 0x115 PUSH1 0x4 DUP1 CALLDATASIZE SUB DUP2 ADD SWAP1 PUSH2 0x110 SWAP2 SWAP1 PUSH2 0x25E JUMP JUMPDEST PUSH2 0x1C3 JUMP JUMPDEST STOP JUMPDEST PUSH2 0x11F PUSH2 0x230 JUMP JUMPDEST PUSH1 0x40 MLOAD PUSH2 0x12C SWAP2 SWAP1 PUSH2 0x318 JUMP JUMPDEST PUSH1 0x40 MLOAD DUP1 SWAP2 SUB SWAP1 RETURN JUMPDEST PUSH2 0x13D PUSH2 0x243 JUMP JUMPDEST PUSH1 0x40 MLOAD PUSH2 0x14A SWAP2 SWAP1 PUSH2 0x2FD JUMP JUMPDEST PUSH1 0x40 MLOAD DUP1 SWAP2 SUB SWAP1 RETURN JUMPDEST PUSH1 0x0 PUSH1 0xFF AND PUSH1 0x3 DUP2 SWAP1 SSTORE POP PUSH1 0xFF DUP1 AND PUSH1 0x4 DUP2 SWAP1 SSTORE POP JUMP JUMPDEST PUSH1 0x2 PUSH1 0x0 SWAP1 SLOAD SWAP1 PUSH2 0x100 EXP SWAP1 DIV PUSH1 0x0 SIGNEXTEND DUP2 JUMP JUMPDEST PUSH1 0x1 SLOAD DUP2 JUMP JUMPDEST PUSH1 0x5 PUSH1 0x0 DUP2 DUP2 SWAP1 SLOAD SWAP1 PUSH2 0x100 EXP SWAP1 DIV PUSH1 0xFF AND DUP1 SWAP3 SWAP2 SWAP1 PUSH2 0x1A2 SWAP1 PUSH2 0x5E7 JUMP JUMPDEST SWAP2 SWAP1 PUSH2 0x100 EXP DUP2 SLOAD DUP2 PUSH1 0xFF MUL NOT AND SWAP1 DUP4 PUSH1 0xFF AND MUL OR SWAP1 SSTORE POP POP JUMP JUMPDEST PUSH1 0x4 SLOAD DUP2 JUMP JUMPDEST PUSH1 0x0 PUSH1 0x2A SWAP1 POP PUSH1 0x0 PUSH2 0x4D2 SWAP1 POP PUSH1 0x0 PUSH1 0x2 SWAP1 POP PUSH1 0x1 DUP4 PUSH2 0x1E3 SWAP2 SWAP1 PUSH2 0x333 JUMP JUMPDEST POP PUSH1 0x1 DUP4 PUSH2 0x1F1 SWAP2 SWAP1 PUSH2 0x585 JUMP JUMPDEST POP PUSH1 0x5 DUP4 PUSH2 0x1FF SWAP2 SWAP1 PUSH2 0x52B JUMP JUMPDEST POP PUSH1 0x5 DUP4 PUSH2 0x20D SWAP2 SWAP1 PUSH2 0x389 JUMP JUMPDEST POP PUSH1 0x2 DUP4 PUSH2 0x21B SWAP2 SWAP1 PUSH2 0x40D JUMP JUMPDEST POP PUSH1 0x1 DUP4 PUSH2 0x229 SWAP2 SWAP1 PUSH2 0x611 JUMP JUMPDEST POP POP POP POP POP JUMP JUMPDEST PUSH1 0x5 PUSH1 0x0 SWAP1 SLOAD SWAP1 PUSH2 0x100 EXP SWAP1 DIV PUSH1 0xFF AND DUP2 JUMP JUMPDEST PUSH1 0x3 SLOAD DUP2 JUMP JUMPDEST PUSH1 0x0 DUP2 CALLDATALOAD SWAP1 POP PUSH2 0x258 DUP2 PUSH2 0x6B2 JUMP JUMPDEST SWAP3 SWAP2 POP POP JUMP JUMPDEST PUSH1 0x0 PUSH1 0x20 DUP3 DUP5 SUB SLT ISZERO PUSH2 0x274 JUMPI PUSH2 0x273 PUSH2 0x6A0 JUMP JUMPDEST JUMPDEST PUSH1 0x0 PUSH2 0x282 DUP5 DUP3 DUP6 ADD PUSH2 0x249 JUMP JUMPDEST SWAP2 POP POP SWAP3 SWAP2 POP POP JUMP JUMPDEST PUSH2 0x294 DUP2 PUSH2 0x5B9 JUMP JUMPDEST DUP3 MSTORE POP POP JUMP JUMPDEST PUSH2 0x2A3 DUP2 PUSH2 0x5C3 JUMP JUMPDEST DUP3 MSTORE POP POP JUMP JUMPDEST PUSH2 0x2B2 DUP2 PUSH2 0x5D0 JUMP JUMPDEST DUP3 MSTORE POP POP JUMP JUMPDEST PUSH2 0x2C1 DUP2 PUSH2 0x5DA JUMP JUMPDEST DUP3 MSTORE POP POP JUMP JUMPDEST PUSH1 0x0 PUSH1 0x20 DUP3 ADD SWAP1 POP PUSH2 0x2DC PUSH1 0x0 DUP4 ADD DUP5 PUSH2 0x28B JUMP JUMPDEST SWAP3 SWAP2 POP POP JUMP JUMPDEST PUSH1 0x0 PUSH1 0x20 DUP3 ADD SWAP1 POP PUSH2 0x2F7 PUSH1 0x0 DUP4 ADD DUP5 PUSH2 0x29A JUMP JUMPDEST SWAP3 SWAP2 POP POP JUMP JUMPDEST PUSH1 0x0 PUSH1 0x20 DUP3 ADD SWAP1 POP PUSH2 0x312 PUSH1 0x0 DUP4 ADD DUP5 PUSH2 0x2A9 JUMP JUMPDEST SWAP3 SWAP2 POP POP JUMP JUMPDEST PUSH1 0x0 PUSH1 0x20 DUP3 ADD SWAP1 POP PUSH2 0x32D PUSH1 0x0 DUP4 ADD DUP5 PUSH2 0x2B8 JUMP JUMPDEST SWAP3 SWAP2 POP POP JUMP JUMPDEST PUSH1 0x0 PUSH2 0x33E DUP3 PUSH2 0x5D0 JUMP JUMPDEST SWAP2 POP PUSH2 0x349 DUP4 PUSH2 0x5D0 JUMP JUMPDEST SWAP3 POP DUP3 PUSH32 0xFFFFFFFFFFFFFFFFFFFFFFFFFFFFFFFFFFFFFFFFFFFFFFFFFFFFFFFFFFFFFFFF SUB DUP3 GT ISZERO PUSH2 0x37E JUMPI PUSH2 0x37D PUSH2 0x642 JUMP JUMPDEST JUMPDEST DUP3 DUP3 ADD SWAP1 POP SWAP3 SWAP2 POP POP JUMP JUMPDEST PUSH1 0x0 PUSH2 0x394 DUP3 PUSH2 0x5D0 JUMP JUMPDEST SWAP2 POP PUSH2 0x39F DUP4 PUSH2 0x5D0 JUMP JUMPDEST SWAP3 POP DUP3 PUSH2 0x3AF JUMPI PUSH2 0x3AE PUSH2 0x671 JUMP JUMPDEST JUMPDEST DUP3 DUP3 DIV SWAP1 POP SWAP3 SWAP2 POP POP JUMP JUMPDEST PUSH1 0x0 DUP1 DUP3 SWAP2 POP DUP4 SWAP1 POP JUMPDEST PUSH1 0x1 DUP6 GT ISZERO PUSH2 0x404 JUMPI DUP1 DUP7 DIV DUP2 GT ISZERO PUSH2 0x3E0 JUMPI PUSH2 0x3DF PUSH2 0x642 JUMP JUMPDEST JUMPDEST PUSH1 0x1 DUP6 AND ISZERO PUSH2 0x3EF JUMPI DUP1 DUP3 MUL SWAP2 POP JUMPDEST DUP1 DUP2 MUL SWAP1 POP PUSH2 0x3FD DUP6 PUSH2 0x6A5 JUMP JUMPDEST SWAP5 POP PUSH2 0x3C4 JUMP JUMPDEST SWAP5 POP SWAP5 SWAP3 POP POP POP JUMP JUMPDEST PUSH1 0x0 PUSH2 0x418 DUP3 PUSH2 0x5D0 JUMP JUMPDEST SWAP2 POP PUSH2 0x423 DUP4 PUSH2 0x5DA JUMP JUMPDEST SWAP3 POP PUSH2 0x450 PUSH32 0xFFFFFFFFFFFFFFFFFFFFFFFFFFFFFFFFFFFFFFFFFFFFFFFFFFFFFFFFFFFFFFFF DUP5 DUP5 PUSH2 0x458 JUMP JUMPDEST SWAP1 POP SWAP3 SWAP2 POP POP JUMP JUMPDEST PUSH1 0x0 DUP3 PUSH2 0x468 JUMPI PUSH1 0x1 SWAP1 POP PUSH2 0x524 JUMP JUMPDEST DUP2 PUSH2 0x476 JUMPI PUSH1 0x0 SWAP1 POP PUSH2 0x524 JUMP JUMPDEST DUP2 PUSH1 0x1 DUP2 EQ PUSH2 0x48C JUMPI PUSH1 0x2 DUP2 EQ PUSH2 0x496 JUMPI PUSH2 0x4C5 JUMP JUMPDEST PUSH1 0x1 SWAP2 POP POP PUSH2 0x524 JUMP JUMPDEST PUSH1 0xFF DUP5 GT ISZERO PUSH2 0x4A8 JUMPI PUSH2 0x4A7 PUSH2 0x642 JUMP JUMPDEST JUMPDEST DUP4 PUSH1 0x2 EXP SWAP2 POP DUP5 DUP3 GT ISZERO PUSH2 0x4BF JUMPI PUSH2 0x4BE PUSH2 0x642 JUMP JUMPDEST JUMPDEST POP PUSH2 0x524 JUMP JUMPDEST POP PUSH1 0x20 DUP4 LT PUSH2 0x133 DUP4 LT AND PUSH1 0x4E DUP5 LT PUSH1 0xB DUP5 LT AND OR ISZERO PUSH2 0x4FA JUMPI DUP3 DUP3 EXP SWAP1 POP DUP4 DUP2 GT ISZERO PUSH2 0x4F5 JUMPI PUSH2 0x4F4 PUSH2 0x642 JUMP JUMPDEST JUMPDEST PUSH2 0x524 JUMP JUMPDEST PUSH2 0x507 DUP5 DUP5 DUP5 PUSH1 0x1 PUSH2 0x3BA JUMP JUMPDEST SWAP3 POP SWAP1 POP DUP2 DUP5 DIV DUP2 GT ISZERO PUSH2 0x51E JUMPI PUSH2 0x51D PUSH2 0x642 JUMP JUMPDEST JUMPDEST DUP2 DUP2 MUL SWAP1 POP JUMPDEST SWAP4 SWAP3 POP POP POP JUMP JUMPDEST PUSH1 0x0 PUSH2 0x536 DUP3 PUSH2 0x5D0 JUMP JUMPDEST SWAP2 POP PUSH2 0x541 DUP4 PUSH2 0x5D0 JUMP JUMPDEST SWAP3 POP DUP2 PUSH32 0xFFFFFFFFFFFFFFFFFFFFFFFFFFFFFFFFFFFFFFFFFFFFFFFFFFFFFFFFFFFFFFFF DIV DUP4 GT DUP3 ISZERO ISZERO AND ISZERO PUSH2 0x57A JUMPI PUSH2 0x579 PUSH2 0x642 JUMP JUMPDEST JUMPDEST DUP3 DUP3 MUL SWAP1 POP SWAP3 SWAP2 POP POP JUMP JUMPDEST PUSH1 0x0 PUSH2 0x590 DUP3 PUSH2 0x5D0 JUMP JUMPDEST SWAP2 POP PUSH2 0x59B DUP4 PUSH2 0x5D0 JUMP JUMPDEST SWAP3 POP DUP3 DUP3 LT ISZERO PUSH2 0x5AE JUMPI PUSH2 0x5AD PUSH2 0x642 JUMP JUMPDEST JUMPDEST DUP3 DUP3 SUB SWAP1 POP SWAP3 SWAP2 POP POP JUMP JUMPDEST PUSH1 0x0 DUP2 SWAP1 POP SWAP2 SWAP1 POP JUMP JUMPDEST PUSH1 0x0 DUP2 PUSH1 0x0 SIGNEXTEND SWAP1 POP SWAP2 SWAP1 POP JUMP JUMPDEST PUSH1 0x0 DUP2 SWAP1 POP SWAP2 SWAP1 POP JUMP JUMPDEST PUSH1 0x0 PUSH1 0xFF DUP3 AND SWAP1 POP SWAP2 SWAP1 POP JUMP JUMPDEST PUSH1 0x0 PUSH2 0x5F2 DUP3 PUSH2 0x5DA JUMP JUMPDEST SWAP2 POP PUSH1 0xFF DUP3 EQ ISZERO PUSH2 0x606 JUMPI PUSH2 0x605 PUSH2 0x642 JUMP JUMPDEST JUMPDEST PUSH1 0x1 DUP3 ADD SWAP1 POP SWAP2 SWAP1 POP JUMP JUMPDEST PUSH1 0x0 PUSH2 0x61C DUP3 PUSH2 0x5D0 JUMP JUMPDEST SWAP2 POP PUSH2 0x627 DUP4 PUSH2 0x5D0 JUMP JUMPDEST SWAP3 POP DUP3 PUSH2 0x637 JUMPI PUSH2 0x636 PUSH2 0x671 JUMP JUMPDEST JUMPDEST DUP3 DUP3 MOD SWAP1 POP SWAP3 SWAP2 POP POP JUMP JUMPDEST PUSH32 0x4E487B7100000000000000000000000000000000000000000000000000000000 PUSH1 0x0 MSTORE PUSH1 0x11 PUSH1 0x4 MSTORE PUSH1 0x24 PUSH1 0x0 REVERT JUMPDEST PUSH32 0x4E487B7100000000000000000000000000000000000000000000000000000000 PUSH1 0x0 MSTORE PUSH1 0x12 PUSH1 0x4 MSTORE PUSH1 0x24 PUSH1 0x0 REVERT JUMPDEST PUSH1 0x0 DUP1 REVERT JUMPDEST PUSH1 0x0 DUP2 PUSH1 0x1 SHR SWAP1 POP SWAP2 SWAP1 POP JUMP JUMPDEST PUSH2 0x6BB DUP2 PUSH2 0x5D0 JUMP JUMPDEST DUP2 EQ PUSH2 0x6C6 JUMPI PUSH1 0x0 DUP1 REVERT JUMPDEST POP JUMP INVALID LOG2 PUSH5 0x6970667358 0x22 SLT KECCAK256 ADDRESS 0xC2 EXTCODECOPY 0xB7 PUSH3 0x64DEB7 PUSH25 0xF7409E6517405887B85CF68A36F20203A7ED321160751D6473 PUSH16 0x6C634300080700330000000000000000 "
				},
				"gasEstimates": {
					"creation": {
						"codeDepositCost": "358200",
						"executionCost": "93147",
						"totalCost": "451347"
					},
					"external": {
						"demo()": "27285",
						"inc()": "26769",
						"max()": "2429",
						"min()": "2495",
						"myFunc(uint256)": "infinite",
						"myInt()": "2474",
						"mySmallestInt()": "2498",
						"tempVal()": "2515"
					}
				},
				"methodIdentifiers": {
					"demo()": "01725a0b",
					"inc()": "371303c0",
					"max()": "6ac5db19",
					"min()": "f8897945",
					"myFunc(uint256)": "a9bf5633",
					"myInt()": "2cb777a6",
					"mySmallestInt()": "0b79ba80",
					"tempVal()": "a9e23bea"
				}
			},
			"storageLayout": {
				"storage": [
					{
						"astId": 4,
						"contract": "contracts/Lesson1Types.sol:DemoInt",
						"label": "myUint",
						"offset": 0,
						"slot": "0",
						"type": "t_uint256"
					},
					{
						"astId": 74,
						"contract": "contracts/Lesson1Types.sol:DemoInt",
						"label": "myInt",
						"offset": 0,
						"slot": "1",
						"type": "t_int256"
					},
					{
						"astId": 78,
						"contract": "contracts/Lesson1Types.sol:DemoInt",
						"label": "mySmallestInt",
						"offset": 0,
						"slot": "2",
						"type": "t_int8"
					},
					{
						"astId": 80,
						"contract": "contracts/Lesson1Types.sol:DemoInt",
						"label": "min",
						"offset": 0,
						"slot": "3",
						"type": "t_uint256"
					},
					{
						"astId": 82,
						"contract": "contracts/Lesson1Types.sol:DemoInt",
						"label": "max",
						"offset": 0,
						"slot": "4",
						"type": "t_uint256"
					},
					{
						"astId": 105,
						"contract": "contracts/Lesson1Types.sol:DemoInt",
						"label": "tempVal",
						"offset": 0,
						"slot": "5",
						"type": "t_uint8"
					}
				],
				"types": {
					"t_int256": {
						"encoding": "inplace",
						"label": "int256",
						"numberOfBytes": "32"
					},
					"t_int8": {
						"encoding": "inplace",
						"label": "int8",
						"numberOfBytes": "1"
					},
					"t_uint256": {
						"encoding": "inplace",
						"label": "uint256",
						"numberOfBytes": "32"
					},
					"t_uint8": {
						"encoding": "inplace",
						"label": "uint8",
						"numberOfBytes": "1"
					}
				}
			},
			"userdoc": {
				"kind": "user",
				"methods": {},
				"version": 1
			}
		}
	}
}