{
	"contracts/Lesson4Types.sol": {
		"Array4Lesson": {
			"abi": [
				{
					"inputs": [
						{
							"internalType": "uint256",
							"name": "",
							"type": "uint256"
						}
					],
					"name": "dynArr",
					"outputs": [
						{
							"internalType": "uint256",
							"name": "",
							"type": "uint256"
						}
					],
					"stateMutability": "view",
					"type": "function"
				},
				{
					"inputs": [
						{
							"internalType": "uint256",
							"name": "",
							"type": "uint256"
						}
					],
					"name": "items",
					"outputs": [
						{
							"internalType": "uint256",
							"name": "",
							"type": "uint256"
						}
					],
					"stateMutability": "view",
					"type": "function"
				},
				{
					"inputs": [
						{
							"internalType": "uint256",
							"name": "",
							"type": "uint256"
						}
					],
					"name": "list",
					"outputs": [
						{
							"internalType": "string",
							"name": "",
							"type": "string"
						}
					],
					"stateMutability": "view",
					"type": "function"
				},
				{
					"inputs": [
						{
							"internalType": "uint256",
							"name": "",
							"type": "uint256"
						},
						{
							"internalType": "uint256",
							"name": "",
							"type": "uint256"
						}
					],
					"name": "matrix",
					"outputs": [
						{
							"internalType": "uint256",
							"name": "",
							"type": "uint256"
						}
					],
					"stateMutability": "view",
					"type": "function"
				},
				{
					"inputs": [
						{
							"internalType": "uint256",
							"name": "num",
							"type": "uint256"
						}
					],
					"name": "modDynamicArr",
					"outputs": [],
					"stateMutability": "nonpayable",
					"type": "function"
				},
				{
					"inputs": [],
					"name": "modifyArray",
					"outputs": [],
					"stateMutability": "nonpayable",
					"type": "function"
				}
			],
			"devdoc": {
				"kind": "dev",
				"methods": {},
				"version": 1
			},
			"evm": {
				"assembly": "    /* \"contracts/Lesson4Types.sol\":58:498  contract Array4Lesson {... */\n  mstore(0x40, 0x80)\n    /* \"contracts/Lesson4Types.sol\":91:126  uint[10] public items = [10, 20, 1] */\n  mload(0x40)\n  dup1\n  0x60\n  add\n  0x40\n  mstore\n  dup1\n    /* \"contracts/Lesson4Types.sol\":116:118  10 */\n  0x0a\n    /* \"contracts/Lesson4Types.sol\":91:126  uint[10] public items = [10, 20, 1] */\n  0xff\n  and\n  dup2\n  mstore\n  0x20\n  add\n    /* \"contracts/Lesson4Types.sol\":120:122  20 */\n  0x14\n    /* \"contracts/Lesson4Types.sol\":91:126  uint[10] public items = [10, 20, 1] */\n  0xff\n  and\n  dup2\n  mstore\n  0x20\n  add\n    /* \"contracts/Lesson4Types.sol\":124:125  1 */\n  0x01\n    /* \"contracts/Lesson4Types.sol\":91:126  uint[10] public items = [10, 20, 1] */\n  0xff\n  and\n  dup2\n  mstore\n  pop\n  0x00\n  swap1\n  0x03\n  tag_1\n  swap3\n  swap2\n  swap1\n  tag_2\n  jump\t// in\ntag_1:\n  pop\n    /* \"contracts/Lesson4Types.sol\":58:498  contract Array4Lesson {... */\n  callvalue\n  dup1\n  iszero\n  tag_3\n  jumpi\n  0x00\n  dup1\n  revert\ntag_3:\n  pop\n  jump(tag_4)\ntag_2:\n  dup3\n  0x0a\n  dup2\n  add\n  swap3\n  dup3\n  iszero\n  tag_5\n  jumpi\n  swap2\n  0x20\n  mul\n  dup3\n  add\ntag_6:\n  dup3\n  dup2\n  gt\n  iszero\n  tag_7\n  jumpi\n  dup3\n  mload\n  dup3\n  swap1\n  0xff\n  and\n  swap1\n  sstore\n  swap2\n  0x20\n  add\n  swap2\n  swap1\n  0x01\n  add\n  swap1\n  jump(tag_6)\ntag_7:\ntag_5:\n  pop\n  swap1\n  pop\n  tag_8\n  swap2\n  swap1\n  tag_9\n  jump\t// in\ntag_8:\n  pop\n  swap1\n  jump\t// out\ntag_9:\ntag_10:\n  dup1\n  dup3\n  gt\n  iszero\n  tag_11\n  jumpi\n  0x00\n  dup2\n  0x00\n  swap1\n  sstore\n  pop\n  0x01\n  add\n  jump(tag_10)\ntag_11:\n  pop\n  swap1\n  jump\t// out\ntag_4:\n  dataSize(sub_0)\n  dup1\n  dataOffset(sub_0)\n  0x00\n  codecopy\n  0x00\n  return\nstop\n\nsub_0: assembly {\n        /* \"contracts/Lesson4Types.sol\":58:498  contract Array4Lesson {... */\n      mstore(0x40, 0x80)\n      callvalue\n      dup1\n      iszero\n      tag_1\n      jumpi\n      0x00\n      dup1\n      revert\n    tag_1:\n      pop\n      jumpi(tag_2, lt(calldatasize, 0x04))\n      shr(0xe0, calldataload(0x00))\n      dup1\n      0x304acd68\n      eq\n      tag_3\n      jumpi\n      dup1\n      0x5a79b850\n      eq\n      tag_4\n      jumpi\n      dup1\n      0x80c9419e\n      eq\n      tag_5\n      jumpi\n      dup1\n      0xbfb231d2\n      eq\n      tag_6\n      jumpi\n      dup1\n      0xd9a38d64\n      eq\n      tag_7\n      jumpi\n      dup1\n      0xe3440466\n      eq\n      tag_8\n      jumpi\n    tag_2:\n      0x00\n      dup1\n      revert\n        /* \"contracts/Lesson4Types.sol\":245:417  function modifyArray() public {... */\n    tag_3:\n      tag_9\n      tag_10\n      jump\t// in\n    tag_9:\n      stop\n        /* \"contracts/Lesson4Types.sol\":218:238  uint[] public dynArr */\n    tag_4:\n      tag_11\n      0x04\n      dup1\n      calldatasize\n      sub\n      dup2\n      add\n      swap1\n      tag_12\n      swap2\n      swap1\n      tag_13\n      jump\t// in\n    tag_12:\n      tag_14\n      jump\t// in\n    tag_11:\n      mload(0x40)\n      tag_15\n      swap2\n      swap1\n      tag_16\n      jump\t// in\n    tag_15:\n      mload(0x40)\n      dup1\n      swap2\n      sub\n      swap1\n      return\n        /* \"contracts/Lesson4Types.sol\":132:153  string[2] public list */\n    tag_5:\n      tag_17\n      0x04\n      dup1\n      calldatasize\n      sub\n      dup2\n      add\n      swap1\n      tag_18\n      swap2\n      swap1\n      tag_13\n      jump\t// in\n    tag_18:\n      tag_19\n      jump\t// in\n    tag_17:\n      mload(0x40)\n      tag_20\n      swap2\n      swap1\n      tag_21\n      jump\t// in\n    tag_20:\n      mload(0x40)\n      dup1\n      swap2\n      sub\n      swap1\n      return\n        /* \"contracts/Lesson4Types.sol\":91:126  uint[10] public items = [10, 20, 1] */\n    tag_6:\n      tag_22\n      0x04\n      dup1\n      calldatasize\n      sub\n      dup2\n      add\n      swap1\n      tag_23\n      swap2\n      swap1\n      tag_13\n      jump\t// in\n    tag_23:\n      tag_24\n      jump\t// in\n    tag_22:\n      mload(0x40)\n      tag_25\n      swap2\n      swap1\n      tag_16\n      jump\t// in\n    tag_25:\n      mload(0x40)\n      dup1\n      swap2\n      sub\n      swap1\n      return\n        /* \"contracts/Lesson4Types.sol\":160:184  uint[2][5] public matrix */\n    tag_7:\n      tag_26\n      0x04\n      dup1\n      calldatasize\n      sub\n      dup2\n      add\n      swap1\n      tag_27\n      swap2\n      swap1\n      tag_28\n      jump\t// in\n    tag_27:\n      tag_29\n      jump\t// in\n    tag_26:\n      mload(0x40)\n      tag_30\n      swap2\n      swap1\n      tag_16\n      jump\t// in\n    tag_30:\n      mload(0x40)\n      dup1\n      swap2\n      sub\n      swap1\n      return\n        /* \"contracts/Lesson4Types.sol\":423:496  function modDynamicArr(uint num) public {... */\n    tag_8:\n      tag_31\n      0x04\n      dup1\n      calldatasize\n      sub\n      dup2\n      add\n      swap1\n      tag_32\n      swap2\n      swap1\n      tag_13\n      jump\t// in\n    tag_32:\n      tag_33\n      jump\t// in\n    tag_31:\n      stop\n        /* \"contracts/Lesson4Types.sol\":245:417  function modifyArray() public {... */\n    tag_10:\n        /* \"contracts/Lesson4Types.sol\":307:308  5 */\n      0x05\n        /* \"contracts/Lesson4Types.sol\":296:301  items */\n      0x00\n        /* \"contracts/Lesson4Types.sol\":302:303  0 */\n      dup1\n        /* \"contracts/Lesson4Types.sol\":296:304  items[0] */\n      0x0a\n      dup2\n      lt\n      tag_35\n      jumpi\n      tag_36\n      tag_37\n      jump\t// in\n    tag_36:\n    tag_35:\n      add\n      sload\n        /* \"contracts/Lesson4Types.sol\":296:308  items[0] * 5 */\n      tag_39\n      swap2\n      swap1\n      tag_40\n      jump\t// in\n    tag_39:\n        /* \"contracts/Lesson4Types.sol\":285:290  items */\n      0x00\n        /* \"contracts/Lesson4Types.sol\":291:292  0 */\n      dup1\n        /* \"contracts/Lesson4Types.sol\":285:293  items[0] */\n      0x0a\n      dup2\n      lt\n      tag_41\n      jumpi\n      tag_42\n      tag_37\n      jump\t// in\n    tag_42:\n    tag_41:\n      add\n        /* \"contracts/Lesson4Types.sol\":285:308  items[0] = items[0] * 5 */\n      dup2\n      swap1\n      sstore\n      pop\n        /* \"contracts/Lesson4Types.sol\":329:334  items */\n      0x00\n        /* \"contracts/Lesson4Types.sol\":335:336  0 */\n      dup1\n        /* \"contracts/Lesson4Types.sol\":329:337  items[0] */\n      0x0a\n      dup2\n      lt\n      tag_44\n      jumpi\n      tag_45\n      tag_37\n      jump\t// in\n    tag_45:\n    tag_44:\n      add\n      sload\n        /* \"contracts/Lesson4Types.sol\":318:323  items */\n      0x00\n        /* \"contracts/Lesson4Types.sol\":324:325  5 */\n      0x05\n        /* \"contracts/Lesson4Types.sol\":318:326  items[5] */\n      0x0a\n      dup2\n      lt\n      tag_47\n      jumpi\n      tag_48\n      tag_37\n      jump\t// in\n    tag_48:\n    tag_47:\n      add\n        /* \"contracts/Lesson4Types.sol\":318:337  items[5] = items[0] */\n      dup2\n      swap1\n      sstore\n      pop\n        /* \"contracts/Lesson4Types.sol\":348:410  matrix = [... */\n      mload(0x40)\n      dup1\n      0xa0\n      add\n      0x40\n      mstore\n      dup1\n      mload(0x40)\n      dup1\n      0x40\n      add\n      0x40\n      mstore\n      dup1\n        /* \"contracts/Lesson4Types.sol\":372:373  1 */\n      0x01\n        /* \"contracts/Lesson4Types.sol\":348:410  matrix = [... */\n      0xff\n      and\n      dup2\n      mstore\n      0x20\n      add\n        /* \"contracts/Lesson4Types.sol\":374:375  2 */\n      0x02\n        /* \"contracts/Lesson4Types.sol\":348:410  matrix = [... */\n      0xff\n      and\n      dup2\n      mstore\n      pop\n      dup2\n      mstore\n      0x20\n      add\n      mload(0x40)\n      dup1\n      0x40\n      add\n      0x40\n      mstore\n      dup1\n        /* \"contracts/Lesson4Types.sol\":378:379  1 */\n      0x01\n        /* \"contracts/Lesson4Types.sol\":348:410  matrix = [... */\n      0xff\n      and\n      dup2\n      mstore\n      0x20\n      add\n        /* \"contracts/Lesson4Types.sol\":380:381  2 */\n      0x02\n        /* \"contracts/Lesson4Types.sol\":348:410  matrix = [... */\n      0xff\n      and\n      dup2\n      mstore\n      pop\n      dup2\n      mstore\n      0x20\n      add\n      mload(0x40)\n      dup1\n      0x40\n      add\n      0x40\n      mstore\n      dup1\n        /* \"contracts/Lesson4Types.sol\":384:385  1 */\n      0x01\n        /* \"contracts/Lesson4Types.sol\":348:410  matrix = [... */\n      0xff\n      and\n      dup2\n      mstore\n      0x20\n      add\n        /* \"contracts/Lesson4Types.sol\":386:387  2 */\n      0x02\n        /* \"contracts/Lesson4Types.sol\":348:410  matrix = [... */\n      0xff\n      and\n      dup2\n      mstore\n      pop\n      dup2\n      mstore\n      0x20\n      add\n      mload(0x40)\n      dup1\n      0x40\n      add\n      0x40\n      mstore\n      dup1\n        /* \"contracts/Lesson4Types.sol\":390:391  1 */\n      0x01\n        /* \"contracts/Lesson4Types.sol\":348:410  matrix = [... */\n      0xff\n      and\n      dup2\n      mstore\n      0x20\n      add\n        /* \"contracts/Lesson4Types.sol\":392:393  2 */\n      0x02\n        /* \"contracts/Lesson4Types.sol\":348:410  matrix = [... */\n      0xff\n      and\n      dup2\n      mstore\n      pop\n      dup2\n      mstore\n      0x20\n      add\n      mload(0x40)\n      dup1\n      0x40\n      add\n      0x40\n      mstore\n      dup1\n        /* \"contracts/Lesson4Types.sol\":396:397  1 */\n      0x01\n        /* \"contracts/Lesson4Types.sol\":348:410  matrix = [... */\n      0xff\n      and\n      dup2\n      mstore\n      0x20\n      add\n        /* \"contracts/Lesson4Types.sol\":398:399  2 */\n      0x02\n        /* \"contracts/Lesson4Types.sol\":348:410  matrix = [... */\n      0xff\n      and\n      dup2\n      mstore\n      pop\n      dup2\n      mstore\n      pop\n        /* \"contracts/Lesson4Types.sol\":348:354  matrix */\n      0x0c\n        /* \"contracts/Lesson4Types.sol\":348:410  matrix = [... */\n      swap1\n      0x05\n      tag_50\n      swap3\n      swap2\n      swap1\n      tag_51\n      jump\t// in\n    tag_50:\n      pop\n        /* \"contracts/Lesson4Types.sol\":245:417  function modifyArray() public {... */\n      jump\t// out\n        /* \"contracts/Lesson4Types.sol\":218:238  uint[] public dynArr */\n    tag_14:\n      0x16\n      dup2\n      dup2\n      sload\n      dup2\n      lt\n      tag_52\n      jumpi\n      0x00\n      dup1\n      revert\n    tag_52:\n      swap1\n      0x00\n      mstore\n      keccak256(0x00, 0x20)\n      add\n      0x00\n      swap2\n      pop\n      swap1\n      pop\n      sload\n      dup2\n      jump\t// out\n        /* \"contracts/Lesson4Types.sol\":132:153  string[2] public list */\n    tag_19:\n      0x0a\n      dup2\n      0x02\n      dup2\n      lt\n      tag_54\n      jumpi\n      0x00\n      dup1\n      revert\n    tag_54:\n      add\n      0x00\n      swap2\n      pop\n      swap1\n      pop\n      dup1\n      sload\n      tag_56\n      swap1\n      tag_57\n      jump\t// in\n    tag_56:\n      dup1\n      0x1f\n      add\n      0x20\n      dup1\n      swap2\n      div\n      mul\n      0x20\n      add\n      mload(0x40)\n      swap1\n      dup2\n      add\n      0x40\n      mstore\n      dup1\n      swap3\n      swap2\n      swap1\n      dup2\n      dup2\n      mstore\n      0x20\n      add\n      dup3\n      dup1\n      sload\n      tag_58\n      swap1\n      tag_57\n      jump\t// in\n    tag_58:\n      dup1\n      iszero\n      tag_59\n      jumpi\n      dup1\n      0x1f\n      lt\n      tag_60\n      jumpi\n      0x0100\n      dup1\n      dup4\n      sload\n      div\n      mul\n      dup4\n      mstore\n      swap2\n      0x20\n      add\n      swap2\n      jump(tag_59)\n    tag_60:\n      dup3\n      add\n      swap2\n      swap1\n      0x00\n      mstore\n      keccak256(0x00, 0x20)\n      swap1\n    tag_61:\n      dup2\n      sload\n      dup2\n      mstore\n      swap1\n      0x01\n      add\n      swap1\n      0x20\n      add\n      dup1\n      dup4\n      gt\n      tag_61\n      jumpi\n      dup3\n      swap1\n      sub\n      0x1f\n      and\n      dup3\n      add\n      swap2\n    tag_59:\n      pop\n      pop\n      pop\n      pop\n      pop\n      dup2\n      jump\t// out\n        /* \"contracts/Lesson4Types.sol\":91:126  uint[10] public items = [10, 20, 1] */\n    tag_24:\n      0x00\n      dup2\n      0x0a\n      dup2\n      lt\n      tag_62\n      jumpi\n      0x00\n      dup1\n      revert\n    tag_62:\n      add\n      0x00\n      swap2\n      pop\n      swap1\n      pop\n      sload\n      dup2\n      jump\t// out\n        /* \"contracts/Lesson4Types.sol\":160:184  uint[2][5] public matrix */\n    tag_29:\n      0x0c\n      dup3\n      0x05\n      dup2\n      lt\n      tag_64\n      jumpi\n      0x00\n      dup1\n      revert\n    tag_64:\n      0x02\n      mul\n      add\n      dup2\n      0x02\n      dup2\n      lt\n      tag_66\n      jumpi\n      0x00\n      dup1\n      revert\n    tag_66:\n      add\n      0x00\n      swap2\n      pop\n      swap2\n      pop\n      pop\n      sload\n      dup2\n      jump\t// out\n        /* \"contracts/Lesson4Types.sol\":423:496  function modDynamicArr(uint num) public {... */\n    tag_33:\n        /* \"contracts/Lesson4Types.sol\":473:479  dynArr */\n      0x16\n        /* \"contracts/Lesson4Types.sol\":485:488  num */\n      dup2\n        /* \"contracts/Lesson4Types.sol\":473:489  dynArr.push(num) */\n      swap1\n      dup1\n      0x01\n      dup2\n      sload\n      add\n      dup1\n      dup3\n      sstore\n      dup1\n      swap2\n      pop\n      pop\n      0x01\n      swap1\n      sub\n      swap1\n      0x00\n      mstore\n      keccak256(0x00, 0x20)\n      add\n      0x00\n      swap1\n      swap2\n      swap1\n      swap2\n      swap1\n      swap2\n      pop\n      sstore\n        /* \"contracts/Lesson4Types.sol\":423:496  function modDynamicArr(uint num) public {... */\n      pop\n      jump\t// out\n    tag_51:\n      dup3\n      mul(0x02, 0x05)\n      dup2\n      add\n      swap3\n      dup3\n      iszero\n      tag_70\n      jumpi\n      swap2\n      0x20\n      mul\n      dup3\n      add\n    tag_71:\n      dup3\n      dup2\n      gt\n      iszero\n      tag_72\n      jumpi\n      dup3\n      mload\n      dup3\n      swap1\n      0x02\n      tag_73\n      swap3\n      swap2\n      swap1\n      tag_74\n      jump\t// in\n    tag_73:\n      pop\n      swap2\n      0x20\n      add\n      swap2\n      swap1\n      0x02\n      add\n      swap1\n      jump(tag_71)\n    tag_72:\n    tag_70:\n      pop\n      swap1\n      pop\n      tag_75\n      swap2\n      swap1\n      tag_76\n      jump\t// in\n    tag_75:\n      pop\n      swap1\n      jump\t// out\n    tag_74:\n      dup3\n      0x02\n      dup2\n      add\n      swap3\n      dup3\n      iszero\n      tag_77\n      jumpi\n      swap2\n      0x20\n      mul\n      dup3\n      add\n    tag_78:\n      dup3\n      dup2\n      gt\n      iszero\n      tag_79\n      jumpi\n      dup3\n      mload\n      dup3\n      swap1\n      0xff\n      and\n      swap1\n      sstore\n      swap2\n      0x20\n      add\n      swap2\n      swap1\n      0x01\n      add\n      swap1\n      jump(tag_78)\n    tag_79:\n    tag_77:\n      pop\n      swap1\n      pop\n      tag_80\n      swap2\n      swap1\n      tag_81\n      jump\t// in\n    tag_80:\n      pop\n      swap1\n      jump\t// out\n    tag_76:\n    tag_82:\n      dup1\n      dup3\n      gt\n      iszero\n      tag_83\n      jumpi\n      0x00\n      dup2\n      dup2\n      tag_84\n      swap2\n      swap1\n      tag_85\n      jump\t// in\n    tag_84:\n      pop\n      0x02\n      add\n      jump(tag_82)\n    tag_83:\n      pop\n      swap1\n      jump\t// out\n    tag_81:\n    tag_86:\n      dup1\n      dup3\n      gt\n      iszero\n      tag_87\n      jumpi\n      0x00\n      dup2\n      0x00\n      swap1\n      sstore\n      pop\n      0x01\n      add\n      jump(tag_86)\n    tag_87:\n      pop\n      swap1\n      jump\t// out\n    tag_85:\n      pop\n      0x00\n      dup2\n      sstore\n      0x01\n      add\n      0x00\n      swap1\n      sstore\n      jump\t// out\n        /* \"#utility.yul\":7:146   */\n    tag_89:\n        /* \"#utility.yul\":53:58   */\n      0x00\n        /* \"#utility.yul\":91:97   */\n      dup2\n        /* \"#utility.yul\":78:98   */\n      calldataload\n        /* \"#utility.yul\":69:98   */\n      swap1\n      pop\n        /* \"#utility.yul\":107:140   */\n      tag_91\n        /* \"#utility.yul\":134:139   */\n      dup2\n        /* \"#utility.yul\":107:140   */\n      tag_92\n      jump\t// in\n    tag_91:\n        /* \"#utility.yul\":7:146   */\n      swap3\n      swap2\n      pop\n      pop\n      jump\t// out\n        /* \"#utility.yul\":152:481   */\n    tag_13:\n        /* \"#utility.yul\":211:217   */\n      0x00\n        /* \"#utility.yul\":260:262   */\n      0x20\n        /* \"#utility.yul\":248:257   */\n      dup3\n        /* \"#utility.yul\":239:246   */\n      dup5\n        /* \"#utility.yul\":235:258   */\n      sub\n        /* \"#utility.yul\":231:263   */\n      slt\n        /* \"#utility.yul\":228:347   */\n      iszero\n      tag_94\n      jumpi\n        /* \"#utility.yul\":266:345   */\n      tag_95\n      tag_96\n      jump\t// in\n    tag_95:\n        /* \"#utility.yul\":228:347   */\n    tag_94:\n        /* \"#utility.yul\":386:387   */\n      0x00\n        /* \"#utility.yul\":411:464   */\n      tag_97\n        /* \"#utility.yul\":456:463   */\n      dup5\n        /* \"#utility.yul\":447:453   */\n      dup3\n        /* \"#utility.yul\":436:445   */\n      dup6\n        /* \"#utility.yul\":432:454   */\n      add\n        /* \"#utility.yul\":411:464   */\n      tag_89\n      jump\t// in\n    tag_97:\n        /* \"#utility.yul\":401:464   */\n      swap2\n      pop\n        /* \"#utility.yul\":357:474   */\n      pop\n        /* \"#utility.yul\":152:481   */\n      swap3\n      swap2\n      pop\n      pop\n      jump\t// out\n        /* \"#utility.yul\":487:961   */\n    tag_28:\n        /* \"#utility.yul\":555:561   */\n      0x00\n        /* \"#utility.yul\":563:569   */\n      dup1\n        /* \"#utility.yul\":612:614   */\n      0x40\n        /* \"#utility.yul\":600:609   */\n      dup4\n        /* \"#utility.yul\":591:598   */\n      dup6\n        /* \"#utility.yul\":587:610   */\n      sub\n        /* \"#utility.yul\":583:615   */\n      slt\n        /* \"#utility.yul\":580:699   */\n      iszero\n      tag_99\n      jumpi\n        /* \"#utility.yul\":618:697   */\n      tag_100\n      tag_96\n      jump\t// in\n    tag_100:\n        /* \"#utility.yul\":580:699   */\n    tag_99:\n        /* \"#utility.yul\":738:739   */\n      0x00\n        /* \"#utility.yul\":763:816   */\n      tag_101\n        /* \"#utility.yul\":808:815   */\n      dup6\n        /* \"#utility.yul\":799:805   */\n      dup3\n        /* \"#utility.yul\":788:797   */\n      dup7\n        /* \"#utility.yul\":784:806   */\n      add\n        /* \"#utility.yul\":763:816   */\n      tag_89\n      jump\t// in\n    tag_101:\n        /* \"#utility.yul\":753:816   */\n      swap3\n      pop\n        /* \"#utility.yul\":709:826   */\n      pop\n        /* \"#utility.yul\":865:867   */\n      0x20\n        /* \"#utility.yul\":891:944   */\n      tag_102\n        /* \"#utility.yul\":936:943   */\n      dup6\n        /* \"#utility.yul\":927:933   */\n      dup3\n        /* \"#utility.yul\":916:925   */\n      dup7\n        /* \"#utility.yul\":912:934   */\n      add\n        /* \"#utility.yul\":891:944   */\n      tag_89\n      jump\t// in\n    tag_102:\n        /* \"#utility.yul\":881:944   */\n      swap2\n      pop\n        /* \"#utility.yul\":836:954   */\n      pop\n        /* \"#utility.yul\":487:961   */\n      swap3\n      pop\n      swap3\n      swap1\n      pop\n      jump\t// out\n        /* \"#utility.yul\":967:1331   */\n    tag_103:\n        /* \"#utility.yul\":1055:1058   */\n      0x00\n        /* \"#utility.yul\":1083:1122   */\n      tag_105\n        /* \"#utility.yul\":1116:1121   */\n      dup3\n        /* \"#utility.yul\":1083:1122   */\n      tag_106\n      jump\t// in\n    tag_105:\n        /* \"#utility.yul\":1138:1209   */\n      tag_107\n        /* \"#utility.yul\":1202:1208   */\n      dup2\n        /* \"#utility.yul\":1197:1200   */\n      dup6\n        /* \"#utility.yul\":1138:1209   */\n      tag_108\n      jump\t// in\n    tag_107:\n        /* \"#utility.yul\":1131:1209   */\n      swap4\n      pop\n        /* \"#utility.yul\":1218:1270   */\n      tag_109\n        /* \"#utility.yul\":1263:1269   */\n      dup2\n        /* \"#utility.yul\":1258:1261   */\n      dup6\n        /* \"#utility.yul\":1251:1255   */\n      0x20\n        /* \"#utility.yul\":1244:1249   */\n      dup7\n        /* \"#utility.yul\":1240:1256   */\n      add\n        /* \"#utility.yul\":1218:1270   */\n      tag_110\n      jump\t// in\n    tag_109:\n        /* \"#utility.yul\":1295:1324   */\n      tag_111\n        /* \"#utility.yul\":1317:1323   */\n      dup2\n        /* \"#utility.yul\":1295:1324   */\n      tag_112\n      jump\t// in\n    tag_111:\n        /* \"#utility.yul\":1290:1293   */\n      dup5\n        /* \"#utility.yul\":1286:1325   */\n      add\n        /* \"#utility.yul\":1279:1325   */\n      swap2\n      pop\n        /* \"#utility.yul\":1059:1331   */\n      pop\n        /* \"#utility.yul\":967:1331   */\n      swap3\n      swap2\n      pop\n      pop\n      jump\t// out\n        /* \"#utility.yul\":1337:1455   */\n    tag_113:\n        /* \"#utility.yul\":1424:1448   */\n      tag_115\n        /* \"#utility.yul\":1442:1447   */\n      dup2\n        /* \"#utility.yul\":1424:1448   */\n      tag_116\n      jump\t// in\n    tag_115:\n        /* \"#utility.yul\":1419:1422   */\n      dup3\n        /* \"#utility.yul\":1412:1449   */\n      mstore\n        /* \"#utility.yul\":1337:1455   */\n      pop\n      pop\n      jump\t// out\n        /* \"#utility.yul\":1461:1774   */\n    tag_21:\n        /* \"#utility.yul\":1574:1578   */\n      0x00\n        /* \"#utility.yul\":1612:1614   */\n      0x20\n        /* \"#utility.yul\":1601:1610   */\n      dup3\n        /* \"#utility.yul\":1597:1615   */\n      add\n        /* \"#utility.yul\":1589:1615   */\n      swap1\n      pop\n        /* \"#utility.yul\":1661:1670   */\n      dup2\n        /* \"#utility.yul\":1655:1659   */\n      dup2\n        /* \"#utility.yul\":1651:1671   */\n      sub\n        /* \"#utility.yul\":1647:1648   */\n      0x00\n        /* \"#utility.yul\":1636:1645   */\n      dup4\n        /* \"#utility.yul\":1632:1649   */\n      add\n        /* \"#utility.yul\":1625:1672   */\n      mstore\n        /* \"#utility.yul\":1689:1767   */\n      tag_118\n        /* \"#utility.yul\":1762:1766   */\n      dup2\n        /* \"#utility.yul\":1753:1759   */\n      dup5\n        /* \"#utility.yul\":1689:1767   */\n      tag_103\n      jump\t// in\n    tag_118:\n        /* \"#utility.yul\":1681:1767   */\n      swap1\n      pop\n        /* \"#utility.yul\":1461:1774   */\n      swap3\n      swap2\n      pop\n      pop\n      jump\t// out\n        /* \"#utility.yul\":1780:2002   */\n    tag_16:\n        /* \"#utility.yul\":1873:1877   */\n      0x00\n        /* \"#utility.yul\":1911:1913   */\n      0x20\n        /* \"#utility.yul\":1900:1909   */\n      dup3\n        /* \"#utility.yul\":1896:1914   */\n      add\n        /* \"#utility.yul\":1888:1914   */\n      swap1\n      pop\n        /* \"#utility.yul\":1924:1995   */\n      tag_120\n        /* \"#utility.yul\":1992:1993   */\n      0x00\n        /* \"#utility.yul\":1981:1990   */\n      dup4\n        /* \"#utility.yul\":1977:1994   */\n      add\n        /* \"#utility.yul\":1968:1974   */\n      dup5\n        /* \"#utility.yul\":1924:1995   */\n      tag_113\n      jump\t// in\n    tag_120:\n        /* \"#utility.yul\":1780:2002   */\n      swap3\n      swap2\n      pop\n      pop\n      jump\t// out\n        /* \"#utility.yul\":2089:2188   */\n    tag_106:\n        /* \"#utility.yul\":2141:2147   */\n      0x00\n        /* \"#utility.yul\":2175:2180   */\n      dup2\n        /* \"#utility.yul\":2169:2181   */\n      mload\n        /* \"#utility.yul\":2159:2181   */\n      swap1\n      pop\n        /* \"#utility.yul\":2089:2188   */\n      swap2\n      swap1\n      pop\n      jump\t// out\n        /* \"#utility.yul\":2194:2363   */\n    tag_108:\n        /* \"#utility.yul\":2278:2289   */\n      0x00\n        /* \"#utility.yul\":2312:2318   */\n      dup3\n        /* \"#utility.yul\":2307:2310   */\n      dup3\n        /* \"#utility.yul\":2300:2319   */\n      mstore\n        /* \"#utility.yul\":2352:2356   */\n      0x20\n        /* \"#utility.yul\":2347:2350   */\n      dup3\n        /* \"#utility.yul\":2343:2357   */\n      add\n        /* \"#utility.yul\":2328:2357   */\n      swap1\n      pop\n        /* \"#utility.yul\":2194:2363   */\n      swap3\n      swap2\n      pop\n      pop\n      jump\t// out\n        /* \"#utility.yul\":2369:2717   */\n    tag_40:\n        /* \"#utility.yul\":2409:2416   */\n      0x00\n        /* \"#utility.yul\":2432:2452   */\n      tag_126\n        /* \"#utility.yul\":2450:2451   */\n      dup3\n        /* \"#utility.yul\":2432:2452   */\n      tag_116\n      jump\t// in\n    tag_126:\n        /* \"#utility.yul\":2427:2452   */\n      swap2\n      pop\n        /* \"#utility.yul\":2466:2486   */\n      tag_127\n        /* \"#utility.yul\":2484:2485   */\n      dup4\n        /* \"#utility.yul\":2466:2486   */\n      tag_116\n      jump\t// in\n    tag_127:\n        /* \"#utility.yul\":2461:2486   */\n      swap3\n      pop\n        /* \"#utility.yul\":2654:2655   */\n      dup2\n        /* \"#utility.yul\":2586:2652   */\n      0xffffffffffffffffffffffffffffffffffffffffffffffffffffffffffffffff\n        /* \"#utility.yul\":2582:2656   */\n      div\n        /* \"#utility.yul\":2579:2580   */\n      dup4\n        /* \"#utility.yul\":2576:2657   */\n      gt\n        /* \"#utility.yul\":2571:2572   */\n      dup3\n        /* \"#utility.yul\":2564:2573   */\n      iszero\n        /* \"#utility.yul\":2557:2574   */\n      iszero\n        /* \"#utility.yul\":2553:2658   */\n      and\n        /* \"#utility.yul\":2550:2681   */\n      iszero\n      tag_128\n      jumpi\n        /* \"#utility.yul\":2661:2679   */\n      tag_129\n      tag_130\n      jump\t// in\n    tag_129:\n        /* \"#utility.yul\":2550:2681   */\n    tag_128:\n        /* \"#utility.yul\":2709:2710   */\n      dup3\n        /* \"#utility.yul\":2706:2707   */\n      dup3\n        /* \"#utility.yul\":2702:2711   */\n      mul\n        /* \"#utility.yul\":2691:2711   */\n      swap1\n      pop\n        /* \"#utility.yul\":2369:2717   */\n      swap3\n      swap2\n      pop\n      pop\n      jump\t// out\n        /* \"#utility.yul\":2723:2800   */\n    tag_116:\n        /* \"#utility.yul\":2760:2767   */\n      0x00\n        /* \"#utility.yul\":2789:2794   */\n      dup2\n        /* \"#utility.yul\":2778:2794   */\n      swap1\n      pop\n        /* \"#utility.yul\":2723:2800   */\n      swap2\n      swap1\n      pop\n      jump\t// out\n        /* \"#utility.yul\":2806:3113   */\n    tag_110:\n        /* \"#utility.yul\":2874:2875   */\n      0x00\n        /* \"#utility.yul\":2884:2997   */\n    tag_133:\n        /* \"#utility.yul\":2898:2904   */\n      dup4\n        /* \"#utility.yul\":2895:2896   */\n      dup2\n        /* \"#utility.yul\":2892:2905   */\n      lt\n        /* \"#utility.yul\":2884:2997   */\n      iszero\n      tag_135\n      jumpi\n        /* \"#utility.yul\":2983:2984   */\n      dup1\n        /* \"#utility.yul\":2978:2981   */\n      dup3\n        /* \"#utility.yul\":2974:2985   */\n      add\n        /* \"#utility.yul\":2968:2986   */\n      mload\n        /* \"#utility.yul\":2964:2965   */\n      dup2\n        /* \"#utility.yul\":2959:2962   */\n      dup5\n        /* \"#utility.yul\":2955:2966   */\n      add\n        /* \"#utility.yul\":2948:2987   */\n      mstore\n        /* \"#utility.yul\":2920:2922   */\n      0x20\n        /* \"#utility.yul\":2917:2918   */\n      dup2\n        /* \"#utility.yul\":2913:2923   */\n      add\n        /* \"#utility.yul\":2908:2923   */\n      swap1\n      pop\n        /* \"#utility.yul\":2884:2997   */\n      jump(tag_133)\n    tag_135:\n        /* \"#utility.yul\":3015:3021   */\n      dup4\n        /* \"#utility.yul\":3012:3013   */\n      dup2\n        /* \"#utility.yul\":3009:3022   */\n      gt\n        /* \"#utility.yul\":3006:3107   */\n      iszero\n      tag_136\n      jumpi\n        /* \"#utility.yul\":3095:3096   */\n      0x00\n        /* \"#utility.yul\":3086:3092   */\n      dup5\n        /* \"#utility.yul\":3081:3084   */\n      dup5\n        /* \"#utility.yul\":3077:3093   */\n      add\n        /* \"#utility.yul\":3070:3097   */\n      mstore\n        /* \"#utility.yul\":3006:3107   */\n    tag_136:\n        /* \"#utility.yul\":2855:3113   */\n      pop\n        /* \"#utility.yul\":2806:3113   */\n      pop\n      pop\n      pop\n      jump\t// out\n        /* \"#utility.yul\":3119:3439   */\n    tag_57:\n        /* \"#utility.yul\":3163:3169   */\n      0x00\n        /* \"#utility.yul\":3200:3201   */\n      0x02\n        /* \"#utility.yul\":3194:3198   */\n      dup3\n        /* \"#utility.yul\":3190:3202   */\n      div\n        /* \"#utility.yul\":3180:3202   */\n      swap1\n      pop\n        /* \"#utility.yul\":3247:3248   */\n      0x01\n        /* \"#utility.yul\":3241:3245   */\n      dup3\n        /* \"#utility.yul\":3237:3249   */\n      and\n        /* \"#utility.yul\":3268:3286   */\n      dup1\n        /* \"#utility.yul\":3258:3339   */\n      tag_138\n      jumpi\n        /* \"#utility.yul\":3324:3328   */\n      0x7f\n        /* \"#utility.yul\":3316:3322   */\n      dup3\n        /* \"#utility.yul\":3312:3329   */\n      and\n        /* \"#utility.yul\":3302:3329   */\n      swap2\n      pop\n        /* \"#utility.yul\":3258:3339   */\n    tag_138:\n        /* \"#utility.yul\":3386:3388   */\n      0x20\n        /* \"#utility.yul\":3378:3384   */\n      dup3\n        /* \"#utility.yul\":3375:3389   */\n      lt\n        /* \"#utility.yul\":3355:3373   */\n      dup2\n        /* \"#utility.yul\":3352:3390   */\n      eq\n        /* \"#utility.yul\":3349:3433   */\n      iszero\n      tag_139\n      jumpi\n        /* \"#utility.yul\":3405:3423   */\n      tag_140\n      tag_141\n      jump\t// in\n    tag_140:\n        /* \"#utility.yul\":3349:3433   */\n    tag_139:\n        /* \"#utility.yul\":3170:3439   */\n      pop\n        /* \"#utility.yul\":3119:3439   */\n      swap2\n      swap1\n      pop\n      jump\t// out\n        /* \"#utility.yul\":3445:3625   */\n    tag_130:\n        /* \"#utility.yul\":3493:3570   */\n      0x4e487b7100000000000000000000000000000000000000000000000000000000\n        /* \"#utility.yul\":3490:3491   */\n      0x00\n        /* \"#utility.yul\":3483:3571   */\n      mstore\n        /* \"#utility.yul\":3590:3594   */\n      0x11\n        /* \"#utility.yul\":3587:3588   */\n      0x04\n        /* \"#utility.yul\":3580:3595   */\n      mstore\n        /* \"#utility.yul\":3614:3618   */\n      0x24\n        /* \"#utility.yul\":3611:3612   */\n      0x00\n        /* \"#utility.yul\":3604:3619   */\n      revert\n        /* \"#utility.yul\":3631:3811   */\n    tag_141:\n        /* \"#utility.yul\":3679:3756   */\n      0x4e487b7100000000000000000000000000000000000000000000000000000000\n        /* \"#utility.yul\":3676:3677   */\n      0x00\n        /* \"#utility.yul\":3669:3757   */\n      mstore\n        /* \"#utility.yul\":3776:3780   */\n      0x22\n        /* \"#utility.yul\":3773:3774   */\n      0x04\n        /* \"#utility.yul\":3766:3781   */\n      mstore\n        /* \"#utility.yul\":3800:3804   */\n      0x24\n        /* \"#utility.yul\":3797:3798   */\n      0x00\n        /* \"#utility.yul\":3790:3805   */\n      revert\n        /* \"#utility.yul\":3817:3997   */\n    tag_37:\n        /* \"#utility.yul\":3865:3942   */\n      0x4e487b7100000000000000000000000000000000000000000000000000000000\n        /* \"#utility.yul\":3862:3863   */\n      0x00\n        /* \"#utility.yul\":3855:3943   */\n      mstore\n        /* \"#utility.yul\":3962:3966   */\n      0x32\n        /* \"#utility.yul\":3959:3960   */\n      0x04\n        /* \"#utility.yul\":3952:3967   */\n      mstore\n        /* \"#utility.yul\":3986:3990   */\n      0x24\n        /* \"#utility.yul\":3983:3984   */\n      0x00\n        /* \"#utility.yul\":3976:3991   */\n      revert\n        /* \"#utility.yul\":4126:4243   */\n    tag_96:\n        /* \"#utility.yul\":4235:4236   */\n      0x00\n        /* \"#utility.yul\":4232:4233   */\n      dup1\n        /* \"#utility.yul\":4225:4237   */\n      revert\n        /* \"#utility.yul\":4249:4351   */\n    tag_112:\n        /* \"#utility.yul\":4290:4296   */\n      0x00\n        /* \"#utility.yul\":4341:4343   */\n      0x1f\n        /* \"#utility.yul\":4337:4344   */\n      not\n        /* \"#utility.yul\":4332:4334   */\n      0x1f\n        /* \"#utility.yul\":4325:4330   */\n      dup4\n        /* \"#utility.yul\":4321:4335   */\n      add\n        /* \"#utility.yul\":4317:4345   */\n      and\n        /* \"#utility.yul\":4307:4345   */\n      swap1\n      pop\n        /* \"#utility.yul\":4249:4351   */\n      swap2\n      swap1\n      pop\n      jump\t// out\n        /* \"#utility.yul\":4357:4479   */\n    tag_92:\n        /* \"#utility.yul\":4430:4454   */\n      tag_150\n        /* \"#utility.yul\":4448:4453   */\n      dup2\n        /* \"#utility.yul\":4430:4454   */\n      tag_116\n      jump\t// in\n    tag_150:\n        /* \"#utility.yul\":4423:4428   */\n      dup2\n        /* \"#utility.yul\":4420:4455   */\n      eq\n        /* \"#utility.yul\":4410:4473   */\n      tag_151\n      jumpi\n        /* \"#utility.yul\":4469:4470   */\n      0x00\n        /* \"#utility.yul\":4466:4467   */\n      dup1\n        /* \"#utility.yul\":4459:4471   */\n      revert\n        /* \"#utility.yul\":4410:4473   */\n    tag_151:\n        /* \"#utility.yul\":4357:4479   */\n      pop\n      jump\t// out\n\n    auxdata: 0xa264697066735822122010125dcb0e8c9601855aeebcc0eb01520de9968eb20c4b6b14ee209dba2c59fc64736f6c63430008070033\n}\n",
				"bytecode": {
					"linkReferences": {},
					"object": "60806040526040518060600160405280600a60ff168152602001601460ff168152602001600160ff16815250600090600361003b92919061004e565b5034801561004857600080fd5b506100b0565b82600a8101928215610082579160200282015b82811115610081578251829060ff16905591602001919060010190610061565b5b50905061008f9190610093565b5090565b5b808211156100ac576000816000905550600101610094565b5090565b61077b806100bf6000396000f3fe608060405234801561001057600080fd5b50600436106100625760003560e01c8063304acd68146100675780635a79b8501461007157806380c9419e146100a1578063bfb231d2146100d1578063d9a38d6414610101578063e344046614610131575b600080fd5b61006f61014d565b005b61008b600480360381019061008691906104b4565b61027e565b604051610098919061058b565b60405180910390f35b6100bb60048036038101906100b691906104b4565b6102a2565b6040516100c89190610569565b60405180910390f35b6100eb60048036038101906100e691906104b4565b610345565b6040516100f8919061058b565b60405180910390f35b61011b600480360381019061011691906104e1565b610360565b604051610128919061058b565b60405180910390f35b61014b600480360381019061014691906104b4565b61038e565b005b6005600080600a8110610163576101626106e9565b5b015461016f91906105c2565b600080600a8110610183576101826106e9565b5b0181905550600080600a811061019c5761019b6106e9565b5b015460006005600a81106101b3576101b26106e9565b5b01819055506040518060a001604052806040518060400160405280600160ff168152602001600260ff1681525081526020016040518060400160405280600160ff168152602001600260ff1681525081526020016040518060400160405280600160ff168152602001600260ff1681525081526020016040518060400160405280600160ff168152602001600260ff1681525081526020016040518060400160405280600160ff168152602001600260ff16815250815250600c90600561027b9291906103ba565b50565b6016818154811061028e57600080fd5b906000526020600020016000915090505481565b600a81600281106102b257600080fd5b0160009150905080546102c490610659565b80601f01602080910402602001604051908101604052809291908181526020018280546102f090610659565b801561033d5780601f106103125761010080835404028352916020019161033d565b820191906000526020600020905b81548152906001019060200180831161032057829003601f168201915b505050505081565b600081600a811061035557600080fd5b016000915090505481565b600c826005811061037057600080fd5b60020201816002811061038257600080fd5b01600091509150505481565b601681908060018154018082558091505060019003906000526020600020016000909190919091505550565b82600560020281019282156103fa579160200282015b828111156103f9578251829060026103e992919061040b565b50916020019190600201906103d0565b5b5090506104079190610450565b5090565b826002810192821561043f579160200282015b8281111561043e578251829060ff1690559160200191906001019061041e565b5b50905061044c9190610474565b5090565b5b8082111561047057600081816104679190610491565b50600201610451565b5090565b5b8082111561048d576000816000905550600101610475565b5090565b506000815560010160009055565b6000813590506104ae8161072e565b92915050565b6000602082840312156104ca576104c9610718565b5b60006104d88482850161049f565b91505092915050565b600080604083850312156104f8576104f7610718565b5b60006105068582860161049f565b92505060206105178582860161049f565b9150509250929050565b600061052c826105a6565b61053681856105b1565b9350610546818560208601610626565b61054f8161071d565b840191505092915050565b6105638161061c565b82525050565b600060208201905081810360008301526105838184610521565b905092915050565b60006020820190506105a0600083018461055a565b92915050565b600081519050919050565b600082825260208201905092915050565b60006105cd8261061c565b91506105d88361061c565b9250817fffffffffffffffffffffffffffffffffffffffffffffffffffffffffffffffff04831182151516156106115761061061068b565b5b828202905092915050565b6000819050919050565b60005b83811015610644578082015181840152602081019050610629565b83811115610653576000848401525b50505050565b6000600282049050600182168061067157607f821691505b60208210811415610685576106846106ba565b5b50919050565b7f4e487b7100000000000000000000000000000000000000000000000000000000600052601160045260246000fd5b7f4e487b7100000000000000000000000000000000000000000000000000000000600052602260045260246000fd5b7f4e487b7100000000000000000000000000000000000000000000000000000000600052603260045260246000fd5b600080fd5b6000601f19601f8301169050919050565b6107378161061c565b811461074257600080fd5b5056fea264697066735822122010125dcb0e8c9601855aeebcc0eb01520de9968eb20c4b6b14ee209dba2c59fc64736f6c63430008070033",
					"opcodes": "PUSH1 0x80 PUSH1 0x40 MSTORE PUSH1 0x40 MLOAD DUP1 PUSH1 0x60 ADD PUSH1 0x40 MSTORE DUP1 PUSH1 0xA PUSH1 0xFF AND DUP2 MSTORE PUSH1 0x20 ADD PUSH1 0x14 PUSH1 0xFF AND DUP2 MSTORE PUSH1 0x20 ADD PUSH1 0x1 PUSH1 0xFF AND DUP2 MSTORE POP PUSH1 0x0 SWAP1 PUSH1 0x3 PUSH2 0x3B SWAP3 SWAP2 SWAP1 PUSH2 0x4E JUMP JUMPDEST POP CALLVALUE DUP1 ISZERO PUSH2 0x48 JUMPI PUSH1 0x0 DUP1 REVERT JUMPDEST POP PUSH2 0xB0 JUMP JUMPDEST DUP3 PUSH1 0xA DUP2 ADD SWAP3 DUP3 ISZERO PUSH2 0x82 JUMPI SWAP2 PUSH1 0x20 MUL DUP3 ADD JUMPDEST DUP3 DUP2 GT ISZERO PUSH2 0x81 JUMPI DUP3 MLOAD DUP3 SWAP1 PUSH1 0xFF AND SWAP1 SSTORE SWAP2 PUSH1 0x20 ADD SWAP2 SWAP1 PUSH1 0x1 ADD SWAP1 PUSH2 0x61 JUMP JUMPDEST JUMPDEST POP SWAP1 POP PUSH2 0x8F SWAP2 SWAP1 PUSH2 0x93 JUMP JUMPDEST POP SWAP1 JUMP JUMPDEST JUMPDEST DUP1 DUP3 GT ISZERO PUSH2 0xAC JUMPI PUSH1 0x0 DUP2 PUSH1 0x0 SWAP1 SSTORE POP PUSH1 0x1 ADD PUSH2 0x94 JUMP JUMPDEST POP SWAP1 JUMP JUMPDEST PUSH2 0x77B DUP1 PUSH2 0xBF PUSH1 0x0 CODECOPY PUSH1 0x0 RETURN INVALID PUSH1 0x80 PUSH1 0x40 MSTORE CALLVALUE DUP1 ISZERO PUSH2 0x10 JUMPI PUSH1 0x0 DUP1 REVERT JUMPDEST POP PUSH1 0x4 CALLDATASIZE LT PUSH2 0x62 JUMPI PUSH1 0x0 CALLDATALOAD PUSH1 0xE0 SHR DUP1 PUSH4 0x304ACD68 EQ PUSH2 0x67 JUMPI DUP1 PUSH4 0x5A79B850 EQ PUSH2 0x71 JUMPI DUP1 PUSH4 0x80C9419E EQ PUSH2 0xA1 JUMPI DUP1 PUSH4 0xBFB231D2 EQ PUSH2 0xD1 JUMPI DUP1 PUSH4 0xD9A38D64 EQ PUSH2 0x101 JUMPI DUP1 PUSH4 0xE3440466 EQ PUSH2 0x131 JUMPI JUMPDEST PUSH1 0x0 DUP1 REVERT JUMPDEST PUSH2 0x6F PUSH2 0x14D JUMP JUMPDEST STOP JUMPDEST PUSH2 0x8B PUSH1 0x4 DUP1 CALLDATASIZE SUB DUP2 ADD SWAP1 PUSH2 0x86 SWAP2 SWAP1 PUSH2 0x4B4 JUMP JUMPDEST PUSH2 0x27E JUMP JUMPDEST PUSH1 0x40 MLOAD PUSH2 0x98 SWAP2 SWAP1 PUSH2 0x58B JUMP JUMPDEST PUSH1 0x40 MLOAD DUP1 SWAP2 SUB SWAP1 RETURN JUMPDEST PUSH2 0xBB PUSH1 0x4 DUP1 CALLDATASIZE SUB DUP2 ADD SWAP1 PUSH2 0xB6 SWAP2 SWAP1 PUSH2 0x4B4 JUMP JUMPDEST PUSH2 0x2A2 JUMP JUMPDEST PUSH1 0x40 MLOAD PUSH2 0xC8 SWAP2 SWAP1 PUSH2 0x569 JUMP JUMPDEST PUSH1 0x40 MLOAD DUP1 SWAP2 SUB SWAP1 RETURN JUMPDEST PUSH2 0xEB PUSH1 0x4 DUP1 CALLDATASIZE SUB DUP2 ADD SWAP1 PUSH2 0xE6 SWAP2 SWAP1 PUSH2 0x4B4 JUMP JUMPDEST PUSH2 0x345 JUMP JUMPDEST PUSH1 0x40 MLOAD PUSH2 0xF8 SWAP2 SWAP1 PUSH2 0x58B JUMP JUMPDEST PUSH1 0x40 MLOAD DUP1 SWAP2 SUB SWAP1 RETURN JUMPDEST PUSH2 0x11B PUSH1 0x4 DUP1 CALLDATASIZE SUB DUP2 ADD SWAP1 PUSH2 0x116 SWAP2 SWAP1 PUSH2 0x4E1 JUMP JUMPDEST PUSH2 0x360 JUMP JUMPDEST PUSH1 0x40 MLOAD PUSH2 0x128 SWAP2 SWAP1 PUSH2 0x58B JUMP JUMPDEST PUSH1 0x40 MLOAD DUP1 SWAP2 SUB SWAP1 RETURN JUMPDEST PUSH2 0x14B PUSH1 0x4 DUP1 CALLDATASIZE SUB DUP2 ADD SWAP1 PUSH2 0x146 SWAP2 SWAP1 PUSH2 0x4B4 JUMP JUMPDEST PUSH2 0x38E JUMP JUMPDEST STOP JUMPDEST PUSH1 0x5 PUSH1 0x0 DUP1 PUSH1 0xA DUP2 LT PUSH2 0x163 JUMPI PUSH2 0x162 PUSH2 0x6E9 JUMP JUMPDEST JUMPDEST ADD SLOAD PUSH2 0x16F SWAP2 SWAP1 PUSH2 0x5C2 JUMP JUMPDEST PUSH1 0x0 DUP1 PUSH1 0xA DUP2 LT PUSH2 0x183 JUMPI PUSH2 0x182 PUSH2 0x6E9 JUMP JUMPDEST JUMPDEST ADD DUP2 SWAP1 SSTORE POP PUSH1 0x0 DUP1 PUSH1 0xA DUP2 LT PUSH2 0x19C JUMPI PUSH2 0x19B PUSH2 0x6E9 JUMP JUMPDEST JUMPDEST ADD SLOAD PUSH1 0x0 PUSH1 0x5 PUSH1 0xA DUP2 LT PUSH2 0x1B3 JUMPI PUSH2 0x1B2 PUSH2 0x6E9 JUMP JUMPDEST JUMPDEST ADD DUP2 SWAP1 SSTORE POP PUSH1 0x40 MLOAD DUP1 PUSH1 0xA0 ADD PUSH1 0x40 MSTORE DUP1 PUSH1 0x40 MLOAD DUP1 PUSH1 0x40 ADD PUSH1 0x40 MSTORE DUP1 PUSH1 0x1 PUSH1 0xFF AND DUP2 MSTORE PUSH1 0x20 ADD PUSH1 0x2 PUSH1 0xFF AND DUP2 MSTORE POP DUP2 MSTORE PUSH1 0x20 ADD PUSH1 0x40 MLOAD DUP1 PUSH1 0x40 ADD PUSH1 0x40 MSTORE DUP1 PUSH1 0x1 PUSH1 0xFF AND DUP2 MSTORE PUSH1 0x20 ADD PUSH1 0x2 PUSH1 0xFF AND DUP2 MSTORE POP DUP2 MSTORE PUSH1 0x20 ADD PUSH1 0x40 MLOAD DUP1 PUSH1 0x40 ADD PUSH1 0x40 MSTORE DUP1 PUSH1 0x1 PUSH1 0xFF AND DUP2 MSTORE PUSH1 0x20 ADD PUSH1 0x2 PUSH1 0xFF AND DUP2 MSTORE POP DUP2 MSTORE PUSH1 0x20 ADD PUSH1 0x40 MLOAD DUP1 PUSH1 0x40 ADD PUSH1 0x40 MSTORE DUP1 PUSH1 0x1 PUSH1 0xFF AND DUP2 MSTORE PUSH1 0x20 ADD PUSH1 0x2 PUSH1 0xFF AND DUP2 MSTORE POP DUP2 MSTORE PUSH1 0x20 ADD PUSH1 0x40 MLOAD DUP1 PUSH1 0x40 ADD PUSH1 0x40 MSTORE DUP1 PUSH1 0x1 PUSH1 0xFF AND DUP2 MSTORE PUSH1 0x20 ADD PUSH1 0x2 PUSH1 0xFF AND DUP2 MSTORE POP DUP2 MSTORE POP PUSH1 0xC SWAP1 PUSH1 0x5 PUSH2 0x27B SWAP3 SWAP2 SWAP1 PUSH2 0x3BA JUMP JUMPDEST POP JUMP JUMPDEST PUSH1 0x16 DUP2 DUP2 SLOAD DUP2 LT PUSH2 0x28E JUMPI PUSH1 0x0 DUP1 REVERT JUMPDEST SWAP1 PUSH1 0x0 MSTORE PUSH1 0x20 PUSH1 0x0 KECCAK256 ADD PUSH1 0x0 SWAP2 POP SWAP1 POP SLOAD DUP2 JUMP JUMPDEST PUSH1 0xA DUP2 PUSH1 0x2 DUP2 LT PUSH2 0x2B2 JUMPI PUSH1 0x0 DUP1 REVERT JUMPDEST ADD PUSH1 0x0 SWAP2 POP SWAP1 POP DUP1 SLOAD PUSH2 0x2C4 SWAP1 PUSH2 0x659 JUMP JUMPDEST DUP1 PUSH1 0x1F ADD PUSH1 0x20 DUP1 SWAP2 DIV MUL PUSH1 0x20 ADD PUSH1 0x40 MLOAD SWAP1 DUP2 ADD PUSH1 0x40 MSTORE DUP1 SWAP3 SWAP2 SWAP1 DUP2 DUP2 MSTORE PUSH1 0x20 ADD DUP3 DUP1 SLOAD PUSH2 0x2F0 SWAP1 PUSH2 0x659 JUMP JUMPDEST DUP1 ISZERO PUSH2 0x33D JUMPI DUP1 PUSH1 0x1F LT PUSH2 0x312 JUMPI PUSH2 0x100 DUP1 DUP4 SLOAD DIV MUL DUP4 MSTORE SWAP2 PUSH1 0x20 ADD SWAP2 PUSH2 0x33D JUMP JUMPDEST DUP3 ADD SWAP2 SWAP1 PUSH1 0x0 MSTORE PUSH1 0x20 PUSH1 0x0 KECCAK256 SWAP1 JUMPDEST DUP2 SLOAD DUP2 MSTORE SWAP1 PUSH1 0x1 ADD SWAP1 PUSH1 0x20 ADD DUP1 DUP4 GT PUSH2 0x320 JUMPI DUP3 SWAP1 SUB PUSH1 0x1F AND DUP3 ADD SWAP2 JUMPDEST POP POP POP POP POP DUP2 JUMP JUMPDEST PUSH1 0x0 DUP2 PUSH1 0xA DUP2 LT PUSH2 0x355 JUMPI PUSH1 0x0 DUP1 REVERT JUMPDEST ADD PUSH1 0x0 SWAP2 POP SWAP1 POP SLOAD DUP2 JUMP JUMPDEST PUSH1 0xC DUP3 PUSH1 0x5 DUP2 LT PUSH2 0x370 JUMPI PUSH1 0x0 DUP1 REVERT JUMPDEST PUSH1 0x2 MUL ADD DUP2 PUSH1 0x2 DUP2 LT PUSH2 0x382 JUMPI PUSH1 0x0 DUP1 REVERT JUMPDEST ADD PUSH1 0x0 SWAP2 POP SWAP2 POP POP SLOAD DUP2 JUMP JUMPDEST PUSH1 0x16 DUP2 SWAP1 DUP1 PUSH1 0x1 DUP2 SLOAD ADD DUP1 DUP3 SSTORE DUP1 SWAP2 POP POP PUSH1 0x1 SWAP1 SUB SWAP1 PUSH1 0x0 MSTORE PUSH1 0x20 PUSH1 0x0 KECCAK256 ADD PUSH1 0x0 SWAP1 SWAP2 SWAP1 SWAP2 SWAP1 SWAP2 POP SSTORE POP JUMP JUMPDEST DUP3 PUSH1 0x5 PUSH1 0x2 MUL DUP2 ADD SWAP3 DUP3 ISZERO PUSH2 0x3FA JUMPI SWAP2 PUSH1 0x20 MUL DUP3 ADD JUMPDEST DUP3 DUP2 GT ISZERO PUSH2 0x3F9 JUMPI DUP3 MLOAD DUP3 SWAP1 PUSH1 0x2 PUSH2 0x3E9 SWAP3 SWAP2 SWAP1 PUSH2 0x40B JUMP JUMPDEST POP SWAP2 PUSH1 0x20 ADD SWAP2 SWAP1 PUSH1 0x2 ADD SWAP1 PUSH2 0x3D0 JUMP JUMPDEST JUMPDEST POP SWAP1 POP PUSH2 0x407 SWAP2 SWAP1 PUSH2 0x450 JUMP JUMPDEST POP SWAP1 JUMP JUMPDEST DUP3 PUSH1 0x2 DUP2 ADD SWAP3 DUP3 ISZERO PUSH2 0x43F JUMPI SWAP2 PUSH1 0x20 MUL DUP3 ADD JUMPDEST DUP3 DUP2 GT ISZERO PUSH2 0x43E JUMPI DUP3 MLOAD DUP3 SWAP1 PUSH1 0xFF AND SWAP1 SSTORE SWAP2 PUSH1 0x20 ADD SWAP2 SWAP1 PUSH1 0x1 ADD SWAP1 PUSH2 0x41E JUMP JUMPDEST JUMPDEST POP SWAP1 POP PUSH2 0x44C SWAP2 SWAP1 PUSH2 0x474 JUMP JUMPDEST POP SWAP1 JUMP JUMPDEST JUMPDEST DUP1 DUP3 GT ISZERO PUSH2 0x470 JUMPI PUSH1 0x0 DUP2 DUP2 PUSH2 0x467 SWAP2 SWAP1 PUSH2 0x491 JUMP JUMPDEST POP PUSH1 0x2 ADD PUSH2 0x451 JUMP JUMPDEST POP SWAP1 JUMP JUMPDEST JUMPDEST DUP1 DUP3 GT ISZERO PUSH2 0x48D JUMPI PUSH1 0x0 DUP2 PUSH1 0x0 SWAP1 SSTORE POP PUSH1 0x1 ADD PUSH2 0x475 JUMP JUMPDEST POP SWAP1 JUMP JUMPDEST POP PUSH1 0x0 DUP2 SSTORE PUSH1 0x1 ADD PUSH1 0x0 SWAP1 SSTORE JUMP JUMPDEST PUSH1 0x0 DUP2 CALLDATALOAD SWAP1 POP PUSH2 0x4AE DUP2 PUSH2 0x72E JUMP JUMPDEST SWAP3 SWAP2 POP POP JUMP JUMPDEST PUSH1 0x0 PUSH1 0x20 DUP3 DUP5 SUB SLT ISZERO PUSH2 0x4CA JUMPI PUSH2 0x4C9 PUSH2 0x718 JUMP JUMPDEST JUMPDEST PUSH1 0x0 PUSH2 0x4D8 DUP5 DUP3 DUP6 ADD PUSH2 0x49F JUMP JUMPDEST SWAP2 POP POP SWAP3 SWAP2 POP POP JUMP JUMPDEST PUSH1 0x0 DUP1 PUSH1 0x40 DUP4 DUP6 SUB SLT ISZERO PUSH2 0x4F8 JUMPI PUSH2 0x4F7 PUSH2 0x718 JUMP JUMPDEST JUMPDEST PUSH1 0x0 PUSH2 0x506 DUP6 DUP3 DUP7 ADD PUSH2 0x49F JUMP JUMPDEST SWAP3 POP POP PUSH1 0x20 PUSH2 0x517 DUP6 DUP3 DUP7 ADD PUSH2 0x49F JUMP JUMPDEST SWAP2 POP POP SWAP3 POP SWAP3 SWAP1 POP JUMP JUMPDEST PUSH1 0x0 PUSH2 0x52C DUP3 PUSH2 0x5A6 JUMP JUMPDEST PUSH2 0x536 DUP2 DUP6 PUSH2 0x5B1 JUMP JUMPDEST SWAP4 POP PUSH2 0x546 DUP2 DUP6 PUSH1 0x20 DUP7 ADD PUSH2 0x626 JUMP JUMPDEST PUSH2 0x54F DUP2 PUSH2 0x71D JUMP JUMPDEST DUP5 ADD SWAP2 POP POP SWAP3 SWAP2 POP POP JUMP JUMPDEST PUSH2 0x563 DUP2 PUSH2 0x61C JUMP JUMPDEST DUP3 MSTORE POP POP JUMP JUMPDEST PUSH1 0x0 PUSH1 0x20 DUP3 ADD SWAP1 POP DUP2 DUP2 SUB PUSH1 0x0 DUP4 ADD MSTORE PUSH2 0x583 DUP2 DUP5 PUSH2 0x521 JUMP JUMPDEST SWAP1 POP SWAP3 SWAP2 POP POP JUMP JUMPDEST PUSH1 0x0 PUSH1 0x20 DUP3 ADD SWAP1 POP PUSH2 0x5A0 PUSH1 0x0 DUP4 ADD DUP5 PUSH2 0x55A JUMP JUMPDEST SWAP3 SWAP2 POP POP JUMP JUMPDEST PUSH1 0x0 DUP2 MLOAD SWAP1 POP SWAP2 SWAP1 POP JUMP JUMPDEST PUSH1 0x0 DUP3 DUP3 MSTORE PUSH1 0x20 DUP3 ADD SWAP1 POP SWAP3 SWAP2 POP POP JUMP JUMPDEST PUSH1 0x0 PUSH2 0x5CD DUP3 PUSH2 0x61C JUMP JUMPDEST SWAP2 POP PUSH2 0x5D8 DUP4 PUSH2 0x61C JUMP JUMPDEST SWAP3 POP DUP2 PUSH32 0xFFFFFFFFFFFFFFFFFFFFFFFFFFFFFFFFFFFFFFFFFFFFFFFFFFFFFFFFFFFFFFFF DIV DUP4 GT DUP3 ISZERO ISZERO AND ISZERO PUSH2 0x611 JUMPI PUSH2 0x610 PUSH2 0x68B JUMP JUMPDEST JUMPDEST DUP3 DUP3 MUL SWAP1 POP SWAP3 SWAP2 POP POP JUMP JUMPDEST PUSH1 0x0 DUP2 SWAP1 POP SWAP2 SWAP1 POP JUMP JUMPDEST PUSH1 0x0 JUMPDEST DUP4 DUP2 LT ISZERO PUSH2 0x644 JUMPI DUP1 DUP3 ADD MLOAD DUP2 DUP5 ADD MSTORE PUSH1 0x20 DUP2 ADD SWAP1 POP PUSH2 0x629 JUMP JUMPDEST DUP4 DUP2 GT ISZERO PUSH2 0x653 JUMPI PUSH1 0x0 DUP5 DUP5 ADD MSTORE JUMPDEST POP POP POP POP JUMP JUMPDEST PUSH1 0x0 PUSH1 0x2 DUP3 DIV SWAP1 POP PUSH1 0x1 DUP3 AND DUP1 PUSH2 0x671 JUMPI PUSH1 0x7F DUP3 AND SWAP2 POP JUMPDEST PUSH1 0x20 DUP3 LT DUP2 EQ ISZERO PUSH2 0x685 JUMPI PUSH2 0x684 PUSH2 0x6BA JUMP JUMPDEST JUMPDEST POP SWAP2 SWAP1 POP JUMP JUMPDEST PUSH32 0x4E487B7100000000000000000000000000000000000000000000000000000000 PUSH1 0x0 MSTORE PUSH1 0x11 PUSH1 0x4 MSTORE PUSH1 0x24 PUSH1 0x0 REVERT JUMPDEST PUSH32 0x4E487B7100000000000000000000000000000000000000000000000000000000 PUSH1 0x0 MSTORE PUSH1 0x22 PUSH1 0x4 MSTORE PUSH1 0x24 PUSH1 0x0 REVERT JUMPDEST PUSH32 0x4E487B7100000000000000000000000000000000000000000000000000000000 PUSH1 0x0 MSTORE PUSH1 0x32 PUSH1 0x4 MSTORE PUSH1 0x24 PUSH1 0x0 REVERT JUMPDEST PUSH1 0x0 DUP1 REVERT JUMPDEST PUSH1 0x0 PUSH1 0x1F NOT PUSH1 0x1F DUP4 ADD AND SWAP1 POP SWAP2 SWAP1 POP JUMP JUMPDEST PUSH2 0x737 DUP2 PUSH2 0x61C JUMP JUMPDEST DUP2 EQ PUSH2 0x742 JUMPI PUSH1 0x0 DUP1 REVERT JUMPDEST POP JUMP INVALID LOG2 PUSH5 0x6970667358 0x22 SLT KECCAK256 LT SLT 0x5D 0xCB 0xE DUP13 SWAP7 ADD DUP6 GAS 0xEE 0xBC 0xC0 0xEB ADD MSTORE 0xD 0xE9 SWAP7 DUP15 0xB2 0xC 0x4B PUSH12 0x14EE209DBA2C59FC64736F6C PUSH4 0x43000807 STOP CALLER "
				},
				"gasEstimates": {
					"creation": {
						"codeDepositCost": "383000",
						"executionCost": "infinite",
						"totalCost": "infinite"
					},
					"external": {
						"dynArr(uint256)": "infinite",
						"items(uint256)": "infinite",
						"list(uint256)": "infinite",
						"matrix(uint256,uint256)": "infinite",
						"modDynamicArr(uint256)": "46917",
						"modifyArray()": "infinite"
					}
				},
				"methodIdentifiers": {
					"dynArr(uint256)": "5a79b850",
					"items(uint256)": "bfb231d2",
					"list(uint256)": "80c9419e",
					"matrix(uint256,uint256)": "d9a38d64",
					"modDynamicArr(uint256)": "e3440466",
					"modifyArray()": "304acd68"
				}
			},
			"storageLayout": {
				"storage": [
					{
						"astId": 9,
						"contract": "contracts/Lesson4Types.sol:Array4Lesson",
						"label": "items",
						"offset": 0,
						"slot": "0",
						"type": "t_array(t_uint256)10_storage"
					},
					{
						"astId": 13,
						"contract": "contracts/Lesson4Types.sol:Array4Lesson",
						"label": "list",
						"offset": 0,
						"slot": "10",
						"type": "t_array(t_string_storage)2_storage"
					},
					{
						"astId": 19,
						"contract": "contracts/Lesson4Types.sol:Array4Lesson",
						"label": "matrix",
						"offset": 0,
						"slot": "12",
						"type": "t_array(t_array(t_uint256)2_storage)5_storage"
					},
					{
						"astId": 22,
						"contract": "contracts/Lesson4Types.sol:Array4Lesson",
						"label": "dynArr",
						"offset": 0,
						"slot": "22",
						"type": "t_array(t_uint256)dyn_storage"
					}
				],
				"types": {
					"t_array(t_array(t_uint256)2_storage)5_storage": {
						"base": "t_array(t_uint256)2_storage",
						"encoding": "inplace",
						"label": "uint256[2][5]",
						"numberOfBytes": "320"
					},
					"t_array(t_string_storage)2_storage": {
						"base": "t_string_storage",
						"encoding": "inplace",
						"label": "string[2]",
						"numberOfBytes": "64"
					},
					"t_array(t_uint256)10_storage": {
						"base": "t_uint256",
						"encoding": "inplace",
						"label": "uint256[10]",
						"numberOfBytes": "320"
					},
					"t_array(t_uint256)2_storage": {
						"base": "t_uint256",
						"encoding": "inplace",
						"label": "uint256[2]",
						"numberOfBytes": "64"
					},
					"t_array(t_uint256)dyn_storage": {
						"base": "t_uint256",
						"encoding": "dynamic_array",
						"label": "uint256[]",
						"numberOfBytes": "32"
					},
					"t_string_storage": {
						"encoding": "bytes",
						"label": "string",
						"numberOfBytes": "32"
					},
					"t_uint256": {
						"encoding": "inplace",
						"label": "uint256",
						"numberOfBytes": "32"
					}
				}
			},
			"userdoc": {
				"kind": "user",
				"methods": {},
				"version": 1
			}
		}
	}
}