{
	"contracts/Lesson5Types.sol": {
		"Struct5Lesson": {
			"abi": [
				{
					"inputs": [
						{
							"internalType": "address",
							"name": "",
							"type": "address"
						}
					],
					"name": "balances",
					"outputs": [
						{
							"internalType": "uint256",
							"name": "totalPayments",
							"type": "uint256"
						}
					],
					"stateMutability": "view",
					"type": "function"
				},
				{
					"inputs": [],
					"name": "getHuman",
					"outputs": [
						{
							"components": [
								{
									"internalType": "uint256",
									"name": "hands",
									"type": "uint256"
								},
								{
									"internalType": "uint256",
									"name": "heart",
									"type": "uint256"
								},
								{
									"internalType": "string",
									"name": "name",
									"type": "string"
								}
							],
							"internalType": "struct Struct5Lesson.Human",
							"name": "",
							"type": "tuple"
						}
					],
					"stateMutability": "view",
					"type": "function"
				},
				{
					"inputs": [
						{
							"internalType": "address",
							"name": "_addr",
							"type": "address"
						},
						{
							"internalType": "uint256",
							"name": "_index",
							"type": "uint256"
						}
					],
					"name": "getPayment",
					"outputs": [
						{
							"components": [
								{
									"internalType": "uint256",
									"name": "amount",
									"type": "uint256"
								},
								{
									"internalType": "uint256",
									"name": "timestamp",
									"type": "uint256"
								},
								{
									"internalType": "address",
									"name": "from",
									"type": "address"
								},
								{
									"internalType": "string",
									"name": "message",
									"type": "string"
								}
							],
							"internalType": "struct Struct5Lesson.Payment",
							"name": "",
							"type": "tuple"
						}
					],
					"stateMutability": "view",
					"type": "function"
				},
				{
					"inputs": [
						{
							"internalType": "string",
							"name": "message",
							"type": "string"
						}
					],
					"name": "pay",
					"outputs": [],
					"stateMutability": "payable",
					"type": "function"
				}
			],
			"devdoc": {
				"kind": "dev",
				"methods": {},
				"version": 1
			},
			"evm": {
				"assembly": "    /* \"contracts/Lesson5Types.sol\":58:1496  contract Struct5Lesson {... */\n  mstore(0x40, 0x80)\n  callvalue\n  dup1\n  iszero\n  tag_1\n  jumpi\n  0x00\n  dup1\n  revert\ntag_1:\n  pop\n  dataSize(sub_0)\n  dup1\n  dataOffset(sub_0)\n  0x00\n  codecopy\n  0x00\n  return\nstop\n\nsub_0: assembly {\n        /* \"contracts/Lesson5Types.sol\":58:1496  contract Struct5Lesson {... */\n      mstore(0x40, 0x80)\n      jumpi(tag_1, lt(calldatasize, 0x04))\n      shr(0xe0, calldataload(0x00))\n      dup1\n      0x27e235e3\n      eq\n      tag_2\n      jumpi\n      dup1\n      0x2b66d72e\n      eq\n      tag_3\n      jumpi\n      dup1\n      0x80766de7\n      eq\n      tag_4\n      jumpi\n      dup1\n      0x977a767c\n      eq\n      tag_5\n      jumpi\n    tag_1:\n      0x00\n      dup1\n      revert\n        /* \"contracts/Lesson5Types.sol\":952:995  mapping(address => Balance) public balances */\n    tag_2:\n      callvalue\n      dup1\n      iszero\n      tag_6\n      jumpi\n      0x00\n      dup1\n      revert\n    tag_6:\n      pop\n      tag_7\n      0x04\n      dup1\n      calldatasize\n      sub\n      dup2\n      add\n      swap1\n      tag_8\n      swap2\n      swap1\n      tag_9\n      jump\t// in\n    tag_8:\n      tag_10\n      jump\t// in\n    tag_7:\n      mload(0x40)\n      tag_11\n      swap2\n      swap1\n      tag_12\n      jump\t// in\n    tag_11:\n      mload(0x40)\n      dup1\n      swap2\n      sub\n      swap1\n      return\n        /* \"contracts/Lesson5Types.sol\":1002:1348  function pay(string memory message) public payable {... */\n    tag_3:\n      tag_13\n      0x04\n      dup1\n      calldatasize\n      sub\n      dup2\n      add\n      swap1\n      tag_14\n      swap2\n      swap1\n      tag_15\n      jump\t// in\n    tag_14:\n      tag_16\n      jump\t// in\n    tag_13:\n      stop\n        /* \"contracts/Lesson5Types.sol\":542:727  function getHuman() public view returns(Human memory) {... */\n    tag_4:\n      callvalue\n      dup1\n      iszero\n      tag_17\n      jumpi\n      0x00\n      dup1\n      revert\n    tag_17:\n      pop\n      tag_18\n      tag_19\n      jump\t// in\n    tag_18:\n      mload(0x40)\n      tag_20\n      swap2\n      swap1\n      tag_21\n      jump\t// in\n    tag_20:\n      mload(0x40)\n      dup1\n      swap2\n      sub\n      swap1\n      return\n        /* \"contracts/Lesson5Types.sol\":1354:1494  function getPayment(address _addr, uint _index) public view returns(Payment memory) {... */\n    tag_5:\n      callvalue\n      dup1\n      iszero\n      tag_22\n      jumpi\n      0x00\n      dup1\n      revert\n    tag_22:\n      pop\n      tag_23\n      0x04\n      dup1\n      calldatasize\n      sub\n      dup2\n      add\n      swap1\n      tag_24\n      swap2\n      swap1\n      tag_25\n      jump\t// in\n    tag_24:\n      tag_26\n      jump\t// in\n    tag_23:\n      mload(0x40)\n      tag_27\n      swap2\n      swap1\n      tag_28\n      jump\t// in\n    tag_27:\n      mload(0x40)\n      dup1\n      swap2\n      sub\n      swap1\n      return\n        /* \"contracts/Lesson5Types.sol\":952:995  mapping(address => Balance) public balances */\n    tag_10:\n      mstore(0x20, 0x00)\n      dup1\n      0x00\n      mstore\n      keccak256(0x00, 0x40)\n      0x00\n      swap2\n      pop\n      swap1\n      pop\n      dup1\n      0x00\n      add\n      sload\n      swap1\n      pop\n      dup2\n      jump\t// out\n        /* \"contracts/Lesson5Types.sol\":1002:1348  function pay(string memory message) public payable {... */\n    tag_16:\n        /* \"contracts/Lesson5Types.sol\":1063:1071  balances */\n      0x00\n        /* \"contracts/Lesson5Types.sol\":1063:1083  balances[msg.sender] */\n      dup1\n        /* \"contracts/Lesson5Types.sol\":1072:1082  msg.sender */\n      caller\n        /* \"contracts/Lesson5Types.sol\":1063:1083  balances[msg.sender] */\n      0xffffffffffffffffffffffffffffffffffffffff\n      and\n      0xffffffffffffffffffffffffffffffffffffffff\n      and\n      dup2\n      mstore\n      0x20\n      add\n      swap1\n      dup2\n      mstore\n      0x20\n      add\n      0x00\n      keccak256\n        /* \"contracts/Lesson5Types.sol\":1063:1097  balances[msg.sender].totalPayments */\n      0x00\n      add\n      0x00\n        /* \"contracts/Lesson5Types.sol\":1063:1099  balances[msg.sender].totalPayments++ */\n      dup2\n      sload\n      dup1\n      swap3\n      swap2\n      swap1\n      tag_30\n      swap1\n      tag_31\n      jump\t// in\n    tag_30:\n      swap2\n      swap1\n      pop\n      sstore\n      pop\n        /* \"contracts/Lesson5Types.sol\":1110:1135  Payment memory newPayment */\n      0x00\n        /* \"contracts/Lesson5Types.sol\":1138:1252  Payment(... */\n      mload(0x40)\n      dup1\n      0x80\n      add\n      0x40\n      mstore\n      dup1\n        /* \"contracts/Lesson5Types.sol\":1159:1168  msg.value */\n      callvalue\n        /* \"contracts/Lesson5Types.sol\":1138:1252  Payment(... */\n      dup2\n      mstore\n      0x20\n      add\n        /* \"contracts/Lesson5Types.sol\":1182:1197  block.timestamp */\n      timestamp\n        /* \"contracts/Lesson5Types.sol\":1138:1252  Payment(... */\n      dup2\n      mstore\n      0x20\n      add\n        /* \"contracts/Lesson5Types.sol\":1211:1221  msg.sender */\n      caller\n        /* \"contracts/Lesson5Types.sol\":1138:1252  Payment(... */\n      0xffffffffffffffffffffffffffffffffffffffff\n      and\n      dup2\n      mstore\n      0x20\n      add\n        /* \"contracts/Lesson5Types.sol\":1235:1242  message */\n      dup4\n        /* \"contracts/Lesson5Types.sol\":1138:1252  Payment(... */\n      dup2\n      mstore\n      pop\n        /* \"contracts/Lesson5Types.sol\":1110:1252  Payment memory newPayment = Payment(... */\n      swap1\n      pop\n        /* \"contracts/Lesson5Types.sol\":1330:1340  newPayment */\n      dup1\n        /* \"contracts/Lesson5Types.sol\":1262:1270  balances */\n      0x00\n        /* \"contracts/Lesson5Types.sol\":1262:1282  balances[msg.sender] */\n      dup1\n        /* \"contracts/Lesson5Types.sol\":1271:1281  msg.sender */\n      caller\n        /* \"contracts/Lesson5Types.sol\":1262:1282  balances[msg.sender] */\n      0xffffffffffffffffffffffffffffffffffffffff\n      and\n      0xffffffffffffffffffffffffffffffffffffffff\n      and\n      dup2\n      mstore\n      0x20\n      add\n      swap1\n      dup2\n      mstore\n      0x20\n      add\n      0x00\n      keccak256\n        /* \"contracts/Lesson5Types.sol\":1262:1291  balances[msg.sender].payments */\n      0x01\n      add\n        /* \"contracts/Lesson5Types.sol\":1262:1327  balances[msg.sender].payments[balances[msg.sender].totalPayments] */\n      0x00\n        /* \"contracts/Lesson5Types.sol\":1292:1300  balances */\n      dup1\n        /* \"contracts/Lesson5Types.sol\":1292:1312  balances[msg.sender] */\n      0x00\n        /* \"contracts/Lesson5Types.sol\":1301:1311  msg.sender */\n      caller\n        /* \"contracts/Lesson5Types.sol\":1292:1312  balances[msg.sender] */\n      0xffffffffffffffffffffffffffffffffffffffff\n      and\n      0xffffffffffffffffffffffffffffffffffffffff\n      and\n      dup2\n      mstore\n      0x20\n      add\n      swap1\n      dup2\n      mstore\n      0x20\n      add\n      0x00\n      keccak256\n        /* \"contracts/Lesson5Types.sol\":1292:1326  balances[msg.sender].totalPayments */\n      0x00\n      add\n      sload\n        /* \"contracts/Lesson5Types.sol\":1262:1327  balances[msg.sender].payments[balances[msg.sender].totalPayments] */\n      dup2\n      mstore\n      0x20\n      add\n      swap1\n      dup2\n      mstore\n      0x20\n      add\n      0x00\n      keccak256\n        /* \"contracts/Lesson5Types.sol\":1262:1340  balances[msg.sender].payments[balances[msg.sender].totalPayments] = newPayment */\n      0x00\n      dup3\n      add\n      mload\n      dup2\n      0x00\n      add\n      sstore\n      0x20\n      dup3\n      add\n      mload\n      dup2\n      0x01\n      add\n      sstore\n      0x40\n      dup3\n      add\n      mload\n      dup2\n      0x02\n      add\n      exp(0x0100, 0x00)\n      dup2\n      sload\n      dup2\n      0xffffffffffffffffffffffffffffffffffffffff\n      mul\n      not\n      and\n      swap1\n      dup4\n      0xffffffffffffffffffffffffffffffffffffffff\n      and\n      mul\n      or\n      swap1\n      sstore\n      pop\n      0x60\n      dup3\n      add\n      mload\n      dup2\n      0x03\n      add\n      swap1\n      dup1\n      mload\n      swap1\n      0x20\n      add\n      swap1\n      tag_32\n      swap3\n      swap2\n      swap1\n      tag_33\n      jump\t// in\n    tag_32:\n      pop\n      swap1\n      pop\n      pop\n        /* \"contracts/Lesson5Types.sol\":1053:1348  {... */\n      pop\n        /* \"contracts/Lesson5Types.sol\":1002:1348  function pay(string memory message) public payable {... */\n      pop\n      jump\t// out\n        /* \"contracts/Lesson5Types.sol\":542:727  function getHuman() public view returns(Human memory) {... */\n    tag_19:\n        /* \"contracts/Lesson5Types.sol\":582:594  Human memory */\n      tag_34\n      tag_35\n      jump\t// in\n    tag_34:\n        /* \"contracts/Lesson5Types.sol\":606:626  Human memory myHuman */\n      0x00\n        /* \"contracts/Lesson5Types.sol\":629:696  Human (... */\n      mload(0x40)\n      dup1\n      0x60\n      add\n      0x40\n      mstore\n      dup1\n        /* \"contracts/Lesson5Types.sol\":649:650  2 */\n      0x02\n        /* \"contracts/Lesson5Types.sol\":629:696  Human (... */\n      dup2\n      mstore\n      0x20\n      add\n        /* \"contracts/Lesson5Types.sol\":664:665  1 */\n      0x01\n        /* \"contracts/Lesson5Types.sol\":629:696  Human (... */\n      dup2\n      mstore\n      0x20\n      add\n      mload(0x40)\n      dup1\n      0x40\n      add\n      0x40\n      mstore\n      dup1\n      0x05\n      dup2\n      mstore\n      0x20\n      add\n      0x4461766964000000000000000000000000000000000000000000000000000000\n      dup2\n      mstore\n      pop\n      dup2\n      mstore\n      pop\n        /* \"contracts/Lesson5Types.sol\":606:696  Human memory myHuman = Human (... */\n      swap1\n      pop\n        /* \"contracts/Lesson5Types.sol\":713:720  myHuman */\n      dup1\n        /* \"contracts/Lesson5Types.sol\":706:720  return myHuman */\n      swap2\n      pop\n      pop\n        /* \"contracts/Lesson5Types.sol\":542:727  function getHuman() public view returns(Human memory) {... */\n      swap1\n      jump\t// out\n        /* \"contracts/Lesson5Types.sol\":1354:1494  function getPayment(address _addr, uint _index) public view returns(Payment memory) {... */\n    tag_26:\n        /* \"contracts/Lesson5Types.sol\":1422:1436  Payment memory */\n      tag_37\n      tag_38\n      jump\t// in\n    tag_37:\n        /* \"contracts/Lesson5Types.sol\":1455:1463  balances */\n      0x00\n        /* \"contracts/Lesson5Types.sol\":1455:1470  balances[_addr] */\n      dup1\n        /* \"contracts/Lesson5Types.sol\":1464:1469  _addr */\n      dup5\n        /* \"contracts/Lesson5Types.sol\":1455:1470  balances[_addr] */\n      0xffffffffffffffffffffffffffffffffffffffff\n      and\n      0xffffffffffffffffffffffffffffffffffffffff\n      and\n      dup2\n      mstore\n      0x20\n      add\n      swap1\n      dup2\n      mstore\n      0x20\n      add\n      0x00\n      keccak256\n        /* \"contracts/Lesson5Types.sol\":1455:1479  balances[_addr].payments */\n      0x01\n      add\n        /* \"contracts/Lesson5Types.sol\":1455:1487  balances[_addr].payments[_index] */\n      0x00\n        /* \"contracts/Lesson5Types.sol\":1480:1486  _index */\n      dup4\n        /* \"contracts/Lesson5Types.sol\":1455:1487  balances[_addr].payments[_index] */\n      dup2\n      mstore\n      0x20\n      add\n      swap1\n      dup2\n      mstore\n      0x20\n      add\n      0x00\n      keccak256\n        /* \"contracts/Lesson5Types.sol\":1448:1487  return balances[_addr].payments[_index] */\n      mload(0x40)\n      dup1\n      0x80\n      add\n      0x40\n      mstore\n      swap1\n      dup2\n      0x00\n      dup3\n      add\n      sload\n      dup2\n      mstore\n      0x20\n      add\n      0x01\n      dup3\n      add\n      sload\n      dup2\n      mstore\n      0x20\n      add\n      0x02\n      dup3\n      add\n      0x00\n      swap1\n      sload\n      swap1\n      0x0100\n      exp\n      swap1\n      div\n      0xffffffffffffffffffffffffffffffffffffffff\n      and\n      0xffffffffffffffffffffffffffffffffffffffff\n      and\n      0xffffffffffffffffffffffffffffffffffffffff\n      and\n      dup2\n      mstore\n      0x20\n      add\n      0x03\n      dup3\n      add\n      dup1\n      sload\n      tag_40\n      swap1\n      tag_41\n      jump\t// in\n    tag_40:\n      dup1\n      0x1f\n      add\n      0x20\n      dup1\n      swap2\n      div\n      mul\n      0x20\n      add\n      mload(0x40)\n      swap1\n      dup2\n      add\n      0x40\n      mstore\n      dup1\n      swap3\n      swap2\n      swap1\n      dup2\n      dup2\n      mstore\n      0x20\n      add\n      dup3\n      dup1\n      sload\n      tag_42\n      swap1\n      tag_41\n      jump\t// in\n    tag_42:\n      dup1\n      iszero\n      tag_43\n      jumpi\n      dup1\n      0x1f\n      lt\n      tag_44\n      jumpi\n      0x0100\n      dup1\n      dup4\n      sload\n      div\n      mul\n      dup4\n      mstore\n      swap2\n      0x20\n      add\n      swap2\n      jump(tag_43)\n    tag_44:\n      dup3\n      add\n      swap2\n      swap1\n      0x00\n      mstore\n      keccak256(0x00, 0x20)\n      swap1\n    tag_45:\n      dup2\n      sload\n      dup2\n      mstore\n      swap1\n      0x01\n      add\n      swap1\n      0x20\n      add\n      dup1\n      dup4\n      gt\n      tag_45\n      jumpi\n      dup3\n      swap1\n      sub\n      0x1f\n      and\n      dup3\n      add\n      swap2\n    tag_43:\n      pop\n      pop\n      pop\n      pop\n      pop\n      dup2\n      mstore\n      pop\n      pop\n      swap1\n      pop\n        /* \"contracts/Lesson5Types.sol\":1354:1494  function getPayment(address _addr, uint _index) public view returns(Payment memory) {... */\n      swap3\n      swap2\n      pop\n      pop\n      jump\t// out\n    tag_33:\n      dup3\n      dup1\n      sload\n      tag_46\n      swap1\n      tag_41\n      jump\t// in\n    tag_46:\n      swap1\n      0x00\n      mstore\n      keccak256(0x00, 0x20)\n      swap1\n      0x1f\n      add\n      0x20\n      swap1\n      div\n      dup2\n      add\n      swap3\n      dup3\n      tag_48\n      jumpi\n      0x00\n      dup6\n      sstore\n      jump(tag_47)\n    tag_48:\n      dup3\n      0x1f\n      lt\n      tag_49\n      jumpi\n      dup1\n      mload\n      not(0xff)\n      and\n      dup4\n      dup1\n      add\n      or\n      dup6\n      sstore\n      jump(tag_47)\n    tag_49:\n      dup3\n      dup1\n      add\n      0x01\n      add\n      dup6\n      sstore\n      dup3\n      iszero\n      tag_47\n      jumpi\n      swap2\n      dup3\n      add\n    tag_50:\n      dup3\n      dup2\n      gt\n      iszero\n      tag_51\n      jumpi\n      dup3\n      mload\n      dup3\n      sstore\n      swap2\n      0x20\n      add\n      swap2\n      swap1\n      0x01\n      add\n      swap1\n      jump(tag_50)\n    tag_51:\n    tag_47:\n      pop\n      swap1\n      pop\n      tag_52\n      swap2\n      swap1\n      tag_53\n      jump\t// in\n    tag_52:\n      pop\n      swap1\n      jump\t// out\n    tag_35:\n      mload(0x40)\n      dup1\n      0x60\n      add\n      0x40\n      mstore\n      dup1\n      0x00\n      dup2\n      mstore\n      0x20\n      add\n      0x00\n      dup2\n      mstore\n      0x20\n      add\n      0x60\n      dup2\n      mstore\n      pop\n      swap1\n      jump\t// out\n    tag_38:\n      mload(0x40)\n      dup1\n      0x80\n      add\n      0x40\n      mstore\n      dup1\n      0x00\n      dup2\n      mstore\n      0x20\n      add\n      0x00\n      dup2\n      mstore\n      0x20\n      add\n      and(0xffffffffffffffffffffffffffffffffffffffff, 0x00)\n      dup2\n      mstore\n      0x20\n      add\n      0x60\n      dup2\n      mstore\n      pop\n      swap1\n      jump\t// out\n    tag_53:\n    tag_54:\n      dup1\n      dup3\n      gt\n      iszero\n      tag_55\n      jumpi\n      0x00\n      dup2\n      0x00\n      swap1\n      sstore\n      pop\n      0x01\n      add\n      jump(tag_54)\n    tag_55:\n      pop\n      swap1\n      jump\t// out\n        /* \"#utility.yul\":7:419   */\n    tag_57:\n        /* \"#utility.yul\":85:90   */\n      0x00\n        /* \"#utility.yul\":110:176   */\n      tag_59\n        /* \"#utility.yul\":126:175   */\n      tag_60\n        /* \"#utility.yul\":168:174   */\n      dup5\n        /* \"#utility.yul\":126:175   */\n      tag_61\n      jump\t// in\n    tag_60:\n        /* \"#utility.yul\":110:176   */\n      tag_62\n      jump\t// in\n    tag_59:\n        /* \"#utility.yul\":101:176   */\n      swap1\n      pop\n        /* \"#utility.yul\":199:205   */\n      dup3\n        /* \"#utility.yul\":192:197   */\n      dup2\n        /* \"#utility.yul\":185:206   */\n      mstore\n        /* \"#utility.yul\":237:241   */\n      0x20\n        /* \"#utility.yul\":230:235   */\n      dup2\n        /* \"#utility.yul\":226:242   */\n      add\n        /* \"#utility.yul\":275:278   */\n      dup5\n        /* \"#utility.yul\":266:272   */\n      dup5\n        /* \"#utility.yul\":261:264   */\n      dup5\n        /* \"#utility.yul\":257:273   */\n      add\n        /* \"#utility.yul\":254:279   */\n      gt\n        /* \"#utility.yul\":251:363   */\n      iszero\n      tag_63\n      jumpi\n        /* \"#utility.yul\":282:361   */\n      tag_64\n      tag_65\n      jump\t// in\n    tag_64:\n        /* \"#utility.yul\":251:363   */\n    tag_63:\n        /* \"#utility.yul\":372:413   */\n      tag_66\n        /* \"#utility.yul\":406:412   */\n      dup5\n        /* \"#utility.yul\":401:404   */\n      dup3\n        /* \"#utility.yul\":396:399   */\n      dup6\n        /* \"#utility.yul\":372:413   */\n      tag_67\n      jump\t// in\n    tag_66:\n        /* \"#utility.yul\":91:419   */\n      pop\n        /* \"#utility.yul\":7:419   */\n      swap4\n      swap3\n      pop\n      pop\n      pop\n      jump\t// out\n        /* \"#utility.yul\":425:564   */\n    tag_68:\n        /* \"#utility.yul\":471:476   */\n      0x00\n        /* \"#utility.yul\":509:515   */\n      dup2\n        /* \"#utility.yul\":496:516   */\n      calldataload\n        /* \"#utility.yul\":487:516   */\n      swap1\n      pop\n        /* \"#utility.yul\":525:558   */\n      tag_70\n        /* \"#utility.yul\":552:557   */\n      dup2\n        /* \"#utility.yul\":525:558   */\n      tag_71\n      jump\t// in\n    tag_70:\n        /* \"#utility.yul\":425:564   */\n      swap3\n      swap2\n      pop\n      pop\n      jump\t// out\n        /* \"#utility.yul\":584:924   */\n    tag_72:\n        /* \"#utility.yul\":640:645   */\n      0x00\n        /* \"#utility.yul\":689:692   */\n      dup3\n        /* \"#utility.yul\":682:686   */\n      0x1f\n        /* \"#utility.yul\":674:680   */\n      dup4\n        /* \"#utility.yul\":670:687   */\n      add\n        /* \"#utility.yul\":666:693   */\n      slt\n        /* \"#utility.yul\":656:778   */\n      tag_74\n      jumpi\n        /* \"#utility.yul\":697:776   */\n      tag_75\n      tag_76\n      jump\t// in\n    tag_75:\n        /* \"#utility.yul\":656:778   */\n    tag_74:\n        /* \"#utility.yul\":814:820   */\n      dup2\n        /* \"#utility.yul\":801:821   */\n      calldataload\n        /* \"#utility.yul\":839:918   */\n      tag_77\n        /* \"#utility.yul\":914:917   */\n      dup5\n        /* \"#utility.yul\":906:912   */\n      dup3\n        /* \"#utility.yul\":899:903   */\n      0x20\n        /* \"#utility.yul\":891:897   */\n      dup7\n        /* \"#utility.yul\":887:904   */\n      add\n        /* \"#utility.yul\":839:918   */\n      tag_57\n      jump\t// in\n    tag_77:\n        /* \"#utility.yul\":830:918   */\n      swap2\n      pop\n        /* \"#utility.yul\":646:924   */\n      pop\n        /* \"#utility.yul\":584:924   */\n      swap3\n      swap2\n      pop\n      pop\n      jump\t// out\n        /* \"#utility.yul\":930:1069   */\n    tag_78:\n        /* \"#utility.yul\":976:981   */\n      0x00\n        /* \"#utility.yul\":1014:1020   */\n      dup2\n        /* \"#utility.yul\":1001:1021   */\n      calldataload\n        /* \"#utility.yul\":992:1021   */\n      swap1\n      pop\n        /* \"#utility.yul\":1030:1063   */\n      tag_80\n        /* \"#utility.yul\":1057:1062   */\n      dup2\n        /* \"#utility.yul\":1030:1063   */\n      tag_81\n      jump\t// in\n    tag_80:\n        /* \"#utility.yul\":930:1069   */\n      swap3\n      swap2\n      pop\n      pop\n      jump\t// out\n        /* \"#utility.yul\":1075:1404   */\n    tag_9:\n        /* \"#utility.yul\":1134:1140   */\n      0x00\n        /* \"#utility.yul\":1183:1185   */\n      0x20\n        /* \"#utility.yul\":1171:1180   */\n      dup3\n        /* \"#utility.yul\":1162:1169   */\n      dup5\n        /* \"#utility.yul\":1158:1181   */\n      sub\n        /* \"#utility.yul\":1154:1186   */\n      slt\n        /* \"#utility.yul\":1151:1270   */\n      iszero\n      tag_83\n      jumpi\n        /* \"#utility.yul\":1189:1268   */\n      tag_84\n      tag_85\n      jump\t// in\n    tag_84:\n        /* \"#utility.yul\":1151:1270   */\n    tag_83:\n        /* \"#utility.yul\":1309:1310   */\n      0x00\n        /* \"#utility.yul\":1334:1387   */\n      tag_86\n        /* \"#utility.yul\":1379:1386   */\n      dup5\n        /* \"#utility.yul\":1370:1376   */\n      dup3\n        /* \"#utility.yul\":1359:1368   */\n      dup6\n        /* \"#utility.yul\":1355:1377   */\n      add\n        /* \"#utility.yul\":1334:1387   */\n      tag_68\n      jump\t// in\n    tag_86:\n        /* \"#utility.yul\":1324:1387   */\n      swap2\n      pop\n        /* \"#utility.yul\":1280:1397   */\n      pop\n        /* \"#utility.yul\":1075:1404   */\n      swap3\n      swap2\n      pop\n      pop\n      jump\t// out\n        /* \"#utility.yul\":1410:1884   */\n    tag_25:\n        /* \"#utility.yul\":1478:1484   */\n      0x00\n        /* \"#utility.yul\":1486:1492   */\n      dup1\n        /* \"#utility.yul\":1535:1537   */\n      0x40\n        /* \"#utility.yul\":1523:1532   */\n      dup4\n        /* \"#utility.yul\":1514:1521   */\n      dup6\n        /* \"#utility.yul\":1510:1533   */\n      sub\n        /* \"#utility.yul\":1506:1538   */\n      slt\n        /* \"#utility.yul\":1503:1622   */\n      iszero\n      tag_88\n      jumpi\n        /* \"#utility.yul\":1541:1620   */\n      tag_89\n      tag_85\n      jump\t// in\n    tag_89:\n        /* \"#utility.yul\":1503:1622   */\n    tag_88:\n        /* \"#utility.yul\":1661:1662   */\n      0x00\n        /* \"#utility.yul\":1686:1739   */\n      tag_90\n        /* \"#utility.yul\":1731:1738   */\n      dup6\n        /* \"#utility.yul\":1722:1728   */\n      dup3\n        /* \"#utility.yul\":1711:1720   */\n      dup7\n        /* \"#utility.yul\":1707:1729   */\n      add\n        /* \"#utility.yul\":1686:1739   */\n      tag_68\n      jump\t// in\n    tag_90:\n        /* \"#utility.yul\":1676:1739   */\n      swap3\n      pop\n        /* \"#utility.yul\":1632:1749   */\n      pop\n        /* \"#utility.yul\":1788:1790   */\n      0x20\n        /* \"#utility.yul\":1814:1867   */\n      tag_91\n        /* \"#utility.yul\":1859:1866   */\n      dup6\n        /* \"#utility.yul\":1850:1856   */\n      dup3\n        /* \"#utility.yul\":1839:1848   */\n      dup7\n        /* \"#utility.yul\":1835:1857   */\n      add\n        /* \"#utility.yul\":1814:1867   */\n      tag_78\n      jump\t// in\n    tag_91:\n        /* \"#utility.yul\":1804:1867   */\n      swap2\n      pop\n        /* \"#utility.yul\":1759:1877   */\n      pop\n        /* \"#utility.yul\":1410:1884   */\n      swap3\n      pop\n      swap3\n      swap1\n      pop\n      jump\t// out\n        /* \"#utility.yul\":1890:2399   */\n    tag_15:\n        /* \"#utility.yul\":1959:1965   */\n      0x00\n        /* \"#utility.yul\":2008:2010   */\n      0x20\n        /* \"#utility.yul\":1996:2005   */\n      dup3\n        /* \"#utility.yul\":1987:1994   */\n      dup5\n        /* \"#utility.yul\":1983:2006   */\n      sub\n        /* \"#utility.yul\":1979:2011   */\n      slt\n        /* \"#utility.yul\":1976:2095   */\n      iszero\n      tag_93\n      jumpi\n        /* \"#utility.yul\":2014:2093   */\n      tag_94\n      tag_85\n      jump\t// in\n    tag_94:\n        /* \"#utility.yul\":1976:2095   */\n    tag_93:\n        /* \"#utility.yul\":2162:2163   */\n      0x00\n        /* \"#utility.yul\":2151:2160   */\n      dup3\n        /* \"#utility.yul\":2147:2164   */\n      add\n        /* \"#utility.yul\":2134:2165   */\n      calldataload\n        /* \"#utility.yul\":2192:2210   */\n      0xffffffffffffffff\n        /* \"#utility.yul\":2184:2190   */\n      dup2\n        /* \"#utility.yul\":2181:2211   */\n      gt\n        /* \"#utility.yul\":2178:2295   */\n      iszero\n      tag_95\n      jumpi\n        /* \"#utility.yul\":2214:2293   */\n      tag_96\n      tag_97\n      jump\t// in\n    tag_96:\n        /* \"#utility.yul\":2178:2295   */\n    tag_95:\n        /* \"#utility.yul\":2319:2382   */\n      tag_98\n        /* \"#utility.yul\":2374:2381   */\n      dup5\n        /* \"#utility.yul\":2365:2371   */\n      dup3\n        /* \"#utility.yul\":2354:2363   */\n      dup6\n        /* \"#utility.yul\":2350:2372   */\n      add\n        /* \"#utility.yul\":2319:2382   */\n      tag_72\n      jump\t// in\n    tag_98:\n        /* \"#utility.yul\":2309:2382   */\n      swap2\n      pop\n        /* \"#utility.yul\":2105:2392   */\n      pop\n        /* \"#utility.yul\":1890:2399   */\n      swap3\n      swap2\n      pop\n      pop\n      jump\t// out\n        /* \"#utility.yul\":2405:2513   */\n    tag_99:\n        /* \"#utility.yul\":2482:2506   */\n      tag_101\n        /* \"#utility.yul\":2500:2505   */\n      dup2\n        /* \"#utility.yul\":2482:2506   */\n      tag_102\n      jump\t// in\n    tag_101:\n        /* \"#utility.yul\":2477:2480   */\n      dup3\n        /* \"#utility.yul\":2470:2507   */\n      mstore\n        /* \"#utility.yul\":2405:2513   */\n      pop\n      pop\n      jump\t// out\n        /* \"#utility.yul\":2519:2863   */\n    tag_103:\n        /* \"#utility.yul\":2597:2600   */\n      0x00\n        /* \"#utility.yul\":2625:2664   */\n      tag_105\n        /* \"#utility.yul\":2658:2663   */\n      dup3\n        /* \"#utility.yul\":2625:2664   */\n      tag_106\n      jump\t// in\n    tag_105:\n        /* \"#utility.yul\":2680:2741   */\n      tag_107\n        /* \"#utility.yul\":2734:2740   */\n      dup2\n        /* \"#utility.yul\":2729:2732   */\n      dup6\n        /* \"#utility.yul\":2680:2741   */\n      tag_108\n      jump\t// in\n    tag_107:\n        /* \"#utility.yul\":2673:2741   */\n      swap4\n      pop\n        /* \"#utility.yul\":2750:2802   */\n      tag_109\n        /* \"#utility.yul\":2795:2801   */\n      dup2\n        /* \"#utility.yul\":2790:2793   */\n      dup6\n        /* \"#utility.yul\":2783:2787   */\n      0x20\n        /* \"#utility.yul\":2776:2781   */\n      dup7\n        /* \"#utility.yul\":2772:2788   */\n      add\n        /* \"#utility.yul\":2750:2802   */\n      tag_110\n      jump\t// in\n    tag_109:\n        /* \"#utility.yul\":2827:2856   */\n      tag_111\n        /* \"#utility.yul\":2849:2855   */\n      dup2\n        /* \"#utility.yul\":2827:2856   */\n      tag_112\n      jump\t// in\n    tag_111:\n        /* \"#utility.yul\":2822:2825   */\n      dup5\n        /* \"#utility.yul\":2818:2857   */\n      add\n        /* \"#utility.yul\":2811:2857   */\n      swap2\n      pop\n        /* \"#utility.yul\":2601:2863   */\n      pop\n        /* \"#utility.yul\":2519:2863   */\n      swap3\n      swap2\n      pop\n      pop\n      jump\t// out\n        /* \"#utility.yul\":2933:3705   */\n    tag_113:\n        /* \"#utility.yul\":3042:3045   */\n      0x00\n        /* \"#utility.yul\":3078:3082   */\n      0x60\n        /* \"#utility.yul\":3073:3076   */\n      dup4\n        /* \"#utility.yul\":3069:3083   */\n      add\n        /* \"#utility.yul\":3166:3170   */\n      0x00\n        /* \"#utility.yul\":3159:3164   */\n      dup4\n        /* \"#utility.yul\":3155:3171   */\n      add\n        /* \"#utility.yul\":3149:3172   */\n      mload\n        /* \"#utility.yul\":3185:3248   */\n      tag_115\n        /* \"#utility.yul\":3242:3246   */\n      0x00\n        /* \"#utility.yul\":3237:3240   */\n      dup7\n        /* \"#utility.yul\":3233:3247   */\n      add\n        /* \"#utility.yul\":3219:3231   */\n      dup3\n        /* \"#utility.yul\":3185:3248   */\n      tag_116\n      jump\t// in\n    tag_115:\n        /* \"#utility.yul\":3093:3258   */\n      pop\n        /* \"#utility.yul\":3341:3345   */\n      0x20\n        /* \"#utility.yul\":3334:3339   */\n      dup4\n        /* \"#utility.yul\":3330:3346   */\n      add\n        /* \"#utility.yul\":3324:3347   */\n      mload\n        /* \"#utility.yul\":3360:3423   */\n      tag_117\n        /* \"#utility.yul\":3417:3421   */\n      0x20\n        /* \"#utility.yul\":3412:3415   */\n      dup7\n        /* \"#utility.yul\":3408:3422   */\n      add\n        /* \"#utility.yul\":3394:3406   */\n      dup3\n        /* \"#utility.yul\":3360:3423   */\n      tag_116\n      jump\t// in\n    tag_117:\n        /* \"#utility.yul\":3268:3433   */\n      pop\n        /* \"#utility.yul\":3515:3519   */\n      0x40\n        /* \"#utility.yul\":3508:3513   */\n      dup4\n        /* \"#utility.yul\":3504:3520   */\n      add\n        /* \"#utility.yul\":3498:3521   */\n      mload\n        /* \"#utility.yul\":3568:3571   */\n      dup5\n        /* \"#utility.yul\":3562:3566   */\n      dup3\n        /* \"#utility.yul\":3558:3572   */\n      sub\n        /* \"#utility.yul\":3551:3555   */\n      0x40\n        /* \"#utility.yul\":3546:3549   */\n      dup7\n        /* \"#utility.yul\":3542:3556   */\n      add\n        /* \"#utility.yul\":3535:3573   */\n      mstore\n        /* \"#utility.yul\":3594:3667   */\n      tag_118\n        /* \"#utility.yul\":3662:3666   */\n      dup3\n        /* \"#utility.yul\":3648:3660   */\n      dup3\n        /* \"#utility.yul\":3594:3667   */\n      tag_103\n      jump\t// in\n    tag_118:\n        /* \"#utility.yul\":3586:3667   */\n      swap2\n      pop\n        /* \"#utility.yul\":3443:3678   */\n      pop\n        /* \"#utility.yul\":3695:3699   */\n      dup1\n        /* \"#utility.yul\":3688:3699   */\n      swap2\n      pop\n        /* \"#utility.yul\":3047:3705   */\n      pop\n        /* \"#utility.yul\":2933:3705   */\n      swap3\n      swap2\n      pop\n      pop\n      jump\t// out\n        /* \"#utility.yul\":3779:4739   */\n    tag_119:\n        /* \"#utility.yul\":3894:3897   */\n      0x00\n        /* \"#utility.yul\":3930:3934   */\n      0x80\n        /* \"#utility.yul\":3925:3928   */\n      dup4\n        /* \"#utility.yul\":3921:3935   */\n      add\n        /* \"#utility.yul\":4019:4023   */\n      0x00\n        /* \"#utility.yul\":4012:4017   */\n      dup4\n        /* \"#utility.yul\":4008:4024   */\n      add\n        /* \"#utility.yul\":4002:4025   */\n      mload\n        /* \"#utility.yul\":4038:4101   */\n      tag_121\n        /* \"#utility.yul\":4095:4099   */\n      0x00\n        /* \"#utility.yul\":4090:4093   */\n      dup7\n        /* \"#utility.yul\":4086:4100   */\n      add\n        /* \"#utility.yul\":4072:4084   */\n      dup3\n        /* \"#utility.yul\":4038:4101   */\n      tag_116\n      jump\t// in\n    tag_121:\n        /* \"#utility.yul\":3945:4111   */\n      pop\n        /* \"#utility.yul\":4198:4202   */\n      0x20\n        /* \"#utility.yul\":4191:4196   */\n      dup4\n        /* \"#utility.yul\":4187:4203   */\n      add\n        /* \"#utility.yul\":4181:4204   */\n      mload\n        /* \"#utility.yul\":4217:4280   */\n      tag_122\n        /* \"#utility.yul\":4274:4278   */\n      0x20\n        /* \"#utility.yul\":4269:4272   */\n      dup7\n        /* \"#utility.yul\":4265:4279   */\n      add\n        /* \"#utility.yul\":4251:4263   */\n      dup3\n        /* \"#utility.yul\":4217:4280   */\n      tag_116\n      jump\t// in\n    tag_122:\n        /* \"#utility.yul\":4121:4290   */\n      pop\n        /* \"#utility.yul\":4372:4376   */\n      0x40\n        /* \"#utility.yul\":4365:4370   */\n      dup4\n        /* \"#utility.yul\":4361:4377   */\n      add\n        /* \"#utility.yul\":4355:4378   */\n      mload\n        /* \"#utility.yul\":4391:4454   */\n      tag_123\n        /* \"#utility.yul\":4448:4452   */\n      0x40\n        /* \"#utility.yul\":4443:4446   */\n      dup7\n        /* \"#utility.yul\":4439:4453   */\n      add\n        /* \"#utility.yul\":4425:4437   */\n      dup3\n        /* \"#utility.yul\":4391:4454   */\n      tag_99\n      jump\t// in\n    tag_123:\n        /* \"#utility.yul\":4300:4464   */\n      pop\n        /* \"#utility.yul\":4549:4553   */\n      0x60\n        /* \"#utility.yul\":4542:4547   */\n      dup4\n        /* \"#utility.yul\":4538:4554   */\n      add\n        /* \"#utility.yul\":4532:4555   */\n      mload\n        /* \"#utility.yul\":4602:4605   */\n      dup5\n        /* \"#utility.yul\":4596:4600   */\n      dup3\n        /* \"#utility.yul\":4592:4606   */\n      sub\n        /* \"#utility.yul\":4585:4589   */\n      0x60\n        /* \"#utility.yul\":4580:4583   */\n      dup7\n        /* \"#utility.yul\":4576:4590   */\n      add\n        /* \"#utility.yul\":4569:4607   */\n      mstore\n        /* \"#utility.yul\":4628:4701   */\n      tag_124\n        /* \"#utility.yul\":4696:4700   */\n      dup3\n        /* \"#utility.yul\":4682:4694   */\n      dup3\n        /* \"#utility.yul\":4628:4701   */\n      tag_103\n      jump\t// in\n    tag_124:\n        /* \"#utility.yul\":4620:4701   */\n      swap2\n      pop\n        /* \"#utility.yul\":4474:4712   */\n      pop\n        /* \"#utility.yul\":4729:4733   */\n      dup1\n        /* \"#utility.yul\":4722:4733   */\n      swap2\n      pop\n        /* \"#utility.yul\":3899:4739   */\n      pop\n        /* \"#utility.yul\":3779:4739   */\n      swap3\n      swap2\n      pop\n      pop\n      jump\t// out\n        /* \"#utility.yul\":4745:4853   */\n    tag_116:\n        /* \"#utility.yul\":4822:4846   */\n      tag_126\n        /* \"#utility.yul\":4840:4845   */\n      dup2\n        /* \"#utility.yul\":4822:4846   */\n      tag_127\n      jump\t// in\n    tag_126:\n        /* \"#utility.yul\":4817:4820   */\n      dup3\n        /* \"#utility.yul\":4810:4847   */\n      mstore\n        /* \"#utility.yul\":4745:4853   */\n      pop\n      pop\n      jump\t// out\n        /* \"#utility.yul\":4859:4977   */\n    tag_128:\n        /* \"#utility.yul\":4946:4970   */\n      tag_130\n        /* \"#utility.yul\":4964:4969   */\n      dup2\n        /* \"#utility.yul\":4946:4970   */\n      tag_127\n      jump\t// in\n    tag_130:\n        /* \"#utility.yul\":4941:4944   */\n      dup3\n        /* \"#utility.yul\":4934:4971   */\n      mstore\n        /* \"#utility.yul\":4859:4977   */\n      pop\n      pop\n      jump\t// out\n        /* \"#utility.yul\":4983:5336   */\n    tag_21:\n        /* \"#utility.yul\":5116:5120   */\n      0x00\n        /* \"#utility.yul\":5154:5156   */\n      0x20\n        /* \"#utility.yul\":5143:5152   */\n      dup3\n        /* \"#utility.yul\":5139:5157   */\n      add\n        /* \"#utility.yul\":5131:5157   */\n      swap1\n      pop\n        /* \"#utility.yul\":5203:5212   */\n      dup2\n        /* \"#utility.yul\":5197:5201   */\n      dup2\n        /* \"#utility.yul\":5193:5213   */\n      sub\n        /* \"#utility.yul\":5189:5190   */\n      0x00\n        /* \"#utility.yul\":5178:5187   */\n      dup4\n        /* \"#utility.yul\":5174:5191   */\n      add\n        /* \"#utility.yul\":5167:5214   */\n      mstore\n        /* \"#utility.yul\":5231:5329   */\n      tag_132\n        /* \"#utility.yul\":5324:5328   */\n      dup2\n        /* \"#utility.yul\":5315:5321   */\n      dup5\n        /* \"#utility.yul\":5231:5329   */\n      tag_113\n      jump\t// in\n    tag_132:\n        /* \"#utility.yul\":5223:5329   */\n      swap1\n      pop\n        /* \"#utility.yul\":4983:5336   */\n      swap3\n      swap2\n      pop\n      pop\n      jump\t// out\n        /* \"#utility.yul\":5342:5707   */\n    tag_28:\n        /* \"#utility.yul\":5481:5485   */\n      0x00\n        /* \"#utility.yul\":5519:5521   */\n      0x20\n        /* \"#utility.yul\":5508:5517   */\n      dup3\n        /* \"#utility.yul\":5504:5522   */\n      add\n        /* \"#utility.yul\":5496:5522   */\n      swap1\n      pop\n        /* \"#utility.yul\":5568:5577   */\n      dup2\n        /* \"#utility.yul\":5562:5566   */\n      dup2\n        /* \"#utility.yul\":5558:5578   */\n      sub\n        /* \"#utility.yul\":5554:5555   */\n      0x00\n        /* \"#utility.yul\":5543:5552   */\n      dup4\n        /* \"#utility.yul\":5539:5556   */\n      add\n        /* \"#utility.yul\":5532:5579   */\n      mstore\n        /* \"#utility.yul\":5596:5700   */\n      tag_134\n        /* \"#utility.yul\":5695:5699   */\n      dup2\n        /* \"#utility.yul\":5686:5692   */\n      dup5\n        /* \"#utility.yul\":5596:5700   */\n      tag_119\n      jump\t// in\n    tag_134:\n        /* \"#utility.yul\":5588:5700   */\n      swap1\n      pop\n        /* \"#utility.yul\":5342:5707   */\n      swap3\n      swap2\n      pop\n      pop\n      jump\t// out\n        /* \"#utility.yul\":5713:5935   */\n    tag_12:\n        /* \"#utility.yul\":5806:5810   */\n      0x00\n        /* \"#utility.yul\":5844:5846   */\n      0x20\n        /* \"#utility.yul\":5833:5842   */\n      dup3\n        /* \"#utility.yul\":5829:5847   */\n      add\n        /* \"#utility.yul\":5821:5847   */\n      swap1\n      pop\n        /* \"#utility.yul\":5857:5928   */\n      tag_136\n        /* \"#utility.yul\":5925:5926   */\n      0x00\n        /* \"#utility.yul\":5914:5923   */\n      dup4\n        /* \"#utility.yul\":5910:5927   */\n      add\n        /* \"#utility.yul\":5901:5907   */\n      dup5\n        /* \"#utility.yul\":5857:5928   */\n      tag_128\n      jump\t// in\n    tag_136:\n        /* \"#utility.yul\":5713:5935   */\n      swap3\n      swap2\n      pop\n      pop\n      jump\t// out\n        /* \"#utility.yul\":5941:6070   */\n    tag_62:\n        /* \"#utility.yul\":5975:5981   */\n      0x00\n        /* \"#utility.yul\":6002:6022   */\n      tag_138\n      tag_139\n      jump\t// in\n    tag_138:\n        /* \"#utility.yul\":5992:6022   */\n      swap1\n      pop\n        /* \"#utility.yul\":6031:6064   */\n      tag_140\n        /* \"#utility.yul\":6059:6063   */\n      dup3\n        /* \"#utility.yul\":6051:6057   */\n      dup3\n        /* \"#utility.yul\":6031:6064   */\n      tag_141\n      jump\t// in\n    tag_140:\n        /* \"#utility.yul\":5941:6070   */\n      swap2\n      swap1\n      pop\n      jump\t// out\n        /* \"#utility.yul\":6076:6151   */\n    tag_139:\n        /* \"#utility.yul\":6109:6115   */\n      0x00\n        /* \"#utility.yul\":6142:6144   */\n      0x40\n        /* \"#utility.yul\":6136:6145   */\n      mload\n        /* \"#utility.yul\":6126:6145   */\n      swap1\n      pop\n        /* \"#utility.yul\":6076:6151   */\n      swap1\n      jump\t// out\n        /* \"#utility.yul\":6157:6465   */\n    tag_61:\n        /* \"#utility.yul\":6219:6223   */\n      0x00\n        /* \"#utility.yul\":6309:6327   */\n      0xffffffffffffffff\n        /* \"#utility.yul\":6301:6307   */\n      dup3\n        /* \"#utility.yul\":6298:6328   */\n      gt\n        /* \"#utility.yul\":6295:6351   */\n      iszero\n      tag_144\n      jumpi\n        /* \"#utility.yul\":6331:6349   */\n      tag_145\n      tag_146\n      jump\t// in\n    tag_145:\n        /* \"#utility.yul\":6295:6351   */\n    tag_144:\n        /* \"#utility.yul\":6369:6398   */\n      tag_147\n        /* \"#utility.yul\":6391:6397   */\n      dup3\n        /* \"#utility.yul\":6369:6398   */\n      tag_112\n      jump\t// in\n    tag_147:\n        /* \"#utility.yul\":6361:6398   */\n      swap1\n      pop\n        /* \"#utility.yul\":6453:6457   */\n      0x20\n        /* \"#utility.yul\":6447:6451   */\n      dup2\n        /* \"#utility.yul\":6443:6458   */\n      add\n        /* \"#utility.yul\":6435:6458   */\n      swap1\n      pop\n        /* \"#utility.yul\":6157:6465   */\n      swap2\n      swap1\n      pop\n      jump\t// out\n        /* \"#utility.yul\":6471:6570   */\n    tag_106:\n        /* \"#utility.yul\":6523:6529   */\n      0x00\n        /* \"#utility.yul\":6557:6562   */\n      dup2\n        /* \"#utility.yul\":6551:6563   */\n      mload\n        /* \"#utility.yul\":6541:6563   */\n      swap1\n      pop\n        /* \"#utility.yul\":6471:6570   */\n      swap2\n      swap1\n      pop\n      jump\t// out\n        /* \"#utility.yul\":6576:6735   */\n    tag_108:\n        /* \"#utility.yul\":6650:6661   */\n      0x00\n        /* \"#utility.yul\":6684:6690   */\n      dup3\n        /* \"#utility.yul\":6679:6682   */\n      dup3\n        /* \"#utility.yul\":6672:6691   */\n      mstore\n        /* \"#utility.yul\":6724:6728   */\n      0x20\n        /* \"#utility.yul\":6719:6722   */\n      dup3\n        /* \"#utility.yul\":6715:6729   */\n      add\n        /* \"#utility.yul\":6700:6729   */\n      swap1\n      pop\n        /* \"#utility.yul\":6576:6735   */\n      swap3\n      swap2\n      pop\n      pop\n      jump\t// out\n        /* \"#utility.yul\":6741:6837   */\n    tag_102:\n        /* \"#utility.yul\":6778:6785   */\n      0x00\n        /* \"#utility.yul\":6807:6831   */\n      tag_151\n        /* \"#utility.yul\":6825:6830   */\n      dup3\n        /* \"#utility.yul\":6807:6831   */\n      tag_152\n      jump\t// in\n    tag_151:\n        /* \"#utility.yul\":6796:6831   */\n      swap1\n      pop\n        /* \"#utility.yul\":6741:6837   */\n      swap2\n      swap1\n      pop\n      jump\t// out\n        /* \"#utility.yul\":6843:6969   */\n    tag_152:\n        /* \"#utility.yul\":6880:6887   */\n      0x00\n        /* \"#utility.yul\":6920:6962   */\n      0xffffffffffffffffffffffffffffffffffffffff\n        /* \"#utility.yul\":6913:6918   */\n      dup3\n        /* \"#utility.yul\":6909:6963   */\n      and\n        /* \"#utility.yul\":6898:6963   */\n      swap1\n      pop\n        /* \"#utility.yul\":6843:6969   */\n      swap2\n      swap1\n      pop\n      jump\t// out\n        /* \"#utility.yul\":6975:7052   */\n    tag_127:\n        /* \"#utility.yul\":7012:7019   */\n      0x00\n        /* \"#utility.yul\":7041:7046   */\n      dup2\n        /* \"#utility.yul\":7030:7046   */\n      swap1\n      pop\n        /* \"#utility.yul\":6975:7052   */\n      swap2\n      swap1\n      pop\n      jump\t// out\n        /* \"#utility.yul\":7058:7212   */\n    tag_67:\n        /* \"#utility.yul\":7142:7148   */\n      dup3\n        /* \"#utility.yul\":7137:7140   */\n      dup2\n        /* \"#utility.yul\":7132:7135   */\n      dup4\n        /* \"#utility.yul\":7119:7149   */\n      calldatacopy\n        /* \"#utility.yul\":7204:7205   */\n      0x00\n        /* \"#utility.yul\":7195:7201   */\n      dup4\n        /* \"#utility.yul\":7190:7193   */\n      dup4\n        /* \"#utility.yul\":7186:7202   */\n      add\n        /* \"#utility.yul\":7179:7206   */\n      mstore\n        /* \"#utility.yul\":7058:7212   */\n      pop\n      pop\n      pop\n      jump\t// out\n        /* \"#utility.yul\":7218:7525   */\n    tag_110:\n        /* \"#utility.yul\":7286:7287   */\n      0x00\n        /* \"#utility.yul\":7296:7409   */\n    tag_157:\n        /* \"#utility.yul\":7310:7316   */\n      dup4\n        /* \"#utility.yul\":7307:7308   */\n      dup2\n        /* \"#utility.yul\":7304:7317   */\n      lt\n        /* \"#utility.yul\":7296:7409   */\n      iszero\n      tag_159\n      jumpi\n        /* \"#utility.yul\":7395:7396   */\n      dup1\n        /* \"#utility.yul\":7390:7393   */\n      dup3\n        /* \"#utility.yul\":7386:7397   */\n      add\n        /* \"#utility.yul\":7380:7398   */\n      mload\n        /* \"#utility.yul\":7376:7377   */\n      dup2\n        /* \"#utility.yul\":7371:7374   */\n      dup5\n        /* \"#utility.yul\":7367:7378   */\n      add\n        /* \"#utility.yul\":7360:7399   */\n      mstore\n        /* \"#utility.yul\":7332:7334   */\n      0x20\n        /* \"#utility.yul\":7329:7330   */\n      dup2\n        /* \"#utility.yul\":7325:7335   */\n      add\n        /* \"#utility.yul\":7320:7335   */\n      swap1\n      pop\n        /* \"#utility.yul\":7296:7409   */\n      jump(tag_157)\n    tag_159:\n        /* \"#utility.yul\":7427:7433   */\n      dup4\n        /* \"#utility.yul\":7424:7425   */\n      dup2\n        /* \"#utility.yul\":7421:7434   */\n      gt\n        /* \"#utility.yul\":7418:7519   */\n      iszero\n      tag_160\n      jumpi\n        /* \"#utility.yul\":7507:7508   */\n      0x00\n        /* \"#utility.yul\":7498:7504   */\n      dup5\n        /* \"#utility.yul\":7493:7496   */\n      dup5\n        /* \"#utility.yul\":7489:7505   */\n      add\n        /* \"#utility.yul\":7482:7509   */\n      mstore\n        /* \"#utility.yul\":7418:7519   */\n    tag_160:\n        /* \"#utility.yul\":7267:7525   */\n      pop\n        /* \"#utility.yul\":7218:7525   */\n      pop\n      pop\n      pop\n      jump\t// out\n        /* \"#utility.yul\":7531:7851   */\n    tag_41:\n        /* \"#utility.yul\":7575:7581   */\n      0x00\n        /* \"#utility.yul\":7612:7613   */\n      0x02\n        /* \"#utility.yul\":7606:7610   */\n      dup3\n        /* \"#utility.yul\":7602:7614   */\n      div\n        /* \"#utility.yul\":7592:7614   */\n      swap1\n      pop\n        /* \"#utility.yul\":7659:7660   */\n      0x01\n        /* \"#utility.yul\":7653:7657   */\n      dup3\n        /* \"#utility.yul\":7649:7661   */\n      and\n        /* \"#utility.yul\":7680:7698   */\n      dup1\n        /* \"#utility.yul\":7670:7751   */\n      tag_162\n      jumpi\n        /* \"#utility.yul\":7736:7740   */\n      0x7f\n        /* \"#utility.yul\":7728:7734   */\n      dup3\n        /* \"#utility.yul\":7724:7741   */\n      and\n        /* \"#utility.yul\":7714:7741   */\n      swap2\n      pop\n        /* \"#utility.yul\":7670:7751   */\n    tag_162:\n        /* \"#utility.yul\":7798:7800   */\n      0x20\n        /* \"#utility.yul\":7790:7796   */\n      dup3\n        /* \"#utility.yul\":7787:7801   */\n      lt\n        /* \"#utility.yul\":7767:7785   */\n      dup2\n        /* \"#utility.yul\":7764:7802   */\n      eq\n        /* \"#utility.yul\":7761:7845   */\n      iszero\n      tag_163\n      jumpi\n        /* \"#utility.yul\":7817:7835   */\n      tag_164\n      tag_165\n      jump\t// in\n    tag_164:\n        /* \"#utility.yul\":7761:7845   */\n    tag_163:\n        /* \"#utility.yul\":7582:7851   */\n      pop\n        /* \"#utility.yul\":7531:7851   */\n      swap2\n      swap1\n      pop\n      jump\t// out\n        /* \"#utility.yul\":7857:8138   */\n    tag_141:\n        /* \"#utility.yul\":7940:7967   */\n      tag_167\n        /* \"#utility.yul\":7962:7966   */\n      dup3\n        /* \"#utility.yul\":7940:7967   */\n      tag_112\n      jump\t// in\n    tag_167:\n        /* \"#utility.yul\":7932:7938   */\n      dup2\n        /* \"#utility.yul\":7928:7968   */\n      add\n        /* \"#utility.yul\":8070:8076   */\n      dup2\n        /* \"#utility.yul\":8058:8068   */\n      dup2\n        /* \"#utility.yul\":8055:8077   */\n      lt\n        /* \"#utility.yul\":8034:8052   */\n      0xffffffffffffffff\n        /* \"#utility.yul\":8022:8032   */\n      dup3\n        /* \"#utility.yul\":8019:8053   */\n      gt\n        /* \"#utility.yul\":8016:8078   */\n      or\n        /* \"#utility.yul\":8013:8101   */\n      iszero\n      tag_168\n      jumpi\n        /* \"#utility.yul\":8081:8099   */\n      tag_169\n      tag_146\n      jump\t// in\n    tag_169:\n        /* \"#utility.yul\":8013:8101   */\n    tag_168:\n        /* \"#utility.yul\":8121:8131   */\n      dup1\n        /* \"#utility.yul\":8117:8119   */\n      0x40\n        /* \"#utility.yul\":8110:8132   */\n      mstore\n        /* \"#utility.yul\":7900:8138   */\n      pop\n        /* \"#utility.yul\":7857:8138   */\n      pop\n      pop\n      jump\t// out\n        /* \"#utility.yul\":8144:8377   */\n    tag_31:\n        /* \"#utility.yul\":8183:8186   */\n      0x00\n        /* \"#utility.yul\":8206:8230   */\n      tag_171\n        /* \"#utility.yul\":8224:8229   */\n      dup3\n        /* \"#utility.yul\":8206:8230   */\n      tag_127\n      jump\t// in\n    tag_171:\n        /* \"#utility.yul\":8197:8230   */\n      swap2\n      pop\n        /* \"#utility.yul\":8252:8318   */\n      0xffffffffffffffffffffffffffffffffffffffffffffffffffffffffffffffff\n        /* \"#utility.yul\":8245:8250   */\n      dup3\n        /* \"#utility.yul\":8242:8319   */\n      eq\n        /* \"#utility.yul\":8239:8342   */\n      iszero\n      tag_172\n      jumpi\n        /* \"#utility.yul\":8322:8340   */\n      tag_173\n      tag_174\n      jump\t// in\n    tag_173:\n        /* \"#utility.yul\":8239:8342   */\n    tag_172:\n        /* \"#utility.yul\":8369:8370   */\n      0x01\n        /* \"#utility.yul\":8362:8367   */\n      dup3\n        /* \"#utility.yul\":8358:8371   */\n      add\n        /* \"#utility.yul\":8351:8371   */\n      swap1\n      pop\n        /* \"#utility.yul\":8144:8377   */\n      swap2\n      swap1\n      pop\n      jump\t// out\n        /* \"#utility.yul\":8383:8563   */\n    tag_174:\n        /* \"#utility.yul\":8431:8508   */\n      0x4e487b7100000000000000000000000000000000000000000000000000000000\n        /* \"#utility.yul\":8428:8429   */\n      0x00\n        /* \"#utility.yul\":8421:8509   */\n      mstore\n        /* \"#utility.yul\":8528:8532   */\n      0x11\n        /* \"#utility.yul\":8525:8526   */\n      0x04\n        /* \"#utility.yul\":8518:8533   */\n      mstore\n        /* \"#utility.yul\":8552:8556   */\n      0x24\n        /* \"#utility.yul\":8549:8550   */\n      0x00\n        /* \"#utility.yul\":8542:8557   */\n      revert\n        /* \"#utility.yul\":8569:8749   */\n    tag_165:\n        /* \"#utility.yul\":8617:8694   */\n      0x4e487b7100000000000000000000000000000000000000000000000000000000\n        /* \"#utility.yul\":8614:8615   */\n      0x00\n        /* \"#utility.yul\":8607:8695   */\n      mstore\n        /* \"#utility.yul\":8714:8718   */\n      0x22\n        /* \"#utility.yul\":8711:8712   */\n      0x04\n        /* \"#utility.yul\":8704:8719   */\n      mstore\n        /* \"#utility.yul\":8738:8742   */\n      0x24\n        /* \"#utility.yul\":8735:8736   */\n      0x00\n        /* \"#utility.yul\":8728:8743   */\n      revert\n        /* \"#utility.yul\":8755:8935   */\n    tag_146:\n        /* \"#utility.yul\":8803:8880   */\n      0x4e487b7100000000000000000000000000000000000000000000000000000000\n        /* \"#utility.yul\":8800:8801   */\n      0x00\n        /* \"#utility.yul\":8793:8881   */\n      mstore\n        /* \"#utility.yul\":8900:8904   */\n      0x41\n        /* \"#utility.yul\":8897:8898   */\n      0x04\n        /* \"#utility.yul\":8890:8905   */\n      mstore\n        /* \"#utility.yul\":8924:8928   */\n      0x24\n        /* \"#utility.yul\":8921:8922   */\n      0x00\n        /* \"#utility.yul\":8914:8929   */\n      revert\n        /* \"#utility.yul\":8941:9058   */\n    tag_76:\n        /* \"#utility.yul\":9050:9051   */\n      0x00\n        /* \"#utility.yul\":9047:9048   */\n      dup1\n        /* \"#utility.yul\":9040:9052   */\n      revert\n        /* \"#utility.yul\":9064:9181   */\n    tag_65:\n        /* \"#utility.yul\":9173:9174   */\n      0x00\n        /* \"#utility.yul\":9170:9171   */\n      dup1\n        /* \"#utility.yul\":9163:9175   */\n      revert\n        /* \"#utility.yul\":9187:9304   */\n    tag_97:\n        /* \"#utility.yul\":9296:9297   */\n      0x00\n        /* \"#utility.yul\":9293:9294   */\n      dup1\n        /* \"#utility.yul\":9286:9298   */\n      revert\n        /* \"#utility.yul\":9310:9427   */\n    tag_85:\n        /* \"#utility.yul\":9419:9420   */\n      0x00\n        /* \"#utility.yul\":9416:9417   */\n      dup1\n        /* \"#utility.yul\":9409:9421   */\n      revert\n        /* \"#utility.yul\":9433:9535   */\n    tag_112:\n        /* \"#utility.yul\":9474:9480   */\n      0x00\n        /* \"#utility.yul\":9525:9527   */\n      0x1f\n        /* \"#utility.yul\":9521:9528   */\n      not\n        /* \"#utility.yul\":9516:9518   */\n      0x1f\n        /* \"#utility.yul\":9509:9514   */\n      dup4\n        /* \"#utility.yul\":9505:9519   */\n      add\n        /* \"#utility.yul\":9501:9529   */\n      and\n        /* \"#utility.yul\":9491:9529   */\n      swap1\n      pop\n        /* \"#utility.yul\":9433:9535   */\n      swap2\n      swap1\n      pop\n      jump\t// out\n        /* \"#utility.yul\":9541:9663   */\n    tag_71:\n        /* \"#utility.yul\":9614:9638   */\n      tag_184\n        /* \"#utility.yul\":9632:9637   */\n      dup2\n        /* \"#utility.yul\":9614:9638   */\n      tag_102\n      jump\t// in\n    tag_184:\n        /* \"#utility.yul\":9607:9612   */\n      dup2\n        /* \"#utility.yul\":9604:9639   */\n      eq\n        /* \"#utility.yul\":9594:9657   */\n      tag_185\n      jumpi\n        /* \"#utility.yul\":9653:9654   */\n      0x00\n        /* \"#utility.yul\":9650:9651   */\n      dup1\n        /* \"#utility.yul\":9643:9655   */\n      revert\n        /* \"#utility.yul\":9594:9657   */\n    tag_185:\n        /* \"#utility.yul\":9541:9663   */\n      pop\n      jump\t// out\n        /* \"#utility.yul\":9669:9791   */\n    tag_81:\n        /* \"#utility.yul\":9742:9766   */\n      tag_187\n        /* \"#utility.yul\":9760:9765   */\n      dup2\n        /* \"#utility.yul\":9742:9766   */\n      tag_127\n      jump\t// in\n    tag_187:\n        /* \"#utility.yul\":9735:9740   */\n      dup2\n        /* \"#utility.yul\":9732:9767   */\n      eq\n        /* \"#utility.yul\":9722:9785   */\n      tag_188\n      jumpi\n        /* \"#utility.yul\":9781:9782   */\n      0x00\n        /* \"#utility.yul\":9778:9779   */\n      dup1\n        /* \"#utility.yul\":9771:9783   */\n      revert\n        /* \"#utility.yul\":9722:9785   */\n    tag_188:\n        /* \"#utility.yul\":9669:9791   */\n      pop\n      jump\t// out\n\n    auxdata: 0xa2646970667358221220b2435b56b353005aa18d2b10641416671e98f6e847a003dfc8e8a663dc7d037a64736f6c63430008070033\n}\n",
				"bytecode": {
					"linkReferences": {},
					"object": "608060405234801561001057600080fd5b50610b12806100206000396000f3fe60806040526004361061003f5760003560e01c806327e235e3146100445780632b66d72e1461008157806380766de71461009d578063977a767c146100c8575b600080fd5b34801561005057600080fd5b5061006b60048036038101906100669190610632565b610105565b6040516100789190610845565b60405180910390f35b61009b6004803603810190610096919061069f565b610123565b005b3480156100a957600080fd5b506100b26102c8565b6040516100bf9190610801565b60405180910390f35b3480156100d457600080fd5b506100ef60048036038101906100ea919061065f565b61032d565b6040516100fc9190610823565b60405180910390f35b60006020528060005260406000206000915090508060000154905081565b6000803373ffffffffffffffffffffffffffffffffffffffff1673ffffffffffffffffffffffffffffffffffffffff1681526020019081526020016000206000016000815480929190610175906109b3565b9190505550600060405180608001604052803481526020014281526020013373ffffffffffffffffffffffffffffffffffffffff168152602001838152509050806000803373ffffffffffffffffffffffffffffffffffffffff1673ffffffffffffffffffffffffffffffffffffffff16815260200190815260200160002060010160008060003373ffffffffffffffffffffffffffffffffffffffff1673ffffffffffffffffffffffffffffffffffffffff168152602001908152602001600020600001548152602001908152602001600020600082015181600001556020820151816001015560408201518160020160006101000a81548173ffffffffffffffffffffffffffffffffffffffff021916908373ffffffffffffffffffffffffffffffffffffffff16021790555060608201518160030190805190602001906102c0929190610496565b509050505050565b6102d061051c565b6000604051806060016040528060028152602001600181526020016040518060400160405280600581526020017f446176696400000000000000000000000000000000000000000000000000000081525081525090508091505090565b61033561053d565b6000808473ffffffffffffffffffffffffffffffffffffffff1673ffffffffffffffffffffffffffffffffffffffff168152602001908152602001600020600101600083815260200190815260200160002060405180608001604052908160008201548152602001600182015481526020016002820160009054906101000a900473ffffffffffffffffffffffffffffffffffffffff1673ffffffffffffffffffffffffffffffffffffffff1673ffffffffffffffffffffffffffffffffffffffff16815260200160038201805461040c90610950565b80601f016020809104026020016040519081016040528092919081815260200182805461043890610950565b80156104855780601f1061045a57610100808354040283529160200191610485565b820191906000526020600020905b81548152906001019060200180831161046857829003601f168201915b505050505081525050905092915050565b8280546104a290610950565b90600052602060002090601f0160209004810192826104c4576000855561050b565b82601f106104dd57805160ff191683800117855561050b565b8280016001018555821561050b579182015b8281111561050a5782518255916020019190600101906104ef565b5b509050610518919061057b565b5090565b60405180606001604052806000815260200160008152602001606081525090565b60405180608001604052806000815260200160008152602001600073ffffffffffffffffffffffffffffffffffffffff168152602001606081525090565b5b8082111561059457600081600090555060010161057c565b5090565b60006105ab6105a684610885565b610860565b9050828152602081018484840111156105c7576105c6610a8e565b5b6105d284828561090e565b509392505050565b6000813590506105e981610aae565b92915050565b600082601f83011261060457610603610a89565b5b8135610614848260208601610598565b91505092915050565b60008135905061062c81610ac5565b92915050565b60006020828403121561064857610647610a98565b5b6000610656848285016105da565b91505092915050565b6000806040838503121561067657610675610a98565b5b6000610684858286016105da565b92505060206106958582860161061d565b9150509250929050565b6000602082840312156106b5576106b4610a98565b5b600082013567ffffffffffffffff8111156106d3576106d2610a93565b5b6106df848285016105ef565b91505092915050565b6106f1816108d2565b82525050565b6000610702826108b6565b61070c81856108c1565b935061071c81856020860161091d565b61072581610a9d565b840191505092915050565b600060608301600083015161074860008601826107e3565b50602083015161075b60208601826107e3565b506040830151848203604086015261077382826106f7565b9150508091505092915050565b600060808301600083015161079860008601826107e3565b5060208301516107ab60208601826107e3565b5060408301516107be60408601826106e8565b50606083015184820360608601526107d682826106f7565b9150508091505092915050565b6107ec81610904565b82525050565b6107fb81610904565b82525050565b6000602082019050818103600083015261081b8184610730565b905092915050565b6000602082019050818103600083015261083d8184610780565b905092915050565b600060208201905061085a60008301846107f2565b92915050565b600061086a61087b565b90506108768282610982565b919050565b6000604051905090565b600067ffffffffffffffff8211156108a05761089f610a5a565b5b6108a982610a9d565b9050602081019050919050565b600081519050919050565b600082825260208201905092915050565b60006108dd826108e4565b9050919050565b600073ffffffffffffffffffffffffffffffffffffffff82169050919050565b6000819050919050565b82818337600083830152505050565b60005b8381101561093b578082015181840152602081019050610920565b8381111561094a576000848401525b50505050565b6000600282049050600182168061096857607f821691505b6020821081141561097c5761097b610a2b565b5b50919050565b61098b82610a9d565b810181811067ffffffffffffffff821117156109aa576109a9610a5a565b5b80604052505050565b60006109be82610904565b91507fffffffffffffffffffffffffffffffffffffffffffffffffffffffffffffffff8214156109f1576109f06109fc565b5b600182019050919050565b7f4e487b7100000000000000000000000000000000000000000000000000000000600052601160045260246000fd5b7f4e487b7100000000000000000000000000000000000000000000000000000000600052602260045260246000fd5b7f4e487b7100000000000000000000000000000000000000000000000000000000600052604160045260246000fd5b600080fd5b600080fd5b600080fd5b600080fd5b6000601f19601f8301169050919050565b610ab7816108d2565b8114610ac257600080fd5b50565b610ace81610904565b8114610ad957600080fd5b5056fea2646970667358221220b2435b56b353005aa18d2b10641416671e98f6e847a003dfc8e8a663dc7d037a64736f6c63430008070033",
					"opcodes": "PUSH1 0x80 PUSH1 0x40 MSTORE CALLVALUE DUP1 ISZERO PUSH2 0x10 JUMPI PUSH1 0x0 DUP1 REVERT JUMPDEST POP PUSH2 0xB12 DUP1 PUSH2 0x20 PUSH1 0x0 CODECOPY PUSH1 0x0 RETURN INVALID PUSH1 0x80 PUSH1 0x40 MSTORE PUSH1 0x4 CALLDATASIZE LT PUSH2 0x3F JUMPI PUSH1 0x0 CALLDATALOAD PUSH1 0xE0 SHR DUP1 PUSH4 0x27E235E3 EQ PUSH2 0x44 JUMPI DUP1 PUSH4 0x2B66D72E EQ PUSH2 0x81 JUMPI DUP1 PUSH4 0x80766DE7 EQ PUSH2 0x9D JUMPI DUP1 PUSH4 0x977A767C EQ PUSH2 0xC8 JUMPI JUMPDEST PUSH1 0x0 DUP1 REVERT JUMPDEST CALLVALUE DUP1 ISZERO PUSH2 0x50 JUMPI PUSH1 0x0 DUP1 REVERT JUMPDEST POP PUSH2 0x6B PUSH1 0x4 DUP1 CALLDATASIZE SUB DUP2 ADD SWAP1 PUSH2 0x66 SWAP2 SWAP1 PUSH2 0x632 JUMP JUMPDEST PUSH2 0x105 JUMP JUMPDEST PUSH1 0x40 MLOAD PUSH2 0x78 SWAP2 SWAP1 PUSH2 0x845 JUMP JUMPDEST PUSH1 0x40 MLOAD DUP1 SWAP2 SUB SWAP1 RETURN JUMPDEST PUSH2 0x9B PUSH1 0x4 DUP1 CALLDATASIZE SUB DUP2 ADD SWAP1 PUSH2 0x96 SWAP2 SWAP1 PUSH2 0x69F JUMP JUMPDEST PUSH2 0x123 JUMP JUMPDEST STOP JUMPDEST CALLVALUE DUP1 ISZERO PUSH2 0xA9 JUMPI PUSH1 0x0 DUP1 REVERT JUMPDEST POP PUSH2 0xB2 PUSH2 0x2C8 JUMP JUMPDEST PUSH1 0x40 MLOAD PUSH2 0xBF SWAP2 SWAP1 PUSH2 0x801 JUMP JUMPDEST PUSH1 0x40 MLOAD DUP1 SWAP2 SUB SWAP1 RETURN JUMPDEST CALLVALUE DUP1 ISZERO PUSH2 0xD4 JUMPI PUSH1 0x0 DUP1 REVERT JUMPDEST POP PUSH2 0xEF PUSH1 0x4 DUP1 CALLDATASIZE SUB DUP2 ADD SWAP1 PUSH2 0xEA SWAP2 SWAP1 PUSH2 0x65F JUMP JUMPDEST PUSH2 0x32D JUMP JUMPDEST PUSH1 0x40 MLOAD PUSH2 0xFC SWAP2 SWAP1 PUSH2 0x823 JUMP JUMPDEST PUSH1 0x40 MLOAD DUP1 SWAP2 SUB SWAP1 RETURN JUMPDEST PUSH1 0x0 PUSH1 0x20 MSTORE DUP1 PUSH1 0x0 MSTORE PUSH1 0x40 PUSH1 0x0 KECCAK256 PUSH1 0x0 SWAP2 POP SWAP1 POP DUP1 PUSH1 0x0 ADD SLOAD SWAP1 POP DUP2 JUMP JUMPDEST PUSH1 0x0 DUP1 CALLER PUSH20 0xFFFFFFFFFFFFFFFFFFFFFFFFFFFFFFFFFFFFFFFF AND PUSH20 0xFFFFFFFFFFFFFFFFFFFFFFFFFFFFFFFFFFFFFFFF AND DUP2 MSTORE PUSH1 0x20 ADD SWAP1 DUP2 MSTORE PUSH1 0x20 ADD PUSH1 0x0 KECCAK256 PUSH1 0x0 ADD PUSH1 0x0 DUP2 SLOAD DUP1 SWAP3 SWAP2 SWAP1 PUSH2 0x175 SWAP1 PUSH2 0x9B3 JUMP JUMPDEST SWAP2 SWAP1 POP SSTORE POP PUSH1 0x0 PUSH1 0x40 MLOAD DUP1 PUSH1 0x80 ADD PUSH1 0x40 MSTORE DUP1 CALLVALUE DUP2 MSTORE PUSH1 0x20 ADD TIMESTAMP DUP2 MSTORE PUSH1 0x20 ADD CALLER PUSH20 0xFFFFFFFFFFFFFFFFFFFFFFFFFFFFFFFFFFFFFFFF AND DUP2 MSTORE PUSH1 0x20 ADD DUP4 DUP2 MSTORE POP SWAP1 POP DUP1 PUSH1 0x0 DUP1 CALLER PUSH20 0xFFFFFFFFFFFFFFFFFFFFFFFFFFFFFFFFFFFFFFFF AND PUSH20 0xFFFFFFFFFFFFFFFFFFFFFFFFFFFFFFFFFFFFFFFF AND DUP2 MSTORE PUSH1 0x20 ADD SWAP1 DUP2 MSTORE PUSH1 0x20 ADD PUSH1 0x0 KECCAK256 PUSH1 0x1 ADD PUSH1 0x0 DUP1 PUSH1 0x0 CALLER PUSH20 0xFFFFFFFFFFFFFFFFFFFFFFFFFFFFFFFFFFFFFFFF AND PUSH20 0xFFFFFFFFFFFFFFFFFFFFFFFFFFFFFFFFFFFFFFFF AND DUP2 MSTORE PUSH1 0x20 ADD SWAP1 DUP2 MSTORE PUSH1 0x20 ADD PUSH1 0x0 KECCAK256 PUSH1 0x0 ADD SLOAD DUP2 MSTORE PUSH1 0x20 ADD SWAP1 DUP2 MSTORE PUSH1 0x20 ADD PUSH1 0x0 KECCAK256 PUSH1 0x0 DUP3 ADD MLOAD DUP2 PUSH1 0x0 ADD SSTORE PUSH1 0x20 DUP3 ADD MLOAD DUP2 PUSH1 0x1 ADD SSTORE PUSH1 0x40 DUP3 ADD MLOAD DUP2 PUSH1 0x2 ADD PUSH1 0x0 PUSH2 0x100 EXP DUP2 SLOAD DUP2 PUSH20 0xFFFFFFFFFFFFFFFFFFFFFFFFFFFFFFFFFFFFFFFF MUL NOT AND SWAP1 DUP4 PUSH20 0xFFFFFFFFFFFFFFFFFFFFFFFFFFFFFFFFFFFFFFFF AND MUL OR SWAP1 SSTORE POP PUSH1 0x60 DUP3 ADD MLOAD DUP2 PUSH1 0x3 ADD SWAP1 DUP1 MLOAD SWAP1 PUSH1 0x20 ADD SWAP1 PUSH2 0x2C0 SWAP3 SWAP2 SWAP1 PUSH2 0x496 JUMP JUMPDEST POP SWAP1 POP POP POP POP JUMP JUMPDEST PUSH2 0x2D0 PUSH2 0x51C JUMP JUMPDEST PUSH1 0x0 PUSH1 0x40 MLOAD DUP1 PUSH1 0x60 ADD PUSH1 0x40 MSTORE DUP1 PUSH1 0x2 DUP2 MSTORE PUSH1 0x20 ADD PUSH1 0x1 DUP2 MSTORE PUSH1 0x20 ADD PUSH1 0x40 MLOAD DUP1 PUSH1 0x40 ADD PUSH1 0x40 MSTORE DUP1 PUSH1 0x5 DUP2 MSTORE PUSH1 0x20 ADD PUSH32 0x4461766964000000000000000000000000000000000000000000000000000000 DUP2 MSTORE POP DUP2 MSTORE POP SWAP1 POP DUP1 SWAP2 POP POP SWAP1 JUMP JUMPDEST PUSH2 0x335 PUSH2 0x53D JUMP JUMPDEST PUSH1 0x0 DUP1 DUP5 PUSH20 0xFFFFFFFFFFFFFFFFFFFFFFFFFFFFFFFFFFFFFFFF AND PUSH20 0xFFFFFFFFFFFFFFFFFFFFFFFFFFFFFFFFFFFFFFFF AND DUP2 MSTORE PUSH1 0x20 ADD SWAP1 DUP2 MSTORE PUSH1 0x20 ADD PUSH1 0x0 KECCAK256 PUSH1 0x1 ADD PUSH1 0x0 DUP4 DUP2 MSTORE PUSH1 0x20 ADD SWAP1 DUP2 MSTORE PUSH1 0x20 ADD PUSH1 0x0 KECCAK256 PUSH1 0x40 MLOAD DUP1 PUSH1 0x80 ADD PUSH1 0x40 MSTORE SWAP1 DUP2 PUSH1 0x0 DUP3 ADD SLOAD DUP2 MSTORE PUSH1 0x20 ADD PUSH1 0x1 DUP3 ADD SLOAD DUP2 MSTORE PUSH1 0x20 ADD PUSH1 0x2 DUP3 ADD PUSH1 0x0 SWAP1 SLOAD SWAP1 PUSH2 0x100 EXP SWAP1 DIV PUSH20 0xFFFFFFFFFFFFFFFFFFFFFFFFFFFFFFFFFFFFFFFF AND PUSH20 0xFFFFFFFFFFFFFFFFFFFFFFFFFFFFFFFFFFFFFFFF AND PUSH20 0xFFFFFFFFFFFFFFFFFFFFFFFFFFFFFFFFFFFFFFFF AND DUP2 MSTORE PUSH1 0x20 ADD PUSH1 0x3 DUP3 ADD DUP1 SLOAD PUSH2 0x40C SWAP1 PUSH2 0x950 JUMP JUMPDEST DUP1 PUSH1 0x1F ADD PUSH1 0x20 DUP1 SWAP2 DIV MUL PUSH1 0x20 ADD PUSH1 0x40 MLOAD SWAP1 DUP2 ADD PUSH1 0x40 MSTORE DUP1 SWAP3 SWAP2 SWAP1 DUP2 DUP2 MSTORE PUSH1 0x20 ADD DUP3 DUP1 SLOAD PUSH2 0x438 SWAP1 PUSH2 0x950 JUMP JUMPDEST DUP1 ISZERO PUSH2 0x485 JUMPI DUP1 PUSH1 0x1F LT PUSH2 0x45A JUMPI PUSH2 0x100 DUP1 DUP4 SLOAD DIV MUL DUP4 MSTORE SWAP2 PUSH1 0x20 ADD SWAP2 PUSH2 0x485 JUMP JUMPDEST DUP3 ADD SWAP2 SWAP1 PUSH1 0x0 MSTORE PUSH1 0x20 PUSH1 0x0 KECCAK256 SWAP1 JUMPDEST DUP2 SLOAD DUP2 MSTORE SWAP1 PUSH1 0x1 ADD SWAP1 PUSH1 0x20 ADD DUP1 DUP4 GT PUSH2 0x468 JUMPI DUP3 SWAP1 SUB PUSH1 0x1F AND DUP3 ADD SWAP2 JUMPDEST POP POP POP POP POP DUP2 MSTORE POP POP SWAP1 POP SWAP3 SWAP2 POP POP JUMP JUMPDEST DUP3 DUP1 SLOAD PUSH2 0x4A2 SWAP1 PUSH2 0x950 JUMP JUMPDEST SWAP1 PUSH1 0x0 MSTORE PUSH1 0x20 PUSH1 0x0 KECCAK256 SWAP1 PUSH1 0x1F ADD PUSH1 0x20 SWAP1 DIV DUP2 ADD SWAP3 DUP3 PUSH2 0x4C4 JUMPI PUSH1 0x0 DUP6 SSTORE PUSH2 0x50B JUMP JUMPDEST DUP3 PUSH1 0x1F LT PUSH2 0x4DD JUMPI DUP1 MLOAD PUSH1 0xFF NOT AND DUP4 DUP1 ADD OR DUP6 SSTORE PUSH2 0x50B JUMP JUMPDEST DUP3 DUP1 ADD PUSH1 0x1 ADD DUP6 SSTORE DUP3 ISZERO PUSH2 0x50B JUMPI SWAP2 DUP3 ADD JUMPDEST DUP3 DUP2 GT ISZERO PUSH2 0x50A JUMPI DUP3 MLOAD DUP3 SSTORE SWAP2 PUSH1 0x20 ADD SWAP2 SWAP1 PUSH1 0x1 ADD SWAP1 PUSH2 0x4EF JUMP JUMPDEST JUMPDEST POP SWAP1 POP PUSH2 0x518 SWAP2 SWAP1 PUSH2 0x57B JUMP JUMPDEST POP SWAP1 JUMP JUMPDEST PUSH1 0x40 MLOAD DUP1 PUSH1 0x60 ADD PUSH1 0x40 MSTORE DUP1 PUSH1 0x0 DUP2 MSTORE PUSH1 0x20 ADD PUSH1 0x0 DUP2 MSTORE PUSH1 0x20 ADD PUSH1 0x60 DUP2 MSTORE POP SWAP1 JUMP JUMPDEST PUSH1 0x40 MLOAD DUP1 PUSH1 0x80 ADD PUSH1 0x40 MSTORE DUP1 PUSH1 0x0 DUP2 MSTORE PUSH1 0x20 ADD PUSH1 0x0 DUP2 MSTORE PUSH1 0x20 ADD PUSH1 0x0 PUSH20 0xFFFFFFFFFFFFFFFFFFFFFFFFFFFFFFFFFFFFFFFF AND DUP2 MSTORE PUSH1 0x20 ADD PUSH1 0x60 DUP2 MSTORE POP SWAP1 JUMP JUMPDEST JUMPDEST DUP1 DUP3 GT ISZERO PUSH2 0x594 JUMPI PUSH1 0x0 DUP2 PUSH1 0x0 SWAP1 SSTORE POP PUSH1 0x1 ADD PUSH2 0x57C JUMP JUMPDEST POP SWAP1 JUMP JUMPDEST PUSH1 0x0 PUSH2 0x5AB PUSH2 0x5A6 DUP5 PUSH2 0x885 JUMP JUMPDEST PUSH2 0x860 JUMP JUMPDEST SWAP1 POP DUP3 DUP2 MSTORE PUSH1 0x20 DUP2 ADD DUP5 DUP5 DUP5 ADD GT ISZERO PUSH2 0x5C7 JUMPI PUSH2 0x5C6 PUSH2 0xA8E JUMP JUMPDEST JUMPDEST PUSH2 0x5D2 DUP5 DUP3 DUP6 PUSH2 0x90E JUMP JUMPDEST POP SWAP4 SWAP3 POP POP POP JUMP JUMPDEST PUSH1 0x0 DUP2 CALLDATALOAD SWAP1 POP PUSH2 0x5E9 DUP2 PUSH2 0xAAE JUMP JUMPDEST SWAP3 SWAP2 POP POP JUMP JUMPDEST PUSH1 0x0 DUP3 PUSH1 0x1F DUP4 ADD SLT PUSH2 0x604 JUMPI PUSH2 0x603 PUSH2 0xA89 JUMP JUMPDEST JUMPDEST DUP2 CALLDATALOAD PUSH2 0x614 DUP5 DUP3 PUSH1 0x20 DUP7 ADD PUSH2 0x598 JUMP JUMPDEST SWAP2 POP POP SWAP3 SWAP2 POP POP JUMP JUMPDEST PUSH1 0x0 DUP2 CALLDATALOAD SWAP1 POP PUSH2 0x62C DUP2 PUSH2 0xAC5 JUMP JUMPDEST SWAP3 SWAP2 POP POP JUMP JUMPDEST PUSH1 0x0 PUSH1 0x20 DUP3 DUP5 SUB SLT ISZERO PUSH2 0x648 JUMPI PUSH2 0x647 PUSH2 0xA98 JUMP JUMPDEST JUMPDEST PUSH1 0x0 PUSH2 0x656 DUP5 DUP3 DUP6 ADD PUSH2 0x5DA JUMP JUMPDEST SWAP2 POP POP SWAP3 SWAP2 POP POP JUMP JUMPDEST PUSH1 0x0 DUP1 PUSH1 0x40 DUP4 DUP6 SUB SLT ISZERO PUSH2 0x676 JUMPI PUSH2 0x675 PUSH2 0xA98 JUMP JUMPDEST JUMPDEST PUSH1 0x0 PUSH2 0x684 DUP6 DUP3 DUP7 ADD PUSH2 0x5DA JUMP JUMPDEST SWAP3 POP POP PUSH1 0x20 PUSH2 0x695 DUP6 DUP3 DUP7 ADD PUSH2 0x61D JUMP JUMPDEST SWAP2 POP POP SWAP3 POP SWAP3 SWAP1 POP JUMP JUMPDEST PUSH1 0x0 PUSH1 0x20 DUP3 DUP5 SUB SLT ISZERO PUSH2 0x6B5 JUMPI PUSH2 0x6B4 PUSH2 0xA98 JUMP JUMPDEST JUMPDEST PUSH1 0x0 DUP3 ADD CALLDATALOAD PUSH8 0xFFFFFFFFFFFFFFFF DUP2 GT ISZERO PUSH2 0x6D3 JUMPI PUSH2 0x6D2 PUSH2 0xA93 JUMP JUMPDEST JUMPDEST PUSH2 0x6DF DUP5 DUP3 DUP6 ADD PUSH2 0x5EF JUMP JUMPDEST SWAP2 POP POP SWAP3 SWAP2 POP POP JUMP JUMPDEST PUSH2 0x6F1 DUP2 PUSH2 0x8D2 JUMP JUMPDEST DUP3 MSTORE POP POP JUMP JUMPDEST PUSH1 0x0 PUSH2 0x702 DUP3 PUSH2 0x8B6 JUMP JUMPDEST PUSH2 0x70C DUP2 DUP6 PUSH2 0x8C1 JUMP JUMPDEST SWAP4 POP PUSH2 0x71C DUP2 DUP6 PUSH1 0x20 DUP7 ADD PUSH2 0x91D JUMP JUMPDEST PUSH2 0x725 DUP2 PUSH2 0xA9D JUMP JUMPDEST DUP5 ADD SWAP2 POP POP SWAP3 SWAP2 POP POP JUMP JUMPDEST PUSH1 0x0 PUSH1 0x60 DUP4 ADD PUSH1 0x0 DUP4 ADD MLOAD PUSH2 0x748 PUSH1 0x0 DUP7 ADD DUP3 PUSH2 0x7E3 JUMP JUMPDEST POP PUSH1 0x20 DUP4 ADD MLOAD PUSH2 0x75B PUSH1 0x20 DUP7 ADD DUP3 PUSH2 0x7E3 JUMP JUMPDEST POP PUSH1 0x40 DUP4 ADD MLOAD DUP5 DUP3 SUB PUSH1 0x40 DUP7 ADD MSTORE PUSH2 0x773 DUP3 DUP3 PUSH2 0x6F7 JUMP JUMPDEST SWAP2 POP POP DUP1 SWAP2 POP POP SWAP3 SWAP2 POP POP JUMP JUMPDEST PUSH1 0x0 PUSH1 0x80 DUP4 ADD PUSH1 0x0 DUP4 ADD MLOAD PUSH2 0x798 PUSH1 0x0 DUP7 ADD DUP3 PUSH2 0x7E3 JUMP JUMPDEST POP PUSH1 0x20 DUP4 ADD MLOAD PUSH2 0x7AB PUSH1 0x20 DUP7 ADD DUP3 PUSH2 0x7E3 JUMP JUMPDEST POP PUSH1 0x40 DUP4 ADD MLOAD PUSH2 0x7BE PUSH1 0x40 DUP7 ADD DUP3 PUSH2 0x6E8 JUMP JUMPDEST POP PUSH1 0x60 DUP4 ADD MLOAD DUP5 DUP3 SUB PUSH1 0x60 DUP7 ADD MSTORE PUSH2 0x7D6 DUP3 DUP3 PUSH2 0x6F7 JUMP JUMPDEST SWAP2 POP POP DUP1 SWAP2 POP POP SWAP3 SWAP2 POP POP JUMP JUMPDEST PUSH2 0x7EC DUP2 PUSH2 0x904 JUMP JUMPDEST DUP3 MSTORE POP POP JUMP JUMPDEST PUSH2 0x7FB DUP2 PUSH2 0x904 JUMP JUMPDEST DUP3 MSTORE POP POP JUMP JUMPDEST PUSH1 0x0 PUSH1 0x20 DUP3 ADD SWAP1 POP DUP2 DUP2 SUB PUSH1 0x0 DUP4 ADD MSTORE PUSH2 0x81B DUP2 DUP5 PUSH2 0x730 JUMP JUMPDEST SWAP1 POP SWAP3 SWAP2 POP POP JUMP JUMPDEST PUSH1 0x0 PUSH1 0x20 DUP3 ADD SWAP1 POP DUP2 DUP2 SUB PUSH1 0x0 DUP4 ADD MSTORE PUSH2 0x83D DUP2 DUP5 PUSH2 0x780 JUMP JUMPDEST SWAP1 POP SWAP3 SWAP2 POP POP JUMP JUMPDEST PUSH1 0x0 PUSH1 0x20 DUP3 ADD SWAP1 POP PUSH2 0x85A PUSH1 0x0 DUP4 ADD DUP5 PUSH2 0x7F2 JUMP JUMPDEST SWAP3 SWAP2 POP POP JUMP JUMPDEST PUSH1 0x0 PUSH2 0x86A PUSH2 0x87B JUMP JUMPDEST SWAP1 POP PUSH2 0x876 DUP3 DUP3 PUSH2 0x982 JUMP JUMPDEST SWAP2 SWAP1 POP JUMP JUMPDEST PUSH1 0x0 PUSH1 0x40 MLOAD SWAP1 POP SWAP1 JUMP JUMPDEST PUSH1 0x0 PUSH8 0xFFFFFFFFFFFFFFFF DUP3 GT ISZERO PUSH2 0x8A0 JUMPI PUSH2 0x89F PUSH2 0xA5A JUMP JUMPDEST JUMPDEST PUSH2 0x8A9 DUP3 PUSH2 0xA9D JUMP JUMPDEST SWAP1 POP PUSH1 0x20 DUP2 ADD SWAP1 POP SWAP2 SWAP1 POP JUMP JUMPDEST PUSH1 0x0 DUP2 MLOAD SWAP1 POP SWAP2 SWAP1 POP JUMP JUMPDEST PUSH1 0x0 DUP3 DUP3 MSTORE PUSH1 0x20 DUP3 ADD SWAP1 POP SWAP3 SWAP2 POP POP JUMP JUMPDEST PUSH1 0x0 PUSH2 0x8DD DUP3 PUSH2 0x8E4 JUMP JUMPDEST SWAP1 POP SWAP2 SWAP1 POP JUMP JUMPDEST PUSH1 0x0 PUSH20 0xFFFFFFFFFFFFFFFFFFFFFFFFFFFFFFFFFFFFFFFF DUP3 AND SWAP1 POP SWAP2 SWAP1 POP JUMP JUMPDEST PUSH1 0x0 DUP2 SWAP1 POP SWAP2 SWAP1 POP JUMP JUMPDEST DUP3 DUP2 DUP4 CALLDATACOPY PUSH1 0x0 DUP4 DUP4 ADD MSTORE POP POP POP JUMP JUMPDEST PUSH1 0x0 JUMPDEST DUP4 DUP2 LT ISZERO PUSH2 0x93B JUMPI DUP1 DUP3 ADD MLOAD DUP2 DUP5 ADD MSTORE PUSH1 0x20 DUP2 ADD SWAP1 POP PUSH2 0x920 JUMP JUMPDEST DUP4 DUP2 GT ISZERO PUSH2 0x94A JUMPI PUSH1 0x0 DUP5 DUP5 ADD MSTORE JUMPDEST POP POP POP POP JUMP JUMPDEST PUSH1 0x0 PUSH1 0x2 DUP3 DIV SWAP1 POP PUSH1 0x1 DUP3 AND DUP1 PUSH2 0x968 JUMPI PUSH1 0x7F DUP3 AND SWAP2 POP JUMPDEST PUSH1 0x20 DUP3 LT DUP2 EQ ISZERO PUSH2 0x97C JUMPI PUSH2 0x97B PUSH2 0xA2B JUMP JUMPDEST JUMPDEST POP SWAP2 SWAP1 POP JUMP JUMPDEST PUSH2 0x98B DUP3 PUSH2 0xA9D JUMP JUMPDEST DUP2 ADD DUP2 DUP2 LT PUSH8 0xFFFFFFFFFFFFFFFF DUP3 GT OR ISZERO PUSH2 0x9AA JUMPI PUSH2 0x9A9 PUSH2 0xA5A JUMP JUMPDEST JUMPDEST DUP1 PUSH1 0x40 MSTORE POP POP POP JUMP JUMPDEST PUSH1 0x0 PUSH2 0x9BE DUP3 PUSH2 0x904 JUMP JUMPDEST SWAP2 POP PUSH32 0xFFFFFFFFFFFFFFFFFFFFFFFFFFFFFFFFFFFFFFFFFFFFFFFFFFFFFFFFFFFFFFFF DUP3 EQ ISZERO PUSH2 0x9F1 JUMPI PUSH2 0x9F0 PUSH2 0x9FC JUMP JUMPDEST JUMPDEST PUSH1 0x1 DUP3 ADD SWAP1 POP SWAP2 SWAP1 POP JUMP JUMPDEST PUSH32 0x4E487B7100000000000000000000000000000000000000000000000000000000 PUSH1 0x0 MSTORE PUSH1 0x11 PUSH1 0x4 MSTORE PUSH1 0x24 PUSH1 0x0 REVERT JUMPDEST PUSH32 0x4E487B7100000000000000000000000000000000000000000000000000000000 PUSH1 0x0 MSTORE PUSH1 0x22 PUSH1 0x4 MSTORE PUSH1 0x24 PUSH1 0x0 REVERT JUMPDEST PUSH32 0x4E487B7100000000000000000000000000000000000000000000000000000000 PUSH1 0x0 MSTORE PUSH1 0x41 PUSH1 0x4 MSTORE PUSH1 0x24 PUSH1 0x0 REVERT JUMPDEST PUSH1 0x0 DUP1 REVERT JUMPDEST PUSH1 0x0 DUP1 REVERT JUMPDEST PUSH1 0x0 DUP1 REVERT JUMPDEST PUSH1 0x0 DUP1 REVERT JUMPDEST PUSH1 0x0 PUSH1 0x1F NOT PUSH1 0x1F DUP4 ADD AND SWAP1 POP SWAP2 SWAP1 POP JUMP JUMPDEST PUSH2 0xAB7 DUP2 PUSH2 0x8D2 JUMP JUMPDEST DUP2 EQ PUSH2 0xAC2 JUMPI PUSH1 0x0 DUP1 REVERT JUMPDEST POP JUMP JUMPDEST PUSH2 0xACE DUP2 PUSH2 0x904 JUMP JUMPDEST DUP2 EQ PUSH2 0xAD9 JUMPI PUSH1 0x0 DUP1 REVERT JUMPDEST POP JUMP INVALID LOG2 PUSH5 0x6970667358 0x22 SLT KECCAK256 0xB2 NUMBER JUMPDEST JUMP 0xB3 MSTORE8 STOP GAS LOG1 DUP14 0x2B LT PUSH5 0x1416671E98 0xF6 0xE8 SELFBALANCE LOG0 SUB 0xDF 0xC8 0xE8 0xA6 PUSH4 0xDC7D037A PUSH5 0x736F6C6343 STOP ADDMOD SMOD STOP CALLER "
				},
				"gasEstimates": {
					"creation": {
						"codeDepositCost": "566800",
						"executionCost": "600",
						"totalCost": "567400"
					},
					"external": {
						"balances(address)": "2806",
						"getHuman()": "infinite",
						"getPayment(address,uint256)": "infinite",
						"pay(string)": "infinite"
					}
				},
				"methodIdentifiers": {
					"balances(address)": "27e235e3",
					"getHuman()": "80766de7",
					"getPayment(address,uint256)": "977a767c",
					"pay(string)": "2b66d72e"
				}
			},
			"storageLayout": {
				"storage": [
					{
						"astId": 48,
						"contract": "contracts/Lesson5Types.sol:Struct5Lesson",
						"label": "balances",
						"offset": 0,
						"slot": "0",
						"type": "t_mapping(t_address,t_struct(Balance)43_storage)"
					}
				],
				"types": {
					"t_address": {
						"encoding": "inplace",
						"label": "address",
						"numberOfBytes": "20"
					},
					"t_mapping(t_address,t_struct(Balance)43_storage)": {
						"encoding": "mapping",
						"key": "t_address",
						"label": "mapping(address => struct Struct5Lesson.Balance)",
						"numberOfBytes": "32",
						"value": "t_struct(Balance)43_storage"
					},
					"t_mapping(t_uint256,t_struct(Payment)35_storage)": {
						"encoding": "mapping",
						"key": "t_uint256",
						"label": "mapping(uint256 => struct Struct5Lesson.Payment)",
						"numberOfBytes": "32",
						"value": "t_struct(Payment)35_storage"
					},
					"t_string_storage": {
						"encoding": "bytes",
						"label": "string",
						"numberOfBytes": "32"
					},
					"t_struct(Balance)43_storage": {
						"encoding": "inplace",
						"label": "struct Struct5Lesson.Balance",
						"members": [
							{
								"astId": 37,
								"contract": "contracts/Lesson5Types.sol:Struct5Lesson",
								"label": "totalPayments",
								"offset": 0,
								"slot": "0",
								"type": "t_uint256"
							},
							{
								"astId": 42,
								"contract": "contracts/Lesson5Types.sol:Struct5Lesson",
								"label": "payments",
								"offset": 0,
								"slot": "1",
								"type": "t_mapping(t_uint256,t_struct(Payment)35_storage)"
							}
						],
						"numberOfBytes": "64"
					},
					"t_struct(Payment)35_storage": {
						"encoding": "inplace",
						"label": "struct Struct5Lesson.Payment",
						"members": [
							{
								"astId": 28,
								"contract": "contracts/Lesson5Types.sol:Struct5Lesson",
								"label": "amount",
								"offset": 0,
								"slot": "0",
								"type": "t_uint256"
							},
							{
								"astId": 30,
								"contract": "contracts/Lesson5Types.sol:Struct5Lesson",
								"label": "timestamp",
								"offset": 0,
								"slot": "1",
								"type": "t_uint256"
							},
							{
								"astId": 32,
								"contract": "contracts/Lesson5Types.sol:Struct5Lesson",
								"label": "from",
								"offset": 0,
								"slot": "2",
								"type": "t_address"
							},
							{
								"astId": 34,
								"contract": "contracts/Lesson5Types.sol:Struct5Lesson",
								"label": "message",
								"offset": 0,
								"slot": "3",
								"type": "t_string_storage"
							}
						],
						"numberOfBytes": "128"
					},
					"t_uint256": {
						"encoding": "inplace",
						"label": "uint256",
						"numberOfBytes": "32"
					}
				}
			},
			"userdoc": {
				"kind": "user",
				"methods": {},
				"version": 1
			}
		}
	}
}