{
	"data": {
		"bytecode": {
			"linkReferences": {},
			"object": "6080604052600a6000557fffffffffffffffffffffffffffffffffffffffffffffffffffffffffffffffea6001557fffffffffffffffffffffffffffffffffffffffffffffffffffffffffffffffff600260006101000a81548160ff021916908360000b60ff16021790555060fe600560006101000a81548160ff021916908360ff16021790555060fe600560016101000a81548160ff021916908360ff1602179055503480156100af57600080fd5b506107b3806100bf6000396000f3fe608060405234801561001057600080fd5b50600436106100a95760003560e01c80636ac5db19116100715780636ac5db191461011c5780637031ac491461013a5780638378652f14610158578063a9bf563314610162578063a9e23bea1461017e578063f88979451461019c576100a9565b806301725a0b146100ae57806306540f7e146100b85780630b79ba80146100d65780632cb777a6146100f4578063371303c014610112575b600080fd5b6100b66101ba565b005b6100c06101d1565b6040516100cd91906103b1565b60405180910390f35b6100de6101d7565b6040516100eb9190610396565b60405180910390f35b6100fc6101ea565b604051610109919061037b565b60405180910390f35b61011a6101f0565b005b61012461022a565b60405161013191906103b1565b60405180910390f35b610142610230565b60405161014f91906103cc565b60405180910390f35b610160610243565b005b61017c60048036038101906101779190610312565b610277565b005b6101866102e4565b60405161019391906103cc565b60405180910390f35b6101a46102f7565b6040516101b191906103b1565b60405180910390f35b600060ff1660038190555060ff8016600481905550565b60005481565b600260009054906101000a900460000b81565b60015481565b6005600081819054906101000a900460ff168092919061020f9061069b565b91906101000a81548160ff021916908360ff16021790555050565b60045481565b600560019054906101000a900460ff1681565b6005600181819054906101000a900460ff168092919060010191906101000a81548160ff021916908360ff16021790555050565b6000602a905060006104d29050600060ff905060018361029791906103e7565b506001836102a59190610639565b506005836102b391906105df565b506005836102c1919061043d565b506002836102cf91906104c1565b506001836102dd91906106c5565b5050505050565b600560009054906101000a900460ff1681565b60035481565b60008135905061030c81610766565b92915050565b60006020828403121561032857610327610754565b5b6000610336848285016102fd565b91505092915050565b6103488161066d565b82525050565b61035781610677565b82525050565b61036681610684565b82525050565b6103758161068e565b82525050565b6000602082019050610390600083018461033f565b92915050565b60006020820190506103ab600083018461034e565b92915050565b60006020820190506103c6600083018461035d565b92915050565b60006020820190506103e1600083018461036c565b92915050565b60006103f282610684565b91506103fd83610684565b9250827fffffffffffffffffffffffffffffffffffffffffffffffffffffffffffffffff03821115610432576104316106f6565b5b828201905092915050565b600061044882610684565b915061045383610684565b92508261046357610462610725565b5b828204905092915050565b6000808291508390505b60018511156104b857808604811115610494576104936106f6565b5b60018516156104a35780820291505b80810290506104b185610759565b9450610478565b94509492505050565b60006104cc82610684565b91506104d78361068e565b92506105047fffffffffffffffffffffffffffffffffffffffffffffffffffffffffffffffff848461050c565b905092915050565b60008261051c57600190506105d8565b8161052a57600090506105d8565b8160018114610540576002811461054a57610579565b60019150506105d8565b60ff84111561055c5761055b6106f6565b5b8360020a915084821115610573576105726106f6565b5b506105d8565b5060208310610133831016604e8410600b84101617156105ae5782820a9050838111156105a9576105a86106f6565b5b6105d8565b6105bb848484600161046e565b925090508184048111156105d2576105d16106f6565b5b81810290505b9392505050565b60006105ea82610684565b91506105f583610684565b9250817fffffffffffffffffffffffffffffffffffffffffffffffffffffffffffffffff048311821515161561062e5761062d6106f6565b5b828202905092915050565b600061064482610684565b915061064f83610684565b925082821015610662576106616106f6565b5b828203905092915050565b6000819050919050565b60008160000b9050919050565b6000819050919050565b600060ff82169050919050565b60006106a68261068e565b915060008214156106ba576106b96106f6565b5b600182039050919050565b60006106d082610684565b91506106db83610684565b9250826106eb576106ea610725565b5b828206905092915050565b7f4e487b7100000000000000000000000000000000000000000000000000000000600052601160045260246000fd5b7f4e487b7100000000000000000000000000000000000000000000000000000000600052601260045260246000fd5b600080fd5b60008160011c9050919050565b61076f81610684565b811461077a57600080fd5b5056fea2646970667358221220d5e912cea149bd50616ff771ed548687066ecff6c2009d2c667d517bfa8ebce164736f6c63430008070033",
			"opcodes": "PUSH1 0x80 PUSH1 0x40 MSTORE PUSH1 0xA PUSH1 0x0 SSTORE PUSH32 0xFFFFFFFFFFFFFFFFFFFFFFFFFFFFFFFFFFFFFFFFFFFFFFFFFFFFFFFFFFFFFFEA PUSH1 0x1 SSTORE PUSH32 0xFFFFFFFFFFFFFFFFFFFFFFFFFFFFFFFFFFFFFFFFFFFFFFFFFFFFFFFFFFFFFFFF PUSH1 0x2 PUSH1 0x0 PUSH2 0x100 EXP DUP2 SLOAD DUP2 PUSH1 0xFF MUL NOT AND SWAP1 DUP4 PUSH1 0x0 SIGNEXTEND PUSH1 0xFF AND MUL OR SWAP1 SSTORE POP PUSH1 0xFE PUSH1 0x5 PUSH1 0x0 PUSH2 0x100 EXP DUP2 SLOAD DUP2 PUSH1 0xFF MUL NOT AND SWAP1 DUP4 PUSH1 0xFF AND MUL OR SWAP1 SSTORE POP PUSH1 0xFE PUSH1 0x5 PUSH1 0x1 PUSH2 0x100 EXP DUP2 SLOAD DUP2 PUSH1 0xFF MUL NOT AND SWAP1 DUP4 PUSH1 0xFF AND MUL OR SWAP1 SSTORE POP CALLVALUE DUP1 ISZERO PUSH2 0xAF JUMPI PUSH1 0x0 DUP1 REVERT JUMPDEST POP PUSH2 0x7B3 DUP1 PUSH2 0xBF PUSH1 0x0 CODECOPY PUSH1 0x0 RETURN INVALID PUSH1 0x80 PUSH1 0x40 MSTORE CALLVALUE DUP1 ISZERO PUSH2 0x10 JUMPI PUSH1 0x0 DUP1 REVERT JUMPDEST POP PUSH1 0x4 CALLDATASIZE LT PUSH2 0xA9 JUMPI PUSH1 0x0 CALLDATALOAD PUSH1 0xE0 SHR DUP1 PUSH4 0x6AC5DB19 GT PUSH2 0x71 JUMPI DUP1 PUSH4 0x6AC5DB19 EQ PUSH2 0x11C JUMPI DUP1 PUSH4 0x7031AC49 EQ PUSH2 0x13A JUMPI DUP1 PUSH4 0x8378652F EQ PUSH2 0x158 JUMPI DUP1 PUSH4 0xA9BF5633 EQ PUSH2 0x162 JUMPI DUP1 PUSH4 0xA9E23BEA EQ PUSH2 0x17E JUMPI DUP1 PUSH4 0xF8897945 EQ PUSH2 0x19C JUMPI PUSH2 0xA9 JUMP JUMPDEST DUP1 PUSH4 0x1725A0B EQ PUSH2 0xAE JUMPI DUP1 PUSH4 0x6540F7E EQ PUSH2 0xB8 JUMPI DUP1 PUSH4 0xB79BA80 EQ PUSH2 0xD6 JUMPI DUP1 PUSH4 0x2CB777A6 EQ PUSH2 0xF4 JUMPI DUP1 PUSH4 0x371303C0 EQ PUSH2 0x112 JUMPI JUMPDEST PUSH1 0x0 DUP1 REVERT JUMPDEST PUSH2 0xB6 PUSH2 0x1BA JUMP JUMPDEST STOP JUMPDEST PUSH2 0xC0 PUSH2 0x1D1 JUMP JUMPDEST PUSH1 0x40 MLOAD PUSH2 0xCD SWAP2 SWAP1 PUSH2 0x3B1 JUMP JUMPDEST PUSH1 0x40 MLOAD DUP1 SWAP2 SUB SWAP1 RETURN JUMPDEST PUSH2 0xDE PUSH2 0x1D7 JUMP JUMPDEST PUSH1 0x40 MLOAD PUSH2 0xEB SWAP2 SWAP1 PUSH2 0x396 JUMP JUMPDEST PUSH1 0x40 MLOAD DUP1 SWAP2 SUB SWAP1 RETURN JUMPDEST PUSH2 0xFC PUSH2 0x1EA JUMP JUMPDEST PUSH1 0x40 MLOAD PUSH2 0x109 SWAP2 SWAP1 PUSH2 0x37B JUMP JUMPDEST PUSH1 0x40 MLOAD DUP1 SWAP2 SUB SWAP1 RETURN JUMPDEST PUSH2 0x11A PUSH2 0x1F0 JUMP JUMPDEST STOP JUMPDEST PUSH2 0x124 PUSH2 0x22A JUMP JUMPDEST PUSH1 0x40 MLOAD PUSH2 0x131 SWAP2 SWAP1 PUSH2 0x3B1 JUMP JUMPDEST PUSH1 0x40 MLOAD DUP1 SWAP2 SUB SWAP1 RETURN JUMPDEST PUSH2 0x142 PUSH2 0x230 JUMP JUMPDEST PUSH1 0x40 MLOAD PUSH2 0x14F SWAP2 SWAP1 PUSH2 0x3CC JUMP JUMPDEST PUSH1 0x40 MLOAD DUP1 SWAP2 SUB SWAP1 RETURN JUMPDEST PUSH2 0x160 PUSH2 0x243 JUMP JUMPDEST STOP JUMPDEST PUSH2 0x17C PUSH1 0x4 DUP1 CALLDATASIZE SUB DUP2 ADD SWAP1 PUSH2 0x177 SWAP2 SWAP1 PUSH2 0x312 JUMP JUMPDEST PUSH2 0x277 JUMP JUMPDEST STOP JUMPDEST PUSH2 0x186 PUSH2 0x2E4 JUMP JUMPDEST PUSH1 0x40 MLOAD PUSH2 0x193 SWAP2 SWAP1 PUSH2 0x3CC JUMP JUMPDEST PUSH1 0x40 MLOAD DUP1 SWAP2 SUB SWAP1 RETURN JUMPDEST PUSH2 0x1A4 PUSH2 0x2F7 JUMP JUMPDEST PUSH1 0x40 MLOAD PUSH2 0x1B1 SWAP2 SWAP1 PUSH2 0x3B1 JUMP JUMPDEST PUSH1 0x40 MLOAD DUP1 SWAP2 SUB SWAP1 RETURN JUMPDEST PUSH1 0x0 PUSH1 0xFF AND PUSH1 0x3 DUP2 SWAP1 SSTORE POP PUSH1 0xFF DUP1 AND PUSH1 0x4 DUP2 SWAP1 SSTORE POP JUMP JUMPDEST PUSH1 0x0 SLOAD DUP2 JUMP JUMPDEST PUSH1 0x2 PUSH1 0x0 SWAP1 SLOAD SWAP1 PUSH2 0x100 EXP SWAP1 DIV PUSH1 0x0 SIGNEXTEND DUP2 JUMP JUMPDEST PUSH1 0x1 SLOAD DUP2 JUMP JUMPDEST PUSH1 0x5 PUSH1 0x0 DUP2 DUP2 SWAP1 SLOAD SWAP1 PUSH2 0x100 EXP SWAP1 DIV PUSH1 0xFF AND DUP1 SWAP3 SWAP2 SWAP1 PUSH2 0x20F SWAP1 PUSH2 0x69B JUMP JUMPDEST SWAP2 SWAP1 PUSH2 0x100 EXP DUP2 SLOAD DUP2 PUSH1 0xFF MUL NOT AND SWAP1 DUP4 PUSH1 0xFF AND MUL OR SWAP1 SSTORE POP POP JUMP JUMPDEST PUSH1 0x4 SLOAD DUP2 JUMP JUMPDEST PUSH1 0x5 PUSH1 0x1 SWAP1 SLOAD SWAP1 PUSH2 0x100 EXP SWAP1 DIV PUSH1 0xFF AND DUP2 JUMP JUMPDEST PUSH1 0x5 PUSH1 0x1 DUP2 DUP2 SWAP1 SLOAD SWAP1 PUSH2 0x100 EXP SWAP1 DIV PUSH1 0xFF AND DUP1 SWAP3 SWAP2 SWAP1 PUSH1 0x1 ADD SWAP2 SWAP1 PUSH2 0x100 EXP DUP2 SLOAD DUP2 PUSH1 0xFF MUL NOT AND SWAP1 DUP4 PUSH1 0xFF AND MUL OR SWAP1 SSTORE POP POP JUMP JUMPDEST PUSH1 0x0 PUSH1 0x2A SWAP1 POP PUSH1 0x0 PUSH2 0x4D2 SWAP1 POP PUSH1 0x0 PUSH1 0xFF SWAP1 POP PUSH1 0x1 DUP4 PUSH2 0x297 SWAP2 SWAP1 PUSH2 0x3E7 JUMP JUMPDEST POP PUSH1 0x1 DUP4 PUSH2 0x2A5 SWAP2 SWAP1 PUSH2 0x639 JUMP JUMPDEST POP PUSH1 0x5 DUP4 PUSH2 0x2B3 SWAP2 SWAP1 PUSH2 0x5DF JUMP JUMPDEST POP PUSH1 0x5 DUP4 PUSH2 0x2C1 SWAP2 SWAP1 PUSH2 0x43D JUMP JUMPDEST POP PUSH1 0x2 DUP4 PUSH2 0x2CF SWAP2 SWAP1 PUSH2 0x4C1 JUMP JUMPDEST POP PUSH1 0x1 DUP4 PUSH2 0x2DD SWAP2 SWAP1 PUSH2 0x6C5 JUMP JUMPDEST POP POP POP POP POP JUMP JUMPDEST PUSH1 0x5 PUSH1 0x0 SWAP1 SLOAD SWAP1 PUSH2 0x100 EXP SWAP1 DIV PUSH1 0xFF AND DUP2 JUMP JUMPDEST PUSH1 0x3 SLOAD DUP2 JUMP JUMPDEST PUSH1 0x0 DUP2 CALLDATALOAD SWAP1 POP PUSH2 0x30C DUP2 PUSH2 0x766 JUMP JUMPDEST SWAP3 SWAP2 POP POP JUMP JUMPDEST PUSH1 0x0 PUSH1 0x20 DUP3 DUP5 SUB SLT ISZERO PUSH2 0x328 JUMPI PUSH2 0x327 PUSH2 0x754 JUMP JUMPDEST JUMPDEST PUSH1 0x0 PUSH2 0x336 DUP5 DUP3 DUP6 ADD PUSH2 0x2FD JUMP JUMPDEST SWAP2 POP POP SWAP3 SWAP2 POP POP JUMP JUMPDEST PUSH2 0x348 DUP2 PUSH2 0x66D JUMP JUMPDEST DUP3 MSTORE POP POP JUMP JUMPDEST PUSH2 0x357 DUP2 PUSH2 0x677 JUMP JUMPDEST DUP3 MSTORE POP POP JUMP JUMPDEST PUSH2 0x366 DUP2 PUSH2 0x684 JUMP JUMPDEST DUP3 MSTORE POP POP JUMP JUMPDEST PUSH2 0x375 DUP2 PUSH2 0x68E JUMP JUMPDEST DUP3 MSTORE POP POP JUMP JUMPDEST PUSH1 0x0 PUSH1 0x20 DUP3 ADD SWAP1 POP PUSH2 0x390 PUSH1 0x0 DUP4 ADD DUP5 PUSH2 0x33F JUMP JUMPDEST SWAP3 SWAP2 POP POP JUMP JUMPDEST PUSH1 0x0 PUSH1 0x20 DUP3 ADD SWAP1 POP PUSH2 0x3AB PUSH1 0x0 DUP4 ADD DUP5 PUSH2 0x34E JUMP JUMPDEST SWAP3 SWAP2 POP POP JUMP JUMPDEST PUSH1 0x0 PUSH1 0x20 DUP3 ADD SWAP1 POP PUSH2 0x3C6 PUSH1 0x0 DUP4 ADD DUP5 PUSH2 0x35D JUMP JUMPDEST SWAP3 SWAP2 POP POP JUMP JUMPDEST PUSH1 0x0 PUSH1 0x20 DUP3 ADD SWAP1 POP PUSH2 0x3E1 PUSH1 0x0 DUP4 ADD DUP5 PUSH2 0x36C JUMP JUMPDEST SWAP3 SWAP2 POP POP JUMP JUMPDEST PUSH1 0x0 PUSH2 0x3F2 DUP3 PUSH2 0x684 JUMP JUMPDEST SWAP2 POP PUSH2 0x3FD DUP4 PUSH2 0x684 JUMP JUMPDEST SWAP3 POP DUP3 PUSH32 0xFFFFFFFFFFFFFFFFFFFFFFFFFFFFFFFFFFFFFFFFFFFFFFFFFFFFFFFFFFFFFFFF SUB DUP3 GT ISZERO PUSH2 0x432 JUMPI PUSH2 0x431 PUSH2 0x6F6 JUMP JUMPDEST JUMPDEST DUP3 DUP3 ADD SWAP1 POP SWAP3 SWAP2 POP POP JUMP JUMPDEST PUSH1 0x0 PUSH2 0x448 DUP3 PUSH2 0x684 JUMP JUMPDEST SWAP2 POP PUSH2 0x453 DUP4 PUSH2 0x684 JUMP JUMPDEST SWAP3 POP DUP3 PUSH2 0x463 JUMPI PUSH2 0x462 PUSH2 0x725 JUMP JUMPDEST JUMPDEST DUP3 DUP3 DIV SWAP1 POP SWAP3 SWAP2 POP POP JUMP JUMPDEST PUSH1 0x0 DUP1 DUP3 SWAP2 POP DUP4 SWAP1 POP JUMPDEST PUSH1 0x1 DUP6 GT ISZERO PUSH2 0x4B8 JUMPI DUP1 DUP7 DIV DUP2 GT ISZERO PUSH2 0x494 JUMPI PUSH2 0x493 PUSH2 0x6F6 JUMP JUMPDEST JUMPDEST PUSH1 0x1 DUP6 AND ISZERO PUSH2 0x4A3 JUMPI DUP1 DUP3 MUL SWAP2 POP JUMPDEST DUP1 DUP2 MUL SWAP1 POP PUSH2 0x4B1 DUP6 PUSH2 0x759 JUMP JUMPDEST SWAP5 POP PUSH2 0x478 JUMP JUMPDEST SWAP5 POP SWAP5 SWAP3 POP POP POP JUMP JUMPDEST PUSH1 0x0 PUSH2 0x4CC DUP3 PUSH2 0x684 JUMP JUMPDEST SWAP2 POP PUSH2 0x4D7 DUP4 PUSH2 0x68E JUMP JUMPDEST SWAP3 POP PUSH2 0x504 PUSH32 0xFFFFFFFFFFFFFFFFFFFFFFFFFFFFFFFFFFFFFFFFFFFFFFFFFFFFFFFFFFFFFFFF DUP5 DUP5 PUSH2 0x50C JUMP JUMPDEST SWAP1 POP SWAP3 SWAP2 POP POP JUMP JUMPDEST PUSH1 0x0 DUP3 PUSH2 0x51C JUMPI PUSH1 0x1 SWAP1 POP PUSH2 0x5D8 JUMP JUMPDEST DUP2 PUSH2 0x52A JUMPI PUSH1 0x0 SWAP1 POP PUSH2 0x5D8 JUMP JUMPDEST DUP2 PUSH1 0x1 DUP2 EQ PUSH2 0x540 JUMPI PUSH1 0x2 DUP2 EQ PUSH2 0x54A JUMPI PUSH2 0x579 JUMP JUMPDEST PUSH1 0x1 SWAP2 POP POP PUSH2 0x5D8 JUMP JUMPDEST PUSH1 0xFF DUP5 GT ISZERO PUSH2 0x55C JUMPI PUSH2 0x55B PUSH2 0x6F6 JUMP JUMPDEST JUMPDEST DUP4 PUSH1 0x2 EXP SWAP2 POP DUP5 DUP3 GT ISZERO PUSH2 0x573 JUMPI PUSH2 0x572 PUSH2 0x6F6 JUMP JUMPDEST JUMPDEST POP PUSH2 0x5D8 JUMP JUMPDEST POP PUSH1 0x20 DUP4 LT PUSH2 0x133 DUP4 LT AND PUSH1 0x4E DUP5 LT PUSH1 0xB DUP5 LT AND OR ISZERO PUSH2 0x5AE JUMPI DUP3 DUP3 EXP SWAP1 POP DUP4 DUP2 GT ISZERO PUSH2 0x5A9 JUMPI PUSH2 0x5A8 PUSH2 0x6F6 JUMP JUMPDEST JUMPDEST PUSH2 0x5D8 JUMP JUMPDEST PUSH2 0x5BB DUP5 DUP5 DUP5 PUSH1 0x1 PUSH2 0x46E JUMP JUMPDEST SWAP3 POP SWAP1 POP DUP2 DUP5 DIV DUP2 GT ISZERO PUSH2 0x5D2 JUMPI PUSH2 0x5D1 PUSH2 0x6F6 JUMP JUMPDEST JUMPDEST DUP2 DUP2 MUL SWAP1 POP JUMPDEST SWAP4 SWAP3 POP POP POP JUMP JUMPDEST PUSH1 0x0 PUSH2 0x5EA DUP3 PUSH2 0x684 JUMP JUMPDEST SWAP2 POP PUSH2 0x5F5 DUP4 PUSH2 0x684 JUMP JUMPDEST SWAP3 POP DUP2 PUSH32 0xFFFFFFFFFFFFFFFFFFFFFFFFFFFFFFFFFFFFFFFFFFFFFFFFFFFFFFFFFFFFFFFF DIV DUP4 GT DUP3 ISZERO ISZERO AND ISZERO PUSH2 0x62E JUMPI PUSH2 0x62D PUSH2 0x6F6 JUMP JUMPDEST JUMPDEST DUP3 DUP3 MUL SWAP1 POP SWAP3 SWAP2 POP POP JUMP JUMPDEST PUSH1 0x0 PUSH2 0x644 DUP3 PUSH2 0x684 JUMP JUMPDEST SWAP2 POP PUSH2 0x64F DUP4 PUSH2 0x684 JUMP JUMPDEST SWAP3 POP DUP3 DUP3 LT ISZERO PUSH2 0x662 JUMPI PUSH2 0x661 PUSH2 0x6F6 JUMP JUMPDEST JUMPDEST DUP3 DUP3 SUB SWAP1 POP SWAP3 SWAP2 POP POP JUMP JUMPDEST PUSH1 0x0 DUP2 SWAP1 POP SWAP2 SWAP1 POP JUMP JUMPDEST PUSH1 0x0 DUP2 PUSH1 0x0 SIGNEXTEND SWAP1 POP SWAP2 SWAP1 POP JUMP JUMPDEST PUSH1 0x0 DUP2 SWAP1 POP SWAP2 SWAP1 POP JUMP JUMPDEST PUSH1 0x0 PUSH1 0xFF DUP3 AND SWAP1 POP SWAP2 SWAP1 POP JUMP JUMPDEST PUSH1 0x0 PUSH2 0x6A6 DUP3 PUSH2 0x68E JUMP JUMPDEST SWAP2 POP PUSH1 0x0 DUP3 EQ ISZERO PUSH2 0x6BA JUMPI PUSH2 0x6B9 PUSH2 0x6F6 JUMP JUMPDEST JUMPDEST PUSH1 0x1 DUP3 SUB SWAP1 POP SWAP2 SWAP1 POP JUMP JUMPDEST PUSH1 0x0 PUSH2 0x6D0 DUP3 PUSH2 0x684 JUMP JUMPDEST SWAP2 POP PUSH2 0x6DB DUP4 PUSH2 0x684 JUMP JUMPDEST SWAP3 POP DUP3 PUSH2 0x6EB JUMPI PUSH2 0x6EA PUSH2 0x725 JUMP JUMPDEST JUMPDEST DUP3 DUP3 MOD SWAP1 POP SWAP3 SWAP2 POP POP JUMP JUMPDEST PUSH32 0x4E487B7100000000000000000000000000000000000000000000000000000000 PUSH1 0x0 MSTORE PUSH1 0x11 PUSH1 0x4 MSTORE PUSH1 0x24 PUSH1 0x0 REVERT JUMPDEST PUSH32 0x4E487B7100000000000000000000000000000000000000000000000000000000 PUSH1 0x0 MSTORE PUSH1 0x12 PUSH1 0x4 MSTORE PUSH1 0x24 PUSH1 0x0 REVERT JUMPDEST PUSH1 0x0 DUP1 REVERT JUMPDEST PUSH1 0x0 DUP2 PUSH1 0x1 SHR SWAP1 POP SWAP2 SWAP1 POP JUMP JUMPDEST PUSH2 0x76F DUP2 PUSH2 0x684 JUMP JUMPDEST DUP2 EQ PUSH2 0x77A JUMPI PUSH1 0x0 DUP1 REVERT JUMPDEST POP JUMP INVALID LOG2 PUSH5 0x6970667358 0x22 SLT KECCAK256 0xD5 0xE9 SLT 0xCE LOG1 0x49 0xBD POP PUSH2 0x6FF7 PUSH18 0xED548687066ECFF6C2009D2C667D517BFA8E 0xBC 0xE1 PUSH5 0x736F6C6343 STOP ADDMOD SMOD STOP CALLER "
		},
		"gasEstimates": {
			"creation": {
				"codeDepositCost": "394200",
				"executionCost": "117501",
				"totalCost": "511701"
			},
			"external": {
				"curryedInc()": "26717",
				"demo()": "27285",
				"inc()": "26791",
				"max()": "2429",
				"min()": "2539",
				"myFunc(uint256)": "infinite",
				"myInt()": "2496",
				"mySmallestInt()": "2520",
				"myUint()": "2452",
				"tempCVal()": "2543",
				"tempVal()": "2559"
			}
		},
		"methodIdentifiers": {
			"curryedInc()": "8378652f",
			"demo()": "01725a0b",
			"inc()": "371303c0",
			"max()": "6ac5db19",
			"min()": "f8897945",
			"myFunc(uint256)": "a9bf5633",
			"myInt()": "2cb777a6",
			"mySmallestInt()": "0b79ba80",
			"myUint()": "06540f7e",
			"tempCVal()": "7031ac49",
			"tempVal()": "a9e23bea"
		}
	},
	"abi": [
		{
			"inputs": [],
			"name": "curryedInc",
			"outputs": [],
			"stateMutability": "nonpayable",
			"type": "function"
		},
		{
			"inputs": [],
			"name": "demo",
			"outputs": [],
			"stateMutability": "nonpayable",
			"type": "function"
		},
		{
			"inputs": [],
			"name": "inc",
			"outputs": [],
			"stateMutability": "nonpayable",
			"type": "function"
		},
		{
			"inputs": [],
			"name": "max",
			"outputs": [
				{
					"internalType": "uint256",
					"name": "",
					"type": "uint256"
				}
			],
			"stateMutability": "view",
			"type": "function"
		},
		{
			"inputs": [],
			"name": "min",
			"outputs": [
				{
					"internalType": "uint256",
					"name": "",
					"type": "uint256"
				}
			],
			"stateMutability": "view",
			"type": "function"
		},
		{
			"inputs": [
				{
					"internalType": "uint256",
					"name": "_tempUint",
					"type": "uint256"
				}
			],
			"name": "myFunc",
			"outputs": [],
			"stateMutability": "nonpayable",
			"type": "function"
		},
		{
			"inputs": [],
			"name": "myInt",
			"outputs": [
				{
					"internalType": "int256",
					"name": "",
					"type": "int256"
				}
			],
			"stateMutability": "view",
			"type": "function"
		},
		{
			"inputs": [],
			"name": "mySmallestInt",
			"outputs": [
				{
					"internalType": "int8",
					"name": "",
					"type": "int8"
				}
			],
			"stateMutability": "view",
			"type": "function"
		},
		{
			"inputs": [],
			"name": "myUint",
			"outputs": [
				{
					"internalType": "uint256",
					"name": "",
					"type": "uint256"
				}
			],
			"stateMutability": "view",
			"type": "function"
		},
		{
			"inputs": [],
			"name": "tempCVal",
			"outputs": [
				{
					"internalType": "uint8",
					"name": "",
					"type": "uint8"
				}
			],
			"stateMutability": "view",
			"type": "function"
		},
		{
			"inputs": [],
			"name": "tempVal",
			"outputs": [
				{
					"internalType": "uint8",
					"name": "",
					"type": "uint8"
				}
			],
			"stateMutability": "view",
			"type": "function"
		}
	]
}